{
  "_format": "hh-sol-artifact-1",
  "contractName": "AccountManager",
  "sourceName": "contracts/UniversalAccountRegistry.sol",
  "abi": [
    {
      "anonymous": false,
      "inputs": [
        {
          "indexed": true,
          "internalType": "address",
          "name": "accountAddress",
          "type": "address"
        },
        {
          "indexed": false,
          "internalType": "string",
          "name": "username",
          "type": "string"
        }
      ],
      "name": "UserRegistered",
      "type": "event"
    },
    {
      "anonymous": false,
      "inputs": [
        {
          "indexed": true,
          "internalType": "address",
          "name": "accountAddress",
          "type": "address"
        },
        {
          "indexed": false,
          "internalType": "string",
          "name": "newUsername",
          "type": "string"
        }
      ],
      "name": "UsernameChanged",
      "type": "event"
    },
    {
      "inputs": [
        {
          "internalType": "address",
          "name": "",
          "type": "address"
        }
      ],
      "name": "addressToUsername",
      "outputs": [
        {
          "internalType": "string",
          "name": "",
          "type": "string"
        }
      ],
      "stateMutability": "view",
      "type": "function"
    },
    {
      "inputs": [
        {
          "internalType": "string",
          "name": "newUsername",
          "type": "string"
        }
      ],
      "name": "changeUsername",
      "outputs": [],
      "stateMutability": "nonpayable",
      "type": "function"
    },
    {
      "inputs": [
        {
          "internalType": "address",
          "name": "accountAddress",
          "type": "address"
        }
      ],
      "name": "getUsername",
      "outputs": [
        {
          "internalType": "string",
          "name": "",
          "type": "string"
        }
      ],
      "stateMutability": "view",
      "type": "function"
    },
    {
      "inputs": [
        {
          "internalType": "string",
          "name": "username",
          "type": "string"
        }
      ],
      "name": "registerAccount",
      "outputs": [],
      "stateMutability": "nonpayable",
      "type": "function"
    }
  ],
  "bytecode": "0x608060405234801561001057600080fd5b50610f8f806100206000396000f3fe608060405234801561001057600080fd5b506004361061004c5760003560e01c806377c846af14610051578063bff6de201461006d578063ce43c03214610089578063e07a0baa146100b9575b600080fd5b61006b6004803603810190610066919061088d565b6100e9565b005b6100876004803603810190610082919061088d565b6103b3565b005b6100a3600480360381019061009e9190610934565b6105c3565b6040516100b091906109e0565b60405180910390f35b6100d360048036038101906100ce9190610934565b610693565b6040516100e091906109e0565b60405180910390f35b60008060003373ffffffffffffffffffffffffffffffffffffffff1673ffffffffffffffffffffffffffffffffffffffff168152602001908152602001600020805461013490610a31565b80601f016020809104026020016040519081016040528092919081815260200182805461016090610a31565b80156101ad5780601f10610182576101008083540402835291602001916101ad565b820191906000526020600020905b81548152906001019060200180831161019057829003601f168201915b5050505050905060008151116101f8576040517f08c379a00000000000000000000000000000000000000000000000000000000081526004016101ef90610aae565b60405180910390fd5b600082511161023c576040517f08c379a000000000000000000000000000000000000000000000000000000000815260040161023390610b1a565b60405180910390fd5b60018260405161024c9190610b76565b908152602001604051809103902060009054906101000a900460ff16156102a8576040517f08c379a000000000000000000000000000000000000000000000000000000000815260040161029f90610bd9565b60405180910390fd5b60006001826040516102ba9190610b76565b908152602001604051809103902060006101000a81548160ff021916908315150217905550816000803373ffffffffffffffffffffffffffffffffffffffff1673ffffffffffffffffffffffffffffffffffffffff168152602001908152602001600020908161032a9190610daf565b506001808360405161033c9190610b76565b908152602001604051809103902060006101000a81548160ff0219169083151502179055503373ffffffffffffffffffffffffffffffffffffffff167f52da81525a30dd3d35a802705ef9adc922d33de50a5b8efc24b69e440451e065836040516103a791906109e0565b60405180910390a25050565b60008151116103f7576040517f08c379a00000000000000000000000000000000000000000000000000000000081526004016103ee90610ecd565b60405180910390fd5b60008060003373ffffffffffffffffffffffffffffffffffffffff1673ffffffffffffffffffffffffffffffffffffffff168152602001908152602001600020805461044290610a31565b905014610484576040517f08c379a000000000000000000000000000000000000000000000000000000000815260040161047b90610f39565b60405180910390fd5b6001816040516104949190610b76565b908152602001604051809103902060009054906101000a900460ff16156104f0576040517f08c379a00000000000000000000000000000000000000000000000000000000081526004016104e790610bd9565b60405180910390fd5b806000803373ffffffffffffffffffffffffffffffffffffffff1673ffffffffffffffffffffffffffffffffffffffff168152602001908152602001600020908161053b9190610daf565b506001808260405161054d9190610b76565b908152602001604051809103902060006101000a81548160ff0219169083151502179055503373ffffffffffffffffffffffffffffffffffffffff167f48cac28ad4dc618e15f4c2dd5e97751182f166de97b25618318b2112aa951a2f826040516105b891906109e0565b60405180910390a250565b60606000808373ffffffffffffffffffffffffffffffffffffffff1673ffffffffffffffffffffffffffffffffffffffff168152602001908152602001600020805461060e90610a31565b80601f016020809104026020016040519081016040528092919081815260200182805461063a90610a31565b80156106875780601f1061065c57610100808354040283529160200191610687565b820191906000526020600020905b81548152906001019060200180831161066a57829003601f168201915b50505050509050919050565b600060205280600052604060002060009150905080546106b290610a31565b80601f01602080910402602001604051908101604052809291908181526020018280546106de90610a31565b801561072b5780601f106107005761010080835404028352916020019161072b565b820191906000526020600020905b81548152906001019060200180831161070e57829003601f168201915b505050505081565b6000604051905090565b600080fd5b600080fd5b600080fd5b600080fd5b6000601f19601f8301169050919050565b7f4e487b7100000000000000000000000000000000000000000000000000000000600052604160045260246000fd5b61079a82610751565b810181811067ffffffffffffffff821117156107b9576107b8610762565b5b80604052505050565b60006107cc610733565b90506107d88282610791565b919050565b600067ffffffffffffffff8211156107f8576107f7610762565b5b61080182610751565b9050602081019050919050565b82818337600083830152505050565b600061083061082b846107dd565b6107c2565b90508281526020810184848401111561084c5761084b61074c565b5b61085784828561080e565b509392505050565b600082601f83011261087457610873610747565b5b813561088484826020860161081d565b91505092915050565b6000602082840312156108a3576108a261073d565b5b600082013567ffffffffffffffff8111156108c1576108c0610742565b5b6108cd8482850161085f565b91505092915050565b600073ffffffffffffffffffffffffffffffffffffffff82169050919050565b6000610901826108d6565b9050919050565b610911816108f6565b811461091c57600080fd5b50565b60008135905061092e81610908565b92915050565b60006020828403121561094a5761094961073d565b5b60006109588482850161091f565b91505092915050565b600081519050919050565b600082825260208201905092915050565b60005b8381101561099b578082015181840152602081019050610980565b60008484015250505050565b60006109b282610961565b6109bc818561096c565b93506109cc81856020860161097d565b6109d581610751565b840191505092915050565b600060208201905081810360008301526109fa81846109a7565b905092915050565b7f4e487b7100000000000000000000000000000000000000000000000000000000600052602260045260246000fd5b60006002820490506001821680610a4957607f821691505b602082108103610a5c57610a5b610a02565b5b50919050565b7f4163636f756e74206e6f74207265676973746572656400000000000000000000600082015250565b6000610a9860168361096c565b9150610aa382610a62565b602082019050919050565b60006020820190508181036000830152610ac781610a8b565b9050919050565b7f4e657720757365726e616d652063616e6e6f7420626520656d70747900000000600082015250565b6000610b04601c8361096c565b9150610b0f82610ace565b602082019050919050565b60006020820190508181036000830152610b3381610af7565b9050919050565b600081905092915050565b6000610b5082610961565b610b5a8185610b3a565b9350610b6a81856020860161097d565b80840191505092915050565b6000610b828284610b45565b915081905092915050565b7f557365726e616d6520616c72656164792074616b656e00000000000000000000600082015250565b6000610bc360168361096c565b9150610bce82610b8d565b602082019050919050565b60006020820190508181036000830152610bf281610bb6565b9050919050565b60008190508160005260206000209050919050565b60006020601f8301049050919050565b600082821b905092915050565b600060088302610c5b7fffffffffffffffffffffffffffffffffffffffffffffffffffffffffffffffff82610c1e565b610c658683610c1e565b95508019841693508086168417925050509392505050565b6000819050919050565b6000819050919050565b6000610cac610ca7610ca284610c7d565b610c87565b610c7d565b9050919050565b6000819050919050565b610cc683610c91565b610cda610cd282610cb3565b848454610c2b565b825550505050565b600090565b610cef610ce2565b610cfa818484610cbd565b505050565b5b81811015610d1e57610d13600082610ce7565b600181019050610d00565b5050565b601f821115610d6357610d3481610bf9565b610d3d84610c0e565b81016020851015610d4c578190505b610d60610d5885610c0e565b830182610cff565b50505b505050565b600082821c905092915050565b6000610d8660001984600802610d68565b1980831691505092915050565b6000610d9f8383610d75565b9150826002028217905092915050565b610db882610961565b67ffffffffffffffff811115610dd157610dd0610762565b5b610ddb8254610a31565b610de6828285610d22565b600060209050601f831160018114610e195760008415610e07578287015190505b610e118582610d93565b865550610e79565b601f198416610e2786610bf9565b60005b82811015610e4f57848901518255600182019150602085019450602081019050610e2a565b86831015610e6c5784890151610e68601f891682610d75565b8355505b6001600288020188555050505b505050505050565b7f557365726e616d652063616e6e6f7420626520656d7074790000000000000000600082015250565b6000610eb760188361096c565b9150610ec282610e81565b602082019050919050565b60006020820190508181036000830152610ee681610eaa565b9050919050565b7f4163636f756e7420616c72656164792072656769737465726564000000000000600082015250565b6000610f23601a8361096c565b9150610f2e82610eed565b602082019050919050565b60006020820190508181036000830152610f5281610f16565b905091905056fea26469706673582212204c00a457fd14aaf6370b46ce88634c1a7ef72c3994e5aa87a7e4ec1d7db4b55264736f6c63430008140033",
  "linkReferences": {},
  "deployedLinkReferences": {}
}