{
  "_format": "hh-sol-artifact-1",
  "contractName": "AccountManager",
  "sourceName": "contracts/UniversalAccountRegistry.sol",
  "abi": [
    {
      "anonymous": false,
      "inputs": [
        {
          "indexed": true,
          "internalType": "address",
          "name": "accountAddress",
          "type": "address"
        },
        {
          "indexed": false,
          "internalType": "string",
          "name": "username",
          "type": "string"
        }
      ],
      "name": "UserRegistered",
      "type": "event"
    },
    {
      "anonymous": false,
      "inputs": [
        {
          "indexed": true,
          "internalType": "address",
          "name": "accountAddress",
          "type": "address"
        },
        {
          "indexed": false,
          "internalType": "string",
          "name": "newUsername",
          "type": "string"
        }
      ],
      "name": "UsernameChanged",
      "type": "event"
    },
    {
      "inputs": [
        {
          "internalType": "address",
          "name": "",
          "type": "address"
        }
      ],
      "name": "addressToUsername",
      "outputs": [
        {
          "internalType": "string",
          "name": "",
          "type": "string"
        }
      ],
      "stateMutability": "view",
      "type": "function"
    },
    {
      "inputs": [
        {
          "internalType": "string",
          "name": "newUsername",
          "type": "string"
        }
      ],
      "name": "changeUsername",
      "outputs": [],
      "stateMutability": "nonpayable",
      "type": "function"
    },
    {
      "inputs": [
        {
          "internalType": "address",
          "name": "accountAddress",
          "type": "address"
        }
      ],
      "name": "getUsername",
      "outputs": [
        {
          "internalType": "string",
          "name": "",
          "type": "string"
        }
      ],
      "stateMutability": "view",
      "type": "function"
    },
    {
      "inputs": [
        {
          "internalType": "string",
          "name": "username",
          "type": "string"
        }
      ],
      "name": "registerAccount",
      "outputs": [],
      "stateMutability": "nonpayable",
      "type": "function"
    },
    {
      "inputs": [
        {
          "internalType": "string",
          "name": "username",
          "type": "string"
        },
        {
          "internalType": "address",
          "name": "newUser",
          "type": "address"
        }
      ],
      "name": "registerAccountQuickJoin",
      "outputs": [],
      "stateMutability": "nonpayable",
      "type": "function"
    }
  ],
  "bytecode": "0x608060405234801561001057600080fd5b50611223806100206000396000f3fe608060405234801561001057600080fd5b50600436106100575760003560e01c806325a98bca1461005c57806377c846af14610078578063bff6de2014610094578063ce43c032146100b0578063e07a0baa146100e0575b600080fd5b61007660048036038101906100719190610b23565b610110565b005b610092600480360381019061008d9190610b7f565b610321565b005b6100ae60048036038101906100a99190610b7f565b6105eb565b005b6100ca60048036038101906100c59190610bc8565b6107fb565b6040516100d79190610c74565b60405180910390f35b6100fa60048036038101906100f59190610bc8565b6108cb565b6040516101079190610c74565b60405180910390f35b6000825111610154576040517f08c379a000000000000000000000000000000000000000000000000000000000815260040161014b90610ce2565b60405180910390fd5b60008060008373ffffffffffffffffffffffffffffffffffffffff1673ffffffffffffffffffffffffffffffffffffffff168152602001908152602001600020805461019f90610d31565b9050146101e1576040517f08c379a00000000000000000000000000000000000000000000000000000000081526004016101d890610dae565b60405180910390fd5b6001826040516101f19190610e0a565b908152602001604051809103902060009054906101000a900460ff161561024d576040517f08c379a000000000000000000000000000000000000000000000000000000000815260040161024490610e6d565b60405180910390fd5b816000808373ffffffffffffffffffffffffffffffffffffffff1673ffffffffffffffffffffffffffffffffffffffff16815260200190815260200160002090816102989190611043565b50600180836040516102aa9190610e0a565b908152602001604051809103902060006101000a81548160ff0219169083151502179055508073ffffffffffffffffffffffffffffffffffffffff167f48cac28ad4dc618e15f4c2dd5e97751182f166de97b25618318b2112aa951a2f836040516103159190610c74565b60405180910390a25050565b60008060003373ffffffffffffffffffffffffffffffffffffffff1673ffffffffffffffffffffffffffffffffffffffff168152602001908152602001600020805461036c90610d31565b80601f016020809104026020016040519081016040528092919081815260200182805461039890610d31565b80156103e55780601f106103ba576101008083540402835291602001916103e5565b820191906000526020600020905b8154815290600101906020018083116103c857829003601f168201915b505050505090506000815111610430576040517f08c379a000000000000000000000000000000000000000000000000000000000815260040161042790611161565b60405180910390fd5b6000825111610474576040517f08c379a000000000000000000000000000000000000000000000000000000000815260040161046b906111cd565b60405180910390fd5b6001826040516104849190610e0a565b908152602001604051809103902060009054906101000a900460ff16156104e0576040517f08c379a00000000000000000000000000000000000000000000000000000000081526004016104d790610e6d565b60405180910390fd5b60006001826040516104f29190610e0a565b908152602001604051809103902060006101000a81548160ff021916908315150217905550816000803373ffffffffffffffffffffffffffffffffffffffff1673ffffffffffffffffffffffffffffffffffffffff16815260200190815260200160002090816105629190611043565b50600180836040516105749190610e0a565b908152602001604051809103902060006101000a81548160ff0219169083151502179055503373ffffffffffffffffffffffffffffffffffffffff167f52da81525a30dd3d35a802705ef9adc922d33de50a5b8efc24b69e440451e065836040516105df9190610c74565b60405180910390a25050565b600081511161062f576040517f08c379a000000000000000000000000000000000000000000000000000000000815260040161062690610ce2565b60405180910390fd5b60008060003373ffffffffffffffffffffffffffffffffffffffff1673ffffffffffffffffffffffffffffffffffffffff168152602001908152602001600020805461067a90610d31565b9050146106bc576040517f08c379a00000000000000000000000000000000000000000000000000000000081526004016106b390610dae565b60405180910390fd5b6001816040516106cc9190610e0a565b908152602001604051809103902060009054906101000a900460ff1615610728576040517f08c379a000000000000000000000000000000000000000000000000000000000815260040161071f90610e6d565b60405180910390fd5b806000803373ffffffffffffffffffffffffffffffffffffffff1673ffffffffffffffffffffffffffffffffffffffff16815260200190815260200160002090816107739190611043565b50600180826040516107859190610e0a565b908152602001604051809103902060006101000a81548160ff0219169083151502179055503373ffffffffffffffffffffffffffffffffffffffff167f48cac28ad4dc618e15f4c2dd5e97751182f166de97b25618318b2112aa951a2f826040516107f09190610c74565b60405180910390a250565b60606000808373ffffffffffffffffffffffffffffffffffffffff1673ffffffffffffffffffffffffffffffffffffffff168152602001908152602001600020805461084690610d31565b80601f016020809104026020016040519081016040528092919081815260200182805461087290610d31565b80156108bf5780601f10610894576101008083540402835291602001916108bf565b820191906000526020600020905b8154815290600101906020018083116108a257829003601f168201915b50505050509050919050565b600060205280600052604060002060009150905080546108ea90610d31565b80601f016020809104026020016040519081016040528092919081815260200182805461091690610d31565b80156109635780601f1061093857610100808354040283529160200191610963565b820191906000526020600020905b81548152906001019060200180831161094657829003601f168201915b505050505081565b6000604051905090565b600080fd5b600080fd5b600080fd5b600080fd5b6000601f19601f8301169050919050565b7f4e487b7100000000000000000000000000000000000000000000000000000000600052604160045260246000fd5b6109d282610989565b810181811067ffffffffffffffff821117156109f1576109f061099a565b5b80604052505050565b6000610a0461096b565b9050610a1082826109c9565b919050565b600067ffffffffffffffff821115610a3057610a2f61099a565b5b610a3982610989565b9050602081019050919050565b82818337600083830152505050565b6000610a68610a6384610a15565b6109fa565b905082815260208101848484011115610a8457610a83610984565b5b610a8f848285610a46565b509392505050565b600082601f830112610aac57610aab61097f565b5b8135610abc848260208601610a55565b91505092915050565b600073ffffffffffffffffffffffffffffffffffffffff82169050919050565b6000610af082610ac5565b9050919050565b610b0081610ae5565b8114610b0b57600080fd5b50565b600081359050610b1d81610af7565b92915050565b60008060408385031215610b3a57610b39610975565b5b600083013567ffffffffffffffff811115610b5857610b5761097a565b5b610b6485828601610a97565b9250506020610b7585828601610b0e565b9150509250929050565b600060208284031215610b9557610b94610975565b5b600082013567ffffffffffffffff811115610bb357610bb261097a565b5b610bbf84828501610a97565b91505092915050565b600060208284031215610bde57610bdd610975565b5b6000610bec84828501610b0e565b91505092915050565b600081519050919050565b600082825260208201905092915050565b60005b83811015610c2f578082015181840152602081019050610c14565b60008484015250505050565b6000610c4682610bf5565b610c508185610c00565b9350610c60818560208601610c11565b610c6981610989565b840191505092915050565b60006020820190508181036000830152610c8e8184610c3b565b905092915050565b7f557365726e616d652063616e6e6f7420626520656d7074790000000000000000600082015250565b6000610ccc601883610c00565b9150610cd782610c96565b602082019050919050565b60006020820190508181036000830152610cfb81610cbf565b9050919050565b7f4e487b7100000000000000000000000000000000000000000000000000000000600052602260045260246000fd5b60006002820490506001821680610d4957607f821691505b602082108103610d5c57610d5b610d02565b5b50919050565b7f4163636f756e7420616c72656164792072656769737465726564000000000000600082015250565b6000610d98601a83610c00565b9150610da382610d62565b602082019050919050565b60006020820190508181036000830152610dc781610d8b565b9050919050565b600081905092915050565b6000610de482610bf5565b610dee8185610dce565b9350610dfe818560208601610c11565b80840191505092915050565b6000610e168284610dd9565b915081905092915050565b7f557365726e616d6520616c72656164792074616b656e00000000000000000000600082015250565b6000610e57601683610c00565b9150610e6282610e21565b602082019050919050565b60006020820190508181036000830152610e8681610e4a565b9050919050565b60008190508160005260206000209050919050565b60006020601f8301049050919050565b600082821b905092915050565b600060088302610eef7fffffffffffffffffffffffffffffffffffffffffffffffffffffffffffffffff82610eb2565b610ef98683610eb2565b95508019841693508086168417925050509392505050565b6000819050919050565b6000819050919050565b6000610f40610f3b610f3684610f11565b610f1b565b610f11565b9050919050565b6000819050919050565b610f5a83610f25565b610f6e610f6682610f47565b848454610ebf565b825550505050565b600090565b610f83610f76565b610f8e818484610f51565b505050565b5b81811015610fb257610fa7600082610f7b565b600181019050610f94565b5050565b601f821115610ff757610fc881610e8d565b610fd184610ea2565b81016020851015610fe0578190505b610ff4610fec85610ea2565b830182610f93565b50505b505050565b600082821c905092915050565b600061101a60001984600802610ffc565b1980831691505092915050565b60006110338383611009565b9150826002028217905092915050565b61104c82610bf5565b67ffffffffffffffff8111156110655761106461099a565b5b61106f8254610d31565b61107a828285610fb6565b600060209050601f8311600181146110ad576000841561109b578287015190505b6110a58582611027565b86555061110d565b601f1984166110bb86610e8d565b60005b828110156110e3578489015182556001820191506020850194506020810190506110be565b8683101561110057848901516110fc601f891682611009565b8355505b6001600288020188555050505b505050505050565b7f4163636f756e74206e6f74207265676973746572656400000000000000000000600082015250565b600061114b601683610c00565b915061115682611115565b602082019050919050565b6000602082019050818103600083015261117a8161113e565b9050919050565b7f4e657720757365726e616d652063616e6e6f7420626520656d70747900000000600082015250565b60006111b7601c83610c00565b91506111c282611181565b602082019050919050565b600060208201905081810360008301526111e6816111aa565b905091905056fea264697066735822122037cc879a07952a389c029dd3c81679ee57c864c6469e2b2869fa7f5ec6809bec64736f6c63430008140033",
  "linkReferences": {},
  "deployedLinkReferences": {}
}