{"abi":[{"type":"function","name":"addressToUsername","inputs":[{"name":"","type":"address","internalType":"address"}],"outputs":[{"name":"","type":"string","internalType":"string"}],"stateMutability":"view"},{"type":"function","name":"changeUsername","inputs":[{"name":"newUsername","type":"string","internalType":"string"}],"outputs":[],"stateMutability":"nonpayable"},{"type":"function","name":"getUsername","inputs":[{"name":"accountAddress","type":"address","internalType":"address"}],"outputs":[{"name":"","type":"string","internalType":"string"}],"stateMutability":"view"},{"type":"function","name":"registerAccount","inputs":[{"name":"username","type":"string","internalType":"string"}],"outputs":[],"stateMutability":"nonpayable"},{"type":"function","name":"registerAccountQuickJoin","inputs":[{"name":"username","type":"string","internalType":"string"},{"name":"newUser","type":"address","internalType":"address"}],"outputs":[],"stateMutability":"nonpayable"},{"type":"event","name":"UserRegistered","inputs":[{"name":"accountAddress","type":"address","indexed":true,"internalType":"address"},{"name":"username","type":"string","indexed":false,"internalType":"string"}],"anonymous":false},{"type":"event","name":"UsernameChanged","inputs":[{"name":"accountAddress","type":"address","indexed":true,"internalType":"address"},{"name":"newUsername","type":"string","indexed":false,"internalType":"string"}],"anonymous":false}],"bytecode":{"object":"0x60808060405234601557610a2b908161001b8239f35b600080fdfe6080604052600436101561001257600080fd5b60003560e01c806325a98bca1461053557806377c846af146102c3578063bff6de20146100a2578063ce43c032146100535763e07a0baa1461005357600080fd5b3461009d57602036600319011261009d576001600160a01b036100746107d5565b16600052600060205261009961008d6040600020610874565b6040519182918261080e565b0390f35b600080fd5b3461009d57602036600319011261009d5760043567ffffffffffffffff811161009d576100d390369060040161077e565b6100df81511515610918565b3360005260006020526100ff6100f960406000205461083a565b15610964565b60405161012e60ff8351926020818187019561011c8183896107eb565b810160018152030190205416156109b0565b3360005260006020526040600020825167ffffffffffffffff81116102ad57610157825461083a565b601f8111610265575b506020601f82116001146101fa5791816101a594926020946000916101ef575b508160011b916000199060031b1c19161790555b6040518093819286519283916107eb565b81016001815203019020600160ff198254161790557f48cac28ad4dc618e15f4c2dd5e97751182f166de97b25618318b2112aa951a2f604051806101ea33948261080e565b0390a2005b905086015187610180565b601f1982169083600052806000209160005b81811061024d57509260209492600192826101a5989610610234575b5050811b019055610194565b88015160001960f88460031b161c191690558780610228565b9192602060018192868b01518155019401920161020c565b826000526020600020601f830160051c810191602084106102a3575b601f0160051c01905b8181106102975750610160565b6000815560010161028a565b9091508190610281565b634e487b7160e01b600052604160045260246000fd5b3461009d57602036600319011261009d5760043567ffffffffffffffff811161009d576102f490369060040161077e565b33600052600060205261030a6040600020610874565b8051156104f7578151156104b25761034d60206040519261033a60ff8651958481818a019861011c81838c6107eb565b81604051938285809451938492016107eb565b8101600181520301902060ff1981541690553360005260006020526040600020825167ffffffffffffffff81116102ad57610388825461083a565b601f811161046a575b506020601f82116001146104195791816103d494926020946000916101ef57508160011b916000199060031b1c19161790556040518093819286519283916107eb565b81016001815203019020600160ff198254161790557f52da81525a30dd3d35a802705ef9adc922d33de50a5b8efc24b69e440451e065604051806101ea33948261080e565b601f1982169083600052806000209160005b81811061045257509260209492600192826103d4989610610234575050811b019055610194565b9192602060018192868b01518155019401920161042b565b826000526020600020601f830160051c810191602084106104a8575b601f0160051c01905b81811061049c5750610391565b6000815560010161048f565b9091508190610486565b60405162461bcd60e51b815260206004820152601c60248201527f4e657720757365726e616d652063616e6e6f7420626520656d707479000000006044820152606490fd5b60405162461bcd60e51b81526020600482015260166024820152751058d8dbdd5b9d081b9bdd081c9959da5cdd195c995960521b6044820152606490fd5b3461009d57604036600319011261009d5760043567ffffffffffffffff811161009d5761056690369060040161077e565b6024356001600160a01b038116919082900361009d5761058881511515610918565b8160005260006020526105a26100f960406000205461083a565b6040516105bf60ff8351926020818187019561011c8183896107eb565b8260005260006020526040600020825167ffffffffffffffff81116102ad576105e8825461083a565b601f8111610714575b506020601f8211600114610685576101ea937f48cac28ad4dc618e15f4c2dd5e97751182f166de97b25618318b2112aa951a2f9593836106599460209460009161067a57508160011b916000199060031b1c19161790556040518093819286519283916107eb565b81016001815203019020600160ff198254161790556040519182918261080e565b90508601518a610180565b601f1982169083600052806000209160005b8181106106fc5750936001846020946101ea9894610659977f48cac28ad4dc618e15f4c2dd5e97751182f166de97b25618318b2112aa951a2f9b99106106e3575050811b019055610194565b88015160001960f88460031b161c191690558a80610228565b9192602060018192868b015181550194019201610697565b826000526020600020601f830160051c81019160208410610752575b601f0160051c01905b81811061074657506105f1565b60008155600101610739565b9091508190610730565b90601f8019910116810190811067ffffffffffffffff8211176102ad57604052565b81601f8201121561009d5780359067ffffffffffffffff82116102ad57604051926107b3601f8401601f19166020018561075c565b8284526020838301011161009d57816000926020809301838601378301015290565b600435906001600160a01b038216820361009d57565b60005b8381106107fe5750506000910152565b81810151838201526020016107ee565b6040916020825261082e81518092816020860152602086860191016107eb565b601f01601f1916010190565b90600182811c9216801561086a575b602083101461085457565b634e487b7160e01b600052602260045260246000fd5b91607f1691610849565b90604051918260008254926108888461083a565b80845293600181169081156108f657506001146108af575b506108ad9250038361075c565b565b90506000929192526020600020906000915b8183106108da5750509060206108ad92820101386108a0565b60209193508060019154838589010152019101909184926108c1565b9050602092506108ad94915060ff191682840152151560051b820101386108a0565b1561091f57565b60405162461bcd60e51b815260206004820152601860248201527f557365726e616d652063616e6e6f7420626520656d70747900000000000000006044820152606490fd5b1561096b57565b60405162461bcd60e51b815260206004820152601a60248201527f4163636f756e7420616c726561647920726567697374657265640000000000006044820152606490fd5b156109b757565b60405162461bcd60e51b81526020600482015260166024820152752ab9b2b93730b6b29030b63932b0b23c903a30b5b2b760511b6044820152606490fdfea2646970667358221220d91f108da1becc1671350fecaf98760f93218bbf51a9d05881f2ce55372cc60664736f6c634300081a0033","linkReferences":{}},"methodIdentifiers":{"addressToUsername(address)":"e07a0baa","changeUsername(string)":"77c846af","getUsername(address)":"ce43c032","registerAccount(string)":"bff6de20","registerAccountQuickJoin(string,address)":"25a98bca"},"id":65}