{
  "_format": "hh-sol-artifact-1",
  "contractName": "DirectDemocracyVoting",
  "sourceName": "contracts/DirectDemocracyVoting.sol",
  "abi": [
    {
      "inputs": [
        {
          "internalType": "address",
          "name": "_ddToken",
          "type": "address"
        },
        {
          "internalType": "address",
          "name": "_dao",
          "type": "address"
        }
      ],
      "stateMutability": "nonpayable",
      "type": "constructor"
    },
    {
      "anonymous": false,
      "inputs": [
        {
          "indexed": true,
          "internalType": "uint256",
          "name": "proposalId",
          "type": "uint256"
        },
        {
          "indexed": false,
          "internalType": "string",
          "name": "name",
          "type": "string"
        },
        {
          "indexed": false,
          "internalType": "string",
          "name": "description",
          "type": "string"
        },
        {
          "indexed": false,
          "internalType": "string",
          "name": "execution",
          "type": "string"
        },
        {
          "indexed": false,
          "internalType": "uint256",
          "name": "timeInMinutes",
          "type": "uint256"
        },
        {
          "indexed": false,
          "internalType": "uint256",
          "name": "creationTimestamp",
          "type": "uint256"
        }
      ],
      "name": "NewProposal",
      "type": "event"
    },
    {
      "anonymous": false,
      "inputs": [
        {
          "indexed": true,
          "internalType": "uint256",
          "name": "proposalId",
          "type": "uint256"
        },
        {
          "indexed": true,
          "internalType": "uint256",
          "name": "optionIndex",
          "type": "uint256"
        },
        {
          "indexed": false,
          "internalType": "string",
          "name": "name",
          "type": "string"
        }
      ],
      "name": "PollOptionNames",
      "type": "event"
    },
    {
      "anonymous": false,
      "inputs": [
        {
          "indexed": true,
          "internalType": "uint256",
          "name": "proposalId",
          "type": "uint256"
        },
        {
          "indexed": true,
          "internalType": "address",
          "name": "voter",
          "type": "address"
        },
        {
          "indexed": false,
          "internalType": "uint256",
          "name": "optionIndex",
          "type": "uint256"
        }
      ],
      "name": "Voted",
      "type": "event"
    },
    {
      "anonymous": false,
      "inputs": [
        {
          "indexed": true,
          "internalType": "uint256",
          "name": "proposalId",
          "type": "uint256"
        },
        {
          "indexed": false,
          "internalType": "uint256",
          "name": "winningOptionIndex",
          "type": "uint256"
        }
      ],
      "name": "WinnerAnnounced",
      "type": "event"
    },
    {
      "inputs": [],
      "name": "DirectDemocracyToken",
      "outputs": [
        {
          "internalType": "contract IERC20",
          "name": "",
          "type": "address"
        }
      ],
      "stateMutability": "view",
      "type": "function"
    },
    {
      "inputs": [
        {
          "internalType": "address",
          "name": "_newOwner",
          "type": "address"
        }
      ],
      "name": "addOwner",
      "outputs": [],
      "stateMutability": "nonpayable",
      "type": "function"
    },
    {
      "inputs": [
        {
          "internalType": "uint256",
          "name": "_proposalId",
          "type": "uint256"
        }
      ],
      "name": "announceWinner",
      "outputs": [],
      "stateMutability": "nonpayable",
      "type": "function"
    },
    {
      "inputs": [
        {
          "internalType": "string",
          "name": "_name",
          "type": "string"
        },
        {
          "internalType": "string",
          "name": "_description",
          "type": "string"
        },
        {
          "internalType": "string",
          "name": "_execution",
          "type": "string"
        },
        {
          "internalType": "uint256",
          "name": "_timeInMinutes",
          "type": "uint256"
        },
        {
          "internalType": "string[]",
          "name": "_optionNames",
          "type": "string[]"
        }
      ],
      "name": "createProposal",
      "outputs": [],
      "stateMutability": "nonpayable",
      "type": "function"
    },
    {
      "inputs": [],
      "name": "dao",
      "outputs": [
        {
          "internalType": "address",
          "name": "",
          "type": "address"
        }
      ],
      "stateMutability": "view",
      "type": "function"
    },
    {
      "inputs": [
        {
          "internalType": "uint256",
          "name": "_proposalId",
          "type": "uint256"
        },
        {
          "internalType": "uint256",
          "name": "_optionIndex",
          "type": "uint256"
        }
      ],
      "name": "getOptionVotes",
      "outputs": [
        {
          "internalType": "uint256",
          "name": "votes",
          "type": "uint256"
        }
      ],
      "stateMutability": "view",
      "type": "function"
    },
    {
      "inputs": [
        {
          "internalType": "uint256",
          "name": "_proposalId",
          "type": "uint256"
        }
      ],
      "name": "getOptionsCount",
      "outputs": [
        {
          "internalType": "uint256",
          "name": "",
          "type": "uint256"
        }
      ],
      "stateMutability": "view",
      "type": "function"
    },
    {
      "inputs": [
        {
          "internalType": "address",
          "name": "",
          "type": "address"
        }
      ],
      "name": "isOwner",
      "outputs": [
        {
          "internalType": "bool",
          "name": "",
          "type": "bool"
        }
      ],
      "stateMutability": "view",
      "type": "function"
    },
    {
      "inputs": [
        {
          "internalType": "address",
          "name": "_owner",
          "type": "address"
        }
      ],
      "name": "removeOwner",
      "outputs": [],
      "stateMutability": "nonpayable",
      "type": "function"
    },
    {
      "inputs": [
        {
          "internalType": "uint256",
          "name": "_proposalId",
          "type": "uint256"
        },
        {
          "internalType": "address",
          "name": "_voter",
          "type": "address"
        },
        {
          "internalType": "uint256",
          "name": "_optionIndex",
          "type": "uint256"
        }
      ],
      "name": "vote",
      "outputs": [],
      "stateMutability": "nonpayable",
      "type": "function"
    }
  ],
  "bytecode": "0x60806040523480156200001157600080fd5b5060405162001ace38038062001ace833981810160405281019062000037919062000182565b816000806101000a81548173ffffffffffffffffffffffffffffffffffffffff021916908373ffffffffffffffffffffffffffffffffffffffff16021790555080600160006101000a81548173ffffffffffffffffffffffffffffffffffffffff021916908373ffffffffffffffffffffffffffffffffffffffff1602179055506001600360003373ffffffffffffffffffffffffffffffffffffffff1673ffffffffffffffffffffffffffffffffffffffff16815260200190815260200160002060006101000a81548160ff0219169083151502179055505050620001c9565b600080fd5b600073ffffffffffffffffffffffffffffffffffffffff82169050919050565b60006200014a826200011d565b9050919050565b6200015c816200013d565b81146200016857600080fd5b50565b6000815190506200017c8162000151565b92915050565b600080604083850312156200019c576200019b62000118565b5b6000620001ac858286016200016b565b9250506020620001bf858286016200016b565b9150509250929050565b6118f580620001d96000396000f3fe608060405234801561001057600080fd5b506004361061009e5760003560e01c8063517a625711610066578063517a6257146101455780637065cb4814610175578063778d554714610191578063a44a3d72146101ad578063e7ea088f146101cb5761009e565b8063173825d9146100a35780632f54bf6e146100bf5780633a6e157b146100ef5780634162169f1461010b5780634de8737c14610129575b600080fd5b6100bd60048036038101906100b89190610df2565b6101fb565b005b6100d960048036038101906100d49190610df2565b6102e2565b6040516100e69190610e3a565b60405180910390f35b61010960048036038101906101049190610e8b565b610302565b005b6101136104eb565b6040516101209190610ec7565b60405180910390f35b610143600480360381019061013e9190610ee2565b610511565b005b61015f600480360381019061015a9190610e8b565b6108c8565b60405161016c9190610f44565b60405180910390f35b61018f600480360381019061018a9190610df2565b610947565b005b6101ab60048036038101906101a6919061118b565b610a2e565b005b6101b5610b85565b6040516101c291906112d5565b60405180910390f35b6101e560048036038101906101e091906112f0565b610ba9565b6040516101f29190610f44565b60405180910390f35b600360003373ffffffffffffffffffffffffffffffffffffffff1673ffffffffffffffffffffffffffffffffffffffff16815260200190815260200160002060009054906101000a900460ff16610287576040517f08c379a000000000000000000000000000000000000000000000000000000000815260040161027e9061138d565b60405180910390fd5b6000600360008373ffffffffffffffffffffffffffffffffffffffff1673ffffffffffffffffffffffffffffffffffffffff16815260200190815260200160002060006101000a81548160ff02191690831515021790555050565b60036020528060005260406000206000915054906101000a900460ff1681565b80600280549050811061034a576040517f08c379a0000000000000000000000000000000000000000000000000000000008152600401610341906113f9565b60405180910390fd5b6000600282815481106103605761035f611419565b5b90600052602060002090600502019050603c81600201546103819190611477565b816003015461039091906114b9565b42116103d1576040517f08c379a00000000000000000000000000000000000000000000000000000000081526004016103c890611539565b60405180910390fd5b6002805490508310610418576040517f08c379a000000000000000000000000000000000000000000000000000000000815260040161040f906113f9565b60405180910390fd5b60006002848154811061042e5761042d611419565b5b90600052602060002090600502019050603c816002015461044f9190611477565b816003015461045e91906114b9565b421161049f576040517f08c379a000000000000000000000000000000000000000000000000000000000815260040161049690611539565b60405180910390fd5b60006104aa85610c8e565b9050847f50e0ee70ebbb985b1aeb034bbf712119ad5ed3e707f7b33cd8e00694b0c2550c826040516104dc9190610f44565b60405180910390a25050505050565b600160009054906101000a900473ffffffffffffffffffffffffffffffffffffffff1681565b826002805490508110610559576040517f08c379a0000000000000000000000000000000000000000000000000000000008152600401610550906113f9565b60405180910390fd5b60006002828154811061056f5761056e611419565b5b90600052602060002090600502019050603c81600201546105909190611477565b816003015461059f91906114b9565b4211156105e1576040517f08c379a00000000000000000000000000000000000000000000000000000000081526004016105d8906115a5565b60405180910390fd5b60008060009054906101000a900473ffffffffffffffffffffffffffffffffffffffff1673ffffffffffffffffffffffffffffffffffffffff166370a08231866040518263ffffffff1660e01b815260040161063d9190610ec7565b602060405180830381865afa15801561065a573d6000803e3d6000fd5b505050506040513d601f19601f8201168201806040525081019061067e91906115da565b9050600081116106c3576040517f08c379a00000000000000000000000000000000000000000000000000000000081526004016106ba90611653565b60405180910390fd5b600280549050861061070a576040517f08c379a0000000000000000000000000000000000000000000000000000000008152600401610701906113f9565b60405180910390fd5b6000600287815481106107205761071f611419565b5b906000526020600020906005020190508060010160008773ffffffffffffffffffffffffffffffffffffffff1673ffffffffffffffffffffffffffffffffffffffff16815260200190815260200160002060009054906101000a900460ff16156107bf576040517f08c379a00000000000000000000000000000000000000000000000000000000081526004016107b6906116bf565b60405180910390fd5b60018160010160008873ffffffffffffffffffffffffffffffffffffffff1673ffffffffffffffffffffffffffffffffffffffff16815260200190815260200160002060006101000a81548160ff021916908315150217905550600181600001600082825461082e91906114b9565b92505081905550600181600401868154811061084d5761084c611419565b5b90600052602060002001600001600082825461086991906114b9565b925050819055508573ffffffffffffffffffffffffffffffffffffffff16877f1abe610cf2bf87e57dcc1181fcf5ac0934e843d8344ab9eed6e86c799f62585e876040516108b79190610f44565b60405180910390a350505050505050565b60006002805490508210610911576040517f08c379a0000000000000000000000000000000000000000000000000000000008152600401610908906113f9565b60405180910390fd5b60006002838154811061092757610926611419565b5b906000526020600020906005020190508060040180549050915050919050565b600360003373ffffffffffffffffffffffffffffffffffffffff1673ffffffffffffffffffffffffffffffffffffffff16815260200190815260200160002060009054906101000a900460ff166109d3576040517f08c379a00000000000000000000000000000000000000000000000000000000081526004016109ca9061138d565b60405180910390fd5b6001600360008373ffffffffffffffffffffffffffffffffffffffff1673ffffffffffffffffffffffffffffffffffffffff16815260200190815260200160002060006101000a81548160ff02191690831515021790555050565b6000600260018160018154018082558091505003906000526020600020906005020190506000816000018190555082816002018190555042816003018190555060006001600280549050610a8291906116df565b9050807f3720bdc6284a997df2fcbd6d07223003008fa8f862ab89cd44bd5974bcf8344c8888888842604051610abc959493929190611781565b60405180910390a260005b8351811015610b7b5782600401604051806020016040528060008152509080600181540180825580915050600190039060005260206000200160009091909190915060008201518160000155505080827fd3b5cef521b08344b2f3822456355f6c2603e7f00a271d0215ac4760a401fc48868481518110610b4b57610b4a611419565b5b6020026020010151604051610b6091906117e9565b60405180910390a38080610b739061180b565b915050610ac7565b5050505050505050565b60008054906101000a900473ffffffffffffffffffffffffffffffffffffffff1681565b60006002805490508310610bf2576040517f08c379a0000000000000000000000000000000000000000000000000000000008152600401610be9906113f9565b60405180910390fd5b600060028481548110610c0857610c07611419565b5b9060005260206000209060050201905080600401805490508310610c61576040517f08c379a0000000000000000000000000000000000000000000000000000000008152600401610c589061189f565b60405180910390fd5b806004018381548110610c7757610c76611419565b5b906000526020600020016000015491505092915050565b60006002805490508210610cd7576040517f08c379a0000000000000000000000000000000000000000000000000000000008152600401610cce906113f9565b60405180910390fd5b600060028381548110610ced57610cec611419565b5b906000526020600020906005020190506000805b8260040180549050811015610d785781836004018281548110610d2757610d26611419565b5b90600052602060002001600001541115610d6557826004018181548110610d5157610d50611419565b5b906000526020600020016000015491508093505b8080610d709061180b565b915050610d01565b505050919050565b6000604051905090565b600080fd5b600080fd5b600073ffffffffffffffffffffffffffffffffffffffff82169050919050565b6000610dbf82610d94565b9050919050565b610dcf81610db4565b8114610dda57600080fd5b50565b600081359050610dec81610dc6565b92915050565b600060208284031215610e0857610e07610d8a565b5b6000610e1684828501610ddd565b91505092915050565b60008115159050919050565b610e3481610e1f565b82525050565b6000602082019050610e4f6000830184610e2b565b92915050565b6000819050919050565b610e6881610e55565b8114610e7357600080fd5b50565b600081359050610e8581610e5f565b92915050565b600060208284031215610ea157610ea0610d8a565b5b6000610eaf84828501610e76565b91505092915050565b610ec181610db4565b82525050565b6000602082019050610edc6000830184610eb8565b92915050565b600080600060608486031215610efb57610efa610d8a565b5b6000610f0986828701610e76565b9350506020610f1a86828701610ddd565b9250506040610f2b86828701610e76565b9150509250925092565b610f3e81610e55565b82525050565b6000602082019050610f596000830184610f35565b92915050565b600080fd5b600080fd5b6000601f19601f8301169050919050565b7f4e487b7100000000000000000000000000000000000000000000000000000000600052604160045260246000fd5b610fb282610f69565b810181811067ffffffffffffffff82111715610fd157610fd0610f7a565b5b80604052505050565b6000610fe4610d80565b9050610ff08282610fa9565b919050565b600067ffffffffffffffff8211156110105761100f610f7a565b5b61101982610f69565b9050602081019050919050565b82818337600083830152505050565b600061104861104384610ff5565b610fda565b90508281526020810184848401111561106457611063610f64565b5b61106f848285611026565b509392505050565b600082601f83011261108c5761108b610f5f565b5b813561109c848260208601611035565b91505092915050565b600067ffffffffffffffff8211156110c0576110bf610f7a565b5b602082029050602081019050919050565b600080fd5b60006110e96110e4846110a5565b610fda565b9050808382526020820190506020840283018581111561110c5761110b6110d1565b5b835b8181101561115357803567ffffffffffffffff81111561113157611130610f5f565b5b80860161113e8982611077565b8552602085019450505060208101905061110e565b5050509392505050565b600082601f83011261117257611171610f5f565b5b81356111828482602086016110d6565b91505092915050565b600080600080600060a086880312156111a7576111a6610d8a565b5b600086013567ffffffffffffffff8111156111c5576111c4610d8f565b5b6111d188828901611077565b955050602086013567ffffffffffffffff8111156111f2576111f1610d8f565b5b6111fe88828901611077565b945050604086013567ffffffffffffffff81111561121f5761121e610d8f565b5b61122b88828901611077565b935050606061123c88828901610e76565b925050608086013567ffffffffffffffff81111561125d5761125c610d8f565b5b6112698882890161115d565b9150509295509295909350565b6000819050919050565b600061129b61129661129184610d94565b611276565b610d94565b9050919050565b60006112ad82611280565b9050919050565b60006112bf826112a2565b9050919050565b6112cf816112b4565b82525050565b60006020820190506112ea60008301846112c6565b92915050565b6000806040838503121561130757611306610d8a565b5b600061131585828601610e76565b925050602061132685828601610e76565b9150509250929050565b600082825260208201905092915050565b7f43616c6c6572206973206e6f7420616e206f776e657200000000000000000000600082015250565b6000611377601683611330565b915061138282611341565b602082019050919050565b600060208201905081810360008301526113a68161136a565b9050919050565b7f496e76616c69642070726f706f73616c20494400000000000000000000000000600082015250565b60006113e3601383611330565b91506113ee826113ad565b602082019050919050565b60006020820190508181036000830152611412816113d6565b9050919050565b7f4e487b7100000000000000000000000000000000000000000000000000000000600052603260045260246000fd5b7f4e487b7100000000000000000000000000000000000000000000000000000000600052601160045260246000fd5b600061148282610e55565b915061148d83610e55565b925082820261149b81610e55565b915082820484148315176114b2576114b1611448565b5b5092915050565b60006114c482610e55565b91506114cf83610e55565b92508282019050808211156114e7576114e6611448565b5b92915050565b7f566f74696e67206973206e6f742079657420636c6f7365640000000000000000600082015250565b6000611523601883611330565b915061152e826114ed565b602082019050919050565b6000602082019050818103600083015261155281611516565b9050919050565b7f566f74696e672074696d65206578706972656400000000000000000000000000600082015250565b600061158f601383611330565b915061159a82611559565b602082019050919050565b600060208201905081810360008301526115be81611582565b9050919050565b6000815190506115d481610e5f565b92915050565b6000602082840312156115f0576115ef610d8a565b5b60006115fe848285016115c5565b91505092915050565b7f4e6f2064656d6f637261637920746f6b656e7300000000000000000000000000600082015250565b600061163d601383611330565b915061164882611607565b602082019050919050565b6000602082019050818103600083015261166c81611630565b9050919050565b7f416c726561647920766f74656400000000000000000000000000000000000000600082015250565b60006116a9600d83611330565b91506116b482611673565b602082019050919050565b600060208201905081810360008301526116d88161169c565b9050919050565b60006116ea82610e55565b91506116f583610e55565b925082820390508181111561170d5761170c611448565b5b92915050565b600081519050919050565b60005b8381101561173c578082015181840152602081019050611721565b60008484015250505050565b600061175382611713565b61175d8185611330565b935061176d81856020860161171e565b61177681610f69565b840191505092915050565b600060a082019050818103600083015261179b8188611748565b905081810360208301526117af8187611748565b905081810360408301526117c38186611748565b90506117d26060830185610f35565b6117df6080830184610f35565b9695505050505050565b600060208201905081810360008301526118038184611748565b905092915050565b600061181682610e55565b91507fffffffffffffffffffffffffffffffffffffffffffffffffffffffffffffffff820361184857611847611448565b5b600182019050919050565b7f496e76616c6964206f7074696f6e20696e646578000000000000000000000000600082015250565b6000611889601483611330565b915061189482611853565b602082019050919050565b600060208201905081810360008301526118b88161187c565b905091905056fea2646970667358221220d05b4567a6fa03677d4514f0588075948bffbd04bb0bbc9dcb5ca671ba555e1364736f6c63430008140033",
  "linkReferences": {},
  "deployedLinkReferences": {}
}