{
  "_format": "hh-sol-artifact-1",
  "contractName": "DirectDemocracyVotingFactory",
  "sourceName": "contracts/DirectDemocracyVotingFactory.sol",
  "abi": [
    {
      "anonymous": false,
      "inputs": [
        {
          "indexed": true,
          "internalType": "address",
          "name": "votingAddress",
          "type": "address"
        },
        {
          "indexed": true,
          "internalType": "address",
          "name": "treasuryAddress",
          "type": "address"
        },
        {
          "indexed": false,
          "internalType": "string",
          "name": "POname",
          "type": "string"
        },
        {
          "indexed": false,
          "internalType": "uint256",
          "name": "quorumPercentage",
          "type": "uint256"
        }
      ],
      "name": "VotingContractCreated",
      "type": "event"
    },
    {
      "inputs": [
        {
          "internalType": "address",
          "name": "_ddToken",
          "type": "address"
        },
        {
          "internalType": "address",
          "name": "_nftMembership",
          "type": "address"
        },
        {
          "internalType": "string[]",
          "name": "_allowedRoleNames",
          "type": "string[]"
        },
        {
          "internalType": "address",
          "name": "_treasuryAddress",
          "type": "address"
        },
        {
          "internalType": "string",
          "name": "POname",
          "type": "string"
        },
        {
          "internalType": "uint256",
          "name": "quorumPercentage",
          "type": "uint256"
        }
      ],
      "name": "createDirectDemocracyVoting",
      "outputs": [
        {
          "internalType": "address",
          "name": "",
          "type": "address"
        }
      ],
      "stateMutability": "nonpayable",
      "type": "function"
    }
  ],
  "bytecode": "0x608060405234801561001057600080fd5b50612ad0806100206000396000f3fe60806040523480156200001157600080fd5b50600436106200002e5760003560e01c80630bc7ee601462000033575b600080fd5b6200005160048036038101906200004b919062000446565b62000069565b60405162000060919062000531565b60405180910390f35b60008087878787866040516200007f9062000126565b6200008f959493929190620006b8565b604051809103906000f080158015620000ac573d6000803e3d6000fd5b5090508473ffffffffffffffffffffffffffffffffffffffff168173ffffffffffffffffffffffffffffffffffffffff167f83ad58b8f0cd56d3813aab9c97e882e6d76837c653f59bc9733e803fe275f6508686604051620001109291906200076e565b60405180910390a3809150509695505050505050565b6122f880620007a383390190565b6000604051905090565b600080fd5b600080fd5b600073ffffffffffffffffffffffffffffffffffffffff82169050919050565b6000620001758262000148565b9050919050565b620001878162000168565b81146200019357600080fd5b50565b600081359050620001a7816200017c565b92915050565b600080fd5b6000601f19601f8301169050919050565b7f4e487b7100000000000000000000000000000000000000000000000000000000600052604160045260246000fd5b620001fd82620001b2565b810181811067ffffffffffffffff821117156200021f576200021e620001c3565b5b80604052505050565b60006200023462000134565b9050620002428282620001f2565b919050565b600067ffffffffffffffff821115620002655762000264620001c3565b5b602082029050602081019050919050565b600080fd5b600080fd5b600067ffffffffffffffff8211156200029e576200029d620001c3565b5b620002a982620001b2565b9050602081019050919050565b82818337600083830152505050565b6000620002dc620002d68462000280565b62000228565b905082815260208101848484011115620002fb57620002fa6200027b565b5b62000308848285620002b6565b509392505050565b600082601f830112620003285762000327620001ad565b5b81356200033a848260208601620002c5565b91505092915050565b60006200035a620003548462000247565b62000228565b9050808382526020820190506020840283018581111562000380576200037f62000276565b5b835b81811015620003ce57803567ffffffffffffffff811115620003a957620003a8620001ad565b5b808601620003b8898262000310565b8552602085019450505060208101905062000382565b5050509392505050565b600082601f830112620003f057620003ef620001ad565b5b81356200040284826020860162000343565b91505092915050565b6000819050919050565b62000420816200040b565b81146200042c57600080fd5b50565b600081359050620004408162000415565b92915050565b60008060008060008060c087890312156200046657620004656200013e565b5b60006200047689828a0162000196565b96505060206200048989828a0162000196565b955050604087013567ffffffffffffffff811115620004ad57620004ac62000143565b5b620004bb89828a01620003d8565b9450506060620004ce89828a0162000196565b935050608087013567ffffffffffffffff811115620004f257620004f162000143565b5b6200050089828a0162000310565b92505060a06200051389828a016200042f565b9150509295509295509295565b6200052b8162000168565b82525050565b600060208201905062000548600083018462000520565b92915050565b600081519050919050565b600082825260208201905092915050565b6000819050602082019050919050565b600081519050919050565b600082825260208201905092915050565b60005b83811015620005b657808201518184015260208101905062000599565b60008484015250505050565b6000620005cf826200057a565b620005db818562000585565b9350620005ed81856020860162000596565b620005f881620001b2565b840191505092915050565b6000620006118383620005c2565b905092915050565b6000602082019050919050565b600062000633826200054e565b6200063f818562000559565b93508360208202850162000653856200056a565b8060005b8581101562000695578484038952815162000673858262000603565b9450620006808362000619565b925060208a0199505060018101905062000657565b50829750879550505050505092915050565b620006b2816200040b565b82525050565b600060a082019050620006cf600083018862000520565b620006de602083018762000520565b8181036040830152620006f2818662000626565b905062000703606083018562000520565b620007126080830184620006a7565b9695505050505050565b600082825260208201905092915050565b60006200073a826200057a565b6200074681856200071c565b93506200075881856020860162000596565b6200076381620001b2565b840191505092915050565b600060408201905081810360008301526200078a81856200072d565b90506200079b6020830184620006a7565b939250505056fe608060405260326003553480156200001657600080fd5b50604051620022f8380380620022f883398181016040528101906200003c9190620004b9565b80600381905550846000806101000a81548173ffffffffffffffffffffffffffffffffffffffff021916908373ffffffffffffffffffffffffffffffffffffffff16021790555083600160006101000a81548173ffffffffffffffffffffffffffffffffffffffff021916908373ffffffffffffffffffffffffffffffffffffffff16021790555081600260006101000a81548173ffffffffffffffffffffffffffffffffffffffff021916908373ffffffffffffffffffffffffffffffffffffffff16021790555060005b83518110156200017e57600160058583815181106200012c576200012b62000560565b5b6020026020010151604051620001439190620005dc565b908152602001604051809103902060006101000a81548160ff0219169083151502179055508080620001759062000624565b91505062000108565b50505050505062000671565b6000604051905090565b600080fd5b600080fd5b600073ffffffffffffffffffffffffffffffffffffffff82169050919050565b6000620001cb826200019e565b9050919050565b620001dd81620001be565b8114620001e957600080fd5b50565b600081519050620001fd81620001d2565b92915050565b600080fd5b6000601f19601f8301169050919050565b7f4e487b7100000000000000000000000000000000000000000000000000000000600052604160045260246000fd5b620002538262000208565b810181811067ffffffffffffffff8211171562000275576200027462000219565b5b80604052505050565b60006200028a6200018a565b905062000298828262000248565b919050565b600067ffffffffffffffff821115620002bb57620002ba62000219565b5b602082029050602081019050919050565b600080fd5b600080fd5b600067ffffffffffffffff821115620002f457620002f362000219565b5b620002ff8262000208565b9050602081019050919050565b60005b838110156200032c5780820151818401526020810190506200030f565b60008484015250505050565b60006200034f6200034984620002d6565b6200027e565b9050828152602081018484840111156200036e576200036d620002d1565b5b6200037b8482856200030c565b509392505050565b600082601f8301126200039b576200039a62000203565b5b8151620003ad84826020860162000338565b91505092915050565b6000620003cd620003c7846200029d565b6200027e565b90508083825260208201905060208402830185811115620003f357620003f2620002cc565b5b835b818110156200044157805167ffffffffffffffff8111156200041c576200041b62000203565b5b8086016200042b898262000383565b85526020850194505050602081019050620003f5565b5050509392505050565b600082601f83011262000463576200046262000203565b5b815162000475848260208601620003b6565b91505092915050565b6000819050919050565b62000493816200047e565b81146200049f57600080fd5b50565b600081519050620004b38162000488565b92915050565b600080600080600060a08688031215620004d857620004d762000194565b5b6000620004e888828901620001ec565b9550506020620004fb88828901620001ec565b945050604086015167ffffffffffffffff8111156200051f576200051e62000199565b5b6200052d888289016200044b565b93505060606200054088828901620001ec565b92505060806200055388828901620004a2565b9150509295509295909350565b7f4e487b7100000000000000000000000000000000000000000000000000000000600052603260045260246000fd5b600081519050919050565b600081905092915050565b6000620005b2826200058f565b620005be81856200059a565b9350620005d08185602086016200030c565b80840191505092915050565b6000620005ea8284620005a5565b915081905092915050565b7f4e487b7100000000000000000000000000000000000000000000000000000000600052601160045260246000fd5b600062000631826200047e565b91507fffffffffffffffffffffffffffffffffffffffffffffffffffffffffffffffff8203620006665762000665620005f5565b5b600182019050919050565b611c7780620006816000396000f3fe608060405234801561001057600080fd5b506004361061009e5760003560e01c806361d027b31161006657806361d027b31461015a578063a2b2b4d414610178578063a44a3d7214610196578063e7ea088f146101b4578063fdbbcbc2146101e45761009e565b80633a6e157b146100a35780634129b2c9146100bf5780634de8737c146100f05780634fa76ec91461010c578063517a62571461012a575b600080fd5b6100bd60048036038101906100b89190610ebc565b610200565b005b6100d960048036038101906100d49190610ebc565b6104f4565b6040516100e7929190610f13565b60405180910390f35b61010a60048036038101906101059190610f9a565b61061b565b005b6101146109d2565b6040516101219190610fed565b60405180910390f35b610144600480360381019061013f9190610ebc565b6109d8565b6040516101519190610fed565b60405180910390f35b610162610a57565b60405161016f9190611067565b60405180910390f35b610180610a7d565b60405161018d91906110a3565b60405180910390f35b61019e610aa3565b6040516101ab91906110df565b60405180910390f35b6101ce60048036038101906101c991906110fa565b610ac7565b6040516101db9190610fed565b60405180910390f35b6101fe60048036038101906101f991906113d0565b610bac565b005b806004805490508110610248576040517f08c379a000000000000000000000000000000000000000000000000000000000815260040161023f90611537565b60405180910390fd5b60006004828154811061025e5761025d611557565b5b90600052602060002090600902019050603c816002015461027f91906115b5565b816003015461028e91906115f7565b42116102cf576040517f08c379a00000000000000000000000000000000000000000000000000000000081526004016102c690611677565b60405180910390fd5b6004805490508310610316576040517f08c379a000000000000000000000000000000000000000000000000000000000815260040161030d90611537565b60405180910390fd5b600080610322856104f4565b9150915080801561036257506004858154811061034257610341611557565b5b906000526020600020906009020160080160009054906101000a900460ff165b801561039257506004858154811061037d5761037c611557565b5b90600052602060002090600902016005015482145b156104b357600260009054906101000a900473ffffffffffffffffffffffffffffffffffffffff1673ffffffffffffffffffffffffffffffffffffffff1663e6d66ac860008054906101000a900473ffffffffffffffffffffffffffffffffffffffff166004888154811061040a57610409611557565b5b906000526020600020906009020160060160009054906101000a900473ffffffffffffffffffffffffffffffffffffffff16600489815481106104505761044f611557565b5b9060005260206000209060090201600701546040518463ffffffff1660e01b8152600401610480939291906116c7565b600060405180830381600087803b15801561049a57600080fd5b505af11580156104ae573d6000803e3d6000fd5b505050505b847f80fa758d7c24e927ad76726080b3e8e8ec336147a2e7f4edde3e19d9c94e7c3683836040516104e5929190610f13565b60405180910390a25050505050565b600080600480549050831061053e576040517f08c379a000000000000000000000000000000000000000000000000000000000815260040161053590611537565b60405180910390fd5b60006004848154811061055457610553611557565b5b90600052602060002090600902019050600080600080600354856000015461057c91906115b5565b905060005b856004018054905081101561060a57848660040182815481106105a7576105a6611557565b5b906000526020600020016000015411156105f7578560040181815481106105d1576105d0611557565b5b90600052602060002001600001549450809350816064866105f291906115b5565b101592505b8080610602906116fe565b915050610581565b508282965096505050505050915091565b826004805490508110610663576040517f08c379a000000000000000000000000000000000000000000000000000000000815260040161065a90611537565b60405180910390fd5b60006004828154811061067957610678611557565b5b90600052602060002090600902019050603c816002015461069a91906115b5565b81600301546106a991906115f7565b4211156106eb576040517f08c379a00000000000000000000000000000000000000000000000000000000081526004016106e290611792565b60405180910390fd5b60008060009054906101000a900473ffffffffffffffffffffffffffffffffffffffff1673ffffffffffffffffffffffffffffffffffffffff166370a08231866040518263ffffffff1660e01b815260040161074791906117b2565b602060405180830381865afa158015610764573d6000803e3d6000fd5b505050506040513d601f19601f8201168201806040525081019061078891906117e2565b9050600081116107cd576040517f08c379a00000000000000000000000000000000000000000000000000000000081526004016107c49061185b565b60405180910390fd5b6004805490508610610814576040517f08c379a000000000000000000000000000000000000000000000000000000000815260040161080b90611537565b60405180910390fd5b60006004878154811061082a57610829611557565b5b906000526020600020906009020190508060010160008773ffffffffffffffffffffffffffffffffffffffff1673ffffffffffffffffffffffffffffffffffffffff16815260200190815260200160002060009054906101000a900460ff16156108c9576040517f08c379a00000000000000000000000000000000000000000000000000000000081526004016108c0906118c7565b60405180910390fd5b60018160010160008873ffffffffffffffffffffffffffffffffffffffff1673ffffffffffffffffffffffffffffffffffffffff16815260200190815260200160002060006101000a81548160ff021916908315150217905550600181600001600082825461093891906115f7565b92505081905550600181600401868154811061095757610956611557565b5b90600052602060002001600001600082825461097391906115f7565b925050819055508573ffffffffffffffffffffffffffffffffffffffff16877f1abe610cf2bf87e57dcc1181fcf5ac0934e843d8344ab9eed6e86c799f62585e876040516109c19190610fed565b60405180910390a350505050505050565b60035481565b60006004805490508210610a21576040517f08c379a0000000000000000000000000000000000000000000000000000000008152600401610a1890611537565b60405180910390fd5b600060048381548110610a3757610a36611557565b5b906000526020600020906009020190508060040180549050915050919050565b600260009054906101000a900473ffffffffffffffffffffffffffffffffffffffff1681565b600160009054906101000a900473ffffffffffffffffffffffffffffffffffffffff1681565b60008054906101000a900473ffffffffffffffffffffffffffffffffffffffff1681565b60006004805490508310610b10576040517f08c379a0000000000000000000000000000000000000000000000000000000008152600401610b0790611537565b60405180910390fd5b600060048481548110610b2657610b25611557565b5b9060005260206000209060090201905080600401805490508310610b7f576040517f08c379a0000000000000000000000000000000000000000000000000000000008152600401610b7690611933565b60405180910390fd5b806004018381548110610b9557610b94611557565b5b906000526020600020016000015491505092915050565b6000600160009054906101000a900473ffffffffffffffffffffffffffffffffffffffff1673ffffffffffffffffffffffffffffffffffffffff166377782188336040518263ffffffff1660e01b8152600401610c0991906117b2565b600060405180830381865afa158015610c26573d6000803e3d6000fd5b505050506040513d6000823e3d601f19601f82011682018060405250810190610c4f91906119ed565b9050600581604051610c619190611a7d565b908152602001604051809103902060009054906101000a900460ff16610cbc576040517f08c379a0000000000000000000000000000000000000000000000000000000008152600401610cb390611b06565b60405180910390fd5b60006004600181600181540180825580915050039060005260206000209060090201905060008160000181905550878160020181905550428160030181905550858160050181905550848160060160006101000a81548173ffffffffffffffffffffffffffffffffffffffff021916908373ffffffffffffffffffffffffffffffffffffffff16021790555083816007018190555060006001600480549050610d659190611b26565b9050807ffb1330a17ffe898a019796942f0ab05b8d97f1e01c9d47ac01b2fe7b462c152b8c8c8c428c8c8c8c604051610da5989796959493929190611b93565b60405180910390a260005b8851811015610e645782600401604051806020016040528060008152509080600181540180825580915050600190039060005260206000200160009091909190915060008201518160000155505080827fd3b5cef521b08344b2f3822456355f6c2603e7f00a271d0215ac4760a401fc488b8481518110610e3457610e33611557565b5b6020026020010151604051610e499190611c1f565b60405180910390a38080610e5c906116fe565b915050610db0565b505050505050505050505050565b6000604051905090565b600080fd5b600080fd5b6000819050919050565b610e9981610e86565b8114610ea457600080fd5b50565b600081359050610eb681610e90565b92915050565b600060208284031215610ed257610ed1610e7c565b5b6000610ee084828501610ea7565b91505092915050565b610ef281610e86565b82525050565b60008115159050919050565b610f0d81610ef8565b82525050565b6000604082019050610f286000830185610ee9565b610f356020830184610f04565b9392505050565b600073ffffffffffffffffffffffffffffffffffffffff82169050919050565b6000610f6782610f3c565b9050919050565b610f7781610f5c565b8114610f8257600080fd5b50565b600081359050610f9481610f6e565b92915050565b600080600060608486031215610fb357610fb2610e7c565b5b6000610fc186828701610ea7565b9350506020610fd286828701610f85565b9250506040610fe386828701610ea7565b9150509250925092565b60006020820190506110026000830184610ee9565b92915050565b6000819050919050565b600061102d61102861102384610f3c565b611008565b610f3c565b9050919050565b600061103f82611012565b9050919050565b600061105182611034565b9050919050565b61106181611046565b82525050565b600060208201905061107c6000830184611058565b92915050565b600061108d82611034565b9050919050565b61109d81611082565b82525050565b60006020820190506110b86000830184611094565b92915050565b60006110c982611034565b9050919050565b6110d9816110be565b82525050565b60006020820190506110f460008301846110d0565b92915050565b6000806040838503121561111157611110610e7c565b5b600061111f85828601610ea7565b925050602061113085828601610ea7565b9150509250929050565b600080fd5b600080fd5b6000601f19601f8301169050919050565b7f4e487b7100000000000000000000000000000000000000000000000000000000600052604160045260246000fd5b61118d82611144565b810181811067ffffffffffffffff821117156111ac576111ab611155565b5b80604052505050565b60006111bf610e72565b90506111cb8282611184565b919050565b600067ffffffffffffffff8211156111eb576111ea611155565b5b6111f482611144565b9050602081019050919050565b82818337600083830152505050565b600061122361121e846111d0565b6111b5565b90508281526020810184848401111561123f5761123e61113f565b5b61124a848285611201565b509392505050565b600082601f8301126112675761126661113a565b5b8135611277848260208601611210565b91505092915050565b600067ffffffffffffffff82111561129b5761129a611155565b5b602082029050602081019050919050565b600080fd5b60006112c46112bf84611280565b6111b5565b905080838252602082019050602084028301858111156112e7576112e66112ac565b5b835b8181101561132e57803567ffffffffffffffff81111561130c5761130b61113a565b5b8086016113198982611252565b855260208501945050506020810190506112e9565b5050509392505050565b600082601f83011261134d5761134c61113a565b5b813561135d8482602086016112b1565b91505092915050565b600061137182610f3c565b9050919050565b61138181611366565b811461138c57600080fd5b50565b60008135905061139e81611378565b92915050565b6113ad81610ef8565b81146113b857600080fd5b50565b6000813590506113ca816113a4565b92915050565b600080600080600080600080610100898b0312156113f1576113f0610e7c565b5b600089013567ffffffffffffffff81111561140f5761140e610e81565b5b61141b8b828c01611252565b985050602089013567ffffffffffffffff81111561143c5761143b610e81565b5b6114488b828c01611252565b97505060406114598b828c01610ea7565b965050606089013567ffffffffffffffff81111561147a57611479610e81565b5b6114868b828c01611338565b95505060806114978b828c01610ea7565b94505060a06114a88b828c0161138f565b93505060c06114b98b828c01610ea7565b92505060e06114ca8b828c016113bb565b9150509295985092959890939650565b600082825260208201905092915050565b7f496e76616c69642070726f706f73616c20494400000000000000000000000000600082015250565b60006115216013836114da565b915061152c826114eb565b602082019050919050565b6000602082019050818103600083015261155081611514565b9050919050565b7f4e487b7100000000000000000000000000000000000000000000000000000000600052603260045260246000fd5b7f4e487b7100000000000000000000000000000000000000000000000000000000600052601160045260246000fd5b60006115c082610e86565b91506115cb83610e86565b92508282026115d981610e86565b915082820484148315176115f0576115ef611586565b5b5092915050565b600061160282610e86565b915061160d83610e86565b925082820190508082111561162557611624611586565b5b92915050565b7f566f74696e67206973206e6f742079657420636c6f7365640000000000000000600082015250565b60006116616018836114da565b915061166c8261162b565b602082019050919050565b6000602082019050818103600083015261169081611654565b9050919050565b6116a081610f5c565b82525050565b60006116b182611034565b9050919050565b6116c1816116a6565b82525050565b60006060820190506116dc6000830186611697565b6116e960208301856116b8565b6116f66040830184610ee9565b949350505050565b600061170982610e86565b91507fffffffffffffffffffffffffffffffffffffffffffffffffffffffffffffffff820361173b5761173a611586565b5b600182019050919050565b7f566f74696e672074696d65206578706972656400000000000000000000000000600082015250565b600061177c6013836114da565b915061178782611746565b602082019050919050565b600060208201905081810360008301526117ab8161176f565b9050919050565b60006020820190506117c76000830184611697565b92915050565b6000815190506117dc81610e90565b92915050565b6000602082840312156117f8576117f7610e7c565b5b6000611806848285016117cd565b91505092915050565b7f4e6f2064656d6f637261637920746f6b656e7300000000000000000000000000600082015250565b60006118456013836114da565b91506118508261180f565b602082019050919050565b6000602082019050818103600083015261187481611838565b9050919050565b7f416c726561647920766f74656400000000000000000000000000000000000000600082015250565b60006118b1600d836114da565b91506118bc8261187b565b602082019050919050565b600060208201905081810360008301526118e0816118a4565b9050919050565b7f496e76616c6964206f7074696f6e20696e646578000000000000000000000000600082015250565b600061191d6014836114da565b9150611928826118e7565b602082019050919050565b6000602082019050818103600083015261194c81611910565b9050919050565b60005b83811015611971578082015181840152602081019050611956565b60008484015250505050565b600061199061198b846111d0565b6111b5565b9050828152602081018484840111156119ac576119ab61113f565b5b6119b7848285611953565b509392505050565b600082601f8301126119d4576119d361113a565b5b81516119e484826020860161197d565b91505092915050565b600060208284031215611a0357611a02610e7c565b5b600082015167ffffffffffffffff811115611a2157611a20610e81565b5b611a2d848285016119bf565b91505092915050565b600081519050919050565b600081905092915050565b6000611a5782611a36565b611a618185611a41565b9350611a71818560208601611953565b80840191505092915050565b6000611a898284611a4c565b915081905092915050565b7f4e6f7420617574686f72697a656420746f206372656174652070726f706f736160008201527f6c00000000000000000000000000000000000000000000000000000000000000602082015250565b6000611af06021836114da565b9150611afb82611a94565b604082019050919050565b60006020820190508181036000830152611b1f81611ae3565b9050919050565b6000611b3182610e86565b9150611b3c83610e86565b9250828203905081811115611b5457611b53611586565b5b92915050565b6000611b6582611a36565b611b6f81856114da565b9350611b7f818560208601611953565b611b8881611144565b840191505092915050565b6000610100820190508181036000830152611bae818b611b5a565b90508181036020830152611bc2818a611b5a565b9050611bd16040830189610ee9565b611bde6060830188610ee9565b611beb6080830187610ee9565b611bf860a08301866116b8565b611c0560c0830185610ee9565b611c1260e0830184610f04565b9998505050505050505050565b60006020820190508181036000830152611c398184611b5a565b90509291505056fea2646970667358221220f2022d3025c8e79196b61883abfcc175bfca7422631067590f6a92b11aaafeda64736f6c63430008140033a2646970667358221220f4152d88d437c41b1053127059f22acbe21f9db91bc787db87cff1094a69f49e64736f6c63430008140033",
  "linkReferences": {},
  "deployedLinkReferences": {}
}