{
  "_format": "hh-sol-artifact-1",
  "contractName": "DirectDemocracyToken",
  "sourceName": "contracts/DirectDemocracyToken.sol",
  "abi": [
    {
      "inputs": [
        {
          "internalType": "string",
          "name": "name",
          "type": "string"
        },
        {
          "internalType": "string",
          "name": "symbol",
          "type": "string"
        },
        {
          "internalType": "address",
          "name": "_nftMembership",
          "type": "address"
        },
        {
          "internalType": "string[]",
          "name": "_allowedRoleNames",
          "type": "string[]"
        }
      ],
      "stateMutability": "nonpayable",
      "type": "constructor"
    },
    {
      "anonymous": false,
      "inputs": [
        {
          "indexed": true,
          "internalType": "address",
          "name": "owner",
          "type": "address"
        },
        {
          "indexed": true,
          "internalType": "address",
          "name": "spender",
          "type": "address"
        },
        {
          "indexed": false,
          "internalType": "uint256",
          "name": "value",
          "type": "uint256"
        }
      ],
      "name": "Approval",
      "type": "event"
    },
    {
      "anonymous": false,
      "inputs": [
        {
          "indexed": true,
          "internalType": "address",
          "name": "to",
          "type": "address"
        },
        {
          "indexed": false,
          "internalType": "uint256",
          "name": "amount",
          "type": "uint256"
        }
      ],
      "name": "Mint",
      "type": "event"
    },
    {
      "anonymous": false,
      "inputs": [
        {
          "indexed": true,
          "internalType": "address",
          "name": "previousOwner",
          "type": "address"
        },
        {
          "indexed": true,
          "internalType": "address",
          "name": "newOwner",
          "type": "address"
        }
      ],
      "name": "OwnershipTransferred",
      "type": "event"
    },
    {
      "anonymous": false,
      "inputs": [
        {
          "indexed": true,
          "internalType": "address",
          "name": "from",
          "type": "address"
        },
        {
          "indexed": true,
          "internalType": "address",
          "name": "to",
          "type": "address"
        },
        {
          "indexed": false,
          "internalType": "uint256",
          "name": "value",
          "type": "uint256"
        }
      ],
      "name": "Transfer",
      "type": "event"
    },
    {
      "inputs": [
        {
          "internalType": "address",
          "name": "owner",
          "type": "address"
        },
        {
          "internalType": "address",
          "name": "spender",
          "type": "address"
        }
      ],
      "name": "allowance",
      "outputs": [
        {
          "internalType": "uint256",
          "name": "",
          "type": "uint256"
        }
      ],
      "stateMutability": "view",
      "type": "function"
    },
    {
      "inputs": [
        {
          "internalType": "address",
          "name": "",
          "type": "address"
        },
        {
          "internalType": "uint256",
          "name": "",
          "type": "uint256"
        }
      ],
      "name": "approve",
      "outputs": [
        {
          "internalType": "bool",
          "name": "",
          "type": "bool"
        }
      ],
      "stateMutability": "nonpayable",
      "type": "function"
    },
    {
      "inputs": [
        {
          "internalType": "address",
          "name": "account",
          "type": "address"
        }
      ],
      "name": "balanceOf",
      "outputs": [
        {
          "internalType": "uint256",
          "name": "",
          "type": "uint256"
        }
      ],
      "stateMutability": "view",
      "type": "function"
    },
    {
      "inputs": [],
      "name": "decimals",
      "outputs": [
        {
          "internalType": "uint8",
          "name": "",
          "type": "uint8"
        }
      ],
      "stateMutability": "view",
      "type": "function"
    },
    {
      "inputs": [
        {
          "internalType": "address",
          "name": "spender",
          "type": "address"
        },
        {
          "internalType": "uint256",
          "name": "subtractedValue",
          "type": "uint256"
        }
      ],
      "name": "decreaseAllowance",
      "outputs": [
        {
          "internalType": "bool",
          "name": "",
          "type": "bool"
        }
      ],
      "stateMutability": "nonpayable",
      "type": "function"
    },
    {
      "inputs": [
        {
          "internalType": "address",
          "name": "_address",
          "type": "address"
        }
      ],
      "name": "getBalance",
      "outputs": [
        {
          "internalType": "uint256",
          "name": "",
          "type": "uint256"
        }
      ],
      "stateMutability": "view",
      "type": "function"
    },
    {
      "inputs": [
        {
          "internalType": "address",
          "name": "spender",
          "type": "address"
        },
        {
          "internalType": "uint256",
          "name": "addedValue",
          "type": "uint256"
        }
      ],
      "name": "increaseAllowance",
      "outputs": [
        {
          "internalType": "bool",
          "name": "",
          "type": "bool"
        }
      ],
      "stateMutability": "nonpayable",
      "type": "function"
    },
    {
      "inputs": [],
      "name": "maxSupplyPerPerson",
      "outputs": [
        {
          "internalType": "uint256",
          "name": "",
          "type": "uint256"
        }
      ],
      "stateMutability": "view",
      "type": "function"
    },
    {
      "inputs": [
        {
          "internalType": "address",
          "name": "newUser",
          "type": "address"
        }
      ],
      "name": "mint",
      "outputs": [],
      "stateMutability": "nonpayable",
      "type": "function"
    },
    {
      "inputs": [],
      "name": "name",
      "outputs": [
        {
          "internalType": "string",
          "name": "",
          "type": "string"
        }
      ],
      "stateMutability": "view",
      "type": "function"
    },
    {
      "inputs": [],
      "name": "nftMembership",
      "outputs": [
        {
          "internalType": "contract INFTMembership",
          "name": "",
          "type": "address"
        }
      ],
      "stateMutability": "view",
      "type": "function"
    },
    {
      "inputs": [],
      "name": "owner",
      "outputs": [
        {
          "internalType": "address",
          "name": "",
          "type": "address"
        }
      ],
      "stateMutability": "view",
      "type": "function"
    },
    {
      "inputs": [],
      "name": "renounceOwnership",
      "outputs": [],
      "stateMutability": "nonpayable",
      "type": "function"
    },
    {
      "inputs": [
        {
          "internalType": "address",
          "name": "_quickJoin",
          "type": "address"
        }
      ],
      "name": "setQuickJoin",
      "outputs": [],
      "stateMutability": "nonpayable",
      "type": "function"
    },
    {
      "inputs": [],
      "name": "symbol",
      "outputs": [
        {
          "internalType": "string",
          "name": "",
          "type": "string"
        }
      ],
      "stateMutability": "view",
      "type": "function"
    },
    {
      "inputs": [],
      "name": "totalSupply",
      "outputs": [
        {
          "internalType": "uint256",
          "name": "",
          "type": "uint256"
        }
      ],
      "stateMutability": "view",
      "type": "function"
    },
    {
      "inputs": [
        {
          "internalType": "address",
          "name": "",
          "type": "address"
        },
        {
          "internalType": "uint256",
          "name": "",
          "type": "uint256"
        }
      ],
      "name": "transfer",
      "outputs": [
        {
          "internalType": "bool",
          "name": "",
          "type": "bool"
        }
      ],
      "stateMutability": "nonpayable",
      "type": "function"
    },
    {
      "inputs": [
        {
          "internalType": "address",
          "name": "",
          "type": "address"
        },
        {
          "internalType": "address",
          "name": "",
          "type": "address"
        },
        {
          "internalType": "uint256",
          "name": "",
          "type": "uint256"
        }
      ],
      "name": "transferFrom",
      "outputs": [
        {
          "internalType": "bool",
          "name": "",
          "type": "bool"
        }
      ],
      "stateMutability": "nonpayable",
      "type": "function"
    },
    {
      "inputs": [
        {
          "internalType": "address",
          "name": "newOwner",
          "type": "address"
        }
      ],
      "name": "transferOwnership",
      "outputs": [],
      "stateMutability": "nonpayable",
      "type": "function"
    }
  ],
  "bytecode": "0x60806040526000600760146101000a81548160ff0219169083151502179055503480156200002c57600080fd5b506040516200270d3803806200270d833981810160405281019062000052919062000521565b838381600390816200006591906200083b565b5080600490816200007791906200083b565b5050506200009a6200008e6200015f60201b60201c565b6200016760201b60201c565b81600660006101000a81548173ffffffffffffffffffffffffffffffffffffffff021916908373ffffffffffffffffffffffffffffffffffffffff16021790555060005b815181101562000154576001600883838151811062000102576200010162000922565b5b602002602001015160405162000119919062000993565b908152602001604051809103902060006101000a81548160ff02191690831515021790555080806200014b90620009db565b915050620000de565b505050505062000a28565b600033905090565b6000600560009054906101000a900473ffffffffffffffffffffffffffffffffffffffff16905081600560006101000a81548173ffffffffffffffffffffffffffffffffffffffff021916908373ffffffffffffffffffffffffffffffffffffffff1602179055508173ffffffffffffffffffffffffffffffffffffffff168173ffffffffffffffffffffffffffffffffffffffff167f8be0079c531659141344cd1fd0a4f28419497f9722a3daafe3b4186f6b6457e060405160405180910390a35050565b6000604051905090565b600080fd5b600080fd5b600080fd5b600080fd5b6000601f19601f8301169050919050565b7f4e487b7100000000000000000000000000000000000000000000000000000000600052604160045260246000fd5b62000296826200024b565b810181811067ffffffffffffffff82111715620002b857620002b76200025c565b5b80604052505050565b6000620002cd6200022d565b9050620002db82826200028b565b919050565b600067ffffffffffffffff821115620002fe57620002fd6200025c565b5b62000309826200024b565b9050602081019050919050565b60005b838110156200033657808201518184015260208101905062000319565b60008484015250505050565b6000620003596200035384620002e0565b620002c1565b90508281526020810184848401111562000378576200037762000246565b5b6200038584828562000316565b509392505050565b600082601f830112620003a557620003a462000241565b5b8151620003b784826020860162000342565b91505092915050565b600073ffffffffffffffffffffffffffffffffffffffff82169050919050565b6000620003ed82620003c0565b9050919050565b620003ff81620003e0565b81146200040b57600080fd5b50565b6000815190506200041f81620003f4565b92915050565b600067ffffffffffffffff8211156200044357620004426200025c565b5b602082029050602081019050919050565b600080fd5b6000620004706200046a8462000425565b620002c1565b9050808382526020820190506020840283018581111562000496576200049562000454565b5b835b81811015620004e457805167ffffffffffffffff811115620004bf57620004be62000241565b5b808601620004ce89826200038d565b8552602085019450505060208101905062000498565b5050509392505050565b600082601f83011262000506576200050562000241565b5b81516200051884826020860162000459565b91505092915050565b600080600080608085870312156200053e576200053d62000237565b5b600085015167ffffffffffffffff8111156200055f576200055e6200023c565b5b6200056d878288016200038d565b945050602085015167ffffffffffffffff8111156200059157620005906200023c565b5b6200059f878288016200038d565b9350506040620005b2878288016200040e565b925050606085015167ffffffffffffffff811115620005d657620005d56200023c565b5b620005e487828801620004ee565b91505092959194509250565b600081519050919050565b7f4e487b7100000000000000000000000000000000000000000000000000000000600052602260045260246000fd5b600060028204905060018216806200064357607f821691505b602082108103620006595762000658620005fb565b5b50919050565b60008190508160005260206000209050919050565b60006020601f8301049050919050565b600082821b905092915050565b600060088302620006c37fffffffffffffffffffffffffffffffffffffffffffffffffffffffffffffffff8262000684565b620006cf868362000684565b95508019841693508086168417925050509392505050565b6000819050919050565b6000819050919050565b60006200071c620007166200071084620006e7565b620006f1565b620006e7565b9050919050565b6000819050919050565b6200073883620006fb565b62000750620007478262000723565b84845462000691565b825550505050565b600090565b6200076762000758565b620007748184846200072d565b505050565b5b818110156200079c57620007906000826200075d565b6001810190506200077a565b5050565b601f821115620007eb57620007b5816200065f565b620007c08462000674565b81016020851015620007d0578190505b620007e8620007df8562000674565b83018262000779565b50505b505050565b600082821c905092915050565b60006200081060001984600802620007f0565b1980831691505092915050565b60006200082b8383620007fd565b9150826002028217905092915050565b6200084682620005f0565b67ffffffffffffffff8111156200086257620008616200025c565b5b6200086e82546200062a565b6200087b828285620007a0565b600060209050601f831160018114620008b357600084156200089e578287015190505b620008aa85826200081d565b8655506200091a565b601f198416620008c3866200065f565b60005b82811015620008ed57848901518255600182019150602085019450602081019050620008c6565b868310156200090d578489015162000909601f891682620007fd565b8355505b6001600288020188555050505b505050505050565b7f4e487b7100000000000000000000000000000000000000000000000000000000600052603260045260246000fd5b600081905092915050565b60006200096982620005f0565b62000975818562000951565b93506200098781856020860162000316565b80840191505092915050565b6000620009a182846200095c565b915081905092915050565b7f4e487b7100000000000000000000000000000000000000000000000000000000600052601160045260246000fd5b6000620009e882620006e7565b91507fffffffffffffffffffffffffffffffffffffffffffffffffffffffffffffffff820362000a1d5762000a1c620009ac565b5b600182019050919050565b611cd58062000a386000396000f3fe608060405234801561001057600080fd5b50600436106101215760003560e01c80638da5cb5b116100ad578063a9059cbb11610071578063a9059cbb1461030e578063ada52e251461033e578063dd62ed3e1461035a578063f2fde38b1461038a578063f8b2cb4f146103a657610121565b80638da5cb5b1461026657806395d89b4114610284578063a04b3979146102a2578063a2b2b4d4146102c0578063a457c2d7146102de57610121565b8063313ce567116100f4578063313ce567146101c257806339509351146101e05780636a6278421461021057806370a082311461022c578063715018a61461025c57610121565b806306fdde0314610126578063095ea7b31461014457806318160ddd1461017457806323b872dd14610192575b600080fd5b61012e6103d6565b60405161013b9190611043565b60405180910390f35b61015e6004803603810190610159919061110d565b610468565b60405161016b9190611168565b60405180910390f35b61017c6104a5565b6040516101899190611192565b60405180910390f35b6101ac60048036038101906101a791906111ad565b6104af565b6040516101b99190611168565b60405180910390f35b6101ca6104ec565b6040516101d7919061121c565b60405180910390f35b6101fa60048036038101906101f5919061110d565b6104f1565b6040516102079190611168565b60405180910390f35b61022a60048036038101906102259190611237565b610528565b005b61024660048036038101906102419190611237565b610773565b6040516102539190611192565b60405180910390f35b6102646107bb565b005b61026e6107cf565b60405161027b9190611273565b60405180910390f35b61028c6107f9565b6040516102999190611043565b60405180910390f35b6102aa61088b565b6040516102b79190611192565b60405180910390f35b6102c8610890565b6040516102d591906112ed565b60405180910390f35b6102f860048036038101906102f3919061110d565b6108b6565b6040516103059190611168565b60405180910390f35b6103286004803603810190610323919061110d565b61092d565b6040516103359190611168565b60405180910390f35b61035860048036038101906103539190611237565b61096a565b005b610374600480360381019061036f9190611308565b610a19565b6040516103819190611192565b60405180910390f35b6103a4600480360381019061039f9190611237565b610aa0565b005b6103c060048036038101906103bb9190611237565b610b23565b6040516103cd9190611192565b60405180910390f35b6060600380546103e590611377565b80601f016020809104026020016040519081016040528092919081815260200182805461041190611377565b801561045e5780601f106104335761010080835404028352916020019161045e565b820191906000526020600020905b81548152906001019060200180831161044157829003601f168201915b5050505050905090565b60006040517f08c379a000000000000000000000000000000000000000000000000000000000815260040161049c9061141a565b60405180910390fd5b6000600254905090565b60006040517f08c379a00000000000000000000000000000000000000000000000000000000081526004016104e3906114ac565b60405180910390fd5b600090565b6000806104fc610b35565b905061051d81858561050e8589610a19565b61051891906114fb565b610b3d565b600191505092915050565b806000600660009054906101000a900473ffffffffffffffffffffffffffffffffffffffff1673ffffffffffffffffffffffffffffffffffffffff166377782188836040518263ffffffff1660e01b81526004016105869190611273565b600060405180830381865afa1580156105a3573d6000803e3d6000fd5b505050506040513d6000823e3d601f19601f820116820180604052508101906105cc9190611655565b90506008816040516105de91906116da565b908152602001604051809103902060009054906101000a900460ff16610639576040517f08c379a00000000000000000000000000000000000000000000000000000000081526004016106309061173d565b60405180910390fd5b600760009054906101000a900473ffffffffffffffffffffffffffffffffffffffff1673ffffffffffffffffffffffffffffffffffffffff163373ffffffffffffffffffffffffffffffffffffffff16146106c9576040517f08c379a00000000000000000000000000000000000000000000000000000000081526004016106c0906117cf565b60405180910390fd5b60006106d484610773565b14610714576040517f08c379a000000000000000000000000000000000000000000000000000000000815260040161070b90611861565b60405180910390fd5b61071f836064610d06565b8273ffffffffffffffffffffffffffffffffffffffff167f0f6798a560793a54c3bcfe86a93cde1e73087d944c0ea20544137d412139688560646040516107669190611192565b60405180910390a2505050565b60008060008373ffffffffffffffffffffffffffffffffffffffff1673ffffffffffffffffffffffffffffffffffffffff168152602001908152602001600020549050919050565b6107c3610e65565b6107cd6000610ee3565b565b6000600560009054906101000a900473ffffffffffffffffffffffffffffffffffffffff16905090565b60606004805461080890611377565b80601f016020809104026020016040519081016040528092919081815260200182805461083490611377565b80156108815780601f1061085657610100808354040283529160200191610881565b820191906000526020600020905b81548152906001019060200180831161086457829003601f168201915b5050505050905090565b606481565b600660009054906101000a900473ffffffffffffffffffffffffffffffffffffffff1681565b6000806108c1610b35565b905060006108cf8286610a19565b905083811015610914576040517f08c379a000000000000000000000000000000000000000000000000000000000815260040161090b906118f3565b60405180910390fd5b6109218286868403610b3d565b60019250505092915050565b60006040517f08c379a000000000000000000000000000000000000000000000000000000000815260040161096190611985565b60405180910390fd5b600760149054906101000a900460ff16156109ba576040517f08c379a00000000000000000000000000000000000000000000000000000000081526004016109b1906119f1565b60405180910390fd5b80600760006101000a81548173ffffffffffffffffffffffffffffffffffffffff021916908373ffffffffffffffffffffffffffffffffffffffff1602179055506001600760146101000a81548160ff02191690831515021790555050565b6000600160008473ffffffffffffffffffffffffffffffffffffffff1673ffffffffffffffffffffffffffffffffffffffff16815260200190815260200160002060008373ffffffffffffffffffffffffffffffffffffffff1673ffffffffffffffffffffffffffffffffffffffff16815260200190815260200160002054905092915050565b610aa8610e65565b600073ffffffffffffffffffffffffffffffffffffffff168173ffffffffffffffffffffffffffffffffffffffff1603610b17576040517f08c379a0000000000000000000000000000000000000000000000000000000008152600401610b0e90611a83565b60405180910390fd5b610b2081610ee3565b50565b6000610b2e82610773565b9050919050565b600033905090565b600073ffffffffffffffffffffffffffffffffffffffff168373ffffffffffffffffffffffffffffffffffffffff1603610bac576040517f08c379a0000000000000000000000000000000000000000000000000000000008152600401610ba390611b15565b60405180910390fd5b600073ffffffffffffffffffffffffffffffffffffffff168273ffffffffffffffffffffffffffffffffffffffff1603610c1b576040517f08c379a0000000000000000000000000000000000000000000000000000000008152600401610c1290611ba7565b60405180910390fd5b80600160008573ffffffffffffffffffffffffffffffffffffffff1673ffffffffffffffffffffffffffffffffffffffff16815260200190815260200160002060008473ffffffffffffffffffffffffffffffffffffffff1673ffffffffffffffffffffffffffffffffffffffff168152602001908152602001600020819055508173ffffffffffffffffffffffffffffffffffffffff168373ffffffffffffffffffffffffffffffffffffffff167f8c5be1e5ebec7d5bd14f71427d1e84f3dd0314c0f7b2291e5b200ac8c7c3b92583604051610cf99190611192565b60405180910390a3505050565b600073ffffffffffffffffffffffffffffffffffffffff168273ffffffffffffffffffffffffffffffffffffffff1603610d75576040517f08c379a0000000000000000000000000000000000000000000000000000000008152600401610d6c90611c13565b60405180910390fd5b610d8160008383610fa9565b8060026000828254610d9391906114fb565b92505081905550806000808473ffffffffffffffffffffffffffffffffffffffff1673ffffffffffffffffffffffffffffffffffffffff1681526020019081526020016000206000828254610de891906114fb565b925050819055508173ffffffffffffffffffffffffffffffffffffffff16600073ffffffffffffffffffffffffffffffffffffffff167fddf252ad1be2c89b69c2b068fc378daa952ba7f163c4a11628f55a4df523b3ef83604051610e4d9190611192565b60405180910390a3610e6160008383610fae565b5050565b610e6d610b35565b73ffffffffffffffffffffffffffffffffffffffff16610e8b6107cf565b73ffffffffffffffffffffffffffffffffffffffff1614610ee1576040517f08c379a0000000000000000000000000000000000000000000000000000000008152600401610ed890611c7f565b60405180910390fd5b565b6000600560009054906101000a900473ffffffffffffffffffffffffffffffffffffffff16905081600560006101000a81548173ffffffffffffffffffffffffffffffffffffffff021916908373ffffffffffffffffffffffffffffffffffffffff1602179055508173ffffffffffffffffffffffffffffffffffffffff168173ffffffffffffffffffffffffffffffffffffffff167f8be0079c531659141344cd1fd0a4f28419497f9722a3daafe3b4186f6b6457e060405160405180910390a35050565b505050565b505050565b600081519050919050565b600082825260208201905092915050565b60005b83811015610fed578082015181840152602081019050610fd2565b60008484015250505050565b6000601f19601f8301169050919050565b600061101582610fb3565b61101f8185610fbe565b935061102f818560208601610fcf565b61103881610ff9565b840191505092915050565b6000602082019050818103600083015261105d818461100a565b905092915050565b6000604051905090565b600080fd5b600080fd5b600073ffffffffffffffffffffffffffffffffffffffff82169050919050565b60006110a482611079565b9050919050565b6110b481611099565b81146110bf57600080fd5b50565b6000813590506110d1816110ab565b92915050565b6000819050919050565b6110ea816110d7565b81146110f557600080fd5b50565b600081359050611107816110e1565b92915050565b600080604083850312156111245761112361106f565b5b6000611132858286016110c2565b9250506020611143858286016110f8565b9150509250929050565b60008115159050919050565b6111628161114d565b82525050565b600060208201905061117d6000830184611159565b92915050565b61118c816110d7565b82525050565b60006020820190506111a76000830184611183565b92915050565b6000806000606084860312156111c6576111c561106f565b5b60006111d4868287016110c2565b93505060206111e5868287016110c2565b92505060406111f6868287016110f8565b9150509250925092565b600060ff82169050919050565b61121681611200565b82525050565b6000602082019050611231600083018461120d565b92915050565b60006020828403121561124d5761124c61106f565b5b600061125b848285016110c2565b91505092915050565b61126d81611099565b82525050565b60006020820190506112886000830184611264565b92915050565b6000819050919050565b60006112b36112ae6112a984611079565b61128e565b611079565b9050919050565b60006112c582611298565b9050919050565b60006112d7826112ba565b9050919050565b6112e7816112cc565b82525050565b600060208201905061130260008301846112de565b92915050565b6000806040838503121561131f5761131e61106f565b5b600061132d858286016110c2565b925050602061133e858286016110c2565b9150509250929050565b7f4e487b7100000000000000000000000000000000000000000000000000000000600052602260045260246000fd5b6000600282049050600182168061138f57607f821691505b6020821081036113a2576113a1611348565b5b50919050565b7f417070726f76616c206f6620546f6b656e20616c6c6f77616e6365206973206e60008201527f6f7420616c6c6f77656400000000000000000000000000000000000000000000602082015250565b6000611404602a83610fbe565b915061140f826113a8565b604082019050919050565b60006020820190508181036000830152611433816113f7565b9050919050565b7f5472616e73666572206f6620546f6b656e73206973206e6f7420616c6c6f776560008201527f6400000000000000000000000000000000000000000000000000000000000000602082015250565b6000611496602183610fbe565b91506114a18261143a565b604082019050919050565b600060208201905081810360008301526114c581611489565b9050919050565b7f4e487b7100000000000000000000000000000000000000000000000000000000600052601160045260246000fd5b6000611506826110d7565b9150611511836110d7565b9250828201905080821115611529576115286114cc565b5b92915050565b600080fd5b600080fd5b7f4e487b7100000000000000000000000000000000000000000000000000000000600052604160045260246000fd5b61157182610ff9565b810181811067ffffffffffffffff821117156115905761158f611539565b5b80604052505050565b60006115a3611065565b90506115af8282611568565b919050565b600067ffffffffffffffff8211156115cf576115ce611539565b5b6115d882610ff9565b9050602081019050919050565b60006115f86115f3846115b4565b611599565b90508281526020810184848401111561161457611613611534565b5b61161f848285610fcf565b509392505050565b600082601f83011261163c5761163b61152f565b5b815161164c8482602086016115e5565b91505092915050565b60006020828403121561166b5761166a61106f565b5b600082015167ffffffffffffffff81111561168957611688611074565b5b61169584828501611627565b91505092915050565b600081905092915050565b60006116b482610fb3565b6116be818561169e565b93506116ce818560208601610fcf565b80840191505092915050565b60006116e682846116a9565b915081905092915050565b7f4e6f7420617574686f72697a656420746f206d696e7420636f696e7300000000600082015250565b6000611727601c83610fbe565b9150611732826116f1565b602082019050919050565b600060208201905081810360008301526117568161171a565b9050919050565b7f4f6e6c7920517569636b4a6f696e2063616e2063616c6c20746869732066756e60008201527f6374696f6e000000000000000000000000000000000000000000000000000000602082015250565b60006117b9602583610fbe565b91506117c48261175d565b604082019050919050565b600060208201905081810360008301526117e8816117ac565b9050919050565b7f54686973206163636f756e742068617320616c726561647920636c61696d656460008201527f20636f696e732100000000000000000000000000000000000000000000000000602082015250565b600061184b602783610fbe565b9150611856826117ef565b604082019050919050565b6000602082019050818103600083015261187a8161183e565b9050919050565b7f45524332303a2064656372656173656420616c6c6f77616e63652062656c6f7760008201527f207a65726f000000000000000000000000000000000000000000000000000000602082015250565b60006118dd602583610fbe565b91506118e882611881565b604082019050919050565b6000602082019050818103600083015261190c816118d0565b9050919050565b7f5472616e73666572206f6620746f6b656e73206973206e6f7420616c6c6f776560008201527f6400000000000000000000000000000000000000000000000000000000000000602082015250565b600061196f602183610fbe565b915061197a82611913565b604082019050919050565b6000602082019050818103600083015261199e81611962565b9050919050565b7f517569636b4a6f696e20616c7265616479207365740000000000000000000000600082015250565b60006119db601583610fbe565b91506119e6826119a5565b602082019050919050565b60006020820190508181036000830152611a0a816119ce565b9050919050565b7f4f776e61626c653a206e6577206f776e657220697320746865207a65726f206160008201527f6464726573730000000000000000000000000000000000000000000000000000602082015250565b6000611a6d602683610fbe565b9150611a7882611a11565b604082019050919050565b60006020820190508181036000830152611a9c81611a60565b9050919050565b7f45524332303a20617070726f76652066726f6d20746865207a65726f2061646460008201527f7265737300000000000000000000000000000000000000000000000000000000602082015250565b6000611aff602483610fbe565b9150611b0a82611aa3565b604082019050919050565b60006020820190508181036000830152611b2e81611af2565b9050919050565b7f45524332303a20617070726f766520746f20746865207a65726f20616464726560008201527f7373000000000000000000000000000000000000000000000000000000000000602082015250565b6000611b91602283610fbe565b9150611b9c82611b35565b604082019050919050565b60006020820190508181036000830152611bc081611b84565b9050919050565b7f45524332303a206d696e7420746f20746865207a65726f206164647265737300600082015250565b6000611bfd601f83610fbe565b9150611c0882611bc7565b602082019050919050565b60006020820190508181036000830152611c2c81611bf0565b9050919050565b7f4f776e61626c653a2063616c6c6572206973206e6f7420746865206f776e6572600082015250565b6000611c69602083610fbe565b9150611c7482611c33565b602082019050919050565b60006020820190508181036000830152611c9881611c5c565b905091905056fea26469706673582212208f3b9ff088b26f1c4f7750b8155c600ddb9aa72fcdc7c9657cef522d7f279c6364736f6c63430008140033",
  "linkReferences": {},
  "deployedLinkReferences": {}
}