{"abi":[{"type":"constructor","inputs":[{"name":"_ddToken","type":"address","internalType":"address"},{"name":"_nftMembership","type":"address","internalType":"address"},{"name":"_allowedRoleNames","type":"string[]","internalType":"string[]"},{"name":"_treasuryAddress","type":"address","internalType":"address"},{"name":"_quorumPercentage","type":"uint256","internalType":"uint256"}],"stateMutability":"nonpayable"},{"type":"function","name":"DirectDemocracyToken","inputs":[],"outputs":[{"name":"","type":"address","internalType":"contract IERC20"}],"stateMutability":"view"},{"type":"function","name":"announceWinner","inputs":[{"name":"_proposalId","type":"uint256","internalType":"uint256"}],"outputs":[{"name":"","type":"uint256","internalType":"uint256"},{"name":"","type":"bool","internalType":"bool"}],"stateMutability":"nonpayable"},{"type":"function","name":"createProposal","inputs":[{"name":"_name","type":"string","internalType":"string"},{"name":"_description","type":"string","internalType":"string"},{"name":"_timeInMinutes","type":"uint256","internalType":"uint256"},{"name":"_optionNames","type":"string[]","internalType":"string[]"},{"name":"_transferTriggerOptionIndex","type":"uint256","internalType":"uint256"},{"name":"_transferRecipient","type":"address","internalType":"address payable"},{"name":"_transferAmount","type":"uint256","internalType":"uint256"},{"name":"_transferEnabled","type":"bool","internalType":"bool"},{"name":"_transferToken","type":"address","internalType":"address"},{"name":"_electionEnabled","type":"bool","internalType":"bool"},{"name":"_candidateAddresses","type":"address[]","internalType":"address[]"},{"name":"_candidateNames","type":"string[]","internalType":"string[]"}],"outputs":[],"stateMutability":"nonpayable"},{"type":"function","name":"elections","inputs":[],"outputs":[{"name":"","type":"address","internalType":"contract IElections"}],"stateMutability":"view"},{"type":"function","name":"getOptionVotes","inputs":[{"name":"_proposalId","type":"uint256","internalType":"uint256"},{"name":"_optionIndex","type":"uint256","internalType":"uint256"}],"outputs":[{"name":"votes","type":"uint256","internalType":"uint256"}],"stateMutability":"view"},{"type":"function","name":"getOptionsCount","inputs":[{"name":"_proposalId","type":"uint256","internalType":"uint256"}],"outputs":[{"name":"","type":"uint256","internalType":"uint256"}],"stateMutability":"view"},{"type":"function","name":"getProposal","inputs":[{"name":"_proposalId","type":"uint256","internalType":"uint256"}],"outputs":[{"name":"totalVotes","type":"uint256","internalType":"uint256"},{"name":"timeInMinutes","type":"uint256","internalType":"uint256"},{"name":"creationTimestamp","type":"uint256","internalType":"uint256"},{"name":"transferTriggerOptionIndex","type":"uint256","internalType":"uint256"},{"name":"transferRecipient","type":"address","internalType":"address payable"},{"name":"transferAmount","type":"uint256","internalType":"uint256"},{"name":"transferEnabled","type":"bool","internalType":"bool"},{"name":"transferToken","type":"address","internalType":"address"}],"stateMutability":"view"},{"type":"function","name":"getProposalOptionVotes","inputs":[{"name":"_proposalId","type":"uint256","internalType":"uint256"},{"name":"_optionIndex","type":"uint256","internalType":"uint256"}],"outputs":[{"name":"votes","type":"uint256","internalType":"uint256"}],"stateMutability":"view"},{"type":"function","name":"getProposalsCount","inputs":[],"outputs":[{"name":"","type":"uint256","internalType":"uint256"}],"stateMutability":"view"},{"type":"function","name":"getWinner","inputs":[{"name":"_proposalId","type":"uint256","internalType":"uint256"}],"outputs":[{"name":"","type":"uint256","internalType":"uint256"},{"name":"","type":"bool","internalType":"bool"}],"stateMutability":"view"},{"type":"function","name":"nftMembership","inputs":[],"outputs":[{"name":"","type":"address","internalType":"contract INFTMembership2"}],"stateMutability":"view"},{"type":"function","name":"quorumPercentage","inputs":[],"outputs":[{"name":"","type":"uint256","internalType":"uint256"}],"stateMutability":"view"},{"type":"function","name":"setElectionsContract","inputs":[{"name":"_electionsContract","type":"address","internalType":"address"}],"outputs":[],"stateMutability":"nonpayable"},{"type":"function","name":"treasury","inputs":[],"outputs":[{"name":"","type":"address","internalType":"contract ITreasury"}],"stateMutability":"view"},{"type":"function","name":"vote","inputs":[{"name":"_proposalId","type":"uint256","internalType":"uint256"},{"name":"_voter","type":"address","internalType":"address"},{"name":"_optionIndex","type":"uint256","internalType":"uint256"}],"outputs":[],"stateMutability":"nonpayable"},{"type":"event","name":"ElectionContractSet","inputs":[{"name":"electionContract","type":"address","indexed":true,"internalType":"address"}],"anonymous":false},{"type":"event","name":"NewProposal","inputs":[{"name":"proposalId","type":"uint256","indexed":true,"internalType":"uint256"},{"name":"name","type":"string","indexed":false,"internalType":"string"},{"name":"description","type":"string","indexed":false,"internalType":"string"},{"name":"timeInMinutes","type":"uint256","indexed":false,"internalType":"uint256"},{"name":"creationTimestamp","type":"uint256","indexed":false,"internalType":"uint256"},{"name":"transferTriggerOptionIndex","type":"uint256","indexed":false,"internalType":"uint256"},{"name":"transferRecipient","type":"address","indexed":false,"internalType":"address"},{"name":"transferAmount","type":"uint256","indexed":false,"internalType":"uint256"},{"name":"transferEnabled","type":"bool","indexed":false,"internalType":"bool"},{"name":"transferToken","type":"address","indexed":false,"internalType":"address"},{"name":"electionEnabled","type":"bool","indexed":false,"internalType":"bool"},{"name":"electionId","type":"uint256","indexed":false,"internalType":"uint256"}],"anonymous":false},{"type":"event","name":"PollOptionNames","inputs":[{"name":"proposalId","type":"uint256","indexed":true,"internalType":"uint256"},{"name":"optionIndex","type":"uint256","indexed":true,"internalType":"uint256"},{"name":"name","type":"string","indexed":false,"internalType":"string"}],"anonymous":false},{"type":"event","name":"Voted","inputs":[{"name":"proposalId","type":"uint256","indexed":true,"internalType":"uint256"},{"name":"voter","type":"address","indexed":true,"internalType":"address"},{"name":"optionIndex","type":"uint256","indexed":false,"internalType":"uint256"}],"anonymous":false},{"type":"event","name":"WinnerAnnounced","inputs":[{"name":"proposalId","type":"uint256","indexed":true,"internalType":"uint256"},{"name":"winningOptionIndex","type":"uint256","indexed":false,"internalType":"uint256"},{"name":"hasValidWinner","type":"bool","indexed":false,"internalType":"bool"}],"anonymous":false}],"bytecode":{"object":"0x6080604052346101d15761161080380380610019816101ec565b92833981019060a0818303126101d15761003281610211565b61003e60208301610211565b60408301519091906001600160401b0381116101d15783019380601f860112156101d1578451946001600160401b0386116101d6578560051b916020806100868186016101ec565b809981520193830101918183116101d15760208101935b83851061015d57505050505060806100b760608501610211565b9301516003805460ff60a01b19169055600455600080546001600160a01b03199081166001600160a01b039384161782556001805482169484169490941790935560028054909316919093161790555b815181101561014e576001906101346020808360051b860101518160405193828580945193849201610225565b810160068152030190208260ff1982541617905501610107565b6040516113c790816102498239f35b84516001600160401b0381116101d15782019083603f830112156101d1576020820151906001600160401b0382116101d6576101a2601f8301601f19166020016101ec565b82815260408484010186106101d1576101c660209493859460408685019101610225565b81520194019361009d565b600080fd5b634e487b7160e01b600052604160045260246000fd5b6040519190601f01601f191682016001600160401b038111838210176101d657604052565b51906001600160a01b03821682036101d157565b60005b8381106102385750506000910152565b818101518382015260200161022856fe6080604052600436101561001257600080fd5b6000803560e01c806308ef909d146110165780633a6e157b14610ced5780634129b2c914610cbe578063428932c3146105b35780634de8737c146103485780634fa76ec91461032a578063517a6257146102f757806361d027b3146102ce57806386a01aac146102a5578063911b0d00146101eb57806398e527d3146101cd578063a2b2b4d4146101a4578063a44a3d721461017d578063c7f758a8146100e65763e7ea088f146100c257600080fd5b346100e35760206100db6100d536611026565b90611202565b604051908152f35b80fd5b50346100e35760203660031901126100e35761010061011360043561010e6005548210611173565b6111b5565b508054906002810154906003810154600582015460018060a01b03600684015416916008600785015494015494604051968752602087015260408601526060850152608084015260a083015260ff8116151560c083015260018060a01b039060081c1660e0820152f35b50346100e357806003193601126100e357546040516001600160a01b039091168152602090f35b50346100e357806003193601126100e3576001546040516001600160a01b039091168152602090f35b50346100e357806003193601126100e3576020600554604051908152f35b50346100e35760203660031901126100e3576004356001600160a01b038116908190036102a15760035460ff8160a01c1661025c576001600160a81b0319168117600160a01b176003557ffbf4e156ee63f693ce2748f9765fef54d81fad5a5a1a2b00cee3beeeff8f10da8280a280f35b60405162461bcd60e51b815260206004820152601d60248201527f456c656374696f6e20636f6e747261637420616c7265616479207365740000006044820152606490fd5b5080fd5b50346100e357806003193601126100e3576003546040516001600160a01b039091168152602090f35b50346100e357806003193601126100e3576002546040516001600160a01b039091168152602090f35b50346100e35760203660031901126100e3576020600461031f813561010e6005548210611173565b500154604051908152f35b50346100e357806003193601126100e3576020600454604051908152f35b50346100e35760603660031901126100e3576024356001600160a01b03811690600435908290036105af57604435600554821061038481611173565b61038d836111b5565b506002600382015491015490603c820291808304603c149015171561059b57906103b69161126b565b42116105605784546040516370a0823160e01b81526004810186905290602090829060249082906001600160a01b03165afa90811561055557869161051f575b50156104e45761040590611173565b61040e826111b5565b5060018101846000528060205260ff604060002054166104af57846000526020526040600020600160ff1982541617905580546001810180911161049b57600482849261045c9455016111ea565b508054906001820180921161049b57556040519081527f1abe610cf2bf87e57dcc1181fcf5ac0934e843d8344ab9eed6e86c799f62585e90602090a380f35b634e487b7160e01b86526011600452602486fd5b60405162461bcd60e51b815260206004820152600d60248201526c105b1c9958591e481d9bdd1959609a1b6044820152606490fd5b60405162461bcd60e51b81526020600482015260136024820152724e6f2064656d6f637261637920746f6b656e7360681b6044820152606490fd5b90506020813d60201161054d575b8161053a60209383611041565b810103126105495751386103f6565b8580fd5b3d915061052d565b6040513d88823e3d90fd5b60405162461bcd60e51b8152602060048201526013602482015272159bdd1a5b99c81d1a5b5948195e1c1a5c9959606a1b6044820152606490fd5b634e487b7160e01b87526011600452602487fd5b8280fd5b50346100e3576101803660031901126100e35760043567ffffffffffffffff81116102a1576105e6903690600401611095565b60243567ffffffffffffffff81116105af57610606903690600401611095565b9160643567ffffffffffffffff81116102a1576106279036906004016110f4565b60a435939091906001600160a01b03851685036102a15760e4359081151582036105af5761010435956001600160a01b0387168703610cba5761012435958615158703610cb657610144359667ffffffffffffffff8811610549573660238901121561054957876004013561069b816110dc565b986106a96040519a8b611041565b818a52602460208b019260051b82010190368211610b2457602401915b818310610c96575050506101643567ffffffffffffffff8111610c92576106f19036906004016110f4565b600154604051630eef043160e31b8152336004820152919a91908890829060249082906001600160a01b03165afa908115610c87578891610c03575b50610749602060ff928160405193828580945193849201611335565b81016006815203019020541615610bb45788518a5103610b6357600554600160401b811015610b4f5780600161078292016005556111b5565b5087815560443560028201554260038201556084356005808301919091556006820180546001600160a01b0319166001600160a01b03881617905560c4356007830155600880830180546001600160b01b0319168a151560ff16179185901b610100600160a81b03169190911785151560a81b60ff60a81b16179055549a9096906000198c018c10610b3b57885b8a518110156109065760405180602081011067ffffffffffffffff6020830111176108f257602081016040528a815260048a0154600160401b8110156108de57806001610866920160048d015560048c016111ea565b9190916108ca57918e7fd3b5cef521b08344b2f3822456355f6c2603e7f00a271d0215ac4760a401fc486108c18f846108a6918197600199519055611358565b5192604051918291602083526000190194602083019061136c565b0390a301610810565b634e487b7160e01b8c5260048c905260248cfd5b634e487b7160e01b8c52604160045260248cfd5b634e487b7160e01b8b52604160045260248bfd5b508b949596975090888493928c82966109c6575b5050979161096195939161096f7f0e746c77a6d2ddc3bc034f152d2d837f8a31616fdb56df0acb2283511dea15bb9896946040519889986101608a526101608a019061136c565b9088820360208a015261136c565b604435604088015242606088015260843560808801526001600160a01b03998a1660a088015260c43560c088015290151560e08701529716610100850152151561012084015261014083015260001901930390a280f35b955095979390969287604060018060a01b036003541660248c8351948593849263c912869d60e01b84526000190160048401525af1908115610b30578991610afa575b5092885b8751811015610ac3576003546001600160a01b0390811690610a2f838b611358565b5116610a3b838c611358565b51823b15610abf57610a7f928d928f84906040519687958694859363e1f8792b60e01b8552600019016004850152602484015260606044840152606483019061136c565b03925af1908115610ab4578b91610a9b575b5050600101610a0d565b81610aa591611041565b610ab057898e610a91565b8980fd5b6040513d8d823e3d90fd5b8c80fd5b509498939750929550909350918861096f7f0e746c77a6d2ddc3bc034f152d2d837f8a31616fdb56df0acb2283511dea15bb61091a565b90506040813d604011610b28575b81610b1560409383611041565b81010312610b2457518c610a09565b8880fd5b3d9150610b08565b6040513d8b823e3d90fd5b634e487b7160e01b89526011600452602489fd5b634e487b7160e01b88526041600452602488fd5b60405162461bcd60e51b8152602060048201526024808201527f43616e6469646174657320616e64206e616d6573206c656e677468206d69736d6044820152630c2e8c6d60e31b6064820152608490fd5b60405162461bcd60e51b815260206004820152602160248201527f4e6f7420617574686f72697a656420746f206372656174652070726f706f73616044820152601b60fa1b6064820152608490fd5b90503d8089833e610c148183611041565b810190602081830312610b245780519067ffffffffffffffff8211610ab0570181601f82011215610b2457805190610c4b82611079565b92610c596040519485611041565b82845260208383010111610ab05782610c7f61074993602093848060ff98019101611335565b92505061072d565b6040513d8a823e3d90fd5b8680fd5b82356001600160a01b0381168103610ab0578152602092830192016106c6565b8480fd5b8380fd5b50346100e35760203660031901126100e357610cdb60043561128e565b60408051928352901515602083015290f35b50346100e35760203660031901126100e357600435906005548210610d1181611173565b610d1a836111b5565b506002600382015491015490603c820291808304603c14901517156110025790610d439161126b565b421115610fbd57610d5390611173565b610d5c8261128e565b9290918380610fa6575b80610f90575b610e44575b60ff6008610d7e846111b5565b50015460a81c1680610e3d575b610dd5575b506040805183815284151560208201527f80fa758d7c24e927ad76726080b3e8e8ec336147a2e7f4edde3e19d9c94e7c369190a2604080519182529115156020820152f35b6003546001600160a01b0316803b156102a15781809160446040518094819363ce39673760e01b83528860048401528960248401525af18015610e3257610e1d575b50610d90565b610e28828092611041565b6100e35780610e17565b6040513d84823e3d90fd5b5083610d8b565b611010610e50836111b5565b50600890810154901c6001600160a01b031603610eee576002546001600160a01b0316610e7c836111b5565b50600601546001600160a01b03166007610e95856111b5565b50015490823b15610cba57906044849283604051958694859363522f681560e01b8552600485015260248401525af18015610e3257908291610ed9575b5050610d71565b81610ee391611041565b6100e3578038610ed2565b6002546001600160a01b0316610f03836111b5565b50600890810154901c6001600160a01b0316610f1e846111b5565b50600601546001600160a01b0316906007610f38866111b5565b50015492803b15610cb657849291836064926040519687958694631cdacd5960e31b86526004860152602485015260448401525af18015610e32578290610f80575050610d71565b610f8991611041565b3881610ed2565b506005610f9c836111b5565b5001548314610d6c565b5060ff6008610fb4846111b5565b50015416610d66565b60405162461bcd60e51b815260206004820152601860248201527f566f74696e67206973206e6f742079657420636c6f73656400000000000000006044820152606490fd5b634e487b7160e01b84526011600452602484fd5b50346100e35760206100db6100d5365b604090600319011261103c576004359060243590565b600080fd5b90601f8019910116810190811067ffffffffffffffff82111761106357604052565b634e487b7160e01b600052604160045260246000fd5b67ffffffffffffffff811161106357601f01601f191660200190565b81601f8201121561103c578035906110ac82611079565b926110ba6040519485611041565b8284526020838301011161103c57816000926020809301838601378301015290565b67ffffffffffffffff81116110635760051b60200190565b9080601f8301121561103c57813561110b816110dc565b926111196040519485611041565b81845260208085019260051b8201019183831161103c5760208201905b83821061114557505050505090565b813567ffffffffffffffff811161103c5760209161116887848094880101611095565b815201910190611136565b1561117a57565b60405162461bcd60e51b8152602060048201526013602482015272125b9d985b1a59081c1c9bdc1bdcd85b081251606a1b6044820152606490fd5b6005548110156111d45760056000526009602060002091020190600090565b634e487b7160e01b600052603260045260246000fd5b80548210156111d45760005260206000200190600090565b61121560049161010e6005548210611173565b500190815481101561122f5761122a916111ea565b505490565b60405162461bcd60e51b8152602060048201526014602482015273092dcecc2d8d2c840dee0e8d2dedc40d2dcc8caf60631b6044820152606490fd5b9190820180921161127857565b634e487b7160e01b600052601160045260246000fd5b61129f9061010e6005548210611173565b5090600080809380549160045492838102938185041490151715611321576004819201908154925b8381106112d75750505050509190565b816112e282856111ea565b5054116112f2575b6001016112c7565b965050925061130185846111ea565b5054928593606481028181046064148215171561127857841115966112ea565b634e487b7160e01b81526011600452602490fd5b60005b8381106113485750506000910152565b8181015183820152602001611338565b80518210156111d45760209160051b010190565b9060209161138581518092818552858086019101611335565b601f01601f191601019056fea264697066735822122034c7e3fa692dbc311e17305cb6a5d92a6a7d19d2deec3a2ac9708b3bfb18ee2b64736f6c634300081a0033","linkReferences":{}},"methodIdentifiers":{"DirectDemocracyToken()":"a44a3d72","announceWinner(uint256)":"3a6e157b","createProposal(string,string,uint256,string[],uint256,address,uint256,bool,address,bool,address[],string[])":"428932c3","elections()":"86a01aac","getOptionVotes(uint256,uint256)":"e7ea088f","getOptionsCount(uint256)":"517a6257","getProposal(uint256)":"c7f758a8","getProposalOptionVotes(uint256,uint256)":"08ef909d","getProposalsCount()":"98e527d3","getWinner(uint256)":"4129b2c9","nftMembership()":"a2b2b4d4","quorumPercentage()":"4fa76ec9","setElectionsContract(address)":"911b0d00","treasury()":"61d027b3","vote(uint256,address,uint256)":"4de8737c"},"id":44}