{
  "_format": "hh-sol-artifact-1",
  "contractName": "DirectDemocracyVotingFactory",
  "sourceName": "contracts/DirectDemocracyVotingFactory.sol",
  "abi": [
    {
      "anonymous": false,
      "inputs": [
        {
          "indexed": true,
          "internalType": "address",
          "name": "votingAddress",
          "type": "address"
        },
        {
          "indexed": true,
          "internalType": "address",
          "name": "treasuryAddress",
          "type": "address"
        },
        {
          "indexed": false,
          "internalType": "string",
          "name": "POname",
          "type": "string"
        }
      ],
      "name": "VotingContractCreated",
      "type": "event"
    },
    {
      "inputs": [
        {
          "internalType": "address",
          "name": "_ddToken",
          "type": "address"
        },
        {
          "internalType": "address",
          "name": "_nftMembership",
          "type": "address"
        },
        {
          "internalType": "string[]",
          "name": "_allowedRoleNames",
          "type": "string[]"
        },
        {
          "internalType": "address",
          "name": "_treasuryAddress",
          "type": "address"
        },
        {
          "internalType": "string",
          "name": "POname",
          "type": "string"
        }
      ],
      "name": "createDirectDemocracyVoting",
      "outputs": [],
      "stateMutability": "nonpayable",
      "type": "function"
    },
    {
      "inputs": [
        {
          "internalType": "uint256",
          "name": "",
          "type": "uint256"
        }
      ],
      "name": "deployedVotings",
      "outputs": [
        {
          "internalType": "address",
          "name": "",
          "type": "address"
        }
      ],
      "stateMutability": "view",
      "type": "function"
    },
    {
      "inputs": [],
      "name": "getDeployedVotings",
      "outputs": [
        {
          "internalType": "address[]",
          "name": "",
          "type": "address[]"
        }
      ],
      "stateMutability": "view",
      "type": "function"
    }
  ],
  "bytecode": "0x608060405234801561001057600080fd5b50612c05806100206000396000f3fe60806040523480156200001157600080fd5b5060043610620000465760003560e01c8063298f37ab146200004b5780633e04b578146200008157806385c7efc314620000a3575b600080fd5b62000069600480360381019062000063919062000305565b620000c3565b6040516200007891906200037c565b60405180910390f35b6200008b62000103565b6040516200009a919062000467565b60405180910390f35b620000c16004803603810190620000bb91906200071a565b62000193565b005b60008181548110620000d457600080fd5b906000526020600020016000915054906101000a900473ffffffffffffffffffffffffffffffffffffffff1681565b606060008054806020026020016040519081016040528092919081815260200182805480156200018957602002820191906000526020600020905b8160009054906101000a900473ffffffffffffffffffffffffffffffffffffffff1673ffffffffffffffffffffffffffffffffffffffff16815260200190600101908083116200013e575b5050505050905090565b600085858585604051620001a790620002a8565b620001b6949392919062000939565b604051809103906000f080158015620001d3573d6000803e3d6000fd5b5090506000819080600181540180825580915050600190039060005260206000200160009091909190916101000a81548173ffffffffffffffffffffffffffffffffffffffff021916908373ffffffffffffffffffffffffffffffffffffffff1602179055508273ffffffffffffffffffffffffffffffffffffffff168173ffffffffffffffffffffffffffffffffffffffff167f6cb6a296c8adb610479c99c2ac0f8cafc5b38c8bc4b3514b78fa87bade81785084604051620002989190620009df565b60405180910390a3505050505050565b6121cc8062000a0483390190565b6000604051905090565b600080fd5b600080fd5b6000819050919050565b620002df81620002ca565b8114620002eb57600080fd5b50565b600081359050620002ff81620002d4565b92915050565b6000602082840312156200031e576200031d620002c0565b5b60006200032e84828501620002ee565b91505092915050565b600073ffffffffffffffffffffffffffffffffffffffff82169050919050565b6000620003648262000337565b9050919050565b620003768162000357565b82525050565b60006020820190506200039360008301846200036b565b92915050565b600081519050919050565b600082825260208201905092915050565b6000819050602082019050919050565b620003d08162000357565b82525050565b6000620003e48383620003c5565b60208301905092915050565b6000602082019050919050565b60006200040a8262000399565b620004168185620003a4565b93506200042383620003b5565b8060005b838110156200045a5781516200043e8882620003d6565b97506200044b83620003f0565b92505060018101905062000427565b5085935050505092915050565b60006020820190508181036000830152620004838184620003fd565b905092915050565b620004968162000357565b8114620004a257600080fd5b50565b600081359050620004b6816200048b565b92915050565b600080fd5b6000601f19601f8301169050919050565b7f4e487b7100000000000000000000000000000000000000000000000000000000600052604160045260246000fd5b6200050c82620004c1565b810181811067ffffffffffffffff821117156200052e576200052d620004d2565b5b80604052505050565b600062000543620002b6565b905062000551828262000501565b919050565b600067ffffffffffffffff821115620005745762000573620004d2565b5b602082029050602081019050919050565b600080fd5b600080fd5b600067ffffffffffffffff821115620005ad57620005ac620004d2565b5b620005b882620004c1565b9050602081019050919050565b82818337600083830152505050565b6000620005eb620005e5846200058f565b62000537565b9050828152602081018484840111156200060a57620006096200058a565b5b62000617848285620005c5565b509392505050565b600082601f830112620006375762000636620004bc565b5b813562000649848260208601620005d4565b91505092915050565b600062000669620006638462000556565b62000537565b905080838252602082019050602084028301858111156200068f576200068e62000585565b5b835b81811015620006dd57803567ffffffffffffffff811115620006b857620006b7620004bc565b5b808601620006c789826200061f565b8552602085019450505060208101905062000691565b5050509392505050565b600082601f830112620006ff57620006fe620004bc565b5b81356200071184826020860162000652565b91505092915050565b600080600080600060a08688031215620007395762000738620002c0565b5b60006200074988828901620004a5565b95505060206200075c88828901620004a5565b945050604086013567ffffffffffffffff81111562000780576200077f620002c5565b5b6200078e88828901620006e7565b9350506060620007a188828901620004a5565b925050608086013567ffffffffffffffff811115620007c557620007c4620002c5565b5b620007d3888289016200061f565b9150509295509295909350565b600081519050919050565b600082825260208201905092915050565b6000819050602082019050919050565b600081519050919050565b600082825260208201905092915050565b60005b83811015620008485780820151818401526020810190506200082b565b60008484015250505050565b600062000861826200080c565b6200086d818562000817565b93506200087f81856020860162000828565b6200088a81620004c1565b840191505092915050565b6000620008a3838362000854565b905092915050565b6000602082019050919050565b6000620008c582620007e0565b620008d18185620007eb565b935083602082028501620008e585620007fc565b8060005b8581101562000927578484038952815162000905858262000895565b94506200091283620008ab565b925060208a01995050600181019050620008e9565b50829750879550505050505092915050565b60006080820190506200095060008301876200036b565b6200095f60208301866200036b565b8181036040830152620009738185620008b8565b90506200098460608301846200036b565b95945050505050565b600082825260208201905092915050565b6000620009ab826200080c565b620009b781856200098d565b9350620009c981856020860162000828565b620009d481620004c1565b840191505092915050565b60006020820190508181036000830152620009fb81846200099e565b90509291505056fe60806040523480156200001157600080fd5b50604051620021cc380380620021cc833981810160405281019062000037919062000471565b836000806101000a81548173ffffffffffffffffffffffffffffffffffffffff021916908373ffffffffffffffffffffffffffffffffffffffff16021790555082600160006101000a81548173ffffffffffffffffffffffffffffffffffffffff021916908373ffffffffffffffffffffffffffffffffffffffff16021790555080600260006101000a81548173ffffffffffffffffffffffffffffffffffffffff021916908373ffffffffffffffffffffffffffffffffffffffff16021790555060005b825181101562000172576001600484838151811062000120576200011f62000502565b5b60200260200101516040516200013791906200057e565b908152602001604051809103902060006101000a81548160ff02191690831515021790555080806200016990620005d0565b915050620000fc565b50505050506200061d565b6000604051905090565b600080fd5b600080fd5b600073ffffffffffffffffffffffffffffffffffffffff82169050919050565b6000620001be8262000191565b9050919050565b620001d081620001b1565b8114620001dc57600080fd5b50565b600081519050620001f081620001c5565b92915050565b600080fd5b6000601f19601f8301169050919050565b7f4e487b7100000000000000000000000000000000000000000000000000000000600052604160045260246000fd5b6200024682620001fb565b810181811067ffffffffffffffff821117156200026857620002676200020c565b5b80604052505050565b60006200027d6200017d565b90506200028b82826200023b565b919050565b600067ffffffffffffffff821115620002ae57620002ad6200020c565b5b602082029050602081019050919050565b600080fd5b600080fd5b600067ffffffffffffffff821115620002e757620002e66200020c565b5b620002f282620001fb565b9050602081019050919050565b60005b838110156200031f57808201518184015260208101905062000302565b60008484015250505050565b6000620003426200033c84620002c9565b62000271565b905082815260208101848484011115620003615762000360620002c4565b5b6200036e848285620002ff565b509392505050565b600082601f8301126200038e576200038d620001f6565b5b8151620003a08482602086016200032b565b91505092915050565b6000620003c0620003ba8462000290565b62000271565b90508083825260208201905060208402830185811115620003e657620003e5620002bf565b5b835b818110156200043457805167ffffffffffffffff8111156200040f576200040e620001f6565b5b8086016200041e898262000376565b85526020850194505050602081019050620003e8565b5050509392505050565b600082601f830112620004565762000455620001f6565b5b815162000468848260208601620003a9565b91505092915050565b600080600080608085870312156200048e576200048d62000187565b5b60006200049e87828801620001df565b9450506020620004b187828801620001df565b935050604085015167ffffffffffffffff811115620004d557620004d46200018c565b5b620004e3878288016200043e565b9250506060620004f687828801620001df565b91505092959194509250565b7f4e487b7100000000000000000000000000000000000000000000000000000000600052603260045260246000fd5b600081519050919050565b600081905092915050565b6000620005548262000531565b6200056081856200053c565b935062000572818560208601620002ff565b80840191505092915050565b60006200058c828462000547565b915081905092915050565b7f4e487b7100000000000000000000000000000000000000000000000000000000600052601160045260246000fd5b6000819050919050565b6000620005dd82620005c6565b91507fffffffffffffffffffffffffffffffffffffffffffffffffffffffffffffffff820362000612576200061162000597565b5b600182019050919050565b611b9f806200062d6000396000f3fe608060405234801561001057600080fd5b50600436106100885760003560e01c8063a2b2b4d41161005b578063a2b2b4d414610113578063a44a3d7214610131578063e7ea088f1461014f578063fdbbcbc21461017f57610088565b80633a6e157b1461008d5780634de8737c146100a9578063517a6257146100c557806361d027b3146100f5575b600080fd5b6100a760048036038101906100a29190610e0d565b61019b565b005b6100c360048036038101906100be9190610e98565b610480565b005b6100df60048036038101906100da9190610e0d565b610837565b6040516100ec9190610efa565b60405180910390f35b6100fd6108b6565b60405161010a9190610f74565b60405180910390f35b61011b6108dc565b6040516101289190610fb0565b60405180910390f35b610139610902565b6040516101469190610fec565b60405180910390f35b61016960048036038101906101649190611007565b610926565b6040516101769190610efa565b60405180910390f35b610199600480360381019061019491906112e9565b610a0b565b005b8060038054905081106101e3576040517f08c379a00000000000000000000000000000000000000000000000000000000081526004016101da90611450565b60405180910390fd5b6000600382815481106101f9576101f8611470565b5b90600052602060002090600902019050603c816002015461021a91906114ce565b81600301546102299190611510565b421161026a576040517f08c379a000000000000000000000000000000000000000000000000000000000815260040161026190611590565b60405180910390fd5b60038054905083106102b1576040517f08c379a00000000000000000000000000000000000000000000000000000000081526004016102a890611450565b60405180910390fd5b60006102bc84610cd1565b9050600384815481106102d2576102d1611470565b5b906000526020600020906009020160080160009054906101000a900460ff16801561032157506003848154811061030c5761030b611470565b5b90600052602060002090600902016005015481145b1561044257600260009054906101000a900473ffffffffffffffffffffffffffffffffffffffff1673ffffffffffffffffffffffffffffffffffffffff1663e6d66ac860008054906101000a900473ffffffffffffffffffffffffffffffffffffffff166003878154811061039957610398611470565b5b906000526020600020906009020160060160009054906101000a900473ffffffffffffffffffffffffffffffffffffffff16600388815481106103df576103de611470565b5b9060005260206000209060090201600701546040518463ffffffff1660e01b815260040161040f939291906115e0565b600060405180830381600087803b15801561042957600080fd5b505af115801561043d573d6000803e3d6000fd5b505050505b837f50e0ee70ebbb985b1aeb034bbf712119ad5ed3e707f7b33cd8e00694b0c2550c826040516104729190610efa565b60405180910390a250505050565b8260038054905081106104c8576040517f08c379a00000000000000000000000000000000000000000000000000000000081526004016104bf90611450565b60405180910390fd5b6000600382815481106104de576104dd611470565b5b90600052602060002090600902019050603c81600201546104ff91906114ce565b816003015461050e9190611510565b421115610550576040517f08c379a000000000000000000000000000000000000000000000000000000000815260040161054790611663565b60405180910390fd5b60008060009054906101000a900473ffffffffffffffffffffffffffffffffffffffff1673ffffffffffffffffffffffffffffffffffffffff166370a08231866040518263ffffffff1660e01b81526004016105ac9190611683565b602060405180830381865afa1580156105c9573d6000803e3d6000fd5b505050506040513d601f19601f820116820180604052508101906105ed91906116b3565b905060008111610632576040517f08c379a00000000000000000000000000000000000000000000000000000000081526004016106299061172c565b60405180910390fd5b6003805490508610610679576040517f08c379a000000000000000000000000000000000000000000000000000000000815260040161067090611450565b60405180910390fd5b60006003878154811061068f5761068e611470565b5b906000526020600020906009020190508060010160008773ffffffffffffffffffffffffffffffffffffffff1673ffffffffffffffffffffffffffffffffffffffff16815260200190815260200160002060009054906101000a900460ff161561072e576040517f08c379a000000000000000000000000000000000000000000000000000000000815260040161072590611798565b60405180910390fd5b60018160010160008873ffffffffffffffffffffffffffffffffffffffff1673ffffffffffffffffffffffffffffffffffffffff16815260200190815260200160002060006101000a81548160ff021916908315150217905550600181600001600082825461079d9190611510565b9250508190555060018160040186815481106107bc576107bb611470565b5b9060005260206000200160000160008282546107d89190611510565b925050819055508573ffffffffffffffffffffffffffffffffffffffff16877f1abe610cf2bf87e57dcc1181fcf5ac0934e843d8344ab9eed6e86c799f62585e876040516108269190610efa565b60405180910390a350505050505050565b60006003805490508210610880576040517f08c379a000000000000000000000000000000000000000000000000000000000815260040161087790611450565b60405180910390fd5b60006003838154811061089657610895611470565b5b906000526020600020906009020190508060040180549050915050919050565b600260009054906101000a900473ffffffffffffffffffffffffffffffffffffffff1681565b600160009054906101000a900473ffffffffffffffffffffffffffffffffffffffff1681565b60008054906101000a900473ffffffffffffffffffffffffffffffffffffffff1681565b6000600380549050831061096f576040517f08c379a000000000000000000000000000000000000000000000000000000000815260040161096690611450565b60405180910390fd5b60006003848154811061098557610984611470565b5b90600052602060002090600902019050806004018054905083106109de576040517f08c379a00000000000000000000000000000000000000000000000000000000081526004016109d590611804565b60405180910390fd5b8060040183815481106109f4576109f3611470565b5b906000526020600020016000015491505092915050565b6000600160009054906101000a900473ffffffffffffffffffffffffffffffffffffffff1673ffffffffffffffffffffffffffffffffffffffff166377782188336040518263ffffffff1660e01b8152600401610a689190611683565b600060405180830381865afa158015610a85573d6000803e3d6000fd5b505050506040513d6000823e3d601f19601f82011682018060405250810190610aae91906118be565b9050600481604051610ac0919061194e565b908152602001604051809103902060009054906101000a900460ff16610b1b576040517f08c379a0000000000000000000000000000000000000000000000000000000008152600401610b12906119d7565b60405180910390fd5b60006003600181600181540180825580915050039060005260206000209060090201905060008160000181905550878160020181905550428160030181905550858160050181905550848160060160006101000a81548173ffffffffffffffffffffffffffffffffffffffff021916908373ffffffffffffffffffffffffffffffffffffffff16021790555083816007018190555060006001600380549050610bc491906119f7565b9050807ffb1330a17ffe898a019796942f0ab05b8d97f1e01c9d47ac01b2fe7b462c152b8c8c8c428c8c8c8c604051610c04989796959493929190611a73565b60405180910390a260005b8851811015610cc35782600401604051806020016040528060008152509080600181540180825580915050600190039060005260206000200160009091909190915060008201518160000155505080827fd3b5cef521b08344b2f3822456355f6c2603e7f00a271d0215ac4760a401fc488b8481518110610c9357610c92611470565b5b6020026020010151604051610ca89190611aff565b60405180910390a38080610cbb90611b21565b915050610c0f565b505050505050505050505050565b60006003805490508210610d1a576040517f08c379a0000000000000000000000000000000000000000000000000000000008152600401610d1190611450565b60405180910390fd5b600060038381548110610d3057610d2f611470565b5b906000526020600020906009020190506000805b8260040180549050811015610dbb5781836004018281548110610d6a57610d69611470565b5b90600052602060002001600001541115610da857826004018181548110610d9457610d93611470565b5b906000526020600020016000015491508093505b8080610db390611b21565b915050610d44565b505050919050565b6000604051905090565b600080fd5b600080fd5b6000819050919050565b610dea81610dd7565b8114610df557600080fd5b50565b600081359050610e0781610de1565b92915050565b600060208284031215610e2357610e22610dcd565b5b6000610e3184828501610df8565b91505092915050565b600073ffffffffffffffffffffffffffffffffffffffff82169050919050565b6000610e6582610e3a565b9050919050565b610e7581610e5a565b8114610e8057600080fd5b50565b600081359050610e9281610e6c565b92915050565b600080600060608486031215610eb157610eb0610dcd565b5b6000610ebf86828701610df8565b9350506020610ed086828701610e83565b9250506040610ee186828701610df8565b9150509250925092565b610ef481610dd7565b82525050565b6000602082019050610f0f6000830184610eeb565b92915050565b6000819050919050565b6000610f3a610f35610f3084610e3a565b610f15565b610e3a565b9050919050565b6000610f4c82610f1f565b9050919050565b6000610f5e82610f41565b9050919050565b610f6e81610f53565b82525050565b6000602082019050610f896000830184610f65565b92915050565b6000610f9a82610f41565b9050919050565b610faa81610f8f565b82525050565b6000602082019050610fc56000830184610fa1565b92915050565b6000610fd682610f41565b9050919050565b610fe681610fcb565b82525050565b60006020820190506110016000830184610fdd565b92915050565b6000806040838503121561101e5761101d610dcd565b5b600061102c85828601610df8565b925050602061103d85828601610df8565b9150509250929050565b600080fd5b600080fd5b6000601f19601f8301169050919050565b7f4e487b7100000000000000000000000000000000000000000000000000000000600052604160045260246000fd5b61109a82611051565b810181811067ffffffffffffffff821117156110b9576110b8611062565b5b80604052505050565b60006110cc610dc3565b90506110d88282611091565b919050565b600067ffffffffffffffff8211156110f8576110f7611062565b5b61110182611051565b9050602081019050919050565b82818337600083830152505050565b600061113061112b846110dd565b6110c2565b90508281526020810184848401111561114c5761114b61104c565b5b61115784828561110e565b509392505050565b600082601f83011261117457611173611047565b5b813561118484826020860161111d565b91505092915050565b600067ffffffffffffffff8211156111a8576111a7611062565b5b602082029050602081019050919050565b600080fd5b60006111d16111cc8461118d565b6110c2565b905080838252602082019050602084028301858111156111f4576111f36111b9565b5b835b8181101561123b57803567ffffffffffffffff81111561121957611218611047565b5b808601611226898261115f565b855260208501945050506020810190506111f6565b5050509392505050565b600082601f83011261125a57611259611047565b5b813561126a8482602086016111be565b91505092915050565b600061127e82610e3a565b9050919050565b61128e81611273565b811461129957600080fd5b50565b6000813590506112ab81611285565b92915050565b60008115159050919050565b6112c6816112b1565b81146112d157600080fd5b50565b6000813590506112e3816112bd565b92915050565b600080600080600080600080610100898b03121561130a57611309610dcd565b5b600089013567ffffffffffffffff81111561132857611327610dd2565b5b6113348b828c0161115f565b985050602089013567ffffffffffffffff81111561135557611354610dd2565b5b6113618b828c0161115f565b97505060406113728b828c01610df8565b965050606089013567ffffffffffffffff81111561139357611392610dd2565b5b61139f8b828c01611245565b95505060806113b08b828c01610df8565b94505060a06113c18b828c0161129c565b93505060c06113d28b828c01610df8565b92505060e06113e38b828c016112d4565b9150509295985092959890939650565b600082825260208201905092915050565b7f496e76616c69642070726f706f73616c20494400000000000000000000000000600082015250565b600061143a6013836113f3565b915061144582611404565b602082019050919050565b600060208201905081810360008301526114698161142d565b9050919050565b7f4e487b7100000000000000000000000000000000000000000000000000000000600052603260045260246000fd5b7f4e487b7100000000000000000000000000000000000000000000000000000000600052601160045260246000fd5b60006114d982610dd7565b91506114e483610dd7565b92508282026114f281610dd7565b915082820484148315176115095761150861149f565b5b5092915050565b600061151b82610dd7565b915061152683610dd7565b925082820190508082111561153e5761153d61149f565b5b92915050565b7f566f74696e67206973206e6f742079657420636c6f7365640000000000000000600082015250565b600061157a6018836113f3565b915061158582611544565b602082019050919050565b600060208201905081810360008301526115a98161156d565b9050919050565b6115b981610e5a565b82525050565b60006115ca82610f41565b9050919050565b6115da816115bf565b82525050565b60006060820190506115f560008301866115b0565b61160260208301856115d1565b61160f6040830184610eeb565b949350505050565b7f566f74696e672074696d65206578706972656400000000000000000000000000600082015250565b600061164d6013836113f3565b915061165882611617565b602082019050919050565b6000602082019050818103600083015261167c81611640565b9050919050565b600060208201905061169860008301846115b0565b92915050565b6000815190506116ad81610de1565b92915050565b6000602082840312156116c9576116c8610dcd565b5b60006116d78482850161169e565b91505092915050565b7f4e6f2064656d6f637261637920746f6b656e7300000000000000000000000000600082015250565b60006117166013836113f3565b9150611721826116e0565b602082019050919050565b6000602082019050818103600083015261174581611709565b9050919050565b7f416c726561647920766f74656400000000000000000000000000000000000000600082015250565b6000611782600d836113f3565b915061178d8261174c565b602082019050919050565b600060208201905081810360008301526117b181611775565b9050919050565b7f496e76616c6964206f7074696f6e20696e646578000000000000000000000000600082015250565b60006117ee6014836113f3565b91506117f9826117b8565b602082019050919050565b6000602082019050818103600083015261181d816117e1565b9050919050565b60005b83811015611842578082015181840152602081019050611827565b60008484015250505050565b600061186161185c846110dd565b6110c2565b90508281526020810184848401111561187d5761187c61104c565b5b611888848285611824565b509392505050565b600082601f8301126118a5576118a4611047565b5b81516118b584826020860161184e565b91505092915050565b6000602082840312156118d4576118d3610dcd565b5b600082015167ffffffffffffffff8111156118f2576118f1610dd2565b5b6118fe84828501611890565b91505092915050565b600081519050919050565b600081905092915050565b600061192882611907565b6119328185611912565b9350611942818560208601611824565b80840191505092915050565b600061195a828461191d565b915081905092915050565b7f4e6f7420617574686f72697a656420746f206372656174652070726f706f736160008201527f6c00000000000000000000000000000000000000000000000000000000000000602082015250565b60006119c16021836113f3565b91506119cc82611965565b604082019050919050565b600060208201905081810360008301526119f0816119b4565b9050919050565b6000611a0282610dd7565b9150611a0d83610dd7565b9250828203905081811115611a2557611a2461149f565b5b92915050565b6000611a3682611907565b611a4081856113f3565b9350611a50818560208601611824565b611a5981611051565b840191505092915050565b611a6d816112b1565b82525050565b6000610100820190508181036000830152611a8e818b611a2b565b90508181036020830152611aa2818a611a2b565b9050611ab16040830189610eeb565b611abe6060830188610eeb565b611acb6080830187610eeb565b611ad860a08301866115d1565b611ae560c0830185610eeb565b611af260e0830184611a64565b9998505050505050505050565b60006020820190508181036000830152611b198184611a2b565b905092915050565b6000611b2c82610dd7565b91507fffffffffffffffffffffffffffffffffffffffffffffffffffffffffffffffff8203611b5e57611b5d61149f565b5b60018201905091905056fea2646970667358221220e4bdd04ceebba7caed464bb8fa55ce08d129ba99c6114f5c144588fc9d3897c964736f6c63430008140033a26469706673582212203433f888491a949687fdadc955be71834b8ab5839064fa3446ecaa24fa3b1bc564736f6c63430008140033",
  "linkReferences": {},
  "deployedLinkReferences": {}
}