{
  "_format": "hh-sol-artifact-1",
  "contractName": "DirectDemocracyTokenFactory",
  "sourceName": "contracts/DirectDemocracyTokenFactory.sol",
  "abi": [
    {
      "anonymous": false,
      "inputs": [
        {
          "indexed": false,
          "internalType": "address",
          "name": "tokenAddress",
          "type": "address"
        },
        {
          "indexed": false,
          "internalType": "string",
          "name": "name",
          "type": "string"
        },
        {
          "indexed": false,
          "internalType": "string",
          "name": "symbol",
          "type": "string"
        },
        {
          "indexed": false,
          "internalType": "string[]",
          "name": "allowedRoleNames",
          "type": "string[]"
        },
        {
          "indexed": false,
          "internalType": "string",
          "name": "POname",
          "type": "string"
        }
      ],
      "name": "TokenCreated",
      "type": "event"
    },
    {
      "inputs": [
        {
          "internalType": "string",
          "name": "name",
          "type": "string"
        },
        {
          "internalType": "string",
          "name": "symbol",
          "type": "string"
        },
        {
          "internalType": "address",
          "name": "_nftMembership",
          "type": "address"
        },
        {
          "internalType": "string[]",
          "name": "_allowedRoleNames",
          "type": "string[]"
        },
        {
          "internalType": "string",
          "name": "_POname",
          "type": "string"
        }
      ],
      "name": "createDirectDemocracyToken",
      "outputs": [
        {
          "internalType": "address",
          "name": "",
          "type": "address"
        }
      ],
      "stateMutability": "nonpayable",
      "type": "function"
    }
  ],
  "bytecode": "0x608060405234801561001057600080fd5b50612cb6806100206000396000f3fe60806040523480156200001157600080fd5b50600436106200002e5760003560e01c80633a789fc41462000033575b600080fd5b6200005160048036038101906200004b91906200044f565b62000069565b60405162000060919062000564565b60405180910390f35b600080868686866040516200007e906200016a565b6200008d94939291906200072c565b604051809103906000f080158015620000aa573d6000803e3d6000fd5b5090508073ffffffffffffffffffffffffffffffffffffffff1663f2fde38b336040518263ffffffff1660e01b8152600401620000e8919062000564565b600060405180830381600087803b1580156200010357600080fd5b505af115801562000118573d6000803e3d6000fd5b505050507f953ce6c1df8fdf474639b4437f46d689736ac114e9cb6cf0b2dd77b8b2435b708188888787604051620001559594939291906200078e565b60405180910390a18091505095945050505050565b612479806200080883390190565b6000604051905090565b600080fd5b600080fd5b600080fd5b600080fd5b6000601f19601f8301169050919050565b7f4e487b7100000000000000000000000000000000000000000000000000000000600052604160045260246000fd5b620001e18262000196565b810181811067ffffffffffffffff82111715620002035762000202620001a7565b5b80604052505050565b60006200021862000178565b9050620002268282620001d6565b919050565b600067ffffffffffffffff821115620002495762000248620001a7565b5b620002548262000196565b9050602081019050919050565b82818337600083830152505050565b60006200028762000281846200022b565b6200020c565b905082815260208101848484011115620002a657620002a562000191565b5b620002b384828562000261565b509392505050565b600082601f830112620002d357620002d26200018c565b5b8135620002e584826020860162000270565b91505092915050565b600073ffffffffffffffffffffffffffffffffffffffff82169050919050565b60006200031b82620002ee565b9050919050565b6200032d816200030e565b81146200033957600080fd5b50565b6000813590506200034d8162000322565b92915050565b600067ffffffffffffffff821115620003715762000370620001a7565b5b602082029050602081019050919050565b600080fd5b60006200039e620003988462000353565b6200020c565b90508083825260208201905060208402830185811115620003c457620003c362000382565b5b835b818110156200041257803567ffffffffffffffff811115620003ed57620003ec6200018c565b5b808601620003fc8982620002bb565b85526020850194505050602081019050620003c6565b5050509392505050565b600082601f8301126200043457620004336200018c565b5b81356200044684826020860162000387565b91505092915050565b600080600080600060a086880312156200046e576200046d62000182565b5b600086013567ffffffffffffffff8111156200048f576200048e62000187565b5b6200049d88828901620002bb565b955050602086013567ffffffffffffffff811115620004c157620004c062000187565b5b620004cf88828901620002bb565b9450506040620004e2888289016200033c565b935050606086013567ffffffffffffffff81111562000506576200050562000187565b5b62000514888289016200041c565b925050608086013567ffffffffffffffff81111562000538576200053762000187565b5b6200054688828901620002bb565b9150509295509295909350565b6200055e816200030e565b82525050565b60006020820190506200057b600083018462000553565b92915050565b600081519050919050565b600082825260208201905092915050565b60005b83811015620005bd578082015181840152602081019050620005a0565b60008484015250505050565b6000620005d68262000581565b620005e281856200058c565b9350620005f48185602086016200059d565b620005ff8162000196565b840191505092915050565b600081519050919050565b600082825260208201905092915050565b6000819050602082019050919050565b600082825260208201905092915050565b6000620006548262000581565b62000660818562000636565b9350620006728185602086016200059d565b6200067d8162000196565b840191505092915050565b600062000696838362000647565b905092915050565b6000602082019050919050565b6000620006b8826200060a565b620006c4818562000615565b935083602082028501620006d88562000626565b8060005b858110156200071a5784840389528151620006f8858262000688565b945062000705836200069e565b925060208a01995050600181019050620006dc565b50829750879550505050505092915050565b60006080820190508181036000830152620007488187620005c9565b905081810360208301526200075e8186620005c9565b90506200076f604083018562000553565b8181036060830152620007838184620006ab565b905095945050505050565b600060a082019050620007a5600083018862000553565b8181036020830152620007b98187620005c9565b90508181036040830152620007cf8186620005c9565b90508181036060830152620007e58185620006ab565b90508181036080830152620007fb8184620005c9565b9050969550505050505056fe60806040523480156200001157600080fd5b506040516200247938038062002479833981810160405281019062000037919062000506565b838381600390816200004a919062000820565b5080600490816200005c919062000820565b5050506200007f620000736200014460201b60201c565b6200014c60201b60201c565b81600660006101000a81548173ffffffffffffffffffffffffffffffffffffffff021916908373ffffffffffffffffffffffffffffffffffffffff16021790555060005b8151811015620001395760016007838381518110620000e757620000e662000907565b5b6020026020010151604051620000fe919062000978565b908152602001604051809103902060006101000a81548160ff02191690831515021790555080806200013090620009c0565b915050620000c3565b505050505062000a0d565b600033905090565b6000600560009054906101000a900473ffffffffffffffffffffffffffffffffffffffff16905081600560006101000a81548173ffffffffffffffffffffffffffffffffffffffff021916908373ffffffffffffffffffffffffffffffffffffffff1602179055508173ffffffffffffffffffffffffffffffffffffffff168173ffffffffffffffffffffffffffffffffffffffff167f8be0079c531659141344cd1fd0a4f28419497f9722a3daafe3b4186f6b6457e060405160405180910390a35050565b6000604051905090565b600080fd5b600080fd5b600080fd5b600080fd5b6000601f19601f8301169050919050565b7f4e487b7100000000000000000000000000000000000000000000000000000000600052604160045260246000fd5b6200027b8262000230565b810181811067ffffffffffffffff821117156200029d576200029c62000241565b5b80604052505050565b6000620002b262000212565b9050620002c0828262000270565b919050565b600067ffffffffffffffff821115620002e357620002e262000241565b5b620002ee8262000230565b9050602081019050919050565b60005b838110156200031b578082015181840152602081019050620002fe565b60008484015250505050565b60006200033e6200033884620002c5565b620002a6565b9050828152602081018484840111156200035d576200035c6200022b565b5b6200036a848285620002fb565b509392505050565b600082601f8301126200038a576200038962000226565b5b81516200039c84826020860162000327565b91505092915050565b600073ffffffffffffffffffffffffffffffffffffffff82169050919050565b6000620003d282620003a5565b9050919050565b620003e481620003c5565b8114620003f057600080fd5b50565b6000815190506200040481620003d9565b92915050565b600067ffffffffffffffff82111562000428576200042762000241565b5b602082029050602081019050919050565b600080fd5b6000620004556200044f846200040a565b620002a6565b905080838252602082019050602084028301858111156200047b576200047a62000439565b5b835b81811015620004c957805167ffffffffffffffff811115620004a457620004a362000226565b5b808601620004b3898262000372565b855260208501945050506020810190506200047d565b5050509392505050565b600082601f830112620004eb57620004ea62000226565b5b8151620004fd8482602086016200043e565b91505092915050565b600080600080608085870312156200052357620005226200021c565b5b600085015167ffffffffffffffff81111562000544576200054362000221565b5b620005528782880162000372565b945050602085015167ffffffffffffffff81111562000576576200057562000221565b5b620005848782880162000372565b93505060406200059787828801620003f3565b925050606085015167ffffffffffffffff811115620005bb57620005ba62000221565b5b620005c987828801620004d3565b91505092959194509250565b600081519050919050565b7f4e487b7100000000000000000000000000000000000000000000000000000000600052602260045260246000fd5b600060028204905060018216806200062857607f821691505b6020821081036200063e576200063d620005e0565b5b50919050565b60008190508160005260206000209050919050565b60006020601f8301049050919050565b600082821b905092915050565b600060088302620006a87fffffffffffffffffffffffffffffffffffffffffffffffffffffffffffffffff8262000669565b620006b4868362000669565b95508019841693508086168417925050509392505050565b6000819050919050565b6000819050919050565b600062000701620006fb620006f584620006cc565b620006d6565b620006cc565b9050919050565b6000819050919050565b6200071d83620006e0565b620007356200072c8262000708565b84845462000676565b825550505050565b600090565b6200074c6200073d565b6200075981848462000712565b505050565b5b8181101562000781576200077560008262000742565b6001810190506200075f565b5050565b601f821115620007d0576200079a8162000644565b620007a58462000659565b81016020851015620007b5578190505b620007cd620007c48562000659565b8301826200075e565b50505b505050565b600082821c905092915050565b6000620007f560001984600802620007d5565b1980831691505092915050565b6000620008108383620007e2565b9150826002028217905092915050565b6200082b82620005d5565b67ffffffffffffffff81111562000847576200084662000241565b5b6200085382546200060f565b6200086082828562000785565b600060209050601f83116001811462000898576000841562000883578287015190505b6200088f858262000802565b865550620008ff565b601f198416620008a88662000644565b60005b82811015620008d257848901518255600182019150602085019450602081019050620008ab565b86831015620008f25784890151620008ee601f891682620007e2565b8355505b6001600288020188555050505b505050505050565b7f4e487b7100000000000000000000000000000000000000000000000000000000600052603260045260246000fd5b600081905092915050565b60006200094e82620005d5565b6200095a818562000936565b93506200096c818560208601620002fb565b80840191505092915050565b600062000986828462000941565b915081905092915050565b7f4e487b7100000000000000000000000000000000000000000000000000000000600052601160045260246000fd5b6000620009cd82620006cc565b91507fffffffffffffffffffffffffffffffffffffffffffffffffffffffffffffffff820362000a025762000a0162000991565b5b600182019050919050565b611a5c8062000a1d6000396000f3fe608060405234801561001057600080fd5b50600436106101165760003560e01c80638da5cb5b116100a2578063a457c2d711610071578063a457c2d7146102c1578063a9059cbb146102f1578063dd62ed3e14610321578063f2fde38b14610351578063f8b2cb4f1461036d57610116565b80638da5cb5b1461024957806395d89b4114610267578063a04b397914610285578063a2b2b4d4146102a357610116565b806323b872dd116100e957806323b872dd14610191578063313ce567146101c157806339509351146101df57806370a082311461020f578063715018a61461023f57610116565b806306fdde031461011b578063095ea7b3146101395780631249c58b1461016957806318160ddd14610173575b600080fd5b61012361039d565b6040516101309190610ec8565b60405180910390f35b610153600480360381019061014e9190610f92565b61042f565b6040516101609190610fed565b60405180910390f35b61017161046c565b005b61017b610624565b6040516101889190611017565b60405180910390f35b6101ab60048036038101906101a69190611032565b61062e565b6040516101b89190610fed565b60405180910390f35b6101c961066b565b6040516101d691906110a1565b60405180910390f35b6101f960048036038101906101f49190610f92565b610670565b6040516102069190610fed565b60405180910390f35b610229600480360381019061022491906110bc565b6106a7565b6040516102369190611017565b60405180910390f35b6102476106ef565b005b610251610703565b60405161025e91906110f8565b60405180910390f35b61026f61072d565b60405161027c9190610ec8565b60405180910390f35b61028d6107bf565b60405161029a9190611017565b60405180910390f35b6102ab6107c4565b6040516102b89190611172565b60405180910390f35b6102db60048036038101906102d69190610f92565b6107ea565b6040516102e89190610fed565b60405180910390f35b61030b60048036038101906103069190610f92565b610861565b6040516103189190610fed565b60405180910390f35b61033b6004803603810190610336919061118d565b61089e565b6040516103489190611017565b60405180910390f35b61036b600480360381019061036691906110bc565b610925565b005b610387600480360381019061038291906110bc565b6109a8565b6040516103949190611017565b60405180910390f35b6060600380546103ac906111fc565b80601f01602080910402602001604051908101604052809291908181526020018280546103d8906111fc565b80156104255780601f106103fa57610100808354040283529160200191610425565b820191906000526020600020905b81548152906001019060200180831161040857829003601f168201915b5050505050905090565b60006040517f08c379a00000000000000000000000000000000000000000000000000000000081526004016104639061129f565b60405180910390fd5b6000600660009054906101000a900473ffffffffffffffffffffffffffffffffffffffff1673ffffffffffffffffffffffffffffffffffffffff166377782188336040518263ffffffff1660e01b81526004016104c991906110f8565b600060405180830381865afa1580156104e6573d6000803e3d6000fd5b505050506040513d6000823e3d601f19601f8201168201806040525081019061050f91906113e5565b9050600781604051610521919061146a565b908152602001604051809103902060009054906101000a900460ff1661057c576040517f08c379a0000000000000000000000000000000000000000000000000000000008152600401610573906114cd565b60405180910390fd5b6000610587336106a7565b146105c7576040517f08c379a00000000000000000000000000000000000000000000000000000000081526004016105be9061155f565b60405180910390fd5b6105d23360646109ba565b3373ffffffffffffffffffffffffffffffffffffffff167f0f6798a560793a54c3bcfe86a93cde1e73087d944c0ea20544137d412139688560646040516106199190611017565b60405180910390a250565b6000600254905090565b60006040517f08c379a0000000000000000000000000000000000000000000000000000000008152600401610662906115f1565b60405180910390fd5b600090565b60008061067b610b19565b905061069c81858561068d858961089e565b6106979190611640565b610b21565b600191505092915050565b60008060008373ffffffffffffffffffffffffffffffffffffffff1673ffffffffffffffffffffffffffffffffffffffff168152602001908152602001600020549050919050565b6106f7610cea565b6107016000610d68565b565b6000600560009054906101000a900473ffffffffffffffffffffffffffffffffffffffff16905090565b60606004805461073c906111fc565b80601f0160208091040260200160405190810160405280929190818152602001828054610768906111fc565b80156107b55780601f1061078a576101008083540402835291602001916107b5565b820191906000526020600020905b81548152906001019060200180831161079857829003601f168201915b5050505050905090565b606481565b600660009054906101000a900473ffffffffffffffffffffffffffffffffffffffff1681565b6000806107f5610b19565b90506000610803828661089e565b905083811015610848576040517f08c379a000000000000000000000000000000000000000000000000000000000815260040161083f906116e6565b60405180910390fd5b6108558286868403610b21565b60019250505092915050565b60006040517f08c379a000000000000000000000000000000000000000000000000000000000815260040161089590611778565b60405180910390fd5b6000600160008473ffffffffffffffffffffffffffffffffffffffff1673ffffffffffffffffffffffffffffffffffffffff16815260200190815260200160002060008373ffffffffffffffffffffffffffffffffffffffff1673ffffffffffffffffffffffffffffffffffffffff16815260200190815260200160002054905092915050565b61092d610cea565b600073ffffffffffffffffffffffffffffffffffffffff168173ffffffffffffffffffffffffffffffffffffffff160361099c576040517f08c379a00000000000000000000000000000000000000000000000000000000081526004016109939061180a565b60405180910390fd5b6109a581610d68565b50565b60006109b3826106a7565b9050919050565b600073ffffffffffffffffffffffffffffffffffffffff168273ffffffffffffffffffffffffffffffffffffffff1603610a29576040517f08c379a0000000000000000000000000000000000000000000000000000000008152600401610a2090611876565b60405180910390fd5b610a3560008383610e2e565b8060026000828254610a479190611640565b92505081905550806000808473ffffffffffffffffffffffffffffffffffffffff1673ffffffffffffffffffffffffffffffffffffffff1681526020019081526020016000206000828254610a9c9190611640565b925050819055508173ffffffffffffffffffffffffffffffffffffffff16600073ffffffffffffffffffffffffffffffffffffffff167fddf252ad1be2c89b69c2b068fc378daa952ba7f163c4a11628f55a4df523b3ef83604051610b019190611017565b60405180910390a3610b1560008383610e33565b5050565b600033905090565b600073ffffffffffffffffffffffffffffffffffffffff168373ffffffffffffffffffffffffffffffffffffffff1603610b90576040517f08c379a0000000000000000000000000000000000000000000000000000000008152600401610b8790611908565b60405180910390fd5b600073ffffffffffffffffffffffffffffffffffffffff168273ffffffffffffffffffffffffffffffffffffffff1603610bff576040517f08c379a0000000000000000000000000000000000000000000000000000000008152600401610bf69061199a565b60405180910390fd5b80600160008573ffffffffffffffffffffffffffffffffffffffff1673ffffffffffffffffffffffffffffffffffffffff16815260200190815260200160002060008473ffffffffffffffffffffffffffffffffffffffff1673ffffffffffffffffffffffffffffffffffffffff168152602001908152602001600020819055508173ffffffffffffffffffffffffffffffffffffffff168373ffffffffffffffffffffffffffffffffffffffff167f8c5be1e5ebec7d5bd14f71427d1e84f3dd0314c0f7b2291e5b200ac8c7c3b92583604051610cdd9190611017565b60405180910390a3505050565b610cf2610b19565b73ffffffffffffffffffffffffffffffffffffffff16610d10610703565b73ffffffffffffffffffffffffffffffffffffffff1614610d66576040517f08c379a0000000000000000000000000000000000000000000000000000000008152600401610d5d90611a06565b60405180910390fd5b565b6000600560009054906101000a900473ffffffffffffffffffffffffffffffffffffffff16905081600560006101000a81548173ffffffffffffffffffffffffffffffffffffffff021916908373ffffffffffffffffffffffffffffffffffffffff1602179055508173ffffffffffffffffffffffffffffffffffffffff168173ffffffffffffffffffffffffffffffffffffffff167f8be0079c531659141344cd1fd0a4f28419497f9722a3daafe3b4186f6b6457e060405160405180910390a35050565b505050565b505050565b600081519050919050565b600082825260208201905092915050565b60005b83811015610e72578082015181840152602081019050610e57565b60008484015250505050565b6000601f19601f8301169050919050565b6000610e9a82610e38565b610ea48185610e43565b9350610eb4818560208601610e54565b610ebd81610e7e565b840191505092915050565b60006020820190508181036000830152610ee28184610e8f565b905092915050565b6000604051905090565b600080fd5b600080fd5b600073ffffffffffffffffffffffffffffffffffffffff82169050919050565b6000610f2982610efe565b9050919050565b610f3981610f1e565b8114610f4457600080fd5b50565b600081359050610f5681610f30565b92915050565b6000819050919050565b610f6f81610f5c565b8114610f7a57600080fd5b50565b600081359050610f8c81610f66565b92915050565b60008060408385031215610fa957610fa8610ef4565b5b6000610fb785828601610f47565b9250506020610fc885828601610f7d565b9150509250929050565b60008115159050919050565b610fe781610fd2565b82525050565b60006020820190506110026000830184610fde565b92915050565b61101181610f5c565b82525050565b600060208201905061102c6000830184611008565b92915050565b60008060006060848603121561104b5761104a610ef4565b5b600061105986828701610f47565b935050602061106a86828701610f47565b925050604061107b86828701610f7d565b9150509250925092565b600060ff82169050919050565b61109b81611085565b82525050565b60006020820190506110b66000830184611092565b92915050565b6000602082840312156110d2576110d1610ef4565b5b60006110e084828501610f47565b91505092915050565b6110f281610f1e565b82525050565b600060208201905061110d60008301846110e9565b92915050565b6000819050919050565b600061113861113361112e84610efe565b611113565b610efe565b9050919050565b600061114a8261111d565b9050919050565b600061115c8261113f565b9050919050565b61116c81611151565b82525050565b60006020820190506111876000830184611163565b92915050565b600080604083850312156111a4576111a3610ef4565b5b60006111b285828601610f47565b92505060206111c385828601610f47565b9150509250929050565b7f4e487b7100000000000000000000000000000000000000000000000000000000600052602260045260246000fd5b6000600282049050600182168061121457607f821691505b602082108103611227576112266111cd565b5b50919050565b7f417070726f76616c206f6620546f6b656e20616c6c6f77616e6365206973206e60008201527f6f7420616c6c6f77656400000000000000000000000000000000000000000000602082015250565b6000611289602a83610e43565b91506112948261122d565b604082019050919050565b600060208201905081810360008301526112b88161127c565b9050919050565b600080fd5b600080fd5b7f4e487b7100000000000000000000000000000000000000000000000000000000600052604160045260246000fd5b61130182610e7e565b810181811067ffffffffffffffff821117156113205761131f6112c9565b5b80604052505050565b6000611333610eea565b905061133f82826112f8565b919050565b600067ffffffffffffffff82111561135f5761135e6112c9565b5b61136882610e7e565b9050602081019050919050565b600061138861138384611344565b611329565b9050828152602081018484840111156113a4576113a36112c4565b5b6113af848285610e54565b509392505050565b600082601f8301126113cc576113cb6112bf565b5b81516113dc848260208601611375565b91505092915050565b6000602082840312156113fb576113fa610ef4565b5b600082015167ffffffffffffffff81111561141957611418610ef9565b5b611425848285016113b7565b91505092915050565b600081905092915050565b600061144482610e38565b61144e818561142e565b935061145e818560208601610e54565b80840191505092915050565b60006114768284611439565b915081905092915050565b7f4e6f7420617574686f72697a656420746f206d696e7420636f696e7300000000600082015250565b60006114b7601c83610e43565b91506114c282611481565b602082019050919050565b600060208201905081810360008301526114e6816114aa565b9050919050565b7f54686973206163636f756e742068617320616c726561647920636c61696d656460008201527f20636f696e732100000000000000000000000000000000000000000000000000602082015250565b6000611549602783610e43565b9150611554826114ed565b604082019050919050565b600060208201905081810360008301526115788161153c565b9050919050565b7f5472616e73666572206f6620546f6b656e73206973206e6f7420616c6c6f776560008201527f6400000000000000000000000000000000000000000000000000000000000000602082015250565b60006115db602183610e43565b91506115e68261157f565b604082019050919050565b6000602082019050818103600083015261160a816115ce565b9050919050565b7f4e487b7100000000000000000000000000000000000000000000000000000000600052601160045260246000fd5b600061164b82610f5c565b915061165683610f5c565b925082820190508082111561166e5761166d611611565b5b92915050565b7f45524332303a2064656372656173656420616c6c6f77616e63652062656c6f7760008201527f207a65726f000000000000000000000000000000000000000000000000000000602082015250565b60006116d0602583610e43565b91506116db82611674565b604082019050919050565b600060208201905081810360008301526116ff816116c3565b9050919050565b7f5472616e73666572206f6620746f6b656e73206973206e6f7420616c6c6f776560008201527f6400000000000000000000000000000000000000000000000000000000000000602082015250565b6000611762602183610e43565b915061176d82611706565b604082019050919050565b6000602082019050818103600083015261179181611755565b9050919050565b7f4f776e61626c653a206e6577206f776e657220697320746865207a65726f206160008201527f6464726573730000000000000000000000000000000000000000000000000000602082015250565b60006117f4602683610e43565b91506117ff82611798565b604082019050919050565b60006020820190508181036000830152611823816117e7565b9050919050565b7f45524332303a206d696e7420746f20746865207a65726f206164647265737300600082015250565b6000611860601f83610e43565b915061186b8261182a565b602082019050919050565b6000602082019050818103600083015261188f81611853565b9050919050565b7f45524332303a20617070726f76652066726f6d20746865207a65726f2061646460008201527f7265737300000000000000000000000000000000000000000000000000000000602082015250565b60006118f2602483610e43565b91506118fd82611896565b604082019050919050565b60006020820190508181036000830152611921816118e5565b9050919050565b7f45524332303a20617070726f766520746f20746865207a65726f20616464726560008201527f7373000000000000000000000000000000000000000000000000000000000000602082015250565b6000611984602283610e43565b915061198f82611928565b604082019050919050565b600060208201905081810360008301526119b381611977565b9050919050565b7f4f776e61626c653a2063616c6c6572206973206e6f7420746865206f776e6572600082015250565b60006119f0602083610e43565b91506119fb826119ba565b602082019050919050565b60006020820190508181036000830152611a1f816119e3565b905091905056fea264697066735822122009d7bbfea6630762a0f51487fb0ee852521c4213d99d012cf096f33f7a8ee54864736f6c63430008140033a2646970667358221220bc4b2901e0b1ec0eb83010b1e7121bb0d06d2a6b38c7bbc0152c4690171e0e3064736f6c63430008140033",
  "linkReferences": {},
  "deployedLinkReferences": {}
}