{"abi":[{"type":"constructor","inputs":[{"name":"_ddToken","type":"address","internalType":"address"},{"name":"_nftMembership","type":"address","internalType":"address"},{"name":"_allowedRoleNames","type":"string[]","internalType":"string[]"},{"name":"_treasuryAddress","type":"address","internalType":"address"},{"name":"_quorumPercentage","type":"uint256","internalType":"uint256"}],"stateMutability":"nonpayable"},{"type":"function","name":"DirectDemocracyToken","inputs":[],"outputs":[{"name":"","type":"address","internalType":"contract IERC20"}],"stateMutability":"view"},{"type":"function","name":"announceWinner","inputs":[{"name":"_proposalId","type":"uint256","internalType":"uint256"}],"outputs":[{"name":"","type":"uint256","internalType":"uint256"},{"name":"","type":"bool","internalType":"bool"}],"stateMutability":"nonpayable"},{"type":"function","name":"createProposal","inputs":[{"name":"_name","type":"string","internalType":"string"},{"name":"_description","type":"string","internalType":"string"},{"name":"_timeInMinutes","type":"uint256","internalType":"uint256"},{"name":"_optionNames","type":"string[]","internalType":"string[]"},{"name":"_transferTriggerOptionIndex","type":"uint256","internalType":"uint256"},{"name":"_transferRecipient","type":"address","internalType":"address payable"},{"name":"_transferAmount","type":"uint256","internalType":"uint256"},{"name":"_transferEnabled","type":"bool","internalType":"bool"},{"name":"_transferToken","type":"address","internalType":"address"},{"name":"_electionEnabled","type":"bool","internalType":"bool"},{"name":"_candidateAddresses","type":"address[]","internalType":"address[]"},{"name":"_candidateNames","type":"string[]","internalType":"string[]"}],"outputs":[],"stateMutability":"nonpayable"},{"type":"function","name":"elections","inputs":[],"outputs":[{"name":"","type":"address","internalType":"contract IElections"}],"stateMutability":"view"},{"type":"function","name":"getOptionVotes","inputs":[{"name":"_proposalId","type":"uint256","internalType":"uint256"},{"name":"_optionIndex","type":"uint256","internalType":"uint256"}],"outputs":[{"name":"votes","type":"uint256","internalType":"uint256"}],"stateMutability":"view"},{"type":"function","name":"getOptionsCount","inputs":[{"name":"_proposalId","type":"uint256","internalType":"uint256"}],"outputs":[{"name":"","type":"uint256","internalType":"uint256"}],"stateMutability":"view"},{"type":"function","name":"getProposal","inputs":[{"name":"_proposalId","type":"uint256","internalType":"uint256"}],"outputs":[{"name":"totalVotes","type":"uint256","internalType":"uint256"},{"name":"timeInMinutes","type":"uint256","internalType":"uint256"},{"name":"creationTimestamp","type":"uint256","internalType":"uint256"},{"name":"transferTriggerOptionIndex","type":"uint256","internalType":"uint256"},{"name":"transferRecipient","type":"address","internalType":"address payable"},{"name":"transferAmount","type":"uint256","internalType":"uint256"},{"name":"transferEnabled","type":"bool","internalType":"bool"},{"name":"transferToken","type":"address","internalType":"address"}],"stateMutability":"view"},{"type":"function","name":"getProposalOptionVotes","inputs":[{"name":"_proposalId","type":"uint256","internalType":"uint256"},{"name":"_optionIndex","type":"uint256","internalType":"uint256"}],"outputs":[{"name":"votes","type":"uint256","internalType":"uint256"}],"stateMutability":"view"},{"type":"function","name":"getProposalsCount","inputs":[],"outputs":[{"name":"","type":"uint256","internalType":"uint256"}],"stateMutability":"view"},{"type":"function","name":"getWinner","inputs":[{"name":"_proposalId","type":"uint256","internalType":"uint256"}],"outputs":[{"name":"","type":"uint256","internalType":"uint256"},{"name":"","type":"bool","internalType":"bool"}],"stateMutability":"view"},{"type":"function","name":"nftMembership","inputs":[],"outputs":[{"name":"","type":"address","internalType":"contract INFTMembership2"}],"stateMutability":"view"},{"type":"function","name":"quorumPercentage","inputs":[],"outputs":[{"name":"","type":"uint256","internalType":"uint256"}],"stateMutability":"view"},{"type":"function","name":"setElectionsContract","inputs":[{"name":"_electionsContract","type":"address","internalType":"address"}],"outputs":[],"stateMutability":"nonpayable"},{"type":"function","name":"treasury","inputs":[],"outputs":[{"name":"","type":"address","internalType":"contract ITreasury"}],"stateMutability":"view"},{"type":"function","name":"vote","inputs":[{"name":"_proposalId","type":"uint256","internalType":"uint256"},{"name":"_voter","type":"address","internalType":"address"},{"name":"_optionIndex","type":"uint256","internalType":"uint256"}],"outputs":[],"stateMutability":"nonpayable"},{"type":"event","name":"ElectionContractSet","inputs":[{"name":"electionContract","type":"address","indexed":true,"internalType":"address"}],"anonymous":false},{"type":"event","name":"NewProposal","inputs":[{"name":"proposalId","type":"uint256","indexed":true,"internalType":"uint256"},{"name":"name","type":"string","indexed":false,"internalType":"string"},{"name":"description","type":"string","indexed":false,"internalType":"string"},{"name":"timeInMinutes","type":"uint256","indexed":false,"internalType":"uint256"},{"name":"creationTimestamp","type":"uint256","indexed":false,"internalType":"uint256"},{"name":"transferTriggerOptionIndex","type":"uint256","indexed":false,"internalType":"uint256"},{"name":"transferRecipient","type":"address","indexed":false,"internalType":"address"},{"name":"transferAmount","type":"uint256","indexed":false,"internalType":"uint256"},{"name":"transferEnabled","type":"bool","indexed":false,"internalType":"bool"},{"name":"transferToken","type":"address","indexed":false,"internalType":"address"},{"name":"electionEnabled","type":"bool","indexed":false,"internalType":"bool"}],"anonymous":false},{"type":"event","name":"PollOptionNames","inputs":[{"name":"proposalId","type":"uint256","indexed":true,"internalType":"uint256"},{"name":"optionIndex","type":"uint256","indexed":true,"internalType":"uint256"},{"name":"name","type":"string","indexed":false,"internalType":"string"}],"anonymous":false},{"type":"event","name":"Voted","inputs":[{"name":"proposalId","type":"uint256","indexed":true,"internalType":"uint256"},{"name":"voter","type":"address","indexed":true,"internalType":"address"},{"name":"optionIndex","type":"uint256","indexed":false,"internalType":"uint256"}],"anonymous":false},{"type":"event","name":"WinnerAnnounced","inputs":[{"name":"proposalId","type":"uint256","indexed":true,"internalType":"uint256"},{"name":"winningOptionIndex","type":"uint256","indexed":false,"internalType":"uint256"},{"name":"hasValidWinner","type":"bool","indexed":false,"internalType":"bool"}],"anonymous":false}],"bytecode":{"object":"0x6080604052346101c45761154380380380610019816101df565b92833981019060a0818303126101c45761003281610204565b61003e60208301610204565b60408301519091906001600160401b0381116101c45783019380601f860112156101c4578451946001600160401b0386116101c9578560051b916020806100868186016101df565b809981520193830101918183116101c45760208101935b83851061015057505050505060806100b760608501610204565b930151600455600080546001600160a01b03199081166001600160a01b039384161782556001805482169484169490941790935560028054909316919093161790555b8151811015610141576001906101276020808360051b860101518160405193828580945193849201610218565b810160068152030190208260ff19825416179055016100fa565b604051611307908161023c8239f35b84516001600160401b0381116101c45782019083603f830112156101c4576020820151906001600160401b0382116101c957610195601f8301601f19166020016101df565b82815260408484010186106101c4576101b960209493859460408685019101610218565b81520194019361009d565b600080fd5b634e487b7160e01b600052604160045260246000fd5b6040519190601f01601f191682016001600160401b038111838210176101c957604052565b51906001600160a01b03821682036101c457565b60005b83811061022b5750506000910152565b818101518382015260200161021b56fe6080604052600436101561001257600080fd5b6000803560e01c806308ef909d14610f565780633a6e157b14610c295780634129b2c914610bfa578063428932c31461055d5780634de8737c146102f25780634fa76ec9146102d4578063517a6257146102a157806361d027b31461027857806386a01aac1461024f578063911b0d00146101eb57806398e527d3146101cd578063a2b2b4d4146101a4578063a44a3d721461017d578063c7f758a8146100e65763e7ea088f146100c257600080fd5b346100e35760206100db6100d536610f66565b90611142565b604051908152f35b80fd5b50346100e35760203660031901126100e35761010061011360043561010e60055482106110b3565b6110f5565b508054906002810154906003810154600582015460018060a01b03600684015416916008600785015494015494604051968752602087015260408601526060850152608084015260a083015260ff8116151560c083015260018060a01b039060081c1660e0820152f35b50346100e357806003193601126100e357546040516001600160a01b039091168152602090f35b50346100e357806003193601126100e3576001546040516001600160a01b039091168152602090f35b50346100e357806003193601126100e3576020600554604051908152f35b50346100e35760203660031901126100e3576004356001600160a01b0381169081900361024b57600380546001600160a01b031916821790557ffbf4e156ee63f693ce2748f9765fef54d81fad5a5a1a2b00cee3beeeff8f10da8280a280f35b5080fd5b50346100e357806003193601126100e3576003546040516001600160a01b039091168152602090f35b50346100e357806003193601126100e3576002546040516001600160a01b039091168152602090f35b50346100e35760203660031901126100e357602060046102c9813561010e60055482106110b3565b500154604051908152f35b50346100e357806003193601126100e3576020600454604051908152f35b50346100e35760603660031901126100e3576024356001600160a01b038116906004359082900361055957604435600554821061032e816110b3565b610337836110f5565b506002600382015491015490603c820291808304603c14901517156105455790610360916111ab565b421161050a5784546040516370a0823160e01b81526004810186905290602090829060249082906001600160a01b03165afa9081156104ff5786916104c9575b501561048e576103af906110b3565b6103b8826110f5565b5060018101846000528060205260ff6040600020541661045957846000526020526040600020600160ff1982541617905580546001810180911161044557600482849261040694550161112a565b508054906001820180921161044557556040519081527f1abe610cf2bf87e57dcc1181fcf5ac0934e843d8344ab9eed6e86c799f62585e90602090a380f35b634e487b7160e01b86526011600452602486fd5b60405162461bcd60e51b815260206004820152600d60248201526c105b1c9958591e481d9bdd1959609a1b6044820152606490fd5b60405162461bcd60e51b81526020600482015260136024820152724e6f2064656d6f637261637920746f6b656e7360681b6044820152606490fd5b90506020813d6020116104f7575b816104e460209383610f81565b810103126104f35751386103a0565b8580fd5b3d91506104d7565b6040513d88823e3d90fd5b60405162461bcd60e51b8152602060048201526013602482015272159bdd1a5b99c81d1a5b5948195e1c1a5c9959606a1b6044820152606490fd5b634e487b7160e01b87526011600452602487fd5b8280fd5b50346100e3576101803660031901126100e35760043567ffffffffffffffff811161024b57610590903690600401610fd5565b60243567ffffffffffffffff8111610559576105b0903690600401610fd5565b9160643567ffffffffffffffff811161024b576105d1903690600401611034565b60a435929091906084356001600160a01b03851685036105595760c43560e435918215158303610bf65761010435936001600160a01b03851685036104f35761012435948515158603610bf257610144359467ffffffffffffffff8611610bee5736602387011215610bee57856004013561064b8161101c565b966106596040519889610f81565b8188526024602089019260051b82010190368211610bbb57602401915b818310610bce575050506101643567ffffffffffffffff8111610bca576106a1903690600401611034565b600154604051630eef043160e31b8152336004820152919691908a90829060249082906001600160a01b03165afa908115610bbf578a91610b33575b506106f9602060ff928160405193828580945193849201611275565b81016006815203019020541615610ae4578651865103610a9357600554600160401b811015610a7f5780600161073292016005556110f5565b50898155604435600282015542600382015560058082018790556006820180546001600160a01b0319166001600160a01b038f1617905560078201839055600880830180546001600160b01b03191686151560ff16179187901b610100600160a81b0316919091178b151560a81b60ff60a81b16179055549c909b906000198e018e10610a6b579061080b7f535bed2f6129cfdcfc5b297c2bab35632538db964342504639435c646437f25e96959493926107fd9b9e9b604051976101408952610140890190611298565b908782036020890152611298565b604435604087015242606087015260808601979097526001600160a01b0390811660a086015260c085019190915290151560e0840152166101008201528815156101208201526000198a019281900390a26004849301925b8551811015610932576040516020810181811067ffffffffffffffff82111761091e576040528581528454600160401b81101561091e578060016108aa920187558661112a565b91909161090a57519055600190806108c281896112bd565b517fd3b5cef521b08344b2f3822456355f6c2603e7f00a271d0215ac4760a401fc486109018c6040519182916020835260001901946020830190611298565b0390a301610863565b634e487b7160e01b87526004879052602487fd5b634e487b7160e01b87526041600452602487fd5b84838982858b610940575080f35b6003546040805163c912869d60e01b815260001986016004820152918290602490829087906001600160a01b03165af18015610a6057610a35575b50815b8451811015610a2a576003546001600160a01b03908116906109a083886112bd565b51166109ac83856112bd565b51823b156104f3576109ee9286928360405180968195829463e1f8792b60e01b84528d6000190160048501526024840152606060448401526064830190611298565b03925af1908115610a1f578491610a0a575b505060010161097e565b81610a1491610f81565b610559578287610a00565b6040513d86823e3d90fd5b505050505081808280f35b604090813d8311610a59575b610a4b8183610f81565b8101031261024b578561097b565b503d610a41565b6040513d85823e3d90fd5b634e487b7160e01b8b52601160045260248bfd5b634e487b7160e01b8a52604160045260248afd5b60405162461bcd60e51b8152602060048201526024808201527f43616e6469646174657320616e64206e616d6573206c656e677468206d69736d6044820152630c2e8c6d60e31b6064820152608490fd5b60405162461bcd60e51b815260206004820152602160248201527f4e6f7420617574686f72697a656420746f206372656174652070726f706f73616044820152601b60fa1b6064820152608490fd5b90503d808b833e610b448183610f81565b810190602081830312610bbb5780519067ffffffffffffffff8211610bb7570181601f82011215610bbb57805190610b7b82610fb9565b92610b896040519485610f81565b82845260208383010111610bb75782610baf6106f993602093848060ff98019101611275565b9250506106dd565b8b80fd5b8a80fd5b6040513d8c823e3d90fd5b8880fd5b82356001600160a01b0381168103610bb757815260209283019201610676565b8780fd5b8680fd5b8480fd5b50346100e35760203660031901126100e357610c176004356111ce565b60408051928352901515602083015290f35b50346100e35760203660031901126100e357600435906005548210610c4d816110b3565b610c56836110f5565b506002600382015491015490603c820291808304603c1490151715610f425790610c7f916111ab565b421115610efd57610c8f906110b3565b610c98826111ce565b9290918380610ee6575b80610ed0575b610d80575b60ff6008610cba846110f5565b50015460a81c1680610d79575b610d11575b506040805183815284151560208201527f80fa758d7c24e927ad76726080b3e8e8ec336147a2e7f4edde3e19d9c94e7c369190a2604080519182529115156020820152f35b6003546001600160a01b0316803b1561024b5781809160446040518094819363ce39673760e01b83528860048401528960248401525af18015610d6e57610d59575b50610ccc565b610d64828092610f81565b6100e35780610d53565b6040513d84823e3d90fd5b5083610cc7565b611010610d8c836110f5565b50600890810154901c6001600160a01b031603610e2e576002546001600160a01b0316610db8836110f5565b50600601546001600160a01b03166007610dd1856110f5565b50015490823b15610e2a57906044849283604051958694859363522f681560e01b8552600485015260248401525af18015610d6e57908291610e15575b5050610cad565b81610e1f91610f81565b6100e3578038610e0e565b8380fd5b6002546001600160a01b0316610e43836110f5565b50600890810154901c6001600160a01b0316610e5e846110f5565b50600601546001600160a01b0316906007610e78866110f5565b50015492803b15610bf657849291836064926040519687958694631cdacd5960e31b86526004860152602485015260448401525af18015610d6e578290610ec0575050610cad565b610ec991610f81565b3881610e0e565b506005610edc836110f5565b5001548314610ca8565b5060ff6008610ef4846110f5565b50015416610ca2565b60405162461bcd60e51b815260206004820152601860248201527f566f74696e67206973206e6f742079657420636c6f73656400000000000000006044820152606490fd5b634e487b7160e01b84526011600452602484fd5b50346100e35760206100db6100d5365b6040906003190112610f7c576004359060243590565b600080fd5b90601f8019910116810190811067ffffffffffffffff821117610fa357604052565b634e487b7160e01b600052604160045260246000fd5b67ffffffffffffffff8111610fa357601f01601f191660200190565b81601f82011215610f7c57803590610fec82610fb9565b92610ffa6040519485610f81565b82845260208383010111610f7c57816000926020809301838601378301015290565b67ffffffffffffffff8111610fa35760051b60200190565b9080601f83011215610f7c57813561104b8161101c565b926110596040519485610f81565b81845260208085019260051b82010191838311610f7c5760208201905b83821061108557505050505090565b813567ffffffffffffffff8111610f7c576020916110a887848094880101610fd5565b815201910190611076565b156110ba57565b60405162461bcd60e51b8152602060048201526013602482015272125b9d985b1a59081c1c9bdc1bdcd85b081251606a1b6044820152606490fd5b6005548110156111145760056000526009602060002091020190600090565b634e487b7160e01b600052603260045260246000fd5b80548210156111145760005260206000200190600090565b61115560049161010e60055482106110b3565b500190815481101561116f5761116a9161112a565b505490565b60405162461bcd60e51b8152602060048201526014602482015273092dcecc2d8d2c840dee0e8d2dedc40d2dcc8caf60631b6044820152606490fd5b919082018092116111b857565b634e487b7160e01b600052601160045260246000fd5b6111df9061010e60055482106110b3565b5090600080809380549160045492838102938185041490151715611261576004819201908154925b8381106112175750505050509190565b81611222828561112a565b505411611232575b600101611207565b9650509250611241858461112a565b505492859360648102818104606414821517156111b8578411159661122a565b634e487b7160e01b81526011600452602490fd5b60005b8381106112885750506000910152565b8181015183820152602001611278565b906020916112b181518092818552858086019101611275565b601f01601f1916010190565b80518210156111145760209160051b01019056fea2646970667358221220088dfdce66d8747cf24c515f9a23f3dcf4ddaf55ccc38d46e18c6852b13ddae264736f6c634300081a0033","linkReferences":{}},"methodIdentifiers":{"DirectDemocracyToken()":"a44a3d72","announceWinner(uint256)":"3a6e157b","createProposal(string,string,uint256,string[],uint256,address,uint256,bool,address,bool,address[],string[])":"428932c3","elections()":"86a01aac","getOptionVotes(uint256,uint256)":"e7ea088f","getOptionsCount(uint256)":"517a6257","getProposal(uint256)":"c7f758a8","getProposalOptionVotes(uint256,uint256)":"08ef909d","getProposalsCount()":"98e527d3","getWinner(uint256)":"4129b2c9","nftMembership()":"a2b2b4d4","quorumPercentage()":"4fa76ec9","setElectionsContract(address)":"911b0d00","treasury()":"61d027b3","vote(uint256,address,uint256)":"4de8737c"},"id":44}