{
  "_format": "hh-sol-artifact-1",
  "contractName": "DirectDemocracyToken",
  "sourceName": "contracts/DirectDemocracyToken.sol",
  "abi": [
    {
      "inputs": [
        {
          "internalType": "string",
          "name": "name",
          "type": "string"
        },
        {
          "internalType": "string",
          "name": "symbol",
          "type": "string"
        },
        {
          "internalType": "address",
          "name": "_nftMembership",
          "type": "address"
        },
        {
          "internalType": "string[]",
          "name": "_allowedRoleNames",
          "type": "string[]"
        }
      ],
      "stateMutability": "nonpayable",
      "type": "constructor"
    },
    {
      "anonymous": false,
      "inputs": [
        {
          "indexed": true,
          "internalType": "address",
          "name": "owner",
          "type": "address"
        },
        {
          "indexed": true,
          "internalType": "address",
          "name": "spender",
          "type": "address"
        },
        {
          "indexed": false,
          "internalType": "uint256",
          "name": "value",
          "type": "uint256"
        }
      ],
      "name": "Approval",
      "type": "event"
    },
    {
      "anonymous": false,
      "inputs": [
        {
          "indexed": true,
          "internalType": "address",
          "name": "to",
          "type": "address"
        },
        {
          "indexed": false,
          "internalType": "uint256",
          "name": "amount",
          "type": "uint256"
        }
      ],
      "name": "Mint",
      "type": "event"
    },
    {
      "anonymous": false,
      "inputs": [
        {
          "indexed": true,
          "internalType": "address",
          "name": "previousOwner",
          "type": "address"
        },
        {
          "indexed": true,
          "internalType": "address",
          "name": "newOwner",
          "type": "address"
        }
      ],
      "name": "OwnershipTransferred",
      "type": "event"
    },
    {
      "anonymous": false,
      "inputs": [
        {
          "indexed": true,
          "internalType": "address",
          "name": "from",
          "type": "address"
        },
        {
          "indexed": true,
          "internalType": "address",
          "name": "to",
          "type": "address"
        },
        {
          "indexed": false,
          "internalType": "uint256",
          "name": "value",
          "type": "uint256"
        }
      ],
      "name": "Transfer",
      "type": "event"
    },
    {
      "inputs": [
        {
          "internalType": "address",
          "name": "owner",
          "type": "address"
        },
        {
          "internalType": "address",
          "name": "spender",
          "type": "address"
        }
      ],
      "name": "allowance",
      "outputs": [
        {
          "internalType": "uint256",
          "name": "",
          "type": "uint256"
        }
      ],
      "stateMutability": "view",
      "type": "function"
    },
    {
      "inputs": [
        {
          "internalType": "address",
          "name": "",
          "type": "address"
        },
        {
          "internalType": "uint256",
          "name": "",
          "type": "uint256"
        }
      ],
      "name": "approve",
      "outputs": [
        {
          "internalType": "bool",
          "name": "",
          "type": "bool"
        }
      ],
      "stateMutability": "nonpayable",
      "type": "function"
    },
    {
      "inputs": [
        {
          "internalType": "address",
          "name": "account",
          "type": "address"
        }
      ],
      "name": "balanceOf",
      "outputs": [
        {
          "internalType": "uint256",
          "name": "",
          "type": "uint256"
        }
      ],
      "stateMutability": "view",
      "type": "function"
    },
    {
      "inputs": [],
      "name": "decimals",
      "outputs": [
        {
          "internalType": "uint8",
          "name": "",
          "type": "uint8"
        }
      ],
      "stateMutability": "view",
      "type": "function"
    },
    {
      "inputs": [
        {
          "internalType": "address",
          "name": "spender",
          "type": "address"
        },
        {
          "internalType": "uint256",
          "name": "subtractedValue",
          "type": "uint256"
        }
      ],
      "name": "decreaseAllowance",
      "outputs": [
        {
          "internalType": "bool",
          "name": "",
          "type": "bool"
        }
      ],
      "stateMutability": "nonpayable",
      "type": "function"
    },
    {
      "inputs": [
        {
          "internalType": "address",
          "name": "_address",
          "type": "address"
        }
      ],
      "name": "getBalance",
      "outputs": [
        {
          "internalType": "uint256",
          "name": "",
          "type": "uint256"
        }
      ],
      "stateMutability": "view",
      "type": "function"
    },
    {
      "inputs": [
        {
          "internalType": "address",
          "name": "spender",
          "type": "address"
        },
        {
          "internalType": "uint256",
          "name": "addedValue",
          "type": "uint256"
        }
      ],
      "name": "increaseAllowance",
      "outputs": [
        {
          "internalType": "bool",
          "name": "",
          "type": "bool"
        }
      ],
      "stateMutability": "nonpayable",
      "type": "function"
    },
    {
      "inputs": [],
      "name": "maxSupplyPerPerson",
      "outputs": [
        {
          "internalType": "uint256",
          "name": "",
          "type": "uint256"
        }
      ],
      "stateMutability": "view",
      "type": "function"
    },
    {
      "inputs": [
        {
          "internalType": "address",
          "name": "_to",
          "type": "address"
        }
      ],
      "name": "mint",
      "outputs": [],
      "stateMutability": "nonpayable",
      "type": "function"
    },
    {
      "inputs": [],
      "name": "name",
      "outputs": [
        {
          "internalType": "string",
          "name": "",
          "type": "string"
        }
      ],
      "stateMutability": "view",
      "type": "function"
    },
    {
      "inputs": [],
      "name": "nftMembership",
      "outputs": [
        {
          "internalType": "contract INFTMembership",
          "name": "",
          "type": "address"
        }
      ],
      "stateMutability": "view",
      "type": "function"
    },
    {
      "inputs": [],
      "name": "owner",
      "outputs": [
        {
          "internalType": "address",
          "name": "",
          "type": "address"
        }
      ],
      "stateMutability": "view",
      "type": "function"
    },
    {
      "inputs": [],
      "name": "renounceOwnership",
      "outputs": [],
      "stateMutability": "nonpayable",
      "type": "function"
    },
    {
      "inputs": [],
      "name": "symbol",
      "outputs": [
        {
          "internalType": "string",
          "name": "",
          "type": "string"
        }
      ],
      "stateMutability": "view",
      "type": "function"
    },
    {
      "inputs": [],
      "name": "totalSupply",
      "outputs": [
        {
          "internalType": "uint256",
          "name": "",
          "type": "uint256"
        }
      ],
      "stateMutability": "view",
      "type": "function"
    },
    {
      "inputs": [
        {
          "internalType": "address",
          "name": "",
          "type": "address"
        },
        {
          "internalType": "uint256",
          "name": "",
          "type": "uint256"
        }
      ],
      "name": "transfer",
      "outputs": [
        {
          "internalType": "bool",
          "name": "",
          "type": "bool"
        }
      ],
      "stateMutability": "nonpayable",
      "type": "function"
    },
    {
      "inputs": [
        {
          "internalType": "address",
          "name": "",
          "type": "address"
        },
        {
          "internalType": "address",
          "name": "",
          "type": "address"
        },
        {
          "internalType": "uint256",
          "name": "",
          "type": "uint256"
        }
      ],
      "name": "transferFrom",
      "outputs": [
        {
          "internalType": "bool",
          "name": "",
          "type": "bool"
        }
      ],
      "stateMutability": "nonpayable",
      "type": "function"
    },
    {
      "inputs": [
        {
          "internalType": "address",
          "name": "newOwner",
          "type": "address"
        }
      ],
      "name": "transferOwnership",
      "outputs": [],
      "stateMutability": "nonpayable",
      "type": "function"
    }
  ],
  "bytecode": "0x60806040523480156200001157600080fd5b506040516200248c3803806200248c833981810160405281019062000037919062000506565b838381600390816200004a919062000820565b5080600490816200005c919062000820565b5050506200007f620000736200014460201b60201c565b6200014c60201b60201c565b81600660006101000a81548173ffffffffffffffffffffffffffffffffffffffff021916908373ffffffffffffffffffffffffffffffffffffffff16021790555060005b8151811015620001395760016007838381518110620000e757620000e662000907565b5b6020026020010151604051620000fe919062000978565b908152602001604051809103902060006101000a81548160ff02191690831515021790555080806200013090620009c0565b915050620000c3565b505050505062000a0d565b600033905090565b6000600560009054906101000a900473ffffffffffffffffffffffffffffffffffffffff16905081600560006101000a81548173ffffffffffffffffffffffffffffffffffffffff021916908373ffffffffffffffffffffffffffffffffffffffff1602179055508173ffffffffffffffffffffffffffffffffffffffff168173ffffffffffffffffffffffffffffffffffffffff167f8be0079c531659141344cd1fd0a4f28419497f9722a3daafe3b4186f6b6457e060405160405180910390a35050565b6000604051905090565b600080fd5b600080fd5b600080fd5b600080fd5b6000601f19601f8301169050919050565b7f4e487b7100000000000000000000000000000000000000000000000000000000600052604160045260246000fd5b6200027b8262000230565b810181811067ffffffffffffffff821117156200029d576200029c62000241565b5b80604052505050565b6000620002b262000212565b9050620002c0828262000270565b919050565b600067ffffffffffffffff821115620002e357620002e262000241565b5b620002ee8262000230565b9050602081019050919050565b60005b838110156200031b578082015181840152602081019050620002fe565b60008484015250505050565b60006200033e6200033884620002c5565b620002a6565b9050828152602081018484840111156200035d576200035c6200022b565b5b6200036a848285620002fb565b509392505050565b600082601f8301126200038a576200038962000226565b5b81516200039c84826020860162000327565b91505092915050565b600073ffffffffffffffffffffffffffffffffffffffff82169050919050565b6000620003d282620003a5565b9050919050565b620003e481620003c5565b8114620003f057600080fd5b50565b6000815190506200040481620003d9565b92915050565b600067ffffffffffffffff82111562000428576200042762000241565b5b602082029050602081019050919050565b600080fd5b6000620004556200044f846200040a565b620002a6565b905080838252602082019050602084028301858111156200047b576200047a62000439565b5b835b81811015620004c957805167ffffffffffffffff811115620004a457620004a362000226565b5b808601620004b3898262000372565b855260208501945050506020810190506200047d565b5050509392505050565b600082601f830112620004eb57620004ea62000226565b5b8151620004fd8482602086016200043e565b91505092915050565b600080600080608085870312156200052357620005226200021c565b5b600085015167ffffffffffffffff81111562000544576200054362000221565b5b620005528782880162000372565b945050602085015167ffffffffffffffff81111562000576576200057562000221565b5b620005848782880162000372565b93505060406200059787828801620003f3565b925050606085015167ffffffffffffffff811115620005bb57620005ba62000221565b5b620005c987828801620004d3565b91505092959194509250565b600081519050919050565b7f4e487b7100000000000000000000000000000000000000000000000000000000600052602260045260246000fd5b600060028204905060018216806200062857607f821691505b6020821081036200063e576200063d620005e0565b5b50919050565b60008190508160005260206000209050919050565b60006020601f8301049050919050565b600082821b905092915050565b600060088302620006a87fffffffffffffffffffffffffffffffffffffffffffffffffffffffffffffffff8262000669565b620006b4868362000669565b95508019841693508086168417925050509392505050565b6000819050919050565b6000819050919050565b600062000701620006fb620006f584620006cc565b620006d6565b620006cc565b9050919050565b6000819050919050565b6200071d83620006e0565b620007356200072c8262000708565b84845462000676565b825550505050565b600090565b6200074c6200073d565b6200075981848462000712565b505050565b5b8181101562000781576200077560008262000742565b6001810190506200075f565b5050565b601f821115620007d0576200079a8162000644565b620007a58462000659565b81016020851015620007b5578190505b620007cd620007c48562000659565b8301826200075e565b50505b505050565b600082821c905092915050565b6000620007f560001984600802620007d5565b1980831691505092915050565b6000620008108383620007e2565b9150826002028217905092915050565b6200082b82620005d5565b67ffffffffffffffff81111562000847576200084662000241565b5b6200085382546200060f565b6200086082828562000785565b600060209050601f83116001811462000898576000841562000883578287015190505b6200088f858262000802565b865550620008ff565b601f198416620008a88662000644565b60005b82811015620008d257848901518255600182019150602085019450602081019050620008ab565b86831015620008f25784890151620008ee601f891682620007e2565b8355505b6001600288020188555050505b505050505050565b7f4e487b7100000000000000000000000000000000000000000000000000000000600052603260045260246000fd5b600081905092915050565b60006200094e82620005d5565b6200095a818562000936565b93506200096c818560208601620002fb565b80840191505092915050565b600062000986828462000941565b915081905092915050565b7f4e487b7100000000000000000000000000000000000000000000000000000000600052601160045260246000fd5b6000620009cd82620006cc565b91507fffffffffffffffffffffffffffffffffffffffffffffffffffffffffffffffff820362000a025762000a0162000991565b5b600182019050919050565b611a6f8062000a1d6000396000f3fe608060405234801561001057600080fd5b50600436106101165760003560e01c80638da5cb5b116100a2578063a457c2d711610071578063a457c2d7146102d3578063a9059cbb14610303578063dd62ed3e14610333578063f2fde38b14610363578063f8b2cb4f1461037f57610116565b80638da5cb5b1461025b57806395d89b4114610279578063a04b397914610297578063a2b2b4d4146102b557610116565b8063313ce567116100e9578063313ce567146101b757806339509351146101d55780636a6278421461020557806370a0823114610221578063715018a61461025157610116565b806306fdde031461011b578063095ea7b31461013957806318160ddd1461016957806323b872dd14610187575b600080fd5b6101236103af565b6040516101309190610edb565b60405180910390f35b610153600480360381019061014e9190610fa5565b610441565b6040516101609190611000565b60405180910390f35b61017161047e565b60405161017e919061102a565b60405180910390f35b6101a1600480360381019061019c9190611045565b610488565b6040516101ae9190611000565b60405180910390f35b6101bf6104c5565b6040516101cc91906110b4565b60405180910390f35b6101ef60048036038101906101ea9190610fa5565b6104ca565b6040516101fc9190611000565b60405180910390f35b61021f600480360381019061021a91906110cf565b610501565b005b61023b600480360381019061023691906110cf565b6106ba565b604051610248919061102a565b60405180910390f35b610259610702565b005b610263610716565b604051610270919061110b565b60405180910390f35b610281610740565b60405161028e9190610edb565b60405180910390f35b61029f6107d2565b6040516102ac919061102a565b60405180910390f35b6102bd6107d7565b6040516102ca9190611185565b60405180910390f35b6102ed60048036038101906102e89190610fa5565b6107fd565b6040516102fa9190611000565b60405180910390f35b61031d60048036038101906103189190610fa5565b610874565b60405161032a9190611000565b60405180910390f35b61034d600480360381019061034891906111a0565b6108b1565b60405161035a919061102a565b60405180910390f35b61037d600480360381019061037891906110cf565b610938565b005b610399600480360381019061039491906110cf565b6109bb565b6040516103a6919061102a565b60405180910390f35b6060600380546103be9061120f565b80601f01602080910402602001604051908101604052809291908181526020018280546103ea9061120f565b80156104375780601f1061040c57610100808354040283529160200191610437565b820191906000526020600020905b81548152906001019060200180831161041a57829003601f168201915b5050505050905090565b60006040517f08c379a0000000000000000000000000000000000000000000000000000000008152600401610475906112b2565b60405180910390fd5b6000600254905090565b60006040517f08c379a00000000000000000000000000000000000000000000000000000000081526004016104bc90611344565b60405180910390fd5b600090565b6000806104d56109cd565b90506104f68185856104e785896108b1565b6104f19190611393565b6109d5565b600191505092915050565b6000600660009054906101000a900473ffffffffffffffffffffffffffffffffffffffff1673ffffffffffffffffffffffffffffffffffffffff166377782188336040518263ffffffff1660e01b815260040161055e919061110b565b600060405180830381865afa15801561057b573d6000803e3d6000fd5b505050506040513d6000823e3d601f19601f820116820180604052508101906105a491906114ed565b90506007816040516105b69190611572565b908152602001604051809103902060009054906101000a900460ff16610611576040517f08c379a0000000000000000000000000000000000000000000000000000000008152600401610608906115d5565b60405180910390fd5b600061061c836106ba565b1461065c576040517f08c379a000000000000000000000000000000000000000000000000000000000815260040161065390611667565b60405180910390fd5b610667826064610b9e565b8173ffffffffffffffffffffffffffffffffffffffff167f0f6798a560793a54c3bcfe86a93cde1e73087d944c0ea20544137d412139688560646040516106ae919061102a565b60405180910390a25050565b60008060008373ffffffffffffffffffffffffffffffffffffffff1673ffffffffffffffffffffffffffffffffffffffff168152602001908152602001600020549050919050565b61070a610cfd565b6107146000610d7b565b565b6000600560009054906101000a900473ffffffffffffffffffffffffffffffffffffffff16905090565b60606004805461074f9061120f565b80601f016020809104026020016040519081016040528092919081815260200182805461077b9061120f565b80156107c85780601f1061079d576101008083540402835291602001916107c8565b820191906000526020600020905b8154815290600101906020018083116107ab57829003601f168201915b5050505050905090565b606481565b600660009054906101000a900473ffffffffffffffffffffffffffffffffffffffff1681565b6000806108086109cd565b9050600061081682866108b1565b90508381101561085b576040517f08c379a0000000000000000000000000000000000000000000000000000000008152600401610852906116f9565b60405180910390fd5b61086882868684036109d5565b60019250505092915050565b60006040517f08c379a00000000000000000000000000000000000000000000000000000000081526004016108a89061178b565b60405180910390fd5b6000600160008473ffffffffffffffffffffffffffffffffffffffff1673ffffffffffffffffffffffffffffffffffffffff16815260200190815260200160002060008373ffffffffffffffffffffffffffffffffffffffff1673ffffffffffffffffffffffffffffffffffffffff16815260200190815260200160002054905092915050565b610940610cfd565b600073ffffffffffffffffffffffffffffffffffffffff168173ffffffffffffffffffffffffffffffffffffffff16036109af576040517f08c379a00000000000000000000000000000000000000000000000000000000081526004016109a69061181d565b60405180910390fd5b6109b881610d7b565b50565b60006109c6826106ba565b9050919050565b600033905090565b600073ffffffffffffffffffffffffffffffffffffffff168373ffffffffffffffffffffffffffffffffffffffff1603610a44576040517f08c379a0000000000000000000000000000000000000000000000000000000008152600401610a3b906118af565b60405180910390fd5b600073ffffffffffffffffffffffffffffffffffffffff168273ffffffffffffffffffffffffffffffffffffffff1603610ab3576040517f08c379a0000000000000000000000000000000000000000000000000000000008152600401610aaa90611941565b60405180910390fd5b80600160008573ffffffffffffffffffffffffffffffffffffffff1673ffffffffffffffffffffffffffffffffffffffff16815260200190815260200160002060008473ffffffffffffffffffffffffffffffffffffffff1673ffffffffffffffffffffffffffffffffffffffff168152602001908152602001600020819055508173ffffffffffffffffffffffffffffffffffffffff168373ffffffffffffffffffffffffffffffffffffffff167f8c5be1e5ebec7d5bd14f71427d1e84f3dd0314c0f7b2291e5b200ac8c7c3b92583604051610b91919061102a565b60405180910390a3505050565b600073ffffffffffffffffffffffffffffffffffffffff168273ffffffffffffffffffffffffffffffffffffffff1603610c0d576040517f08c379a0000000000000000000000000000000000000000000000000000000008152600401610c04906119ad565b60405180910390fd5b610c1960008383610e41565b8060026000828254610c2b9190611393565b92505081905550806000808473ffffffffffffffffffffffffffffffffffffffff1673ffffffffffffffffffffffffffffffffffffffff1681526020019081526020016000206000828254610c809190611393565b925050819055508173ffffffffffffffffffffffffffffffffffffffff16600073ffffffffffffffffffffffffffffffffffffffff167fddf252ad1be2c89b69c2b068fc378daa952ba7f163c4a11628f55a4df523b3ef83604051610ce5919061102a565b60405180910390a3610cf960008383610e46565b5050565b610d056109cd565b73ffffffffffffffffffffffffffffffffffffffff16610d23610716565b73ffffffffffffffffffffffffffffffffffffffff1614610d79576040517f08c379a0000000000000000000000000000000000000000000000000000000008152600401610d7090611a19565b60405180910390fd5b565b6000600560009054906101000a900473ffffffffffffffffffffffffffffffffffffffff16905081600560006101000a81548173ffffffffffffffffffffffffffffffffffffffff021916908373ffffffffffffffffffffffffffffffffffffffff1602179055508173ffffffffffffffffffffffffffffffffffffffff168173ffffffffffffffffffffffffffffffffffffffff167f8be0079c531659141344cd1fd0a4f28419497f9722a3daafe3b4186f6b6457e060405160405180910390a35050565b505050565b505050565b600081519050919050565b600082825260208201905092915050565b60005b83811015610e85578082015181840152602081019050610e6a565b60008484015250505050565b6000601f19601f8301169050919050565b6000610ead82610e4b565b610eb78185610e56565b9350610ec7818560208601610e67565b610ed081610e91565b840191505092915050565b60006020820190508181036000830152610ef58184610ea2565b905092915050565b6000604051905090565b600080fd5b600080fd5b600073ffffffffffffffffffffffffffffffffffffffff82169050919050565b6000610f3c82610f11565b9050919050565b610f4c81610f31565b8114610f5757600080fd5b50565b600081359050610f6981610f43565b92915050565b6000819050919050565b610f8281610f6f565b8114610f8d57600080fd5b50565b600081359050610f9f81610f79565b92915050565b60008060408385031215610fbc57610fbb610f07565b5b6000610fca85828601610f5a565b9250506020610fdb85828601610f90565b9150509250929050565b60008115159050919050565b610ffa81610fe5565b82525050565b60006020820190506110156000830184610ff1565b92915050565b61102481610f6f565b82525050565b600060208201905061103f600083018461101b565b92915050565b60008060006060848603121561105e5761105d610f07565b5b600061106c86828701610f5a565b935050602061107d86828701610f5a565b925050604061108e86828701610f90565b9150509250925092565b600060ff82169050919050565b6110ae81611098565b82525050565b60006020820190506110c960008301846110a5565b92915050565b6000602082840312156110e5576110e4610f07565b5b60006110f384828501610f5a565b91505092915050565b61110581610f31565b82525050565b600060208201905061112060008301846110fc565b92915050565b6000819050919050565b600061114b61114661114184610f11565b611126565b610f11565b9050919050565b600061115d82611130565b9050919050565b600061116f82611152565b9050919050565b61117f81611164565b82525050565b600060208201905061119a6000830184611176565b92915050565b600080604083850312156111b7576111b6610f07565b5b60006111c585828601610f5a565b92505060206111d685828601610f5a565b9150509250929050565b7f4e487b7100000000000000000000000000000000000000000000000000000000600052602260045260246000fd5b6000600282049050600182168061122757607f821691505b60208210810361123a576112396111e0565b5b50919050565b7f417070726f76616c206f6620546f6b656e20616c6c6f77616e6365206973206e60008201527f6f7420616c6c6f77656400000000000000000000000000000000000000000000602082015250565b600061129c602a83610e56565b91506112a782611240565b604082019050919050565b600060208201905081810360008301526112cb8161128f565b9050919050565b7f5472616e73666572206f6620546f6b656e73206973206e6f7420616c6c6f776560008201527f6400000000000000000000000000000000000000000000000000000000000000602082015250565b600061132e602183610e56565b9150611339826112d2565b604082019050919050565b6000602082019050818103600083015261135d81611321565b9050919050565b7f4e487b7100000000000000000000000000000000000000000000000000000000600052601160045260246000fd5b600061139e82610f6f565b91506113a983610f6f565b92508282019050808211156113c1576113c0611364565b5b92915050565b600080fd5b600080fd5b7f4e487b7100000000000000000000000000000000000000000000000000000000600052604160045260246000fd5b61140982610e91565b810181811067ffffffffffffffff82111715611428576114276113d1565b5b80604052505050565b600061143b610efd565b90506114478282611400565b919050565b600067ffffffffffffffff821115611467576114666113d1565b5b61147082610e91565b9050602081019050919050565b600061149061148b8461144c565b611431565b9050828152602081018484840111156114ac576114ab6113cc565b5b6114b7848285610e67565b509392505050565b600082601f8301126114d4576114d36113c7565b5b81516114e484826020860161147d565b91505092915050565b60006020828403121561150357611502610f07565b5b600082015167ffffffffffffffff81111561152157611520610f0c565b5b61152d848285016114bf565b91505092915050565b600081905092915050565b600061154c82610e4b565b6115568185611536565b9350611566818560208601610e67565b80840191505092915050565b600061157e8284611541565b915081905092915050565b7f4e6f7420617574686f72697a656420746f206d696e7420636f696e7300000000600082015250565b60006115bf601c83610e56565b91506115ca82611589565b602082019050919050565b600060208201905081810360008301526115ee816115b2565b9050919050565b7f54686973206163636f756e742068617320616c726561647920636c61696d656460008201527f20636f696e732100000000000000000000000000000000000000000000000000602082015250565b6000611651602783610e56565b915061165c826115f5565b604082019050919050565b6000602082019050818103600083015261168081611644565b9050919050565b7f45524332303a2064656372656173656420616c6c6f77616e63652062656c6f7760008201527f207a65726f000000000000000000000000000000000000000000000000000000602082015250565b60006116e3602583610e56565b91506116ee82611687565b604082019050919050565b60006020820190508181036000830152611712816116d6565b9050919050565b7f5472616e73666572206f6620746f6b656e73206973206e6f7420616c6c6f776560008201527f6400000000000000000000000000000000000000000000000000000000000000602082015250565b6000611775602183610e56565b915061178082611719565b604082019050919050565b600060208201905081810360008301526117a481611768565b9050919050565b7f4f776e61626c653a206e6577206f776e657220697320746865207a65726f206160008201527f6464726573730000000000000000000000000000000000000000000000000000602082015250565b6000611807602683610e56565b9150611812826117ab565b604082019050919050565b60006020820190508181036000830152611836816117fa565b9050919050565b7f45524332303a20617070726f76652066726f6d20746865207a65726f2061646460008201527f7265737300000000000000000000000000000000000000000000000000000000602082015250565b6000611899602483610e56565b91506118a48261183d565b604082019050919050565b600060208201905081810360008301526118c88161188c565b9050919050565b7f45524332303a20617070726f766520746f20746865207a65726f20616464726560008201527f7373000000000000000000000000000000000000000000000000000000000000602082015250565b600061192b602283610e56565b9150611936826118cf565b604082019050919050565b6000602082019050818103600083015261195a8161191e565b9050919050565b7f45524332303a206d696e7420746f20746865207a65726f206164647265737300600082015250565b6000611997601f83610e56565b91506119a282611961565b602082019050919050565b600060208201905081810360008301526119c68161198a565b9050919050565b7f4f776e61626c653a2063616c6c6572206973206e6f7420746865206f776e6572600082015250565b6000611a03602083610e56565b9150611a0e826119cd565b602082019050919050565b60006020820190508181036000830152611a32816119f6565b905091905056fea26469706673582212207f01760fd3424e1ea5126803c0f66cbfd9c340573c6302c2d0e5451fbffd8a8564736f6c63430008140033",
  "linkReferences": {},
  "deployedLinkReferences": {}
}