{"abi":[{"type":"function","name":"createDirectDemocracyToken","inputs":[{"name":"name","type":"string","internalType":"string"},{"name":"symbol","type":"string","internalType":"string"},{"name":"_nftMembership","type":"address","internalType":"address"},{"name":"_allowedRoleNames","type":"string[]","internalType":"string[]"},{"name":"_POname","type":"string","internalType":"string"}],"outputs":[{"name":"","type":"address","internalType":"address"}],"stateMutability":"nonpayable"},{"type":"event","name":"TokenCreated","inputs":[{"name":"tokenAddress","type":"address","indexed":false,"internalType":"address"},{"name":"name","type":"string","indexed":false,"internalType":"string"},{"name":"symbol","type":"string","indexed":false,"internalType":"string"},{"name":"allowedRoleNames","type":"string[]","indexed":false,"internalType":"string[]"},{"name":"POname","type":"string","indexed":false,"internalType":"string"}],"anonymous":false}],"bytecode":{"object":"0x608080604052346015576116ed908161001b8239f35b600080fdfe6080604052600436101561001257600080fd5b6000803560e01c633a789fc41461002857600080fd5b346102dc5760a03660031901126102dc5760043567ffffffffffffffff81116102d857610059903690600401610317565b60243567ffffffffffffffff81116102d457610079903690600401610317565b906044356001600160a01b038116908190036102d05760643567ffffffffffffffff81116102cc57366023820112156102cc5780600401359067ffffffffffffffff82116102b8578160051b604051926100d660208301856102df565b83528101602401602083013682116102b45760248301905b828210610280575050505060843567ffffffffffffffff811161025d57610119903690600401610317565b91604051906112aa8083019083821067ffffffffffffffff83111761026c579161017a91849361040e853960808152610166610158608083018a610373565b82810360208401528a610373565b9160408201526060818303910152846103b4565b039086f08015610261576001600160a01b031693843b1561025d5760405163f2fde38b60e01b81523360048201528681602481838a5af18015610252577f953ce6c1df8fdf474639b4437f46d689736ac114e9cb6cf0b2dd77b8b2435b70959361021b6102379460209a61020d989561022995610242575b50506040519788978b895260a08d8a015260a0890190610373565b908782036040890152610373565b9085820360608701526103b4565b908382036080850152610373565b0390a1604051908152f35b8161024c916102df565b386101f2565b6040513d89823e3d90fd5b8580fd5b6040513d87823e3d90fd5b634e487b7160e01b89526041600452602489fd5b813567ffffffffffffffff81116102b0576020916102a5839260243691890101610317565b8152019101906100ee565b8980fd5b8780fd5b634e487b7160e01b86526041600452602486fd5b8480fd5b8380fd5b8280fd5b5080fd5b80fd5b90601f8019910116810190811067ffffffffffffffff82111761030157604052565b634e487b7160e01b600052604160045260246000fd5b81601f8201121561036e5780359067ffffffffffffffff8211610301576040519261034c601f8401601f1916602001856102df565b8284526020838301011161036e57816000926020809301838601378301015290565b600080fd5b919082519283825260005b84811061039f575050826000602080949584010152601f8019910116010190565b8060208092840101518282860101520161037e565b9080602083519182815201916020808360051b8301019401926000915b8383106103e057505050505090565b90919293946020806103fe600193601f198682030187528951610373565b970193019301919392906103d156fe60806040523461048b576112aa8038038061001981610490565b92833981019060808183031261048b5780516001600160401b03811161048b57826100459183016104d8565b60208201519092906001600160401b03811161048b57816100679184016104d8565b604083015190926001600160a01b0382169182900361048b576060810151906001600160401b03821161048b57019180601f8401121561048b578251926001600160401b038411610367578360051b906020806100c5818501610490565b8097815201928201019183831161048b5760208201905b83821061045e57505086519250506001600160401b038211905061036757600354600181811c91168015610454575b602082101461034757601f81116103ef575b50602094601f82116001146103885794819293949560009261037d575b50508160011b916000199060031b1c1916176003555b82516001600160401b03811161036757600454600181811c9116801561035d575b602082101461034757601f81116102e2575b506020601f821160011461027b5781929394600092610270575b50508160011b916000199060031b1c1916176004555b60058054336001600160a01b0319821681179092556001600160a01b03167f8be0079c531659141344cd1fd0a4f28419497f9722a3daafe3b4186f6b6457e0600080a36007805460ff60a01b19169055600680546001600160a01b03191691909117905560005b8151811015610261576001906102476020808360051b8601015181604051938285809451938492016104b5565b810160088152030190208260ff198254161790550161021a565b604051610d8190816105298239f35b01519050388061019d565b601f198216906004600052806000209160005b8181106102ca575095836001959697106102b1575b505050811b016004556101b3565b015160001960f88460031b161c191690553880806102a3565b9192602060018192868b01518155019401920161028e565b60046000527f8a35acfbc15ff81a39ae7d344fd709f28e8600b4aa8c65c6b64bfe7fe36bd19b601f830160051c8101916020841061033d575b601f0160051c01905b8181106103315750610183565b60008155600101610324565b909150819061031b565b634e487b7160e01b600052602260045260246000fd5b90607f1690610171565b634e487b7160e01b600052604160045260246000fd5b01519050388061013a565b601f198216956003600052806000209160005b8881106103d7575083600195969798106103be575b505050811b01600355610150565b015160001960f88460031b161c191690553880806103b0565b9192602060018192868501518155019401920161039b565b60036000527fc2575a0e9e593c00f959f8c92f12db2869c3395a3b0502d05e2516446f71f85b601f830160051c8101916020841061044a575b601f0160051c01905b81811061043e575061011d565b60008155600101610431565b9091508190610428565b90607f169061010b565b81516001600160401b03811161048b57602091610480878480948801016104d8565b8152019101906100dc565b600080fd5b6040519190601f01601f191682016001600160401b0381118382101761036757604052565b60005b8381106104c85750506000910152565b81810151838201526020016104b8565b81601f8201121561048b5780516001600160401b03811161036757610506601f8201601f1916602001610490565b928184526020828401011161048b5761052591602080850191016104b5565b9056fe608080604052600436101561001357600080fd5b60003560e01c90816306fdde0314610a6e57508063095ea7b3146109fc57806318160ddd146109de57806323b872dd1461096c578063313ce5671461095057806339509351146108e85780636a627842146105c257806370a08231146100f0578063715018a6146105655780638da5cb5b1461053c57806395d89b4114610434578063a04b397914610418578063a2b2b4d4146103ef578063a457c2d71461033d578063a9059cbb146102d4578063ada52e251461024f578063dd62ed3e146101fe578063f2fde38b146101365763f8b2cb4f146100f057600080fd5b3461013157602036600319011261013157602061012961010e610b79565b6001600160a01b031660009081526020819052604090205490565b604051908152f35b600080fd5b346101315760203660031901126101315761014f610b79565b610157610cf3565b6001600160a01b031680156101aa57600580546001600160a01b0319811683179091556001600160a01b03167f8be0079c531659141344cd1fd0a4f28419497f9722a3daafe3b4186f6b6457e0600080a3005b60405162461bcd60e51b815260206004820152602660248201527f4f776e61626c653a206e6577206f776e657220697320746865207a65726f206160448201526564647265737360d01b6064820152608490fd5b3461013157604036600319011261013157610217610b79565b61021f610b8f565b6001600160a01b039182166000908152600160209081526040808320949093168252928352819020549051908152f35b3461013157602036600319011261013157610268610b79565b60075460ff8160a01c16610297576001600160a81b0319166001600160a01b0390911617600160a01b17600755005b60405162461bcd60e51b8152602060048201526015602482015274145d5a58dad29bda5b88185b1c9958591e481cd95d605a1b6044820152606490fd5b34610131576040366003190112610131576102ed610b79565b5060405162461bcd60e51b815260206004820152602160248201527f5472616e73666572206f6620746f6b656e73206973206e6f7420616c6c6f77656044820152601960fa1b6064820152608490fd5b3461013157604036600319011261013157610356610b79565b60243590336000526001602052604060002060018060a01b0382166000526020526040600020549180831061039c5761039192039033610beb565b602060405160018152f35b60405162461bcd60e51b815260206004820152602560248201527f45524332303a2064656372656173656420616c6c6f77616e63652062656c6f77604482015264207a65726f60d81b6064820152608490fd5b34610131576000366003190112610131576006546040516001600160a01b039091168152602090f35b3461013157600036600319011261013157602060405160648152f35b346101315760003660031901126101315760405160006004548060011c90600181168015610532575b60208310811461051e578285529081156104fa575060011461049a575b6104968361048a81850382610ba5565b60405191829182610b4d565b0390f35b91905060046000527f8a35acfbc15ff81a39ae7d344fd709f28e8600b4aa8c65c6b64bfe7fe36bd19b916000905b8082106104e05750909150810160200161048a61047a565b9192600181602092548385880101520191019092916104c8565b60ff191660208086019190915291151560051b8401909101915061048a905061047a565b634e487b7160e01b84526022600452602484fd5b91607f169161045d565b34610131576000366003190112610131576005546040516001600160a01b039091168152602090f35b346101315760003660031901126101315761057e610cf3565b600580546001600160a01b031981169091556000906001600160a01b03167f8be0079c531659141344cd1fd0a4f28419497f9722a3daafe3b4186f6b6457e08280a3005b34610131576020366003190112610131576105db610b79565b600654604051630eef043160e31b81526001600160a01b039283166004820181905292909160009183916024918391165afa9081156108dc57600091610829575b50610638602060ff928160405193828580945193849201610b2a565b810160088152030190205416156107e4576007546001600160a01b031633036107915780600052600060205260406000205461073c5780156106f75761067f600254610bdd565b600255806000526000602052604060002061069a8154610bdd565b90558060007fddf252ad1be2c89b69c2b068fc378daa952ba7f163c4a11628f55a4df523b3ef602060405160648152a37f0f6798a560793a54c3bcfe86a93cde1e73087d944c0ea20544137d4121396885602060405160648152a2005b60405162461bcd60e51b815260206004820152601f60248201527f45524332303a206d696e7420746f20746865207a65726f2061646472657373006044820152606490fd5b60405162461bcd60e51b815260206004820152602760248201527f54686973206163636f756e742068617320616c726561647920636c61696d656460448201526620636f696e732160c81b6064820152608490fd5b60405162461bcd60e51b815260206004820152602560248201527f4f6e6c7920517569636b4a6f696e2063616e2063616c6c20746869732066756e60448201526431ba34b7b760d91b6064820152608490fd5b60405162461bcd60e51b815260206004820152601c60248201527f4e6f7420617574686f72697a656420746f206d696e7420636f696e73000000006044820152606490fd5b903d8082843e6108398184610ba5565b8201916020818403126108d45780519067ffffffffffffffff82116108d8570182601f820112156108d45780519167ffffffffffffffff83116108c0576040519361088e601f8501601f191660200186610ba5565b838552602084840101116108bd5750826108b561063893602093848060ff98019101610b2a565b92505061061c565b80fd5b634e487b7160e01b81526041600452602490fd5b5080fd5b8280fd5b6040513d6000823e3d90fd5b3461013157604036600319011261013157610901610b79565b336000526001602052604060002060018060a01b038216600052602052604060002054602435810180911161093a576103919133610beb565b634e487b7160e01b600052601160045260246000fd5b3461013157600036600319011261013157602060405160008152f35b3461013157606036600319011261013157610985610b79565b5061098e610b8f565b5060405162461bcd60e51b815260206004820152602160248201527f5472616e73666572206f6620546f6b656e73206973206e6f7420616c6c6f77656044820152601960fa1b6064820152608490fd5b34610131576000366003190112610131576020600254604051908152f35b3461013157604036600319011261013157610a15610b79565b5060405162461bcd60e51b815260206004820152602a60248201527f417070726f76616c206f6620546f6b656e20616c6c6f77616e6365206973206e6044820152691bdd08185b1b1bddd95960b21b6064820152608490fd5b346101315760003660031901126101315760006003548060011c90600181168015610b20575b60208310811461051e578285529081156104fa5750600114610ac0576104968361048a81850382610ba5565b91905060036000527fc2575a0e9e593c00f959f8c92f12db2869c3395a3b0502d05e2516446f71f85b916000905b808210610b065750909150810160200161048a61047a565b919260018160209254838588010152019101909291610aee565b91607f1691610a94565b60005b838110610b3d5750506000910152565b8181015183820152602001610b2d565b60409160208252610b6d8151809281602086015260208686019101610b2a565b601f01601f1916010190565b600435906001600160a01b038216820361013157565b602435906001600160a01b038216820361013157565b90601f8019910116810190811067ffffffffffffffff821117610bc757604052565b634e487b7160e01b600052604160045260246000fd5b906064820180921161093a57565b6001600160a01b0316908115610ca2576001600160a01b0316918215610c525760207f8c5be1e5ebec7d5bd14f71427d1e84f3dd0314c0f7b2291e5b200ac8c7c3b925918360005260018252604060002085600052825280604060002055604051908152a3565b60405162461bcd60e51b815260206004820152602260248201527f45524332303a20617070726f766520746f20746865207a65726f206164647265604482015261737360f01b6064820152608490fd5b60405162461bcd60e51b8152602060048201526024808201527f45524332303a20617070726f76652066726f6d20746865207a65726f206164646044820152637265737360e01b6064820152608490fd5b6005546001600160a01b03163303610d0757565b606460405162461bcd60e51b815260206004820152602060248201527f4f776e61626c653a2063616c6c6572206973206e6f7420746865206f776e65726044820152fdfea264697066735822122097f9fa5c2c1da525a2d8618d3ae2e2bb8d57c2a0ba71c24ad0602128e1bca3a764736f6c634300081a0033a2646970667358221220853e7044a65009df205bc570ee0c5915bb743abf39083cfd49f83cfcba88bdae64736f6c634300081a0033","linkReferences":{}},"methodIdentifiers":{"createDirectDemocracyToken(string,string,address,string[],string)":"3a789fc4"},"id":43}