{
  "_format": "hh-sol-artifact-1",
  "contractName": "DirectDemocracyTokenFactory",
  "sourceName": "contracts/DirectDemocracyTokenFactory.sol",
  "abi": [
    {
      "anonymous": false,
      "inputs": [
        {
          "indexed": false,
          "internalType": "address",
          "name": "tokenAddress",
          "type": "address"
        },
        {
          "indexed": false,
          "internalType": "string",
          "name": "name",
          "type": "string"
        },
        {
          "indexed": false,
          "internalType": "string",
          "name": "symbol",
          "type": "string"
        }
      ],
      "name": "TokenCreated",
      "type": "event"
    },
    {
      "inputs": [
        {
          "internalType": "string",
          "name": "name",
          "type": "string"
        },
        {
          "internalType": "string",
          "name": "symbol",
          "type": "string"
        },
        {
          "internalType": "address",
          "name": "_nftMembership",
          "type": "address"
        },
        {
          "internalType": "string[]",
          "name": "_allowedRoleNames",
          "type": "string[]"
        }
      ],
      "name": "createDirectDemocracyToken",
      "outputs": [],
      "stateMutability": "nonpayable",
      "type": "function"
    }
  ],
  "bytecode": "0x608060405234801561001057600080fd5b50612bf6806100206000396000f3fe60806040523480156200001157600080fd5b50600436106200002e5760003560e01c8063c1d491301462000033575b600080fd5b6200005160048036038101906200004b91906200042e565b62000053565b005b600084848484604051620000679062000149565b620000769493929190620006b9565b604051809103906000f08015801562000093573d6000803e3d6000fd5b5090508073ffffffffffffffffffffffffffffffffffffffff1663f2fde38b336040518263ffffffff1660e01b8152600401620000d191906200071b565b600060405180830381600087803b158015620000ec57600080fd5b505af115801562000101573d6000803e3d6000fd5b505050507fffc04f682c7b287e4b552dacd4b833d7c33dc0549cd6da84388408e4830c05628186866040516200013a9392919062000738565b60405180910390a15050505050565b61243d806200078483390190565b6000604051905090565b600080fd5b600080fd5b600080fd5b600080fd5b6000601f19601f8301169050919050565b7f4e487b7100000000000000000000000000000000000000000000000000000000600052604160045260246000fd5b620001c08262000175565b810181811067ffffffffffffffff82111715620001e257620001e162000186565b5b80604052505050565b6000620001f762000157565b9050620002058282620001b5565b919050565b600067ffffffffffffffff82111562000228576200022762000186565b5b620002338262000175565b9050602081019050919050565b82818337600083830152505050565b60006200026662000260846200020a565b620001eb565b90508281526020810184848401111562000285576200028462000170565b5b6200029284828562000240565b509392505050565b600082601f830112620002b257620002b16200016b565b5b8135620002c48482602086016200024f565b91505092915050565b600073ffffffffffffffffffffffffffffffffffffffff82169050919050565b6000620002fa82620002cd565b9050919050565b6200030c81620002ed565b81146200031857600080fd5b50565b6000813590506200032c8162000301565b92915050565b600067ffffffffffffffff82111562000350576200034f62000186565b5b602082029050602081019050919050565b600080fd5b60006200037d620003778462000332565b620001eb565b90508083825260208201905060208402830185811115620003a357620003a262000361565b5b835b81811015620003f157803567ffffffffffffffff811115620003cc57620003cb6200016b565b5b808601620003db89826200029a565b85526020850194505050602081019050620003a5565b5050509392505050565b600082601f8301126200041357620004126200016b565b5b81356200042584826020860162000366565b91505092915050565b600080600080608085870312156200044b576200044a62000161565b5b600085013567ffffffffffffffff8111156200046c576200046b62000166565b5b6200047a878288016200029a565b945050602085013567ffffffffffffffff8111156200049e576200049d62000166565b5b620004ac878288016200029a565b9350506040620004bf878288016200031b565b925050606085013567ffffffffffffffff811115620004e357620004e262000166565b5b620004f187828801620003fb565b91505092959194509250565b600081519050919050565b600082825260208201905092915050565b60005b83811015620005395780820151818401526020810190506200051c565b60008484015250505050565b60006200055282620004fd565b6200055e818562000508565b93506200057081856020860162000519565b6200057b8162000175565b840191505092915050565b6200059181620002ed565b82525050565b600081519050919050565b600082825260208201905092915050565b6000819050602082019050919050565b600082825260208201905092915050565b6000620005e182620004fd565b620005ed8185620005c3565b9350620005ff81856020860162000519565b6200060a8162000175565b840191505092915050565b6000620006238383620005d4565b905092915050565b6000602082019050919050565b6000620006458262000597565b620006518185620005a2565b9350836020820285016200066585620005b3565b8060005b85811015620006a7578484038952815162000685858262000615565b945062000692836200062b565b925060208a0199505060018101905062000669565b50829750879550505050505092915050565b60006080820190508181036000830152620006d5818762000545565b90508181036020830152620006eb818662000545565b9050620006fc604083018562000586565b818103606083015262000710818462000638565b905095945050505050565b600060208201905062000732600083018462000586565b92915050565b60006060820190506200074f600083018662000586565b818103602083015262000763818562000545565b9050818103604083015262000779818462000545565b905094935050505056fe60806040523480156200001157600080fd5b506040516200243d3803806200243d833981810160405281019062000037919062000506565b838381600390816200004a919062000820565b5080600490816200005c919062000820565b5050506200007f620000736200014460201b60201c565b6200014c60201b60201c565b81600660006101000a81548173ffffffffffffffffffffffffffffffffffffffff021916908373ffffffffffffffffffffffffffffffffffffffff16021790555060005b8151811015620001395760016007838381518110620000e757620000e662000907565b5b6020026020010151604051620000fe919062000978565b908152602001604051809103902060006101000a81548160ff02191690831515021790555080806200013090620009c0565b915050620000c3565b505050505062000a0d565b600033905090565b6000600560009054906101000a900473ffffffffffffffffffffffffffffffffffffffff16905081600560006101000a81548173ffffffffffffffffffffffffffffffffffffffff021916908373ffffffffffffffffffffffffffffffffffffffff1602179055508173ffffffffffffffffffffffffffffffffffffffff168173ffffffffffffffffffffffffffffffffffffffff167f8be0079c531659141344cd1fd0a4f28419497f9722a3daafe3b4186f6b6457e060405160405180910390a35050565b6000604051905090565b600080fd5b600080fd5b600080fd5b600080fd5b6000601f19601f8301169050919050565b7f4e487b7100000000000000000000000000000000000000000000000000000000600052604160045260246000fd5b6200027b8262000230565b810181811067ffffffffffffffff821117156200029d576200029c62000241565b5b80604052505050565b6000620002b262000212565b9050620002c0828262000270565b919050565b600067ffffffffffffffff821115620002e357620002e262000241565b5b620002ee8262000230565b9050602081019050919050565b60005b838110156200031b578082015181840152602081019050620002fe565b60008484015250505050565b60006200033e6200033884620002c5565b620002a6565b9050828152602081018484840111156200035d576200035c6200022b565b5b6200036a848285620002fb565b509392505050565b600082601f8301126200038a576200038962000226565b5b81516200039c84826020860162000327565b91505092915050565b600073ffffffffffffffffffffffffffffffffffffffff82169050919050565b6000620003d282620003a5565b9050919050565b620003e481620003c5565b8114620003f057600080fd5b50565b6000815190506200040481620003d9565b92915050565b600067ffffffffffffffff82111562000428576200042762000241565b5b602082029050602081019050919050565b600080fd5b6000620004556200044f846200040a565b620002a6565b905080838252602082019050602084028301858111156200047b576200047a62000439565b5b835b81811015620004c957805167ffffffffffffffff811115620004a457620004a362000226565b5b808601620004b3898262000372565b855260208501945050506020810190506200047d565b5050509392505050565b600082601f830112620004eb57620004ea62000226565b5b8151620004fd8482602086016200043e565b91505092915050565b600080600080608085870312156200052357620005226200021c565b5b600085015167ffffffffffffffff81111562000544576200054362000221565b5b620005528782880162000372565b945050602085015167ffffffffffffffff81111562000576576200057562000221565b5b620005848782880162000372565b93505060406200059787828801620003f3565b925050606085015167ffffffffffffffff811115620005bb57620005ba62000221565b5b620005c987828801620004d3565b91505092959194509250565b600081519050919050565b7f4e487b7100000000000000000000000000000000000000000000000000000000600052602260045260246000fd5b600060028204905060018216806200062857607f821691505b6020821081036200063e576200063d620005e0565b5b50919050565b60008190508160005260206000209050919050565b60006020601f8301049050919050565b600082821b905092915050565b600060088302620006a87fffffffffffffffffffffffffffffffffffffffffffffffffffffffffffffffff8262000669565b620006b4868362000669565b95508019841693508086168417925050509392505050565b6000819050919050565b6000819050919050565b600062000701620006fb620006f584620006cc565b620006d6565b620006cc565b9050919050565b6000819050919050565b6200071d83620006e0565b620007356200072c8262000708565b84845462000676565b825550505050565b600090565b6200074c6200073d565b6200075981848462000712565b505050565b5b8181101562000781576200077560008262000742565b6001810190506200075f565b5050565b601f821115620007d0576200079a8162000644565b620007a58462000659565b81016020851015620007b5578190505b620007cd620007c48562000659565b8301826200075e565b50505b505050565b600082821c905092915050565b6000620007f560001984600802620007d5565b1980831691505092915050565b6000620008108383620007e2565b9150826002028217905092915050565b6200082b82620005d5565b67ffffffffffffffff81111562000847576200084662000241565b5b6200085382546200060f565b6200086082828562000785565b600060209050601f83116001811462000898576000841562000883578287015190505b6200088f858262000802565b865550620008ff565b601f198416620008a88662000644565b60005b82811015620008d257848901518255600182019150602085019450602081019050620008ab565b86831015620008f25784890151620008ee601f891682620007e2565b8355505b6001600288020188555050505b505050505050565b7f4e487b7100000000000000000000000000000000000000000000000000000000600052603260045260246000fd5b600081905092915050565b60006200094e82620005d5565b6200095a818562000936565b93506200096c818560208601620002fb565b80840191505092915050565b600062000986828462000941565b915081905092915050565b7f4e487b7100000000000000000000000000000000000000000000000000000000600052601160045260246000fd5b6000620009cd82620006cc565b91507fffffffffffffffffffffffffffffffffffffffffffffffffffffffffffffffff820362000a025762000a0162000991565b5b600182019050919050565b611a208062000a1d6000396000f3fe608060405234801561001057600080fd5b50600436106101165760003560e01c80638da5cb5b116100a2578063a457c2d711610071578063a457c2d7146102d3578063a9059cbb14610303578063dd62ed3e14610333578063f2fde38b14610363578063f8b2cb4f1461037f57610116565b80638da5cb5b1461025b57806395d89b4114610279578063a04b397914610297578063a2b2b4d4146102b557610116565b8063313ce567116100e9578063313ce567146101b757806339509351146101d55780636a6278421461020557806370a0823114610221578063715018a61461025157610116565b806306fdde031461011b578063095ea7b31461013957806318160ddd1461016957806323b872dd14610187575b600080fd5b6101236103af565b6040516101309190610e8c565b60405180910390f35b610153600480360381019061014e9190610f56565b610441565b6040516101609190610fb1565b60405180910390f35b61017161047e565b60405161017e9190610fdb565b60405180910390f35b6101a1600480360381019061019c9190610ff6565b610488565b6040516101ae9190610fb1565b60405180910390f35b6101bf6104c5565b6040516101cc9190611065565b60405180910390f35b6101ef60048036038101906101ea9190610f56565b6104ca565b6040516101fc9190610fb1565b60405180910390f35b61021f600480360381019061021a9190611080565b610501565b005b61023b60048036038101906102369190611080565b61066b565b6040516102489190610fdb565b60405180910390f35b6102596106b3565b005b6102636106c7565b60405161027091906110bc565b60405180910390f35b6102816106f1565b60405161028e9190610e8c565b60405180910390f35b61029f610783565b6040516102ac9190610fdb565b60405180910390f35b6102bd610788565b6040516102ca9190611136565b60405180910390f35b6102ed60048036038101906102e89190610f56565b6107ae565b6040516102fa9190610fb1565b60405180910390f35b61031d60048036038101906103189190610f56565b610825565b60405161032a9190610fb1565b60405180910390f35b61034d60048036038101906103489190611151565b610862565b60405161035a9190610fdb565b60405180910390f35b61037d60048036038101906103789190611080565b6108e9565b005b61039960048036038101906103949190611080565b61096c565b6040516103a69190610fdb565b60405180910390f35b6060600380546103be906111c0565b80601f01602080910402602001604051908101604052809291908181526020018280546103ea906111c0565b80156104375780601f1061040c57610100808354040283529160200191610437565b820191906000526020600020905b81548152906001019060200180831161041a57829003601f168201915b5050505050905090565b60006040517f08c379a000000000000000000000000000000000000000000000000000000000815260040161047590611263565b60405180910390fd5b6000600254905090565b60006040517f08c379a00000000000000000000000000000000000000000000000000000000081526004016104bc906112f5565b60405180910390fd5b600090565b6000806104d561097e565b90506104f68185856104e78589610862565b6104f19190611344565b610986565b600191505092915050565b6000600660009054906101000a900473ffffffffffffffffffffffffffffffffffffffff1673ffffffffffffffffffffffffffffffffffffffff166377782188336040518263ffffffff1660e01b815260040161055e91906110bc565b600060405180830381865afa15801561057b573d6000803e3d6000fd5b505050506040513d6000823e3d601f19601f820116820180604052508101906105a4919061149e565b90506007816040516105b69190611523565b908152602001604051809103902060009054906101000a900460ff16610611576040517f08c379a000000000000000000000000000000000000000000000000000000000815260040161060890611586565b60405180910390fd5b600061061c8361066b565b1461065c576040517f08c379a000000000000000000000000000000000000000000000000000000000815260040161065390611618565b60405180910390fd5b610667826064610b4f565b5050565b60008060008373ffffffffffffffffffffffffffffffffffffffff1673ffffffffffffffffffffffffffffffffffffffff168152602001908152602001600020549050919050565b6106bb610cae565b6106c56000610d2c565b565b6000600560009054906101000a900473ffffffffffffffffffffffffffffffffffffffff16905090565b606060048054610700906111c0565b80601f016020809104026020016040519081016040528092919081815260200182805461072c906111c0565b80156107795780601f1061074e57610100808354040283529160200191610779565b820191906000526020600020905b81548152906001019060200180831161075c57829003601f168201915b5050505050905090565b606481565b600660009054906101000a900473ffffffffffffffffffffffffffffffffffffffff1681565b6000806107b961097e565b905060006107c78286610862565b90508381101561080c576040517f08c379a0000000000000000000000000000000000000000000000000000000008152600401610803906116aa565b60405180910390fd5b6108198286868403610986565b60019250505092915050565b60006040517f08c379a00000000000000000000000000000000000000000000000000000000081526004016108599061173c565b60405180910390fd5b6000600160008473ffffffffffffffffffffffffffffffffffffffff1673ffffffffffffffffffffffffffffffffffffffff16815260200190815260200160002060008373ffffffffffffffffffffffffffffffffffffffff1673ffffffffffffffffffffffffffffffffffffffff16815260200190815260200160002054905092915050565b6108f1610cae565b600073ffffffffffffffffffffffffffffffffffffffff168173ffffffffffffffffffffffffffffffffffffffff1603610960576040517f08c379a0000000000000000000000000000000000000000000000000000000008152600401610957906117ce565b60405180910390fd5b61096981610d2c565b50565b60006109778261066b565b9050919050565b600033905090565b600073ffffffffffffffffffffffffffffffffffffffff168373ffffffffffffffffffffffffffffffffffffffff16036109f5576040517f08c379a00000000000000000000000000000000000000000000000000000000081526004016109ec90611860565b60405180910390fd5b600073ffffffffffffffffffffffffffffffffffffffff168273ffffffffffffffffffffffffffffffffffffffff1603610a64576040517f08c379a0000000000000000000000000000000000000000000000000000000008152600401610a5b906118f2565b60405180910390fd5b80600160008573ffffffffffffffffffffffffffffffffffffffff1673ffffffffffffffffffffffffffffffffffffffff16815260200190815260200160002060008473ffffffffffffffffffffffffffffffffffffffff1673ffffffffffffffffffffffffffffffffffffffff168152602001908152602001600020819055508173ffffffffffffffffffffffffffffffffffffffff168373ffffffffffffffffffffffffffffffffffffffff167f8c5be1e5ebec7d5bd14f71427d1e84f3dd0314c0f7b2291e5b200ac8c7c3b92583604051610b429190610fdb565b60405180910390a3505050565b600073ffffffffffffffffffffffffffffffffffffffff168273ffffffffffffffffffffffffffffffffffffffff1603610bbe576040517f08c379a0000000000000000000000000000000000000000000000000000000008152600401610bb59061195e565b60405180910390fd5b610bca60008383610df2565b8060026000828254610bdc9190611344565b92505081905550806000808473ffffffffffffffffffffffffffffffffffffffff1673ffffffffffffffffffffffffffffffffffffffff1681526020019081526020016000206000828254610c319190611344565b925050819055508173ffffffffffffffffffffffffffffffffffffffff16600073ffffffffffffffffffffffffffffffffffffffff167fddf252ad1be2c89b69c2b068fc378daa952ba7f163c4a11628f55a4df523b3ef83604051610c969190610fdb565b60405180910390a3610caa60008383610df7565b5050565b610cb661097e565b73ffffffffffffffffffffffffffffffffffffffff16610cd46106c7565b73ffffffffffffffffffffffffffffffffffffffff1614610d2a576040517f08c379a0000000000000000000000000000000000000000000000000000000008152600401610d21906119ca565b60405180910390fd5b565b6000600560009054906101000a900473ffffffffffffffffffffffffffffffffffffffff16905081600560006101000a81548173ffffffffffffffffffffffffffffffffffffffff021916908373ffffffffffffffffffffffffffffffffffffffff1602179055508173ffffffffffffffffffffffffffffffffffffffff168173ffffffffffffffffffffffffffffffffffffffff167f8be0079c531659141344cd1fd0a4f28419497f9722a3daafe3b4186f6b6457e060405160405180910390a35050565b505050565b505050565b600081519050919050565b600082825260208201905092915050565b60005b83811015610e36578082015181840152602081019050610e1b565b60008484015250505050565b6000601f19601f8301169050919050565b6000610e5e82610dfc565b610e688185610e07565b9350610e78818560208601610e18565b610e8181610e42565b840191505092915050565b60006020820190508181036000830152610ea68184610e53565b905092915050565b6000604051905090565b600080fd5b600080fd5b600073ffffffffffffffffffffffffffffffffffffffff82169050919050565b6000610eed82610ec2565b9050919050565b610efd81610ee2565b8114610f0857600080fd5b50565b600081359050610f1a81610ef4565b92915050565b6000819050919050565b610f3381610f20565b8114610f3e57600080fd5b50565b600081359050610f5081610f2a565b92915050565b60008060408385031215610f6d57610f6c610eb8565b5b6000610f7b85828601610f0b565b9250506020610f8c85828601610f41565b9150509250929050565b60008115159050919050565b610fab81610f96565b82525050565b6000602082019050610fc66000830184610fa2565b92915050565b610fd581610f20565b82525050565b6000602082019050610ff06000830184610fcc565b92915050565b60008060006060848603121561100f5761100e610eb8565b5b600061101d86828701610f0b565b935050602061102e86828701610f0b565b925050604061103f86828701610f41565b9150509250925092565b600060ff82169050919050565b61105f81611049565b82525050565b600060208201905061107a6000830184611056565b92915050565b60006020828403121561109657611095610eb8565b5b60006110a484828501610f0b565b91505092915050565b6110b681610ee2565b82525050565b60006020820190506110d160008301846110ad565b92915050565b6000819050919050565b60006110fc6110f76110f284610ec2565b6110d7565b610ec2565b9050919050565b600061110e826110e1565b9050919050565b600061112082611103565b9050919050565b61113081611115565b82525050565b600060208201905061114b6000830184611127565b92915050565b6000806040838503121561116857611167610eb8565b5b600061117685828601610f0b565b925050602061118785828601610f0b565b9150509250929050565b7f4e487b7100000000000000000000000000000000000000000000000000000000600052602260045260246000fd5b600060028204905060018216806111d857607f821691505b6020821081036111eb576111ea611191565b5b50919050565b7f417070726f76616c206f6620546f6b656e20616c6c6f77616e6365206973206e60008201527f6f7420616c6c6f77656400000000000000000000000000000000000000000000602082015250565b600061124d602a83610e07565b9150611258826111f1565b604082019050919050565b6000602082019050818103600083015261127c81611240565b9050919050565b7f5472616e73666572206f6620546f6b656e73206973206e6f7420616c6c6f776560008201527f6400000000000000000000000000000000000000000000000000000000000000602082015250565b60006112df602183610e07565b91506112ea82611283565b604082019050919050565b6000602082019050818103600083015261130e816112d2565b9050919050565b7f4e487b7100000000000000000000000000000000000000000000000000000000600052601160045260246000fd5b600061134f82610f20565b915061135a83610f20565b925082820190508082111561137257611371611315565b5b92915050565b600080fd5b600080fd5b7f4e487b7100000000000000000000000000000000000000000000000000000000600052604160045260246000fd5b6113ba82610e42565b810181811067ffffffffffffffff821117156113d9576113d8611382565b5b80604052505050565b60006113ec610eae565b90506113f882826113b1565b919050565b600067ffffffffffffffff82111561141857611417611382565b5b61142182610e42565b9050602081019050919050565b600061144161143c846113fd565b6113e2565b90508281526020810184848401111561145d5761145c61137d565b5b611468848285610e18565b509392505050565b600082601f83011261148557611484611378565b5b815161149584826020860161142e565b91505092915050565b6000602082840312156114b4576114b3610eb8565b5b600082015167ffffffffffffffff8111156114d2576114d1610ebd565b5b6114de84828501611470565b91505092915050565b600081905092915050565b60006114fd82610dfc565b61150781856114e7565b9350611517818560208601610e18565b80840191505092915050565b600061152f82846114f2565b915081905092915050565b7f4e6f7420617574686f72697a656420746f206d696e7420636f696e7300000000600082015250565b6000611570601c83610e07565b915061157b8261153a565b602082019050919050565b6000602082019050818103600083015261159f81611563565b9050919050565b7f54686973206163636f756e742068617320616c726561647920636c61696d656460008201527f20636f696e732100000000000000000000000000000000000000000000000000602082015250565b6000611602602783610e07565b915061160d826115a6565b604082019050919050565b60006020820190508181036000830152611631816115f5565b9050919050565b7f45524332303a2064656372656173656420616c6c6f77616e63652062656c6f7760008201527f207a65726f000000000000000000000000000000000000000000000000000000602082015250565b6000611694602583610e07565b915061169f82611638565b604082019050919050565b600060208201905081810360008301526116c381611687565b9050919050565b7f5472616e73666572206f6620746f6b656e73206973206e6f7420616c6c6f776560008201527f6400000000000000000000000000000000000000000000000000000000000000602082015250565b6000611726602183610e07565b9150611731826116ca565b604082019050919050565b6000602082019050818103600083015261175581611719565b9050919050565b7f4f776e61626c653a206e6577206f776e657220697320746865207a65726f206160008201527f6464726573730000000000000000000000000000000000000000000000000000602082015250565b60006117b8602683610e07565b91506117c38261175c565b604082019050919050565b600060208201905081810360008301526117e7816117ab565b9050919050565b7f45524332303a20617070726f76652066726f6d20746865207a65726f2061646460008201527f7265737300000000000000000000000000000000000000000000000000000000602082015250565b600061184a602483610e07565b9150611855826117ee565b604082019050919050565b600060208201905081810360008301526118798161183d565b9050919050565b7f45524332303a20617070726f766520746f20746865207a65726f20616464726560008201527f7373000000000000000000000000000000000000000000000000000000000000602082015250565b60006118dc602283610e07565b91506118e782611880565b604082019050919050565b6000602082019050818103600083015261190b816118cf565b9050919050565b7f45524332303a206d696e7420746f20746865207a65726f206164647265737300600082015250565b6000611948601f83610e07565b915061195382611912565b602082019050919050565b600060208201905081810360008301526119778161193b565b9050919050565b7f4f776e61626c653a2063616c6c6572206973206e6f7420746865206f776e6572600082015250565b60006119b4602083610e07565b91506119bf8261197e565b602082019050919050565b600060208201905081810360008301526119e3816119a7565b905091905056fea2646970667358221220d4f0a04a919882f233a8d44b8c4c97cb6d365654f9d972937a0235412f114af864736f6c63430008140033a2646970667358221220429f9b8f9e55934d23f8bab3a831b1fb9aff4f33495a5fe0cf7512206265fd3064736f6c63430008140033",
  "linkReferences": {},
  "deployedLinkReferences": {}
}