{"abi":[{"type":"constructor","inputs":[{"name":"_ddToken","type":"address","internalType":"address"},{"name":"_nftMembership","type":"address","internalType":"address"},{"name":"_allowedRoleNames","type":"string[]","internalType":"string[]"},{"name":"_treasuryAddress","type":"address","internalType":"address"},{"name":"_quorumPercentage","type":"uint256","internalType":"uint256"}],"stateMutability":"nonpayable"},{"type":"function","name":"DirectDemocracyToken","inputs":[],"outputs":[{"name":"","type":"address","internalType":"contract IERC20"}],"stateMutability":"view"},{"type":"function","name":"announceWinner","inputs":[{"name":"_proposalId","type":"uint256","internalType":"uint256"}],"outputs":[{"name":"","type":"uint256","internalType":"uint256"},{"name":"","type":"bool","internalType":"bool"}],"stateMutability":"nonpayable"},{"type":"function","name":"createProposal","inputs":[{"name":"_name","type":"string","internalType":"string"},{"name":"_description","type":"string","internalType":"string"},{"name":"_timeInMinutes","type":"uint256","internalType":"uint256"},{"name":"_optionNames","type":"string[]","internalType":"string[]"},{"name":"_transferTriggerOptionIndex","type":"uint256","internalType":"uint256"},{"name":"_transferRecipient","type":"address","internalType":"address payable"},{"name":"_transferAmount","type":"uint256","internalType":"uint256"},{"name":"_transferEnabled","type":"bool","internalType":"bool"},{"name":"_transferToken","type":"address","internalType":"address"},{"name":"_electionEnabled","type":"bool","internalType":"bool"},{"name":"_candidateAddresses","type":"address[]","internalType":"address[]"},{"name":"_candidateNames","type":"string[]","internalType":"string[]"}],"outputs":[],"stateMutability":"nonpayable"},{"type":"function","name":"elections","inputs":[],"outputs":[{"name":"","type":"address","internalType":"contract IElections"}],"stateMutability":"view"},{"type":"function","name":"getOptionVotes","inputs":[{"name":"_proposalId","type":"uint256","internalType":"uint256"},{"name":"_optionIndex","type":"uint256","internalType":"uint256"}],"outputs":[{"name":"votes","type":"uint256","internalType":"uint256"}],"stateMutability":"view"},{"type":"function","name":"getOptionsCount","inputs":[{"name":"_proposalId","type":"uint256","internalType":"uint256"}],"outputs":[{"name":"","type":"uint256","internalType":"uint256"}],"stateMutability":"view"},{"type":"function","name":"getProposal","inputs":[{"name":"_proposalId","type":"uint256","internalType":"uint256"}],"outputs":[{"name":"totalVotes","type":"uint256","internalType":"uint256"},{"name":"timeInMinutes","type":"uint256","internalType":"uint256"},{"name":"creationTimestamp","type":"uint256","internalType":"uint256"},{"name":"transferTriggerOptionIndex","type":"uint256","internalType":"uint256"},{"name":"transferRecipient","type":"address","internalType":"address payable"},{"name":"transferAmount","type":"uint256","internalType":"uint256"},{"name":"transferEnabled","type":"bool","internalType":"bool"},{"name":"transferToken","type":"address","internalType":"address"}],"stateMutability":"view"},{"type":"function","name":"getProposalOptionVotes","inputs":[{"name":"_proposalId","type":"uint256","internalType":"uint256"},{"name":"_optionIndex","type":"uint256","internalType":"uint256"}],"outputs":[{"name":"votes","type":"uint256","internalType":"uint256"}],"stateMutability":"view"},{"type":"function","name":"getProposalsCount","inputs":[],"outputs":[{"name":"","type":"uint256","internalType":"uint256"}],"stateMutability":"view"},{"type":"function","name":"getWinner","inputs":[{"name":"_proposalId","type":"uint256","internalType":"uint256"}],"outputs":[{"name":"","type":"uint256","internalType":"uint256"},{"name":"","type":"bool","internalType":"bool"}],"stateMutability":"view"},{"type":"function","name":"nftMembership","inputs":[],"outputs":[{"name":"","type":"address","internalType":"contract INFTMembership2"}],"stateMutability":"view"},{"type":"function","name":"quorumPercentage","inputs":[],"outputs":[{"name":"","type":"uint256","internalType":"uint256"}],"stateMutability":"view"},{"type":"function","name":"setElectionsContract","inputs":[{"name":"_electionsContract","type":"address","internalType":"address"}],"outputs":[],"stateMutability":"nonpayable"},{"type":"function","name":"treasury","inputs":[],"outputs":[{"name":"","type":"address","internalType":"contract ITreasury"}],"stateMutability":"view"},{"type":"function","name":"vote","inputs":[{"name":"_proposalId","type":"uint256","internalType":"uint256"},{"name":"_voter","type":"address","internalType":"address"},{"name":"_optionIndices","type":"uint256[]","internalType":"uint256[]"},{"name":"_weights","type":"uint256[]","internalType":"uint256[]"}],"outputs":[],"stateMutability":"nonpayable"},{"type":"event","name":"ElectionContractSet","inputs":[{"name":"electionContract","type":"address","indexed":true,"internalType":"address"}],"anonymous":false},{"type":"event","name":"NewProposal","inputs":[{"name":"proposalId","type":"uint256","indexed":true,"internalType":"uint256"},{"name":"name","type":"string","indexed":false,"internalType":"string"},{"name":"description","type":"string","indexed":false,"internalType":"string"},{"name":"timeInMinutes","type":"uint256","indexed":false,"internalType":"uint256"},{"name":"creationTimestamp","type":"uint256","indexed":false,"internalType":"uint256"},{"name":"transferTriggerOptionIndex","type":"uint256","indexed":false,"internalType":"uint256"},{"name":"transferRecipient","type":"address","indexed":false,"internalType":"address"},{"name":"transferAmount","type":"uint256","indexed":false,"internalType":"uint256"},{"name":"transferEnabled","type":"bool","indexed":false,"internalType":"bool"},{"name":"transferToken","type":"address","indexed":false,"internalType":"address"},{"name":"electionEnabled","type":"bool","indexed":false,"internalType":"bool"},{"name":"electionId","type":"uint256","indexed":false,"internalType":"uint256"}],"anonymous":false},{"type":"event","name":"PollOptionNames","inputs":[{"name":"proposalId","type":"uint256","indexed":true,"internalType":"uint256"},{"name":"optionIndex","type":"uint256","indexed":true,"internalType":"uint256"},{"name":"name","type":"string","indexed":false,"internalType":"string"}],"anonymous":false},{"type":"event","name":"Voted","inputs":[{"name":"proposalId","type":"uint256","indexed":true,"internalType":"uint256"},{"name":"voter","type":"address","indexed":true,"internalType":"address"},{"name":"optionIndices","type":"uint256[]","indexed":false,"internalType":"uint256[]"},{"name":"weights","type":"uint256[]","indexed":false,"internalType":"uint256[]"}],"anonymous":false},{"type":"event","name":"WinnerAnnounced","inputs":[{"name":"proposalId","type":"uint256","indexed":true,"internalType":"uint256"},{"name":"winningOptionIndex","type":"uint256","indexed":false,"internalType":"uint256"},{"name":"hasValidWinner","type":"bool","indexed":false,"internalType":"bool"}],"anonymous":false}],"bytecode":{"object":"0x6080604052346101d1576117ad80380380610019816101ec565b92833981019060a0818303126101d15761003281610211565b61003e60208301610211565b60408301519091906001600160401b0381116101d15783019380601f860112156101d1578451946001600160401b0386116101d6578560051b916020806100868186016101ec565b809981520193830101918183116101d15760208101935b83851061015d57505050505060806100b760608501610211565b9301516003805460ff60a01b19169055600455600080546001600160a01b03199081166001600160a01b039384161782556001805482169484169490941790935560028054909316919093161790555b815181101561014e576001906101346020808360051b860101518160405193828580945193849201610225565b810160068152030190208260ff1982541617905501610107565b60405161156490816102498239f35b84516001600160401b0381116101d15782019083603f830112156101d1576020820151906001600160401b0382116101d6576101a2601f8301601f19166020016101ec565b82815260408484010186106101d1576101c660209493859460408685019101610225565b81520194019361009d565b600080fd5b634e487b7160e01b600052604160045260246000fd5b6040519190601f01601f191682016001600160401b038111838210176101d657604052565b51906001600160a01b03821682036101d157565b60005b8381106102385750506000910152565b818101518382015260200161022856fe6080604052600436101561001257600080fd5b6000803560e01c806308ef909d146111255780633a6e157b14610dfc5780634129b2c914610dcd578063428932c3146106cd5780634fa76ec9146106af578063517a62571461067c57806361953300146102f757806361d027b3146102ce57806386a01aac146102a5578063911b0d00146101eb57806398e527d3146101cd578063a2b2b4d4146101a4578063a44a3d721461017d578063c7f758a8146100e65763e7ea088f146100c257600080fd5b346100e35760206100db6100d536611135565b906113ad565b604051908152f35b80fd5b50346100e35760203660031901126100e35761010061011360043561010e60055482106112db565b61131d565b508054906002810154906003810154600582015460018060a01b03600684015416916008600785015494015494604051968752602087015260408601526060850152608084015260a083015260ff8116151560c083015260018060a01b039060081c1660e0820152f35b50346100e357806003193601126100e357546040516001600160a01b039091168152602090f35b50346100e357806003193601126100e3576001546040516001600160a01b039091168152602090f35b50346100e357806003193601126100e3576020600554604051908152f35b50346100e35760203660031901126100e3576004356001600160a01b038116908190036102a15760035460ff8160a01c1661025c576001600160a81b0319168117600160a01b176003557ffbf4e156ee63f693ce2748f9765fef54d81fad5a5a1a2b00cee3beeeff8f10da8280a280f35b60405162461bcd60e51b815260206004820152601d60248201527f456c656374696f6e20636f6e747261637420616c7265616479207365740000006044820152606490fd5b5080fd5b50346100e357806003193601126100e3576003546040516001600160a01b039091168152602090f35b50346100e357806003193601126100e3576002546040516001600160a01b039091168152602090f35b50346100e35760803660031901126100e357600435906024356001600160a01b038116908190036102a1576044356001600160401b0381116106785761034190369060040161127e565b6064356001600160401b0381116106745761036090369060040161127e565b93600554811061036f816112db565b6103788261131d565b506002600382015491015490603c820291808304603c149015171561066057906103a1916113dc565b42116106255784546040516370a0823160e01b81526004810186905290602090829060249082906001600160a01b03165afa90811561061a5786916105e4575b50156105a9576103f0906112db565b6103f98161131d565b50916001830194846000528560205260ff6040600020541661057457809481955b88518710156104425761043a600191610433898c6114c1565b51906113dc565b96019561041a565b889650606488910361052f57816000526020526040600020600160ff1982541617905584546001810180911161051b578555929360040192815b83518110156104c85780610492600192866114c1565b5161049f87548210611352565b6104c06104b76104af848c6114c1565b519289611395565b509182546113dc565b90550161047c565b50847f5859660a79acb2b10cfd5bb993bf130241a0e53d4eeed80ef534db04b75ddfcb610507856105158a6040519384936040855260408501906114fa565b9083820360208501526114fa565b0390a380f35b634e487b7160e01b83526011600452602483fd5b60405162461bcd60e51b815260206004820152601860248201527f546f74616c20776569676874206d7573742062652031303000000000000000006044820152606490fd5b60405162461bcd60e51b815260206004820152600d60248201526c105b1c9958591e481d9bdd1959609a1b6044820152606490fd5b60405162461bcd60e51b81526020600482015260136024820152724e6f2064656d6f637261637920746f6b656e7360681b6044820152606490fd5b90506020813d602011610612575b816105ff60209383611150565b8101031261060e5751386103e1565b8580fd5b3d91506105f2565b6040513d88823e3d90fd5b60405162461bcd60e51b8152602060048201526013602482015272159bdd1a5b99c81d1a5b5948195e1c1a5c9959606a1b6044820152606490fd5b634e487b7160e01b87526011600452602487fd5b8380fd5b8280fd5b50346100e35760203660031901126100e357602060046106a4813561010e60055482106112db565b500154604051908152f35b50346100e357806003193601126100e3576020600454604051908152f35b50346100e3576101803660031901126100e3576004356001600160401b0381116102a1576106ff9036906004016111a2565b6024356001600160401b0381116106785761071e9036906004016111a2565b916064356001600160401b0381116102a15761073e903690600401611200565b60a435939091906001600160a01b03851685036102a15760e4359081151582036106785761010435956001600160a01b03871687036106745761012435958615158703610dc95761014435966001600160401b03881161060e573660238901121561060e5787600401356107b1816111e9565b986107bf6040519a8b611150565b818a52602460208b019260051b82010190368211610c3857602401915b818310610da957505050610164356001600160401b038111610da557610806903690600401611200565b600154604051630eef043160e31b8152336004820152919a91908890829060249082906001600160a01b03165afa908115610d9a578891610d17575b5061085e602060ff92816040519382858094519384920161149e565b81016006815203019020541615610cc85788518a5103610c7757600554600160401b811015610c6357806001610897920160055561131d565b5087815560443560028201554260038201556084356005808301919091556006820180546001600160a01b0319166001600160a01b03881617905560c4356007830155600880830180546001600160b01b0319168a151560ff16179185901b610100600160a81b03169190911785151560a81b60ff60a81b16179055549a9096906000198c018c10610c4f57885b8a51811015610a1a576040518060208101106001600160401b03602083011117610a0657602081016040528a815260048a0154600160401b8110156109f25780600161097a920160048d015560048c01611395565b9190916109de57918e7fd3b5cef521b08344b2f3822456355f6c2603e7f00a271d0215ac4760a401fc486109d58f846109ba9181976001995190556114c1565b519260405191829160208352600019019460208301906114d5565b0390a301610925565b634e487b7160e01b8c5260048c905260248cfd5b634e487b7160e01b8c52604160045260248cfd5b634e487b7160e01b8b52604160045260248bfd5b508b949596975090888493928c8296610ada575b50509791610a75959391610a837f0e746c77a6d2ddc3bc034f152d2d837f8a31616fdb56df0acb2283511dea15bb9896946040519889986101608a526101608a01906114d5565b9088820360208a01526114d5565b604435604088015242606088015260843560808801526001600160a01b03998a1660a088015260c43560c088015290151560e08701529716610100850152151561012084015261014083015260001901930390a280f35b955095979390969287604060018060a01b036003541660248c8351948593849263c912869d60e01b84526000190160048401525af1908115610c44578991610c0e575b5092885b8751811015610bd7576003546001600160a01b0390811690610b43838b6114c1565b5116610b4f838c6114c1565b51823b15610bd357610b93928d928f84906040519687958694859363e1f8792b60e01b855260001901600485015260248401526060604484015260648301906114d5565b03925af1908115610bc8578b91610baf575b5050600101610b21565b81610bb991611150565b610bc457898e610ba5565b8980fd5b6040513d8d823e3d90fd5b8c80fd5b5094989397509295509093509188610a837f0e746c77a6d2ddc3bc034f152d2d837f8a31616fdb56df0acb2283511dea15bb610a2e565b90506040813d604011610c3c575b81610c2960409383611150565b81010312610c3857518c610b1d565b8880fd5b3d9150610c1c565b6040513d8b823e3d90fd5b634e487b7160e01b89526011600452602489fd5b634e487b7160e01b88526041600452602488fd5b60405162461bcd60e51b8152602060048201526024808201527f43616e6469646174657320616e64206e616d6573206c656e677468206d69736d6044820152630c2e8c6d60e31b6064820152608490fd5b60405162461bcd60e51b815260206004820152602160248201527f4e6f7420617574686f72697a656420746f206372656174652070726f706f73616044820152601b60fa1b6064820152608490fd5b90503d8089833e610d288183611150565b810190602081830312610c38578051906001600160401b038211610bc4570181601f82011215610c3857805190610d5e82611187565b92610d6c6040519485611150565b82845260208383010111610bc45782610d9261085e93602093848060ff9801910161149e565b925050610842565b6040513d8a823e3d90fd5b8680fd5b82356001600160a01b0381168103610bc4578152602092830192016107dc565b8480fd5b50346100e35760203660031901126100e357610dea6004356113ff565b60408051928352901515602083015290f35b50346100e35760203660031901126100e357600435906005548210610e20816112db565b610e298361131d565b506002600382015491015490603c820291808304603c14901517156111115790610e52916113dc565b4211156110cc57610e62906112db565b610e6b826113ff565b92909183806110b5575b8061109f575b610f53575b60ff6008610e8d8461131d565b50015460a81c1680610f4c575b610ee4575b506040805183815284151560208201527f80fa758d7c24e927ad76726080b3e8e8ec336147a2e7f4edde3e19d9c94e7c369190a2604080519182529115156020820152f35b6003546001600160a01b0316803b156102a15781809160446040518094819363ce39673760e01b83528860048401528960248401525af18015610f4157610f2c575b50610e9f565b610f37828092611150565b6100e35780610f26565b6040513d84823e3d90fd5b5083610e9a565b611010610f5f8361131d565b50600890810154901c6001600160a01b031603610ffd576002546001600160a01b0316610f8b8361131d565b50600601546001600160a01b03166007610fa48561131d565b50015490823b1561067457906044849283604051958694859363522f681560e01b8552600485015260248401525af18015610f4157908291610fe8575b5050610e80565b81610ff291611150565b6100e3578038610fe1565b6002546001600160a01b03166110128361131d565b50600890810154901c6001600160a01b031661102d8461131d565b50600601546001600160a01b03169060076110478661131d565b50015492803b15610dc957849291836064926040519687958694631cdacd5960e31b86526004860152602485015260448401525af18015610f4157829061108f575050610e80565b61109891611150565b3881610fe1565b5060056110ab8361131d565b5001548314610e7b565b5060ff60086110c38461131d565b50015416610e75565b60405162461bcd60e51b815260206004820152601860248201527f566f74696e67206973206e6f742079657420636c6f73656400000000000000006044820152606490fd5b634e487b7160e01b84526011600452602484fd5b50346100e35760206100db6100d5365b604090600319011261114b576004359060243590565b600080fd5b90601f801991011681019081106001600160401b0382111761117157604052565b634e487b7160e01b600052604160045260246000fd5b6001600160401b03811161117157601f01601f191660200190565b81601f8201121561114b578035906111b982611187565b926111c76040519485611150565b8284526020838301011161114b57816000926020809301838601378301015290565b6001600160401b0381116111715760051b60200190565b9080601f8301121561114b578135611217816111e9565b926112256040519485611150565b81845260208085019260051b8201019183831161114b5760208201905b83821061125157505050505090565b81356001600160401b03811161114b57602091611273878480948801016111a2565b815201910190611242565b9080601f8301121561114b578135611295816111e9565b926112a36040519485611150565b81845260208085019260051b82010192831161114b57602001905b8282106112cb5750505090565b81358152602091820191016112be565b156112e257565b60405162461bcd60e51b8152602060048201526013602482015272125b9d985b1a59081c1c9bdc1bdcd85b081251606a1b6044820152606490fd5b60055481101561133c5760056000526009602060002091020190600090565b634e487b7160e01b600052603260045260246000fd5b1561135957565b60405162461bcd60e51b8152602060048201526014602482015273092dcecc2d8d2c840dee0e8d2dedc40d2dcc8caf60631b6044820152606490fd5b805482101561133c5760005260206000200190600090565b9060046113c46113d79361010e60055482106112db565b50016113d281548310611352565b611395565b505490565b919082018092116113e957565b634e487b7160e01b600052601160045260246000fd5b6114109061010e60055482106112db565b5080546000929183918281156114955760045480830292830403611481576004819301908154935b8481106114485750505050509190565b816114538285611395565b505411611463575b600101611438565b96505092506114728584611395565b5054818110159593908461145b565b634e487b7160e01b81526011600452602490fd5b94505050508190565b60005b8381106114b15750506000910152565b81810151838201526020016114a1565b805182101561133c5760209160051b010190565b906020916114ee8151809281855285808601910161149e565b601f01601f1916010190565b906020808351928381520192019060005b8181106115185750505090565b825184526020938401939092019160010161150b56fea2646970667358221220ece3d0ee4fd151fdf9ce47dcf66e87dcc268bc9ddfcc01e72fb45d4576109dbf64736f6c634300081a0033","linkReferences":{}},"methodIdentifiers":{"DirectDemocracyToken()":"a44a3d72","announceWinner(uint256)":"3a6e157b","createProposal(string,string,uint256,string[],uint256,address,uint256,bool,address,bool,address[],string[])":"428932c3","elections()":"86a01aac","getOptionVotes(uint256,uint256)":"e7ea088f","getOptionsCount(uint256)":"517a6257","getProposal(uint256)":"c7f758a8","getProposalOptionVotes(uint256,uint256)":"08ef909d","getProposalsCount()":"98e527d3","getWinner(uint256)":"4129b2c9","nftMembership()":"a2b2b4d4","quorumPercentage()":"4fa76ec9","setElectionsContract(address)":"911b0d00","treasury()":"61d027b3","vote(uint256,address,uint256[],uint256[])":"61953300"},"id":44}