{"abi":[{"type":"constructor","inputs":[{"name":"_token","type":"address","internalType":"address"},{"name":"_nftMembership","type":"address","internalType":"address"}],"stateMutability":"nonpayable"},{"type":"function","name":"completeModule","inputs":[{"name":"_moduleId","type":"uint256","internalType":"uint256"},{"name":"_answer","type":"uint8","internalType":"uint8"}],"outputs":[],"stateMutability":"nonpayable"},{"type":"function","name":"completedModules","inputs":[{"name":"","type":"address","internalType":"address"},{"name":"","type":"uint256","internalType":"uint256"}],"outputs":[{"name":"","type":"bool","internalType":"bool"}],"stateMutability":"view"},{"type":"function","name":"createModule","inputs":[{"name":"_name","type":"string","internalType":"string"},{"name":"_ipfsHash","type":"string","internalType":"string"},{"name":"_payout","type":"uint256","internalType":"uint256"},{"name":"_correctAnswer","type":"uint8","internalType":"uint8"}],"outputs":[],"stateMutability":"nonpayable"},{"type":"function","name":"modules","inputs":[{"name":"","type":"uint256","internalType":"uint256"}],"outputs":[{"name":"id","type":"uint256","internalType":"uint256"},{"name":"name","type":"string","internalType":"string"},{"name":"ipfsHash","type":"string","internalType":"string"},{"name":"exists","type":"bool","internalType":"bool"},{"name":"payout","type":"uint256","internalType":"uint256"},{"name":"correctAnswer","type":"uint8","internalType":"uint8"}],"stateMutability":"view"},{"type":"function","name":"nextModuleId","inputs":[],"outputs":[{"name":"","type":"uint256","internalType":"uint256"}],"stateMutability":"view"},{"type":"function","name":"nftMembership","inputs":[],"outputs":[{"name":"","type":"address","internalType":"contract INFTMembership11"}],"stateMutability":"view"},{"type":"function","name":"removeModule","inputs":[{"name":"_moduleId","type":"uint256","internalType":"uint256"}],"outputs":[],"stateMutability":"nonpayable"},{"type":"function","name":"token","inputs":[],"outputs":[{"name":"","type":"address","internalType":"contract IParticipationToken2"}],"stateMutability":"view"},{"type":"event","name":"ModuleCompleted","inputs":[{"name":"id","type":"uint256","indexed":true,"internalType":"uint256"},{"name":"completer","type":"address","indexed":true,"internalType":"address"}],"anonymous":false},{"type":"event","name":"ModuleCreated","inputs":[{"name":"id","type":"uint256","indexed":true,"internalType":"uint256"},{"name":"name","type":"string","indexed":false,"internalType":"string"},{"name":"ipfsHash","type":"string","indexed":false,"internalType":"string"},{"name":"payout","type":"uint256","indexed":false,"internalType":"uint256"},{"name":"correctAnswer","type":"uint8","indexed":false,"internalType":"uint8"}],"anonymous":false}],"bytecode":{"object":"0x608034608657601f610df638819003918201601f19168301916001600160401b03831184841017608b578084926040948552833981010312608657604b602060458360a1565b920160a1565b600380546001600160a01b039384166001600160a01b03199182161790915560048054929093169116179055604051610d4190816100b58239f35b600080fd5b634e487b7160e01b600052604160045260246000fd5b51906001600160a01b038216820360865756fe608080604052600436101561001357600080fd5b600090813560e01c90816337e15d141461075b5750806381b2248a146106c757806394b21ee8146106a9578063a2b2b4d414610680578063a5fb8e6c146101d9578063d1e9875514610189578063d8e55e14146100a45763fc0c546a1461007957600080fd5b346100a157806003193601126100a1576003546040516001600160a01b039091168152602090f35b80fd5b50346100a15760203660031901126100a157600480546040516347a5b3df60e01b8152338184015291359190602090829060249082906001600160a01b03165afa801561017e576100fc91849161014f575b50610c66565b8082528160205261011660ff600360408520015416610c0a565b8152806020528060056040822082815561013260018201610cbc565b61013e60028201610cbc565b826003820155826004820155015580f35b610171915060203d602011610177575b6101698183610a94565b810190610c4e565b386100f6565b503d61015f565b6040513d85823e3d90fd5b50346100a15760403660031901126100a1576004356001600160a01b038116908190036101d55760408260ff926020945260018452818120602435825284522054166040519015158152f35b5080fd5b50346100a15760803660031901126100a15760043567ffffffffffffffff81116101d55761020b903690600401610bbe565b60243567ffffffffffffffff811161067c5761022b903690600401610bbe565b9060443560643560ff8116809103610678576024602060018060a01b0360045416604051928380926347a5b3df60e01b82523360048301525afa801561066d5761027b91879161014f5750610c66565b81156106295760025493600019851461061557600185016002558486528560205260ff6003604088200154166105d8576040516102b781610a62565b8581526020810190858252604081018381526060820160018152608083019187835260a08401948786528a8c528b60205260408c2094518555600185019051805167ffffffffffffffff81116105c4578d6103128454610a28565b601f8111610594575b50508d602090601f8311600114610531579061034c938361043f575b50508160011b916000199060031b1c19161790565b90555b518051600285019167ffffffffffffffff821161051d578c6103718454610a28565b601f81116104e2575b50506020908d601f841160011461044a579460ff946103e3857f153f5245b01b835b9b92ef1de5dd512ea5337f8fd2ce0bfdb20d89d10daa469d9f9d9b98966104209f9d9a959661042e9c976005999261043f5750508160011b916000199060031b1c19161790565b90555b600383019051151585801983541691161790555160048201550191511660ff19825416179055604051958695608087526080870190610b7d565b908582036020870152610b7d565b91604084015260608301520390a280f35b015190503880610337565b9190601f198416858452828420935b8181106104ca5750946001857f153f5245b01b835b9b92ef1de5dd512ea5337f8fd2ce0bfdb20d89d10daa469d9f9d9b9893956104209f9d9a9561042e9c9760059960ff9b106104b1575b505050811b0190556103e6565b015160001960f88460031b161c191690553880806104a4565b92936020600181928786015181550195019301610459565b6020828661050c945220601f850160051c81019160208610610513575b601f0160051c0190610ca5565b8c3861037a565b90915081906104ff565b634e487b7160e01b8d52604160045260248dfd5b9192601f198416858452828420935b81811061057c5750908460019594939210610563575b505050811b01905561034f565b015160001960f88460031b161c19169055388080610556565b92936020600181928786015181550195019301610540565b602082866105bd945220601f840160051c8101916020851061051357601f0160051c0190610ca5565b8d3861031b565b634e487b7160e01b8e52604160045260248efd5b60405162461bcd60e51b81526020600482015260156024820152744d6f64756c6520616c72656164792065786973747360581b6044820152606490fd5b634e487b7160e01b86526011600452602486fd5b606460405162461bcd60e51b815260206004820152602060248201527f5061796f7574206d7573742062652067726561746572207468616e207a65726f6044820152fd5b6040513d88823e3d90fd5b8480fd5b8280fd5b50346100a157806003193601126100a1576004546040516001600160a01b039091168152602090f35b50346100a157806003193601126100a1576020600254604051908152f35b50346100a15760203660031901126100a1576040906004358152806020522080546106f460018301610ab6565b9161070160028201610ab6565b60ff6003830154169161074560ff600560048401549301541692610737604051978897885260c0602089015260c0880190610b7d565b908682036040880152610b7d565b9215156060850152608084015260a08301520390f35b82346100a15760403660031901126100a157600435916024359060ff821680920361067c57828160248160018060a01b0360045416630eef043160e31b82523360048301525afa90811561017e5783916109a9575b5051156109755782825281602052604082209060ff6040516107d181610a62565b835481526107e160018501610ab6565b60208201526107f260028501610ab6565b604082015261082882600386015416151580606084015260a084600560048901549860808701998a520154169301928352610c0a565b51160361093d5733825260016020526040822083835260205260ff6040832054166108f85760018060a01b03600354169051813b1561067c5782916044839260405194859384926340c10f1960e01b845233600485015260248401525af180156108ed576108dd575b509033825260016020526040822081835260205260408220600160ff1982541617905533907f42c7939b3ed3769a388b050bf0077285dee50de838915bca73e67d4a3847afb98380a380f35b816108e791610a94565b82610891565b6040513d84823e3d90fd5b60405162461bcd60e51b815260206004820152601860248201527f4d6f64756c6520616c726561647920636f6d706c6574656400000000000000006044820152606490fd5b60405162461bcd60e51b815260206004820152601060248201526f24b731b7b93932b1ba1030b739bbb2b960811b6044820152606490fd5b60405162461bcd60e51b815260206004820152600c60248201526b2737ba10309036b2b6b132b960a11b6044820152606490fd5b90503d8084833e6109ba8183610a94565b810190602081830312610a245780519067ffffffffffffffff8211610678570181601f82011215610a24578051906109f182610ba2565b926109ff6040519485610a94565b828452602083830101116106785790610a1e9160208085019101610b5a565b846107b0565b8380fd5b90600182811c92168015610a58575b6020831014610a4257565b634e487b7160e01b600052602260045260246000fd5b91607f1691610a37565b60c0810190811067ffffffffffffffff821117610a7e57604052565b634e487b7160e01b600052604160045260246000fd5b90601f8019910116810190811067ffffffffffffffff821117610a7e57604052565b9060405191826000825492610aca84610a28565b8084529360018116908115610b385750600114610af1575b50610aef92500383610a94565b565b90506000929192526020600020906000915b818310610b1c575050906020610aef9282010138610ae2565b6020919350806001915483858901015201910190918492610b03565b905060209250610aef94915060ff191682840152151560051b82010138610ae2565b60005b838110610b6d5750506000910152565b8181015183820152602001610b5d565b90602091610b9681518092818552858086019101610b5a565b601f01601f1916010190565b67ffffffffffffffff8111610a7e57601f01601f191660200190565b81601f82011215610c0557803590610bd582610ba2565b92610be36040519485610a94565b82845260208383010111610c0557816000926020809301838601378301015290565b600080fd5b15610c1157565b60405162461bcd60e51b8152602060048201526015602482015274135bd91d5b1948191bd95cc81b9bdd08195e1a5cdd605a1b6044820152606490fd5b90816020910312610c0557518015158103610c055790565b15610c6d57565b60405162461bcd60e51b815260206004820152601060248201526f4e6f7420616e2065786563757469766560801b6044820152606490fd5b818110610cb0575050565b60008155600101610ca5565b610cc68154610a28565b9081610cd0575050565b81601f60009311600114610ce2575055565b81835260208320610cfe91601f0160051c810190600101610ca5565b808252816020812091555556fea264697066735822122062c83fd5d472e253306fe516baef36e52525261ccb9b45c5c98daacc7dbef76c64736f6c634300081a0033","linkReferences":{}},"methodIdentifiers":{"completeModule(uint256,uint8)":"37e15d14","completedModules(address,uint256)":"d1e98755","createModule(string,string,uint256,uint8)":"a5fb8e6c","modules(uint256)":"81b2248a","nextModuleId()":"94b21ee8","nftMembership()":"a2b2b4d4","removeModule(uint256)":"d8e55e14","token()":"fc0c546a"},"id":46}