{"abi":[{"type":"function","name":"createElectionContract","inputs":[{"name":"_nftMembership","type":"address","internalType":"address"},{"name":"_votingContractAddress","type":"address","internalType":"address"},{"name":"POname","type":"string","internalType":"string"}],"outputs":[{"name":"","type":"address","internalType":"address"}],"stateMutability":"nonpayable"},{"type":"event","name":"ElectionContractCreated","inputs":[{"name":"electionContractAddress","type":"address","indexed":true,"internalType":"address"},{"name":"nftMembershipAddress","type":"address","indexed":true,"internalType":"address"},{"name":"votingContractAddress","type":"address","indexed":false,"internalType":"address"},{"name":"POname","type":"string","indexed":false,"internalType":"string"}],"anonymous":false}],"bytecode":{"object":"0x60808060405234601557611066908161001b8239f35b600080fdfe608080604052600436101561001357600080fd5b60003560e01c63da51ced61461002857600080fd5b346101c95760603660031901126101c9576004356001600160a01b03811691908290036101c9576024356001600160a01b03811692908390036101c95760443567ffffffffffffffff81116101c957366023820112156101c95780600401359067ffffffffffffffff82116101b357601f8201601f19908116603f0116840167ffffffffffffffff8111858210176101b35760405281845236602483830101116101c957816000926024602093018387013784010152604051610e628082019082821067ffffffffffffffff8311176101b35760409183916101cf83398481528660208201520301906000f09283156101a7576040805191825260208281018290528451918301829052946001600160a01b0316938492919060005b82811061019057505090606081836000837fb59b6af879c5c2d33921aabeadb416840c05c6e50c48f20105e6b86994853e529684010152601f80199101168101030190a3604051908152f35b808201880151818501606001528694508701610144565b6040513d6000823e3d90fd5b634e487b7160e01b600052604160045260246000fd5b600080fdfe608034608657601f610e6238819003918201601f19168301916001600160401b03831184841017608b578084926040948552833981010312608657604b602060458360a1565b920160a1565b600080546001600160a01b039384166001600160a01b03199182161790915560018054929093169116179055604051610dad90816100b58239f35b600080fd5b634e487b7160e01b600052604160045260246000fd5b51906001600160a01b038216820360865756fe6080604052600436101561001257600080fd5b6000803560e01c80633e39a7a5146108b55780635e6fef011461088d578063a2b2b4d414610866578063af2991f01461083c578063c1fc006a14610813578063c912869d1461059a578063ce3967371461038f578063e1f8792b1461016c578063e6ecbc6314610146578063e8ededa6146100f25763f60499241461009657600080fd5b346100ef5760203660031901126100ef576100bf6004356100ba6003548210610b3f565b610ab6565b50805460018201546002909201546040805160ff9384161515815260208101949094529116151590820152606090f35b80fd5b50346100ef5760203660031901126100ef576040906004356101176003548210610b3f565b60ff6002610132600161012985610ab6565b50015493610ab6565b500154169083519250825215156020820152f35b50346100ef57806003193601126100ef57602060ff60015460a01c166040519015158152f35b50346100ef5760603660031901126100ef576024356001600160a01b0381169081900361038b576044359067ffffffffffffffff821161037357366023830112156103735781600401359167ffffffffffffffff8311610377578390604051936101e06020601f19601f8401160186610b1d565b80855236602482840101116103735780602460209301838701378401015261021360018060a01b03600154163314610bbb565b600435835260026020526040832054916102306003548410610b3f565b60ff61023b84610ab6565b5054161561033557600361024e84610ab6565b50016040519061025d82610aeb565b838252826020830152805490600160401b821015610321579061028591600182018155610d5b565b61030d579061029391610c32565b600361029e84610ab6565b5001546000198101919082116102f957906102f37f8621655278db2ba8b4722f9e3d9e21eedf8547ab746c4aa6a9c3216ff5be8f24939260405193849384526020840152606060408401526060830190610a75565b0390a280f35b634e487b7160e01b85526011600452602485fd5b634e487b7160e01b86526004869052602486fd5b634e487b7160e01b87526041600452602487fd5b60405162461bcd60e51b8152602060048201526016602482015275456c656374696f6e206973206e6f742061637469766560501b6044820152606490fd5b8280fd5b634e487b7160e01b84526041600452602484fd5b5080fd5b50346100ef5760403660031901126100ef576024356103b960018060a01b03600154163314610bbb565b600435825260026020526040822054906103d66003548310610b3f565b60ff6103e183610ab6565b50541615610555578060036103f584610ab6565b500154111561051757600261040983610ab6565b5060ff19815416815582600182015501600160ff198254161790558260018060a01b0381541661044583600361043e87610ab6565b5001610d5b565b50546001600160a01b031690803b1561037357608483926040519485938492633ab2af8560e21b8452600484015260406024840152600960448401526845786563757469766560b81b60648401525af1801561050c576104d5575b5060407f7702a42ac6cd196f98429cc576e264c537e176edfc9ed02785afb4665550273e91815190815260016020820152a280f35b836105047f7702a42ac6cd196f98429cc576e264c537e176edfc9ed02785afb4665550273e9395604093610b1d565b9391506104a0565b6040513d86823e3d90fd5b60405162461bcd60e51b815260206004820152601660248201527524b73b30b634b2103bb4b73734b7339037b83a34b7b760511b6044820152606490fd5b60405162461bcd60e51b815260206004820152601d60248201527f456c656374696f6e20697320616c726561647920636f6e636c756465640000006044820152606490fd5b50346100ef5760203660031901126100ef576004356105c460018060a01b03600154163314610bbb565b6040516080810181811067ffffffffffffffff8211176103775760405260208101908382526040810184815260608201926060845260018352600354600160401b8110156103215780600161061c9201600355610ab6565b9390936107ff57916106629161064460039594511515859060ff801983541691151516179055565b516001840155511515600283019060ff801983541691151516179055565b01905190815191600160401b83116107eb578154838355808410610730575b506020019084526020842084915b83831061071257858560035460001981019081116106fe57818352600260205260408320556003546000198101919082116106fe5760409250807f9bd8efb2f619c1191776b58dd410ef81e29be036d21bb19c4e2e0261d2d5668160208551858152a282519182526020820152f35b634e487b7160e01b83526011600452602483fd5b60026020826107246001945186610c32565b0192019201919061068f565b6001600160ff1b03811681036107d7576001600160ff1b03841684036107d757828652602086209060011b8101908460011b015b8181106107715750610681565b80876002925587600182016107868154610b81565b80610795575b50505001610764565b601f81116001146107ab5750555b87388061078c565b818352602083206107c791601f0160051c810190600101610c1b565b80825281602081209155556107a3565b634e487b7160e01b86526011600452602486fd5b634e487b7160e01b85526041600452602485fd5b634e487b7160e01b87526004879052602487fd5b50346100ef57806003193601126100ef576001546040516001600160a01b039091168152602090f35b50346100ef5760203660031901126100ef5760406020916004358152600283522054604051908152f35b50346100ef57806003193601126100ef57546040516001600160a01b039091168152602090f35b50346100ef5760203660031901126100ef5760043560035481101561038b576100bf90610ab6565b50346100ef5760203660031901126100ef5760036108db6004356100ba83548210610b3f565b5001805467ffffffffffffffff8111610a61576040519061090260208260051b0183610b1d565b8082526020820190819385526020852085925b82841061099957868587604051928392602084019060208552518091526040840160408260051b8601019392905b82821061095257505050500390f35b919360019193955060206109898192603f198a82030186526040838a51878060a01b03815116845201519181858201520190610a75565b9601920192018594939192610943565b6040516109a581610aeb565b82546001600160a01b031681526040516001840180548a916109c682610b81565b8085529160018116908115610a3c5750600114610a07575b505092600292826109f56020946001970382610b1d565b83820152815201920193019290610915565b8b5260208b208b92505b818310610a26575050810160200182826109de565b6001816020925483868801015201920191610a11565b60ff191660208087019190915292151560051b850190920192508491508390506109de565b634e487b7160e01b83526041600452602483fd5b919082519283825260005b848110610aa1575050826000602080949584010152601f8019910116010190565b80602080928401015182828601015201610a80565b600354811015610ad557600360005260206000209060021b0190600090565b634e487b7160e01b600052603260045260246000fd5b6040810190811067ffffffffffffffff821117610b0757604052565b634e487b7160e01b600052604160045260246000fd5b90601f8019910116810190811067ffffffffffffffff821117610b0757604052565b15610b4657565b60405162461bcd60e51b8152602060048201526013602482015272125b9d985b1a5908195b1958dd1a5bdb881251606a1b6044820152606490fd5b90600182811c92168015610bb1575b6020831014610b9b57565b634e487b7160e01b600052602260045260246000fd5b91607f1691610b90565b15610bc257565b60405162461bcd60e51b815260206004820152602b60248201527f4f6e6c7920766f74696e6720636f6e74726163742063616e2063616c6c20746860448201526a34b990333ab731ba34b7b760a91b6064820152608490fd5b818110610c26575050565b60008155600101610c1b565b815181546001600160a01b0319166001600160a01b03919091161781556020919091015180519092916001019067ffffffffffffffff8111610b0757610c788254610b81565b601f8111610d1e575b506020601f8211600114610cbc5781929394600092610cb1575b50508160011b916000199060031b1c1916179055565b015190503880610c9b565b601f1982169083600052806000209160005b818110610d0657509583600195969710610ced575b505050811b019055565b015160001960f88460031b161c19169055388080610ce3565b9192602060018192868b015181550194019201610cce565b610d4b90836000526020600020601f840160051c81019160208510610d51575b601f0160051c0190610c1b565b38610c81565b9091508190610d3e565b8054821015610ad55760005260206000209060011b019060009056fea2646970667358221220f9131ac216ba26cea431df8e5ba4b566afede182e0bada541bab33a1cd528ca964736f6c634300081a0033a2646970667358221220fc8312f9216178c133ebbb89613ebc731c1569660175fe4696189c23f469d1bf64736f6c634300081a0033","linkReferences":{}},"methodIdentifiers":{"createElectionContract(address,address,string)":"da51ced6"},"id":47}