{
  "_format": "hh-sol-artifact-1",
  "contractName": "HybridVoting",
  "sourceName": "contracts/HybridVoting.sol",
  "abi": [
    {
      "inputs": [
        {
          "internalType": "address",
          "name": "_ParticipationToken",
          "type": "address"
        },
        {
          "internalType": "address",
          "name": "_DemocracyToken",
          "type": "address"
        },
        {
          "internalType": "address",
          "name": "_nftMembership",
          "type": "address"
        },
        {
          "internalType": "string[]",
          "name": "_allowedRoleNames",
          "type": "string[]"
        },
        {
          "internalType": "bool",
          "name": "_quadraticVotingEnabled",
          "type": "bool"
        },
        {
          "internalType": "uint256",
          "name": "_democracyVoteWeight",
          "type": "uint256"
        },
        {
          "internalType": "uint256",
          "name": "_participationVoteWeight",
          "type": "uint256"
        },
        {
          "internalType": "address",
          "name": "_treasuryAddress",
          "type": "address"
        },
        {
          "internalType": "uint256",
          "name": "_quorumPercentage",
          "type": "uint256"
        }
      ],
      "stateMutability": "nonpayable",
      "type": "constructor"
    },
    {
      "anonymous": false,
      "inputs": [
        {
          "indexed": true,
          "internalType": "uint256",
          "name": "proposalId",
          "type": "uint256"
        },
        {
          "indexed": false,
          "internalType": "string",
          "name": "name",
          "type": "string"
        },
        {
          "indexed": false,
          "internalType": "string",
          "name": "description",
          "type": "string"
        },
        {
          "indexed": false,
          "internalType": "uint256",
          "name": "timeInMinutes",
          "type": "uint256"
        },
        {
          "indexed": false,
          "internalType": "uint256",
          "name": "creationTimestamp",
          "type": "uint256"
        },
        {
          "indexed": false,
          "internalType": "uint256",
          "name": "transferTriggerOptionIndex",
          "type": "uint256"
        },
        {
          "indexed": false,
          "internalType": "address",
          "name": "transferRecipient",
          "type": "address"
        },
        {
          "indexed": false,
          "internalType": "uint256",
          "name": "transferAmount",
          "type": "uint256"
        },
        {
          "indexed": false,
          "internalType": "bool",
          "name": "transferEnabled",
          "type": "bool"
        },
        {
          "indexed": false,
          "internalType": "address",
          "name": "transferToken",
          "type": "address"
        }
      ],
      "name": "NewProposal",
      "type": "event"
    },
    {
      "anonymous": false,
      "inputs": [
        {
          "indexed": true,
          "internalType": "uint256",
          "name": "proposalId",
          "type": "uint256"
        },
        {
          "indexed": true,
          "internalType": "uint256",
          "name": "optionIndex",
          "type": "uint256"
        },
        {
          "indexed": false,
          "internalType": "string",
          "name": "name",
          "type": "string"
        }
      ],
      "name": "PollOptionNames",
      "type": "event"
    },
    {
      "anonymous": false,
      "inputs": [
        {
          "indexed": true,
          "internalType": "uint256",
          "name": "proposalId",
          "type": "uint256"
        },
        {
          "indexed": true,
          "internalType": "address",
          "name": "voter",
          "type": "address"
        },
        {
          "indexed": false,
          "internalType": "uint256",
          "name": "optionIndex",
          "type": "uint256"
        },
        {
          "indexed": false,
          "internalType": "uint256",
          "name": "voteWeightPT",
          "type": "uint256"
        },
        {
          "indexed": false,
          "internalType": "uint256",
          "name": "voteWeightDDT",
          "type": "uint256"
        }
      ],
      "name": "Voted",
      "type": "event"
    },
    {
      "anonymous": false,
      "inputs": [
        {
          "indexed": true,
          "internalType": "uint256",
          "name": "proposalId",
          "type": "uint256"
        },
        {
          "indexed": false,
          "internalType": "uint256",
          "name": "winningOptionIndex",
          "type": "uint256"
        },
        {
          "indexed": false,
          "internalType": "bool",
          "name": "hasValidWinner",
          "type": "bool"
        }
      ],
      "name": "WinnerAnnounced",
      "type": "event"
    },
    {
      "inputs": [],
      "name": "DirectDemocracyToken",
      "outputs": [
        {
          "internalType": "contract IERC20",
          "name": "",
          "type": "address"
        }
      ],
      "stateMutability": "view",
      "type": "function"
    },
    {
      "inputs": [],
      "name": "ParticipationToken",
      "outputs": [
        {
          "internalType": "contract IERC20",
          "name": "",
          "type": "address"
        }
      ],
      "stateMutability": "view",
      "type": "function"
    },
    {
      "inputs": [
        {
          "internalType": "uint256",
          "name": "_proposalId",
          "type": "uint256"
        }
      ],
      "name": "announceWinner",
      "outputs": [],
      "stateMutability": "nonpayable",
      "type": "function"
    },
    {
      "inputs": [
        {
          "internalType": "string",
          "name": "_name",
          "type": "string"
        },
        {
          "internalType": "string",
          "name": "_description",
          "type": "string"
        },
        {
          "internalType": "uint256",
          "name": "_timeInMinutes",
          "type": "uint256"
        },
        {
          "internalType": "string[]",
          "name": "_optionNames",
          "type": "string[]"
        },
        {
          "internalType": "uint256",
          "name": "_transferTriggerOptionIndex",
          "type": "uint256"
        },
        {
          "internalType": "address payable",
          "name": "_transferRecipient",
          "type": "address"
        },
        {
          "internalType": "uint256",
          "name": "_transferAmount",
          "type": "uint256"
        },
        {
          "internalType": "bool",
          "name": "_transferEnabled",
          "type": "bool"
        },
        {
          "internalType": "address",
          "name": "_transferToken",
          "type": "address"
        }
      ],
      "name": "createProposal",
      "outputs": [],
      "stateMutability": "nonpayable",
      "type": "function"
    },
    {
      "inputs": [],
      "name": "democracyVoteWeight",
      "outputs": [
        {
          "internalType": "uint256",
          "name": "",
          "type": "uint256"
        }
      ],
      "stateMutability": "view",
      "type": "function"
    },
    {
      "inputs": [
        {
          "internalType": "uint256",
          "name": "_proposalId",
          "type": "uint256"
        },
        {
          "internalType": "uint256",
          "name": "_optionIndex",
          "type": "uint256"
        }
      ],
      "name": "getOptionVotes",
      "outputs": [
        {
          "internalType": "uint256",
          "name": "votesPT",
          "type": "uint256"
        },
        {
          "internalType": "uint256",
          "name": "votesDDT",
          "type": "uint256"
        }
      ],
      "stateMutability": "view",
      "type": "function"
    },
    {
      "inputs": [
        {
          "internalType": "uint256",
          "name": "_proposalId",
          "type": "uint256"
        }
      ],
      "name": "getOptionsCount",
      "outputs": [
        {
          "internalType": "uint256",
          "name": "",
          "type": "uint256"
        }
      ],
      "stateMutability": "view",
      "type": "function"
    },
    {
      "inputs": [],
      "name": "nftMembership",
      "outputs": [
        {
          "internalType": "contract INFTMembership3",
          "name": "",
          "type": "address"
        }
      ],
      "stateMutability": "view",
      "type": "function"
    },
    {
      "inputs": [],
      "name": "participationVoteWeight",
      "outputs": [
        {
          "internalType": "uint256",
          "name": "",
          "type": "uint256"
        }
      ],
      "stateMutability": "view",
      "type": "function"
    },
    {
      "inputs": [],
      "name": "quadraticVotingEnabled",
      "outputs": [
        {
          "internalType": "bool",
          "name": "",
          "type": "bool"
        }
      ],
      "stateMutability": "view",
      "type": "function"
    },
    {
      "inputs": [],
      "name": "quorumPercentage",
      "outputs": [
        {
          "internalType": "uint256",
          "name": "",
          "type": "uint256"
        }
      ],
      "stateMutability": "view",
      "type": "function"
    },
    {
      "inputs": [],
      "name": "treasury",
      "outputs": [
        {
          "internalType": "contract ITreasury2",
          "name": "",
          "type": "address"
        }
      ],
      "stateMutability": "view",
      "type": "function"
    },
    {
      "inputs": [
        {
          "internalType": "uint256",
          "name": "_proposalId",
          "type": "uint256"
        },
        {
          "internalType": "address",
          "name": "_voter",
          "type": "address"
        },
        {
          "internalType": "uint256",
          "name": "_optionIndex",
          "type": "uint256"
        }
      ],
      "name": "vote",
      "outputs": [],
      "stateMutability": "nonpayable",
      "type": "function"
    }
  ],
  "bytecode": "0x608060405260326004553480156200001657600080fd5b506040516200299d3803806200299d83398181016040528101906200003c919062000563565b80600481905550886000806101000a81548173ffffffffffffffffffffffffffffffffffffffff021916908373ffffffffffffffffffffffffffffffffffffffff16021790555087600160006101000a81548173ffffffffffffffffffffffffffffffffffffffff021916908373ffffffffffffffffffffffffffffffffffffffff16021790555086600260006101000a81548173ffffffffffffffffffffffffffffffffffffffff021916908373ffffffffffffffffffffffffffffffffffffffff16021790555060005b86518110156200017e57600160088883815181106200012c576200012b62000661565b5b6020026020010151604051620001439190620006dd565b908152602001604051809103902060006101000a81548160ff0219169083151502179055508080620001759062000725565b91505062000108565b5084600960006101000a81548160ff021916908315150217905550836006819055508260078190555081600360006101000a81548173ffffffffffffffffffffffffffffffffffffffff021916908373ffffffffffffffffffffffffffffffffffffffff16021790555050505050505050505062000772565b6000604051905090565b600080fd5b600080fd5b600073ffffffffffffffffffffffffffffffffffffffff82169050919050565b600062000238826200020b565b9050919050565b6200024a816200022b565b81146200025657600080fd5b50565b6000815190506200026a816200023f565b92915050565b600080fd5b6000601f19601f8301169050919050565b7f4e487b7100000000000000000000000000000000000000000000000000000000600052604160045260246000fd5b620002c08262000275565b810181811067ffffffffffffffff82111715620002e257620002e162000286565b5b80604052505050565b6000620002f7620001f7565b9050620003058282620002b5565b919050565b600067ffffffffffffffff82111562000328576200032762000286565b5b602082029050602081019050919050565b600080fd5b600080fd5b600067ffffffffffffffff82111562000361576200036062000286565b5b6200036c8262000275565b9050602081019050919050565b60005b83811015620003995780820151818401526020810190506200037c565b60008484015250505050565b6000620003bc620003b68462000343565b620002eb565b905082815260208101848484011115620003db57620003da6200033e565b5b620003e884828562000379565b509392505050565b600082601f83011262000408576200040762000270565b5b81516200041a848260208601620003a5565b91505092915050565b60006200043a62000434846200030a565b620002eb565b9050808382526020820190506020840283018581111562000460576200045f62000339565b5b835b81811015620004ae57805167ffffffffffffffff81111562000489576200048862000270565b5b808601620004988982620003f0565b8552602085019450505060208101905062000462565b5050509392505050565b600082601f830112620004d057620004cf62000270565b5b8151620004e284826020860162000423565b91505092915050565b60008115159050919050565b6200050281620004eb565b81146200050e57600080fd5b50565b6000815190506200052281620004f7565b92915050565b6000819050919050565b6200053d8162000528565b81146200054957600080fd5b50565b6000815190506200055d8162000532565b92915050565b60008060008060008060008060006101208a8c03121562000589576200058862000201565b5b6000620005998c828d0162000259565b9950506020620005ac8c828d0162000259565b9850506040620005bf8c828d0162000259565b97505060608a015167ffffffffffffffff811115620005e357620005e262000206565b5b620005f18c828d01620004b8565b9650506080620006048c828d0162000511565b95505060a0620006178c828d016200054c565b94505060c06200062a8c828d016200054c565b93505060e06200063d8c828d0162000259565b925050610100620006518c828d016200054c565b9150509295985092959850929598565b7f4e487b7100000000000000000000000000000000000000000000000000000000600052603260045260246000fd5b600081519050919050565b600081905092915050565b6000620006b38262000690565b620006bf81856200069b565b9350620006d181856020860162000379565b80840191505092915050565b6000620006eb8284620006a6565b915081905092915050565b7f4e487b7100000000000000000000000000000000000000000000000000000000600052601160045260246000fd5b6000620007328262000528565b91507fffffffffffffffffffffffffffffffffffffffffffffffffffffffffffffffff8203620007675762000766620006f6565b5b600182019050919050565b61221b80620007826000396000f3fe608060405234801561001057600080fd5b50600436106100cf5760003560e01c806361d027b31161008c578063a44a3d7211610066578063a44a3d72146101ee578063ad5396db1461020c578063e7ea088f1461022a578063f64fca1e1461025b576100cf565b806361d027b3146101945780637221252a146101b2578063a2b2b4d4146101d0576100cf565b806323100186146100d45780633a6e157b146100f257806343ab44d51461010e5780634de8737c1461012a5780634fa76ec914610146578063517a625714610164575b600080fd5b6100dc610279565b6040516100e99190611331565b60405180910390f35b61010c6004803603810190610107919061138c565b61027f565b005b610128600480360381019061012391906116b9565b610598565b005b610144600480360381019061013f91906117d7565b6108df565b005b61014e610dbf565b60405161015b9190611331565b60405180910390f35b61017e6004803603810190610179919061138c565b610dc5565b60405161018b9190611331565b60405180910390f35b61019c610e44565b6040516101a99190611889565b60405180910390f35b6101ba610e6a565b6040516101c791906118c5565b60405180910390f35b6101d8610e8e565b6040516101e59190611901565b60405180910390f35b6101f6610eb4565b60405161020391906118c5565b60405180910390f35b610214610eda565b6040516102219190611331565b60405180910390f35b610244600480360381019061023f919061191c565b610ee0565b60405161025292919061195c565b60405180910390f35b610263610ff5565b6040516102709190611994565b60405180910390f35b60065481565b8060058054905081106102c7576040517f08c379a00000000000000000000000000000000000000000000000000000000081526004016102be90611a0c565b60405180910390fd5b6000600582815481106102dd576102dc611a2c565b5b90600052602060002090600a02019050603c81600301546102fe9190611a8a565b816004015461030d9190611acc565b421161034e576040517f08c379a000000000000000000000000000000000000000000000000000000000815260040161034590611b4c565b60405180910390fd5b6005805490508310610395576040517f08c379a000000000000000000000000000000000000000000000000000000000815260040161038c90611a0c565b60405180910390fd5b6000806103a185611008565b915091508080156103e15750600585815481106103c1576103c0611a2c565b5b90600052602060002090600a020160090160009054906101000a900460ff165b80156104115750600585815481106103fc576103fb611a2c565b5b90600052602060002090600a02016006015482145b1561055757600360009054906101000a900473ffffffffffffffffffffffffffffffffffffffff1673ffffffffffffffffffffffffffffffffffffffff1663e6d66ac86005878154811061046857610467611a2c565b5b90600052602060002090600a020160090160019054906101000a900473ffffffffffffffffffffffffffffffffffffffff16600588815481106104ae576104ad611a2c565b5b90600052602060002090600a020160070160009054906101000a900473ffffffffffffffffffffffffffffffffffffffff16600589815481106104f4576104f3611a2c565b5b90600052602060002090600a0201600801546040518463ffffffff1660e01b815260040161052493929190611b9c565b600060405180830381600087803b15801561053e57600080fd5b505af1158015610552573d6000803e3d6000fd5b505050505b847f80fa758d7c24e927ad76726080b3e8e8ec336147a2e7f4edde3e19d9c94e7c368383604051610589929190611bd3565b60405180910390a25050505050565b6000600260009054906101000a900473ffffffffffffffffffffffffffffffffffffffff1673ffffffffffffffffffffffffffffffffffffffff166377782188336040518263ffffffff1660e01b81526004016105f59190611bfc565b600060405180830381865afa158015610612573d6000803e3d6000fd5b505050506040513d6000823e3d601f19601f8201168201806040525081019061063b9190611cb1565b905060088160405161064d9190611d41565b908152602001604051809103902060009054906101000a900460ff166106a8576040517f08c379a000000000000000000000000000000000000000000000000000000000815260040161069f90611dca565b60405180910390fd5b600060056001816001815401808255809150500390600052602060002090600a020190506000816000018190555060008160010181905550888160030181905550428160040181905550858160070160006101000a81548173ffffffffffffffffffffffffffffffffffffffff021916908373ffffffffffffffffffffffffffffffffffffffff160217905550848160080181905550868160060181905550838160090160006101000a81548160ff021916908315150217905550828160090160016101000a81548173ffffffffffffffffffffffffffffffffffffffff021916908373ffffffffffffffffffffffffffffffffffffffff160217905550600060016005805490506107ba9190611dea565b9050807f02cdbdf6d83224bfc61f2b0e33d9159756d8eaf2dfb75d5e66d2a63cef32e8dc8d8d8d428d8d8d8d8d6040516107fc99989796959493929190611e57565b60405180910390a260005b89518110156108d05782600501604051806040016040528060008152602001600081525090806001815401808255809150506001900390600052602060002090600202016000909190919091506000820151816000015560208201518160010155505080827fd3b5cef521b08344b2f3822456355f6c2603e7f00a271d0215ac4760a401fc488c84815181106108a05761089f611a2c565b5b60200260200101516040516108b59190611ef2565b60405180910390a380806108c890611f14565b915050610807565b50505050505050505050505050565b826005805490508110610927576040517f08c379a000000000000000000000000000000000000000000000000000000000815260040161091e90611a0c565b60405180910390fd5b60006005828154811061093d5761093c611a2c565b5b90600052602060002090600a02019050603c816003015461095e9190611a8a565b816004015461096d9190611acc565b4211156109af576040517f08c379a00000000000000000000000000000000000000000000000000000000081526004016109a690611fa8565b60405180910390fd5b6000600160009054906101000a900473ffffffffffffffffffffffffffffffffffffffff1673ffffffffffffffffffffffffffffffffffffffff166370a08231866040518263ffffffff1660e01b8152600401610a0c9190611bfc565b602060405180830381865afa158015610a29573d6000803e3d6000fd5b505050506040513d601f19601f82011682018060405250810190610a4d9190611fdd565b905060008111610a92576040517f08c379a0000000000000000000000000000000000000000000000000000000008152600401610a8990612056565b60405180910390fd5b60008060009054906101000a900473ffffffffffffffffffffffffffffffffffffffff1673ffffffffffffffffffffffffffffffffffffffff166370a08231876040518263ffffffff1660e01b8152600401610aee9190611bfc565b602060405180830381865afa158015610b0b573d6000803e3d6000fd5b505050506040513d601f19601f82011682018060405250810190610b2f9190611fdd565b90506005805490508710610b78576040517f08c379a0000000000000000000000000000000000000000000000000000000008152600401610b6f90611a0c565b60405180910390fd5b600060058881548110610b8e57610b8d611a2c565b5b90600052602060002090600a020190508060020160008873ffffffffffffffffffffffffffffffffffffffff1673ffffffffffffffffffffffffffffffffffffffff16815260200190815260200160002060009054906101000a900460ff1615610c2d576040517f08c379a0000000000000000000000000000000000000000000000000000000008152600401610c24906120c2565b60405180910390fd5b6000600960009054906101000a900460ff16610c495782610c53565b610c52836112a9565b5b905060018260020160008a73ffffffffffffffffffffffffffffffffffffffff1673ffffffffffffffffffffffffffffffffffffffff16815260200190815260200160002060006101000a81548160ff02191690831515021790555080826000016000828254610cc39190611acc565b9250508190555080826005018881548110610ce157610ce0611a2c565b5b90600052602060002090600202016000016000828254610d019190611acc565b9250508190555083826001016000828254610d1c9190611acc565b9250508190555083826005018881548110610d3a57610d39611a2c565b5b90600052602060002090600202016001016000828254610d5a9190611acc565b925050819055508773ffffffffffffffffffffffffffffffffffffffff16897f7bbc702cfc0c62aaa977159d2c8ff0642f94715abcc34af64106c1b15c2af0a0898488604051610dac939291906120e2565b60405180910390a3505050505050505050565b60045481565b60006005805490508210610e0e576040517f08c379a0000000000000000000000000000000000000000000000000000000008152600401610e0590611a0c565b60405180910390fd5b600060058381548110610e2457610e23611a2c565b5b90600052602060002090600a020190508060050180549050915050919050565b600360009054906101000a900473ffffffffffffffffffffffffffffffffffffffff1681565b60008054906101000a900473ffffffffffffffffffffffffffffffffffffffff1681565b600260009054906101000a900473ffffffffffffffffffffffffffffffffffffffff1681565b600160009054906101000a900473ffffffffffffffffffffffffffffffffffffffff1681565b60075481565b6000806005805490508410610f2a576040517f08c379a0000000000000000000000000000000000000000000000000000000008152600401610f2190611a0c565b60405180910390fd5b600060058581548110610f4057610f3f611a2c565b5b90600052602060002090600a0201905080600501805490508410610f99576040517f08c379a0000000000000000000000000000000000000000000000000000000008152600401610f9090612165565b60405180910390fd5b806005018481548110610faf57610fae611a2c565b5b906000526020600020906002020160000154816005018581548110610fd757610fd6611a2c565b5b90600052602060002090600202016001015492509250509250929050565b600960009054906101000a900460ff1681565b6000806005805490508310611052576040517f08c379a000000000000000000000000000000000000000000000000000000000815260040161104990611a0c565b60405180910390fd5b60006005848154811061106857611067611a2c565b5b90600052602060002090600a02019050600080600080846000015490506000856001015490506000633b9aca009050600080886005018054905067ffffffffffffffff8111156110bb576110ba6113d4565b5b6040519080825280602002602001820160405280156110e95781602001602082028036833780820191505090505b50905060005b896005018054905081101561121a5760008a600501828154811061111657611115611a2c565b5b906000526020600020906002020160000154905060008b600501838154811061114257611141611a2c565b5b9060005260206000209060020201600101549050600080891161116657600061118b565b8887600754856111769190611a8a565b6111809190611a8a565b61118a91906121b4565b5b9050600080891161119d5760006111c2565b8888600654856111ad9190611a8a565b6111b79190611a8a565b6111c191906121b4565b5b9050600081836111d29190611acc565b9050808787815181106111e8576111e7611a2c565b5b60200260200101818152505080886112009190611acc565b97505050505050808061121290611f14565b9150506110ef565b50600060646004548461122d9190611a8a565b61123791906121b4565b905060005b8a600501805490508110156112935760008382815181106112605761125f611a2c565b5b602002602001015190508a81111561127f57809a508199508285101598505b50808061128b90611f14565b91505061123c565b5087879b509b5050505050505050505050915091565b60006112b4826112bb565b9050919050565b60008060026001846112cd9190611acc565b6112d791906121b4565b90508291505b818110156113125780915060028182856112f791906121b4565b6113019190611acc565b61130b91906121b4565b90506112dd565b50919050565b6000819050919050565b61132b81611318565b82525050565b60006020820190506113466000830184611322565b92915050565b6000604051905090565b600080fd5b600080fd5b61136981611318565b811461137457600080fd5b50565b60008135905061138681611360565b92915050565b6000602082840312156113a2576113a1611356565b5b60006113b084828501611377565b91505092915050565b600080fd5b600080fd5b6000601f19601f8301169050919050565b7f4e487b7100000000000000000000000000000000000000000000000000000000600052604160045260246000fd5b61140c826113c3565b810181811067ffffffffffffffff8211171561142b5761142a6113d4565b5b80604052505050565b600061143e61134c565b905061144a8282611403565b919050565b600067ffffffffffffffff82111561146a576114696113d4565b5b611473826113c3565b9050602081019050919050565b82818337600083830152505050565b60006114a261149d8461144f565b611434565b9050828152602081018484840111156114be576114bd6113be565b5b6114c9848285611480565b509392505050565b600082601f8301126114e6576114e56113b9565b5b81356114f684826020860161148f565b91505092915050565b600067ffffffffffffffff82111561151a576115196113d4565b5b602082029050602081019050919050565b600080fd5b600061154361153e846114ff565b611434565b905080838252602082019050602084028301858111156115665761156561152b565b5b835b818110156115ad57803567ffffffffffffffff81111561158b5761158a6113b9565b5b80860161159889826114d1565b85526020850194505050602081019050611568565b5050509392505050565b600082601f8301126115cc576115cb6113b9565b5b81356115dc848260208601611530565b91505092915050565b600073ffffffffffffffffffffffffffffffffffffffff82169050919050565b6000611610826115e5565b9050919050565b61162081611605565b811461162b57600080fd5b50565b60008135905061163d81611617565b92915050565b60008115159050919050565b61165881611643565b811461166357600080fd5b50565b6000813590506116758161164f565b92915050565b6000611686826115e5565b9050919050565b6116968161167b565b81146116a157600080fd5b50565b6000813590506116b38161168d565b92915050565b60008060008060008060008060006101208a8c0312156116dc576116db611356565b5b60008a013567ffffffffffffffff8111156116fa576116f961135b565b5b6117068c828d016114d1565b99505060208a013567ffffffffffffffff8111156117275761172661135b565b5b6117338c828d016114d1565b98505060406117448c828d01611377565b97505060608a013567ffffffffffffffff8111156117655761176461135b565b5b6117718c828d016115b7565b96505060806117828c828d01611377565b95505060a06117938c828d0161162e565b94505060c06117a48c828d01611377565b93505060e06117b58c828d01611666565b9250506101006117c78c828d016116a4565b9150509295985092959850929598565b6000806000606084860312156117f0576117ef611356565b5b60006117fe86828701611377565b935050602061180f868287016116a4565b925050604061182086828701611377565b9150509250925092565b6000819050919050565b600061184f61184a611845846115e5565b61182a565b6115e5565b9050919050565b600061186182611834565b9050919050565b600061187382611856565b9050919050565b61188381611868565b82525050565b600060208201905061189e600083018461187a565b92915050565b60006118af82611856565b9050919050565b6118bf816118a4565b82525050565b60006020820190506118da60008301846118b6565b92915050565b60006118eb82611856565b9050919050565b6118fb816118e0565b82525050565b600060208201905061191660008301846118f2565b92915050565b6000806040838503121561193357611932611356565b5b600061194185828601611377565b925050602061195285828601611377565b9150509250929050565b60006040820190506119716000830185611322565b61197e6020830184611322565b9392505050565b61198e81611643565b82525050565b60006020820190506119a96000830184611985565b92915050565b600082825260208201905092915050565b7f496e76616c69642070726f706f73616c20494400000000000000000000000000600082015250565b60006119f66013836119af565b9150611a01826119c0565b602082019050919050565b60006020820190508181036000830152611a25816119e9565b9050919050565b7f4e487b7100000000000000000000000000000000000000000000000000000000600052603260045260246000fd5b7f4e487b7100000000000000000000000000000000000000000000000000000000600052601160045260246000fd5b6000611a9582611318565b9150611aa083611318565b9250828202611aae81611318565b91508282048414831517611ac557611ac4611a5b565b5b5092915050565b6000611ad782611318565b9150611ae283611318565b9250828201905080821115611afa57611af9611a5b565b5b92915050565b7f566f74696e67206973206e6f742079657420636c6f7365640000000000000000600082015250565b6000611b366018836119af565b9150611b4182611b00565b602082019050919050565b60006020820190508181036000830152611b6581611b29565b9050919050565b611b758161167b565b82525050565b6000611b8682611856565b9050919050565b611b9681611b7b565b82525050565b6000606082019050611bb16000830186611b6c565b611bbe6020830185611b8d565b611bcb6040830184611322565b949350505050565b6000604082019050611be86000830185611322565b611bf56020830184611985565b9392505050565b6000602082019050611c116000830184611b6c565b92915050565b60005b83811015611c35578082015181840152602081019050611c1a565b60008484015250505050565b6000611c54611c4f8461144f565b611434565b905082815260208101848484011115611c7057611c6f6113be565b5b611c7b848285611c17565b509392505050565b600082601f830112611c9857611c976113b9565b5b8151611ca8848260208601611c41565b91505092915050565b600060208284031215611cc757611cc6611356565b5b600082015167ffffffffffffffff811115611ce557611ce461135b565b5b611cf184828501611c83565b91505092915050565b600081519050919050565b600081905092915050565b6000611d1b82611cfa565b611d258185611d05565b9350611d35818560208601611c17565b80840191505092915050565b6000611d4d8284611d10565b915081905092915050565b7f4e6f7420617574686f72697a656420746f206372656174652070726f706f736160008201527f6c00000000000000000000000000000000000000000000000000000000000000602082015250565b6000611db46021836119af565b9150611dbf82611d58565b604082019050919050565b60006020820190508181036000830152611de381611da7565b9050919050565b6000611df582611318565b9150611e0083611318565b9250828203905081811115611e1857611e17611a5b565b5b92915050565b6000611e2982611cfa565b611e3381856119af565b9350611e43818560208601611c17565b611e4c816113c3565b840191505092915050565b6000610120820190508181036000830152611e72818c611e1e565b90508181036020830152611e86818b611e1e565b9050611e95604083018a611322565b611ea26060830189611322565b611eaf6080830188611322565b611ebc60a0830187611b8d565b611ec960c0830186611322565b611ed660e0830185611985565b611ee4610100830184611b6c565b9a9950505050505050505050565b60006020820190508181036000830152611f0c8184611e1e565b905092915050565b6000611f1f82611318565b91507fffffffffffffffffffffffffffffffffffffffffffffffffffffffffffffffff8203611f5157611f50611a5b565b5b600182019050919050565b7f566f74696e672074696d65206578706972656400000000000000000000000000600082015250565b6000611f926013836119af565b9150611f9d82611f5c565b602082019050919050565b60006020820190508181036000830152611fc181611f85565b9050919050565b600081519050611fd781611360565b92915050565b600060208284031215611ff357611ff2611356565b5b600061200184828501611fc8565b91505092915050565b7f4e6f2064656d6f637261637920746f6b656e7300000000000000000000000000600082015250565b60006120406013836119af565b915061204b8261200a565b602082019050919050565b6000602082019050818103600083015261206f81612033565b9050919050565b7f416c726561647920766f74656400000000000000000000000000000000000000600082015250565b60006120ac600d836119af565b91506120b782612076565b602082019050919050565b600060208201905081810360008301526120db8161209f565b9050919050565b60006060820190506120f76000830186611322565b6121046020830185611322565b6121116040830184611322565b949350505050565b7f496e76616c6964206f7074696f6e20696e646578000000000000000000000000600082015250565b600061214f6014836119af565b915061215a82612119565b602082019050919050565b6000602082019050818103600083015261217e81612142565b9050919050565b7f4e487b7100000000000000000000000000000000000000000000000000000000600052601260045260246000fd5b60006121bf82611318565b91506121ca83611318565b9250826121da576121d9612185565b5b82820490509291505056fea264697066735822122045d7bb59ae47fef80a053588c61a2ddbdc3adb5e6174959e06e3d78ca4cf7b8364736f6c63430008140033",
  "linkReferences": {},
  "deployedLinkReferences": {}
}