{
  "_format": "hh-sol-artifact-1",
  "contractName": "HybridVotingFactory",
  "sourceName": "contracts/HybridVotingFactory.sol",
  "abi": [
    {
      "anonymous": false,
      "inputs": [
        {
          "indexed": true,
          "internalType": "address",
          "name": "creator",
          "type": "address"
        },
        {
          "indexed": false,
          "internalType": "address",
          "name": "hybridVotingAddress",
          "type": "address"
        },
        {
          "indexed": false,
          "internalType": "string",
          "name": "POname",
          "type": "string"
        }
      ],
      "name": "HybridVotingContractCreated",
      "type": "event"
    },
    {
      "inputs": [
        {
          "internalType": "address",
          "name": "_ParticipationToken",
          "type": "address"
        },
        {
          "internalType": "address",
          "name": "_DemocracyToken",
          "type": "address"
        },
        {
          "internalType": "address",
          "name": "_nftMembership",
          "type": "address"
        },
        {
          "internalType": "string[]",
          "name": "_allowedRoleNames",
          "type": "string[]"
        },
        {
          "internalType": "bool",
          "name": "_quadraticVotingEnabled",
          "type": "bool"
        },
        {
          "internalType": "uint256",
          "name": "_democracyVoteWeight",
          "type": "uint256"
        },
        {
          "internalType": "uint256",
          "name": "_participationVoteWeight",
          "type": "uint256"
        },
        {
          "internalType": "address",
          "name": "_treasuryAddress",
          "type": "address"
        },
        {
          "internalType": "string",
          "name": "POname",
          "type": "string"
        }
      ],
      "name": "createHybridVoting",
      "outputs": [
        {
          "internalType": "address",
          "name": "",
          "type": "address"
        }
      ],
      "stateMutability": "nonpayable",
      "type": "function"
    }
  ],
  "bytecode": "0x608060405234801561001057600080fd5b50612fa1806100206000396000f3fe60806040523480156200001157600080fd5b50600436106200002e5760003560e01c806360c2a27c1462000033575b600080fd5b6200005160048036038101906200004b919062000475565b62000069565b604051620000609190620005a3565b60405180910390f35b6000808a8a8a8a8a8a8a8a604051620000829062000118565b620000959897969594939291906200073b565b604051809103906000f080158015620000b2573d6000803e3d6000fd5b5090503373ffffffffffffffffffffffffffffffffffffffff167f826655e15d8b0b36044e635fcc6d8cc7cc198df8f3fa0ebf3a9553cfad2f84328285604051620000ff92919062000822565b60405180910390a2809150509998505050505050505050565b612715806200085783390190565b6000604051905090565b600080fd5b600080fd5b600073ffffffffffffffffffffffffffffffffffffffff82169050919050565b600062000167826200013a565b9050919050565b62000179816200015a565b81146200018557600080fd5b50565b60008135905062000199816200016e565b92915050565b600080fd5b6000601f19601f8301169050919050565b7f4e487b7100000000000000000000000000000000000000000000000000000000600052604160045260246000fd5b620001ef82620001a4565b810181811067ffffffffffffffff82111715620002115762000210620001b5565b5b80604052505050565b60006200022662000126565b9050620002348282620001e4565b919050565b600067ffffffffffffffff821115620002575762000256620001b5565b5b602082029050602081019050919050565b600080fd5b600080fd5b600067ffffffffffffffff82111562000290576200028f620001b5565b5b6200029b82620001a4565b9050602081019050919050565b82818337600083830152505050565b6000620002ce620002c88462000272565b6200021a565b905082815260208101848484011115620002ed57620002ec6200026d565b5b620002fa848285620002a8565b509392505050565b600082601f8301126200031a57620003196200019f565b5b81356200032c848260208601620002b7565b91505092915050565b60006200034c620003468462000239565b6200021a565b9050808382526020820190506020840283018581111562000372576200037162000268565b5b835b81811015620003c057803567ffffffffffffffff8111156200039b576200039a6200019f565b5b808601620003aa898262000302565b8552602085019450505060208101905062000374565b5050509392505050565b600082601f830112620003e257620003e16200019f565b5b8135620003f484826020860162000335565b91505092915050565b60008115159050919050565b6200041481620003fd565b81146200042057600080fd5b50565b600081359050620004348162000409565b92915050565b6000819050919050565b6200044f816200043a565b81146200045b57600080fd5b50565b6000813590506200046f8162000444565b92915050565b60008060008060008060008060006101208a8c0312156200049b576200049a62000130565b5b6000620004ab8c828d0162000188565b9950506020620004be8c828d0162000188565b9850506040620004d18c828d0162000188565b97505060608a013567ffffffffffffffff811115620004f557620004f462000135565b5b620005038c828d01620003ca565b9650506080620005168c828d0162000423565b95505060a0620005298c828d016200045e565b94505060c06200053c8c828d016200045e565b93505060e06200054f8c828d0162000188565b9250506101008a013567ffffffffffffffff81111562000574576200057362000135565b5b620005828c828d0162000302565b9150509295985092959850929598565b6200059d816200015a565b82525050565b6000602082019050620005ba600083018462000592565b92915050565b600081519050919050565b600082825260208201905092915050565b6000819050602082019050919050565b600081519050919050565b600082825260208201905092915050565b60005b83811015620006285780820151818401526020810190506200060b565b60008484015250505050565b60006200064182620005ec565b6200064d8185620005f7565b93506200065f81856020860162000608565b6200066a81620001a4565b840191505092915050565b600062000683838362000634565b905092915050565b6000602082019050919050565b6000620006a582620005c0565b620006b18185620005cb565b935083602082028501620006c585620005dc565b8060005b85811015620007075784840389528151620006e5858262000675565b9450620006f2836200068b565b925060208a01995050600181019050620006c9565b50829750879550505050505092915050565b6200072481620003fd565b82525050565b62000735816200043a565b82525050565b60006101008201905062000753600083018b62000592565b62000762602083018a62000592565b62000771604083018962000592565b818103606083015262000785818862000698565b905062000796608083018762000719565b620007a560a08301866200072a565b620007b460c08301856200072a565b620007c360e083018462000592565b9998505050505050505050565b600082825260208201905092915050565b6000620007ee82620005ec565b620007fa8185620007d0565b93506200080c81856020860162000608565b6200081781620001a4565b840191505092915050565b600060408201905062000839600083018562000592565b81810360208301526200084d8184620007e1565b9050939250505056fe60806040523480156200001157600080fd5b506040516200271538038062002715833981810160405281019062000037919062000556565b876000806101000a81548173ffffffffffffffffffffffffffffffffffffffff021916908373ffffffffffffffffffffffffffffffffffffffff16021790555086600160006101000a81548173ffffffffffffffffffffffffffffffffffffffff021916908373ffffffffffffffffffffffffffffffffffffffff16021790555085600260006101000a81548173ffffffffffffffffffffffffffffffffffffffff021916908373ffffffffffffffffffffffffffffffffffffffff16021790555060005b855181101562000172576001600787838151811062000120576200011f6200063e565b5b6020026020010151604051620001379190620006ba565b908152602001604051809103902060006101000a81548160ff0219169083151502179055508080620001699062000702565b915050620000fc565b5083600860006101000a81548160ff021916908315150217905550826005819055508160068190555080600360006101000a81548173ffffffffffffffffffffffffffffffffffffffff021916908373ffffffffffffffffffffffffffffffffffffffff16021790555050505050505050506200074f565b6000604051905090565b600080fd5b600080fd5b600073ffffffffffffffffffffffffffffffffffffffff82169050919050565b60006200022b82620001fe565b9050919050565b6200023d816200021e565b81146200024957600080fd5b50565b6000815190506200025d8162000232565b92915050565b600080fd5b6000601f19601f8301169050919050565b7f4e487b7100000000000000000000000000000000000000000000000000000000600052604160045260246000fd5b620002b38262000268565b810181811067ffffffffffffffff82111715620002d557620002d462000279565b5b80604052505050565b6000620002ea620001ea565b9050620002f88282620002a8565b919050565b600067ffffffffffffffff8211156200031b576200031a62000279565b5b602082029050602081019050919050565b600080fd5b600080fd5b600067ffffffffffffffff82111562000354576200035362000279565b5b6200035f8262000268565b9050602081019050919050565b60005b838110156200038c5780820151818401526020810190506200036f565b60008484015250505050565b6000620003af620003a98462000336565b620002de565b905082815260208101848484011115620003ce57620003cd62000331565b5b620003db8482856200036c565b509392505050565b600082601f830112620003fb57620003fa62000263565b5b81516200040d84826020860162000398565b91505092915050565b60006200042d6200042784620002fd565b620002de565b905080838252602082019050602084028301858111156200045357620004526200032c565b5b835b81811015620004a157805167ffffffffffffffff8111156200047c576200047b62000263565b5b8086016200048b8982620003e3565b8552602085019450505060208101905062000455565b5050509392505050565b600082601f830112620004c357620004c262000263565b5b8151620004d584826020860162000416565b91505092915050565b60008115159050919050565b620004f581620004de565b81146200050157600080fd5b50565b6000815190506200051581620004ea565b92915050565b6000819050919050565b62000530816200051b565b81146200053c57600080fd5b50565b600081519050620005508162000525565b92915050565b600080600080600080600080610100898b0312156200057a5762000579620001f4565b5b60006200058a8b828c016200024c565b98505060206200059d8b828c016200024c565b9750506040620005b08b828c016200024c565b965050606089015167ffffffffffffffff811115620005d457620005d3620001f9565b5b620005e28b828c01620004ab565b9550506080620005f58b828c0162000504565b94505060a0620006088b828c016200053f565b93505060c06200061b8b828c016200053f565b92505060e06200062e8b828c016200024c565b9150509295985092959890939650565b7f4e487b7100000000000000000000000000000000000000000000000000000000600052603260045260246000fd5b600081519050919050565b600081905092915050565b600062000690826200066d565b6200069c818562000678565b9350620006ae8185602086016200036c565b80840191505092915050565b6000620006c8828462000683565b915081905092915050565b7f4e487b7100000000000000000000000000000000000000000000000000000000600052601160045260246000fd5b60006200070f826200051b565b91507fffffffffffffffffffffffffffffffffffffffffffffffffffffffffffffffff8203620007445762000743620006d3565b5b600182019050919050565b611fb6806200075f6000396000f3fe608060405234801561001057600080fd5b50600436106100b45760003560e01c8063a2b2b4d411610071578063a2b2b4d41461017b578063a44a3d7214610199578063ad5396db146101b7578063e7ea088f146101d5578063f64fca1e14610206578063fdbbcbc214610224576100b4565b806323100186146100b95780633a6e157b146100d75780634de8737c146100f3578063517a62571461010f57806361d027b31461013f5780637221252a1461015d575b600080fd5b6100c1610240565b6040516100ce9190611118565b60405180910390f35b6100f160048036038101906100ec9190611173565b610246565b005b61010d600480360381019061010891906111fe565b610528565b005b61012960048036038101906101249190611173565b610a08565b6040516101369190611118565b60405180910390f35b610147610a87565b60405161015491906112b0565b60405180910390f35b610165610aad565b60405161017291906112ec565b60405180910390f35b610183610ad1565b6040516101909190611328565b60405180910390f35b6101a1610af7565b6040516101ae91906112ec565b60405180910390f35b6101bf610b1d565b6040516101cc9190611118565b60405180910390f35b6101ef60048036038101906101ea9190611343565b610b23565b6040516101fd929190611383565b60405180910390f35b61020e610c38565b60405161021b91906113c7565b60405180910390f35b61023e60048036038101906102399190611678565b610c4b565b005b60055481565b80600480549050811061028e576040517f08c379a0000000000000000000000000000000000000000000000000000000008152600401610285906117df565b60405180910390fd5b6000600482815481106102a4576102a36117ff565b5b90600052602060002090600a02019050603c81600301546102c5919061185d565b81600401546102d4919061189f565b4211610315576040517f08c379a000000000000000000000000000000000000000000000000000000000815260040161030c9061191f565b60405180910390fd5b600480549050831061035c576040517f08c379a0000000000000000000000000000000000000000000000000000000008152600401610353906117df565b60405180910390fd5b600061036784610f4c565b90506004848154811061037d5761037c6117ff565b5b90600052602060002090600a020160090160009054906101000a900460ff16156104ea57600484815481106103b5576103b46117ff565b5b90600052602060002090600a02016006015481036104e957600360009054906101000a900473ffffffffffffffffffffffffffffffffffffffff1673ffffffffffffffffffffffffffffffffffffffff1663e6d66ac860008054906101000a900473ffffffffffffffffffffffffffffffffffffffff16600487815481106104405761043f6117ff565b5b90600052602060002090600a020160070160009054906101000a900473ffffffffffffffffffffffffffffffffffffffff1660048881548110610486576104856117ff565b5b90600052602060002090600a0201600801546040518463ffffffff1660e01b81526004016104b69392919061196f565b600060405180830381600087803b1580156104d057600080fd5b505af11580156104e4573d6000803e3d6000fd5b505050505b5b837f50e0ee70ebbb985b1aeb034bbf712119ad5ed3e707f7b33cd8e00694b0c2550c8260405161051a9190611118565b60405180910390a250505050565b826004805490508110610570576040517f08c379a0000000000000000000000000000000000000000000000000000000008152600401610567906117df565b60405180910390fd5b600060048281548110610586576105856117ff565b5b90600052602060002090600a02019050603c81600301546105a7919061185d565b81600401546105b6919061189f565b4211156105f8576040517f08c379a00000000000000000000000000000000000000000000000000000000081526004016105ef906119f2565b60405180910390fd5b6000600160009054906101000a900473ffffffffffffffffffffffffffffffffffffffff1673ffffffffffffffffffffffffffffffffffffffff166370a08231866040518263ffffffff1660e01b81526004016106559190611a12565b602060405180830381865afa158015610672573d6000803e3d6000fd5b505050506040513d601f19601f820116820180604052508101906106969190611a42565b9050600081116106db576040517f08c379a00000000000000000000000000000000000000000000000000000000081526004016106d290611abb565b60405180910390fd5b60008060009054906101000a900473ffffffffffffffffffffffffffffffffffffffff1673ffffffffffffffffffffffffffffffffffffffff166370a08231876040518263ffffffff1660e01b81526004016107379190611a12565b602060405180830381865afa158015610754573d6000803e3d6000fd5b505050506040513d601f19601f820116820180604052508101906107789190611a42565b905060048054905087106107c1576040517f08c379a00000000000000000000000000000000000000000000000000000000081526004016107b8906117df565b60405180910390fd5b6000600488815481106107d7576107d66117ff565b5b90600052602060002090600a020190508060020160008873ffffffffffffffffffffffffffffffffffffffff1673ffffffffffffffffffffffffffffffffffffffff16815260200190815260200160002060009054906101000a900460ff1615610876576040517f08c379a000000000000000000000000000000000000000000000000000000000815260040161086d90611b27565b60405180910390fd5b6000600860009054906101000a900460ff16610892578261089c565b61089b83611090565b5b905060018260020160008a73ffffffffffffffffffffffffffffffffffffffff1673ffffffffffffffffffffffffffffffffffffffff16815260200190815260200160002060006101000a81548160ff0219169083151502179055508082600001600082825461090c919061189f565b925050819055508082600501888154811061092a576109296117ff565b5b9060005260206000209060020201600001600082825461094a919061189f565b9250508190555083826001016000828254610965919061189f565b9250508190555083826005018881548110610983576109826117ff565b5b906000526020600020906002020160010160008282546109a3919061189f565b925050819055508773ffffffffffffffffffffffffffffffffffffffff16897f7bbc702cfc0c62aaa977159d2c8ff0642f94715abcc34af64106c1b15c2af0a08984886040516109f593929190611b47565b60405180910390a3505050505050505050565b60006004805490508210610a51576040517f08c379a0000000000000000000000000000000000000000000000000000000008152600401610a48906117df565b60405180910390fd5b600060048381548110610a6757610a666117ff565b5b90600052602060002090600a020190508060050180549050915050919050565b600360009054906101000a900473ffffffffffffffffffffffffffffffffffffffff1681565b60008054906101000a900473ffffffffffffffffffffffffffffffffffffffff1681565b600260009054906101000a900473ffffffffffffffffffffffffffffffffffffffff1681565b600160009054906101000a900473ffffffffffffffffffffffffffffffffffffffff1681565b60065481565b6000806004805490508410610b6d576040517f08c379a0000000000000000000000000000000000000000000000000000000008152600401610b64906117df565b60405180910390fd5b600060048581548110610b8357610b826117ff565b5b90600052602060002090600a0201905080600501805490508410610bdc576040517f08c379a0000000000000000000000000000000000000000000000000000000008152600401610bd390611bca565b60405180910390fd5b806005018481548110610bf257610bf16117ff565b5b906000526020600020906002020160000154816005018581548110610c1a57610c196117ff565b5b90600052602060002090600202016001015492509250509250929050565b600860009054906101000a900460ff1681565b6000600260009054906101000a900473ffffffffffffffffffffffffffffffffffffffff1673ffffffffffffffffffffffffffffffffffffffff166377782188336040518263ffffffff1660e01b8152600401610ca89190611a12565b600060405180830381865afa158015610cc5573d6000803e3d6000fd5b505050506040513d6000823e3d601f19601f82011682018060405250810190610cee9190611c84565b9050600781604051610d009190611d14565b908152602001604051809103902060009054906101000a900460ff16610d5b576040517f08c379a0000000000000000000000000000000000000000000000000000000008152600401610d5290611d9d565b60405180910390fd5b600060046001816001815401808255809150500390600052602060002090600a020190506000816000018190555060008160010181905550878160030181905550428160040181905550848160070160006101000a81548173ffffffffffffffffffffffffffffffffffffffff021916908373ffffffffffffffffffffffffffffffffffffffff160217905550838160080181905550858160060181905550828160090160006101000a81548160ff02191690831515021790555060006001600480549050610e2a9190611dbd565b9050807ffb1330a17ffe898a019796942f0ab05b8d97f1e01c9d47ac01b2fe7b462c152b8c8c8c428c8c8c8c604051610e6a989796959493929190611e2a565b60405180910390a260005b8851811015610f3e5782600501604051806040016040528060008152602001600081525090806001815401808255809150506001900390600052602060002090600202016000909190919091506000820151816000015560208201518160010155505080827fd3b5cef521b08344b2f3822456355f6c2603e7f00a271d0215ac4760a401fc488b8481518110610f0e57610f0d6117ff565b5b6020026020010151604051610f239190611eb6565b60405180910390a38080610f3690611ed8565b915050610e75565b505050505050505050505050565b60006004805490508210610f95576040517f08c379a0000000000000000000000000000000000000000000000000000000008152600401610f8c906117df565b60405180910390fd5b600060048381548110610fab57610faa6117ff565b5b90600052602060002090600a020190506000809250600080600090505b8360050180549050811015611087576000846005018281548110610fef57610fee6117ff565b5b9060005260206000209060020201600001549050600085600501838154811061101b5761101a6117ff565b5b906000526020600020906002020160010154905060006006548361103f919061185d565b9050600060055483611051919061185d565b9050808261105f919061189f565b955086861115611070578596508498505b50505050808061107f90611ed8565b915050610fc8565b50505050919050565b600061109b826110a2565b9050919050565b60008060026001846110b4919061189f565b6110be9190611f4f565b90508291505b818110156110f95780915060028182856110de9190611f4f565b6110e8919061189f565b6110f29190611f4f565b90506110c4565b50919050565b6000819050919050565b611112816110ff565b82525050565b600060208201905061112d6000830184611109565b92915050565b6000604051905090565b600080fd5b600080fd5b611150816110ff565b811461115b57600080fd5b50565b60008135905061116d81611147565b92915050565b6000602082840312156111895761118861113d565b5b60006111978482850161115e565b91505092915050565b600073ffffffffffffffffffffffffffffffffffffffff82169050919050565b60006111cb826111a0565b9050919050565b6111db816111c0565b81146111e657600080fd5b50565b6000813590506111f8816111d2565b92915050565b6000806000606084860312156112175761121661113d565b5b60006112258682870161115e565b9350506020611236868287016111e9565b92505060406112478682870161115e565b9150509250925092565b6000819050919050565b600061127661127161126c846111a0565b611251565b6111a0565b9050919050565b60006112888261125b565b9050919050565b600061129a8261127d565b9050919050565b6112aa8161128f565b82525050565b60006020820190506112c560008301846112a1565b92915050565b60006112d68261127d565b9050919050565b6112e6816112cb565b82525050565b600060208201905061130160008301846112dd565b92915050565b60006113128261127d565b9050919050565b61132281611307565b82525050565b600060208201905061133d6000830184611319565b92915050565b6000806040838503121561135a5761135961113d565b5b60006113688582860161115e565b92505060206113798582860161115e565b9150509250929050565b60006040820190506113986000830185611109565b6113a56020830184611109565b9392505050565b60008115159050919050565b6113c1816113ac565b82525050565b60006020820190506113dc60008301846113b8565b92915050565b600080fd5b600080fd5b6000601f19601f8301169050919050565b7f4e487b7100000000000000000000000000000000000000000000000000000000600052604160045260246000fd5b611435826113ec565b810181811067ffffffffffffffff82111715611454576114536113fd565b5b80604052505050565b6000611467611133565b9050611473828261142c565b919050565b600067ffffffffffffffff821115611493576114926113fd565b5b61149c826113ec565b9050602081019050919050565b82818337600083830152505050565b60006114cb6114c684611478565b61145d565b9050828152602081018484840111156114e7576114e66113e7565b5b6114f28482856114a9565b509392505050565b600082601f83011261150f5761150e6113e2565b5b813561151f8482602086016114b8565b91505092915050565b600067ffffffffffffffff821115611543576115426113fd565b5b602082029050602081019050919050565b600080fd5b600061156c61156784611528565b61145d565b9050808382526020820190506020840283018581111561158f5761158e611554565b5b835b818110156115d657803567ffffffffffffffff8111156115b4576115b36113e2565b5b8086016115c189826114fa565b85526020850194505050602081019050611591565b5050509392505050565b600082601f8301126115f5576115f46113e2565b5b8135611605848260208601611559565b91505092915050565b6000611619826111a0565b9050919050565b6116298161160e565b811461163457600080fd5b50565b60008135905061164681611620565b92915050565b611655816113ac565b811461166057600080fd5b50565b6000813590506116728161164c565b92915050565b600080600080600080600080610100898b0312156116995761169861113d565b5b600089013567ffffffffffffffff8111156116b7576116b6611142565b5b6116c38b828c016114fa565b985050602089013567ffffffffffffffff8111156116e4576116e3611142565b5b6116f08b828c016114fa565b97505060406117018b828c0161115e565b965050606089013567ffffffffffffffff81111561172257611721611142565b5b61172e8b828c016115e0565b955050608061173f8b828c0161115e565b94505060a06117508b828c01611637565b93505060c06117618b828c0161115e565b92505060e06117728b828c01611663565b9150509295985092959890939650565b600082825260208201905092915050565b7f496e76616c69642070726f706f73616c20494400000000000000000000000000600082015250565b60006117c9601383611782565b91506117d482611793565b602082019050919050565b600060208201905081810360008301526117f8816117bc565b9050919050565b7f4e487b7100000000000000000000000000000000000000000000000000000000600052603260045260246000fd5b7f4e487b7100000000000000000000000000000000000000000000000000000000600052601160045260246000fd5b6000611868826110ff565b9150611873836110ff565b9250828202611881816110ff565b915082820484148315176118985761189761182e565b5b5092915050565b60006118aa826110ff565b91506118b5836110ff565b92508282019050808211156118cd576118cc61182e565b5b92915050565b7f566f74696e67206973206e6f742079657420636c6f7365640000000000000000600082015250565b6000611909601883611782565b9150611914826118d3565b602082019050919050565b60006020820190508181036000830152611938816118fc565b9050919050565b611948816111c0565b82525050565b60006119598261127d565b9050919050565b6119698161194e565b82525050565b6000606082019050611984600083018661193f565b6119916020830185611960565b61199e6040830184611109565b949350505050565b7f566f74696e672074696d65206578706972656400000000000000000000000000600082015250565b60006119dc601383611782565b91506119e7826119a6565b602082019050919050565b60006020820190508181036000830152611a0b816119cf565b9050919050565b6000602082019050611a27600083018461193f565b92915050565b600081519050611a3c81611147565b92915050565b600060208284031215611a5857611a5761113d565b5b6000611a6684828501611a2d565b91505092915050565b7f4e6f2064656d6f637261637920746f6b656e7300000000000000000000000000600082015250565b6000611aa5601383611782565b9150611ab082611a6f565b602082019050919050565b60006020820190508181036000830152611ad481611a98565b9050919050565b7f416c726561647920766f74656400000000000000000000000000000000000000600082015250565b6000611b11600d83611782565b9150611b1c82611adb565b602082019050919050565b60006020820190508181036000830152611b4081611b04565b9050919050565b6000606082019050611b5c6000830186611109565b611b696020830185611109565b611b766040830184611109565b949350505050565b7f496e76616c6964206f7074696f6e20696e646578000000000000000000000000600082015250565b6000611bb4601483611782565b9150611bbf82611b7e565b602082019050919050565b60006020820190508181036000830152611be381611ba7565b9050919050565b60005b83811015611c08578082015181840152602081019050611bed565b60008484015250505050565b6000611c27611c2284611478565b61145d565b905082815260208101848484011115611c4357611c426113e7565b5b611c4e848285611bea565b509392505050565b600082601f830112611c6b57611c6a6113e2565b5b8151611c7b848260208601611c14565b91505092915050565b600060208284031215611c9a57611c9961113d565b5b600082015167ffffffffffffffff811115611cb857611cb7611142565b5b611cc484828501611c56565b91505092915050565b600081519050919050565b600081905092915050565b6000611cee82611ccd565b611cf88185611cd8565b9350611d08818560208601611bea565b80840191505092915050565b6000611d208284611ce3565b915081905092915050565b7f4e6f7420617574686f72697a656420746f206372656174652070726f706f736160008201527f6c00000000000000000000000000000000000000000000000000000000000000602082015250565b6000611d87602183611782565b9150611d9282611d2b565b604082019050919050565b60006020820190508181036000830152611db681611d7a565b9050919050565b6000611dc8826110ff565b9150611dd3836110ff565b9250828203905081811115611deb57611dea61182e565b5b92915050565b6000611dfc82611ccd565b611e068185611782565b9350611e16818560208601611bea565b611e1f816113ec565b840191505092915050565b6000610100820190508181036000830152611e45818b611df1565b90508181036020830152611e59818a611df1565b9050611e686040830189611109565b611e756060830188611109565b611e826080830187611109565b611e8f60a0830186611960565b611e9c60c0830185611109565b611ea960e08301846113b8565b9998505050505050505050565b60006020820190508181036000830152611ed08184611df1565b905092915050565b6000611ee3826110ff565b91507fffffffffffffffffffffffffffffffffffffffffffffffffffffffffffffffff8203611f1557611f1461182e565b5b600182019050919050565b7f4e487b7100000000000000000000000000000000000000000000000000000000600052601260045260246000fd5b6000611f5a826110ff565b9150611f65836110ff565b925082611f7557611f74611f20565b5b82820490509291505056fea2646970667358221220a8d2215a59e91612815102b9f2235ce0740f590d9634bdb09e6bc612054e292464736f6c63430008140033a2646970667358221220e5ffcaa003288229bd5a3a93ed05f0aa4e5c25ff9d3fd494b56e26171e1323c964736f6c63430008140033",
  "linkReferences": {},
  "deployedLinkReferences": {}
}