{
  "_format": "hh-sol-artifact-1",
  "contractName": "HybridVotingFactory",
  "sourceName": "contracts/HybridVotingFactory.sol",
  "abi": [
    {
      "anonymous": false,
      "inputs": [
        {
          "indexed": true,
          "internalType": "address",
          "name": "creator",
          "type": "address"
        },
        {
          "indexed": false,
          "internalType": "address",
          "name": "hybridVotingAddress",
          "type": "address"
        }
      ],
      "name": "HybridVotingCreated",
      "type": "event"
    },
    {
      "inputs": [
        {
          "internalType": "uint256",
          "name": "",
          "type": "uint256"
        }
      ],
      "name": "allHybridVotings",
      "outputs": [
        {
          "internalType": "address",
          "name": "",
          "type": "address"
        }
      ],
      "stateMutability": "view",
      "type": "function"
    },
    {
      "inputs": [
        {
          "internalType": "address",
          "name": "_ParticipationToken",
          "type": "address"
        },
        {
          "internalType": "address",
          "name": "_DemocracyToken",
          "type": "address"
        },
        {
          "internalType": "address",
          "name": "_nftMembership",
          "type": "address"
        },
        {
          "internalType": "string[]",
          "name": "_allowedRoleNames",
          "type": "string[]"
        },
        {
          "internalType": "bool",
          "name": "_quadraticVotingEnabled",
          "type": "bool"
        },
        {
          "internalType": "uint256",
          "name": "_democracyVoteWeight",
          "type": "uint256"
        },
        {
          "internalType": "uint256",
          "name": "_participationVoteWeight",
          "type": "uint256"
        },
        {
          "internalType": "address",
          "name": "_treasuryAddress",
          "type": "address"
        }
      ],
      "name": "createHybridVoting",
      "outputs": [],
      "stateMutability": "nonpayable",
      "type": "function"
    },
    {
      "inputs": [
        {
          "internalType": "uint256",
          "name": "index",
          "type": "uint256"
        }
      ],
      "name": "getHybridVotingAddress",
      "outputs": [
        {
          "internalType": "address",
          "name": "",
          "type": "address"
        }
      ],
      "stateMutability": "view",
      "type": "function"
    },
    {
      "inputs": [],
      "name": "getHybridVotingCount",
      "outputs": [
        {
          "internalType": "uint256",
          "name": "",
          "type": "uint256"
        }
      ],
      "stateMutability": "view",
      "type": "function"
    }
  ],
  "bytecode": "0x608060405234801561001057600080fd5b506131bd806100206000396000f3fe60806040523480156200001157600080fd5b5060043610620000525760003560e01c80632ded72ef14620000575780635e08b21514620000795780638cdd8a5e14620000af578063c9649cf914620000cf575b600080fd5b6200006162000105565b60405162000070919062000317565b60405180910390f35b62000097600480360381019062000091919062000379565b62000111565b604051620000a69190620003f0565b60405180910390f35b620000cd6004803603810190620000c79190620006d9565b62000151565b005b620000ed6004803603810190620000e7919062000379565b6200025a565b604051620000fc9190620003f0565b60405180910390f35b60008080549050905090565b600081815481106200012257600080fd5b906000526020600020016000915054906101000a900473ffffffffffffffffffffffffffffffffffffffff1681565b600088888888888888886040516200016990620002ee565b6200017c9897969594939291906200092b565b604051809103906000f08015801562000199573d6000803e3d6000fd5b5090506000819080600181540180825580915050600190039060005260206000200160009091909190916101000a81548173ffffffffffffffffffffffffffffffffffffffff021916908373ffffffffffffffffffffffffffffffffffffffff1602179055503373ffffffffffffffffffffffffffffffffffffffff167f2d29e6690c9a8ef94c83fb30375185d4a7bd62bde9937eef9e23046f25b433fb82604051620002479190620003f0565b60405180910390a2505050505050505050565b600080805490508210620002a5576040517f08c379a00000000000000000000000000000000000000000000000000000000081526004016200029c9062000a21565b60405180910390fd5b60008281548110620002bc57620002bb62000a43565b5b9060005260206000200160009054906101000a900473ffffffffffffffffffffffffffffffffffffffff169050919050565b6127158062000a7383390190565b6000819050919050565b6200031181620002fc565b82525050565b60006020820190506200032e600083018462000306565b92915050565b6000604051905090565b600080fd5b600080fd5b6200035381620002fc565b81146200035f57600080fd5b50565b600081359050620003738162000348565b92915050565b6000602082840312156200039257620003916200033e565b5b6000620003a28482850162000362565b91505092915050565b600073ffffffffffffffffffffffffffffffffffffffff82169050919050565b6000620003d882620003ab565b9050919050565b620003ea81620003cb565b82525050565b6000602082019050620004076000830184620003df565b92915050565b6200041881620003cb565b81146200042457600080fd5b50565b60008135905062000438816200040d565b92915050565b600080fd5b6000601f19601f8301169050919050565b7f4e487b7100000000000000000000000000000000000000000000000000000000600052604160045260246000fd5b6200048e8262000443565b810181811067ffffffffffffffff82111715620004b057620004af62000454565b5b80604052505050565b6000620004c562000334565b9050620004d3828262000483565b919050565b600067ffffffffffffffff821115620004f657620004f562000454565b5b602082029050602081019050919050565b600080fd5b600080fd5b600067ffffffffffffffff8211156200052f576200052e62000454565b5b6200053a8262000443565b9050602081019050919050565b82818337600083830152505050565b60006200056d620005678462000511565b620004b9565b9050828152602081018484840111156200058c576200058b6200050c565b5b6200059984828562000547565b509392505050565b600082601f830112620005b957620005b86200043e565b5b8135620005cb84826020860162000556565b91505092915050565b6000620005eb620005e584620004d8565b620004b9565b9050808382526020820190506020840283018581111562000611576200061062000507565b5b835b818110156200065f57803567ffffffffffffffff8111156200063a57620006396200043e565b5b808601620006498982620005a1565b8552602085019450505060208101905062000613565b5050509392505050565b600082601f8301126200068157620006806200043e565b5b813562000693848260208601620005d4565b91505092915050565b60008115159050919050565b620006b3816200069c565b8114620006bf57600080fd5b50565b600081359050620006d381620006a8565b92915050565b600080600080600080600080610100898b031215620006fd57620006fc6200033e565b5b60006200070d8b828c0162000427565b9850506020620007208b828c0162000427565b9750506040620007338b828c0162000427565b965050606089013567ffffffffffffffff81111562000757576200075662000343565b5b620007658b828c0162000669565b9550506080620007788b828c01620006c2565b94505060a06200078b8b828c0162000362565b93505060c06200079e8b828c0162000362565b92505060e0620007b18b828c0162000427565b9150509295985092959890939650565b600081519050919050565b600082825260208201905092915050565b6000819050602082019050919050565b600081519050919050565b600082825260208201905092915050565b60005b83811015620008295780820151818401526020810190506200080c565b60008484015250505050565b60006200084282620007ed565b6200084e8185620007f8565b93506200086081856020860162000809565b6200086b8162000443565b840191505092915050565b600062000884838362000835565b905092915050565b6000602082019050919050565b6000620008a682620007c1565b620008b28185620007cc565b935083602082028501620008c685620007dd565b8060005b85811015620009085784840389528151620008e6858262000876565b9450620008f3836200088c565b925060208a01995050600181019050620008ca565b50829750879550505050505092915050565b62000925816200069c565b82525050565b60006101008201905062000943600083018b620003df565b62000952602083018a620003df565b620009616040830189620003df565b818103606083015262000975818862000899565b90506200098660808301876200091a565b6200099560a083018662000306565b620009a460c083018562000306565b620009b360e0830184620003df565b9998505050505050505050565b600082825260208201905092915050565b7f496e646578206f7574206f6620626f756e647300000000000000000000000000600082015250565b600062000a09601383620009c0565b915062000a1682620009d1565b602082019050919050565b6000602082019050818103600083015262000a3c81620009fa565b9050919050565b7f4e487b7100000000000000000000000000000000000000000000000000000000600052603260045260246000fdfe60806040523480156200001157600080fd5b506040516200271538038062002715833981810160405281019062000037919062000556565b876000806101000a81548173ffffffffffffffffffffffffffffffffffffffff021916908373ffffffffffffffffffffffffffffffffffffffff16021790555086600160006101000a81548173ffffffffffffffffffffffffffffffffffffffff021916908373ffffffffffffffffffffffffffffffffffffffff16021790555085600260006101000a81548173ffffffffffffffffffffffffffffffffffffffff021916908373ffffffffffffffffffffffffffffffffffffffff16021790555060005b855181101562000172576001600787838151811062000120576200011f6200063e565b5b6020026020010151604051620001379190620006ba565b908152602001604051809103902060006101000a81548160ff0219169083151502179055508080620001699062000702565b915050620000fc565b5083600860006101000a81548160ff021916908315150217905550826005819055508160068190555080600360006101000a81548173ffffffffffffffffffffffffffffffffffffffff021916908373ffffffffffffffffffffffffffffffffffffffff16021790555050505050505050506200074f565b6000604051905090565b600080fd5b600080fd5b600073ffffffffffffffffffffffffffffffffffffffff82169050919050565b60006200022b82620001fe565b9050919050565b6200023d816200021e565b81146200024957600080fd5b50565b6000815190506200025d8162000232565b92915050565b600080fd5b6000601f19601f8301169050919050565b7f4e487b7100000000000000000000000000000000000000000000000000000000600052604160045260246000fd5b620002b38262000268565b810181811067ffffffffffffffff82111715620002d557620002d462000279565b5b80604052505050565b6000620002ea620001ea565b9050620002f88282620002a8565b919050565b600067ffffffffffffffff8211156200031b576200031a62000279565b5b602082029050602081019050919050565b600080fd5b600080fd5b600067ffffffffffffffff82111562000354576200035362000279565b5b6200035f8262000268565b9050602081019050919050565b60005b838110156200038c5780820151818401526020810190506200036f565b60008484015250505050565b6000620003af620003a98462000336565b620002de565b905082815260208101848484011115620003ce57620003cd62000331565b5b620003db8482856200036c565b509392505050565b600082601f830112620003fb57620003fa62000263565b5b81516200040d84826020860162000398565b91505092915050565b60006200042d6200042784620002fd565b620002de565b905080838252602082019050602084028301858111156200045357620004526200032c565b5b835b81811015620004a157805167ffffffffffffffff8111156200047c576200047b62000263565b5b8086016200048b8982620003e3565b8552602085019450505060208101905062000455565b5050509392505050565b600082601f830112620004c357620004c262000263565b5b8151620004d584826020860162000416565b91505092915050565b60008115159050919050565b620004f581620004de565b81146200050157600080fd5b50565b6000815190506200051581620004ea565b92915050565b6000819050919050565b62000530816200051b565b81146200053c57600080fd5b50565b600081519050620005508162000525565b92915050565b600080600080600080600080610100898b0312156200057a5762000579620001f4565b5b60006200058a8b828c016200024c565b98505060206200059d8b828c016200024c565b9750506040620005b08b828c016200024c565b965050606089015167ffffffffffffffff811115620005d457620005d3620001f9565b5b620005e28b828c01620004ab565b9550506080620005f58b828c0162000504565b94505060a0620006088b828c016200053f565b93505060c06200061b8b828c016200053f565b92505060e06200062e8b828c016200024c565b9150509295985092959890939650565b7f4e487b7100000000000000000000000000000000000000000000000000000000600052603260045260246000fd5b600081519050919050565b600081905092915050565b600062000690826200066d565b6200069c818562000678565b9350620006ae8185602086016200036c565b80840191505092915050565b6000620006c8828462000683565b915081905092915050565b7f4e487b7100000000000000000000000000000000000000000000000000000000600052601160045260246000fd5b60006200070f826200051b565b91507fffffffffffffffffffffffffffffffffffffffffffffffffffffffffffffffff8203620007445762000743620006d3565b5b600182019050919050565b611fb6806200075f6000396000f3fe608060405234801561001057600080fd5b50600436106100b45760003560e01c80637221252a116100715780637221252a14610179578063a2b2b4d414610197578063a44a3d72146101b5578063ad5396db146101d3578063e7ea088f146101f1578063f64fca1e14610222576100b4565b806323100186146100b95780633a6e157b146100d7578063440e5661146100f35780634de8737c1461010f578063517a62571461012b57806361d027b31461015b575b600080fd5b6100c1610240565b6040516100ce9190611118565b60405180910390f35b6100f160048036038101906100ec9190611173565b610246565b005b61010d60048036038101906101089190611462565b610528565b005b610129600480360381019061012491906115aa565b610829565b005b61014560048036038101906101409190611173565b610d09565b6040516101529190611118565b60405180910390f35b610163610d88565b604051610170919061165c565b60405180910390f35b610181610dae565b60405161018e9190611698565b60405180910390f35b61019f610dd2565b6040516101ac91906116d4565b60405180910390f35b6101bd610df8565b6040516101ca9190611698565b60405180910390f35b6101db610e1e565b6040516101e89190611118565b60405180910390f35b61020b600480360381019061020691906116ef565b610e24565b60405161021992919061172f565b60405180910390f35b61022a610f39565b6040516102379190611767565b60405180910390f35b60055481565b80600480549050811061028e576040517f08c379a0000000000000000000000000000000000000000000000000000000008152600401610285906117df565b60405180910390fd5b6000600482815481106102a4576102a36117ff565b5b90600052602060002090600a02019050603c81600301546102c5919061185d565b81600401546102d4919061189f565b4211610315576040517f08c379a000000000000000000000000000000000000000000000000000000000815260040161030c9061191f565b60405180910390fd5b600480549050831061035c576040517f08c379a0000000000000000000000000000000000000000000000000000000008152600401610353906117df565b60405180910390fd5b600061036784610f4c565b90506004848154811061037d5761037c6117ff565b5b90600052602060002090600a020160090160009054906101000a900460ff16156104ea57600484815481106103b5576103b46117ff565b5b90600052602060002090600a02016006015481036104e957600360009054906101000a900473ffffffffffffffffffffffffffffffffffffffff1673ffffffffffffffffffffffffffffffffffffffff1663e6d66ac860008054906101000a900473ffffffffffffffffffffffffffffffffffffffff16600487815481106104405761043f6117ff565b5b90600052602060002090600a020160070160009054906101000a900473ffffffffffffffffffffffffffffffffffffffff1660048881548110610486576104856117ff565b5b90600052602060002090600a0201600801546040518463ffffffff1660e01b81526004016104b69392919061196f565b600060405180830381600087803b1580156104d057600080fd5b505af11580156104e4573d6000803e3d6000fd5b505050505b5b837f50e0ee70ebbb985b1aeb034bbf712119ad5ed3e707f7b33cd8e00694b0c2550c8260405161051a9190611118565b60405180910390a250505050565b6000600260009054906101000a900473ffffffffffffffffffffffffffffffffffffffff1673ffffffffffffffffffffffffffffffffffffffff166377782188336040518263ffffffff1660e01b815260040161058591906119a6565b600060405180830381865afa1580156105a2573d6000803e3d6000fd5b505050506040513d6000823e3d601f19601f820116820180604052508101906105cb9190611a5b565b90506007816040516105dd9190611aeb565b908152602001604051809103902060009054906101000a900460ff16610638576040517f08c379a000000000000000000000000000000000000000000000000000000000815260040161062f90611b74565b60405180910390fd5b600060046001816001815401808255809150500390600052602060002090600a020190506000816000018190555060008160010181905550878160030181905550428160040181905550858160070160006101000a81548173ffffffffffffffffffffffffffffffffffffffff021916908373ffffffffffffffffffffffffffffffffffffffff160217905550838160080181905550848160060181905550828160090160006101000a81548160ff021916908315150217905550600060016004805490506107079190611b94565b9050807ffb1330a17ffe898a019796942f0ab05b8d97f1e01c9d47ac01b2fe7b462c152b8c8c8c428b8d8c8c604051610747989796959493929190611c01565b60405180910390a260005b885181101561081b5782600501604051806040016040528060008152602001600081525090806001815401808255809150506001900390600052602060002090600202016000909190919091506000820151816000015560208201518160010155505080827fd3b5cef521b08344b2f3822456355f6c2603e7f00a271d0215ac4760a401fc488b84815181106107eb576107ea6117ff565b5b60200260200101516040516108009190611c8d565b60405180910390a3808061081390611caf565b915050610752565b505050505050505050505050565b826004805490508110610871576040517f08c379a0000000000000000000000000000000000000000000000000000000008152600401610868906117df565b60405180910390fd5b600060048281548110610887576108866117ff565b5b90600052602060002090600a02019050603c81600301546108a8919061185d565b81600401546108b7919061189f565b4211156108f9576040517f08c379a00000000000000000000000000000000000000000000000000000000081526004016108f090611d43565b60405180910390fd5b6000600160009054906101000a900473ffffffffffffffffffffffffffffffffffffffff1673ffffffffffffffffffffffffffffffffffffffff166370a08231866040518263ffffffff1660e01b815260040161095691906119a6565b602060405180830381865afa158015610973573d6000803e3d6000fd5b505050506040513d601f19601f820116820180604052508101906109979190611d78565b9050600081116109dc576040517f08c379a00000000000000000000000000000000000000000000000000000000081526004016109d390611df1565b60405180910390fd5b60008060009054906101000a900473ffffffffffffffffffffffffffffffffffffffff1673ffffffffffffffffffffffffffffffffffffffff166370a08231876040518263ffffffff1660e01b8152600401610a3891906119a6565b602060405180830381865afa158015610a55573d6000803e3d6000fd5b505050506040513d601f19601f82011682018060405250810190610a799190611d78565b90506004805490508710610ac2576040517f08c379a0000000000000000000000000000000000000000000000000000000008152600401610ab9906117df565b60405180910390fd5b600060048881548110610ad857610ad76117ff565b5b90600052602060002090600a020190508060020160008873ffffffffffffffffffffffffffffffffffffffff1673ffffffffffffffffffffffffffffffffffffffff16815260200190815260200160002060009054906101000a900460ff1615610b77576040517f08c379a0000000000000000000000000000000000000000000000000000000008152600401610b6e90611e5d565b60405180910390fd5b6000600860009054906101000a900460ff16610b935782610b9d565b610b9c83611090565b5b905060018260020160008a73ffffffffffffffffffffffffffffffffffffffff1673ffffffffffffffffffffffffffffffffffffffff16815260200190815260200160002060006101000a81548160ff02191690831515021790555080826000016000828254610c0d919061189f565b9250508190555080826005018881548110610c2b57610c2a6117ff565b5b90600052602060002090600202016000016000828254610c4b919061189f565b9250508190555083826001016000828254610c66919061189f565b9250508190555083826005018881548110610c8457610c836117ff565b5b90600052602060002090600202016001016000828254610ca4919061189f565b925050819055508773ffffffffffffffffffffffffffffffffffffffff16897f7bbc702cfc0c62aaa977159d2c8ff0642f94715abcc34af64106c1b15c2af0a0898488604051610cf693929190611e7d565b60405180910390a3505050505050505050565b60006004805490508210610d52576040517f08c379a0000000000000000000000000000000000000000000000000000000008152600401610d49906117df565b60405180910390fd5b600060048381548110610d6857610d676117ff565b5b90600052602060002090600a020190508060050180549050915050919050565b600360009054906101000a900473ffffffffffffffffffffffffffffffffffffffff1681565b60008054906101000a900473ffffffffffffffffffffffffffffffffffffffff1681565b600260009054906101000a900473ffffffffffffffffffffffffffffffffffffffff1681565b600160009054906101000a900473ffffffffffffffffffffffffffffffffffffffff1681565b60065481565b6000806004805490508410610e6e576040517f08c379a0000000000000000000000000000000000000000000000000000000008152600401610e65906117df565b60405180910390fd5b600060048581548110610e8457610e836117ff565b5b90600052602060002090600a0201905080600501805490508410610edd576040517f08c379a0000000000000000000000000000000000000000000000000000000008152600401610ed490611f00565b60405180910390fd5b806005018481548110610ef357610ef26117ff565b5b906000526020600020906002020160000154816005018581548110610f1b57610f1a6117ff565b5b90600052602060002090600202016001015492509250509250929050565b600860009054906101000a900460ff1681565b60006004805490508210610f95576040517f08c379a0000000000000000000000000000000000000000000000000000000008152600401610f8c906117df565b60405180910390fd5b600060048381548110610fab57610faa6117ff565b5b90600052602060002090600a020190506000809250600080600090505b8360050180549050811015611087576000846005018281548110610fef57610fee6117ff565b5b9060005260206000209060020201600001549050600085600501838154811061101b5761101a6117ff565b5b906000526020600020906002020160010154905060006006548361103f919061185d565b9050600060055483611051919061185d565b9050808261105f919061189f565b955086861115611070578596508498505b50505050808061107f90611caf565b915050610fc8565b50505050919050565b600061109b826110a2565b9050919050565b60008060026001846110b4919061189f565b6110be9190611f4f565b90508291505b818110156110f95780915060028182856110de9190611f4f565b6110e8919061189f565b6110f29190611f4f565b90506110c4565b50919050565b6000819050919050565b611112816110ff565b82525050565b600060208201905061112d6000830184611109565b92915050565b6000604051905090565b600080fd5b600080fd5b611150816110ff565b811461115b57600080fd5b50565b60008135905061116d81611147565b92915050565b6000602082840312156111895761118861113d565b5b60006111978482850161115e565b91505092915050565b600080fd5b600080fd5b6000601f19601f8301169050919050565b7f4e487b7100000000000000000000000000000000000000000000000000000000600052604160045260246000fd5b6111f3826111aa565b810181811067ffffffffffffffff82111715611212576112116111bb565b5b80604052505050565b6000611225611133565b905061123182826111ea565b919050565b600067ffffffffffffffff821115611251576112506111bb565b5b61125a826111aa565b9050602081019050919050565b82818337600083830152505050565b600061128961128484611236565b61121b565b9050828152602081018484840111156112a5576112a46111a5565b5b6112b0848285611267565b509392505050565b600082601f8301126112cd576112cc6111a0565b5b81356112dd848260208601611276565b91505092915050565b600067ffffffffffffffff821115611301576113006111bb565b5b602082029050602081019050919050565b600080fd5b600061132a611325846112e6565b61121b565b9050808382526020820190506020840283018581111561134d5761134c611312565b5b835b8181101561139457803567ffffffffffffffff811115611372576113716111a0565b5b80860161137f89826112b8565b8552602085019450505060208101905061134f565b5050509392505050565b600082601f8301126113b3576113b26111a0565b5b81356113c3848260208601611317565b91505092915050565b600073ffffffffffffffffffffffffffffffffffffffff82169050919050565b60006113f7826113cc565b9050919050565b611407816113ec565b811461141257600080fd5b50565b600081359050611424816113fe565b92915050565b60008115159050919050565b61143f8161142a565b811461144a57600080fd5b50565b60008135905061145c81611436565b92915050565b600080600080600080600080610100898b0312156114835761148261113d565b5b600089013567ffffffffffffffff8111156114a1576114a0611142565b5b6114ad8b828c016112b8565b985050602089013567ffffffffffffffff8111156114ce576114cd611142565b5b6114da8b828c016112b8565b97505060406114eb8b828c0161115e565b965050606089013567ffffffffffffffff81111561150c5761150b611142565b5b6115188b828c0161139e565b95505060806115298b828c01611415565b94505060a061153a8b828c0161115e565b93505060c061154b8b828c0161115e565b92505060e061155c8b828c0161144d565b9150509295985092959890939650565b6000611577826113cc565b9050919050565b6115878161156c565b811461159257600080fd5b50565b6000813590506115a48161157e565b92915050565b6000806000606084860312156115c3576115c261113d565b5b60006115d18682870161115e565b93505060206115e286828701611595565b92505060406115f38682870161115e565b9150509250925092565b6000819050919050565b600061162261161d611618846113cc565b6115fd565b6113cc565b9050919050565b600061163482611607565b9050919050565b600061164682611629565b9050919050565b6116568161163b565b82525050565b6000602082019050611671600083018461164d565b92915050565b600061168282611629565b9050919050565b61169281611677565b82525050565b60006020820190506116ad6000830184611689565b92915050565b60006116be82611629565b9050919050565b6116ce816116b3565b82525050565b60006020820190506116e960008301846116c5565b92915050565b600080604083850312156117065761170561113d565b5b60006117148582860161115e565b92505060206117258582860161115e565b9150509250929050565b60006040820190506117446000830185611109565b6117516020830184611109565b9392505050565b6117618161142a565b82525050565b600060208201905061177c6000830184611758565b92915050565b600082825260208201905092915050565b7f496e76616c69642070726f706f73616c20494400000000000000000000000000600082015250565b60006117c9601383611782565b91506117d482611793565b602082019050919050565b600060208201905081810360008301526117f8816117bc565b9050919050565b7f4e487b7100000000000000000000000000000000000000000000000000000000600052603260045260246000fd5b7f4e487b7100000000000000000000000000000000000000000000000000000000600052601160045260246000fd5b6000611868826110ff565b9150611873836110ff565b9250828202611881816110ff565b915082820484148315176118985761189761182e565b5b5092915050565b60006118aa826110ff565b91506118b5836110ff565b92508282019050808211156118cd576118cc61182e565b5b92915050565b7f566f74696e67206973206e6f742079657420636c6f7365640000000000000000600082015250565b6000611909601883611782565b9150611914826118d3565b602082019050919050565b60006020820190508181036000830152611938816118fc565b9050919050565b6119488161156c565b82525050565b600061195982611629565b9050919050565b6119698161194e565b82525050565b6000606082019050611984600083018661193f565b6119916020830185611960565b61199e6040830184611109565b949350505050565b60006020820190506119bb600083018461193f565b92915050565b60005b838110156119df5780820151818401526020810190506119c4565b60008484015250505050565b60006119fe6119f984611236565b61121b565b905082815260208101848484011115611a1a57611a196111a5565b5b611a258482856119c1565b509392505050565b600082601f830112611a4257611a416111a0565b5b8151611a528482602086016119eb565b91505092915050565b600060208284031215611a7157611a7061113d565b5b600082015167ffffffffffffffff811115611a8f57611a8e611142565b5b611a9b84828501611a2d565b91505092915050565b600081519050919050565b600081905092915050565b6000611ac582611aa4565b611acf8185611aaf565b9350611adf8185602086016119c1565b80840191505092915050565b6000611af78284611aba565b915081905092915050565b7f4e6f7420617574686f72697a656420746f206372656174652070726f706f736160008201527f6c00000000000000000000000000000000000000000000000000000000000000602082015250565b6000611b5e602183611782565b9150611b6982611b02565b604082019050919050565b60006020820190508181036000830152611b8d81611b51565b9050919050565b6000611b9f826110ff565b9150611baa836110ff565b9250828203905081811115611bc257611bc161182e565b5b92915050565b6000611bd382611aa4565b611bdd8185611782565b9350611bed8185602086016119c1565b611bf6816111aa565b840191505092915050565b6000610100820190508181036000830152611c1c818b611bc8565b90508181036020830152611c30818a611bc8565b9050611c3f6040830189611109565b611c4c6060830188611109565b611c596080830187611109565b611c6660a0830186611960565b611c7360c0830185611109565b611c8060e0830184611758565b9998505050505050505050565b60006020820190508181036000830152611ca78184611bc8565b905092915050565b6000611cba826110ff565b91507fffffffffffffffffffffffffffffffffffffffffffffffffffffffffffffffff8203611cec57611ceb61182e565b5b600182019050919050565b7f566f74696e672074696d65206578706972656400000000000000000000000000600082015250565b6000611d2d601383611782565b9150611d3882611cf7565b602082019050919050565b60006020820190508181036000830152611d5c81611d20565b9050919050565b600081519050611d7281611147565b92915050565b600060208284031215611d8e57611d8d61113d565b5b6000611d9c84828501611d63565b91505092915050565b7f4e6f2064656d6f637261637920746f6b656e7300000000000000000000000000600082015250565b6000611ddb601383611782565b9150611de682611da5565b602082019050919050565b60006020820190508181036000830152611e0a81611dce565b9050919050565b7f416c726561647920766f74656400000000000000000000000000000000000000600082015250565b6000611e47600d83611782565b9150611e5282611e11565b602082019050919050565b60006020820190508181036000830152611e7681611e3a565b9050919050565b6000606082019050611e926000830186611109565b611e9f6020830185611109565b611eac6040830184611109565b949350505050565b7f496e76616c6964206f7074696f6e20696e646578000000000000000000000000600082015250565b6000611eea601483611782565b9150611ef582611eb4565b602082019050919050565b60006020820190508181036000830152611f1981611edd565b9050919050565b7f4e487b7100000000000000000000000000000000000000000000000000000000600052601260045260246000fd5b6000611f5a826110ff565b9150611f65836110ff565b925082611f7557611f74611f20565b5b82820490509291505056fea26469706673582212208dc4dfd7f782ef9bff14b5e2113c0c7dc6695256656e19471c31523854b75cb164736f6c63430008140033a2646970667358221220d294b9881ebd393c17cd998e61873370f42ba6414ef7ade6c9d0a6dcf026476c64736f6c63430008140033",
  "linkReferences": {},
  "deployedLinkReferences": {}
}