{"abi":[{"type":"constructor","inputs":[{"name":"_ParticipationToken","type":"address","internalType":"address"},{"name":"_DemocracyToken","type":"address","internalType":"address"},{"name":"_nftMembership","type":"address","internalType":"address"},{"name":"_allowedRoleNames","type":"string[]","internalType":"string[]"},{"name":"_quadraticVotingEnabled","type":"bool","internalType":"bool"},{"name":"_democracyVoteWeight","type":"uint256","internalType":"uint256"},{"name":"_participationVoteWeight","type":"uint256","internalType":"uint256"},{"name":"_treasuryAddress","type":"address","internalType":"address"},{"name":"_quorumPercentage","type":"uint256","internalType":"uint256"}],"stateMutability":"nonpayable"},{"type":"function","name":"DirectDemocracyToken","inputs":[],"outputs":[{"name":"","type":"address","internalType":"contract IERC20"}],"stateMutability":"view"},{"type":"function","name":"ParticipationToken","inputs":[],"outputs":[{"name":"","type":"address","internalType":"contract IERC20"}],"stateMutability":"view"},{"type":"function","name":"announceWinner","inputs":[{"name":"_proposalId","type":"uint256","internalType":"uint256"}],"outputs":[{"name":"","type":"uint256","internalType":"uint256"},{"name":"","type":"bool","internalType":"bool"}],"stateMutability":"nonpayable"},{"type":"function","name":"calculateQuadraticVoteWeight","inputs":[{"name":"_balance","type":"uint256","internalType":"uint256"}],"outputs":[{"name":"","type":"uint256","internalType":"uint256"}],"stateMutability":"pure"},{"type":"function","name":"createProposal","inputs":[{"name":"_name","type":"string","internalType":"string"},{"name":"_description","type":"string","internalType":"string"},{"name":"_timeInMinutes","type":"uint256","internalType":"uint256"},{"name":"_optionNames","type":"string[]","internalType":"string[]"},{"name":"_transferTriggerOptionIndex","type":"uint256","internalType":"uint256"},{"name":"_transferRecipient","type":"address","internalType":"address payable"},{"name":"_transferAmount","type":"uint256","internalType":"uint256"},{"name":"_transferEnabled","type":"bool","internalType":"bool"},{"name":"_transferToken","type":"address","internalType":"address"}],"outputs":[],"stateMutability":"nonpayable"},{"type":"function","name":"democracyVoteWeight","inputs":[],"outputs":[{"name":"","type":"uint256","internalType":"uint256"}],"stateMutability":"view"},{"type":"function","name":"getOptionVotes","inputs":[{"name":"_proposalId","type":"uint256","internalType":"uint256"},{"name":"_optionIndex","type":"uint256","internalType":"uint256"}],"outputs":[{"name":"votesPT","type":"uint256","internalType":"uint256"},{"name":"votesDDT","type":"uint256","internalType":"uint256"}],"stateMutability":"view"},{"type":"function","name":"getOptionsCount","inputs":[{"name":"_proposalId","type":"uint256","internalType":"uint256"}],"outputs":[{"name":"","type":"uint256","internalType":"uint256"}],"stateMutability":"view"},{"type":"function","name":"getProposal","inputs":[{"name":"_proposalId","type":"uint256","internalType":"uint256"}],"outputs":[{"name":"totalVotesPT","type":"uint256","internalType":"uint256"},{"name":"totalVotesDDT","type":"uint256","internalType":"uint256"},{"name":"timeInMinutes","type":"uint256","internalType":"uint256"},{"name":"creationTimestamp","type":"uint256","internalType":"uint256"},{"name":"transferTriggerOptionIndex","type":"uint256","internalType":"uint256"},{"name":"transferRecipient","type":"address","internalType":"address payable"},{"name":"transferAmount","type":"uint256","internalType":"uint256"},{"name":"transferEnabled","type":"bool","internalType":"bool"},{"name":"transferToken","type":"address","internalType":"address"}],"stateMutability":"view"},{"type":"function","name":"getProposalOptionVotes","inputs":[{"name":"_proposalId","type":"uint256","internalType":"uint256"},{"name":"_optionIndex","type":"uint256","internalType":"uint256"}],"outputs":[{"name":"votesPT","type":"uint256","internalType":"uint256"},{"name":"votesDDT","type":"uint256","internalType":"uint256"}],"stateMutability":"view"},{"type":"function","name":"getProposalsCount","inputs":[],"outputs":[{"name":"","type":"uint256","internalType":"uint256"}],"stateMutability":"view"},{"type":"function","name":"nftMembership","inputs":[],"outputs":[{"name":"","type":"address","internalType":"contract INFTMembership3"}],"stateMutability":"view"},{"type":"function","name":"participationVoteWeight","inputs":[],"outputs":[{"name":"","type":"uint256","internalType":"uint256"}],"stateMutability":"view"},{"type":"function","name":"quadraticVotingEnabled","inputs":[],"outputs":[{"name":"","type":"bool","internalType":"bool"}],"stateMutability":"view"},{"type":"function","name":"quorumPercentage","inputs":[],"outputs":[{"name":"","type":"uint256","internalType":"uint256"}],"stateMutability":"view"},{"type":"function","name":"treasury","inputs":[],"outputs":[{"name":"","type":"address","internalType":"contract ITreasury2"}],"stateMutability":"view"},{"type":"function","name":"vote","inputs":[{"name":"_proposalId","type":"uint256","internalType":"uint256"},{"name":"_voter","type":"address","internalType":"address"},{"name":"_optionIndices","type":"uint256[]","internalType":"uint256[]"},{"name":"_weights","type":"uint256[]","internalType":"uint256[]"}],"outputs":[],"stateMutability":"nonpayable"},{"type":"event","name":"NewProposal","inputs":[{"name":"proposalId","type":"uint256","indexed":true,"internalType":"uint256"},{"name":"name","type":"string","indexed":false,"internalType":"string"},{"name":"description","type":"string","indexed":false,"internalType":"string"},{"name":"timeInMinutes","type":"uint256","indexed":false,"internalType":"uint256"},{"name":"creationTimestamp","type":"uint256","indexed":false,"internalType":"uint256"},{"name":"transferTriggerOptionIndex","type":"uint256","indexed":false,"internalType":"uint256"},{"name":"transferRecipient","type":"address","indexed":false,"internalType":"address"},{"name":"transferAmount","type":"uint256","indexed":false,"internalType":"uint256"},{"name":"transferEnabled","type":"bool","indexed":false,"internalType":"bool"},{"name":"transferToken","type":"address","indexed":false,"internalType":"address"}],"anonymous":false},{"type":"event","name":"PollOptionNames","inputs":[{"name":"proposalId","type":"uint256","indexed":true,"internalType":"uint256"},{"name":"optionIndex","type":"uint256","indexed":true,"internalType":"uint256"},{"name":"name","type":"string","indexed":false,"internalType":"string"}],"anonymous":false},{"type":"event","name":"Voted","inputs":[{"name":"proposalId","type":"uint256","indexed":true,"internalType":"uint256"},{"name":"voter","type":"address","indexed":true,"internalType":"address"},{"name":"optionIndices","type":"uint256[]","indexed":false,"internalType":"uint256[]"},{"name":"weights","type":"uint256[]","indexed":false,"internalType":"uint256[]"},{"name":"voteWeightPT","type":"uint256","indexed":false,"internalType":"uint256"}],"anonymous":false},{"type":"event","name":"WinnerAnnounced","inputs":[{"name":"proposalId","type":"uint256","indexed":true,"internalType":"uint256"},{"name":"winningOptionIndex","type":"uint256","indexed":false,"internalType":"uint256"},{"name":"hasValidWinner","type":"bool","indexed":false,"internalType":"bool"}],"anonymous":false}],"bytecode":{"object":"0x6080604052346101ad5761195f803803806100198161023c565b928339810190610120818303126101ad5761003381610261565b9061004060208201610261565b9161004d60408301610261565b60608301519093906001600160401b0381116101ad5783019480601f870112156101ad578551956001600160401b038711610226578660051b9160208061009581860161023c565b809a81520193830101918183116101ad5760208101935b8385106101b25750505050506080830151938415158095036101ad5760a08401519160c0850151936101006100e360e08801610261565b960151600455600080546001600160a01b03199081166001600160a01b039384161782556001805482169484169490941790935560028054909316939091169290921790555b8551811015610170576001906101566020808360051b8a0101518160405193828580945193849201610275565b810160088152030190208260ff1982541617905501610129565b508360ff80196009541691161760095560065560075560018060a01b031660018060a01b031960035416176003556040516116c690816102998239f35b600080fd5b84516001600160401b0381116101ad5782019083603f830112156101ad576020820151906001600160401b038211610226576101f7601f8301601f191660200161023c565b82815260408484010186106101ad5761021b60209493859460408685019101610275565b8152019401936100ac565b634e487b7160e01b600052604160045260246000fd5b6040519190601f01601f191682016001600160401b0381118382101761022657604052565b51906001600160a01b03821682036101ad57565b60005b8381106102885750506000910152565b818101518382015260200161027856fe6080604052600436101561001257600080fd5b6000803560e01c806308ef909d1461115357806323100186146111355780633a6e157b14610e9e57806343ab44d5146109e35780634fa76ec9146109c5578063517a62571461099257806361953300146102fe57806361d027b3146102d55780637221252a146102ae57806398e527d314610290578063a2b2b4d414610267578063a44a3d721461023e578063ad5396db14610220578063beea537c146101f9578063c7f758a81461015b578063e7ea088f146100fd5763f64fca1e146100d857600080fd5b346100fa57806003193601126100fa57602060ff600954166040519015158152f35b80fd5b50346100fa57604061012b600161014c6005610118366111a1565b9490610126835482106112c7565b611309565b50019261013a8454821061133e565b6101448185611381565b505493611381565b50015482519182526020820152f35b50346100fa5760203660031901126100fa5761012061018360043561012660055482106112c7565b508054906001810154906003810154600482015460068301549060018060a01b03600785015416926009600886015495015495604051978852602088015260408701526060860152608085015260a084015260c083015260ff8116151560e083015260018060a01b039060081c16610100820152f35b50346100fa5760203660031901126100fa576020610218600435611655565b604051908152f35b50346100fa57806003193601126100fa576020600754604051908152f35b50346100fa57806003193601126100fa576001546040516001600160a01b039091168152602090f35b50346100fa57806003193601126100fa576002546040516001600160a01b039091168152602090f35b50346100fa57806003193601126100fa576020600554604051908152f35b50346100fa57806003193601126100fa57546040516001600160a01b039091168152602090f35b50346100fa57806003193601126100fa576003546040516001600160a01b039091168152602090f35b50346100fa5760803660031901126100fa57602435906001600160a01b03821682036100fa5760443567ffffffffffffffff811161098e5761034490369060040161126a565b60643567ffffffffffffffff811161098a5761036490369060040161126a565b926005546004351092610376846112c7565b610381600435611309565b506003600482015491015490603c820291808304603c149015171561097657906103aa916113c6565b421161093b576001546040516370a0823160e01b81526001600160a01b03848116600483015290949160209186916024918391165afa9384156109305782946108fc575b5083156108c15781546040516370a0823160e01b81526001600160a01b03858116600483015290969160209188916024918391165afa9586156108b657839661087b575b5061043c906112c7565b805186510361082357819382945b87518610156104725761046a600191610463888b611428565b51906113c6565b95019461044a565b87955060648791036107de57610489600435611309565b5090600282019060018060a01b0387166000528160205260ff604060002054166107a95784516005840154036107645760095460ff161561075a576104cd90611655565b91909594955b60018060a01b0386166000526020526040600020600160ff198254161790558593868096819882905b845182101561060e579084939291610517828e999897611428565b51906105286005880154831061133e565b61053c610535848b611428565b518961139d565b9a61055161054a858c611428565b518c61139d565b998d61055d8683611428565b51116105ed575b50906105728c8b94936113c6565b9961057c916113c6565b9a8088549061058a916113c6565b88556105998260058a01611381565b50908154906105a7916113c6565b9055816001880154906105b9916113c6565b60018801556105cb9060058801611381565b50600101908154906105dc916113c6565b9055600101909192939495976104fc565b6105ff919e508a93929d508490611428565b51909c909b8d9250908e610564565b8b949791508a9295939860648802888104606414891517156107465790610634916113f6565b916064810290810460640361073257916106767f524b03e0d85baf4e29a9bd35b690853f5f9ea260b012b6a7540e368197497785979694926106ac96946113f6565b8115801590610729575b6106ca575b5050505061069e6040519660608852606088019061143c565b90868203602088015261143c565b60408501939093526001600160a01b0316926004359281900390a380f35b61071261071d9260016106fc866106e5839860058b01611381565b506106f18582546113c6565b905560058901611381565b50016107098482546113c6565b905585546113c6565b8455828401546113c6565b91015587808080610685565b50801515610680565b634e487b7160e01b8a52601160045260248afd5b634e487b7160e01b8b52601160045260248bfd5b91909594956104d3565b60405162461bcd60e51b815260206004820152601d60248201527f496e76616c6964206f7074696f6e20696e6469636573206c656e6774680000006044820152606490fd5b60405162461bcd60e51b815260206004820152600d60248201526c105b1c9958591e481d9bdd1959609a1b6044820152606490fd5b60405162461bcd60e51b815260206004820152601860248201527f546f74616c20776569676874206d7573742062652031303000000000000000006044820152606490fd5b60405162461bcd60e51b815260206004820152602a60248201527f4f7074696f6e20696e646963657320616e642077656967687473206c656e67746044820152690d040dad2e6dac2e8c6d60b31b6064820152608490fd5b9095506020813d6020116108ae575b81610897602093836111b7565b810103126108a957519461043c610432565b600080fd5b3d915061088a565b6040513d85823e3d90fd5b60405162461bcd60e51b81526020600482015260136024820152724e6f2064656d6f637261637920746f6b656e7360681b6044820152606490fd5b9093506020813d602011610928575b81610918602093836111b7565b810103126108a9575192386103ee565b3d915061090b565b6040513d84823e3d90fd5b60405162461bcd60e51b8152602060048201526013602482015272159bdd1a5b99c81d1a5b5948195e1c1a5c9959606a1b6044820152606490fd5b634e487b7160e01b83526011600452602483fd5b8280fd5b5080fd5b50346100fa5760203660031901126100fa57602060056109ba600435610126835482106112c7565b500154604051908152f35b50346100fa57806003193601126100fa576020600454604051908152f35b50346100fa576101203660031901126100fa5760043567ffffffffffffffff811161098e57610a1690369060040161120b565b9060243567ffffffffffffffff811161098e57610a3790369060040161120b565b91604435916064359167ffffffffffffffff831161098e573660238401121561098e57826004013592610a6984611252565b93610a7760405195866111b7565b80855260051b810160240160208501368211610e9a5760248301905b828210610e665750505060a4356001600160a01b03811695915060843590869003610e625760c43560e43590811515809203610e5e5761010435976001600160a01b03891693848a03610e5a57600254604051630eef043160e31b8152336004820152908990829060249082906001600160a01b03165afa908115610e4f578991610dc3575b50610b35602060ff9281604051938285809451938492016113d3565b81016008815203019020541615610d7457600554600160401b811015610d6057806001610b659201600555611309565b5088815560018101899055600381018790554260048201556007810180546001600160a01b031916841790556008808201859055600682018390556009820180546001600160a81b03191660ff8816179c90911b610100600160a81b03169b909b17909a5560055460001981019b908c11610d4c5792610c2095928c989592610c2e7f02cdbdf6d83224bfc61f2b0e33d9159756d8eaf2dfb75d5e66d2a63cef32e8dc9996604051998a996101208b526101208b0190611403565b9089820360208b0152611403565b956040880152426060880152608087015260a086015260c085015260e08401526101008301520390a26005819301925b8251811015610d48576040516040810181811067ffffffffffffffff821117610d3457604052828152602081018381528554600160401b811015610d2057806001610cac9201885587611381565b929092610d0c57518255516001918201559080867fd3b5cef521b08344b2f3822456355f6c2603e7f00a271d0215ac4760a401fc48610d03610cee8489611428565b51604051918291602083526020830190611403565b0390a301610c5e565b634e487b7160e01b85526004859052602485fd5b634e487b7160e01b85526041600452602485fd5b634e487b7160e01b84526041600452602484fd5b5080f35b634e487b7160e01b89526011600452602489fd5b634e487b7160e01b89526041600452602489fd5b60405162461bcd60e51b815260206004820152602160248201527f4e6f7420617574686f72697a656420746f206372656174652070726f706f73616044820152601b60fa1b6064820152608490fd5b90503d808a833e610dd481836111b7565b810190602081830312610e4b5780519067ffffffffffffffff8211610e47570181601f82011215610e4b57805190610e0b826111ef565b92610e1960405194856111b7565b82845260208383010111610e475782610e3f610b3593602093848060ff980191016113d3565b925050610b19565b8a80fd5b8980fd5b6040513d8b823e3d90fd5b8780fd5b8580fd5b8380fd5b813567ffffffffffffffff8111610e9657602091610e8b83926024369189010161120b565b815201910190610a93565b8680fd5b8480fd5b50346100fa5760203660031901126100fa57600435906005548210610ec2816112c7565b610ecb83611309565b506003600482015491015490603c820291808304603c14901517156111215790610ef4916113c6565b4211156110dc57610f04906112c7565b610f0d82611490565b92909183806110c5575b806110af575b610f67575b506040805183815284151560208201527f80fa758d7c24e927ad76726080b3e8e8ec336147a2e7f4edde3e19d9c94e7c369190a2604080519182529115156020820152f35b611010610f7383611309565b506009015460081c6001600160a01b03160361100f576003546001600160a01b0316610f9e83611309565b50600701546001600160a01b03166008610fb785611309565b50015490823b15610e6257906044849283604051958694859363522f681560e01b8552600485015260248401525af1801561093057610ffa575b50505b38610f22565b6110058280926111b7565b6100fa5780610ff1565b6003546001600160a01b031661102483611309565b506009015460081c6001600160a01b031661103e84611309565b50600701546001600160a01b031690600861105886611309565b50015492803b15610e9a57849291836064926040519687958694631cdacd5960e31b86526004860152602485015260448401525af180156109305761109f575b5050610ff4565b816110a9916111b7565b38611098565b5060066110bb83611309565b5001548314610f1d565b5060ff60096110d384611309565b50015416610f17565b60405162461bcd60e51b815260206004820152601860248201527f566f74696e67206973206e6f742079657420636c6f73656400000000000000006044820152606490fd5b634e487b7160e01b84526011600452602484fd5b50346100fa57806003193601126100fa576020600654604051908152f35b50346100fa57604061118d61117a600561116c366111a1565b9290610126835482106112c7565b50016111888154831061133e565b611381565b506001815491015482519182526020820152f35b60409060031901126108a9576004359060243590565b90601f8019910116810190811067ffffffffffffffff8211176111d957604052565b634e487b7160e01b600052604160045260246000fd5b67ffffffffffffffff81116111d957601f01601f191660200190565b81601f820112156108a957803590611222826111ef565b9261123060405194856111b7565b828452602083830101116108a957816000926020809301838601378301015290565b67ffffffffffffffff81116111d95760051b60200190565b9080601f830112156108a957813561128181611252565b9261128f60405194856111b7565b81845260208085019260051b8201019283116108a957602001905b8282106112b75750505090565b81358152602091820191016112aa565b156112ce57565b60405162461bcd60e51b8152602060048201526013602482015272125b9d985b1a59081c1c9bdc1bdcd85b081251606a1b6044820152606490fd5b600554811015611328576005600052600a602060002091020190600090565b634e487b7160e01b600052603260045260246000fd5b1561134557565b60405162461bcd60e51b8152602060048201526014602482015273092dcecc2d8d2c840dee0e8d2dedc40d2dcc8caf60631b6044820152606490fd5b80548210156113285760005260206000209060011b0190600090565b818102929181159184041417156113b057565b634e487b7160e01b600052601160045260246000fd5b919082018092116113b057565b60005b8381106113e65750506000910152565b81810151838201526020016113d6565b919082039182116113b057565b9060209161141c815180928185528580860191016113d3565b601f01601f1916010190565b80518210156113285760209160051b010190565b906020808351928381520192019060005b81811061145a5750505090565b825184526020938401939092019160010161144d565b811561147a570490565b634e487b7160e01b600052601260045260246000fd5b6114a19061012660055482106112c7565b50908154801590818092611649575b61163d579060008092819560018101549360058492018054936114d285611252565b966114e060405198896111b7565b858852601f196114ef87611252565b013660208a0137869315811515925b8786106115625750505050505061151a6064916004549061139d565b0492825b828110611539575050501015611532579190565b9150600190565b6115438183611428565b51848111611555575b5060010161151e565b909550925084600161154c565b9091929394956115728787611381565b505460016115808989611381565b500154908415611635576007546115969161139d565b612710810290808204612710149015171561074657836115b591611470565b905b888c8c891561161e575050506115d0906006549061139d565b6127108102908082046127101490151715610746576001928c61160c611604611612956115fe8b8f97611470565b906113c6565b938492611428565b526113c6565b960194939291906114fe565b6001959293506116046116129561160c92906113c6565b5089906115b7565b50509050600090600090565b506001840154156114b0565b90600182018083116113b05760011c825b838210611671575050565b909250611687836116828184611470565b6113c6565b60011c9061166656fea264697066735822122054b55bfda922953d14c0011dc860d0cea71a49b81ca4053aff57766b7a1ef1cc64736f6c634300081a0033","linkReferences":{}},"methodIdentifiers":{"DirectDemocracyToken()":"a44a3d72","ParticipationToken()":"7221252a","announceWinner(uint256)":"3a6e157b","calculateQuadraticVoteWeight(uint256)":"beea537c","createProposal(string,string,uint256,string[],uint256,address,uint256,bool,address)":"43ab44d5","democracyVoteWeight()":"23100186","getOptionVotes(uint256,uint256)":"e7ea088f","getOptionsCount(uint256)":"517a6257","getProposal(uint256)":"c7f758a8","getProposalOptionVotes(uint256,uint256)":"08ef909d","getProposalsCount()":"98e527d3","nftMembership()":"a2b2b4d4","participationVoteWeight()":"ad5396db","quadraticVotingEnabled()":"f64fca1e","quorumPercentage()":"4fa76ec9","treasury()":"61d027b3","vote(uint256,address,uint256[],uint256[])":"61953300"},"id":49}