{"abi":[{"type":"constructor","inputs":[{"name":"_ParticipationToken","type":"address","internalType":"address"},{"name":"_DemocracyToken","type":"address","internalType":"address"},{"name":"_nftMembership","type":"address","internalType":"address"},{"name":"_allowedRoleNames","type":"string[]","internalType":"string[]"},{"name":"_quadraticVotingEnabled","type":"bool","internalType":"bool"},{"name":"_democracyVoteWeight","type":"uint256","internalType":"uint256"},{"name":"_participationVoteWeight","type":"uint256","internalType":"uint256"},{"name":"_treasuryAddress","type":"address","internalType":"address"},{"name":"_quorumPercentage","type":"uint256","internalType":"uint256"}],"stateMutability":"nonpayable"},{"type":"function","name":"DirectDemocracyToken","inputs":[],"outputs":[{"name":"","type":"address","internalType":"contract IERC20"}],"stateMutability":"view"},{"type":"function","name":"ParticipationToken","inputs":[],"outputs":[{"name":"","type":"address","internalType":"contract IERC20"}],"stateMutability":"view"},{"type":"function","name":"announceWinner","inputs":[{"name":"_proposalId","type":"uint256","internalType":"uint256"}],"outputs":[{"name":"","type":"uint256","internalType":"uint256"},{"name":"","type":"bool","internalType":"bool"}],"stateMutability":"nonpayable"},{"type":"function","name":"calculateQuadraticVoteWeight","inputs":[{"name":"_balance","type":"uint256","internalType":"uint256"}],"outputs":[{"name":"","type":"uint256","internalType":"uint256"}],"stateMutability":"pure"},{"type":"function","name":"createProposal","inputs":[{"name":"_name","type":"string","internalType":"string"},{"name":"_description","type":"string","internalType":"string"},{"name":"_timeInMinutes","type":"uint256","internalType":"uint256"},{"name":"_optionNames","type":"string[]","internalType":"string[]"},{"name":"_transferTriggerOptionIndex","type":"uint256","internalType":"uint256"},{"name":"_transferRecipient","type":"address","internalType":"address payable"},{"name":"_transferAmount","type":"uint256","internalType":"uint256"},{"name":"_transferEnabled","type":"bool","internalType":"bool"},{"name":"_transferToken","type":"address","internalType":"address"}],"outputs":[],"stateMutability":"nonpayable"},{"type":"function","name":"democracyVoteWeight","inputs":[],"outputs":[{"name":"","type":"uint256","internalType":"uint256"}],"stateMutability":"view"},{"type":"function","name":"getOptionVotes","inputs":[{"name":"_proposalId","type":"uint256","internalType":"uint256"},{"name":"_optionIndex","type":"uint256","internalType":"uint256"}],"outputs":[{"name":"votesPT","type":"uint256","internalType":"uint256"},{"name":"votesDDT","type":"uint256","internalType":"uint256"}],"stateMutability":"view"},{"type":"function","name":"getOptionsCount","inputs":[{"name":"_proposalId","type":"uint256","internalType":"uint256"}],"outputs":[{"name":"","type":"uint256","internalType":"uint256"}],"stateMutability":"view"},{"type":"function","name":"getProposal","inputs":[{"name":"_proposalId","type":"uint256","internalType":"uint256"}],"outputs":[{"name":"totalVotesPT","type":"uint256","internalType":"uint256"},{"name":"totalVotesDDT","type":"uint256","internalType":"uint256"},{"name":"timeInMinutes","type":"uint256","internalType":"uint256"},{"name":"creationTimestamp","type":"uint256","internalType":"uint256"},{"name":"transferTriggerOptionIndex","type":"uint256","internalType":"uint256"},{"name":"transferRecipient","type":"address","internalType":"address payable"},{"name":"transferAmount","type":"uint256","internalType":"uint256"},{"name":"transferEnabled","type":"bool","internalType":"bool"},{"name":"transferToken","type":"address","internalType":"address"}],"stateMutability":"view"},{"type":"function","name":"getProposalOptionVotes","inputs":[{"name":"_proposalId","type":"uint256","internalType":"uint256"},{"name":"_optionIndex","type":"uint256","internalType":"uint256"}],"outputs":[{"name":"votesPT","type":"uint256","internalType":"uint256"},{"name":"votesDDT","type":"uint256","internalType":"uint256"}],"stateMutability":"view"},{"type":"function","name":"getProposalsCount","inputs":[],"outputs":[{"name":"","type":"uint256","internalType":"uint256"}],"stateMutability":"view"},{"type":"function","name":"nftMembership","inputs":[],"outputs":[{"name":"","type":"address","internalType":"contract INFTMembership3"}],"stateMutability":"view"},{"type":"function","name":"participationVoteWeight","inputs":[],"outputs":[{"name":"","type":"uint256","internalType":"uint256"}],"stateMutability":"view"},{"type":"function","name":"quadraticVotingEnabled","inputs":[],"outputs":[{"name":"","type":"bool","internalType":"bool"}],"stateMutability":"view"},{"type":"function","name":"quorumPercentage","inputs":[],"outputs":[{"name":"","type":"uint256","internalType":"uint256"}],"stateMutability":"view"},{"type":"function","name":"treasury","inputs":[],"outputs":[{"name":"","type":"address","internalType":"contract ITreasury2"}],"stateMutability":"view"},{"type":"function","name":"vote","inputs":[{"name":"_proposalId","type":"uint256","internalType":"uint256"},{"name":"_voter","type":"address","internalType":"address"},{"name":"_optionIndex","type":"uint256","internalType":"uint256"}],"outputs":[],"stateMutability":"nonpayable"},{"type":"event","name":"NewProposal","inputs":[{"name":"proposalId","type":"uint256","indexed":true,"internalType":"uint256"},{"name":"name","type":"string","indexed":false,"internalType":"string"},{"name":"description","type":"string","indexed":false,"internalType":"string"},{"name":"timeInMinutes","type":"uint256","indexed":false,"internalType":"uint256"},{"name":"creationTimestamp","type":"uint256","indexed":false,"internalType":"uint256"},{"name":"transferTriggerOptionIndex","type":"uint256","indexed":false,"internalType":"uint256"},{"name":"transferRecipient","type":"address","indexed":false,"internalType":"address"},{"name":"transferAmount","type":"uint256","indexed":false,"internalType":"uint256"},{"name":"transferEnabled","type":"bool","indexed":false,"internalType":"bool"},{"name":"transferToken","type":"address","indexed":false,"internalType":"address"}],"anonymous":false},{"type":"event","name":"PollOptionNames","inputs":[{"name":"proposalId","type":"uint256","indexed":true,"internalType":"uint256"},{"name":"optionIndex","type":"uint256","indexed":true,"internalType":"uint256"},{"name":"name","type":"string","indexed":false,"internalType":"string"}],"anonymous":false},{"type":"event","name":"Voted","inputs":[{"name":"proposalId","type":"uint256","indexed":true,"internalType":"uint256"},{"name":"voter","type":"address","indexed":true,"internalType":"address"},{"name":"optionIndex","type":"uint256","indexed":false,"internalType":"uint256"},{"name":"voteWeightPT","type":"uint256","indexed":false,"internalType":"uint256"},{"name":"voteWeightDDT","type":"uint256","indexed":false,"internalType":"uint256"}],"anonymous":false},{"type":"event","name":"WinnerAnnounced","inputs":[{"name":"proposalId","type":"uint256","indexed":true,"internalType":"uint256"},{"name":"winningOptionIndex","type":"uint256","indexed":false,"internalType":"uint256"},{"name":"hasValidWinner","type":"bool","indexed":false,"internalType":"bool"}],"anonymous":false}],"bytecode":{"object":"0x6080604052346101ad57611555803803806100198161023c565b928339810190610120818303126101ad5761003381610261565b9061004060208201610261565b9161004d60408301610261565b60608301519093906001600160401b0381116101ad5783019480601f870112156101ad578551956001600160401b038711610226578660051b9160208061009581860161023c565b809a81520193830101918183116101ad5760208101935b8385106101b25750505050506080830151938415158095036101ad5760a08401519160c0850151936101006100e360e08801610261565b960151600455600080546001600160a01b03199081166001600160a01b039384161782556001805482169484169490941790935560028054909316939091169290921790555b8551811015610170576001906101566020808360051b8a0101518160405193828580945193849201610275565b810160088152030190208260ff1982541617905501610129565b508360ff80196009541691161760095560065560075560018060a01b031660018060a01b031960035416176003556040516112bc90816102998239f35b600080fd5b84516001600160401b0381116101ad5782019083603f830112156101ad576020820151906001600160401b038211610226576101f7601f8301601f191660200161023c565b82815260408484010186106101ad5761021b60209493859460408685019101610275565b8152019401936100ac565b634e487b7160e01b600052604160045260246000fd5b6040519190601f01601f191682016001600160401b0381118382101761022657604052565b51906001600160a01b03821682036101ad57565b60005b8381106102885750506000910152565b818101518382015260200161027856fe6080604052600436101561001257600080fd5b6000803560e01c806308ef909d14610fac5780632310018614610f8e5780633a6e157b14610b3657806343ab44d5146106775780634de8737c1461034f5780634fa76ec914610331578063517a6257146102fe57806361d027b3146102d55780637221252a146102ae57806398e527d314610290578063a2b2b4d414610267578063a44a3d721461023e578063ad5396db14610220578063beea537c146101f9578063c7f758a81461015b578063e7ea088f146100fd5763f64fca1e146100d857600080fd5b346100fa57806003193601126100fa57602060ff600954166040519015158152f35b80fd5b50346100fa57604061012b600161014c600561011836610ffa565b9490610126835482106110c3565b611105565b50019261013a8454821061113a565b610144818561117d565b50549361117d565b50015482519182526020820152f35b50346100fa5760203660031901126100fa5761012061018360043561012660055482106110c3565b508054906001810154906003810154600482015460068301549060018060a01b03600785015416926009600886015495015495604051978852602088015260408701526060860152608085015260a084015260c083015260ff8116151560e083015260018060a01b039060081c16610100820152f35b50346100fa5760203660031901126100fa57602061021860043561124b565b604051908152f35b50346100fa57806003193601126100fa576020600754604051908152f35b50346100fa57806003193601126100fa576001546040516001600160a01b039091168152602090f35b50346100fa57806003193601126100fa576002546040516001600160a01b039091168152602090f35b50346100fa57806003193601126100fa576020600554604051908152f35b50346100fa57806003193601126100fa57546040516001600160a01b039091168152602090f35b50346100fa57806003193601126100fa576003546040516001600160a01b039091168152602090f35b50346100fa5760203660031901126100fa5760206005610326600435610126835482106110c3565b500154604051908152f35b50346100fa57806003193601126100fa576020600454604051908152f35b50346100fa5760603660031901126100fa576024356001600160a01b038116906004359082900361067357600554811060443561038b826110c3565b61039483611105565b506003600482015491015490603c820291808304603c149015171561065f57906103bd916111c2565b4211610624576001546040516370a0823160e01b8152600481018690529190602090839060249082906001600160a01b03165afa9182156106195786926105e5575b5081156105aa5785546040516370a0823160e01b8152600481018790529390602090859060249082906001600160a01b03165afa93841561059f578794610564575b5061044b906110c3565b61045484611105565b509160028301866000528060205260ff6040600020541661052f576001610506846060967f7bbc702cfc0c62aaa977159d2c8ff0642f94715abcc34af64106c1b15c2af0a09860ff60095416600014610529576104b09061124b565b945b8b60005260205260406000208460ff198254161790556104d38582546111c2565b81558360058201916104e5848461117d565b506104f18882546111c2565b9055016104ff8782546111c2565b905561117d565b50016105138382546111c2565b905560405192835260208301526040820152a380f35b946104b2565b60405162461bcd60e51b815260206004820152600d60248201526c105b1c9958591e481d9bdd1959609a1b6044820152606490fd5b9093506020813d602011610597575b8161058060209383611010565b8101031261059257519261044b610441565b600080fd5b3d9150610573565b6040513d89823e3d90fd5b60405162461bcd60e51b81526020600482015260136024820152724e6f2064656d6f637261637920746f6b656e7360681b6044820152606490fd5b9091506020813d602011610611575b8161060160209383611010565b81010312610592575190386103ff565b3d91506105f4565b6040513d88823e3d90fd5b60405162461bcd60e51b8152602060048201526013602482015272159bdd1a5b99c81d1a5b5948195e1c1a5c9959606a1b6044820152606490fd5b634e487b7160e01b87526011600452602487fd5b8280fd5b50346100fa576101203660031901126100fa5760043567ffffffffffffffff8111610b32576106aa903690600401611064565b9060243567ffffffffffffffff8111610b32576106cb903690600401611064565b91604435916064359167ffffffffffffffff8311610b325736602384011215610b32578260040135926106fd846110ab565b9361070b6040519586611010565b80855260051b810160240160208501368211610b2e5760248301905b828210610afa5750505060a4356001600160a01b03811695915060843590869003610af65760c43560e43590811515809203610af25761010435976001600160a01b03891693848a03610aee57600254604051630eef043160e31b8152336004820152908990829060249082906001600160a01b03165afa908115610ae3578991610a57575b506107c9602060ff9281604051938285809451938492016111cf565b81016008815203019020541615610a0857600554600160401b8110156109f4578060016107f99201600555611105565b5088815560018101899055600381018790554260048201556007810180546001600160a01b031916841790556008808201859055600682018390556009820180546001600160a81b03191660ff8816179c90911b610100600160a81b03169b909b17909a5560055460001981019b908c116109e057926108b495928c9895926108c27f02cdbdf6d83224bfc61f2b0e33d9159756d8eaf2dfb75d5e66d2a63cef32e8dc9996604051998a996101208b526101208b01906111f2565b9089820360208b01526111f2565b956040880152426060880152608087015260a086015260c085015260e08401526101008301520390a26005819301925b82518110156109dc576040516040810181811067ffffffffffffffff8211176109c857604052828152602081018381528554600160401b8110156109b457806001610940920188558761117d565b9290926109a057518255516001918201559080867fd3b5cef521b08344b2f3822456355f6c2603e7f00a271d0215ac4760a401fc486109976109828489611217565b516040519182916020835260208301906111f2565b0390a3016108f2565b634e487b7160e01b85526004859052602485fd5b634e487b7160e01b85526041600452602485fd5b634e487b7160e01b84526041600452602484fd5b5080f35b634e487b7160e01b89526011600452602489fd5b634e487b7160e01b89526041600452602489fd5b60405162461bcd60e51b815260206004820152602160248201527f4e6f7420617574686f72697a656420746f206372656174652070726f706f73616044820152601b60fa1b6064820152608490fd5b90503d808a833e610a688183611010565b810190602081830312610adf5780519067ffffffffffffffff8211610adb570181601f82011215610adf57805190610a9f82611048565b92610aad6040519485611010565b82845260208383010111610adb5782610ad36107c993602093848060ff980191016111cf565b9250506107ad565b8a80fd5b8980fd5b6040513d8b823e3d90fd5b8780fd5b8580fd5b8380fd5b813567ffffffffffffffff8111610b2a57602091610b1f839260243691890101611064565b815201910190610727565b8680fd5b8480fd5b5080fd5b50346100fa5760203660031901126100fa576004356005548110610b59816110c3565b610b6282611105565b506003600482015491015490603c820291808304603c1490151715610f7a5790610b8b916111c2565b421115610f355780610b9f610ba4926110c3565b6110c3565b610bad81611105565b50908280928194815491600181015490600585910191825492610bcf846110ab565b95610bdd6040519788611010565b848752601f19610bec866110ab565b013660208901378792811515811515925b878610610e3757505050505050610c1960649160045490611199565b0492845b828110610e0e575050501015610e05575b8380610dee575b80610dd8575b610c85575b506040805183815284151560208201527f80fa758d7c24e927ad76726080b3e8e8ec336147a2e7f4edde3e19d9c94e7c369190a2604080519182529115156020820152f35b611010610c9183611105565b506009015460081c6001600160a01b031603610d38576003546001600160a01b0316610cbc83611105565b50600701546001600160a01b03166008610cd585611105565b50015490823b15610af657906044849283604051958694859363522f681560e01b8552600485015260248401525af18015610d2d57610d18575b50505b38610c40565b610d23828092611010565b6100fa5780610d0f565b6040513d84823e3d90fd5b6003546001600160a01b0316610d4d83611105565b506009015460081c6001600160a01b0316610d6784611105565b50600701546001600160a01b0316906008610d8186611105565b50015492803b15610b2e57849291836064926040519687958694631cdacd5960e31b86526004860152602485015260448401525af18015610d2d57610dc8575b5050610d12565b81610dd291611010565b38610dc1565b506006610de483611105565b5001548314610c3b565b5060ff6009610dfc84611105565b50015416610c35565b60019350610c2e565b610e188183611217565b51848111610e2a575b50600101610c1d565b9097509250866001610e21565b9091929394958a610e48888861117d565b50546001610e568a8a61117d565b500154908515610f2c57610e6f91925060075490611199565b633b9aca00810290808204633b9aca001490151715610f015790888c610e978f94879061122b565b935b8915610f1557505050610eaf9060065490611199565b633b9aca00810290808204633b9aca001490151715610f01576001928c610eef610ee7610ef595610ee18b8f9761122b565b906111c2565b938492611217565b526111c2565b96019493929190610bfd565b634e487b7160e01b8d52601160045260248dfd5b600195929350610ee7610ef595610eef92906111c2565b50888c83610e99565b60405162461bcd60e51b815260206004820152601860248201527f566f74696e67206973206e6f742079657420636c6f73656400000000000000006044820152606490fd5b634e487b7160e01b85526011600452602485fd5b50346100fa57806003193601126100fa576020600654604051908152f35b50346100fa576040610fe6610fd36005610fc536610ffa565b9290610126835482106110c3565b5001610fe18154831061113a565b61117d565b506001815491015482519182526020820152f35b6040906003190112610592576004359060243590565b90601f8019910116810190811067ffffffffffffffff82111761103257604052565b634e487b7160e01b600052604160045260246000fd5b67ffffffffffffffff811161103257601f01601f191660200190565b81601f820112156105925780359061107b82611048565b926110896040519485611010565b8284526020838301011161059257816000926020809301838601378301015290565b67ffffffffffffffff81116110325760051b60200190565b156110ca57565b60405162461bcd60e51b8152602060048201526013602482015272125b9d985b1a59081c1c9bdc1bdcd85b081251606a1b6044820152606490fd5b600554811015611124576005600052600a602060002091020190600090565b634e487b7160e01b600052603260045260246000fd5b1561114157565b60405162461bcd60e51b8152602060048201526014602482015273092dcecc2d8d2c840dee0e8d2dedc40d2dcc8caf60631b6044820152606490fd5b80548210156111245760005260206000209060011b0190600090565b818102929181159184041417156111ac57565b634e487b7160e01b600052601160045260246000fd5b919082018092116111ac57565b60005b8381106111e25750506000910152565b81810151838201526020016111d2565b9060209161120b815180928185528580860191016111cf565b601f01601f1916010190565b80518210156111245760209160051b010190565b8115611235570490565b634e487b7160e01b600052601260045260246000fd5b90600182018083116111ac5760011c825b838210611267575050565b90925061127d83611278818461122b565b6111c2565b60011c9061125c56fea2646970667358221220d76dc74d48f967b7b08745d73db8f032f90576d0910910850eeac0bd4879e4e964736f6c634300081a0033","linkReferences":{}},"methodIdentifiers":{"DirectDemocracyToken()":"a44a3d72","ParticipationToken()":"7221252a","announceWinner(uint256)":"3a6e157b","calculateQuadraticVoteWeight(uint256)":"beea537c","createProposal(string,string,uint256,string[],uint256,address,uint256,bool,address)":"43ab44d5","democracyVoteWeight()":"23100186","getOptionVotes(uint256,uint256)":"e7ea088f","getOptionsCount(uint256)":"517a6257","getProposal(uint256)":"c7f758a8","getProposalOptionVotes(uint256,uint256)":"08ef909d","getProposalsCount()":"98e527d3","nftMembership()":"a2b2b4d4","participationVoteWeight()":"ad5396db","quadraticVotingEnabled()":"f64fca1e","quorumPercentage()":"4fa76ec9","treasury()":"61d027b3","vote(uint256,address,uint256)":"4de8737c"},"id":48}