{
  "_format": "hh-sol-artifact-1",
  "contractName": "HybridVoting",
  "sourceName": "contracts/HybridVoting.sol",
  "abi": [
    {
      "inputs": [
        {
          "internalType": "address",
          "name": "_ParticipationToken",
          "type": "address"
        },
        {
          "internalType": "address",
          "name": "_DemocracyToken",
          "type": "address"
        },
        {
          "internalType": "address",
          "name": "_nftMembership",
          "type": "address"
        },
        {
          "internalType": "string[]",
          "name": "_allowedRoleNames",
          "type": "string[]"
        },
        {
          "internalType": "bool",
          "name": "_quadraticVotingEnabled",
          "type": "bool"
        },
        {
          "internalType": "uint256",
          "name": "_democracyVoteWeight",
          "type": "uint256"
        },
        {
          "internalType": "uint256",
          "name": "_participationVoteWeight",
          "type": "uint256"
        },
        {
          "internalType": "address",
          "name": "_treasuryAddress",
          "type": "address"
        },
        {
          "internalType": "uint256",
          "name": "_quorumPercentage",
          "type": "uint256"
        }
      ],
      "stateMutability": "nonpayable",
      "type": "constructor"
    },
    {
      "anonymous": false,
      "inputs": [
        {
          "indexed": true,
          "internalType": "uint256",
          "name": "proposalId",
          "type": "uint256"
        },
        {
          "indexed": false,
          "internalType": "string",
          "name": "name",
          "type": "string"
        },
        {
          "indexed": false,
          "internalType": "string",
          "name": "description",
          "type": "string"
        },
        {
          "indexed": false,
          "internalType": "uint256",
          "name": "timeInMinutes",
          "type": "uint256"
        },
        {
          "indexed": false,
          "internalType": "uint256",
          "name": "creationTimestamp",
          "type": "uint256"
        },
        {
          "indexed": false,
          "internalType": "uint256",
          "name": "transferTriggerOptionIndex",
          "type": "uint256"
        },
        {
          "indexed": false,
          "internalType": "address",
          "name": "transferRecipient",
          "type": "address"
        },
        {
          "indexed": false,
          "internalType": "uint256",
          "name": "transferAmount",
          "type": "uint256"
        },
        {
          "indexed": false,
          "internalType": "bool",
          "name": "transferEnabled",
          "type": "bool"
        }
      ],
      "name": "NewProposal",
      "type": "event"
    },
    {
      "anonymous": false,
      "inputs": [
        {
          "indexed": true,
          "internalType": "uint256",
          "name": "proposalId",
          "type": "uint256"
        },
        {
          "indexed": true,
          "internalType": "uint256",
          "name": "optionIndex",
          "type": "uint256"
        },
        {
          "indexed": false,
          "internalType": "string",
          "name": "name",
          "type": "string"
        }
      ],
      "name": "PollOptionNames",
      "type": "event"
    },
    {
      "anonymous": false,
      "inputs": [
        {
          "indexed": true,
          "internalType": "uint256",
          "name": "proposalId",
          "type": "uint256"
        },
        {
          "indexed": true,
          "internalType": "address",
          "name": "voter",
          "type": "address"
        },
        {
          "indexed": false,
          "internalType": "uint256",
          "name": "optionIndex",
          "type": "uint256"
        },
        {
          "indexed": false,
          "internalType": "uint256",
          "name": "voteWeightPT",
          "type": "uint256"
        },
        {
          "indexed": false,
          "internalType": "uint256",
          "name": "voteWeightDDT",
          "type": "uint256"
        }
      ],
      "name": "Voted",
      "type": "event"
    },
    {
      "anonymous": false,
      "inputs": [
        {
          "indexed": true,
          "internalType": "uint256",
          "name": "proposalId",
          "type": "uint256"
        },
        {
          "indexed": false,
          "internalType": "uint256",
          "name": "winningOptionIndex",
          "type": "uint256"
        },
        {
          "indexed": false,
          "internalType": "bool",
          "name": "hasValidWinner",
          "type": "bool"
        }
      ],
      "name": "WinnerAnnounced",
      "type": "event"
    },
    {
      "inputs": [],
      "name": "DirectDemocracyToken",
      "outputs": [
        {
          "internalType": "contract IERC20",
          "name": "",
          "type": "address"
        }
      ],
      "stateMutability": "view",
      "type": "function"
    },
    {
      "inputs": [],
      "name": "ParticipationToken",
      "outputs": [
        {
          "internalType": "contract IERC20",
          "name": "",
          "type": "address"
        }
      ],
      "stateMutability": "view",
      "type": "function"
    },
    {
      "inputs": [
        {
          "internalType": "uint256",
          "name": "_proposalId",
          "type": "uint256"
        }
      ],
      "name": "announceWinner",
      "outputs": [],
      "stateMutability": "nonpayable",
      "type": "function"
    },
    {
      "inputs": [
        {
          "internalType": "string",
          "name": "_name",
          "type": "string"
        },
        {
          "internalType": "string",
          "name": "_description",
          "type": "string"
        },
        {
          "internalType": "uint256",
          "name": "_timeInMinutes",
          "type": "uint256"
        },
        {
          "internalType": "string[]",
          "name": "_optionNames",
          "type": "string[]"
        },
        {
          "internalType": "uint256",
          "name": "_transferTriggerOptionIndex",
          "type": "uint256"
        },
        {
          "internalType": "address payable",
          "name": "_transferRecipient",
          "type": "address"
        },
        {
          "internalType": "uint256",
          "name": "_transferAmount",
          "type": "uint256"
        },
        {
          "internalType": "bool",
          "name": "_transferEnabled",
          "type": "bool"
        }
      ],
      "name": "createProposal",
      "outputs": [],
      "stateMutability": "nonpayable",
      "type": "function"
    },
    {
      "inputs": [],
      "name": "democracyVoteWeight",
      "outputs": [
        {
          "internalType": "uint256",
          "name": "",
          "type": "uint256"
        }
      ],
      "stateMutability": "view",
      "type": "function"
    },
    {
      "inputs": [
        {
          "internalType": "uint256",
          "name": "_proposalId",
          "type": "uint256"
        },
        {
          "internalType": "uint256",
          "name": "_optionIndex",
          "type": "uint256"
        }
      ],
      "name": "getOptionVotes",
      "outputs": [
        {
          "internalType": "uint256",
          "name": "votesPT",
          "type": "uint256"
        },
        {
          "internalType": "uint256",
          "name": "votesDDT",
          "type": "uint256"
        }
      ],
      "stateMutability": "view",
      "type": "function"
    },
    {
      "inputs": [
        {
          "internalType": "uint256",
          "name": "_proposalId",
          "type": "uint256"
        }
      ],
      "name": "getOptionsCount",
      "outputs": [
        {
          "internalType": "uint256",
          "name": "",
          "type": "uint256"
        }
      ],
      "stateMutability": "view",
      "type": "function"
    },
    {
      "inputs": [],
      "name": "nftMembership",
      "outputs": [
        {
          "internalType": "contract INFTMembership3",
          "name": "",
          "type": "address"
        }
      ],
      "stateMutability": "view",
      "type": "function"
    },
    {
      "inputs": [],
      "name": "participationVoteWeight",
      "outputs": [
        {
          "internalType": "uint256",
          "name": "",
          "type": "uint256"
        }
      ],
      "stateMutability": "view",
      "type": "function"
    },
    {
      "inputs": [],
      "name": "quadraticVotingEnabled",
      "outputs": [
        {
          "internalType": "bool",
          "name": "",
          "type": "bool"
        }
      ],
      "stateMutability": "view",
      "type": "function"
    },
    {
      "inputs": [],
      "name": "quorumPercentage",
      "outputs": [
        {
          "internalType": "uint256",
          "name": "",
          "type": "uint256"
        }
      ],
      "stateMutability": "view",
      "type": "function"
    },
    {
      "inputs": [],
      "name": "treasury",
      "outputs": [
        {
          "internalType": "contract ITreasury2",
          "name": "",
          "type": "address"
        }
      ],
      "stateMutability": "view",
      "type": "function"
    },
    {
      "inputs": [
        {
          "internalType": "uint256",
          "name": "_proposalId",
          "type": "uint256"
        },
        {
          "internalType": "address",
          "name": "_voter",
          "type": "address"
        },
        {
          "internalType": "uint256",
          "name": "_optionIndex",
          "type": "uint256"
        }
      ],
      "name": "vote",
      "outputs": [],
      "stateMutability": "nonpayable",
      "type": "function"
    }
  ],
  "bytecode": "0x608060405260326004553480156200001657600080fd5b506040516200290f3803806200290f83398181016040528101906200003c919062000563565b80600481905550886000806101000a81548173ffffffffffffffffffffffffffffffffffffffff021916908373ffffffffffffffffffffffffffffffffffffffff16021790555087600160006101000a81548173ffffffffffffffffffffffffffffffffffffffff021916908373ffffffffffffffffffffffffffffffffffffffff16021790555086600260006101000a81548173ffffffffffffffffffffffffffffffffffffffff021916908373ffffffffffffffffffffffffffffffffffffffff16021790555060005b86518110156200017e57600160088883815181106200012c576200012b62000661565b5b6020026020010151604051620001439190620006dd565b908152602001604051809103902060006101000a81548160ff0219169083151502179055508080620001759062000725565b91505062000108565b5084600960006101000a81548160ff021916908315150217905550836006819055508260078190555081600360006101000a81548173ffffffffffffffffffffffffffffffffffffffff021916908373ffffffffffffffffffffffffffffffffffffffff16021790555050505050505050505062000772565b6000604051905090565b600080fd5b600080fd5b600073ffffffffffffffffffffffffffffffffffffffff82169050919050565b600062000238826200020b565b9050919050565b6200024a816200022b565b81146200025657600080fd5b50565b6000815190506200026a816200023f565b92915050565b600080fd5b6000601f19601f8301169050919050565b7f4e487b7100000000000000000000000000000000000000000000000000000000600052604160045260246000fd5b620002c08262000275565b810181811067ffffffffffffffff82111715620002e257620002e162000286565b5b80604052505050565b6000620002f7620001f7565b9050620003058282620002b5565b919050565b600067ffffffffffffffff82111562000328576200032762000286565b5b602082029050602081019050919050565b600080fd5b600080fd5b600067ffffffffffffffff82111562000361576200036062000286565b5b6200036c8262000275565b9050602081019050919050565b60005b83811015620003995780820151818401526020810190506200037c565b60008484015250505050565b6000620003bc620003b68462000343565b620002eb565b905082815260208101848484011115620003db57620003da6200033e565b5b620003e884828562000379565b509392505050565b600082601f83011262000408576200040762000270565b5b81516200041a848260208601620003a5565b91505092915050565b60006200043a62000434846200030a565b620002eb565b9050808382526020820190506020840283018581111562000460576200045f62000339565b5b835b81811015620004ae57805167ffffffffffffffff81111562000489576200048862000270565b5b808601620004988982620003f0565b8552602085019450505060208101905062000462565b5050509392505050565b600082601f830112620004d057620004cf62000270565b5b8151620004e284826020860162000423565b91505092915050565b60008115159050919050565b6200050281620004eb565b81146200050e57600080fd5b50565b6000815190506200052281620004f7565b92915050565b6000819050919050565b6200053d8162000528565b81146200054957600080fd5b50565b6000815190506200055d8162000532565b92915050565b60008060008060008060008060006101208a8c03121562000589576200058862000201565b5b6000620005998c828d0162000259565b9950506020620005ac8c828d0162000259565b9850506040620005bf8c828d0162000259565b97505060608a015167ffffffffffffffff811115620005e357620005e262000206565b5b620005f18c828d01620004b8565b9650506080620006048c828d0162000511565b95505060a0620006178c828d016200054c565b94505060c06200062a8c828d016200054c565b93505060e06200063d8c828d0162000259565b925050610100620006518c828d016200054c565b9150509295985092959850929598565b7f4e487b7100000000000000000000000000000000000000000000000000000000600052603260045260246000fd5b600081519050919050565b600081905092915050565b6000620006b38262000690565b620006bf81856200069b565b9350620006d181856020860162000379565b80840191505092915050565b6000620006eb8284620006a6565b915081905092915050565b7f4e487b7100000000000000000000000000000000000000000000000000000000600052601160045260246000fd5b6000620007328262000528565b91507fffffffffffffffffffffffffffffffffffffffffffffffffffffffffffffffff8203620007675762000766620006f6565b5b600182019050919050565b61218d80620007826000396000f3fe608060405234801561001057600080fd5b50600436106100cf5760003560e01c80637221252a1161008c578063ad5396db11610066578063ad5396db146101f0578063e7ea088f1461020e578063f64fca1e1461023f578063fdbbcbc21461025d576100cf565b80637221252a14610196578063a2b2b4d4146101b4578063a44a3d72146101d2576100cf565b806323100186146100d45780633a6e157b146100f25780634de8737c1461010e5780634fa76ec91461012a578063517a62571461014857806361d027b314610178575b600080fd5b6100dc610279565b6040516100e991906112c6565b60405180910390f35b61010c60048036038101906101079190611321565b61027f565b005b610128600480360381019061012391906113ac565b610573565b005b610132610a53565b60405161013f91906112c6565b60405180910390f35b610162600480360381019061015d9190611321565b610a59565b60405161016f91906112c6565b60405180910390f35b610180610ad8565b60405161018d919061145e565b60405180910390f35b61019e610afe565b6040516101ab919061149a565b60405180910390f35b6101bc610b22565b6040516101c991906114d6565b60405180910390f35b6101da610b48565b6040516101e7919061149a565b60405180910390f35b6101f8610b6e565b60405161020591906112c6565b60405180910390f35b610228600480360381019061022391906114f1565b610b74565b604051610236929190611531565b60405180910390f35b610247610c89565b6040516102549190611575565b60405180910390f35b61027760048036038101906102729190611826565b610c9c565b005b60065481565b8060058054905081106102c7576040517f08c379a00000000000000000000000000000000000000000000000000000000081526004016102be9061198d565b60405180910390fd5b6000600582815481106102dd576102dc6119ad565b5b90600052602060002090600a02019050603c81600301546102fe9190611a0b565b816004015461030d9190611a4d565b421161034e576040517f08c379a000000000000000000000000000000000000000000000000000000000815260040161034590611acd565b60405180910390fd5b6005805490508310610395576040517f08c379a000000000000000000000000000000000000000000000000000000000815260040161038c9061198d565b60405180910390fd5b6000806103a185610f9d565b915091508080156103e15750600585815481106103c1576103c06119ad565b5b90600052602060002090600a020160090160009054906101000a900460ff165b80156104115750600585815481106103fc576103fb6119ad565b5b90600052602060002090600a02016006015482145b1561053257600360009054906101000a900473ffffffffffffffffffffffffffffffffffffffff1673ffffffffffffffffffffffffffffffffffffffff1663e6d66ac860008054906101000a900473ffffffffffffffffffffffffffffffffffffffff1660058881548110610489576104886119ad565b5b90600052602060002090600a020160070160009054906101000a900473ffffffffffffffffffffffffffffffffffffffff16600589815481106104cf576104ce6119ad565b5b90600052602060002090600a0201600801546040518463ffffffff1660e01b81526004016104ff93929190611b1d565b600060405180830381600087803b15801561051957600080fd5b505af115801561052d573d6000803e3d6000fd5b505050505b847f80fa758d7c24e927ad76726080b3e8e8ec336147a2e7f4edde3e19d9c94e7c368383604051610564929190611b54565b60405180910390a25050505050565b8260058054905081106105bb576040517f08c379a00000000000000000000000000000000000000000000000000000000081526004016105b29061198d565b60405180910390fd5b6000600582815481106105d1576105d06119ad565b5b90600052602060002090600a02019050603c81600301546105f29190611a0b565b81600401546106019190611a4d565b421115610643576040517f08c379a000000000000000000000000000000000000000000000000000000000815260040161063a90611bc9565b60405180910390fd5b6000600160009054906101000a900473ffffffffffffffffffffffffffffffffffffffff1673ffffffffffffffffffffffffffffffffffffffff166370a08231866040518263ffffffff1660e01b81526004016106a09190611be9565b602060405180830381865afa1580156106bd573d6000803e3d6000fd5b505050506040513d601f19601f820116820180604052508101906106e19190611c19565b905060008111610726576040517f08c379a000000000000000000000000000000000000000000000000000000000815260040161071d90611c92565b60405180910390fd5b60008060009054906101000a900473ffffffffffffffffffffffffffffffffffffffff1673ffffffffffffffffffffffffffffffffffffffff166370a08231876040518263ffffffff1660e01b81526004016107829190611be9565b602060405180830381865afa15801561079f573d6000803e3d6000fd5b505050506040513d601f19601f820116820180604052508101906107c39190611c19565b9050600580549050871061080c576040517f08c379a00000000000000000000000000000000000000000000000000000000081526004016108039061198d565b60405180910390fd5b600060058881548110610822576108216119ad565b5b90600052602060002090600a020190508060020160008873ffffffffffffffffffffffffffffffffffffffff1673ffffffffffffffffffffffffffffffffffffffff16815260200190815260200160002060009054906101000a900460ff16156108c1576040517f08c379a00000000000000000000000000000000000000000000000000000000081526004016108b890611cfe565b60405180910390fd5b6000600960009054906101000a900460ff166108dd57826108e7565b6108e68361123e565b5b905060018260020160008a73ffffffffffffffffffffffffffffffffffffffff1673ffffffffffffffffffffffffffffffffffffffff16815260200190815260200160002060006101000a81548160ff021916908315150217905550808260000160008282546109579190611a4d565b9250508190555080826005018881548110610975576109746119ad565b5b906000526020600020906002020160000160008282546109959190611a4d565b92505081905550838260010160008282546109b09190611a4d565b92505081905550838260050188815481106109ce576109cd6119ad565b5b906000526020600020906002020160010160008282546109ee9190611a4d565b925050819055508773ffffffffffffffffffffffffffffffffffffffff16897f7bbc702cfc0c62aaa977159d2c8ff0642f94715abcc34af64106c1b15c2af0a0898488604051610a4093929190611d1e565b60405180910390a3505050505050505050565b60045481565b60006005805490508210610aa2576040517f08c379a0000000000000000000000000000000000000000000000000000000008152600401610a999061198d565b60405180910390fd5b600060058381548110610ab857610ab76119ad565b5b90600052602060002090600a020190508060050180549050915050919050565b600360009054906101000a900473ffffffffffffffffffffffffffffffffffffffff1681565b60008054906101000a900473ffffffffffffffffffffffffffffffffffffffff1681565b600260009054906101000a900473ffffffffffffffffffffffffffffffffffffffff1681565b600160009054906101000a900473ffffffffffffffffffffffffffffffffffffffff1681565b60075481565b6000806005805490508410610bbe576040517f08c379a0000000000000000000000000000000000000000000000000000000008152600401610bb59061198d565b60405180910390fd5b600060058581548110610bd457610bd36119ad565b5b90600052602060002090600a0201905080600501805490508410610c2d576040517f08c379a0000000000000000000000000000000000000000000000000000000008152600401610c2490611da1565b60405180910390fd5b806005018481548110610c4357610c426119ad565b5b906000526020600020906002020160000154816005018581548110610c6b57610c6a6119ad565b5b90600052602060002090600202016001015492509250509250929050565b600960009054906101000a900460ff1681565b6000600260009054906101000a900473ffffffffffffffffffffffffffffffffffffffff1673ffffffffffffffffffffffffffffffffffffffff166377782188336040518263ffffffff1660e01b8152600401610cf99190611be9565b600060405180830381865afa158015610d16573d6000803e3d6000fd5b505050506040513d6000823e3d601f19601f82011682018060405250810190610d3f9190611e5b565b9050600881604051610d519190611eeb565b908152602001604051809103902060009054906101000a900460ff16610dac576040517f08c379a0000000000000000000000000000000000000000000000000000000008152600401610da390611f74565b60405180910390fd5b600060056001816001815401808255809150500390600052602060002090600a020190506000816000018190555060008160010181905550878160030181905550428160040181905550848160070160006101000a81548173ffffffffffffffffffffffffffffffffffffffff021916908373ffffffffffffffffffffffffffffffffffffffff160217905550838160080181905550858160060181905550828160090160006101000a81548160ff02191690831515021790555060006001600580549050610e7b9190611f94565b9050807ffb1330a17ffe898a019796942f0ab05b8d97f1e01c9d47ac01b2fe7b462c152b8c8c8c428c8c8c8c604051610ebb989796959493929190612001565b60405180910390a260005b8851811015610f8f5782600501604051806040016040528060008152602001600081525090806001815401808255809150506001900390600052602060002090600202016000909190919091506000820151816000015560208201518160010155505080827fd3b5cef521b08344b2f3822456355f6c2603e7f00a271d0215ac4760a401fc488b8481518110610f5f57610f5e6119ad565b5b6020026020010151604051610f74919061208d565b60405180910390a38080610f87906120af565b915050610ec6565b505050505050505050505050565b6000806005805490508310610fe7576040517f08c379a0000000000000000000000000000000000000000000000000000000008152600401610fde9061198d565b60405180910390fd5b600060058481548110610ffd57610ffc6119ad565b5b90600052602060002090600a02019050600080600080846000015490506000856001015490506000633b9aca009050600080886005018054905067ffffffffffffffff8111156110505761104f6115ab565b5b60405190808252806020026020018201604052801561107e5781602001602082028036833780820191505090505b50905060005b89600501805490508110156111af5760008a60050182815481106110ab576110aa6119ad565b5b906000526020600020906002020160000154905060008b60050183815481106110d7576110d66119ad565b5b906000526020600020906002020160010154905060008089116110fb576000611120565b88876007548561110b9190611a0b565b6111159190611a0b565b61111f9190612126565b5b90506000808911611132576000611157565b8888600654856111429190611a0b565b61114c9190611a0b565b6111569190612126565b5b9050600081836111679190611a4d565b90508087878151811061117d5761117c6119ad565b5b60200260200101818152505080886111959190611a4d565b9750505050505080806111a7906120af565b915050611084565b5060006064600454846111c29190611a0b565b6111cc9190612126565b905060005b8a600501805490508110156112285760008382815181106111f5576111f46119ad565b5b602002602001015190508a81111561121457809a508199508285101598505b508080611220906120af565b9150506111d1565b5087879b509b5050505050505050505050915091565b600061124982611250565b9050919050565b60008060026001846112629190611a4d565b61126c9190612126565b90508291505b818110156112a757809150600281828561128c9190612126565b6112969190611a4d565b6112a09190612126565b9050611272565b50919050565b6000819050919050565b6112c0816112ad565b82525050565b60006020820190506112db60008301846112b7565b92915050565b6000604051905090565b600080fd5b600080fd5b6112fe816112ad565b811461130957600080fd5b50565b60008135905061131b816112f5565b92915050565b600060208284031215611337576113366112eb565b5b60006113458482850161130c565b91505092915050565b600073ffffffffffffffffffffffffffffffffffffffff82169050919050565b60006113798261134e565b9050919050565b6113898161136e565b811461139457600080fd5b50565b6000813590506113a681611380565b92915050565b6000806000606084860312156113c5576113c46112eb565b5b60006113d38682870161130c565b93505060206113e486828701611397565b92505060406113f58682870161130c565b9150509250925092565b6000819050919050565b600061142461141f61141a8461134e565b6113ff565b61134e565b9050919050565b600061143682611409565b9050919050565b60006114488261142b565b9050919050565b6114588161143d565b82525050565b6000602082019050611473600083018461144f565b92915050565b60006114848261142b565b9050919050565b61149481611479565b82525050565b60006020820190506114af600083018461148b565b92915050565b60006114c08261142b565b9050919050565b6114d0816114b5565b82525050565b60006020820190506114eb60008301846114c7565b92915050565b60008060408385031215611508576115076112eb565b5b60006115168582860161130c565b92505060206115278582860161130c565b9150509250929050565b600060408201905061154660008301856112b7565b61155360208301846112b7565b9392505050565b60008115159050919050565b61156f8161155a565b82525050565b600060208201905061158a6000830184611566565b92915050565b600080fd5b600080fd5b6000601f19601f8301169050919050565b7f4e487b7100000000000000000000000000000000000000000000000000000000600052604160045260246000fd5b6115e38261159a565b810181811067ffffffffffffffff82111715611602576116016115ab565b5b80604052505050565b60006116156112e1565b905061162182826115da565b919050565b600067ffffffffffffffff821115611641576116406115ab565b5b61164a8261159a565b9050602081019050919050565b82818337600083830152505050565b600061167961167484611626565b61160b565b90508281526020810184848401111561169557611694611595565b5b6116a0848285611657565b509392505050565b600082601f8301126116bd576116bc611590565b5b81356116cd848260208601611666565b91505092915050565b600067ffffffffffffffff8211156116f1576116f06115ab565b5b602082029050602081019050919050565b600080fd5b600061171a611715846116d6565b61160b565b9050808382526020820190506020840283018581111561173d5761173c611702565b5b835b8181101561178457803567ffffffffffffffff81111561176257611761611590565b5b80860161176f89826116a8565b8552602085019450505060208101905061173f565b5050509392505050565b600082601f8301126117a3576117a2611590565b5b81356117b3848260208601611707565b91505092915050565b60006117c78261134e565b9050919050565b6117d7816117bc565b81146117e257600080fd5b50565b6000813590506117f4816117ce565b92915050565b6118038161155a565b811461180e57600080fd5b50565b600081359050611820816117fa565b92915050565b600080600080600080600080610100898b031215611847576118466112eb565b5b600089013567ffffffffffffffff811115611865576118646112f0565b5b6118718b828c016116a8565b985050602089013567ffffffffffffffff811115611892576118916112f0565b5b61189e8b828c016116a8565b97505060406118af8b828c0161130c565b965050606089013567ffffffffffffffff8111156118d0576118cf6112f0565b5b6118dc8b828c0161178e565b95505060806118ed8b828c0161130c565b94505060a06118fe8b828c016117e5565b93505060c061190f8b828c0161130c565b92505060e06119208b828c01611811565b9150509295985092959890939650565b600082825260208201905092915050565b7f496e76616c69642070726f706f73616c20494400000000000000000000000000600082015250565b6000611977601383611930565b915061198282611941565b602082019050919050565b600060208201905081810360008301526119a68161196a565b9050919050565b7f4e487b7100000000000000000000000000000000000000000000000000000000600052603260045260246000fd5b7f4e487b7100000000000000000000000000000000000000000000000000000000600052601160045260246000fd5b6000611a16826112ad565b9150611a21836112ad565b9250828202611a2f816112ad565b91508282048414831517611a4657611a456119dc565b5b5092915050565b6000611a58826112ad565b9150611a63836112ad565b9250828201905080821115611a7b57611a7a6119dc565b5b92915050565b7f566f74696e67206973206e6f742079657420636c6f7365640000000000000000600082015250565b6000611ab7601883611930565b9150611ac282611a81565b602082019050919050565b60006020820190508181036000830152611ae681611aaa565b9050919050565b611af68161136e565b82525050565b6000611b078261142b565b9050919050565b611b1781611afc565b82525050565b6000606082019050611b326000830186611aed565b611b3f6020830185611b0e565b611b4c60408301846112b7565b949350505050565b6000604082019050611b6960008301856112b7565b611b766020830184611566565b9392505050565b7f566f74696e672074696d65206578706972656400000000000000000000000000600082015250565b6000611bb3601383611930565b9150611bbe82611b7d565b602082019050919050565b60006020820190508181036000830152611be281611ba6565b9050919050565b6000602082019050611bfe6000830184611aed565b92915050565b600081519050611c13816112f5565b92915050565b600060208284031215611c2f57611c2e6112eb565b5b6000611c3d84828501611c04565b91505092915050565b7f4e6f2064656d6f637261637920746f6b656e7300000000000000000000000000600082015250565b6000611c7c601383611930565b9150611c8782611c46565b602082019050919050565b60006020820190508181036000830152611cab81611c6f565b9050919050565b7f416c726561647920766f74656400000000000000000000000000000000000000600082015250565b6000611ce8600d83611930565b9150611cf382611cb2565b602082019050919050565b60006020820190508181036000830152611d1781611cdb565b9050919050565b6000606082019050611d3360008301866112b7565b611d4060208301856112b7565b611d4d60408301846112b7565b949350505050565b7f496e76616c6964206f7074696f6e20696e646578000000000000000000000000600082015250565b6000611d8b601483611930565b9150611d9682611d55565b602082019050919050565b60006020820190508181036000830152611dba81611d7e565b9050919050565b60005b83811015611ddf578082015181840152602081019050611dc4565b60008484015250505050565b6000611dfe611df984611626565b61160b565b905082815260208101848484011115611e1a57611e19611595565b5b611e25848285611dc1565b509392505050565b600082601f830112611e4257611e41611590565b5b8151611e52848260208601611deb565b91505092915050565b600060208284031215611e7157611e706112eb565b5b600082015167ffffffffffffffff811115611e8f57611e8e6112f0565b5b611e9b84828501611e2d565b91505092915050565b600081519050919050565b600081905092915050565b6000611ec582611ea4565b611ecf8185611eaf565b9350611edf818560208601611dc1565b80840191505092915050565b6000611ef78284611eba565b915081905092915050565b7f4e6f7420617574686f72697a656420746f206372656174652070726f706f736160008201527f6c00000000000000000000000000000000000000000000000000000000000000602082015250565b6000611f5e602183611930565b9150611f6982611f02565b604082019050919050565b60006020820190508181036000830152611f8d81611f51565b9050919050565b6000611f9f826112ad565b9150611faa836112ad565b9250828203905081811115611fc257611fc16119dc565b5b92915050565b6000611fd382611ea4565b611fdd8185611930565b9350611fed818560208601611dc1565b611ff68161159a565b840191505092915050565b600061010082019050818103600083015261201c818b611fc8565b90508181036020830152612030818a611fc8565b905061203f60408301896112b7565b61204c60608301886112b7565b61205960808301876112b7565b61206660a0830186611b0e565b61207360c08301856112b7565b61208060e0830184611566565b9998505050505050505050565b600060208201905081810360008301526120a78184611fc8565b905092915050565b60006120ba826112ad565b91507fffffffffffffffffffffffffffffffffffffffffffffffffffffffffffffffff82036120ec576120eb6119dc565b5b600182019050919050565b7f4e487b7100000000000000000000000000000000000000000000000000000000600052601260045260246000fd5b6000612131826112ad565b915061213c836112ad565b92508261214c5761214b6120f7565b5b82820490509291505056fea2646970667358221220cf09a4b967ce2e236239cac7842dc57550108f2461ef8daebc098e43a848376764736f6c63430008140033",
  "linkReferences": {},
  "deployedLinkReferences": {}
}