{"abi":[{"type":"constructor","inputs":[{"name":"_ParticipationToken","type":"address","internalType":"address"},{"name":"_DemocracyToken","type":"address","internalType":"address"},{"name":"_nftMembership","type":"address","internalType":"address"},{"name":"_allowedRoleNames","type":"string[]","internalType":"string[]"},{"name":"_quadraticVotingEnabled","type":"bool","internalType":"bool"},{"name":"_democracyVoteWeight","type":"uint256","internalType":"uint256"},{"name":"_participationVoteWeight","type":"uint256","internalType":"uint256"},{"name":"_treasuryAddress","type":"address","internalType":"address"},{"name":"_quorumPercentage","type":"uint256","internalType":"uint256"}],"stateMutability":"nonpayable"},{"type":"function","name":"DirectDemocracyToken","inputs":[],"outputs":[{"name":"","type":"address","internalType":"contract IERC20"}],"stateMutability":"view"},{"type":"function","name":"ParticipationToken","inputs":[],"outputs":[{"name":"","type":"address","internalType":"contract IERC20"}],"stateMutability":"view"},{"type":"function","name":"announceWinner","inputs":[{"name":"_proposalId","type":"uint256","internalType":"uint256"}],"outputs":[{"name":"","type":"uint256","internalType":"uint256"},{"name":"","type":"bool","internalType":"bool"}],"stateMutability":"nonpayable"},{"type":"function","name":"calculateQuadraticVoteWeight","inputs":[{"name":"_balance","type":"uint256","internalType":"uint256"}],"outputs":[{"name":"","type":"uint256","internalType":"uint256"}],"stateMutability":"pure"},{"type":"function","name":"createProposal","inputs":[{"name":"_name","type":"string","internalType":"string"},{"name":"_description","type":"string","internalType":"string"},{"name":"_timeInMinutes","type":"uint256","internalType":"uint256"},{"name":"_optionNames","type":"string[]","internalType":"string[]"},{"name":"_transferTriggerOptionIndex","type":"uint256","internalType":"uint256"},{"name":"_transferRecipient","type":"address","internalType":"address payable"},{"name":"_transferAmount","type":"uint256","internalType":"uint256"},{"name":"_transferEnabled","type":"bool","internalType":"bool"},{"name":"_transferToken","type":"address","internalType":"address"}],"outputs":[],"stateMutability":"nonpayable"},{"type":"function","name":"democracyVoteWeight","inputs":[],"outputs":[{"name":"","type":"uint256","internalType":"uint256"}],"stateMutability":"view"},{"type":"function","name":"getOptionVotes","inputs":[{"name":"_proposalId","type":"uint256","internalType":"uint256"},{"name":"_optionIndex","type":"uint256","internalType":"uint256"}],"outputs":[{"name":"votesPT","type":"uint256","internalType":"uint256"},{"name":"votesDDT","type":"uint256","internalType":"uint256"}],"stateMutability":"view"},{"type":"function","name":"getOptionsCount","inputs":[{"name":"_proposalId","type":"uint256","internalType":"uint256"}],"outputs":[{"name":"","type":"uint256","internalType":"uint256"}],"stateMutability":"view"},{"type":"function","name":"getProposal","inputs":[{"name":"_proposalId","type":"uint256","internalType":"uint256"}],"outputs":[{"name":"totalVotesPT","type":"uint256","internalType":"uint256"},{"name":"totalVotesDDT","type":"uint256","internalType":"uint256"},{"name":"timeInMinutes","type":"uint256","internalType":"uint256"},{"name":"creationTimestamp","type":"uint256","internalType":"uint256"},{"name":"transferTriggerOptionIndex","type":"uint256","internalType":"uint256"},{"name":"transferRecipient","type":"address","internalType":"address payable"},{"name":"transferAmount","type":"uint256","internalType":"uint256"},{"name":"transferEnabled","type":"bool","internalType":"bool"},{"name":"transferToken","type":"address","internalType":"address"}],"stateMutability":"view"},{"type":"function","name":"getProposalOptionVotes","inputs":[{"name":"_proposalId","type":"uint256","internalType":"uint256"},{"name":"_optionIndex","type":"uint256","internalType":"uint256"}],"outputs":[{"name":"votesPT","type":"uint256","internalType":"uint256"},{"name":"votesDDT","type":"uint256","internalType":"uint256"}],"stateMutability":"view"},{"type":"function","name":"getProposalsCount","inputs":[],"outputs":[{"name":"","type":"uint256","internalType":"uint256"}],"stateMutability":"view"},{"type":"function","name":"nftMembership","inputs":[],"outputs":[{"name":"","type":"address","internalType":"contract INFTMembership3"}],"stateMutability":"view"},{"type":"function","name":"participationVoteWeight","inputs":[],"outputs":[{"name":"","type":"uint256","internalType":"uint256"}],"stateMutability":"view"},{"type":"function","name":"quadraticVotingEnabled","inputs":[],"outputs":[{"name":"","type":"bool","internalType":"bool"}],"stateMutability":"view"},{"type":"function","name":"quorumPercentage","inputs":[],"outputs":[{"name":"","type":"uint256","internalType":"uint256"}],"stateMutability":"view"},{"type":"function","name":"treasury","inputs":[],"outputs":[{"name":"","type":"address","internalType":"contract ITreasury2"}],"stateMutability":"view"},{"type":"function","name":"vote","inputs":[{"name":"_proposalId","type":"uint256","internalType":"uint256"},{"name":"_voter","type":"address","internalType":"address"},{"name":"_optionIndices","type":"uint256[]","internalType":"uint256[]"},{"name":"_weights","type":"uint256[]","internalType":"uint256[]"}],"outputs":[],"stateMutability":"nonpayable"},{"type":"event","name":"NewProposal","inputs":[{"name":"proposalId","type":"uint256","indexed":true,"internalType":"uint256"},{"name":"name","type":"string","indexed":false,"internalType":"string"},{"name":"description","type":"string","indexed":false,"internalType":"string"},{"name":"timeInMinutes","type":"uint256","indexed":false,"internalType":"uint256"},{"name":"creationTimestamp","type":"uint256","indexed":false,"internalType":"uint256"},{"name":"transferTriggerOptionIndex","type":"uint256","indexed":false,"internalType":"uint256"},{"name":"transferRecipient","type":"address","indexed":false,"internalType":"address"},{"name":"transferAmount","type":"uint256","indexed":false,"internalType":"uint256"},{"name":"transferEnabled","type":"bool","indexed":false,"internalType":"bool"},{"name":"transferToken","type":"address","indexed":false,"internalType":"address"}],"anonymous":false},{"type":"event","name":"PollOptionNames","inputs":[{"name":"proposalId","type":"uint256","indexed":true,"internalType":"uint256"},{"name":"optionIndex","type":"uint256","indexed":true,"internalType":"uint256"},{"name":"name","type":"string","indexed":false,"internalType":"string"}],"anonymous":false},{"type":"event","name":"Voted","inputs":[{"name":"proposalId","type":"uint256","indexed":true,"internalType":"uint256"},{"name":"voter","type":"address","indexed":true,"internalType":"address"},{"name":"optionIndices","type":"uint256[]","indexed":false,"internalType":"uint256[]"},{"name":"weights","type":"uint256[]","indexed":false,"internalType":"uint256[]"}],"anonymous":false},{"type":"event","name":"WinnerAnnounced","inputs":[{"name":"proposalId","type":"uint256","indexed":true,"internalType":"uint256"},{"name":"winningOptionIndex","type":"uint256","indexed":false,"internalType":"uint256"},{"name":"hasValidWinner","type":"bool","indexed":false,"internalType":"bool"}],"anonymous":false}],"bytecode":{"object":"0x6080604052346101ad57611959803803806100198161023c565b928339810190610120818303126101ad5761003381610261565b9061004060208201610261565b9161004d60408301610261565b60608301519093906001600160401b0381116101ad5783019480601f870112156101ad578551956001600160401b038711610226578660051b9160208061009581860161023c565b809a81520193830101918183116101ad5760208101935b8385106101b25750505050506080830151938415158095036101ad5760a08401519160c0850151936101006100e360e08801610261565b960151600455600080546001600160a01b03199081166001600160a01b039384161782556001805482169484169490941790935560028054909316939091169290921790555b8551811015610170576001906101566020808360051b8a0101518160405193828580945193849201610275565b810160088152030190208260ff1982541617905501610129565b508360ff80196009541691161760095560065560075560018060a01b031660018060a01b031960035416176003556040516116c090816102998239f35b600080fd5b84516001600160401b0381116101ad5782019083603f830112156101ad576020820151906001600160401b038211610226576101f7601f8301601f191660200161023c565b82815260408484010186106101ad5761021b60209493859460408685019101610275565b8152019401936100ac565b634e487b7160e01b600052604160045260246000fd5b6040519190601f01601f191682016001600160401b0381118382101761022657604052565b51906001600160a01b03821682036101ad57565b60005b8381106102885750506000910152565b818101518382015260200161027856fe6080604052600436101561001257600080fd5b6000803560e01c806308ef909d14611139578063231001861461111b5780633a6e157b14610e8457806343ab44d5146109dd5780634fa76ec9146109bf578063517a62571461098c57806361953300146102fe57806361d027b3146102d55780637221252a146102ae57806398e527d314610290578063a2b2b4d414610267578063a44a3d721461023e578063ad5396db14610220578063beea537c146101f9578063c7f758a81461015b578063e7ea088f146100fd5763f64fca1e146100d857600080fd5b346100fa57806003193601126100fa57602060ff600954166040519015158152f35b80fd5b50346100fa57604061012b600161014c600561011836611187565b9490610126835482106112ad565b6112ef565b50019261013a84548210611324565b6101448185611367565b505493611367565b50015482519182526020820152f35b50346100fa5760203660031901126100fa5761012061018360043561012660055482106112ad565b508054906001810154906003810154600482015460068301549060018060a01b03600785015416926009600886015495015495604051978852602088015260408701526060860152608085015260a084015260c083015260ff8116151560e083015260018060a01b039060081c16610100820152f35b50346100fa5760203660031901126100fa57602061021860043561164f565b604051908152f35b50346100fa57806003193601126100fa576020600754604051908152f35b50346100fa57806003193601126100fa576001546040516001600160a01b039091168152602090f35b50346100fa57806003193601126100fa576002546040516001600160a01b039091168152602090f35b50346100fa57806003193601126100fa576020600554604051908152f35b50346100fa57806003193601126100fa57546040516001600160a01b039091168152602090f35b50346100fa57806003193601126100fa576003546040516001600160a01b039091168152602090f35b50346100fa5760803660031901126100fa57602435906001600160a01b03821682036100fa5760443567ffffffffffffffff811161098857610344903690600401611250565b60643567ffffffffffffffff811161098457610364903690600401611250565b926005546004351090610376826112ad565b6103816004356112ef565b506003600482015491015490603c820291808304603c149015171561097057906103aa916113ac565b4211610935576001546040516370a0823160e01b81526001600160a01b03838116600483015290959160209187916024918391165afa9485156109285781956108f4575b5084156108b95780546040516370a0823160e01b81526001600160a01b03848116600483015290949160209186916024918391165afa9384156108ae578294610873575b5061043c906112ad565b835186510361081b57809381945b87518610156104725761046a600191610463888b61140e565b51906113ac565b95019461044a565b8760648892036107d6576104876004356112ef565b5095600287019060018060a01b0387166000528160205260ff604060002054166107a157845160058901540361075c5760095460ff1615610751576104cb9061164f565b9096959493965b60018060a01b0386166000526020526040600020600160ff1982541617905583918497858097815b835181101561060d578a9b61051382869d9b9c9d61140e565b519061052460058c01548310611324565b610538610531848961140e565b5189611383565b9061054d610546858a61140e565b518c611383565b998d610559868b61140e565b51116105e9575b92829161056f82948d966113ac565b9b610579916113ac565b9c82815490610587916113ac565b81556005019061059691611367565b50908154906105a4916113ac565b90558d826001820154906105b7916113ac565b6001820155600501906105c991611367565b50600101908154906105da916113ac565b90556001019a9998979a6104fa565b9d509b50908891816105fb858a61140e565b51909e909d939a508e93919250610560565b5093868b8b93978b9360648102908082046064149015171561073d5790610633916113dc565b916064810290810460640361072957916106747f5859660a79acb2b10cfd5bb993bf130241a0e53d4eeed80ef534db04b75ddfcb96949261069e96946113dc565b8115801590610720575b6106c1575b505050506106bb604051928392604084526040840190611422565b82810360208401526001600160a01b039096169560043595611422565b0390a380f35b6107096107149260016106f3866106dc839860058b01611367565b506106e88582546113ac565b905560058901611367565b50016107008482546113ac565b905585546113ac565b8455828401546113ac565b91015586808080610683565b5080151561067e565b634e487b7160e01b89526011600452602489fd5b634e487b7160e01b8a52601160045260248afd5b9096959493966104d2565b60405162461bcd60e51b815260206004820152601d60248201527f496e76616c6964206f7074696f6e20696e6469636573206c656e6774680000006044820152606490fd5b60405162461bcd60e51b815260206004820152600d60248201526c105b1c9958591e481d9bdd1959609a1b6044820152606490fd5b60405162461bcd60e51b815260206004820152601860248201527f546f74616c20776569676874206d7573742062652031303000000000000000006044820152606490fd5b60405162461bcd60e51b815260206004820152602a60248201527f4f7074696f6e20696e646963657320616e642077656967687473206c656e67746044820152690d040dad2e6dac2e8c6d60b31b6064820152608490fd5b9093506020813d6020116108a6575b8161088f6020938361119d565b810103126108a157519261043c610432565b600080fd5b3d9150610882565b6040513d84823e3d90fd5b60405162461bcd60e51b81526020600482015260136024820152724e6f2064656d6f637261637920746f6b656e7360681b6044820152606490fd5b9094506020813d602011610920575b816109106020938361119d565b810103126108a1575193386103ee565b3d9150610903565b50604051903d90823e3d90fd5b60405162461bcd60e51b8152602060048201526013602482015272159bdd1a5b99c81d1a5b5948195e1c1a5c9959606a1b6044820152606490fd5b634e487b7160e01b86526011600452602486fd5b8280fd5b5080fd5b50346100fa5760203660031901126100fa57602060056109b4600435610126835482106112ad565b500154604051908152f35b50346100fa57806003193601126100fa576020600454604051908152f35b50346100fa576101203660031901126100fa5760043567ffffffffffffffff811161098857610a109036906004016111f1565b9060243567ffffffffffffffff811161098857610a319036906004016111f1565b91604435916064359167ffffffffffffffff8311610988573660238401121561098857826004013592610a6384611238565b93610a71604051958661119d565b80855260051b810160240160208501368211610e805760248301905b828210610e4c5750505060a4356001600160a01b03811695915060843590869003610e485760c43560e43590811515809203610e445761010435976001600160a01b03891693848a03610e4057600254604051630eef043160e31b8152336004820152908990829060249082906001600160a01b03165afa908115610e35578991610da9575b50610b2f602060ff9281604051938285809451938492016113b9565b81016008815203019020541615610d5a57600554600160401b811015610d4657806001610b5f92016005556112ef565b5088815560018101899055600381018790554260048201556007810180546001600160a01b031916841790556008808201859055600682018390556009820180546001600160a81b03191660ff8816179c90911b610100600160a81b03169b909b17909a5560055460001981019b908c116107295792610c1a95928c989592610c287f02cdbdf6d83224bfc61f2b0e33d9159756d8eaf2dfb75d5e66d2a63cef32e8dc9996604051998a996101208b526101208b01906113e9565b9089820360208b01526113e9565b956040880152426060880152608087015260a086015260c085015260e08401526101008301520390a26005819301925b8251811015610d42576040516040810181811067ffffffffffffffff821117610d2e57604052828152602081018381528554600160401b811015610d1a57806001610ca69201885587611367565b929092610d0657518255516001918201559080867fd3b5cef521b08344b2f3822456355f6c2603e7f00a271d0215ac4760a401fc48610cfd610ce8848961140e565b516040519182916020835260208301906113e9565b0390a301610c58565b634e487b7160e01b85526004859052602485fd5b634e487b7160e01b85526041600452602485fd5b634e487b7160e01b84526041600452602484fd5b5080f35b634e487b7160e01b89526041600452602489fd5b60405162461bcd60e51b815260206004820152602160248201527f4e6f7420617574686f72697a656420746f206372656174652070726f706f73616044820152601b60fa1b6064820152608490fd5b90503d808a833e610dba818361119d565b810190602081830312610e315780519067ffffffffffffffff8211610e2d570181601f82011215610e3157805190610df1826111d5565b92610dff604051948561119d565b82845260208383010111610e2d5782610e25610b2f93602093848060ff980191016113b9565b925050610b13565b8a80fd5b8980fd5b6040513d8b823e3d90fd5b8780fd5b8580fd5b8380fd5b813567ffffffffffffffff8111610e7c57602091610e718392602436918901016111f1565b815201910190610a8d565b8680fd5b8480fd5b50346100fa5760203660031901126100fa57600435906005548210610ea8816112ad565b610eb1836112ef565b506003600482015491015490603c820291808304603c14901517156111075790610eda916113ac565b4211156110c257610eea906112ad565b610ef382611476565b92909183806110ab575b80611095575b610f4d575b506040805183815284151560208201527f80fa758d7c24e927ad76726080b3e8e8ec336147a2e7f4edde3e19d9c94e7c369190a2604080519182529115156020820152f35b611010610f59836112ef565b506009015460081c6001600160a01b031603610ff5576003546001600160a01b0316610f84836112ef565b50600701546001600160a01b03166008610f9d856112ef565b50015490823b15610e4857906044849283604051958694859363522f681560e01b8552600485015260248401525af180156108ae57610fe0575b50505b38610f08565b610feb82809261119d565b6100fa5780610fd7565b6003546001600160a01b031661100a836112ef565b506009015460081c6001600160a01b0316611024846112ef565b50600701546001600160a01b031690600861103e866112ef565b50015492803b15610e8057849291836064926040519687958694631cdacd5960e31b86526004860152602485015260448401525af180156108ae57611085575b5050610fda565b8161108f9161119d565b3861107e565b5060066110a1836112ef565b5001548314610f03565b5060ff60096110b9846112ef565b50015416610efd565b60405162461bcd60e51b815260206004820152601860248201527f566f74696e67206973206e6f742079657420636c6f73656400000000000000006044820152606490fd5b634e487b7160e01b84526011600452602484fd5b50346100fa57806003193601126100fa576020600654604051908152f35b50346100fa576040611173611160600561115236611187565b9290610126835482106112ad565b500161116e81548310611324565b611367565b506001815491015482519182526020820152f35b60409060031901126108a1576004359060243590565b90601f8019910116810190811067ffffffffffffffff8211176111bf57604052565b634e487b7160e01b600052604160045260246000fd5b67ffffffffffffffff81116111bf57601f01601f191660200190565b81601f820112156108a157803590611208826111d5565b92611216604051948561119d565b828452602083830101116108a157816000926020809301838601378301015290565b67ffffffffffffffff81116111bf5760051b60200190565b9080601f830112156108a157813561126781611238565b92611275604051948561119d565b81845260208085019260051b8201019283116108a157602001905b82821061129d5750505090565b8135815260209182019101611290565b156112b457565b60405162461bcd60e51b8152602060048201526013602482015272125b9d985b1a59081c1c9bdc1bdcd85b081251606a1b6044820152606490fd5b60055481101561130e576005600052600a602060002091020190600090565b634e487b7160e01b600052603260045260246000fd5b1561132b57565b60405162461bcd60e51b8152602060048201526014602482015273092dcecc2d8d2c840dee0e8d2dedc40d2dcc8caf60631b6044820152606490fd5b805482101561130e5760005260206000209060011b0190600090565b8181029291811591840414171561139657565b634e487b7160e01b600052601160045260246000fd5b9190820180921161139657565b60005b8381106113cc5750506000910152565b81810151838201526020016113bc565b9190820391821161139657565b90602091611402815180928185528580860191016113b9565b601f01601f1916010190565b805182101561130e5760209160051b010190565b906020808351928381520192019060005b8181106114405750505090565b8251845260209384019390920191600101611433565b8115611460570490565b634e487b7160e01b600052601260045260246000fd5b6114879061012660055482106112ad565b50908154801590818092611643575b611637579060008092819560018101549360058492018054936114b885611238565b966114c6604051988961119d565b858852601f196114d587611238565b013660208a0137869315811515925b8786106115485750505050505061150060649160045490611383565b0492825b82811061151f575050501015611518579190565b9150600190565b611529818361140e565b5184811161153b575b50600101611504565b9095509250846001611532565b9091929394956115588787611367565b505460016115668989611367565b50015490841561162f5760075461157c91611383565b6127108102908082046127101490151715611604578361159b91611456565b905b888c8c8915611618575050506115b69060065490611383565b6127108102908082046127101490151715611604576001928c6115f26115ea6115f8956115e48b8f97611456565b906113ac565b93849261140e565b526113ac565b960194939291906114e4565b634e487b7160e01b8b52601160045260248bfd5b6001959293506115ea6115f8956115f292906113ac565b50899061159d565b50509050600090600090565b50600184015415611496565b90600182018083116113965760011c825b83821061166b575050565b9092506116818361167c8184611456565b6113ac565b60011c9061166056fea2646970667358221220d65f87e5441738afd7dd812a213cd951fe39017ce50211d11193f256892aace264736f6c634300081a0033","linkReferences":{}},"methodIdentifiers":{"DirectDemocracyToken()":"a44a3d72","ParticipationToken()":"7221252a","announceWinner(uint256)":"3a6e157b","calculateQuadraticVoteWeight(uint256)":"beea537c","createProposal(string,string,uint256,string[],uint256,address,uint256,bool,address)":"43ab44d5","democracyVoteWeight()":"23100186","getOptionVotes(uint256,uint256)":"e7ea088f","getOptionsCount(uint256)":"517a6257","getProposal(uint256)":"c7f758a8","getProposalOptionVotes(uint256,uint256)":"08ef909d","getProposalsCount()":"98e527d3","nftMembership()":"a2b2b4d4","participationVoteWeight()":"ad5396db","quadraticVotingEnabled()":"f64fca1e","quorumPercentage()":"4fa76ec9","treasury()":"61d027b3","vote(uint256,address,uint256[],uint256[])":"61953300"},"id":49}