{
  "_format": "hh-sol-artifact-1",
  "contractName": "HybridVotingFactory",
  "sourceName": "contracts/HybridVotingFactory.sol",
  "abi": [
    {
      "anonymous": false,
      "inputs": [
        {
          "indexed": true,
          "internalType": "address",
          "name": "creator",
          "type": "address"
        },
        {
          "indexed": false,
          "internalType": "address",
          "name": "hybridVotingAddress",
          "type": "address"
        },
        {
          "indexed": false,
          "internalType": "string",
          "name": "POname",
          "type": "string"
        },
        {
          "indexed": false,
          "internalType": "uint256",
          "name": "quorumPercentage",
          "type": "uint256"
        },
        {
          "indexed": false,
          "internalType": "uint256",
          "name": "DDpercent",
          "type": "uint256"
        },
        {
          "indexed": false,
          "internalType": "uint256",
          "name": "PTpercent",
          "type": "uint256"
        }
      ],
      "name": "HybridVotingContractCreated",
      "type": "event"
    },
    {
      "inputs": [
        {
          "internalType": "address",
          "name": "_ParticipationToken",
          "type": "address"
        },
        {
          "internalType": "address",
          "name": "_DemocracyToken",
          "type": "address"
        },
        {
          "internalType": "address",
          "name": "_nftMembership",
          "type": "address"
        },
        {
          "internalType": "string[]",
          "name": "_allowedRoleNames",
          "type": "string[]"
        },
        {
          "internalType": "bool",
          "name": "_quadraticVotingEnabled",
          "type": "bool"
        },
        {
          "internalType": "uint256",
          "name": "_democracyVoteWeight",
          "type": "uint256"
        },
        {
          "internalType": "uint256",
          "name": "_participationVoteWeight",
          "type": "uint256"
        },
        {
          "internalType": "address",
          "name": "_treasuryAddress",
          "type": "address"
        },
        {
          "internalType": "string",
          "name": "POname",
          "type": "string"
        },
        {
          "internalType": "uint256",
          "name": "_quorumPercentage",
          "type": "uint256"
        }
      ],
      "name": "createHybridVoting",
      "outputs": [
        {
          "internalType": "address",
          "name": "",
          "type": "address"
        }
      ],
      "stateMutability": "nonpayable",
      "type": "function"
    }
  ],
  "bytecode": "0x608060405234801561001057600080fd5b506131de806100206000396000f3fe60806040523480156200001157600080fd5b50600436106200002e5760003560e01c80633a8ff87a1462000033575b600080fd5b6200005160048036038101906200004b91906200047e565b62000069565b604051620000609190620005c3565b60405180910390f35b6000808b8b8b8b8b8b8b8b8a604051620000839062000121565b62000097999897969594939291906200075b565b604051809103906000f080158015620000b4573d6000803e3d6000fd5b5090503373ffffffffffffffffffffffffffffffffffffffff167fad2abec33b93abe49ea392aa218414ccc90ea852b7d8d5f36b0e3cde02a9b2d78286868b8b6040516200010795949392919062000853565b60405180910390a2809150509a9950505050505050505050565b6128f180620008b883390190565b6000604051905090565b600080fd5b600080fd5b600073ffffffffffffffffffffffffffffffffffffffff82169050919050565b6000620001708262000143565b9050919050565b620001828162000163565b81146200018e57600080fd5b50565b600081359050620001a28162000177565b92915050565b600080fd5b6000601f19601f8301169050919050565b7f4e487b7100000000000000000000000000000000000000000000000000000000600052604160045260246000fd5b620001f882620001ad565b810181811067ffffffffffffffff821117156200021a5762000219620001be565b5b80604052505050565b60006200022f6200012f565b90506200023d8282620001ed565b919050565b600067ffffffffffffffff82111562000260576200025f620001be565b5b602082029050602081019050919050565b600080fd5b600080fd5b600067ffffffffffffffff821115620002995762000298620001be565b5b620002a482620001ad565b9050602081019050919050565b82818337600083830152505050565b6000620002d7620002d1846200027b565b62000223565b905082815260208101848484011115620002f657620002f562000276565b5b62000303848285620002b1565b509392505050565b600082601f830112620003235762000322620001a8565b5b813562000335848260208601620002c0565b91505092915050565b6000620003556200034f8462000242565b62000223565b905080838252602082019050602084028301858111156200037b576200037a62000271565b5b835b81811015620003c957803567ffffffffffffffff811115620003a457620003a3620001a8565b5b808601620003b389826200030b565b855260208501945050506020810190506200037d565b5050509392505050565b600082601f830112620003eb57620003ea620001a8565b5b8135620003fd8482602086016200033e565b91505092915050565b60008115159050919050565b6200041d8162000406565b81146200042957600080fd5b50565b6000813590506200043d8162000412565b92915050565b6000819050919050565b620004588162000443565b81146200046457600080fd5b50565b60008135905062000478816200044d565b92915050565b6000806000806000806000806000806101408b8d031215620004a557620004a462000139565b5b6000620004b58d828e0162000191565b9a50506020620004c88d828e0162000191565b9950506040620004db8d828e0162000191565b98505060608b013567ffffffffffffffff811115620004ff57620004fe6200013e565b5b6200050d8d828e01620003d3565b9750506080620005208d828e016200042c565b96505060a0620005338d828e0162000467565b95505060c0620005468d828e0162000467565b94505060e0620005598d828e0162000191565b9350506101008b013567ffffffffffffffff8111156200057e576200057d6200013e565b5b6200058c8d828e016200030b565b925050610120620005a08d828e0162000467565b9150509295989b9194979a5092959850565b620005bd8162000163565b82525050565b6000602082019050620005da6000830184620005b2565b92915050565b600081519050919050565b600082825260208201905092915050565b6000819050602082019050919050565b600081519050919050565b600082825260208201905092915050565b60005b83811015620006485780820151818401526020810190506200062b565b60008484015250505050565b600062000661826200060c565b6200066d818562000617565b93506200067f81856020860162000628565b6200068a81620001ad565b840191505092915050565b6000620006a3838362000654565b905092915050565b6000602082019050919050565b6000620006c582620005e0565b620006d18185620005eb565b935083602082028501620006e585620005fc565b8060005b8581101562000727578484038952815162000705858262000695565b94506200071283620006ab565b925060208a01995050600181019050620006e9565b50829750879550505050505092915050565b620007448162000406565b82525050565b620007558162000443565b82525050565b60006101208201905062000773600083018c620005b2565b62000782602083018b620005b2565b62000791604083018a620005b2565b8181036060830152620007a58189620006b8565b9050620007b6608083018862000739565b620007c560a08301876200074a565b620007d460c08301866200074a565b620007e360e0830185620005b2565b620007f36101008301846200074a565b9a9950505050505050505050565b600082825260208201905092915050565b60006200081f826200060c565b6200082b818562000801565b93506200083d81856020860162000628565b6200084881620001ad565b840191505092915050565b600060a0820190506200086a6000830188620005b2565b81810360208301526200087e818762000812565b90506200088f60408301866200074a565b6200089e60608301856200074a565b620008ad60808301846200074a565b969550505050505056fe608060405260326004553480156200001657600080fd5b50604051620028f1380380620028f183398181016040528101906200003c919062000563565b80600481905550886000806101000a81548173ffffffffffffffffffffffffffffffffffffffff021916908373ffffffffffffffffffffffffffffffffffffffff16021790555087600160006101000a81548173ffffffffffffffffffffffffffffffffffffffff021916908373ffffffffffffffffffffffffffffffffffffffff16021790555086600260006101000a81548173ffffffffffffffffffffffffffffffffffffffff021916908373ffffffffffffffffffffffffffffffffffffffff16021790555060005b86518110156200017e57600160088883815181106200012c576200012b62000661565b5b6020026020010151604051620001439190620006dd565b908152602001604051809103902060006101000a81548160ff0219169083151502179055508080620001759062000725565b91505062000108565b5084600960006101000a81548160ff021916908315150217905550836006819055508260078190555081600360006101000a81548173ffffffffffffffffffffffffffffffffffffffff021916908373ffffffffffffffffffffffffffffffffffffffff16021790555050505050505050505062000772565b6000604051905090565b600080fd5b600080fd5b600073ffffffffffffffffffffffffffffffffffffffff82169050919050565b600062000238826200020b565b9050919050565b6200024a816200022b565b81146200025657600080fd5b50565b6000815190506200026a816200023f565b92915050565b600080fd5b6000601f19601f8301169050919050565b7f4e487b7100000000000000000000000000000000000000000000000000000000600052604160045260246000fd5b620002c08262000275565b810181811067ffffffffffffffff82111715620002e257620002e162000286565b5b80604052505050565b6000620002f7620001f7565b9050620003058282620002b5565b919050565b600067ffffffffffffffff82111562000328576200032762000286565b5b602082029050602081019050919050565b600080fd5b600080fd5b600067ffffffffffffffff82111562000361576200036062000286565b5b6200036c8262000275565b9050602081019050919050565b60005b83811015620003995780820151818401526020810190506200037c565b60008484015250505050565b6000620003bc620003b68462000343565b620002eb565b905082815260208101848484011115620003db57620003da6200033e565b5b620003e884828562000379565b509392505050565b600082601f83011262000408576200040762000270565b5b81516200041a848260208601620003a5565b91505092915050565b60006200043a62000434846200030a565b620002eb565b9050808382526020820190506020840283018581111562000460576200045f62000339565b5b835b81811015620004ae57805167ffffffffffffffff81111562000489576200048862000270565b5b808601620004988982620003f0565b8552602085019450505060208101905062000462565b5050509392505050565b600082601f830112620004d057620004cf62000270565b5b8151620004e284826020860162000423565b91505092915050565b60008115159050919050565b6200050281620004eb565b81146200050e57600080fd5b50565b6000815190506200052281620004f7565b92915050565b6000819050919050565b6200053d8162000528565b81146200054957600080fd5b50565b6000815190506200055d8162000532565b92915050565b60008060008060008060008060006101208a8c03121562000589576200058862000201565b5b6000620005998c828d0162000259565b9950506020620005ac8c828d0162000259565b9850506040620005bf8c828d0162000259565b97505060608a015167ffffffffffffffff811115620005e357620005e262000206565b5b620005f18c828d01620004b8565b9650506080620006048c828d0162000511565b95505060a0620006178c828d016200054c565b94505060c06200062a8c828d016200054c565b93505060e06200063d8c828d0162000259565b925050610100620006518c828d016200054c565b9150509295985092959850929598565b7f4e487b7100000000000000000000000000000000000000000000000000000000600052603260045260246000fd5b600081519050919050565b600081905092915050565b6000620006b38262000690565b620006bf81856200069b565b9350620006d181856020860162000379565b80840191505092915050565b6000620006eb8284620006a6565b915081905092915050565b7f4e487b7100000000000000000000000000000000000000000000000000000000600052601160045260246000fd5b6000620007328262000528565b91507fffffffffffffffffffffffffffffffffffffffffffffffffffffffffffffffff8203620007675762000766620006f6565b5b600182019050919050565b61216f80620007826000396000f3fe608060405234801561001057600080fd5b50600436106100cf5760003560e01c80637221252a1161008c578063ad5396db11610066578063ad5396db146101f0578063e7ea088f1461020e578063f64fca1e1461023f578063fdbbcbc21461025d576100cf565b80637221252a14610196578063a2b2b4d4146101b4578063a44a3d72146101d2576100cf565b806323100186146100d45780633a6e157b146100f25780634de8737c1461010e5780634fa76ec91461012a578063517a62571461014857806361d027b314610178575b600080fd5b6100dc610279565b6040516100e991906112a8565b60405180910390f35b61010c60048036038101906101079190611303565b61027f565b005b6101286004803603810190610123919061138e565b610573565b005b610132610a53565b60405161013f91906112a8565b60405180910390f35b610162600480360381019061015d9190611303565b610a59565b60405161016f91906112a8565b60405180910390f35b610180610ad8565b60405161018d9190611440565b60405180910390f35b61019e610afe565b6040516101ab919061147c565b60405180910390f35b6101bc610b22565b6040516101c991906114b8565b60405180910390f35b6101da610b48565b6040516101e7919061147c565b60405180910390f35b6101f8610b6e565b60405161020591906112a8565b60405180910390f35b610228600480360381019061022391906114d3565b610b74565b604051610236929190611513565b60405180910390f35b610247610c89565b6040516102549190611557565b60405180910390f35b61027760048036038101906102729190611808565b610c9c565b005b60065481565b8060058054905081106102c7576040517f08c379a00000000000000000000000000000000000000000000000000000000081526004016102be9061196f565b60405180910390fd5b6000600582815481106102dd576102dc61198f565b5b90600052602060002090600a02019050603c81600301546102fe91906119ed565b816004015461030d9190611a2f565b421161034e576040517f08c379a000000000000000000000000000000000000000000000000000000000815260040161034590611aaf565b60405180910390fd5b6005805490508310610395576040517f08c379a000000000000000000000000000000000000000000000000000000000815260040161038c9061196f565b60405180910390fd5b6000806103a185610f9d565b915091508080156103e15750600585815481106103c1576103c061198f565b5b90600052602060002090600a020160090160009054906101000a900460ff165b80156104115750600585815481106103fc576103fb61198f565b5b90600052602060002090600a02016006015482145b1561053257600360009054906101000a900473ffffffffffffffffffffffffffffffffffffffff1673ffffffffffffffffffffffffffffffffffffffff1663e6d66ac860008054906101000a900473ffffffffffffffffffffffffffffffffffffffff16600588815481106104895761048861198f565b5b90600052602060002090600a020160070160009054906101000a900473ffffffffffffffffffffffffffffffffffffffff16600589815481106104cf576104ce61198f565b5b90600052602060002090600a0201600801546040518463ffffffff1660e01b81526004016104ff93929190611aff565b600060405180830381600087803b15801561051957600080fd5b505af115801561052d573d6000803e3d6000fd5b505050505b847f80fa758d7c24e927ad76726080b3e8e8ec336147a2e7f4edde3e19d9c94e7c368383604051610564929190611b36565b60405180910390a25050505050565b8260058054905081106105bb576040517f08c379a00000000000000000000000000000000000000000000000000000000081526004016105b29061196f565b60405180910390fd5b6000600582815481106105d1576105d061198f565b5b90600052602060002090600a02019050603c81600301546105f291906119ed565b81600401546106019190611a2f565b421115610643576040517f08c379a000000000000000000000000000000000000000000000000000000000815260040161063a90611bab565b60405180910390fd5b6000600160009054906101000a900473ffffffffffffffffffffffffffffffffffffffff1673ffffffffffffffffffffffffffffffffffffffff166370a08231866040518263ffffffff1660e01b81526004016106a09190611bcb565b602060405180830381865afa1580156106bd573d6000803e3d6000fd5b505050506040513d601f19601f820116820180604052508101906106e19190611bfb565b905060008111610726576040517f08c379a000000000000000000000000000000000000000000000000000000000815260040161071d90611c74565b60405180910390fd5b60008060009054906101000a900473ffffffffffffffffffffffffffffffffffffffff1673ffffffffffffffffffffffffffffffffffffffff166370a08231876040518263ffffffff1660e01b81526004016107829190611bcb565b602060405180830381865afa15801561079f573d6000803e3d6000fd5b505050506040513d601f19601f820116820180604052508101906107c39190611bfb565b9050600580549050871061080c576040517f08c379a00000000000000000000000000000000000000000000000000000000081526004016108039061196f565b60405180910390fd5b6000600588815481106108225761082161198f565b5b90600052602060002090600a020190508060020160008873ffffffffffffffffffffffffffffffffffffffff1673ffffffffffffffffffffffffffffffffffffffff16815260200190815260200160002060009054906101000a900460ff16156108c1576040517f08c379a00000000000000000000000000000000000000000000000000000000081526004016108b890611ce0565b60405180910390fd5b6000600960009054906101000a900460ff166108dd57826108e7565b6108e683611220565b5b905060018260020160008a73ffffffffffffffffffffffffffffffffffffffff1673ffffffffffffffffffffffffffffffffffffffff16815260200190815260200160002060006101000a81548160ff021916908315150217905550808260000160008282546109579190611a2f565b92505081905550808260050188815481106109755761097461198f565b5b906000526020600020906002020160000160008282546109959190611a2f565b92505081905550838260010160008282546109b09190611a2f565b92505081905550838260050188815481106109ce576109cd61198f565b5b906000526020600020906002020160010160008282546109ee9190611a2f565b925050819055508773ffffffffffffffffffffffffffffffffffffffff16897f7bbc702cfc0c62aaa977159d2c8ff0642f94715abcc34af64106c1b15c2af0a0898488604051610a4093929190611d00565b60405180910390a3505050505050505050565b60045481565b60006005805490508210610aa2576040517f08c379a0000000000000000000000000000000000000000000000000000000008152600401610a999061196f565b60405180910390fd5b600060058381548110610ab857610ab761198f565b5b90600052602060002090600a020190508060050180549050915050919050565b600360009054906101000a900473ffffffffffffffffffffffffffffffffffffffff1681565b60008054906101000a900473ffffffffffffffffffffffffffffffffffffffff1681565b600260009054906101000a900473ffffffffffffffffffffffffffffffffffffffff1681565b600160009054906101000a900473ffffffffffffffffffffffffffffffffffffffff1681565b60075481565b6000806005805490508410610bbe576040517f08c379a0000000000000000000000000000000000000000000000000000000008152600401610bb59061196f565b60405180910390fd5b600060058581548110610bd457610bd361198f565b5b90600052602060002090600a0201905080600501805490508410610c2d576040517f08c379a0000000000000000000000000000000000000000000000000000000008152600401610c2490611d83565b60405180910390fd5b806005018481548110610c4357610c4261198f565b5b906000526020600020906002020160000154816005018581548110610c6b57610c6a61198f565b5b90600052602060002090600202016001015492509250509250929050565b600960009054906101000a900460ff1681565b6000600260009054906101000a900473ffffffffffffffffffffffffffffffffffffffff1673ffffffffffffffffffffffffffffffffffffffff166377782188336040518263ffffffff1660e01b8152600401610cf99190611bcb565b600060405180830381865afa158015610d16573d6000803e3d6000fd5b505050506040513d6000823e3d601f19601f82011682018060405250810190610d3f9190611e3d565b9050600881604051610d519190611ecd565b908152602001604051809103902060009054906101000a900460ff16610dac576040517f08c379a0000000000000000000000000000000000000000000000000000000008152600401610da390611f56565b60405180910390fd5b600060056001816001815401808255809150500390600052602060002090600a020190506000816000018190555060008160010181905550878160030181905550428160040181905550848160070160006101000a81548173ffffffffffffffffffffffffffffffffffffffff021916908373ffffffffffffffffffffffffffffffffffffffff160217905550838160080181905550858160060181905550828160090160006101000a81548160ff02191690831515021790555060006001600580549050610e7b9190611f76565b9050807ffb1330a17ffe898a019796942f0ab05b8d97f1e01c9d47ac01b2fe7b462c152b8c8c8c428c8c8c8c604051610ebb989796959493929190611fe3565b60405180910390a260005b8851811015610f8f5782600501604051806040016040528060008152602001600081525090806001815401808255809150506001900390600052602060002090600202016000909190919091506000820151816000015560208201518160010155505080827fd3b5cef521b08344b2f3822456355f6c2603e7f00a271d0215ac4760a401fc488b8481518110610f5f57610f5e61198f565b5b6020026020010151604051610f74919061206f565b60405180910390a38080610f8790612091565b915050610ec6565b505050505050505050505050565b6000806005805490508310610fe7576040517f08c379a0000000000000000000000000000000000000000000000000000000008152600401610fde9061196f565b60405180910390fd5b600060058481548110610ffd57610ffc61198f565b5b90600052602060002090600a02019050600080600080846000015490506000856001015490506000633b9aca009050600080886005018054905067ffffffffffffffff8111156110505761104f61158d565b5b60405190808252806020026020018201604052801561107e5781602001602082028036833780820191505090505b50905060005b89600501805490508110156111915760008a60050182815481106110ab576110aa61198f565b5b906000526020600020906002020160000154905060008b60050183815481106110d7576110d661198f565b5b906000526020600020906002020160010154905060008887600754856110fd91906119ed565b61110791906119ed565b6111119190612108565b9050600088886006548561112591906119ed565b61112f91906119ed565b6111399190612108565b9050600081836111499190611a2f565b90508087878151811061115f5761115e61198f565b5b60200260200101818152505080886111779190611a2f565b97505050505050808061118990612091565b915050611084565b5060006064600454846111a491906119ed565b6111ae9190612108565b905060005b8a6005018054905081101561120a5760008382815181106111d7576111d661198f565b5b602002602001015190508a8111156111f657809a508199508285101598505b50808061120290612091565b9150506111b3565b5087879b509b5050505050505050505050915091565b600061122b82611232565b9050919050565b60008060026001846112449190611a2f565b61124e9190612108565b90508291505b8181101561128957809150600281828561126e9190612108565b6112789190611a2f565b6112829190612108565b9050611254565b50919050565b6000819050919050565b6112a28161128f565b82525050565b60006020820190506112bd6000830184611299565b92915050565b6000604051905090565b600080fd5b600080fd5b6112e08161128f565b81146112eb57600080fd5b50565b6000813590506112fd816112d7565b92915050565b600060208284031215611319576113186112cd565b5b6000611327848285016112ee565b91505092915050565b600073ffffffffffffffffffffffffffffffffffffffff82169050919050565b600061135b82611330565b9050919050565b61136b81611350565b811461137657600080fd5b50565b60008135905061138881611362565b92915050565b6000806000606084860312156113a7576113a66112cd565b5b60006113b5868287016112ee565b93505060206113c686828701611379565b92505060406113d7868287016112ee565b9150509250925092565b6000819050919050565b60006114066114016113fc84611330565b6113e1565b611330565b9050919050565b6000611418826113eb565b9050919050565b600061142a8261140d565b9050919050565b61143a8161141f565b82525050565b60006020820190506114556000830184611431565b92915050565b60006114668261140d565b9050919050565b6114768161145b565b82525050565b6000602082019050611491600083018461146d565b92915050565b60006114a28261140d565b9050919050565b6114b281611497565b82525050565b60006020820190506114cd60008301846114a9565b92915050565b600080604083850312156114ea576114e96112cd565b5b60006114f8858286016112ee565b9250506020611509858286016112ee565b9150509250929050565b60006040820190506115286000830185611299565b6115356020830184611299565b9392505050565b60008115159050919050565b6115518161153c565b82525050565b600060208201905061156c6000830184611548565b92915050565b600080fd5b600080fd5b6000601f19601f8301169050919050565b7f4e487b7100000000000000000000000000000000000000000000000000000000600052604160045260246000fd5b6115c58261157c565b810181811067ffffffffffffffff821117156115e4576115e361158d565b5b80604052505050565b60006115f76112c3565b905061160382826115bc565b919050565b600067ffffffffffffffff8211156116235761162261158d565b5b61162c8261157c565b9050602081019050919050565b82818337600083830152505050565b600061165b61165684611608565b6115ed565b90508281526020810184848401111561167757611676611577565b5b611682848285611639565b509392505050565b600082601f83011261169f5761169e611572565b5b81356116af848260208601611648565b91505092915050565b600067ffffffffffffffff8211156116d3576116d261158d565b5b602082029050602081019050919050565b600080fd5b60006116fc6116f7846116b8565b6115ed565b9050808382526020820190506020840283018581111561171f5761171e6116e4565b5b835b8181101561176657803567ffffffffffffffff81111561174457611743611572565b5b808601611751898261168a565b85526020850194505050602081019050611721565b5050509392505050565b600082601f83011261178557611784611572565b5b81356117958482602086016116e9565b91505092915050565b60006117a982611330565b9050919050565b6117b98161179e565b81146117c457600080fd5b50565b6000813590506117d6816117b0565b92915050565b6117e58161153c565b81146117f057600080fd5b50565b600081359050611802816117dc565b92915050565b600080600080600080600080610100898b031215611829576118286112cd565b5b600089013567ffffffffffffffff811115611847576118466112d2565b5b6118538b828c0161168a565b985050602089013567ffffffffffffffff811115611874576118736112d2565b5b6118808b828c0161168a565b97505060406118918b828c016112ee565b965050606089013567ffffffffffffffff8111156118b2576118b16112d2565b5b6118be8b828c01611770565b95505060806118cf8b828c016112ee565b94505060a06118e08b828c016117c7565b93505060c06118f18b828c016112ee565b92505060e06119028b828c016117f3565b9150509295985092959890939650565b600082825260208201905092915050565b7f496e76616c69642070726f706f73616c20494400000000000000000000000000600082015250565b6000611959601383611912565b915061196482611923565b602082019050919050565b600060208201905081810360008301526119888161194c565b9050919050565b7f4e487b7100000000000000000000000000000000000000000000000000000000600052603260045260246000fd5b7f4e487b7100000000000000000000000000000000000000000000000000000000600052601160045260246000fd5b60006119f88261128f565b9150611a038361128f565b9250828202611a118161128f565b91508282048414831517611a2857611a276119be565b5b5092915050565b6000611a3a8261128f565b9150611a458361128f565b9250828201905080821115611a5d57611a5c6119be565b5b92915050565b7f566f74696e67206973206e6f742079657420636c6f7365640000000000000000600082015250565b6000611a99601883611912565b9150611aa482611a63565b602082019050919050565b60006020820190508181036000830152611ac881611a8c565b9050919050565b611ad881611350565b82525050565b6000611ae98261140d565b9050919050565b611af981611ade565b82525050565b6000606082019050611b146000830186611acf565b611b216020830185611af0565b611b2e6040830184611299565b949350505050565b6000604082019050611b4b6000830185611299565b611b586020830184611548565b9392505050565b7f566f74696e672074696d65206578706972656400000000000000000000000000600082015250565b6000611b95601383611912565b9150611ba082611b5f565b602082019050919050565b60006020820190508181036000830152611bc481611b88565b9050919050565b6000602082019050611be06000830184611acf565b92915050565b600081519050611bf5816112d7565b92915050565b600060208284031215611c1157611c106112cd565b5b6000611c1f84828501611be6565b91505092915050565b7f4e6f2064656d6f637261637920746f6b656e7300000000000000000000000000600082015250565b6000611c5e601383611912565b9150611c6982611c28565b602082019050919050565b60006020820190508181036000830152611c8d81611c51565b9050919050565b7f416c726561647920766f74656400000000000000000000000000000000000000600082015250565b6000611cca600d83611912565b9150611cd582611c94565b602082019050919050565b60006020820190508181036000830152611cf981611cbd565b9050919050565b6000606082019050611d156000830186611299565b611d226020830185611299565b611d2f6040830184611299565b949350505050565b7f496e76616c6964206f7074696f6e20696e646578000000000000000000000000600082015250565b6000611d6d601483611912565b9150611d7882611d37565b602082019050919050565b60006020820190508181036000830152611d9c81611d60565b9050919050565b60005b83811015611dc1578082015181840152602081019050611da6565b60008484015250505050565b6000611de0611ddb84611608565b6115ed565b905082815260208101848484011115611dfc57611dfb611577565b5b611e07848285611da3565b509392505050565b600082601f830112611e2457611e23611572565b5b8151611e34848260208601611dcd565b91505092915050565b600060208284031215611e5357611e526112cd565b5b600082015167ffffffffffffffff811115611e7157611e706112d2565b5b611e7d84828501611e0f565b91505092915050565b600081519050919050565b600081905092915050565b6000611ea782611e86565b611eb18185611e91565b9350611ec1818560208601611da3565b80840191505092915050565b6000611ed98284611e9c565b915081905092915050565b7f4e6f7420617574686f72697a656420746f206372656174652070726f706f736160008201527f6c00000000000000000000000000000000000000000000000000000000000000602082015250565b6000611f40602183611912565b9150611f4b82611ee4565b604082019050919050565b60006020820190508181036000830152611f6f81611f33565b9050919050565b6000611f818261128f565b9150611f8c8361128f565b9250828203905081811115611fa457611fa36119be565b5b92915050565b6000611fb582611e86565b611fbf8185611912565b9350611fcf818560208601611da3565b611fd88161157c565b840191505092915050565b6000610100820190508181036000830152611ffe818b611faa565b90508181036020830152612012818a611faa565b90506120216040830189611299565b61202e6060830188611299565b61203b6080830187611299565b61204860a0830186611af0565b61205560c0830185611299565b61206260e0830184611548565b9998505050505050505050565b600060208201905081810360008301526120898184611faa565b905092915050565b600061209c8261128f565b91507fffffffffffffffffffffffffffffffffffffffffffffffffffffffffffffffff82036120ce576120cd6119be565b5b600182019050919050565b7f4e487b7100000000000000000000000000000000000000000000000000000000600052601260045260246000fd5b60006121138261128f565b915061211e8361128f565b92508261212e5761212d6120d9565b5b82820490509291505056fea2646970667358221220c344113107e02db257e785004d61609ef9f76c3aa202a7e5054dda307d50789964736f6c63430008140033a264697066735822122066766d4968a73cd3b460019eb1bd8584a90fd30a540dfd5022366bf664d6a27764736f6c63430008140033",
  "linkReferences": {},
  "deployedLinkReferences": {}
}