{"abi":[{"type":"constructor","inputs":[{"name":"_directDemocracyTokenFactory","type":"address","internalType":"address"},{"name":"_directDemocracyVotingFactory","type":"address","internalType":"address"},{"name":"_hybridVotingFactory","type":"address","internalType":"address"},{"name":"_participationTokenFactory","type":"address","internalType":"address"},{"name":"_participationVotingFactory","type":"address","internalType":"address"},{"name":"_treasuryFactory","type":"address","internalType":"address"},{"name":"_nftMembershipFactory","type":"address","internalType":"address"},{"name":"_registryFactory","type":"address","internalType":"address"},{"name":"_taskManagerFactory","type":"address","internalType":"address"},{"name":"_quickJoinFactory","type":"address","internalType":"address"},{"name":"_accountManagerAddress","type":"address","internalType":"address"},{"name":"_electionContractFactory","type":"address","internalType":"address"}],"stateMutability":"nonpayable"},{"type":"function","name":"deployAll","inputs":[{"name":"params","type":"tuple","internalType":"struct MasterFactory.DeployParams","components":[{"name":"memberTypeNames","type":"string[]","internalType":"string[]"},{"name":"executivePermissionNames","type":"string[]","internalType":"string[]"},{"name":"POname","type":"string","internalType":"string"},{"name":"quadraticVotingEnabled","type":"bool","internalType":"bool"},{"name":"democracyVoteWeight","type":"uint256","internalType":"uint256"},{"name":"participationVoteWeight","type":"uint256","internalType":"uint256"},{"name":"hybridVotingEnabled","type":"bool","internalType":"bool"},{"name":"participationVotingEnabled","type":"bool","internalType":"bool"},{"name":"logoURL","type":"string","internalType":"string"},{"name":"infoIPFSHash","type":"string","internalType":"string"},{"name":"votingControlType","type":"string","internalType":"string"},{"name":"contractNames","type":"string[]","internalType":"string[]"},{"name":"quorumPercentageDD","type":"uint256","internalType":"uint256"},{"name":"quorumPercentagePV","type":"uint256","internalType":"uint256"},{"name":"username","type":"string","internalType":"string"},{"name":"electionEnabled","type":"bool","internalType":"bool"}]}],"outputs":[{"name":"","type":"address","internalType":"address"}],"stateMutability":"nonpayable"},{"type":"event","name":"DeployParamsLog","inputs":[{"name":"memberTypeNames","type":"string[]","indexed":false,"internalType":"string[]"},{"name":"executivePermissionNames","type":"string[]","indexed":false,"internalType":"string[]"},{"name":"POname","type":"string","indexed":false,"internalType":"string"},{"name":"quadraticVotingEnabled","type":"bool","indexed":false,"internalType":"bool"},{"name":"democracyVoteWeight","type":"uint256","indexed":false,"internalType":"uint256"},{"name":"participationVoteWeight","type":"uint256","indexed":false,"internalType":"uint256"},{"name":"hybridVotingEnabled","type":"bool","indexed":false,"internalType":"bool"},{"name":"participationVotingEnabled","type":"bool","indexed":false,"internalType":"bool"},{"name":"logoURL","type":"string","indexed":false,"internalType":"string"},{"name":"votingControlType","type":"string","indexed":false,"internalType":"string"},{"name":"contractNames","type":"string[]","indexed":false,"internalType":"string[]"}],"anonymous":false}],"bytecode":{"object":"0x6080346101b357601f61182438819003918201601f19168301916001600160401b038311848410176101b857808492610180946040528339810103126101b357610048816101ce565b610054602083016101ce565b610060604084016101ce565b61006c606085016101ce565b610078608086016101ce565b61008460a087016101ce565b61009060c088016101ce565b9161009d60e089016101ce565b936100ab6101008a016101ce565b956100b96101208b016101ce565b976100c76101408c016101ce565b9a610160016100d5906101ce565b600180546001600160a01b03199081166001600160a01b039d8e1617909155600080548216938d1693909317909255600280548316938c1693909317909255600380548216938b1693909317909255600480548316938a16939093179092556005805482169389169390931790925560068054831693881693909317909255600780548216938716939093179092556008805483169386169390931790925560098054821693851693909317909255600a80548316918416919091179055600b80549091169290911691909117905560405161164190816101e38239f35b600080fd5b634e487b7160e01b600052604160045260246000fd5b51906001600160a01b03821682036101b35756fe6080604052600436101561001257600080fd5b6000803560e01c632f2e5ca11461002857600080fd5b346111e25760203660031901126111e2576001600160401b03600435116111e257610200600435360360031901126111e257610280604052600435600401356001600160401b038111610d245761008690600436918135010161128e565b608052602460043501356001600160401b038111610d24576100af90600436918135010161128e565b60a052600435604401356001600160401b038111610d24576100d8906004369181350101611233565b60c0526100e960043560640161130c565b60e05260043560848101356101005260a48101356101205261010d9060c40161130c565b6101405261011f60043560e40161130c565b6101605260043561010401356001600160401b038111610d245761014a906004369181350101611233565b6101805260043561012401356001600160401b038111610d2457610175906004369181350101611233565b6101a05260043561014401356001600160401b038111610d24576101a0906004369181350101611233565b6101c05260043561016401356001600160401b038111610d24576101cb90600436918135010161128e565b6101e052600435610184810135610200526101a4810135610220526001600160401b036101c490910135116111e257366004356101c40135600435016004019061021491611233565b610240526102276101e46004350161130c565b6102605260805160a05160c05160e0516101005161012051610140516101608051610180516101c0516101e0516040518581529b8c9b919a92999398931515979415159615159561027b91908d0190611361565b8b810360208d015261028c91611361565b8a810360408c015261029d9161133c565b9460608a0152608089015260a088015260c087015260e08601528481036101008601526102c99161133c565b8381036101208501526102db9161133c565b8281036101408401526102ed91611361565b037f052118631900f8a4b7bcb75e2e3fb6b543e63532fe00bdbd035051e22aacff5891a1806007608060c00151158015906111d6575b6111ce575b610260516111c0575b61035361033d8261121c565b9161034b60405193846111e5565b80835261121c565b601f19013660208301376103c660206080518160800151906103b48661010060800151926103ea6040608001516103d860018060a01b0360065416966040519a8b998a98899763ccf4579b60e01b8952608060048a01526084890190611361565b87810360031901602489015290611361565b8581036003190160448701529061133c565b8381036003190160648501529061133c565b03925af1908115610d3d5783916111a1575b50610406826113df565b6001600160a01b03918216905261041c826113df565b511660206104b2816080015192604060800151938660018060a01b0360015416926104c460405197889687958694630e9e27f160e21b865260a06004870152601460a4870152732234b932b1ba2232b6b7b1b930b1bcaa37b5b2b760611b60c487015260e06024870152600360e48701526211111560ea1b61010487015260448601526101206064860152610124850190611361565b8381036003190160848501529061133c565b03925af1908115610d3d578391611182575b506002906104e383611402565b6001600160a01b03918216905260c0516003546040516301d17c7160e01b81526060600482015260126064820152712830b93a34b1b4b830ba34b7b72a37b5b2b760711b608482015260a0602482015260a4810185905261141560f21b60c482015260e0604482015296602093889392169183919082906105689060e483019061133c565b03925af1938415610d3d578394611161575b50600019811461114d57829360018201906105958385611452565b6001600160a01b03918216905260c051600554604051634749180960e11b815260206004820181905290979093889392169183919082906105da90602483019061133c565b03925af18015610d615761068b94869161112e575b506106036105fc836113ba565b9285611452565b6001600160a01b03918216905260a05160c05161020051885460209490811692918a9161062f8a611402565b5116906106a26001600160a01b036106468c6113df565b5116946001600160a01b0361065a8d611412565b5116906040519d8e998a988997625e3f7360e51b89526004890152602488015260c0604488015260c4870190611361565b91606486015260031985830301608486015261133c565b9060a483015203925af1938415610d6157859461110d575b506106c4816113ba565b936106d0859285611452565b6001600160a01b0390911690526101405115610fe75750546001600160a01b039081169060209061070084611422565b5116916001600160a01b0361071485611402565b5116906001600160a01b03610728866113df565b5116918784608001519560606080015115156107ca60808001519160a06080015160018060a01b036107598d611412565b5116604060800151916101a060800151956107a36040519e8f9d8e9c8d9b631d47fc3d60e11b8d5260048d015260248c015260448b015261014060648b01526101448a0190611361565b94608489015260a488015260c487015260e48601526003198583030161010486015261133c565b9061012483015203925af1908115610fbd578491610fc8575b506107f76107f0846113ba565b9383611452565b6001600160a01b0390911690525b6008546103d8906020906001600160a01b039081169061082485611422565b5116906001600160a01b03610838866113df565b511687846080015193610879604060800151604051988997889687956366c6858360e01b875260048701526024860152608060448601526084850190611361565b03925af1908115610fbd578491610f9e575b50610895836113ba565b906108a1829484611452565b6001600160a01b0391821690526108b7836113df565b5116926101e060800151610df0575b506108d78261014060800151611485565b92846001600160a01b036108ea85611412565b511694853b15610d245760405163281a706b60e21b81526001600160a01b03909116600482018190529582908290602490829084905af18015610c8e57610ddb575b506001600160a01b03905061094084611422565b51166000198301838111610dc7578691906001600160a01b03906109649087611452565b5116813b15610cd35782916024839260405194859384926388bb45bb60e01b845260048401525af18015610c8e57610dae575b50506009546001600160a01b03908116906020906109b4866113df565b5116916001600160a01b036109c887611402565b51600b5460c05160405163060991f760e41b815260048101979097529290911660248601526001600160a01b0316604485015260a0606485015283919082908a908290610a199060a483019061133c565b30608483015203925af1908115610da3578691610d84575b50610a45610a3e846113ba565b9385611452565b6001600160a01b0390911690526000198201918211610d70578491906001600160a01b03610a738386611452565b5116916001600160a01b03610a8786611402565b51166001600160a01b03610a9b8388611452565b5116813b15610d6c57859160248392604051948593849263ada52e2560e01b845260048401525af1908115610d61578591610d4c575b506001600160a01b0391610ae6915086611452565b5116813b15610d4857839160248392604051948593849263ada52e2560e01b845260048401525af1908115610d3d578391610d28575b5050610240515115610cd7576102405190803b15610cd357610b6083929183926040519485809481936368585b0360e01b835260406004840152604483019061133c565b33602483015203925af18015610c8e57610cbe575b5050905b6007546101e05160c08051610180516101a051604051630845d8fd60e11b81526004810197909752602487019390935294956001600160a01b03909416948694889491929091610bcd9060c4880190611361565b60031987820301604488015260208084519283815201930190865b818110610c99575050508593610c286020989694610c168795610c3a9560031988830301606489015261133c565b8581036003190160848701529061133c565b8381036003190160a48501529061133c565b03925af1908115610c8e5760209291610c61575b506040516001600160a01b039091168152f35b610c819150823d8411610c87575b610c7981836111e5565b810190611466565b38610c4e565b503d610c6f565b6040513d84823e3d90fd5b82516001600160a01b031685528a98508b975060209485019490920191600101610be8565b81610cc8916111e5565b610cd3578238610b75565b8280fd5b803b15610d2457818091602460405180948193634bc30a3760e01b83523360048401525af18015610c8e57610d0f575b505090610b79565b81610d19916111e5565b610cd3578238610d07565b5080fd5b81610d32916111e5565b610d24578138610b1c565b6040513d85823e3d90fd5b8380fd5b81610d56916111e5565b610d48578338610ad1565b6040513d87823e3d90fd5b8580fd5b634e487b7160e01b85526011600452602485fd5b610d9d915060203d602011610c8757610c7981836111e5565b38610a31565b6040513d88823e3d90fd5b81610db8916111e5565b610dc3578438610997565b8480fd5b634e487b7160e01b87526011600452602487fd5b81610de5916111e5565b610dc357843861092c565b60c051600a549192610e5c9290916020916001600160a01b0390811690610e16886113df565b5116896001600160a01b03610e2a8a611432565b51169160405197889586948593636d28e76b60e11b85526004850152602484015260606044840152606483019061133c565b03925af1918215610da3578692610f75575b50610e7b610e82916113ba565b9284611452565b6001600160a01b039182169052610e9883611432565b5160001983019116828211610f615785906001600160a01b03610ebb8487611452565b511690803b15610cd35760248392604051948593849262911b0d60e81b845260048401525af18015610da357610f4d575b5084906001600160a01b0390610f029085611452565b5116843b15610d24576040519063c93949bf60e01b82526004820152818160248183895af18015610c8e57610f38575b506108c6565b81610f42916111e5565b610d48578338610f32565b85610f5a919692966111e5565b9338610eec565b634e487b7160e01b86526011600452602486fd5b610e82919250610f96610e7b9160203d602011610c8757610c7981836111e5565b929150610e6e565b610fb7915060203d602011610c8757610c7981836111e5565b3861088b565b6040513d86823e3d90fd5b610fe1915060203d602011610c8757610c7981836111e5565b386107e3565b61016051909150610ff9575b50610805565b60a05160e05160c05161022051600454949661109095909460209490936001600160a01b039283169390928b92151591906110ac906110378c611422565b5116926001600160a01b0361104b8d6113df565b5116956001600160a01b0361105f8e611412565b51166040519c8d9a8b998a98639071342560e01b8a5260048a0152602489015260e0604489015260e4880190611361565b92606487015260848601526003198583030160a486015261133c565b9060c483015203925af1918215610d615785926110e4575b506107f06110d1916113ba565b6001600160a01b03909116905238610ff3565b6110d19192506111056107f09160203d602011610c8757610c7981836111e5565b9291506110c4565b61112791945060203d602011610c8757610c7981836111e5565b92386106ba565b611147915060203d602011610c8757610c7981836111e5565b386105ef565b634e487b7160e01b83526011600452602483fd5b61117b91945060203d602011610c8757610c7981836111e5565b923861057a565b61119b915060203d602011610c8757610c7981836111e5565b386104d6565b6111ba915060203d602011610c8757610c7981836111e5565b386103fc565b6111c9906113ba565b610331565b506008610328565b50610160511515610323565b80fd5b90601f801991011681019081106001600160401b0382111761120657604052565b634e487b7160e01b600052604160045260246000fd5b6001600160401b0381116112065760051b60200190565b81601f82011215611289578035906001600160401b0382116112065760405192611267601f8401601f1916602001856111e5565b8284526020838301011161128957816000926020809301838601378301015290565b600080fd5b9080601f830112156112895781356112a58161121c565b926112b360405194856111e5565b81845260208085019260051b820101918383116112895760208201905b8382106112df57505050505090565b81356001600160401b0381116112895760209161130187848094880101611233565b8152019101906112d0565b3590811515820361128957565b60005b83811061132c5750506000910152565b818101518382015260200161131c565b9060209161135581518092818552858086019101611319565b601f01601f1916010190565b9080602083519182815201916020808360051b8301019401926000915b83831061138d57505050505090565b90919293946020806113ab600193601f19868203018752895161133c565b9701930193019193929061137e565b60001981146113c95760010190565b634e487b7160e01b600052601160045260246000fd5b8051156113ec5760200190565b634e487b7160e01b600052603260045260246000fd5b8051600110156113ec5760400190565b8051600310156113ec5760800190565b8051600210156113ec5760600190565b8051600410156113ec5760a00190565b8051600510156113ec5760c00190565b80518210156113ec5760209160051b010190565b9081602091031261128957516001600160a01b03811681036112895790565b60405190602082018151926114b6602082818601966114a581878a611319565b81010301601f1981018352826111e5565b519020604051602081019065121e589c9a5960d21b8252600681526114dc6026826111e5565b519020036114fd57506001600160a01b03916114f89150611442565b511690565b604051602081019061151860208285516114a581878a611319565b51902060405160208101906e44697265637444656d6f637261637960881b8252600f8152611547602f826111e5565b5190200361156357506001600160a01b03916114f89150611432565b61157f602060405180936114a583830196879251928391611319565b51902060405160208101906c2830b93a34b1b4b830ba34b7b760991b8252600d81526115ac602d826111e5565b519020036115c6576001600160a01b03906114f890611442565b60405162461bcd60e51b815260206004820152601b60248201527f496e76616c696420766f74696e6720636f6e74726f6c207479706500000000006044820152606490fdfea2646970667358221220fdbbcf3b8875a7b570a4b80876ec7783ff86cc2471fe841b2203f180cf4185de64736f6c634300081a0033","linkReferences":{}},"methodIdentifiers":{"deployAll((string[],string[],string,bool,uint256,uint256,bool,bool,string,string,string,string[],uint256,uint256,string,bool))":"2f2e5ca1"},"id":50}