{
  "_format": "hh-sol-artifact-1",
  "contractName": "MasterFactory",
  "sourceName": "contracts/MasterDeployFactoy.sol",
  "abi": [
    {
      "inputs": [
        {
          "internalType": "address",
          "name": "_directDemocracyTokenFactory",
          "type": "address"
        },
        {
          "internalType": "address",
          "name": "_directDemocracyVotingFactory",
          "type": "address"
        },
        {
          "internalType": "address",
          "name": "_hybridVotingFactory",
          "type": "address"
        },
        {
          "internalType": "address",
          "name": "_participationTokenFactory",
          "type": "address"
        },
        {
          "internalType": "address",
          "name": "_participationVotingFactory",
          "type": "address"
        },
        {
          "internalType": "address",
          "name": "_treasuryFactory",
          "type": "address"
        },
        {
          "internalType": "address",
          "name": "_nftMembershipFactory",
          "type": "address"
        },
        {
          "internalType": "address",
          "name": "_registryFactory",
          "type": "address"
        },
        {
          "internalType": "address",
          "name": "_taskManagerFactory",
          "type": "address"
        },
        {
          "internalType": "address",
          "name": "_quickJoinFactory",
          "type": "address"
        },
        {
          "internalType": "address",
          "name": "_accountManagerAddress",
          "type": "address"
        }
      ],
      "stateMutability": "nonpayable",
      "type": "constructor"
    },
    {
      "anonymous": false,
      "inputs": [
        {
          "indexed": false,
          "internalType": "string[]",
          "name": "memberTypeNames",
          "type": "string[]"
        },
        {
          "indexed": false,
          "internalType": "string[]",
          "name": "executivePermissionNames",
          "type": "string[]"
        },
        {
          "indexed": false,
          "internalType": "string",
          "name": "POname",
          "type": "string"
        },
        {
          "indexed": false,
          "internalType": "bool",
          "name": "quadraticVotingEnabled",
          "type": "bool"
        },
        {
          "indexed": false,
          "internalType": "uint256",
          "name": "democracyVoteWeight",
          "type": "uint256"
        },
        {
          "indexed": false,
          "internalType": "uint256",
          "name": "participationVoteWeight",
          "type": "uint256"
        },
        {
          "indexed": false,
          "internalType": "bool",
          "name": "hybridVotingEnabled",
          "type": "bool"
        },
        {
          "indexed": false,
          "internalType": "bool",
          "name": "participationVotingEnabled",
          "type": "bool"
        },
        {
          "indexed": false,
          "internalType": "string",
          "name": "logoURL",
          "type": "string"
        },
        {
          "indexed": false,
          "internalType": "string",
          "name": "votingControlType",
          "type": "string"
        },
        {
          "indexed": false,
          "internalType": "string[]",
          "name": "contractNames",
          "type": "string[]"
        }
      ],
      "name": "DeployParamsLog",
      "type": "event"
    },
    {
      "inputs": [
        {
          "components": [
            {
              "internalType": "string[]",
              "name": "memberTypeNames",
              "type": "string[]"
            },
            {
              "internalType": "string[]",
              "name": "executivePermissionNames",
              "type": "string[]"
            },
            {
              "internalType": "string",
              "name": "POname",
              "type": "string"
            },
            {
              "internalType": "bool",
              "name": "quadraticVotingEnabled",
              "type": "bool"
            },
            {
              "internalType": "uint256",
              "name": "democracyVoteWeight",
              "type": "uint256"
            },
            {
              "internalType": "uint256",
              "name": "participationVoteWeight",
              "type": "uint256"
            },
            {
              "internalType": "bool",
              "name": "hybridVotingEnabled",
              "type": "bool"
            },
            {
              "internalType": "bool",
              "name": "participationVotingEnabled",
              "type": "bool"
            },
            {
              "internalType": "string",
              "name": "logoURL",
              "type": "string"
            },
            {
              "internalType": "string",
              "name": "infoIPFSHash",
              "type": "string"
            },
            {
              "internalType": "string",
              "name": "votingControlType",
              "type": "string"
            },
            {
              "internalType": "string[]",
              "name": "contractNames",
              "type": "string[]"
            },
            {
              "internalType": "uint256",
              "name": "quorumPercentageDD",
              "type": "uint256"
            },
            {
              "internalType": "uint256",
              "name": "quorumPercentagePV",
              "type": "uint256"
            },
            {
              "internalType": "string",
              "name": "username",
              "type": "string"
            }
          ],
          "internalType": "struct MasterFactory.DeployParams",
          "name": "params",
          "type": "tuple"
        }
      ],
      "name": "deployAll",
      "outputs": [],
      "stateMutability": "nonpayable",
      "type": "function"
    }
  ],
  "bytecode": "0x60806040523480156200001157600080fd5b50604051620026cf380380620026cf83398181016040528101906200003791906200037c565b8a600160006101000a81548173ffffffffffffffffffffffffffffffffffffffff021916908373ffffffffffffffffffffffffffffffffffffffff160217905550896000806101000a81548173ffffffffffffffffffffffffffffffffffffffff021916908373ffffffffffffffffffffffffffffffffffffffff16021790555088600260006101000a81548173ffffffffffffffffffffffffffffffffffffffff021916908373ffffffffffffffffffffffffffffffffffffffff16021790555087600360006101000a81548173ffffffffffffffffffffffffffffffffffffffff021916908373ffffffffffffffffffffffffffffffffffffffff16021790555086600460006101000a81548173ffffffffffffffffffffffffffffffffffffffff021916908373ffffffffffffffffffffffffffffffffffffffff16021790555085600560006101000a81548173ffffffffffffffffffffffffffffffffffffffff021916908373ffffffffffffffffffffffffffffffffffffffff16021790555084600660006101000a81548173ffffffffffffffffffffffffffffffffffffffff021916908373ffffffffffffffffffffffffffffffffffffffff16021790555083600760006101000a81548173ffffffffffffffffffffffffffffffffffffffff021916908373ffffffffffffffffffffffffffffffffffffffff16021790555082600860006101000a81548173ffffffffffffffffffffffffffffffffffffffff021916908373ffffffffffffffffffffffffffffffffffffffff16021790555081600960006101000a81548173ffffffffffffffffffffffffffffffffffffffff021916908373ffffffffffffffffffffffffffffffffffffffff16021790555080600a60006101000a81548173ffffffffffffffffffffffffffffffffffffffff021916908373ffffffffffffffffffffffffffffffffffffffff160217905550505050505050505050505062000489565b600080fd5b600073ffffffffffffffffffffffffffffffffffffffff82169050919050565b6000620003448262000317565b9050919050565b620003568162000337565b81146200036257600080fd5b50565b60008151905062000376816200034b565b92915050565b60008060008060008060008060008060006101608c8e031215620003a557620003a462000312565b5b6000620003b58e828f0162000365565b9b50506020620003c88e828f0162000365565b9a50506040620003db8e828f0162000365565b9950506060620003ee8e828f0162000365565b9850506080620004018e828f0162000365565b97505060a0620004148e828f0162000365565b96505060c0620004278e828f0162000365565b95505060e06200043a8e828f0162000365565b9450506101006200044e8e828f0162000365565b935050610120620004628e828f0162000365565b925050610140620004768e828f0162000365565b9150509295989b509295989b9093969950565b61223680620004996000396000f3fe608060405234801561001057600080fd5b506004361061002b5760003560e01c80638934098014610030575b600080fd5b61004a60048036038101906100459190611696565b61004c565b005b7f052118631900f8a4b7bcb75e2e3fb6b543e63532fe00bdbd035051e22aacff58816000015182602001518360400151846060015185608001518660a001518760c001518860e001518961010001518a61014001518b61016001516040516100be9b9a99989796959493929190611888565b60405180910390a16000600867ffffffffffffffff8111156100e3576100e26111c4565b5b6040519080825280602002602001820160405280156101115781602001602082028036833780820191505090505b50905061013281836000015184602001518561010001518660400151610597565b61013c818361071a565b600061014d83610140015183610a05565b90506000826002815181106101655761016461195d565b5b602002602001015190508073ffffffffffffffffffffffffffffffffffffffff166388bb45bb8460068151811061019f5761019e61195d565b5b60200260200101516040518263ffffffff1660e01b81526004016101c391906119cd565b600060405180830381600087803b1580156101dd57600080fd5b505af11580156101f1573d6000803e3d6000fd5b5050505060008360038151811061020b5761020a61195d565b5b602002602001015190508073ffffffffffffffffffffffffffffffffffffffff1663a069c1ac846040518263ffffffff1660e01b815260040161024e91906119cd565b600060405180830381600087803b15801561026857600080fd5b505af115801561027c573d6000803e3d6000fd5b50505050600960009054906101000a900473ffffffffffffffffffffffffffffffffffffffff1673ffffffffffffffffffffffffffffffffffffffff16639c2b7d56856000815181106102d2576102d161195d565b5b6020026020010151866001815181106102ee576102ed61195d565b5b6020026020010151600a60009054906101000a900473ffffffffffffffffffffffffffffffffffffffff1689604001516040518563ffffffff1660e01b815260040161033d94939291906119e8565b6020604051808303816000875af115801561035c573d6000803e3d6000fd5b505050506040513d601f19601f820116820180604052508101906103809190611a60565b846007815181106103945761039361195d565b5b602002602001019073ffffffffffffffffffffffffffffffffffffffff16908173ffffffffffffffffffffffffffffffffffffffff1681525050600760009054906101000a900473ffffffffffffffffffffffffffffffffffffffff1673ffffffffffffffffffffffffffffffffffffffff1663108bb1fa848761016001518789604001518a61010001518b61012001516040518763ffffffff1660e01b815260040161044696959493929190611b4b565b6020604051808303816000875af1158015610465573d6000803e3d6000fd5b505050506040513d601f19601f820116820180604052508101906104899190611a60565b506000846007815181106104a05761049f61195d565b5b602002602001015190506000866101c0015151111561052e578073ffffffffffffffffffffffffffffffffffffffff16639956a8a7876101c001516040518263ffffffff1660e01b81526004016104f79190611bcf565b600060405180830381600087803b15801561051157600080fd5b505af1158015610525573d6000803e3d6000fd5b5050505061058f565b8073ffffffffffffffffffffffffffffffffffffffff1663b425c3316040518163ffffffff1660e01b8152600401600060405180830381600087803b15801561057657600080fd5b505af115801561058a573d6000803e3d6000fd5b505050505b505050505050565b6105a384848484610ba4565b856000815181106105b7576105b661195d565b5b602002602001019073ffffffffffffffffffffffffffffffffffffffff16908173ffffffffffffffffffffffffffffffffffffffff1681525050610617856000815181106106085761060761195d565b5b60200260200101518583610c54565b8560018151811061062b5761062a61195d565b5b602002602001019073ffffffffffffffffffffffffffffffffffffffff16908173ffffffffffffffffffffffffffffffffffffffff168152505061066e81610d01565b856002815181106106825761068161195d565b5b602002602001019073ffffffffffffffffffffffffffffffffffffffff16908173ffffffffffffffffffffffffffffffffffffffff16815250506106c581610da8565b856003815181106106d9576106d861195d565b5b602002602001019073ffffffffffffffffffffffffffffffffffffffff16908173ffffffffffffffffffffffffffffffffffffffff16815250505050505050565b8060e0015161072a576000610749565b61074882826020015183606001518460400151856101a00151610e4f565b5b8260058151811061075d5761075c61195d565b5b602002602001019073ffffffffffffffffffffffffffffffffffffffff16908173ffffffffffffffffffffffffffffffffffffffff16815250506107b08282602001518360400151846101800151610f57565b826004815181106107c4576107c361195d565b5b602002602001019073ffffffffffffffffffffffffffffffffffffffff16908173ffffffffffffffffffffffffffffffffffffffff16815250508060c0015161080e576000610819565b610818828261105b565b5b8260058151811061082d5761082c61195d565b5b602002602001019073ffffffffffffffffffffffffffffffffffffffff16908173ffffffffffffffffffffffffffffffffffffffff16815250508060c0015115801561087b57508060e00151155b156108d1576000826005815181106108965761089561195d565b5b602002602001019073ffffffffffffffffffffffffffffffffffffffff16908173ffffffffffffffffffffffffffffffffffffffff16815250505b600860009054906101000a900473ffffffffffffffffffffffffffffffffffffffff1673ffffffffffffffffffffffffffffffffffffffff166366c68583836002815181106109235761092261195d565b5b60200260200101518460008151811061093f5761093e61195d565b5b6020026020010151846020015185604001516040518563ffffffff1660e01b81526004016109709493929190611bf1565b6020604051808303816000875af115801561098f573d6000803e3d6000fd5b505050506040513d601f19601f820116820180604052508101906109b39190611a60565b826006815181106109c7576109c661195d565b5b602002602001019073ffffffffffffffffffffffffffffffffffffffff16908173ffffffffffffffffffffffffffffffffffffffff16815250505050565b6000604051602001610a1690611c9b565b6040516020818303038152906040528051906020012083604051602001610a3d9190611ce1565b6040516020818303038152906040528051906020012003610a7b5781600581518110610a6c57610a6b61195d565b5b60200260200101519050610b9e565b604051602001610a8a90611d44565b6040516020818303038152906040528051906020012083604051602001610ab19190611ce1565b6040516020818303038152906040528051906020012003610aef5781600481518110610ae057610adf61195d565b5b60200260200101519050610b9e565b604051602001610afe90611da5565b6040516020818303038152906040528051906020012083604051602001610b259190611ce1565b6040516020818303038152906040528051906020012003610b635781600581518110610b5457610b5361195d565b5b60200260200101519050610b9e565b6040517f08c379a0000000000000000000000000000000000000000000000000000000008152600401610b9590611e06565b60405180910390fd5b92915050565b6000600660009054906101000a900473ffffffffffffffffffffffffffffffffffffffff1673ffffffffffffffffffffffffffffffffffffffff1663ccf4579b868686866040518563ffffffff1660e01b8152600401610c079493929190611e26565b6020604051808303816000875af1158015610c26573d6000803e3d6000fd5b505050506040513d601f19601f82011682018060405250810190610c4a9190611a60565b9050949350505050565b6000600160009054906101000a900473ffffffffffffffffffffffffffffffffffffffff1673ffffffffffffffffffffffffffffffffffffffff16633a789fc48585856040518463ffffffff1660e01b8152600401610cb593929190611f1f565b6020604051808303816000875af1158015610cd4573d6000803e3d6000fd5b505050506040513d601f19601f82011682018060405250810190610cf89190611a60565b90509392505050565b6000600360009054906101000a900473ffffffffffffffffffffffffffffffffffffffff1673ffffffffffffffffffffffffffffffffffffffff166301d17c71836040518263ffffffff1660e01b8152600401610d5e9190612022565b6020604051808303816000875af1158015610d7d573d6000803e3d6000fd5b505050506040513d601f19601f82011682018060405250810190610da19190611a60565b9050919050565b6000600560009054906101000a900473ffffffffffffffffffffffffffffffffffffffff1673ffffffffffffffffffffffffffffffffffffffff16638e923012836040518263ffffffff1660e01b8152600401610e059190611bcf565b6020604051808303816000875af1158015610e24573d6000803e3d6000fd5b505050506040513d601f19601f82011682018060405250810190610e489190611a60565b9050919050565b6000600460009054906101000a900473ffffffffffffffffffffffffffffffffffffffff1673ffffffffffffffffffffffffffffffffffffffff16639071342587600281518110610ea357610ea261195d565b5b602002602001015188600081518110610ebf57610ebe61195d565b5b602002602001015188888b600381518110610edd57610edc61195d565b5b602002602001015189896040518863ffffffff1660e01b8152600401610f09979695949392919061206a565b6020604051808303816000875af1158015610f28573d6000803e3d6000fd5b505050506040513d601f19601f82011682018060405250810190610f4c9190611a60565b905095945050505050565b60008060009054906101000a900473ffffffffffffffffffffffffffffffffffffffff1673ffffffffffffffffffffffffffffffffffffffff16630bc7ee6086600181518110610faa57610fa961195d565b5b602002602001015187600081518110610fc657610fc561195d565b5b60200260200101518789600381518110610fe357610fe261195d565b5b602002602001015188886040518763ffffffff1660e01b815260040161100e969594939291906120e7565b6020604051808303816000875af115801561102d573d6000803e3d6000fd5b505050506040513d601f19601f820116820180604052508101906110519190611a60565b9050949350505050565b6000600260009054906101000a900473ffffffffffffffffffffffffffffffffffffffff1673ffffffffffffffffffffffffffffffffffffffff16633a8ff87a846002815181106110af576110ae61195d565b5b6020026020010151856001815181106110cb576110ca61195d565b5b6020026020010151866000815181106110e7576110e661195d565b5b60200260200101518660200151876060015188608001518960a001518b6003815181106111175761111661195d565b5b60200260200101518b604001518c6101a001516040518b63ffffffff1660e01b815260040161114f9a99989796959493929190612156565b6020604051808303816000875af115801561116e573d6000803e3d6000fd5b505050506040513d601f19601f820116820180604052508101906111929190611a60565b905092915050565b6000604051905090565b600080fd5b600080fd5b600080fd5b6000601f19601f8301169050919050565b7f4e487b7100000000000000000000000000000000000000000000000000000000600052604160045260246000fd5b6111fc826111b3565b810181811067ffffffffffffffff8211171561121b5761121a6111c4565b5b80604052505050565b600061122e61119a565b905061123a82826111f3565b919050565b600080fd5b600080fd5b600067ffffffffffffffff821115611264576112636111c4565b5b602082029050602081019050919050565b600080fd5b600080fd5b600067ffffffffffffffff82111561129a576112996111c4565b5b6112a3826111b3565b9050602081019050919050565b82818337600083830152505050565b60006112d26112cd8461127f565b611224565b9050828152602081018484840111156112ee576112ed61127a565b5b6112f98482856112b0565b509392505050565b600082601f83011261131657611315611244565b5b81356113268482602086016112bf565b91505092915050565b600061134261133d84611249565b611224565b9050808382526020820190506020840283018581111561136557611364611275565b5b835b818110156113ac57803567ffffffffffffffff81111561138a57611389611244565b5b8086016113978982611301565b85526020850194505050602081019050611367565b5050509392505050565b600082601f8301126113cb576113ca611244565b5b81356113db84826020860161132f565b91505092915050565b60008115159050919050565b6113f9816113e4565b811461140457600080fd5b50565b600081359050611416816113f0565b92915050565b6000819050919050565b61142f8161141c565b811461143a57600080fd5b50565b60008135905061144c81611426565b92915050565b60006101e08284031215611469576114686111ae565b5b6114746101e0611224565b9050600082013567ffffffffffffffff8111156114945761149361123f565b5b6114a0848285016113b6565b600083015250602082013567ffffffffffffffff8111156114c4576114c361123f565b5b6114d0848285016113b6565b602083015250604082013567ffffffffffffffff8111156114f4576114f361123f565b5b61150084828501611301565b604083015250606061151484828501611407565b60608301525060806115288482850161143d565b60808301525060a061153c8482850161143d565b60a08301525060c061155084828501611407565b60c08301525060e061156484828501611407565b60e08301525061010082013567ffffffffffffffff8111156115895761158861123f565b5b61159584828501611301565b6101008301525061012082013567ffffffffffffffff8111156115bb576115ba61123f565b5b6115c784828501611301565b6101208301525061014082013567ffffffffffffffff8111156115ed576115ec61123f565b5b6115f984828501611301565b6101408301525061016082013567ffffffffffffffff81111561161f5761161e61123f565b5b61162b848285016113b6565b610160830152506101806116418482850161143d565b610180830152506101a06116578482850161143d565b6101a0830152506101c082013567ffffffffffffffff81111561167d5761167c61123f565b5b61168984828501611301565b6101c08301525092915050565b6000602082840312156116ac576116ab6111a4565b5b600082013567ffffffffffffffff8111156116ca576116c96111a9565b5b6116d684828501611452565b91505092915050565b600081519050919050565b600082825260208201905092915050565b6000819050602082019050919050565b600081519050919050565b600082825260208201905092915050565b60005b8381101561174557808201518184015260208101905061172a565b60008484015250505050565b600061175c8261170b565b6117668185611716565b9350611776818560208601611727565b61177f816111b3565b840191505092915050565b60006117968383611751565b905092915050565b6000602082019050919050565b60006117b6826116df565b6117c081856116ea565b9350836020820285016117d2856116fb565b8060005b8581101561180e57848403895281516117ef858261178a565b94506117fa8361179e565b925060208a019950506001810190506117d6565b50829750879550505050505092915050565b600082825260208201905092915050565b600061183c8261170b565b6118468185611820565b9350611856818560208601611727565b61185f816111b3565b840191505092915050565b611873816113e4565b82525050565b6118828161141c565b82525050565b60006101608201905081810360008301526118a3818e6117ab565b905081810360208301526118b7818d6117ab565b905081810360408301526118cb818c611831565b90506118da606083018b61186a565b6118e7608083018a611879565b6118f460a0830189611879565b61190160c083018861186a565b61190e60e083018761186a565b8181036101008301526119218186611831565b90508181036101208301526119368185611831565b905081810361014083015261194b81846117ab565b90509c9b505050505050505050505050565b7f4e487b7100000000000000000000000000000000000000000000000000000000600052603260045260246000fd5b600073ffffffffffffffffffffffffffffffffffffffff82169050919050565b60006119b78261198c565b9050919050565b6119c7816119ac565b82525050565b60006020820190506119e260008301846119be565b92915050565b60006080820190506119fd60008301876119be565b611a0a60208301866119be565b611a1760408301856119be565b8181036060830152611a298184611831565b905095945050505050565b611a3d816119ac565b8114611a4857600080fd5b50565b600081519050611a5a81611a34565b92915050565b600060208284031215611a7657611a756111a4565b5b6000611a8484828501611a4b565b91505092915050565b600081519050919050565b600082825260208201905092915050565b6000819050602082019050919050565b611ac2816119ac565b82525050565b6000611ad48383611ab9565b60208301905092915050565b6000602082019050919050565b6000611af882611a8d565b611b028185611a98565b9350611b0d83611aa9565b8060005b83811015611b3e578151611b258882611ac8565b9750611b3083611ae0565b925050600181019050611b11565b5085935050505092915050565b600060c082019050611b6060008301896119be565b8181036020830152611b7281886117ab565b90508181036040830152611b868187611aed565b90508181036060830152611b9a8186611831565b90508181036080830152611bae8185611831565b905081810360a0830152611bc28184611831565b9050979650505050505050565b60006020820190508181036000830152611be98184611831565b905092915050565b6000608082019050611c0660008301876119be565b611c1360208301866119be565b8181036040830152611c2581856117ab565b90508181036060830152611c398184611831565b905095945050505050565b600081905092915050565b7f4879627269640000000000000000000000000000000000000000000000000000600082015250565b6000611c85600683611c44565b9150611c9082611c4f565b600682019050919050565b6000611ca682611c78565b9150819050919050565b6000611cbb8261170b565b611cc58185611c44565b9350611cd5818560208601611727565b80840191505092915050565b6000611ced8284611cb0565b915081905092915050565b7f44697265637444656d6f63726163790000000000000000000000000000000000600082015250565b6000611d2e600f83611c44565b9150611d3982611cf8565b600f82019050919050565b6000611d4f82611d21565b9150819050919050565b7f50617274696369706174696f6e00000000000000000000000000000000000000600082015250565b6000611d8f600d83611c44565b9150611d9a82611d59565b600d82019050919050565b6000611db082611d82565b9150819050919050565b7f496e76616c696420766f74696e6720636f6e74726f6c20747970650000000000600082015250565b6000611df0601b83611820565b9150611dfb82611dba565b602082019050919050565b60006020820190508181036000830152611e1f81611de3565b9050919050565b60006080820190508181036000830152611e4081876117ab565b90508181036020830152611e5481866117ab565b90508181036040830152611e688185611831565b90508181036060830152611e7c8184611831565b905095945050505050565b7f44697265637444656d6f6372616379546f6b656e000000000000000000000000600082015250565b6000611ebd601483611820565b9150611ec882611e87565b602082019050919050565b7f4444540000000000000000000000000000000000000000000000000000000000600082015250565b6000611f09600383611820565b9150611f1482611ed3565b602082019050919050565b600060a0820190508181036000830152611f3881611eb0565b90508181036020830152611f4b81611efc565b9050611f5a60408301866119be565b8181036060830152611f6c81856117ab565b90508181036080830152611f808184611831565b9050949350505050565b7f50617274696369706174696f6e546f6b656e0000000000000000000000000000600082015250565b6000611fc0601283611820565b9150611fcb82611f8a565b602082019050919050565b7f5054000000000000000000000000000000000000000000000000000000000000600082015250565b600061200c600283611820565b915061201782611fd6565b602082019050919050565b6000606082019050818103600083015261203b81611fb3565b9050818103602083015261204e81611fff565b905081810360408301526120628184611831565b905092915050565b600060e08201905061207f600083018a6119be565b61208c60208301896119be565b818103604083015261209e81886117ab565b90506120ad606083018761186a565b6120ba60808301866119be565b81810360a08301526120cc8185611831565b90506120db60c0830184611879565b98975050505050505050565b600060c0820190506120fc60008301896119be565b61210960208301886119be565b818103604083015261211b81876117ab565b905061212a60608301866119be565b818103608083015261213c8185611831565b905061214b60a0830184611879565b979650505050505050565b60006101408201905061216c600083018d6119be565b612179602083018c6119be565b612186604083018b6119be565b8181036060830152612198818a6117ab565b90506121a7608083018961186a565b6121b460a0830188611879565b6121c160c0830187611879565b6121ce60e08301866119be565b8181036101008301526121e18185611831565b90506121f1610120830184611879565b9b9a505050505050505050505056fea26469706673582212207660e04ff9a720c2b12f624fe4078ea3f0e985abeb212982741da47502f9deca64736f6c63430008140033",
  "linkReferences": {},
  "deployedLinkReferences": {}
}