{
  "_format": "hh-sol-artifact-1",
  "contractName": "NFTMembershipFactory",
  "sourceName": "contracts/MembershipNFTFactory.sol",
  "abi": [
    {
      "anonymous": false,
      "inputs": [
        {
          "indexed": false,
          "internalType": "address",
          "name": "contractAddress",
          "type": "address"
        },
        {
          "indexed": false,
          "internalType": "string[]",
          "name": "memberTypeNames",
          "type": "string[]"
        },
        {
          "indexed": false,
          "internalType": "string",
          "name": "defaultImageURL",
          "type": "string"
        },
        {
          "indexed": false,
          "internalType": "string",
          "name": "POname",
          "type": "string"
        }
      ],
      "name": "ContractCreated",
      "type": "event"
    },
    {
      "inputs": [
        {
          "internalType": "string[]",
          "name": "memberTypeNames",
          "type": "string[]"
        },
        {
          "internalType": "string",
          "name": "_defaultImageURL",
          "type": "string"
        },
        {
          "internalType": "string",
          "name": "POname",
          "type": "string"
        }
      ],
      "name": "createNFTMembership",
      "outputs": [],
      "stateMutability": "nonpayable",
      "type": "function"
    },
    {
      "inputs": [
        {
          "internalType": "uint256",
          "name": "",
          "type": "uint256"
        }
      ],
      "name": "deployedContracts",
      "outputs": [
        {
          "internalType": "address",
          "name": "",
          "type": "address"
        }
      ],
      "stateMutability": "view",
      "type": "function"
    },
    {
      "inputs": [],
      "name": "getDeployedContracts",
      "outputs": [
        {
          "internalType": "address[]",
          "name": "",
          "type": "address[]"
        }
      ],
      "stateMutability": "view",
      "type": "function"
    }
  ],
  "bytecode": "0x608060405234801561001057600080fd5b50614c90806100206000396000f3fe60806040523480156200001157600080fd5b5060043610620000465760003560e01c80639ad1ee10146200004b578063aa9a068f1462000081578063eeb5cdf014620000a3575b600080fd5b620000696004803603810190620000639190620002d7565b620000c3565b6040516200007891906200034e565b60405180910390f35b6200008b62000103565b6040516200009a919062000439565b60405180910390f35b620000c16004803603810190620000bb9190620006bb565b62000193565b005b60008181548110620000d457600080fd5b906000526020600020016000915054906101000a900473ffffffffffffffffffffffffffffffffffffffff1681565b606060008054806020026020016040519081016040528092919081815260200182805480156200018957602002820191906000526020600020905b8160009054906101000a900473ffffffffffffffffffffffffffffffffffffffff1673ffffffffffffffffffffffffffffffffffffffff16815260200190600101908083116200013e575b5050505050905090565b60008383604051620001a5906200027a565b620001b29291906200091f565b604051809103906000f080158015620001cf573d6000803e3d6000fd5b5090506000819080600181540180825580915050600190039060005260206000200160009091909190916101000a81548173ffffffffffffffffffffffffffffffffffffffff021916908373ffffffffffffffffffffffffffffffffffffffff1602179055507f48dbbd7d60f677e118fb64b916032cee07cb73a22bc2617f6ed4940434a2de59818585856040516200026c94939291906200095a565b60405180910390a150505050565b61429e80620009bd83390190565b6000604051905090565b600080fd5b600080fd5b6000819050919050565b620002b1816200029c565b8114620002bd57600080fd5b50565b600081359050620002d181620002a6565b92915050565b600060208284031215620002f057620002ef62000292565b5b60006200030084828501620002c0565b91505092915050565b600073ffffffffffffffffffffffffffffffffffffffff82169050919050565b6000620003368262000309565b9050919050565b620003488162000329565b82525050565b60006020820190506200036560008301846200033d565b92915050565b600081519050919050565b600082825260208201905092915050565b6000819050602082019050919050565b620003a28162000329565b82525050565b6000620003b6838362000397565b60208301905092915050565b6000602082019050919050565b6000620003dc826200036b565b620003e8818562000376565b9350620003f58362000387565b8060005b838110156200042c578151620004108882620003a8565b97506200041d83620003c2565b925050600181019050620003f9565b5085935050505092915050565b60006020820190508181036000830152620004558184620003cf565b905092915050565b600080fd5b6000601f19601f8301169050919050565b7f4e487b7100000000000000000000000000000000000000000000000000000000600052604160045260246000fd5b620004ad8262000462565b810181811067ffffffffffffffff82111715620004cf57620004ce62000473565b5b80604052505050565b6000620004e462000288565b9050620004f28282620004a2565b919050565b600067ffffffffffffffff82111562000515576200051462000473565b5b602082029050602081019050919050565b600080fd5b600080fd5b600067ffffffffffffffff8211156200054e576200054d62000473565b5b620005598262000462565b9050602081019050919050565b82818337600083830152505050565b60006200058c620005868462000530565b620004d8565b905082815260208101848484011115620005ab57620005aa6200052b565b5b620005b884828562000566565b509392505050565b600082601f830112620005d857620005d76200045d565b5b8135620005ea84826020860162000575565b91505092915050565b60006200060a6200060484620004f7565b620004d8565b9050808382526020820190506020840283018581111562000630576200062f62000526565b5b835b818110156200067e57803567ffffffffffffffff8111156200065957620006586200045d565b5b808601620006688982620005c0565b8552602085019450505060208101905062000632565b5050509392505050565b600082601f830112620006a0576200069f6200045d565b5b8135620006b2848260208601620005f3565b91505092915050565b600080600060608486031215620006d757620006d662000292565b5b600084013567ffffffffffffffff811115620006f857620006f762000297565b5b620007068682870162000688565b935050602084013567ffffffffffffffff8111156200072a576200072962000297565b5b6200073886828701620005c0565b925050604084013567ffffffffffffffff8111156200075c576200075b62000297565b5b6200076a86828701620005c0565b9150509250925092565b600081519050919050565b600082825260208201905092915050565b6000819050602082019050919050565b600081519050919050565b600082825260208201905092915050565b60005b83811015620007dc578082015181840152602081019050620007bf565b60008484015250505050565b6000620007f582620007a0565b620008018185620007ab565b935062000813818560208601620007bc565b6200081e8162000462565b840191505092915050565b6000620008378383620007e8565b905092915050565b6000602082019050919050565b6000620008598262000774565b6200086581856200077f565b935083602082028501620008798562000790565b8060005b85811015620008bb578484038952815162000899858262000829565b9450620008a6836200083f565b925060208a019950506001810190506200087d565b50829750879550505050505092915050565b600082825260208201905092915050565b6000620008eb82620007a0565b620008f78185620008cd565b935062000909818560208601620007bc565b620009148162000462565b840191505092915050565b600060408201905081810360008301526200093b81856200084c565b90508181036020830152620009518184620008de565b90509392505050565b60006080820190506200097160008301876200033d565b81810360208301526200098581866200084c565b905081810360408301526200099b8185620008de565b90508181036060830152620009b18184620008de565b90509594505050505056fe60806040523480156200001157600080fd5b506040516200429e3803806200429e833981810160405281019062000037919062000511565b6040518060400160405280600d81526020017f4d656d626572736869704e4654000000000000000000000000000000000000008152506040518060400160405280600381526020017f4d4e4600000000000000000000000000000000000000000000000000000000008152508160009081620000b49190620007e1565b508060019081620000c69190620007e1565b505050620000e9620000dd620001b460201b60201c565b620001bc60201b60201c565b80600c9081620000fa9190620007e1565b5060005b8251811015620001ab578281815181106200011e576200011d620008c8565b5b6020026020010151600960008381526020019081526020016000209081620001479190620007e1565b5081600a848381518110620001615762000160620008c8565b5b602002602001015160405162000178919062000939565b90815260200160405180910390209081620001949190620007e1565b508080620001a29062000981565b915050620000fe565b505050620009ce565b600033905090565b6000600760009054906101000a900473ffffffffffffffffffffffffffffffffffffffff16905081600760006101000a81548173ffffffffffffffffffffffffffffffffffffffff021916908373ffffffffffffffffffffffffffffffffffffffff1602179055508173ffffffffffffffffffffffffffffffffffffffff168173ffffffffffffffffffffffffffffffffffffffff167f8be0079c531659141344cd1fd0a4f28419497f9722a3daafe3b4186f6b6457e060405160405180910390a35050565b6000604051905090565b600080fd5b600080fd5b600080fd5b6000601f19601f8301169050919050565b7f4e487b7100000000000000000000000000000000000000000000000000000000600052604160045260246000fd5b620002e6826200029b565b810181811067ffffffffffffffff82111715620003085762000307620002ac565b5b80604052505050565b60006200031d62000282565b90506200032b8282620002db565b919050565b600067ffffffffffffffff8211156200034e576200034d620002ac565b5b602082029050602081019050919050565b600080fd5b600080fd5b600067ffffffffffffffff821115620003875762000386620002ac565b5b62000392826200029b565b9050602081019050919050565b60005b83811015620003bf578082015181840152602081019050620003a2565b60008484015250505050565b6000620003e2620003dc8462000369565b62000311565b90508281526020810184848401111562000401576200040062000364565b5b6200040e8482856200039f565b509392505050565b600082601f8301126200042e576200042d62000296565b5b815162000440848260208601620003cb565b91505092915050565b6000620004606200045a8462000330565b62000311565b905080838252602082019050602084028301858111156200048657620004856200035f565b5b835b81811015620004d457805167ffffffffffffffff811115620004af57620004ae62000296565b5b808601620004be898262000416565b8552602085019450505060208101905062000488565b5050509392505050565b600082601f830112620004f657620004f562000296565b5b81516200050884826020860162000449565b91505092915050565b600080604083850312156200052b576200052a6200028c565b5b600083015167ffffffffffffffff8111156200054c576200054b62000291565b5b6200055a85828601620004de565b925050602083015167ffffffffffffffff8111156200057e576200057d62000291565b5b6200058c8582860162000416565b9150509250929050565b600081519050919050565b7f4e487b7100000000000000000000000000000000000000000000000000000000600052602260045260246000fd5b60006002820490506001821680620005e957607f821691505b602082108103620005ff57620005fe620005a1565b5b50919050565b60008190508160005260206000209050919050565b60006020601f8301049050919050565b600082821b905092915050565b600060088302620006697fffffffffffffffffffffffffffffffffffffffffffffffffffffffffffffffff826200062a565b6200067586836200062a565b95508019841693508086168417925050509392505050565b6000819050919050565b6000819050919050565b6000620006c2620006bc620006b6846200068d565b62000697565b6200068d565b9050919050565b6000819050919050565b620006de83620006a1565b620006f6620006ed82620006c9565b84845462000637565b825550505050565b600090565b6200070d620006fe565b6200071a818484620006d3565b505050565b5b8181101562000742576200073660008262000703565b60018101905062000720565b5050565b601f82111562000791576200075b8162000605565b62000766846200061a565b8101602085101562000776578190505b6200078e62000785856200061a565b8301826200071f565b50505b505050565b600082821c905092915050565b6000620007b66000198460080262000796565b1980831691505092915050565b6000620007d18383620007a3565b9150826002028217905092915050565b620007ec8262000596565b67ffffffffffffffff811115620008085762000807620002ac565b5b620008148254620005d0565b6200082182828562000746565b600060209050601f83116001811462000859576000841562000844578287015190505b620008508582620007c3565b865550620008c0565b601f198416620008698662000605565b60005b8281101562000893578489015182556001820191506020850194506020810190506200086c565b86831015620008b35784890151620008af601f891682620007a3565b8355505b6001600288020188555050505b505050505050565b7f4e487b7100000000000000000000000000000000000000000000000000000000600052603260045260246000fd5b600081905092915050565b60006200090f8262000596565b6200091b8185620008f7565b93506200092d8185602086016200039f565b80840191505092915050565b600062000947828462000902565b915081905092915050565b7f4e487b7100000000000000000000000000000000000000000000000000000000600052601160045260246000fd5b60006200098e826200068d565b91507fffffffffffffffffffffffffffffffffffffffffffffffffffffffffffffffff8203620009c357620009c262000952565b5b600182019050919050565b6138c080620009de6000396000f3fe608060405234801561001057600080fd5b50600436106101585760003560e01c806377782188116100c3578063ad14f0f01161007c578063ad14f0f0146103d7578063b88d4fde146103f3578063c87b56dd1461040f578063e985e9c51461043f578063eacabe141461046f578063f2fde38b1461048b57610158565b8063777821881461030357806377bfe5fb146103335780638da5cb5b1461036357806395d89b4114610381578063a22cb4651461039f578063aa0d4f6c146103bb57610158565b80631574a675116101155780631574a6751461025757806323b872dd1461026157806342842e0e1461027d5780636352211e1461029957806370a08231146102c9578063715018a6146102f957610158565b806301ffc9a71461015d57806306fdde031461018d578063081812fc146101ab578063095ea7b3146101db578063099c6433146101f757806314388b4014610227575b600080fd5b6101776004803603810190610172919061231c565b6104a7565b6040516101849190612364565b60405180910390f35b610195610589565b6040516101a2919061240f565b60405180910390f35b6101c560048036038101906101c09190612467565b61061b565b6040516101d291906124d5565b60405180910390f35b6101f560048036038101906101f0919061251c565b610661565b005b610211600480360381019061020c919061255c565b610778565b60405161021e919061240f565b60405180910390f35b610241600480360381019061023c91906126be565b610818565b60405161024e919061240f565b60405180910390f35b61025f6108ce565b005b61027b60048036038101906102769190612707565b610a82565b005b61029760048036038101906102929190612707565b610ae2565b005b6102b360048036038101906102ae9190612467565b610b02565b6040516102c091906124d5565b60405180910390f35b6102e360048036038101906102de919061255c565b610bb3565b6040516102f09190612769565b60405180910390f35b610301610c6a565b005b61031d6004803603810190610318919061255c565b610c7e565b60405161032a919061240f565b60405180910390f35b61034d60048036038101906103489190612467565b610ddd565b60405161035a919061240f565b60405180910390f35b61036b610e7d565b60405161037891906124d5565b60405180910390f35b610389610ea7565b604051610396919061240f565b60405180910390f35b6103b960048036038101906103b491906127b0565b610f39565b005b6103d560048036038101906103d091906127f0565b610f4f565b005b6103f160048036038101906103ec9190612868565b610f87565b005b61040d60048036038101906104089190612965565b611086565b005b61042960048036038101906104249190612467565b6110e8565b604051610436919061240f565b60405180910390f35b610459600480360381019061045491906129e8565b6111fa565b6040516104669190612364565b60405180910390f35b61048960048036038101906104849190612868565b61128e565b005b6104a560048036038101906104a0919061255c565b61146b565b005b60007f80ac58cd000000000000000000000000000000000000000000000000000000007bffffffffffffffffffffffffffffffffffffffffffffffffffffffff1916827bffffffffffffffffffffffffffffffffffffffffffffffffffffffff1916148061057257507f5b5e139f000000000000000000000000000000000000000000000000000000007bffffffffffffffffffffffffffffffffffffffffffffffffffffffff1916827bffffffffffffffffffffffffffffffffffffffffffffffffffffffff1916145b806105825750610581826114ee565b5b9050919050565b60606000805461059890612a57565b80601f01602080910402602001604051908101604052809291908181526020018280546105c490612a57565b80156106115780601f106105e657610100808354040283529160200191610611565b820191906000526020600020905b8154815290600101906020018083116105f457829003601f168201915b5050505050905090565b600061062682611558565b6004600083815260200190815260200160002060009054906101000a900473ffffffffffffffffffffffffffffffffffffffff169050919050565b600061066c82610b02565b90508073ffffffffffffffffffffffffffffffffffffffff168373ffffffffffffffffffffffffffffffffffffffff16036106dc576040517f08c379a00000000000000000000000000000000000000000000000000000000081526004016106d390612afa565b60405180910390fd5b8073ffffffffffffffffffffffffffffffffffffffff166106fb6115a3565b73ffffffffffffffffffffffffffffffffffffffff16148061072a5750610729816107246115a3565b6111fa565b5b610769576040517f08c379a000000000000000000000000000000000000000000000000000000000815260040161076090612b8c565b60405180910390fd5b61077383836115ab565b505050565b600b602052806000526040600020600091509050805461079790612a57565b80601f01602080910402602001604051908101604052809291908181526020018280546107c390612a57565b80156108105780601f106107e557610100808354040283529160200191610810565b820191906000526020600020905b8154815290600101906020018083116107f357829003601f168201915b505050505081565b600a81805160208101820180518482526020830160208501208183528095505050505050600091509050805461084d90612a57565b80601f016020809104026020016040519081016040528092919081815260200182805461087990612a57565b80156108c65780601f1061089b576101008083540402835291602001916108c6565b820191906000526020600020905b8154815290600101906020018083116108a957829003601f168201915b505050505081565b6000600c80546108dd90612a57565b80601f016020809104026020016040519081016040528092919081815260200182805461090990612a57565b80156109565780601f1061092b57610100808354040283529160200191610956565b820191906000526020600020905b81548152906001019060200180831161093957829003601f168201915b5050505050905060006008600081548092919061097290612bdb565b9190505590506109823382611664565b61098c818361183d565b6040518060400160405280600781526020017f44656661756c7400000000000000000000000000000000000000000000000000815250600b60003373ffffffffffffffffffffffffffffffffffffffff1673ffffffffffffffffffffffffffffffffffffffff1681526020019081526020016000209081610a0d9190612dcf565b507f975a81b8ac0dbf1299701d398adc5c3bfa50b7efdb26ae977afbf7ad9d2d6485336040518060400160405280600781526020017f44656661756c740000000000000000000000000000000000000000000000000081525084604051610a7693929190612ea1565b60405180910390a15050565b610a93610a8d6115a3565b826118aa565b610ad2576040517f08c379a0000000000000000000000000000000000000000000000000000000008152600401610ac990612f58565b60405180910390fd5b610add83838361193f565b505050565b610afd83838360405180602001604052806000815250611086565b505050565b6000806002600084815260200190815260200160002060009054906101000a900473ffffffffffffffffffffffffffffffffffffffff169050600073ffffffffffffffffffffffffffffffffffffffff168173ffffffffffffffffffffffffffffffffffffffff1603610baa576040517f08c379a0000000000000000000000000000000000000000000000000000000008152600401610ba190612fc4565b60405180910390fd5b80915050919050565b60008073ffffffffffffffffffffffffffffffffffffffff168273ffffffffffffffffffffffffffffffffffffffff1603610c23576040517f08c379a0000000000000000000000000000000000000000000000000000000008152600401610c1a90613056565b60405180910390fd5b600360008373ffffffffffffffffffffffffffffffffffffffff1673ffffffffffffffffffffffffffffffffffffffff168152602001908152602001600020549050919050565b610c72611ba5565b610c7c6000611c23565b565b60606000600b60008473ffffffffffffffffffffffffffffffffffffffff1673ffffffffffffffffffffffffffffffffffffffff1681526020019081526020016000208054610ccc90612a57565b905011610d0e576040517f08c379a0000000000000000000000000000000000000000000000000000000008152600401610d05906130c2565b60405180910390fd5b600b60008373ffffffffffffffffffffffffffffffffffffffff1673ffffffffffffffffffffffffffffffffffffffff1681526020019081526020016000208054610d5890612a57565b80601f0160208091040260200160405190810160405280929190818152602001828054610d8490612a57565b8015610dd15780601f10610da657610100808354040283529160200191610dd1565b820191906000526020600020905b815481529060010190602001808311610db457829003601f168201915b50505050509050919050565b60096020528060005260406000206000915090508054610dfc90612a57565b80601f0160208091040260200160405190810160405280929190818152602001828054610e2890612a57565b8015610e755780601f10610e4a57610100808354040283529160200191610e75565b820191906000526020600020905b815481529060010190602001808311610e5857829003601f168201915b505050505081565b6000600760009054906101000a900473ffffffffffffffffffffffffffffffffffffffff16905090565b606060018054610eb690612a57565b80601f0160208091040260200160405190810160405280929190818152602001828054610ee290612a57565b8015610f2f5780601f10610f0457610100808354040283529160200191610f2f565b820191906000526020600020905b815481529060010190602001808311610f1257829003601f168201915b5050505050905090565b610f4b610f446115a3565b8383611ce9565b5050565b610f57611ba5565b80600a83604051610f68919061311e565b90815260200160405180910390209081610f829190612dcf565b505050565b610f8f611ba5565b6000600a82604051610fa1919061311e565b90815260200160405180910390208054610fba90612a57565b905011610ffc576040517f08c379a0000000000000000000000000000000000000000000000000000000008152600401610ff390613181565b60405180910390fd5b80600b60008473ffffffffffffffffffffffffffffffffffffffff1673ffffffffffffffffffffffffffffffffffffffff16815260200190815260200160002090816110489190612dcf565b507f09a1095331c1561d1cb7707e5a6132970399f28ffa804f7b0186d4c8d38b7d3b828260405161107a9291906131a1565b60405180910390a15050565b6110976110916115a3565b836118aa565b6110d6576040517f08c379a00000000000000000000000000000000000000000000000000000000081526004016110cd90612f58565b60405180910390fd5b6110e284848484611e55565b50505050565b60606110f382611558565b600060066000848152602001908152602001600020805461111390612a57565b80601f016020809104026020016040519081016040528092919081815260200182805461113f90612a57565b801561118c5780601f106111615761010080835404028352916020019161118c565b820191906000526020600020905b81548152906001019060200180831161116f57829003601f168201915b50505050509050600061119d611eb1565b905060008151036111b25781925050506111f5565b6000825111156111e75780826040516020016111cf9291906131d1565b604051602081830303815290604052925050506111f5565b6111f084611ec8565b925050505b919050565b6000600560008473ffffffffffffffffffffffffffffffffffffffff1673ffffffffffffffffffffffffffffffffffffffff16815260200190815260200160002060008373ffffffffffffffffffffffffffffffffffffffff1673ffffffffffffffffffffffffffffffffffffffff16815260200190815260200160002060009054906101000a900460ff16905092915050565b611296611ba5565b6000600a826040516112a8919061311e565b908152602001604051809103902080546112c190612a57565b905011611303576040517f08c379a00000000000000000000000000000000000000000000000000000000081526004016112fa90613181565b60405180910390fd5b6000600a82604051611315919061311e565b9081526020016040518091039020805461132e90612a57565b80601f016020809104026020016040519081016040528092919081815260200182805461135a90612a57565b80156113a75780601f1061137c576101008083540402835291602001916113a7565b820191906000526020600020905b81548152906001019060200180831161138a57829003601f168201915b505050505090506000600860008154809291906113c390612bdb565b9190505590506113d38482611664565b6113dd818361183d565b82600b60008673ffffffffffffffffffffffffffffffffffffffff1673ffffffffffffffffffffffffffffffffffffffff16815260200190815260200160002090816114299190612dcf565b507f975a81b8ac0dbf1299701d398adc5c3bfa50b7efdb26ae977afbf7ad9d2d648584848460405161145d93929190612ea1565b60405180910390a150505050565b611473611ba5565b600073ffffffffffffffffffffffffffffffffffffffff168173ffffffffffffffffffffffffffffffffffffffff16036114e2576040517f08c379a00000000000000000000000000000000000000000000000000000000081526004016114d990613267565b60405180910390fd5b6114eb81611c23565b50565b60007f01ffc9a7000000000000000000000000000000000000000000000000000000007bffffffffffffffffffffffffffffffffffffffffffffffffffffffff1916827bffffffffffffffffffffffffffffffffffffffffffffffffffffffff1916149050919050565b61156181611f30565b6115a0576040517f08c379a000000000000000000000000000000000000000000000000000000000815260040161159790612fc4565b60405180910390fd5b50565b600033905090565b816004600083815260200190815260200160002060006101000a81548173ffffffffffffffffffffffffffffffffffffffff021916908373ffffffffffffffffffffffffffffffffffffffff160217905550808273ffffffffffffffffffffffffffffffffffffffff1661161e83610b02565b73ffffffffffffffffffffffffffffffffffffffff167f8c5be1e5ebec7d5bd14f71427d1e84f3dd0314c0f7b2291e5b200ac8c7c3b92560405160405180910390a45050565b600073ffffffffffffffffffffffffffffffffffffffff168273ffffffffffffffffffffffffffffffffffffffff16036116d3576040517f08c379a00000000000000000000000000000000000000000000000000000000081526004016116ca906132d3565b60405180910390fd5b6116dc81611f30565b1561171c576040517f08c379a00000000000000000000000000000000000000000000000000000000081526004016117139061333f565b60405180910390fd5b61172860008383611f9c565b6001600360008473ffffffffffffffffffffffffffffffffffffffff1673ffffffffffffffffffffffffffffffffffffffff1681526020019081526020016000206000828254611778919061335f565b92505081905550816002600083815260200190815260200160002060006101000a81548173ffffffffffffffffffffffffffffffffffffffff021916908373ffffffffffffffffffffffffffffffffffffffff160217905550808273ffffffffffffffffffffffffffffffffffffffff16600073ffffffffffffffffffffffffffffffffffffffff167fddf252ad1be2c89b69c2b068fc378daa952ba7f163c4a11628f55a4df523b3ef60405160405180910390a461183960008383611fa1565b5050565b61184682611f30565b611885576040517f08c379a000000000000000000000000000000000000000000000000000000000815260040161187c90613405565b60405180910390fd5b806006600084815260200190815260200160002090816118a59190612dcf565b505050565b6000806118b683610b02565b90508073ffffffffffffffffffffffffffffffffffffffff168473ffffffffffffffffffffffffffffffffffffffff1614806118f857506118f781856111fa565b5b8061193657508373ffffffffffffffffffffffffffffffffffffffff1661191e8461061b565b73ffffffffffffffffffffffffffffffffffffffff16145b91505092915050565b8273ffffffffffffffffffffffffffffffffffffffff1661195f82610b02565b73ffffffffffffffffffffffffffffffffffffffff16146119b5576040517f08c379a00000000000000000000000000000000000000000000000000000000081526004016119ac90613497565b60405180910390fd5b600073ffffffffffffffffffffffffffffffffffffffff168273ffffffffffffffffffffffffffffffffffffffff1603611a24576040517f08c379a0000000000000000000000000000000000000000000000000000000008152600401611a1b90613529565b60405180910390fd5b611a2f838383611f9c565b611a3a6000826115ab565b6001600360008573ffffffffffffffffffffffffffffffffffffffff1673ffffffffffffffffffffffffffffffffffffffff1681526020019081526020016000206000828254611a8a9190613549565b925050819055506001600360008473ffffffffffffffffffffffffffffffffffffffff1673ffffffffffffffffffffffffffffffffffffffff1681526020019081526020016000206000828254611ae1919061335f565b92505081905550816002600083815260200190815260200160002060006101000a81548173ffffffffffffffffffffffffffffffffffffffff021916908373ffffffffffffffffffffffffffffffffffffffff160217905550808273ffffffffffffffffffffffffffffffffffffffff168473ffffffffffffffffffffffffffffffffffffffff167fddf252ad1be2c89b69c2b068fc378daa952ba7f163c4a11628f55a4df523b3ef60405160405180910390a4611ba0838383611fa1565b505050565b611bad6115a3565b73ffffffffffffffffffffffffffffffffffffffff16611bcb610e7d565b73ffffffffffffffffffffffffffffffffffffffff1614611c21576040517f08c379a0000000000000000000000000000000000000000000000000000000008152600401611c18906135c9565b60405180910390fd5b565b6000600760009054906101000a900473ffffffffffffffffffffffffffffffffffffffff16905081600760006101000a81548173ffffffffffffffffffffffffffffffffffffffff021916908373ffffffffffffffffffffffffffffffffffffffff1602179055508173ffffffffffffffffffffffffffffffffffffffff168173ffffffffffffffffffffffffffffffffffffffff167f8be0079c531659141344cd1fd0a4f28419497f9722a3daafe3b4186f6b6457e060405160405180910390a35050565b8173ffffffffffffffffffffffffffffffffffffffff168373ffffffffffffffffffffffffffffffffffffffff1603611d57576040517f08c379a0000000000000000000000000000000000000000000000000000000008152600401611d4e90613635565b60405180910390fd5b80600560008573ffffffffffffffffffffffffffffffffffffffff1673ffffffffffffffffffffffffffffffffffffffff16815260200190815260200160002060008473ffffffffffffffffffffffffffffffffffffffff1673ffffffffffffffffffffffffffffffffffffffff16815260200190815260200160002060006101000a81548160ff0219169083151502179055508173ffffffffffffffffffffffffffffffffffffffff168373ffffffffffffffffffffffffffffffffffffffff167f17307eab39ab6107e8899845ad3d59bd9653f200f220920489ca2b5937696c3183604051611e489190612364565b60405180910390a3505050565b611e6084848461193f565b611e6c84848484611fa6565b611eab576040517f08c379a0000000000000000000000000000000000000000000000000000000008152600401611ea2906136c7565b60405180910390fd5b50505050565b606060405180602001604052806000815250905090565b6060611ed382611558565b6000611edd611eb1565b90506000815111611efd5760405180602001604052806000815250611f28565b80611f078461212d565b604051602001611f189291906131d1565b6040516020818303038152906040525b915050919050565b60008073ffffffffffffffffffffffffffffffffffffffff166002600084815260200190815260200160002060009054906101000a900473ffffffffffffffffffffffffffffffffffffffff1673ffffffffffffffffffffffffffffffffffffffff1614159050919050565b505050565b505050565b6000611fc78473ffffffffffffffffffffffffffffffffffffffff1661228d565b15612120578373ffffffffffffffffffffffffffffffffffffffff1663150b7a02611ff06115a3565b8786866040518563ffffffff1660e01b8152600401612012949392919061373c565b6020604051808303816000875af192505050801561204e57506040513d601f19601f8201168201806040525081019061204b919061379d565b60015b6120d0573d806000811461207e576040519150601f19603f3d011682016040523d82523d6000602084013e612083565b606091505b5060008151036120c8576040517f08c379a00000000000000000000000000000000000000000000000000000000081526004016120bf906136c7565b60405180910390fd5b805181602001fd5b63150b7a0260e01b7bffffffffffffffffffffffffffffffffffffffffffffffffffffffff1916817bffffffffffffffffffffffffffffffffffffffffffffffffffffffff191614915050612125565b600190505b949350505050565b606060008203612174576040518060400160405280600181526020017f30000000000000000000000000000000000000000000000000000000000000008152509050612288565b600082905060005b600082146121a657808061218f90612bdb565b915050600a8261219f91906137f9565b915061217c565b60008167ffffffffffffffff8111156121c2576121c1612593565b5b6040519080825280601f01601f1916602001820160405280156121f45781602001600182028036833780820191505090505b5090505b600085146122815760018261220d9190613549565b9150600a8561221c919061382a565b6030612228919061335f565b60f81b81838151811061223e5761223d61385b565b5b60200101907effffffffffffffffffffffffffffffffffffffffffffffffffffffffffffff1916908160001a905350600a8561227a91906137f9565b94506121f8565b8093505050505b919050565b6000808273ffffffffffffffffffffffffffffffffffffffff163b119050919050565b6000604051905090565b600080fd5b600080fd5b60007fffffffff0000000000000000000000000000000000000000000000000000000082169050919050565b6122f9816122c4565b811461230457600080fd5b50565b600081359050612316816122f0565b92915050565b600060208284031215612332576123316122ba565b5b600061234084828501612307565b91505092915050565b60008115159050919050565b61235e81612349565b82525050565b60006020820190506123796000830184612355565b92915050565b600081519050919050565b600082825260208201905092915050565b60005b838110156123b957808201518184015260208101905061239e565b60008484015250505050565b6000601f19601f8301169050919050565b60006123e18261237f565b6123eb818561238a565b93506123fb81856020860161239b565b612404816123c5565b840191505092915050565b6000602082019050818103600083015261242981846123d6565b905092915050565b6000819050919050565b61244481612431565b811461244f57600080fd5b50565b6000813590506124618161243b565b92915050565b60006020828403121561247d5761247c6122ba565b5b600061248b84828501612452565b91505092915050565b600073ffffffffffffffffffffffffffffffffffffffff82169050919050565b60006124bf82612494565b9050919050565b6124cf816124b4565b82525050565b60006020820190506124ea60008301846124c6565b92915050565b6124f9816124b4565b811461250457600080fd5b50565b600081359050612516816124f0565b92915050565b60008060408385031215612533576125326122ba565b5b600061254185828601612507565b925050602061255285828601612452565b9150509250929050565b600060208284031215612572576125716122ba565b5b600061258084828501612507565b91505092915050565b600080fd5b600080fd5b7f4e487b7100000000000000000000000000000000000000000000000000000000600052604160045260246000fd5b6125cb826123c5565b810181811067ffffffffffffffff821117156125ea576125e9612593565b5b80604052505050565b60006125fd6122b0565b905061260982826125c2565b919050565b600067ffffffffffffffff82111561262957612628612593565b5b612632826123c5565b9050602081019050919050565b82818337600083830152505050565b600061266161265c8461260e565b6125f3565b90508281526020810184848401111561267d5761267c61258e565b5b61268884828561263f565b509392505050565b600082601f8301126126a5576126a4612589565b5b81356126b584826020860161264e565b91505092915050565b6000602082840312156126d4576126d36122ba565b5b600082013567ffffffffffffffff8111156126f2576126f16122bf565b5b6126fe84828501612690565b91505092915050565b6000806000606084860312156127205761271f6122ba565b5b600061272e86828701612507565b935050602061273f86828701612507565b925050604061275086828701612452565b9150509250925092565b61276381612431565b82525050565b600060208201905061277e600083018461275a565b92915050565b61278d81612349565b811461279857600080fd5b50565b6000813590506127aa81612784565b92915050565b600080604083850312156127c7576127c66122ba565b5b60006127d585828601612507565b92505060206127e68582860161279b565b9150509250929050565b60008060408385031215612807576128066122ba565b5b600083013567ffffffffffffffff811115612825576128246122bf565b5b61283185828601612690565b925050602083013567ffffffffffffffff811115612852576128516122bf565b5b61285e85828601612690565b9150509250929050565b6000806040838503121561287f5761287e6122ba565b5b600061288d85828601612507565b925050602083013567ffffffffffffffff8111156128ae576128ad6122bf565b5b6128ba85828601612690565b9150509250929050565b600067ffffffffffffffff8211156128df576128de612593565b5b6128e8826123c5565b9050602081019050919050565b6000612908612903846128c4565b6125f3565b9050828152602081018484840111156129245761292361258e565b5b61292f84828561263f565b509392505050565b600082601f83011261294c5761294b612589565b5b813561295c8482602086016128f5565b91505092915050565b6000806000806080858703121561297f5761297e6122ba565b5b600061298d87828801612507565b945050602061299e87828801612507565b93505060406129af87828801612452565b925050606085013567ffffffffffffffff8111156129d0576129cf6122bf565b5b6129dc87828801612937565b91505092959194509250565b600080604083850312156129ff576129fe6122ba565b5b6000612a0d85828601612507565b9250506020612a1e85828601612507565b9150509250929050565b7f4e487b7100000000000000000000000000000000000000000000000000000000600052602260045260246000fd5b60006002820490506001821680612a6f57607f821691505b602082108103612a8257612a81612a28565b5b50919050565b7f4552433732313a20617070726f76616c20746f2063757272656e74206f776e6560008201527f7200000000000000000000000000000000000000000000000000000000000000602082015250565b6000612ae460218361238a565b9150612aef82612a88565b604082019050919050565b60006020820190508181036000830152612b1381612ad7565b9050919050565b7f4552433732313a20617070726f76652063616c6c6572206973206e6f7420746f60008201527f6b656e206f776e6572206e6f7220617070726f76656420666f7220616c6c0000602082015250565b6000612b76603e8361238a565b9150612b8182612b1a565b604082019050919050565b60006020820190508181036000830152612ba581612b69565b9050919050565b7f4e487b7100000000000000000000000000000000000000000000000000000000600052601160045260246000fd5b6000612be682612431565b91507fffffffffffffffffffffffffffffffffffffffffffffffffffffffffffffffff8203612c1857612c17612bac565b5b600182019050919050565b60008190508160005260206000209050919050565b60006020601f8301049050919050565b600082821b905092915050565b600060088302612c857fffffffffffffffffffffffffffffffffffffffffffffffffffffffffffffffff82612c48565b612c8f8683612c48565b95508019841693508086168417925050509392505050565b6000819050919050565b6000612ccc612cc7612cc284612431565b612ca7565b612431565b9050919050565b6000819050919050565b612ce683612cb1565b612cfa612cf282612cd3565b848454612c55565b825550505050565b600090565b612d0f612d02565b612d1a818484612cdd565b505050565b5b81811015612d3e57612d33600082612d07565b600181019050612d20565b5050565b601f821115612d8357612d5481612c23565b612d5d84612c38565b81016020851015612d6c578190505b612d80612d7885612c38565b830182612d1f565b50505b505050565b600082821c905092915050565b6000612da660001984600802612d88565b1980831691505092915050565b6000612dbf8383612d95565b9150826002028217905092915050565b612dd88261237f565b67ffffffffffffffff811115612df157612df0612593565b5b612dfb8254612a57565b612e06828285612d42565b600060209050601f831160018114612e395760008415612e27578287015190505b612e318582612db3565b865550612e99565b601f198416612e4786612c23565b60005b82811015612e6f57848901518255600182019150602085019450602081019050612e4a565b86831015612e8c5784890151612e88601f891682612d95565b8355505b6001600288020188555050505b505050505050565b6000606082019050612eb660008301866124c6565b8181036020830152612ec881856123d6565b90508181036040830152612edc81846123d6565b9050949350505050565b7f4552433732313a2063616c6c6572206973206e6f7420746f6b656e206f776e6560008201527f72206e6f7220617070726f766564000000000000000000000000000000000000602082015250565b6000612f42602e8361238a565b9150612f4d82612ee6565b604082019050919050565b60006020820190508181036000830152612f7181612f35565b9050919050565b7f4552433732313a20696e76616c696420746f6b656e2049440000000000000000600082015250565b6000612fae60188361238a565b9150612fb982612f78565b602082019050919050565b60006020820190508181036000830152612fdd81612fa1565b9050919050565b7f4552433732313a2061646472657373207a65726f206973206e6f74206120766160008201527f6c6964206f776e65720000000000000000000000000000000000000000000000602082015250565b600061304060298361238a565b915061304b82612fe4565b604082019050919050565b6000602082019050818103600083015261306f81613033565b9050919050565b7f4e6f206d656d626572207479706520666f756e6420666f7220757365722e0000600082015250565b60006130ac601e8361238a565b91506130b782613076565b602082019050919050565b600060208201905081810360008301526130db8161309f565b9050919050565b600081905092915050565b60006130f88261237f565b61310281856130e2565b935061311281856020860161239b565b80840191505092915050565b600061312a82846130ed565b915081905092915050565b7f496d61676520666f72206d656d6265722074797065206e6f7420736574000000600082015250565b600061316b601d8361238a565b915061317682613135565b602082019050919050565b6000602082019050818103600083015261319a8161315e565b9050919050565b60006040820190506131b660008301856124c6565b81810360208301526131c881846123d6565b90509392505050565b60006131dd82856130ed565b91506131e982846130ed565b91508190509392505050565b7f4f776e61626c653a206e6577206f776e657220697320746865207a65726f206160008201527f6464726573730000000000000000000000000000000000000000000000000000602082015250565b600061325160268361238a565b915061325c826131f5565b604082019050919050565b6000602082019050818103600083015261328081613244565b9050919050565b7f4552433732313a206d696e7420746f20746865207a65726f2061646472657373600082015250565b60006132bd60208361238a565b91506132c882613287565b602082019050919050565b600060208201905081810360008301526132ec816132b0565b9050919050565b7f4552433732313a20746f6b656e20616c7265616479206d696e74656400000000600082015250565b6000613329601c8361238a565b9150613334826132f3565b602082019050919050565b600060208201905081810360008301526133588161331c565b9050919050565b600061336a82612431565b915061337583612431565b925082820190508082111561338d5761338c612bac565b5b92915050565b7f45524337323155524953746f726167653a2055524920736574206f66206e6f6e60008201527f6578697374656e7420746f6b656e000000000000000000000000000000000000602082015250565b60006133ef602e8361238a565b91506133fa82613393565b604082019050919050565b6000602082019050818103600083015261341e816133e2565b9050919050565b7f4552433732313a207472616e736665722066726f6d20696e636f72726563742060008201527f6f776e6572000000000000000000000000000000000000000000000000000000602082015250565b600061348160258361238a565b915061348c82613425565b604082019050919050565b600060208201905081810360008301526134b081613474565b9050919050565b7f4552433732313a207472616e7366657220746f20746865207a65726f2061646460008201527f7265737300000000000000000000000000000000000000000000000000000000602082015250565b600061351360248361238a565b915061351e826134b7565b604082019050919050565b6000602082019050818103600083015261354281613506565b9050919050565b600061355482612431565b915061355f83612431565b925082820390508181111561357757613576612bac565b5b92915050565b7f4f776e61626c653a2063616c6c6572206973206e6f7420746865206f776e6572600082015250565b60006135b360208361238a565b91506135be8261357d565b602082019050919050565b600060208201905081810360008301526135e2816135a6565b9050919050565b7f4552433732313a20617070726f766520746f2063616c6c657200000000000000600082015250565b600061361f60198361238a565b915061362a826135e9565b602082019050919050565b6000602082019050818103600083015261364e81613612565b9050919050565b7f4552433732313a207472616e7366657220746f206e6f6e20455243373231526560008201527f63656976657220696d706c656d656e7465720000000000000000000000000000602082015250565b60006136b160328361238a565b91506136bc82613655565b604082019050919050565b600060208201905081810360008301526136e0816136a4565b9050919050565b600081519050919050565b600082825260208201905092915050565b600061370e826136e7565b61371881856136f2565b935061372881856020860161239b565b613731816123c5565b840191505092915050565b600060808201905061375160008301876124c6565b61375e60208301866124c6565b61376b604083018561275a565b818103606083015261377d8184613703565b905095945050505050565b600081519050613797816122f0565b92915050565b6000602082840312156137b3576137b26122ba565b5b60006137c184828501613788565b91505092915050565b7f4e487b7100000000000000000000000000000000000000000000000000000000600052601260045260246000fd5b600061380482612431565b915061380f83612431565b92508261381f5761381e6137ca565b5b828204905092915050565b600061383582612431565b915061384083612431565b9250826138505761384f6137ca565b5b828206905092915050565b7f4e487b7100000000000000000000000000000000000000000000000000000000600052603260045260246000fdfea2646970667358221220f0e03fabda8d54d5b7a9f03dcf1b1b197858210831c63ec3fd0b089d9ec33e0764736f6c63430008140033a26469706673582212208a1e539f1820dfbe62433b1cb348b60d4544a3b5d52c537b18ad15dad29fdc0d64736f6c63430008140033",
  "linkReferences": {},
  "deployedLinkReferences": {}
}