{
  "_format": "hh-sol-artifact-1",
  "contractName": "NFTMembershipFactory",
  "sourceName": "contracts/MembershipNFTFactory.sol",
  "abi": [
    {
      "anonymous": false,
      "inputs": [
        {
          "indexed": false,
          "internalType": "address",
          "name": "contractAddress",
          "type": "address"
        },
        {
          "indexed": false,
          "internalType": "string[]",
          "name": "memberTypeNames",
          "type": "string[]"
        },
        {
          "indexed": false,
          "internalType": "string[]",
          "name": "executiveRoleNames",
          "type": "string[]"
        },
        {
          "indexed": false,
          "internalType": "string",
          "name": "defaultImageURL",
          "type": "string"
        },
        {
          "indexed": false,
          "internalType": "string",
          "name": "POname",
          "type": "string"
        }
      ],
      "name": "ContractCreated",
      "type": "event"
    },
    {
      "inputs": [
        {
          "internalType": "string[]",
          "name": "memberTypeNames",
          "type": "string[]"
        },
        {
          "internalType": "string[]",
          "name": "_executiveRoleNames",
          "type": "string[]"
        },
        {
          "internalType": "string",
          "name": "_defaultImageURL",
          "type": "string"
        },
        {
          "internalType": "string",
          "name": "POname",
          "type": "string"
        }
      ],
      "name": "createNFTMembership",
      "outputs": [],
      "stateMutability": "nonpayable",
      "type": "function"
    },
    {
      "inputs": [
        {
          "internalType": "uint256",
          "name": "",
          "type": "uint256"
        }
      ],
      "name": "deployedContracts",
      "outputs": [
        {
          "internalType": "address",
          "name": "",
          "type": "address"
        }
      ],
      "stateMutability": "view",
      "type": "function"
    },
    {
      "inputs": [],
      "name": "getDeployedContracts",
      "outputs": [
        {
          "internalType": "address[]",
          "name": "",
          "type": "address[]"
        }
      ],
      "stateMutability": "view",
      "type": "function"
    }
  ],
  "bytecode": "0x608060405234801561001057600080fd5b50615272806100206000396000f3fe60806040523480156200001157600080fd5b5060043610620000465760003560e01c80639ad1ee10146200004b578063aa9a068f1462000081578063ccf4579b14620000a3575b600080fd5b620000696004803603810190620000639190620002dc565b620000c3565b60405162000078919062000353565b60405180910390f35b6200008b62000103565b6040516200009a91906200043e565b60405180910390f35b620000c16004803603810190620000bb9190620006c0565b62000193565b005b60008181548110620000d457600080fd5b906000526020600020016000915054906101000a900473ffffffffffffffffffffffffffffffffffffffff1681565b606060008054806020026020016040519081016040528092919081815260200182805480156200018957602002820191906000526020600020905b8160009054906101000a900473ffffffffffffffffffffffffffffffffffffffff1673ffffffffffffffffffffffffffffffffffffffff16815260200190600101908083116200013e575b5050505050905090565b6000848484604051620001a6906200027f565b620001b49392919062000959565b604051809103906000f080158015620001d1573d6000803e3d6000fd5b5090506000819080600181540180825580915050600190039060005260206000200160009091909190916101000a81548173ffffffffffffffffffffffffffffffffffffffff021916908373ffffffffffffffffffffffffffffffffffffffff1602179055507fefa54c7f8503d9e1973bd6b06335f3029806d6a942402f66aa5a12ae758c722a818686868660405162000270959493929190620009ab565b60405180910390a15050505050565b6148188062000a2583390190565b6000604051905090565b600080fd5b600080fd5b6000819050919050565b620002b681620002a1565b8114620002c257600080fd5b50565b600081359050620002d681620002ab565b92915050565b600060208284031215620002f557620002f462000297565b5b60006200030584828501620002c5565b91505092915050565b600073ffffffffffffffffffffffffffffffffffffffff82169050919050565b60006200033b826200030e565b9050919050565b6200034d816200032e565b82525050565b60006020820190506200036a600083018462000342565b92915050565b600081519050919050565b600082825260208201905092915050565b6000819050602082019050919050565b620003a7816200032e565b82525050565b6000620003bb83836200039c565b60208301905092915050565b6000602082019050919050565b6000620003e18262000370565b620003ed81856200037b565b9350620003fa836200038c565b8060005b8381101562000431578151620004158882620003ad565b97506200042283620003c7565b925050600181019050620003fe565b5085935050505092915050565b600060208201905081810360008301526200045a8184620003d4565b905092915050565b600080fd5b6000601f19601f8301169050919050565b7f4e487b7100000000000000000000000000000000000000000000000000000000600052604160045260246000fd5b620004b28262000467565b810181811067ffffffffffffffff82111715620004d457620004d362000478565b5b80604052505050565b6000620004e96200028d565b9050620004f78282620004a7565b919050565b600067ffffffffffffffff8211156200051a576200051962000478565b5b602082029050602081019050919050565b600080fd5b600080fd5b600067ffffffffffffffff82111562000553576200055262000478565b5b6200055e8262000467565b9050602081019050919050565b82818337600083830152505050565b6000620005916200058b8462000535565b620004dd565b905082815260208101848484011115620005b057620005af62000530565b5b620005bd8482856200056b565b509392505050565b600082601f830112620005dd57620005dc62000462565b5b8135620005ef8482602086016200057a565b91505092915050565b60006200060f6200060984620004fc565b620004dd565b905080838252602082019050602084028301858111156200063557620006346200052b565b5b835b818110156200068357803567ffffffffffffffff8111156200065e576200065d62000462565b5b8086016200066d8982620005c5565b8552602085019450505060208101905062000637565b5050509392505050565b600082601f830112620006a557620006a462000462565b5b8135620006b7848260208601620005f8565b91505092915050565b60008060008060808587031215620006dd57620006dc62000297565b5b600085013567ffffffffffffffff811115620006fe57620006fd6200029c565b5b6200070c878288016200068d565b945050602085013567ffffffffffffffff81111562000730576200072f6200029c565b5b6200073e878288016200068d565b935050604085013567ffffffffffffffff8111156200076257620007616200029c565b5b6200077087828801620005c5565b925050606085013567ffffffffffffffff8111156200079457620007936200029c565b5b620007a287828801620005c5565b91505092959194509250565b600081519050919050565b600082825260208201905092915050565b6000819050602082019050919050565b600081519050919050565b600082825260208201905092915050565b60005b8381101562000816578082015181840152602081019050620007f9565b60008484015250505050565b60006200082f82620007da565b6200083b8185620007e5565b93506200084d818560208601620007f6565b620008588162000467565b840191505092915050565b600062000871838362000822565b905092915050565b6000602082019050919050565b60006200089382620007ae565b6200089f8185620007b9565b935083602082028501620008b385620007ca565b8060005b85811015620008f55784840389528151620008d3858262000863565b9450620008e08362000879565b925060208a01995050600181019050620008b7565b50829750879550505050505092915050565b600082825260208201905092915050565b60006200092582620007da565b62000931818562000907565b935062000943818560208601620007f6565b6200094e8162000467565b840191505092915050565b6000606082019050818103600083015262000975818662000886565b905081810360208301526200098b818562000886565b90508181036040830152620009a1818462000918565b9050949350505050565b600060a082019050620009c2600083018862000342565b8181036020830152620009d6818762000886565b90508181036040830152620009ec818662000886565b9050818103606083015262000a02818562000918565b9050818103608083015262000a18818462000918565b9050969550505050505056fe60806040526001600f60006101000a81548160ff0219169083151502179055503480156200002c57600080fd5b5060405162004818380380620048188339818101604052810190620000529190620005a7565b6040518060400160405280600d81526020017f4d656d626572736869704e4654000000000000000000000000000000000000008152506040518060400160405280600381526020017f4d4e4600000000000000000000000000000000000000000000000000000000008152508160009081620000cf9190620008ab565b508060019081620000e19190620008ab565b50505062000104620000f86200024a60201b60201c565b6200025260201b60201c565b80600e9081620001159190620008ab565b5060005b8351811015620001c65783818151811062000139576200013862000992565b5b6020026020010151600960008381526020019081526020016000209081620001629190620008ab565b5081600a8583815181106200017c576200017b62000992565b5b602002602001015160405162000193919062000a03565b90815260200160405180910390209081620001af9190620008ab565b508080620001bd9062000a4b565b91505062000119565b5060005b825181101562000240576001600d848381518110620001ee57620001ed62000992565b5b602002602001015160405162000205919062000a03565b908152602001604051809103902060006101000a81548160ff0219169083151502179055508080620002379062000a4b565b915050620001ca565b5050505062000a98565b600033905090565b6000600760009054906101000a900473ffffffffffffffffffffffffffffffffffffffff16905081600760006101000a81548173ffffffffffffffffffffffffffffffffffffffff021916908373ffffffffffffffffffffffffffffffffffffffff1602179055508173ffffffffffffffffffffffffffffffffffffffff168173ffffffffffffffffffffffffffffffffffffffff167f8be0079c531659141344cd1fd0a4f28419497f9722a3daafe3b4186f6b6457e060405160405180910390a35050565b6000604051905090565b600080fd5b600080fd5b600080fd5b6000601f19601f8301169050919050565b7f4e487b7100000000000000000000000000000000000000000000000000000000600052604160045260246000fd5b6200037c8262000331565b810181811067ffffffffffffffff821117156200039e576200039d62000342565b5b80604052505050565b6000620003b362000318565b9050620003c1828262000371565b919050565b600067ffffffffffffffff821115620003e457620003e362000342565b5b602082029050602081019050919050565b600080fd5b600080fd5b600067ffffffffffffffff8211156200041d576200041c62000342565b5b620004288262000331565b9050602081019050919050565b60005b838110156200045557808201518184015260208101905062000438565b60008484015250505050565b6000620004786200047284620003ff565b620003a7565b905082815260208101848484011115620004975762000496620003fa565b5b620004a484828562000435565b509392505050565b600082601f830112620004c457620004c36200032c565b5b8151620004d684826020860162000461565b91505092915050565b6000620004f6620004f084620003c6565b620003a7565b905080838252602082019050602084028301858111156200051c576200051b620003f5565b5b835b818110156200056a57805167ffffffffffffffff8111156200054557620005446200032c565b5b808601620005548982620004ac565b855260208501945050506020810190506200051e565b5050509392505050565b600082601f8301126200058c576200058b6200032c565b5b81516200059e848260208601620004df565b91505092915050565b600080600060608486031215620005c357620005c262000322565b5b600084015167ffffffffffffffff811115620005e457620005e362000327565b5b620005f28682870162000574565b935050602084015167ffffffffffffffff81111562000616576200061562000327565b5b620006248682870162000574565b925050604084015167ffffffffffffffff81111562000648576200064762000327565b5b6200065686828701620004ac565b9150509250925092565b600081519050919050565b7f4e487b7100000000000000000000000000000000000000000000000000000000600052602260045260246000fd5b60006002820490506001821680620006b357607f821691505b602082108103620006c957620006c86200066b565b5b50919050565b60008190508160005260206000209050919050565b60006020601f8301049050919050565b600082821b905092915050565b600060088302620007337fffffffffffffffffffffffffffffffffffffffffffffffffffffffffffffffff82620006f4565b6200073f8683620006f4565b95508019841693508086168417925050509392505050565b6000819050919050565b6000819050919050565b60006200078c62000786620007808462000757565b62000761565b62000757565b9050919050565b6000819050919050565b620007a8836200076b565b620007c0620007b78262000793565b84845462000701565b825550505050565b600090565b620007d7620007c8565b620007e48184846200079d565b505050565b5b818110156200080c5762000800600082620007cd565b600181019050620007ea565b5050565b601f8211156200085b576200082581620006cf565b6200083084620006e4565b8101602085101562000840578190505b620008586200084f85620006e4565b830182620007e9565b50505b505050565b600082821c905092915050565b6000620008806000198460080262000860565b1980831691505092915050565b60006200089b83836200086d565b9150826002028217905092915050565b620008b68262000660565b67ffffffffffffffff811115620008d257620008d162000342565b5b620008de82546200069a565b620008eb82828562000810565b600060209050601f8311600181146200092357600084156200090e578287015190505b6200091a85826200088d565b8655506200098a565b601f1984166200093386620006cf565b60005b828110156200095d5784890151825560018201915060208501945060208101905062000936565b868310156200097d578489015162000979601f8916826200086d565b8355505b6001600288020188555050505b505050505050565b7f4e487b7100000000000000000000000000000000000000000000000000000000600052603260045260246000fd5b600081905092915050565b6000620009d98262000660565b620009e58185620009c1565b9350620009f781856020860162000435565b80840191505092915050565b600062000a118284620009cc565b915081905092915050565b7f4e487b7100000000000000000000000000000000000000000000000000000000600052601160045260246000fd5b600062000a588262000757565b91507fffffffffffffffffffffffffffffffffffffffffffffffffffffffffffffffff820362000a8d5762000a8c62000a1c565b5b600182019050919050565b613d708062000aa86000396000f3fe608060405234801561001057600080fd5b50600436106101a95760003560e01c806377782188116100f9578063ad14f0f011610097578063dc8b92e711610071578063dc8b92e7146104de578063e985e9c51461050e578063eacabe141461053e578063f2fde38b1461055a576101a9565b8063ad14f0f014610476578063b88d4fde14610492578063c87b56dd146104ae576101a9565b80638da5cb5b116100d35780638da5cb5b1461040257806395d89b4114610420578063a22cb4651461043e578063aa0d4f6c1461045a576101a9565b8063777821881461037257806377bfe5fb146103a25780638cacb2f3146103d2576101a9565b80631574a67511610166578063607247081161014057806360724708146102ea5780636352211e1461030857806370a0823114610338578063715018a614610368576101a9565b80631574a675146102a857806323b872dd146102b257806342842e0e146102ce576101a9565b806301ffc9a7146101ae57806306fdde03146101de578063081812fc146101fc578063095ea7b31461022c578063099c64331461024857806314388b4014610278575b600080fd5b6101c860048036038101906101c391906126c6565b610576565b6040516101d5919061270e565b60405180910390f35b6101e6610658565b6040516101f391906127b9565b60405180910390f35b61021660048036038101906102119190612811565b6106ea565b604051610223919061287f565b60405180910390f35b610246600480360381019061024191906128c6565b610730565b005b610262600480360381019061025d9190612906565b610847565b60405161026f91906127b9565b60405180910390f35b610292600480360381019061028d9190612a68565b6108e7565b60405161029f91906127b9565b60405180910390f35b6102b061099d565b005b6102cc60048036038101906102c79190612ab1565b610c09565b005b6102e860048036038101906102e39190612ab1565b610c69565b005b6102f2610c89565b6040516102ff919061270e565b60405180910390f35b610322600480360381019061031d9190612811565b610c9c565b60405161032f919061287f565b60405180910390f35b610352600480360381019061034d9190612906565b610d4d565b60405161035f9190612b13565b60405180910390f35b610370610e04565b005b61038c60048036038101906103879190612906565b610e18565b60405161039991906127b9565b60405180910390f35b6103bc60048036038101906103b79190612811565b610f77565b6040516103c991906127b9565b60405180910390f35b6103ec60048036038101906103e79190612a68565b611017565b6040516103f9919061270e565b60405180910390f35b61040a61104d565b604051610417919061287f565b60405180910390f35b610428611077565b60405161043591906127b9565b60405180910390f35b61045860048036038101906104539190612b5a565b611109565b005b610474600480360381019061046f9190612b9a565b61111f565b005b610490600480360381019061048b9190612c12565b61114f565b005b6104ac60048036038101906104a79190612d0f565b6112ef565b005b6104c860048036038101906104c39190612811565b611351565b6040516104d591906127b9565b60405180910390f35b6104f860048036038101906104f39190612811565b611463565b60405161050591906127b9565b60405180910390f35b61052860048036038101906105239190612d92565b611503565b604051610535919061270e565b60405180910390f35b61055860048036038101906105539190612c12565b611597565b005b610574600480360381019061056f9190612906565b611815565b005b60007f80ac58cd000000000000000000000000000000000000000000000000000000007bffffffffffffffffffffffffffffffffffffffffffffffffffffffff1916827bffffffffffffffffffffffffffffffffffffffffffffffffffffffff1916148061064157507f5b5e139f000000000000000000000000000000000000000000000000000000007bffffffffffffffffffffffffffffffffffffffffffffffffffffffff1916827bffffffffffffffffffffffffffffffffffffffffffffffffffffffff1916145b80610651575061065082611898565b5b9050919050565b60606000805461066790612e01565b80601f016020809104026020016040519081016040528092919081815260200182805461069390612e01565b80156106e05780601f106106b5576101008083540402835291602001916106e0565b820191906000526020600020905b8154815290600101906020018083116106c357829003601f168201915b5050505050905090565b60006106f582611902565b6004600083815260200190815260200160002060009054906101000a900473ffffffffffffffffffffffffffffffffffffffff169050919050565b600061073b82610c9c565b90508073ffffffffffffffffffffffffffffffffffffffff168373ffffffffffffffffffffffffffffffffffffffff16036107ab576040517f08c379a00000000000000000000000000000000000000000000000000000000081526004016107a290612ea4565b60405180910390fd5b8073ffffffffffffffffffffffffffffffffffffffff166107ca61194d565b73ffffffffffffffffffffffffffffffffffffffff1614806107f957506107f8816107f361194d565b611503565b5b610838576040517f08c379a000000000000000000000000000000000000000000000000000000000815260040161082f90612f36565b60405180910390fd5b6108428383611955565b505050565b600b602052806000526040600020600091509050805461086690612e01565b80601f016020809104026020016040519081016040528092919081815260200182805461089290612e01565b80156108df5780601f106108b4576101008083540402835291602001916108df565b820191906000526020600020905b8154815290600101906020018083116108c257829003601f168201915b505050505081565b600a81805160208101820180518482526020830160208501208183528095505050505050600091509050805461091c90612e01565b80601f016020809104026020016040519081016040528092919081815260200182805461094890612e01565b80156109955780601f1061096a57610100808354040283529160200191610995565b820191906000526020600020905b81548152906001019060200180831161097857829003601f168201915b505050505081565b6000600e80546109ac90612e01565b80601f01602080910402602001604051908101604052809291908181526020018280546109d890612e01565b8015610a255780601f106109fa57610100808354040283529160200191610a25565b820191906000526020600020905b815481529060010190602001808311610a0857829003601f168201915b50505050509050600060086000815480929190610a4190612f85565b919050559050610a513382611a0e565b610a5b8183611be7565b600f60009054906101000a900460ff1615610b12576040518060400160405280600981526020017f4578656375746976650000000000000000000000000000000000000000000000815250600b60003373ffffffffffffffffffffffffffffffffffffffff1673ffffffffffffffffffffffffffffffffffffffff1681526020019081526020016000209081610af19190613179565b506000600f60006101000a81548160ff021916908315150217905550610b95565b6040518060400160405280600781526020017f44656661756c7400000000000000000000000000000000000000000000000000815250600b60003373ffffffffffffffffffffffffffffffffffffffff1673ffffffffffffffffffffffffffffffffffffffff1681526020019081526020016000209081610b939190613179565b505b7f975a81b8ac0dbf1299701d398adc5c3bfa50b7efdb26ae977afbf7ad9d2d6485336040518060400160405280600781526020017f44656661756c740000000000000000000000000000000000000000000000000081525084604051610bfd9392919061324b565b60405180910390a15050565b610c1a610c1461194d565b82611c54565b610c59576040517f08c379a0000000000000000000000000000000000000000000000000000000008152600401610c5090613302565b60405180910390fd5b610c64838383611ce9565b505050565b610c84838383604051806020016040528060008152506112ef565b505050565b600f60009054906101000a900460ff1681565b6000806002600084815260200190815260200160002060009054906101000a900473ffffffffffffffffffffffffffffffffffffffff169050600073ffffffffffffffffffffffffffffffffffffffff168173ffffffffffffffffffffffffffffffffffffffff1603610d44576040517f08c379a0000000000000000000000000000000000000000000000000000000008152600401610d3b9061336e565b60405180910390fd5b80915050919050565b60008073ffffffffffffffffffffffffffffffffffffffff168273ffffffffffffffffffffffffffffffffffffffff1603610dbd576040517f08c379a0000000000000000000000000000000000000000000000000000000008152600401610db490613400565b60405180910390fd5b600360008373ffffffffffffffffffffffffffffffffffffffff1673ffffffffffffffffffffffffffffffffffffffff168152602001908152602001600020549050919050565b610e0c611f4f565b610e166000611fcd565b565b60606000600b60008473ffffffffffffffffffffffffffffffffffffffff1673ffffffffffffffffffffffffffffffffffffffff1681526020019081526020016000208054610e6690612e01565b905011610ea8576040517f08c379a0000000000000000000000000000000000000000000000000000000008152600401610e9f9061346c565b60405180910390fd5b600b60008373ffffffffffffffffffffffffffffffffffffffff1673ffffffffffffffffffffffffffffffffffffffff1681526020019081526020016000208054610ef290612e01565b80601f0160208091040260200160405190810160405280929190818152602001828054610f1e90612e01565b8015610f6b5780601f10610f4057610100808354040283529160200191610f6b565b820191906000526020600020905b815481529060010190602001808311610f4e57829003601f168201915b50505050509050919050565b60096020528060005260406000206000915090508054610f9690612e01565b80601f0160208091040260200160405190810160405280929190818152602001828054610fc290612e01565b801561100f5780601f10610fe45761010080835404028352916020019161100f565b820191906000526020600020905b815481529060010190602001808311610ff257829003601f168201915b505050505081565b600d818051602081018201805184825260208301602085012081835280955050505050506000915054906101000a900460ff1681565b6000600760009054906101000a900473ffffffffffffffffffffffffffffffffffffffff16905090565b60606001805461108690612e01565b80601f01602080910402602001604051908101604052809291908181526020018280546110b290612e01565b80156110ff5780601f106110d4576101008083540402835291602001916110ff565b820191906000526020600020905b8154815290600101906020018083116110e257829003601f168201915b5050505050905090565b61111b61111461194d565b8383612093565b5050565b80600a8360405161113091906134c8565b9081526020016040518091039020908161114a9190613179565b505050565b600d600b60003373ffffffffffffffffffffffffffffffffffffffff1673ffffffffffffffffffffffffffffffffffffffff16815260200190815260200160002060405161119d9190613562565b908152602001604051809103902060009054906101000a900460ff166111f8576040517f08c379a00000000000000000000000000000000000000000000000000000000081526004016111ef906135c5565b60405180910390fd5b6000600a8260405161120a91906134c8565b9081526020016040518091039020805461122390612e01565b905011611265576040517f08c379a000000000000000000000000000000000000000000000000000000000815260040161125c90613631565b60405180910390fd5b80600b60008473ffffffffffffffffffffffffffffffffffffffff1673ffffffffffffffffffffffffffffffffffffffff16815260200190815260200160002090816112b19190613179565b507f09a1095331c1561d1cb7707e5a6132970399f28ffa804f7b0186d4c8d38b7d3b82826040516112e3929190613651565b60405180910390a15050565b6113006112fa61194d565b83611c54565b61133f576040517f08c379a000000000000000000000000000000000000000000000000000000000815260040161133690613302565b60405180910390fd5b61134b848484846121ff565b50505050565b606061135c82611902565b600060066000848152602001908152602001600020805461137c90612e01565b80601f01602080910402602001604051908101604052809291908181526020018280546113a890612e01565b80156113f55780601f106113ca576101008083540402835291602001916113f5565b820191906000526020600020905b8154815290600101906020018083116113d857829003601f168201915b50505050509050600061140661225b565b9050600081510361141b57819250505061145e565b600082511115611450578082604051602001611438929190613681565b6040516020818303038152906040529250505061145e565b61145984612272565b925050505b919050565b600c602052806000526040600020600091509050805461148290612e01565b80601f01602080910402602001604051908101604052809291908181526020018280546114ae90612e01565b80156114fb5780601f106114d0576101008083540402835291602001916114fb565b820191906000526020600020905b8154815290600101906020018083116114de57829003601f168201915b505050505081565b6000600560008473ffffffffffffffffffffffffffffffffffffffff1673ffffffffffffffffffffffffffffffffffffffff16815260200190815260200160002060008373ffffffffffffffffffffffffffffffffffffffff1673ffffffffffffffffffffffffffffffffffffffff16815260200190815260200160002060009054906101000a900460ff16905092915050565b600d600b60003373ffffffffffffffffffffffffffffffffffffffff1673ffffffffffffffffffffffffffffffffffffffff1681526020019081526020016000206040516115e59190613562565b908152602001604051809103902060009054906101000a900460ff16611640576040517f08c379a0000000000000000000000000000000000000000000000000000000008152600401611637906135c5565b60405180910390fd5b6000600a8260405161165291906134c8565b9081526020016040518091039020805461166b90612e01565b9050116116ad576040517f08c379a00000000000000000000000000000000000000000000000000000000081526004016116a490613631565b60405180910390fd5b6000600a826040516116bf91906134c8565b908152602001604051809103902080546116d890612e01565b80601f016020809104026020016040519081016040528092919081815260200182805461170490612e01565b80156117515780601f1061172657610100808354040283529160200191611751565b820191906000526020600020905b81548152906001019060200180831161173457829003601f168201915b5050505050905060006008600081548092919061176d90612f85565b91905055905061177d8482611a0e565b6117878183611be7565b82600b60008673ffffffffffffffffffffffffffffffffffffffff1673ffffffffffffffffffffffffffffffffffffffff16815260200190815260200160002090816117d39190613179565b507f975a81b8ac0dbf1299701d398adc5c3bfa50b7efdb26ae977afbf7ad9d2d64858484846040516118079392919061324b565b60405180910390a150505050565b61181d611f4f565b600073ffffffffffffffffffffffffffffffffffffffff168173ffffffffffffffffffffffffffffffffffffffff160361188c576040517f08c379a000000000000000000000000000000000000000000000000000000000815260040161188390613717565b60405180910390fd5b61189581611fcd565b50565b60007f01ffc9a7000000000000000000000000000000000000000000000000000000007bffffffffffffffffffffffffffffffffffffffffffffffffffffffff1916827bffffffffffffffffffffffffffffffffffffffffffffffffffffffff1916149050919050565b61190b816122da565b61194a576040517f08c379a00000000000000000000000000000000000000000000000000000000081526004016119419061336e565b60405180910390fd5b50565b600033905090565b816004600083815260200190815260200160002060006101000a81548173ffffffffffffffffffffffffffffffffffffffff021916908373ffffffffffffffffffffffffffffffffffffffff160217905550808273ffffffffffffffffffffffffffffffffffffffff166119c883610c9c565b73ffffffffffffffffffffffffffffffffffffffff167f8c5be1e5ebec7d5bd14f71427d1e84f3dd0314c0f7b2291e5b200ac8c7c3b92560405160405180910390a45050565b600073ffffffffffffffffffffffffffffffffffffffff168273ffffffffffffffffffffffffffffffffffffffff1603611a7d576040517f08c379a0000000000000000000000000000000000000000000000000000000008152600401611a7490613783565b60405180910390fd5b611a86816122da565b15611ac6576040517f08c379a0000000000000000000000000000000000000000000000000000000008152600401611abd906137ef565b60405180910390fd5b611ad260008383612346565b6001600360008473ffffffffffffffffffffffffffffffffffffffff1673ffffffffffffffffffffffffffffffffffffffff1681526020019081526020016000206000828254611b22919061380f565b92505081905550816002600083815260200190815260200160002060006101000a81548173ffffffffffffffffffffffffffffffffffffffff021916908373ffffffffffffffffffffffffffffffffffffffff160217905550808273ffffffffffffffffffffffffffffffffffffffff16600073ffffffffffffffffffffffffffffffffffffffff167fddf252ad1be2c89b69c2b068fc378daa952ba7f163c4a11628f55a4df523b3ef60405160405180910390a4611be36000838361234b565b5050565b611bf0826122da565b611c2f576040517f08c379a0000000000000000000000000000000000000000000000000000000008152600401611c26906138b5565b60405180910390fd5b80600660008481526020019081526020016000209081611c4f9190613179565b505050565b600080611c6083610c9c565b90508073ffffffffffffffffffffffffffffffffffffffff168473ffffffffffffffffffffffffffffffffffffffff161480611ca25750611ca18185611503565b5b80611ce057508373ffffffffffffffffffffffffffffffffffffffff16611cc8846106ea565b73ffffffffffffffffffffffffffffffffffffffff16145b91505092915050565b8273ffffffffffffffffffffffffffffffffffffffff16611d0982610c9c565b73ffffffffffffffffffffffffffffffffffffffff1614611d5f576040517f08c379a0000000000000000000000000000000000000000000000000000000008152600401611d5690613947565b60405180910390fd5b600073ffffffffffffffffffffffffffffffffffffffff168273ffffffffffffffffffffffffffffffffffffffff1603611dce576040517f08c379a0000000000000000000000000000000000000000000000000000000008152600401611dc5906139d9565b60405180910390fd5b611dd9838383612346565b611de4600082611955565b6001600360008573ffffffffffffffffffffffffffffffffffffffff1673ffffffffffffffffffffffffffffffffffffffff1681526020019081526020016000206000828254611e3491906139f9565b925050819055506001600360008473ffffffffffffffffffffffffffffffffffffffff1673ffffffffffffffffffffffffffffffffffffffff1681526020019081526020016000206000828254611e8b919061380f565b92505081905550816002600083815260200190815260200160002060006101000a81548173ffffffffffffffffffffffffffffffffffffffff021916908373ffffffffffffffffffffffffffffffffffffffff160217905550808273ffffffffffffffffffffffffffffffffffffffff168473ffffffffffffffffffffffffffffffffffffffff167fddf252ad1be2c89b69c2b068fc378daa952ba7f163c4a11628f55a4df523b3ef60405160405180910390a4611f4a83838361234b565b505050565b611f5761194d565b73ffffffffffffffffffffffffffffffffffffffff16611f7561104d565b73ffffffffffffffffffffffffffffffffffffffff1614611fcb576040517f08c379a0000000000000000000000000000000000000000000000000000000008152600401611fc290613a79565b60405180910390fd5b565b6000600760009054906101000a900473ffffffffffffffffffffffffffffffffffffffff16905081600760006101000a81548173ffffffffffffffffffffffffffffffffffffffff021916908373ffffffffffffffffffffffffffffffffffffffff1602179055508173ffffffffffffffffffffffffffffffffffffffff168173ffffffffffffffffffffffffffffffffffffffff167f8be0079c531659141344cd1fd0a4f28419497f9722a3daafe3b4186f6b6457e060405160405180910390a35050565b8173ffffffffffffffffffffffffffffffffffffffff168373ffffffffffffffffffffffffffffffffffffffff1603612101576040517f08c379a00000000000000000000000000000000000000000000000000000000081526004016120f890613ae5565b60405180910390fd5b80600560008573ffffffffffffffffffffffffffffffffffffffff1673ffffffffffffffffffffffffffffffffffffffff16815260200190815260200160002060008473ffffffffffffffffffffffffffffffffffffffff1673ffffffffffffffffffffffffffffffffffffffff16815260200190815260200160002060006101000a81548160ff0219169083151502179055508173ffffffffffffffffffffffffffffffffffffffff168373ffffffffffffffffffffffffffffffffffffffff167f17307eab39ab6107e8899845ad3d59bd9653f200f220920489ca2b5937696c31836040516121f2919061270e565b60405180910390a3505050565b61220a848484611ce9565b61221684848484612350565b612255576040517f08c379a000000000000000000000000000000000000000000000000000000000815260040161224c90613b77565b60405180910390fd5b50505050565b606060405180602001604052806000815250905090565b606061227d82611902565b600061228761225b565b905060008151116122a757604051806020016040528060008152506122d2565b806122b1846124d7565b6040516020016122c2929190613681565b6040516020818303038152906040525b915050919050565b60008073ffffffffffffffffffffffffffffffffffffffff166002600084815260200190815260200160002060009054906101000a900473ffffffffffffffffffffffffffffffffffffffff1673ffffffffffffffffffffffffffffffffffffffff1614159050919050565b505050565b505050565b60006123718473ffffffffffffffffffffffffffffffffffffffff16612637565b156124ca578373ffffffffffffffffffffffffffffffffffffffff1663150b7a0261239a61194d565b8786866040518563ffffffff1660e01b81526004016123bc9493929190613bec565b6020604051808303816000875af19250505080156123f857506040513d601f19601f820116820180604052508101906123f59190613c4d565b60015b61247a573d8060008114612428576040519150601f19603f3d011682016040523d82523d6000602084013e61242d565b606091505b506000815103612472576040517f08c379a000000000000000000000000000000000000000000000000000000000815260040161246990613b77565b60405180910390fd5b805181602001fd5b63150b7a0260e01b7bffffffffffffffffffffffffffffffffffffffffffffffffffffffff1916817bffffffffffffffffffffffffffffffffffffffffffffffffffffffff1916149150506124cf565b600190505b949350505050565b60606000820361251e576040518060400160405280600181526020017f30000000000000000000000000000000000000000000000000000000000000008152509050612632565b600082905060005b6000821461255057808061253990612f85565b915050600a826125499190613ca9565b9150612526565b60008167ffffffffffffffff81111561256c5761256b61293d565b5b6040519080825280601f01601f19166020018201604052801561259e5781602001600182028036833780820191505090505b5090505b6000851461262b576001826125b791906139f9565b9150600a856125c69190613cda565b60306125d2919061380f565b60f81b8183815181106125e8576125e7613d0b565b5b60200101907effffffffffffffffffffffffffffffffffffffffffffffffffffffffffffff1916908160001a905350600a856126249190613ca9565b94506125a2565b8093505050505b919050565b6000808273ffffffffffffffffffffffffffffffffffffffff163b119050919050565b6000604051905090565b600080fd5b600080fd5b60007fffffffff0000000000000000000000000000000000000000000000000000000082169050919050565b6126a38161266e565b81146126ae57600080fd5b50565b6000813590506126c08161269a565b92915050565b6000602082840312156126dc576126db612664565b5b60006126ea848285016126b1565b91505092915050565b60008115159050919050565b612708816126f3565b82525050565b600060208201905061272360008301846126ff565b92915050565b600081519050919050565b600082825260208201905092915050565b60005b83811015612763578082015181840152602081019050612748565b60008484015250505050565b6000601f19601f8301169050919050565b600061278b82612729565b6127958185612734565b93506127a5818560208601612745565b6127ae8161276f565b840191505092915050565b600060208201905081810360008301526127d38184612780565b905092915050565b6000819050919050565b6127ee816127db565b81146127f957600080fd5b50565b60008135905061280b816127e5565b92915050565b60006020828403121561282757612826612664565b5b6000612835848285016127fc565b91505092915050565b600073ffffffffffffffffffffffffffffffffffffffff82169050919050565b60006128698261283e565b9050919050565b6128798161285e565b82525050565b60006020820190506128946000830184612870565b92915050565b6128a38161285e565b81146128ae57600080fd5b50565b6000813590506128c08161289a565b92915050565b600080604083850312156128dd576128dc612664565b5b60006128eb858286016128b1565b92505060206128fc858286016127fc565b9150509250929050565b60006020828403121561291c5761291b612664565b5b600061292a848285016128b1565b91505092915050565b600080fd5b600080fd5b7f4e487b7100000000000000000000000000000000000000000000000000000000600052604160045260246000fd5b6129758261276f565b810181811067ffffffffffffffff821117156129945761299361293d565b5b80604052505050565b60006129a761265a565b90506129b3828261296c565b919050565b600067ffffffffffffffff8211156129d3576129d261293d565b5b6129dc8261276f565b9050602081019050919050565b82818337600083830152505050565b6000612a0b612a06846129b8565b61299d565b905082815260208101848484011115612a2757612a26612938565b5b612a328482856129e9565b509392505050565b600082601f830112612a4f57612a4e612933565b5b8135612a5f8482602086016129f8565b91505092915050565b600060208284031215612a7e57612a7d612664565b5b600082013567ffffffffffffffff811115612a9c57612a9b612669565b5b612aa884828501612a3a565b91505092915050565b600080600060608486031215612aca57612ac9612664565b5b6000612ad8868287016128b1565b9350506020612ae9868287016128b1565b9250506040612afa868287016127fc565b9150509250925092565b612b0d816127db565b82525050565b6000602082019050612b286000830184612b04565b92915050565b612b37816126f3565b8114612b4257600080fd5b50565b600081359050612b5481612b2e565b92915050565b60008060408385031215612b7157612b70612664565b5b6000612b7f858286016128b1565b9250506020612b9085828601612b45565b9150509250929050565b60008060408385031215612bb157612bb0612664565b5b600083013567ffffffffffffffff811115612bcf57612bce612669565b5b612bdb85828601612a3a565b925050602083013567ffffffffffffffff811115612bfc57612bfb612669565b5b612c0885828601612a3a565b9150509250929050565b60008060408385031215612c2957612c28612664565b5b6000612c37858286016128b1565b925050602083013567ffffffffffffffff811115612c5857612c57612669565b5b612c6485828601612a3a565b9150509250929050565b600067ffffffffffffffff821115612c8957612c8861293d565b5b612c928261276f565b9050602081019050919050565b6000612cb2612cad84612c6e565b61299d565b905082815260208101848484011115612cce57612ccd612938565b5b612cd98482856129e9565b509392505050565b600082601f830112612cf657612cf5612933565b5b8135612d06848260208601612c9f565b91505092915050565b60008060008060808587031215612d2957612d28612664565b5b6000612d37878288016128b1565b9450506020612d48878288016128b1565b9350506040612d59878288016127fc565b925050606085013567ffffffffffffffff811115612d7a57612d79612669565b5b612d8687828801612ce1565b91505092959194509250565b60008060408385031215612da957612da8612664565b5b6000612db7858286016128b1565b9250506020612dc8858286016128b1565b9150509250929050565b7f4e487b7100000000000000000000000000000000000000000000000000000000600052602260045260246000fd5b60006002820490506001821680612e1957607f821691505b602082108103612e2c57612e2b612dd2565b5b50919050565b7f4552433732313a20617070726f76616c20746f2063757272656e74206f776e6560008201527f7200000000000000000000000000000000000000000000000000000000000000602082015250565b6000612e8e602183612734565b9150612e9982612e32565b604082019050919050565b60006020820190508181036000830152612ebd81612e81565b9050919050565b7f4552433732313a20617070726f76652063616c6c6572206973206e6f7420746f60008201527f6b656e206f776e6572206e6f7220617070726f76656420666f7220616c6c0000602082015250565b6000612f20603e83612734565b9150612f2b82612ec4565b604082019050919050565b60006020820190508181036000830152612f4f81612f13565b9050919050565b7f4e487b7100000000000000000000000000000000000000000000000000000000600052601160045260246000fd5b6000612f90826127db565b91507fffffffffffffffffffffffffffffffffffffffffffffffffffffffffffffffff8203612fc257612fc1612f56565b5b600182019050919050565b60008190508160005260206000209050919050565b60006020601f8301049050919050565b600082821b905092915050565b60006008830261302f7fffffffffffffffffffffffffffffffffffffffffffffffffffffffffffffffff82612ff2565b6130398683612ff2565b95508019841693508086168417925050509392505050565b6000819050919050565b600061307661307161306c846127db565b613051565b6127db565b9050919050565b6000819050919050565b6130908361305b565b6130a461309c8261307d565b848454612fff565b825550505050565b600090565b6130b96130ac565b6130c4818484613087565b505050565b5b818110156130e8576130dd6000826130b1565b6001810190506130ca565b5050565b601f82111561312d576130fe81612fcd565b61310784612fe2565b81016020851015613116578190505b61312a61312285612fe2565b8301826130c9565b50505b505050565b600082821c905092915050565b600061315060001984600802613132565b1980831691505092915050565b6000613169838361313f565b9150826002028217905092915050565b61318282612729565b67ffffffffffffffff81111561319b5761319a61293d565b5b6131a58254612e01565b6131b08282856130ec565b600060209050601f8311600181146131e357600084156131d1578287015190505b6131db858261315d565b865550613243565b601f1984166131f186612fcd565b60005b82811015613219578489015182556001820191506020850194506020810190506131f4565b868310156132365784890151613232601f89168261313f565b8355505b6001600288020188555050505b505050505050565b60006060820190506132606000830186612870565b81810360208301526132728185612780565b905081810360408301526132868184612780565b9050949350505050565b7f4552433732313a2063616c6c6572206973206e6f7420746f6b656e206f776e6560008201527f72206e6f7220617070726f766564000000000000000000000000000000000000602082015250565b60006132ec602e83612734565b91506132f782613290565b604082019050919050565b6000602082019050818103600083015261331b816132df565b9050919050565b7f4552433732313a20696e76616c696420746f6b656e2049440000000000000000600082015250565b6000613358601883612734565b915061336382613322565b602082019050919050565b600060208201905081810360008301526133878161334b565b9050919050565b7f4552433732313a2061646472657373207a65726f206973206e6f74206120766160008201527f6c6964206f776e65720000000000000000000000000000000000000000000000602082015250565b60006133ea602983612734565b91506133f58261338e565b604082019050919050565b60006020820190508181036000830152613419816133dd565b9050919050565b7f4e6f206d656d626572207479706520666f756e6420666f7220757365722e0000600082015250565b6000613456601e83612734565b915061346182613420565b602082019050919050565b6000602082019050818103600083015261348581613449565b9050919050565b600081905092915050565b60006134a282612729565b6134ac818561348c565b93506134bc818560208601612745565b80840191505092915050565b60006134d48284613497565b915081905092915050565b600081546134ec81612e01565b6134f6818661348c565b94506001821660008114613511576001811461352657613559565b60ff1983168652811515820286019350613559565b61352f85612fcd565b60005b8381101561355157815481890152600182019150602081019050613532565b838801955050505b50505092915050565b600061356e82846134df565b915081905092915050565b7f4e6f7420616e2065786563757469766520726f6c650000000000000000000000600082015250565b60006135af601583612734565b91506135ba82613579565b602082019050919050565b600060208201905081810360008301526135de816135a2565b9050919050565b7f496d61676520666f72206d656d6265722074797065206e6f7420736574000000600082015250565b600061361b601d83612734565b9150613626826135e5565b602082019050919050565b6000602082019050818103600083015261364a8161360e565b9050919050565b60006040820190506136666000830185612870565b81810360208301526136788184612780565b90509392505050565b600061368d8285613497565b91506136998284613497565b91508190509392505050565b7f4f776e61626c653a206e6577206f776e657220697320746865207a65726f206160008201527f6464726573730000000000000000000000000000000000000000000000000000602082015250565b6000613701602683612734565b915061370c826136a5565b604082019050919050565b60006020820190508181036000830152613730816136f4565b9050919050565b7f4552433732313a206d696e7420746f20746865207a65726f2061646472657373600082015250565b600061376d602083612734565b915061377882613737565b602082019050919050565b6000602082019050818103600083015261379c81613760565b9050919050565b7f4552433732313a20746f6b656e20616c7265616479206d696e74656400000000600082015250565b60006137d9601c83612734565b91506137e4826137a3565b602082019050919050565b60006020820190508181036000830152613808816137cc565b9050919050565b600061381a826127db565b9150613825836127db565b925082820190508082111561383d5761383c612f56565b5b92915050565b7f45524337323155524953746f726167653a2055524920736574206f66206e6f6e60008201527f6578697374656e7420746f6b656e000000000000000000000000000000000000602082015250565b600061389f602e83612734565b91506138aa82613843565b604082019050919050565b600060208201905081810360008301526138ce81613892565b9050919050565b7f4552433732313a207472616e736665722066726f6d20696e636f72726563742060008201527f6f776e6572000000000000000000000000000000000000000000000000000000602082015250565b6000613931602583612734565b915061393c826138d5565b604082019050919050565b6000602082019050818103600083015261396081613924565b9050919050565b7f4552433732313a207472616e7366657220746f20746865207a65726f2061646460008201527f7265737300000000000000000000000000000000000000000000000000000000602082015250565b60006139c3602483612734565b91506139ce82613967565b604082019050919050565b600060208201905081810360008301526139f2816139b6565b9050919050565b6000613a04826127db565b9150613a0f836127db565b9250828203905081811115613a2757613a26612f56565b5b92915050565b7f4f776e61626c653a2063616c6c6572206973206e6f7420746865206f776e6572600082015250565b6000613a63602083612734565b9150613a6e82613a2d565b602082019050919050565b60006020820190508181036000830152613a9281613a56565b9050919050565b7f4552433732313a20617070726f766520746f2063616c6c657200000000000000600082015250565b6000613acf601983612734565b9150613ada82613a99565b602082019050919050565b60006020820190508181036000830152613afe81613ac2565b9050919050565b7f4552433732313a207472616e7366657220746f206e6f6e20455243373231526560008201527f63656976657220696d706c656d656e7465720000000000000000000000000000602082015250565b6000613b61603283612734565b9150613b6c82613b05565b604082019050919050565b60006020820190508181036000830152613b9081613b54565b9050919050565b600081519050919050565b600082825260208201905092915050565b6000613bbe82613b97565b613bc88185613ba2565b9350613bd8818560208601612745565b613be18161276f565b840191505092915050565b6000608082019050613c016000830187612870565b613c0e6020830186612870565b613c1b6040830185612b04565b8181036060830152613c2d8184613bb3565b905095945050505050565b600081519050613c478161269a565b92915050565b600060208284031215613c6357613c62612664565b5b6000613c7184828501613c38565b91505092915050565b7f4e487b7100000000000000000000000000000000000000000000000000000000600052601260045260246000fd5b6000613cb4826127db565b9150613cbf836127db565b925082613ccf57613cce613c7a565b5b828204905092915050565b6000613ce5826127db565b9150613cf0836127db565b925082613d0057613cff613c7a565b5b828206905092915050565b7f4e487b7100000000000000000000000000000000000000000000000000000000600052603260045260246000fdfea2646970667358221220d7ebc65def4a74048526d2403ec59f02bf92b51dcdaa242c28fe9cd4f7f68f1c64736f6c63430008140033a264697066735822122019ee959f37cb3b9eda4c118fda3d091f39c4b54dc250599ba85cffe9db8d1f4b64736f6c63430008140033",
  "linkReferences": {},
  "deployedLinkReferences": {}
}