{
  "_format": "hh-sol-artifact-1",
  "contractName": "NFTMembershipFactory",
  "sourceName": "contracts/MembershipNFTFactory.sol",
  "abi": [
    {
      "inputs": [
        {
          "internalType": "string[]",
          "name": "memberTypeNames",
          "type": "string[]"
        },
        {
          "internalType": "string",
          "name": "_defaultImageURL",
          "type": "string"
        }
      ],
      "name": "createNFTMembership",
      "outputs": [],
      "stateMutability": "nonpayable",
      "type": "function"
    },
    {
      "inputs": [
        {
          "internalType": "uint256",
          "name": "",
          "type": "uint256"
        }
      ],
      "name": "deployedContracts",
      "outputs": [
        {
          "internalType": "address",
          "name": "",
          "type": "address"
        }
      ],
      "stateMutability": "view",
      "type": "function"
    },
    {
      "inputs": [],
      "name": "getDeployedContracts",
      "outputs": [
        {
          "internalType": "address[]",
          "name": "",
          "type": "address[]"
        }
      ],
      "stateMutability": "view",
      "type": "function"
    }
  ],
  "bytecode": "0x608060405234801561001057600080fd5b50614a61806100206000396000f3fe60806040523480156200001157600080fd5b5060043610620000465760003560e01c80639ad1ee10146200004b578063aa9a068f1462000081578063c3f5b9a414620000a3575b600080fd5b62000069600480360381019062000063919062000297565b620000c3565b6040516200007891906200030e565b60405180910390f35b6200008b62000103565b6040516200009a9190620003f9565b60405180910390f35b620000c16004803603810190620000bb91906200067b565b62000193565b005b60008181548110620000d457600080fd5b906000526020600020016000915054906101000a900473ffffffffffffffffffffffffffffffffffffffff1681565b606060008054806020026020016040519081016040528092919081815260200182805480156200018957602002820191906000526020600020905b8160009054906101000a900473ffffffffffffffffffffffffffffffffffffffff1673ffffffffffffffffffffffffffffffffffffffff16815260200190600101908083116200013e575b5050505050905090565b60008282604051620001a5906200023a565b620001b2929190620008ab565b604051809103906000f080158015620001cf573d6000803e3d6000fd5b5090506000819080600181540180825580915050600190039060005260206000200160009091909190916101000a81548173ffffffffffffffffffffffffffffffffffffffff021916908373ffffffffffffffffffffffffffffffffffffffff160217905550505050565b61414580620008e783390190565b6000604051905090565b600080fd5b600080fd5b6000819050919050565b62000271816200025c565b81146200027d57600080fd5b50565b600081359050620002918162000266565b92915050565b600060208284031215620002b057620002af62000252565b5b6000620002c08482850162000280565b91505092915050565b600073ffffffffffffffffffffffffffffffffffffffff82169050919050565b6000620002f682620002c9565b9050919050565b6200030881620002e9565b82525050565b6000602082019050620003256000830184620002fd565b92915050565b600081519050919050565b600082825260208201905092915050565b6000819050602082019050919050565b6200036281620002e9565b82525050565b600062000376838362000357565b60208301905092915050565b6000602082019050919050565b60006200039c826200032b565b620003a8818562000336565b9350620003b58362000347565b8060005b83811015620003ec578151620003d0888262000368565b9750620003dd8362000382565b925050600181019050620003b9565b5085935050505092915050565b600060208201905081810360008301526200041581846200038f565b905092915050565b600080fd5b6000601f19601f8301169050919050565b7f4e487b7100000000000000000000000000000000000000000000000000000000600052604160045260246000fd5b6200046d8262000422565b810181811067ffffffffffffffff821117156200048f576200048e62000433565b5b80604052505050565b6000620004a462000248565b9050620004b2828262000462565b919050565b600067ffffffffffffffff821115620004d557620004d462000433565b5b602082029050602081019050919050565b600080fd5b600080fd5b600067ffffffffffffffff8211156200050e576200050d62000433565b5b620005198262000422565b9050602081019050919050565b82818337600083830152505050565b60006200054c6200054684620004f0565b62000498565b9050828152602081018484840111156200056b576200056a620004eb565b5b6200057884828562000526565b509392505050565b600082601f8301126200059857620005976200041d565b5b8135620005aa84826020860162000535565b91505092915050565b6000620005ca620005c484620004b7565b62000498565b90508083825260208201905060208402830185811115620005f057620005ef620004e6565b5b835b818110156200063e57803567ffffffffffffffff8111156200061957620006186200041d565b5b80860162000628898262000580565b85526020850194505050602081019050620005f2565b5050509392505050565b600082601f83011262000660576200065f6200041d565b5b813562000672848260208601620005b3565b91505092915050565b6000806040838503121562000695576200069462000252565b5b600083013567ffffffffffffffff811115620006b657620006b562000257565b5b620006c48582860162000648565b925050602083013567ffffffffffffffff811115620006e857620006e762000257565b5b620006f68582860162000580565b9150509250929050565b600081519050919050565b600082825260208201905092915050565b6000819050602082019050919050565b600081519050919050565b600082825260208201905092915050565b60005b83811015620007685780820151818401526020810190506200074b565b60008484015250505050565b600062000781826200072c565b6200078d818562000737565b93506200079f81856020860162000748565b620007aa8162000422565b840191505092915050565b6000620007c3838362000774565b905092915050565b6000602082019050919050565b6000620007e58262000700565b620007f181856200070b565b93508360208202850162000805856200071c565b8060005b85811015620008475784840389528151620008258582620007b5565b94506200083283620007cb565b925060208a0199505060018101905062000809565b50829750879550505050505092915050565b600082825260208201905092915050565b600062000877826200072c565b62000883818562000859565b93506200089581856020860162000748565b620008a08162000422565b840191505092915050565b60006040820190508181036000830152620008c78185620007d8565b90508181036020830152620008dd81846200086a565b9050939250505056fe60806040523480156200001157600080fd5b506040516200414538038062004145833981810160405281019062000037919062000511565b6040518060400160405280600d81526020017f4d656d626572736869704e4654000000000000000000000000000000000000008152506040518060400160405280600381526020017f4d4e4600000000000000000000000000000000000000000000000000000000008152508160009081620000b49190620007e1565b508060019081620000c69190620007e1565b505050620000e9620000dd620001b460201b60201c565b620001bc60201b60201c565b80600c9081620000fa9190620007e1565b5060005b8251811015620001ab578281815181106200011e576200011d620008c8565b5b6020026020010151600960008381526020019081526020016000209081620001479190620007e1565b5081600a848381518110620001615762000160620008c8565b5b602002602001015160405162000178919062000939565b90815260200160405180910390209081620001949190620007e1565b508080620001a29062000981565b915050620000fe565b505050620009ce565b600033905090565b6000600760009054906101000a900473ffffffffffffffffffffffffffffffffffffffff16905081600760006101000a81548173ffffffffffffffffffffffffffffffffffffffff021916908373ffffffffffffffffffffffffffffffffffffffff1602179055508173ffffffffffffffffffffffffffffffffffffffff168173ffffffffffffffffffffffffffffffffffffffff167f8be0079c531659141344cd1fd0a4f28419497f9722a3daafe3b4186f6b6457e060405160405180910390a35050565b6000604051905090565b600080fd5b600080fd5b600080fd5b6000601f19601f8301169050919050565b7f4e487b7100000000000000000000000000000000000000000000000000000000600052604160045260246000fd5b620002e6826200029b565b810181811067ffffffffffffffff82111715620003085762000307620002ac565b5b80604052505050565b60006200031d62000282565b90506200032b8282620002db565b919050565b600067ffffffffffffffff8211156200034e576200034d620002ac565b5b602082029050602081019050919050565b600080fd5b600080fd5b600067ffffffffffffffff821115620003875762000386620002ac565b5b62000392826200029b565b9050602081019050919050565b60005b83811015620003bf578082015181840152602081019050620003a2565b60008484015250505050565b6000620003e2620003dc8462000369565b62000311565b90508281526020810184848401111562000401576200040062000364565b5b6200040e8482856200039f565b509392505050565b600082601f8301126200042e576200042d62000296565b5b815162000440848260208601620003cb565b91505092915050565b6000620004606200045a8462000330565b62000311565b905080838252602082019050602084028301858111156200048657620004856200035f565b5b835b81811015620004d457805167ffffffffffffffff811115620004af57620004ae62000296565b5b808601620004be898262000416565b8552602085019450505060208101905062000488565b5050509392505050565b600082601f830112620004f657620004f562000296565b5b81516200050884826020860162000449565b91505092915050565b600080604083850312156200052b576200052a6200028c565b5b600083015167ffffffffffffffff8111156200054c576200054b62000291565b5b6200055a85828601620004de565b925050602083015167ffffffffffffffff8111156200057e576200057d62000291565b5b6200058c8582860162000416565b9150509250929050565b600081519050919050565b7f4e487b7100000000000000000000000000000000000000000000000000000000600052602260045260246000fd5b60006002820490506001821680620005e957607f821691505b602082108103620005ff57620005fe620005a1565b5b50919050565b60008190508160005260206000209050919050565b60006020601f8301049050919050565b600082821b905092915050565b600060088302620006697fffffffffffffffffffffffffffffffffffffffffffffffffffffffffffffffff826200062a565b6200067586836200062a565b95508019841693508086168417925050509392505050565b6000819050919050565b6000819050919050565b6000620006c2620006bc620006b6846200068d565b62000697565b6200068d565b9050919050565b6000819050919050565b620006de83620006a1565b620006f6620006ed82620006c9565b84845462000637565b825550505050565b600090565b6200070d620006fe565b6200071a818484620006d3565b505050565b5b8181101562000742576200073660008262000703565b60018101905062000720565b5050565b601f82111562000791576200075b8162000605565b62000766846200061a565b8101602085101562000776578190505b6200078e62000785856200061a565b8301826200071f565b50505b505050565b600082821c905092915050565b6000620007b66000198460080262000796565b1980831691505092915050565b6000620007d18383620007a3565b9150826002028217905092915050565b620007ec8262000596565b67ffffffffffffffff811115620008085762000807620002ac565b5b620008148254620005d0565b6200082182828562000746565b600060209050601f83116001811462000859576000841562000844578287015190505b620008508582620007c3565b865550620008c0565b601f198416620008698662000605565b60005b8281101562000893578489015182556001820191506020850194506020810190506200086c565b86831015620008b35784890151620008af601f891682620007a3565b8355505b6001600288020188555050505b505050505050565b7f4e487b7100000000000000000000000000000000000000000000000000000000600052603260045260246000fd5b600081905092915050565b60006200090f8262000596565b6200091b8185620008f7565b93506200092d8185602086016200039f565b80840191505092915050565b600062000947828462000902565b915081905092915050565b7f4e487b7100000000000000000000000000000000000000000000000000000000600052601160045260246000fd5b60006200098e826200068d565b91507fffffffffffffffffffffffffffffffffffffffffffffffffffffffffffffffff8203620009c357620009c262000952565b5b600182019050919050565b61376780620009de6000396000f3fe608060405234801561001057600080fd5b50600436106101585760003560e01c806377782188116100c3578063ad14f0f01161007c578063ad14f0f0146103d7578063b88d4fde146103f3578063c87b56dd1461040f578063e985e9c51461043f578063eacabe141461046f578063f2fde38b1461048b57610158565b8063777821881461030357806377bfe5fb146103335780638da5cb5b1461036357806395d89b4114610381578063a22cb4651461039f578063aa0d4f6c146103bb57610158565b80631574a675116101155780631574a6751461025757806323b872dd1461026157806342842e0e1461027d5780636352211e1461029957806370a08231146102c9578063715018a6146102f957610158565b806301ffc9a71461015d57806306fdde031461018d578063081812fc146101ab578063095ea7b3146101db578063099c6433146101f757806314388b4014610227575b600080fd5b61017760048036038101906101729190612238565b6104a7565b6040516101849190612280565b60405180910390f35b610195610589565b6040516101a2919061232b565b60405180910390f35b6101c560048036038101906101c09190612383565b61061b565b6040516101d291906123f1565b60405180910390f35b6101f560048036038101906101f09190612438565b610661565b005b610211600480360381019061020c9190612478565b610778565b60405161021e919061232b565b60405180910390f35b610241600480360381019061023c91906125da565b610818565b60405161024e919061232b565b60405180910390f35b61025f6108ce565b005b61027b60048036038101906102769190612623565b610a12565b005b61029760048036038101906102929190612623565b610a72565b005b6102b360048036038101906102ae9190612383565b610a92565b6040516102c091906123f1565b60405180910390f35b6102e360048036038101906102de9190612478565b610b43565b6040516102f09190612685565b60405180910390f35b610301610bfa565b005b61031d60048036038101906103189190612478565b610c0e565b60405161032a919061232b565b60405180910390f35b61034d60048036038101906103489190612383565b610d6d565b60405161035a919061232b565b60405180910390f35b61036b610e0d565b60405161037891906123f1565b60405180910390f35b610389610e37565b604051610396919061232b565b60405180910390f35b6103b960048036038101906103b491906126cc565b610ec9565b005b6103d560048036038101906103d0919061270c565b610edf565b005b6103f160048036038101906103ec9190612784565b610f17565b005b61040d60048036038101906104089190612881565b610fdd565b005b61042960048036038101906104249190612383565b61103f565b604051610436919061232b565b60405180910390f35b61045960048036038101906104549190612904565b611151565b6040516104669190612280565b60405180910390f35b61048960048036038101906104849190612784565b6111e5565b005b6104a560048036038101906104a09190612478565b611387565b005b60007f80ac58cd000000000000000000000000000000000000000000000000000000007bffffffffffffffffffffffffffffffffffffffffffffffffffffffff1916827bffffffffffffffffffffffffffffffffffffffffffffffffffffffff1916148061057257507f5b5e139f000000000000000000000000000000000000000000000000000000007bffffffffffffffffffffffffffffffffffffffffffffffffffffffff1916827bffffffffffffffffffffffffffffffffffffffffffffffffffffffff1916145b8061058257506105818261140a565b5b9050919050565b60606000805461059890612973565b80601f01602080910402602001604051908101604052809291908181526020018280546105c490612973565b80156106115780601f106105e657610100808354040283529160200191610611565b820191906000526020600020905b8154815290600101906020018083116105f457829003601f168201915b5050505050905090565b600061062682611474565b6004600083815260200190815260200160002060009054906101000a900473ffffffffffffffffffffffffffffffffffffffff169050919050565b600061066c82610a92565b90508073ffffffffffffffffffffffffffffffffffffffff168373ffffffffffffffffffffffffffffffffffffffff16036106dc576040517f08c379a00000000000000000000000000000000000000000000000000000000081526004016106d390612a16565b60405180910390fd5b8073ffffffffffffffffffffffffffffffffffffffff166106fb6114bf565b73ffffffffffffffffffffffffffffffffffffffff16148061072a5750610729816107246114bf565b611151565b5b610769576040517f08c379a000000000000000000000000000000000000000000000000000000000815260040161076090612aa8565b60405180910390fd5b61077383836114c7565b505050565b600b602052806000526040600020600091509050805461079790612973565b80601f01602080910402602001604051908101604052809291908181526020018280546107c390612973565b80156108105780601f106107e557610100808354040283529160200191610810565b820191906000526020600020905b8154815290600101906020018083116107f357829003601f168201915b505050505081565b600a81805160208101820180518482526020830160208501208183528095505050505050600091509050805461084d90612973565b80601f016020809104026020016040519081016040528092919081815260200182805461087990612973565b80156108c65780601f1061089b576101008083540402835291602001916108c6565b820191906000526020600020905b8154815290600101906020018083116108a957829003601f168201915b505050505081565b6000600c80546108dd90612973565b80601f016020809104026020016040519081016040528092919081815260200182805461090990612973565b80156109565780601f1061092b57610100808354040283529160200191610956565b820191906000526020600020905b81548152906001019060200180831161093957829003601f168201915b5050505050905060006008600081548092919061097290612af7565b9190505590506109823382611580565b61098c8183611759565b6040518060400160405280600781526020017f44656661756c7400000000000000000000000000000000000000000000000000815250600b60003373ffffffffffffffffffffffffffffffffffffffff1673ffffffffffffffffffffffffffffffffffffffff1681526020019081526020016000209081610a0d9190612ceb565b505050565b610a23610a1d6114bf565b826117c6565b610a62576040517f08c379a0000000000000000000000000000000000000000000000000000000008152600401610a5990612e2f565b60405180910390fd5b610a6d83838361185b565b505050565b610a8d83838360405180602001604052806000815250610fdd565b505050565b6000806002600084815260200190815260200160002060009054906101000a900473ffffffffffffffffffffffffffffffffffffffff169050600073ffffffffffffffffffffffffffffffffffffffff168173ffffffffffffffffffffffffffffffffffffffff1603610b3a576040517f08c379a0000000000000000000000000000000000000000000000000000000008152600401610b3190612e9b565b60405180910390fd5b80915050919050565b60008073ffffffffffffffffffffffffffffffffffffffff168273ffffffffffffffffffffffffffffffffffffffff1603610bb3576040517f08c379a0000000000000000000000000000000000000000000000000000000008152600401610baa90612f2d565b60405180910390fd5b600360008373ffffffffffffffffffffffffffffffffffffffff1673ffffffffffffffffffffffffffffffffffffffff168152602001908152602001600020549050919050565b610c02611ac1565b610c0c6000611b3f565b565b60606000600b60008473ffffffffffffffffffffffffffffffffffffffff1673ffffffffffffffffffffffffffffffffffffffff1681526020019081526020016000208054610c5c90612973565b905011610c9e576040517f08c379a0000000000000000000000000000000000000000000000000000000008152600401610c9590612f99565b60405180910390fd5b600b60008373ffffffffffffffffffffffffffffffffffffffff1673ffffffffffffffffffffffffffffffffffffffff1681526020019081526020016000208054610ce890612973565b80601f0160208091040260200160405190810160405280929190818152602001828054610d1490612973565b8015610d615780601f10610d3657610100808354040283529160200191610d61565b820191906000526020600020905b815481529060010190602001808311610d4457829003601f168201915b50505050509050919050565b60096020528060005260406000206000915090508054610d8c90612973565b80601f0160208091040260200160405190810160405280929190818152602001828054610db890612973565b8015610e055780601f10610dda57610100808354040283529160200191610e05565b820191906000526020600020905b815481529060010190602001808311610de857829003601f168201915b505050505081565b6000600760009054906101000a900473ffffffffffffffffffffffffffffffffffffffff16905090565b606060018054610e4690612973565b80601f0160208091040260200160405190810160405280929190818152602001828054610e7290612973565b8015610ebf5780601f10610e9457610100808354040283529160200191610ebf565b820191906000526020600020905b815481529060010190602001808311610ea257829003601f168201915b5050505050905090565b610edb610ed46114bf565b8383611c05565b5050565b610ee7611ac1565b80600a83604051610ef89190612ff5565b90815260200160405180910390209081610f129190612ceb565b505050565b610f1f611ac1565b6000600a82604051610f319190612ff5565b90815260200160405180910390208054610f4a90612973565b905011610f8c576040517f08c379a0000000000000000000000000000000000000000000000000000000008152600401610f8390613058565b60405180910390fd5b80600b60008473ffffffffffffffffffffffffffffffffffffffff1673ffffffffffffffffffffffffffffffffffffffff1681526020019081526020016000209081610fd89190612ceb565b505050565b610fee610fe86114bf565b836117c6565b61102d576040517f08c379a000000000000000000000000000000000000000000000000000000000815260040161102490612e2f565b60405180910390fd5b61103984848484611d71565b50505050565b606061104a82611474565b600060066000848152602001908152602001600020805461106a90612973565b80601f016020809104026020016040519081016040528092919081815260200182805461109690612973565b80156110e35780601f106110b8576101008083540402835291602001916110e3565b820191906000526020600020905b8154815290600101906020018083116110c657829003601f168201915b5050505050905060006110f4611dcd565b9050600081510361110957819250505061114c565b60008251111561113e578082604051602001611126929190613078565b6040516020818303038152906040529250505061114c565b61114784611de4565b925050505b919050565b6000600560008473ffffffffffffffffffffffffffffffffffffffff1673ffffffffffffffffffffffffffffffffffffffff16815260200190815260200160002060008373ffffffffffffffffffffffffffffffffffffffff1673ffffffffffffffffffffffffffffffffffffffff16815260200190815260200160002060009054906101000a900460ff16905092915050565b6111ed611ac1565b6000600a826040516111ff9190612ff5565b9081526020016040518091039020805461121890612973565b90501161125a576040517f08c379a000000000000000000000000000000000000000000000000000000000815260040161125190613058565b60405180910390fd5b6000600a8260405161126c9190612ff5565b9081526020016040518091039020805461128590612973565b80601f01602080910402602001604051908101604052809291908181526020018280546112b190612973565b80156112fe5780601f106112d3576101008083540402835291602001916112fe565b820191906000526020600020905b8154815290600101906020018083116112e157829003601f168201915b5050505050905060006008600081548092919061131a90612af7565b91905055905061132a8482611580565b6113348183611759565b82600b60008673ffffffffffffffffffffffffffffffffffffffff1673ffffffffffffffffffffffffffffffffffffffff16815260200190815260200160002090816113809190612ceb565b5050505050565b61138f611ac1565b600073ffffffffffffffffffffffffffffffffffffffff168173ffffffffffffffffffffffffffffffffffffffff16036113fe576040517f08c379a00000000000000000000000000000000000000000000000000000000081526004016113f59061310e565b60405180910390fd5b61140781611b3f565b50565b60007f01ffc9a7000000000000000000000000000000000000000000000000000000007bffffffffffffffffffffffffffffffffffffffffffffffffffffffff1916827bffffffffffffffffffffffffffffffffffffffffffffffffffffffff1916149050919050565b61147d81611e4c565b6114bc576040517f08c379a00000000000000000000000000000000000000000000000000000000081526004016114b390612e9b565b60405180910390fd5b50565b600033905090565b816004600083815260200190815260200160002060006101000a81548173ffffffffffffffffffffffffffffffffffffffff021916908373ffffffffffffffffffffffffffffffffffffffff160217905550808273ffffffffffffffffffffffffffffffffffffffff1661153a83610a92565b73ffffffffffffffffffffffffffffffffffffffff167f8c5be1e5ebec7d5bd14f71427d1e84f3dd0314c0f7b2291e5b200ac8c7c3b92560405160405180910390a45050565b600073ffffffffffffffffffffffffffffffffffffffff168273ffffffffffffffffffffffffffffffffffffffff16036115ef576040517f08c379a00000000000000000000000000000000000000000000000000000000081526004016115e69061317a565b60405180910390fd5b6115f881611e4c565b15611638576040517f08c379a000000000000000000000000000000000000000000000000000000000815260040161162f906131e6565b60405180910390fd5b61164460008383611eb8565b6001600360008473ffffffffffffffffffffffffffffffffffffffff1673ffffffffffffffffffffffffffffffffffffffff16815260200190815260200160002060008282546116949190613206565b92505081905550816002600083815260200190815260200160002060006101000a81548173ffffffffffffffffffffffffffffffffffffffff021916908373ffffffffffffffffffffffffffffffffffffffff160217905550808273ffffffffffffffffffffffffffffffffffffffff16600073ffffffffffffffffffffffffffffffffffffffff167fddf252ad1be2c89b69c2b068fc378daa952ba7f163c4a11628f55a4df523b3ef60405160405180910390a461175560008383611ebd565b5050565b61176282611e4c565b6117a1576040517f08c379a0000000000000000000000000000000000000000000000000000000008152600401611798906132ac565b60405180910390fd5b806006600084815260200190815260200160002090816117c19190612ceb565b505050565b6000806117d283610a92565b90508073ffffffffffffffffffffffffffffffffffffffff168473ffffffffffffffffffffffffffffffffffffffff16148061181457506118138185611151565b5b8061185257508373ffffffffffffffffffffffffffffffffffffffff1661183a8461061b565b73ffffffffffffffffffffffffffffffffffffffff16145b91505092915050565b8273ffffffffffffffffffffffffffffffffffffffff1661187b82610a92565b73ffffffffffffffffffffffffffffffffffffffff16146118d1576040517f08c379a00000000000000000000000000000000000000000000000000000000081526004016118c89061333e565b60405180910390fd5b600073ffffffffffffffffffffffffffffffffffffffff168273ffffffffffffffffffffffffffffffffffffffff1603611940576040517f08c379a0000000000000000000000000000000000000000000000000000000008152600401611937906133d0565b60405180910390fd5b61194b838383611eb8565b6119566000826114c7565b6001600360008573ffffffffffffffffffffffffffffffffffffffff1673ffffffffffffffffffffffffffffffffffffffff16815260200190815260200160002060008282546119a691906133f0565b925050819055506001600360008473ffffffffffffffffffffffffffffffffffffffff1673ffffffffffffffffffffffffffffffffffffffff16815260200190815260200160002060008282546119fd9190613206565b92505081905550816002600083815260200190815260200160002060006101000a81548173ffffffffffffffffffffffffffffffffffffffff021916908373ffffffffffffffffffffffffffffffffffffffff160217905550808273ffffffffffffffffffffffffffffffffffffffff168473ffffffffffffffffffffffffffffffffffffffff167fddf252ad1be2c89b69c2b068fc378daa952ba7f163c4a11628f55a4df523b3ef60405160405180910390a4611abc838383611ebd565b505050565b611ac96114bf565b73ffffffffffffffffffffffffffffffffffffffff16611ae7610e0d565b73ffffffffffffffffffffffffffffffffffffffff1614611b3d576040517f08c379a0000000000000000000000000000000000000000000000000000000008152600401611b3490613470565b60405180910390fd5b565b6000600760009054906101000a900473ffffffffffffffffffffffffffffffffffffffff16905081600760006101000a81548173ffffffffffffffffffffffffffffffffffffffff021916908373ffffffffffffffffffffffffffffffffffffffff1602179055508173ffffffffffffffffffffffffffffffffffffffff168173ffffffffffffffffffffffffffffffffffffffff167f8be0079c531659141344cd1fd0a4f28419497f9722a3daafe3b4186f6b6457e060405160405180910390a35050565b8173ffffffffffffffffffffffffffffffffffffffff168373ffffffffffffffffffffffffffffffffffffffff1603611c73576040517f08c379a0000000000000000000000000000000000000000000000000000000008152600401611c6a906134dc565b60405180910390fd5b80600560008573ffffffffffffffffffffffffffffffffffffffff1673ffffffffffffffffffffffffffffffffffffffff16815260200190815260200160002060008473ffffffffffffffffffffffffffffffffffffffff1673ffffffffffffffffffffffffffffffffffffffff16815260200190815260200160002060006101000a81548160ff0219169083151502179055508173ffffffffffffffffffffffffffffffffffffffff168373ffffffffffffffffffffffffffffffffffffffff167f17307eab39ab6107e8899845ad3d59bd9653f200f220920489ca2b5937696c3183604051611d649190612280565b60405180910390a3505050565b611d7c84848461185b565b611d8884848484611ec2565b611dc7576040517f08c379a0000000000000000000000000000000000000000000000000000000008152600401611dbe9061356e565b60405180910390fd5b50505050565b606060405180602001604052806000815250905090565b6060611def82611474565b6000611df9611dcd565b90506000815111611e195760405180602001604052806000815250611e44565b80611e2384612049565b604051602001611e34929190613078565b6040516020818303038152906040525b915050919050565b60008073ffffffffffffffffffffffffffffffffffffffff166002600084815260200190815260200160002060009054906101000a900473ffffffffffffffffffffffffffffffffffffffff1673ffffffffffffffffffffffffffffffffffffffff1614159050919050565b505050565b505050565b6000611ee38473ffffffffffffffffffffffffffffffffffffffff166121a9565b1561203c578373ffffffffffffffffffffffffffffffffffffffff1663150b7a02611f0c6114bf565b8786866040518563ffffffff1660e01b8152600401611f2e94939291906135e3565b6020604051808303816000875af1925050508015611f6a57506040513d601f19601f82011682018060405250810190611f679190613644565b60015b611fec573d8060008114611f9a576040519150601f19603f3d011682016040523d82523d6000602084013e611f9f565b606091505b506000815103611fe4576040517f08c379a0000000000000000000000000000000000000000000000000000000008152600401611fdb9061356e565b60405180910390fd5b805181602001fd5b63150b7a0260e01b7bffffffffffffffffffffffffffffffffffffffffffffffffffffffff1916817bffffffffffffffffffffffffffffffffffffffffffffffffffffffff191614915050612041565b600190505b949350505050565b606060008203612090576040518060400160405280600181526020017f300000000000000000000000000000000000000000000000000000000000000081525090506121a4565b600082905060005b600082146120c25780806120ab90612af7565b915050600a826120bb91906136a0565b9150612098565b60008167ffffffffffffffff8111156120de576120dd6124af565b5b6040519080825280601f01601f1916602001820160405280156121105781602001600182028036833780820191505090505b5090505b6000851461219d5760018261212991906133f0565b9150600a8561213891906136d1565b60306121449190613206565b60f81b81838151811061215a57612159613702565b5b60200101907effffffffffffffffffffffffffffffffffffffffffffffffffffffffffffff1916908160001a905350600a8561219691906136a0565b9450612114565b8093505050505b919050565b6000808273ffffffffffffffffffffffffffffffffffffffff163b119050919050565b6000604051905090565b600080fd5b600080fd5b60007fffffffff0000000000000000000000000000000000000000000000000000000082169050919050565b612215816121e0565b811461222057600080fd5b50565b6000813590506122328161220c565b92915050565b60006020828403121561224e5761224d6121d6565b5b600061225c84828501612223565b91505092915050565b60008115159050919050565b61227a81612265565b82525050565b60006020820190506122956000830184612271565b92915050565b600081519050919050565b600082825260208201905092915050565b60005b838110156122d55780820151818401526020810190506122ba565b60008484015250505050565b6000601f19601f8301169050919050565b60006122fd8261229b565b61230781856122a6565b93506123178185602086016122b7565b612320816122e1565b840191505092915050565b6000602082019050818103600083015261234581846122f2565b905092915050565b6000819050919050565b6123608161234d565b811461236b57600080fd5b50565b60008135905061237d81612357565b92915050565b600060208284031215612399576123986121d6565b5b60006123a78482850161236e565b91505092915050565b600073ffffffffffffffffffffffffffffffffffffffff82169050919050565b60006123db826123b0565b9050919050565b6123eb816123d0565b82525050565b600060208201905061240660008301846123e2565b92915050565b612415816123d0565b811461242057600080fd5b50565b6000813590506124328161240c565b92915050565b6000806040838503121561244f5761244e6121d6565b5b600061245d85828601612423565b925050602061246e8582860161236e565b9150509250929050565b60006020828403121561248e5761248d6121d6565b5b600061249c84828501612423565b91505092915050565b600080fd5b600080fd5b7f4e487b7100000000000000000000000000000000000000000000000000000000600052604160045260246000fd5b6124e7826122e1565b810181811067ffffffffffffffff82111715612506576125056124af565b5b80604052505050565b60006125196121cc565b905061252582826124de565b919050565b600067ffffffffffffffff821115612545576125446124af565b5b61254e826122e1565b9050602081019050919050565b82818337600083830152505050565b600061257d6125788461252a565b61250f565b905082815260208101848484011115612599576125986124aa565b5b6125a484828561255b565b509392505050565b600082601f8301126125c1576125c06124a5565b5b81356125d184826020860161256a565b91505092915050565b6000602082840312156125f0576125ef6121d6565b5b600082013567ffffffffffffffff81111561260e5761260d6121db565b5b61261a848285016125ac565b91505092915050565b60008060006060848603121561263c5761263b6121d6565b5b600061264a86828701612423565b935050602061265b86828701612423565b925050604061266c8682870161236e565b9150509250925092565b61267f8161234d565b82525050565b600060208201905061269a6000830184612676565b92915050565b6126a981612265565b81146126b457600080fd5b50565b6000813590506126c6816126a0565b92915050565b600080604083850312156126e3576126e26121d6565b5b60006126f185828601612423565b9250506020612702858286016126b7565b9150509250929050565b60008060408385031215612723576127226121d6565b5b600083013567ffffffffffffffff811115612741576127406121db565b5b61274d858286016125ac565b925050602083013567ffffffffffffffff81111561276e5761276d6121db565b5b61277a858286016125ac565b9150509250929050565b6000806040838503121561279b5761279a6121d6565b5b60006127a985828601612423565b925050602083013567ffffffffffffffff8111156127ca576127c96121db565b5b6127d6858286016125ac565b9150509250929050565b600067ffffffffffffffff8211156127fb576127fa6124af565b5b612804826122e1565b9050602081019050919050565b600061282461281f846127e0565b61250f565b9050828152602081018484840111156128405761283f6124aa565b5b61284b84828561255b565b509392505050565b600082601f830112612868576128676124a5565b5b8135612878848260208601612811565b91505092915050565b6000806000806080858703121561289b5761289a6121d6565b5b60006128a987828801612423565b94505060206128ba87828801612423565b93505060406128cb8782880161236e565b925050606085013567ffffffffffffffff8111156128ec576128eb6121db565b5b6128f887828801612853565b91505092959194509250565b6000806040838503121561291b5761291a6121d6565b5b600061292985828601612423565b925050602061293a85828601612423565b9150509250929050565b7f4e487b7100000000000000000000000000000000000000000000000000000000600052602260045260246000fd5b6000600282049050600182168061298b57607f821691505b60208210810361299e5761299d612944565b5b50919050565b7f4552433732313a20617070726f76616c20746f2063757272656e74206f776e6560008201527f7200000000000000000000000000000000000000000000000000000000000000602082015250565b6000612a006021836122a6565b9150612a0b826129a4565b604082019050919050565b60006020820190508181036000830152612a2f816129f3565b9050919050565b7f4552433732313a20617070726f76652063616c6c6572206973206e6f7420746f60008201527f6b656e206f776e6572206e6f7220617070726f76656420666f7220616c6c0000602082015250565b6000612a92603e836122a6565b9150612a9d82612a36565b604082019050919050565b60006020820190508181036000830152612ac181612a85565b9050919050565b7f4e487b7100000000000000000000000000000000000000000000000000000000600052601160045260246000fd5b6000612b028261234d565b91507fffffffffffffffffffffffffffffffffffffffffffffffffffffffffffffffff8203612b3457612b33612ac8565b5b600182019050919050565b60008190508160005260206000209050919050565b60006020601f8301049050919050565b600082821b905092915050565b600060088302612ba17fffffffffffffffffffffffffffffffffffffffffffffffffffffffffffffffff82612b64565b612bab8683612b64565b95508019841693508086168417925050509392505050565b6000819050919050565b6000612be8612be3612bde8461234d565b612bc3565b61234d565b9050919050565b6000819050919050565b612c0283612bcd565b612c16612c0e82612bef565b848454612b71565b825550505050565b600090565b612c2b612c1e565b612c36818484612bf9565b505050565b5b81811015612c5a57612c4f600082612c23565b600181019050612c3c565b5050565b601f821115612c9f57612c7081612b3f565b612c7984612b54565b81016020851015612c88578190505b612c9c612c9485612b54565b830182612c3b565b50505b505050565b600082821c905092915050565b6000612cc260001984600802612ca4565b1980831691505092915050565b6000612cdb8383612cb1565b9150826002028217905092915050565b612cf48261229b565b67ffffffffffffffff811115612d0d57612d0c6124af565b5b612d178254612973565b612d22828285612c5e565b600060209050601f831160018114612d555760008415612d43578287015190505b612d4d8582612ccf565b865550612db5565b601f198416612d6386612b3f565b60005b82811015612d8b57848901518255600182019150602085019450602081019050612d66565b86831015612da85784890151612da4601f891682612cb1565b8355505b6001600288020188555050505b505050505050565b7f4552433732313a2063616c6c6572206973206e6f7420746f6b656e206f776e6560008201527f72206e6f7220617070726f766564000000000000000000000000000000000000602082015250565b6000612e19602e836122a6565b9150612e2482612dbd565b604082019050919050565b60006020820190508181036000830152612e4881612e0c565b9050919050565b7f4552433732313a20696e76616c696420746f6b656e2049440000000000000000600082015250565b6000612e856018836122a6565b9150612e9082612e4f565b602082019050919050565b60006020820190508181036000830152612eb481612e78565b9050919050565b7f4552433732313a2061646472657373207a65726f206973206e6f74206120766160008201527f6c6964206f776e65720000000000000000000000000000000000000000000000602082015250565b6000612f176029836122a6565b9150612f2282612ebb565b604082019050919050565b60006020820190508181036000830152612f4681612f0a565b9050919050565b7f4e6f206d656d626572207479706520666f756e6420666f7220757365722e0000600082015250565b6000612f83601e836122a6565b9150612f8e82612f4d565b602082019050919050565b60006020820190508181036000830152612fb281612f76565b9050919050565b600081905092915050565b6000612fcf8261229b565b612fd98185612fb9565b9350612fe98185602086016122b7565b80840191505092915050565b60006130018284612fc4565b915081905092915050565b7f496d61676520666f72206d656d6265722074797065206e6f7420736574000000600082015250565b6000613042601d836122a6565b915061304d8261300c565b602082019050919050565b6000602082019050818103600083015261307181613035565b9050919050565b60006130848285612fc4565b91506130908284612fc4565b91508190509392505050565b7f4f776e61626c653a206e6577206f776e657220697320746865207a65726f206160008201527f6464726573730000000000000000000000000000000000000000000000000000602082015250565b60006130f86026836122a6565b91506131038261309c565b604082019050919050565b60006020820190508181036000830152613127816130eb565b9050919050565b7f4552433732313a206d696e7420746f20746865207a65726f2061646472657373600082015250565b60006131646020836122a6565b915061316f8261312e565b602082019050919050565b6000602082019050818103600083015261319381613157565b9050919050565b7f4552433732313a20746f6b656e20616c7265616479206d696e74656400000000600082015250565b60006131d0601c836122a6565b91506131db8261319a565b602082019050919050565b600060208201905081810360008301526131ff816131c3565b9050919050565b60006132118261234d565b915061321c8361234d565b925082820190508082111561323457613233612ac8565b5b92915050565b7f45524337323155524953746f726167653a2055524920736574206f66206e6f6e60008201527f6578697374656e7420746f6b656e000000000000000000000000000000000000602082015250565b6000613296602e836122a6565b91506132a18261323a565b604082019050919050565b600060208201905081810360008301526132c581613289565b9050919050565b7f4552433732313a207472616e736665722066726f6d20696e636f72726563742060008201527f6f776e6572000000000000000000000000000000000000000000000000000000602082015250565b60006133286025836122a6565b9150613333826132cc565b604082019050919050565b600060208201905081810360008301526133578161331b565b9050919050565b7f4552433732313a207472616e7366657220746f20746865207a65726f2061646460008201527f7265737300000000000000000000000000000000000000000000000000000000602082015250565b60006133ba6024836122a6565b91506133c58261335e565b604082019050919050565b600060208201905081810360008301526133e9816133ad565b9050919050565b60006133fb8261234d565b91506134068361234d565b925082820390508181111561341e5761341d612ac8565b5b92915050565b7f4f776e61626c653a2063616c6c6572206973206e6f7420746865206f776e6572600082015250565b600061345a6020836122a6565b915061346582613424565b602082019050919050565b600060208201905081810360008301526134898161344d565b9050919050565b7f4552433732313a20617070726f766520746f2063616c6c657200000000000000600082015250565b60006134c66019836122a6565b91506134d182613490565b602082019050919050565b600060208201905081810360008301526134f5816134b9565b9050919050565b7f4552433732313a207472616e7366657220746f206e6f6e20455243373231526560008201527f63656976657220696d706c656d656e7465720000000000000000000000000000602082015250565b60006135586032836122a6565b9150613563826134fc565b604082019050919050565b600060208201905081810360008301526135878161354b565b9050919050565b600081519050919050565b600082825260208201905092915050565b60006135b58261358e565b6135bf8185613599565b93506135cf8185602086016122b7565b6135d8816122e1565b840191505092915050565b60006080820190506135f860008301876123e2565b61360560208301866123e2565b6136126040830185612676565b818103606083015261362481846135aa565b905095945050505050565b60008151905061363e8161220c565b92915050565b60006020828403121561365a576136596121d6565b5b60006136688482850161362f565b91505092915050565b7f4e487b7100000000000000000000000000000000000000000000000000000000600052601260045260246000fd5b60006136ab8261234d565b91506136b68361234d565b9250826136c6576136c5613671565b5b828204905092915050565b60006136dc8261234d565b91506136e78361234d565b9250826136f7576136f6613671565b5b828206905092915050565b7f4e487b7100000000000000000000000000000000000000000000000000000000600052603260045260246000fdfea2646970667358221220f50e1dce6a574f314edaf839d1d6df7497b7bec8a0930ff69a918feb2e9f2fab64736f6c63430008140033a26469706673582212200ae78d563183794e6327f34ce5fa47da7805efcaa8f816e72daed097254826ee64736f6c63430008140033",
  "linkReferences": {},
  "deployedLinkReferences": {}
}