{"abi":[{"type":"function","name":"createNFTMembership","inputs":[{"name":"memberTypeNames","type":"string[]","internalType":"string[]"},{"name":"_executiveRoleNames","type":"string[]","internalType":"string[]"},{"name":"_defaultImageURL","type":"string","internalType":"string"},{"name":"POname","type":"string","internalType":"string"}],"outputs":[{"name":"","type":"address","internalType":"address"}],"stateMutability":"nonpayable"},{"type":"event","name":"ContractCreated","inputs":[{"name":"contractAddress","type":"address","indexed":false,"internalType":"address"},{"name":"memberTypeNames","type":"string[]","indexed":false,"internalType":"string[]"},{"name":"executiveRoleNames","type":"string[]","indexed":false,"internalType":"string[]"},{"name":"defaultImageURL","type":"string","indexed":false,"internalType":"string"},{"name":"POname","type":"string","indexed":false,"internalType":"string"}],"anonymous":false}],"bytecode":{"object":"0x608080604052346015576137da908161001b8239f35b600080fdfe6080604052600436101561001257600080fd5b60003560e01c63ccf4579b1461002757600080fd5b346101ca5760803660031901126101ca5760043567ffffffffffffffff81116101ca57610058903690600401610248565b60243567ffffffffffffffff81116101ca57610078903690600401610248565b60443567ffffffffffffffff81116101ca576100989036906004016101f5565b9160643567ffffffffffffffff81116101ca576100b99036906004016101f5565b9060405161343d8082019082821067ffffffffffffffff8311176101b4578291610113916103688439606081526101046100f6606083018761030e565b82810360208401528861030e565b906040818303910152876102cd565b03906000f09081156101a85761019d7fefa54c7f8503d9e1973bd6b06335f3029806d6a942402f66aa5a12ae758c722a9361018f6020976101816101739660018060a01b0316986040519788978b895260a08d8a015260a089019061030e565b90878203604089015261030e565b9085820360608701526102cd565b9083820360808501526102cd565b0390a1604051908152f35b6040513d6000823e3d90fd5b634e487b7160e01b600052604160045260246000fd5b600080fd5b6040519190601f01601f1916820167ffffffffffffffff8111838210176101b457604052565b81601f820112156101ca5780359067ffffffffffffffff82116101b457610225601f8301601f19166020016101cf565b92828452602083830101116101ca57816000926020809301838601378301015290565b9080601f830112156101ca5781359167ffffffffffffffff83116101b4578260051b906020806102798185016101cf565b809681520192820101918383116101ca5760208201905b83821061029f57505050505090565b813567ffffffffffffffff81116101ca576020916102c2878480948801016101f5565b815201910190610290565b919082519283825260005b8481106102f9575050826000602080949584010152601f8019910116010190565b806020809284010151828286010152016102d8565b9080602083519182815201916020808360051b8301019401926000915b83831061033a57505050505090565b9091929394602080610358600193601f1986820301875289516102cd565b9701930193019193929061032b56fe6080604052346108395761343d803803806100198161083e565b92833981016060828203126108395781516001600160401b03811161083957816100449184016108d6565b60208301519092906001600160401b03811161083957826100669183016108d6565b60408201519092906001600160401b038111610839576100869201610886565b916040906100938261083e565b600d81526c13595b58995c9cda1a5c139195609a1b60208201526100b68361083e565b600381526226a72360e91b6020820152815190916001600160401b0382116104445760005490600182811c9216801561082f575b60208310146104245781601f8493116107c0575b50602090601f831160011461075a5760009261074f575b50508160011b916000199060031b1c1916176000555b8051906001600160401b0382116104445760015490600182811c92168015610745575b60208310146104245781601f8493116106d5575b50602090601f831160011461066d57600092610662575b50508160011b916000199060031b1c1916176001555b60078054336001600160a01b0319821681179092556001600160a01b03167f8be0079c531659141344cd1fd0a4f28419497f9722a3daafe3b4186f6b6457e0600080a3600f805460ff60a01b191690556012805460ff1916600117905583516001600160401b03811161044457601154600181811c91168015610658575b602082101461042457601f81116105f3575b50806020601f821160011461058d57600091610582575b508160011b916000199060031b1c1916176011555b60005b8151811015610527576102618183610959565b5160008281526009602052849020815190916001600160401b03821161044457825490600182811c9216801561051d575b60208310146104245781601f8493116104ca575b50602090601f83116001146104655760009261045a575b50508160011b916000199060031b1c19161790555b6102f460206102e18385610959565b5181865193828580945193849201610863565b600a9082019081520301902085516001600160401b038111610444578154600181811c9116801561043a575b602082101461042457601f81116103dc575b506020601f82116001146103735790806001949392600091610368575b50600019600383901b1c191690841b1790555b0161024e565b90508801513861034f565b601f1982169083600052806000209160005b8a8282106103c457505091839160019695948794106103ab575b5050811b019055610362565b8a015160001960f88460031b161c19169055388061039f565b60018495602093958493015181550194019201610385565b826000526020600020601f830160051c8101916020841061041a575b601f0160051c01905b81811061040e5750610332565b60008155600101610401565b90915081906103f8565b634e487b7160e01b600052602260045260246000fd5b90607f1690610320565b634e487b7160e01b600052604160045260246000fd5b0151905038806102bd565b60008581528281209350601f198516905b8181106104b25750908460019594939210610499575b505050811b0190556102d2565b015160001960f88460031b161c1916905538808061048c565b92936020600181928786015181550195019301610476565b909150836000526020600020601f840160051c81019160208510610513575b90601f859493920160051c01905b81811061050457506102a6565b600081558493506001016104f7565b90915081906104e9565b91607f1691610292565b828460005b8151811015610574578061055a602061054760019486610959565b5181875193828580945193849201610863565b8101600d8152030190208260ff198254161790550161052c565b8251612ab990816109848239f35b905085015138610236565b601160009081528181209250601f198416905b8181106105db575090836001949392106105c2575b5050811b0160115561024b565b87015160001960f88460031b161c1916905538806105b5565b9192602060018192868c0151815501940192016105a0565b60116000527f31ecc21a745e3968a04e9570e4425bc18fa8019c68028196b546d1669c200c68601f830160051c8101916020841061064e575b601f0160051c01905b818110610642575061021f565b60008155600101610635565b909150819061062c565b90607f169061020d565b015190503880610179565b600160009081528281209350601f198516905b8181106106bd57509084600195949392106106a4575b505050811b0160015561018f565b015160001960f88460031b161c19169055388080610696565b92936020600181928786015181550195019301610680565b60016000529091507fb10e2d527612073b26eecdfd717e6a320cf44b4afac2b0732d9fcbe2b7fa0cf6601f840160051c8101916020851061073b575b90601f859493920160051c01905b81811061072c5750610162565b6000815584935060010161071f565b9091508190610711565b91607f169161014e565b015190503880610115565b60008080528281209350601f198516905b8181106107a8575090846001959493921061078f575b505050811b0160005561012b565b015160001960f88460031b161c19169055388080610781565b9293602060018192878601518155019501930161076b565b600080529091507f290decd9548b62a8d60345a988386fc84ba6bc95484008f6362f93160ef3e563601f840160051c81019160208510610825575b90601f859493920160051c01905b81811061081657506100fe565b60008155849350600101610809565b90915081906107fb565b91607f16916100ea565b600080fd5b6040519190601f01601f191682016001600160401b0381118382101761044457604052565b60005b8381106108765750506000910152565b8181015183820152602001610866565b81601f820112156108395780516001600160401b038111610444576108b4601f8201601f191660200161083e565b9281845260208284010111610839576108d39160208085019101610863565b90565b9080601f83011215610839578151916001600160401b038311610444578260051b9060208061090681850161083e565b809681520192820101918383116108395760208201905b83821061092c57505050505090565b81516001600160401b0381116108395760209161094e87848094880101610886565b81520191019061091d565b805182101561096d5760209160051b010190565b634e487b7160e01b600052603260045260246000fdfe608080604052600436101561001357600080fd5b60003560e01c90816301ffc9a714611d2a5750806306fdde0314611c85578063081812fc14611c67578063095ea7b314611ade578063099c643314611aa45780630b1ca49a1461193657806314388b40146118fb57806323b872dd146118d257806341295ee2146118a957806342842e0e1461187f57806347a5b3df146117c1578063607247081461179e5780636352211e1461176e57806370a08231146116d7578063715018a61461167a578063777821881461161f57806377bfe5fb146115f35780638cacb2f3146115925780638da5cb5b1461156957806391d64a951461118a57806395d89b41146110bd578063a22cb46514610feb578063aa0d4f6c14610ec6578063ad14f0f014610cb3578063ada52e2514610c2e578063b88d4fde14610bcd578063c413f83514610a0e578063c86e410414610698578063c87b56dd14610679578063c93949bf146105ed578063dc8b92e7146105a9578063e407bcbd14610580578063e985e9c514610525578063eacabe14146102b2578063f299dcaf146102785763f2fde38b146101ab57600080fd5b34610273576020366003190112610273576101c4611ddd565b6101cc6125d6565b6001600160a01b0316801561021f57600780546001600160a01b0319811683179091556001600160a01b03167f8be0079c531659141344cd1fd0a4f28419497f9722a3daafe3b4186f6b6457e0600080a3005b60405162461bcd60e51b815260206004820152602660248201527f4f776e61626c653a206e6577206f776e657220697320746865207a65726f206160448201526564647265737360d01b6064820152608490fd5b600080fd5b34610273576020366003190112610273576001600160a01b03610299611ddd565b16600052600e6020526020604060002054604051908152f35b34610273576102c036611fb2565b33600052600b6020526040600020604051906000908054906102e182611e09565b916001811690811561050d57506001146104d7575b5050600d815281900360200190205460ff1680156104c3575b61031890612212565b610374610365602060405161035461034d8651928481818a019561033d818389611d95565b8101600a81520301902054611e09565b1515612271565b604051809381928751928391611d95565b8101600a815203019020611e64565b916103978360085461038581612327565b60085561039281856126d9565b6127ee565b6001600160a01b0381166000908152600b6020526040902082516001600160401b0381116104ad576103d3816103cd8454611e09565b846121cd565b6020601f8211600114610435579161041682600080516020612a6483398151915297936104259560009161042a575b508160011b916000199060031b1c19161790565b90555b60405193849384612336565b0390a1005b905087015189610402565b601f1982169083600052806000209160005b818110610495575092610425949260019282600080516020612a648339815191529a961061047c575b5050811b019055610419565b88015160001960f88460031b161c191690558880610470565b9192602060018192868b015181550194019201610447565b634e487b7160e01b600052604160045260246000fd5b506010546001600160a01b0316331461030f565b90915060005260206000206000905b8282106104f957505081016020826102f6565b6001816020925484870152019101906104e6565b60ff19168552505080151502820190506020826102f6565b346102735760403660031901126102735761053e611ddd565b610546611df3565b9060018060a01b0316600052600560205260406000209060018060a01b0316600052602052602060ff604060002054166040519015158152f35b34610273576000366003190112610273576010546040516001600160a01b039091168152602090f35b3461027357602036600319011261027357600435600052600c6020526105e96105d56040600020611e64565b604051918291602083526020830190611db8565b0390f35b3461027357602036600319011261027357610606611ddd565b601054906001600160a01b038216610634576001600160a01b03166001600160a01b03199190911617601055005b60405162461bcd60e51b815260206004820152601d60248201527f456c656374696f6e20636f6e747261637420616c7265616479207365740000006044820152606490fd5b34610273576020366003190112610273576105e96105d560043561236c565b34610273576020366003190112610273576106b1611ddd565b600f546001600160a01b031633036109bb5760018060a01b0381169081600052600b6020526106e4604060002054611e09565b6109765760405190600082601154916106fc83611e09565b808352926001811690811561095757506001146108f7575b61072092500383611e43565b6107308260085461038581612327565b60125460ff16156107e8575081600080516020612a6483398151915292600052600b60205260406000206107648154611e09565b601f81116107c6575b5060126845786563757469766560b81b01905560ff1960125416601255610425604051928392835260606020840152600960608401526845786563757469766560b81b608084015260a0604084015260a0830190611db8565b6107e29082600052601f6020600020910160051c8101906120bf565b8461076d565b6107f06121a8565b92600052600b602052604060002083516001600160401b0381116104ad5761081c816103cd8454611e09565b6020601f821160011461088257908061085c92600080516020612a6483398151915297600092610877575b50508160011b916000199060031b1c19161790565b90555b61042561086a6121a8565b9260405193849384612336565b015190508780610847565b601f1982169583600052816000209660005b8181106108df575091600080516020612a6483398151915297918460019594106108c6575b505050811b01905561085f565b015160001960f88460031b161c191690558680806108b9565b83830151895560019098019760209384019301610894565b506011600090815290917f31ecc21a745e3968a04e9570e4425bc18fa8019c68028196b546d1669c200c685b81831061093b57505090602061072092820101610714565b6020919350806001915483858901015201910190918492610923565b6020925061072094915060ff191682840152151560051b820101610714565b60405162461bcd60e51b815260206004820152601960248201527f5573657220697320616c72656164792061206d656d6265722e000000000000006044820152606490fd5b60405162461bcd60e51b815260206004820152602560248201527f4f6e6c7920517569636b4a6f696e2063616e2063616c6c20746869732066756e60448201526431ba34b7b760d91b6064820152608490fd5b346102735760003660031901126102735733600052600b602052604060002060405190600090805490610a4082611e09565b9160018116908115610bb55750600114610b7f575b5050816020610a709383600d60ff955203019020541661202f565b610a786121a8565b33600052600b602052604060002081516001600160401b0381116104ad57610aa4816103cd8454611e09565b602092601f8211600114610b1c57610ad592938291600092610b115750508160011b916000199060031b1c19161790565b90555b7f09a1095331c1561d1cb7707e5a6132970399f28ffa804f7b0186d4c8d38b7d3b610425610b046121a8565b60405191829133836122bd565b015190508480610847565b601f1982169383600052806000209160005b868110610b675750836001959610610b4e575b505050811b019055610ad8565b015160001960f88460031b161c19169055838080610b41565b91926020600181928685015181550194019201610b2e565b90915060005260206000206000905b828210610ba15750508101816020610a55565b600181602092548487015201910190610b8e565b60ff1916855250508015150282019050816020610a55565b3461027357608036600319011261027357610be6611ddd565b610bee611df3565b606435916001600160401b038311610273573660238401121561027357610c22610c2c933690602481600401359101611f23565b91604435916122df565b005b3461027357602036600319011261027357610c47611ddd565b600f5460ff8160a01c16610c76576001600160a81b0319166001600160a01b0390911617600160a01b17600f55005b60405162461bcd60e51b8152602060048201526015602482015274145d5a58dad29bda5b88185b1c9958591e481cd95d605a1b6044820152606490fd5b3461027357610cc136611fb2565b33600052600b602052604060002060405190600090805490610ce282611e09565b9160018116908115610eae5750600114610e78575b5050600d815281900360200190205460ff168015610e64575b610d1990612212565b610d3461034d604051602081855161033d8183858a01611d95565b6001600160a01b0382166000908152600b60205260409020815192906001600160401b0384116104ad57610d7284610d6c8354611e09565b836121cd565b602093601f8111600114610ddf5780610dc2917f09a1095331c1561d1cb7707e5a6132970399f28ffa804f7b0186d4c8d38b7d3b96600091610dd457508160011b916000199060031b1c19161790565b90555b610425604051928392836122bd565b905085015187610402565b601f1981169482600052806000209560005b818110610e4c57509582916001937f09a1095331c1561d1cb7707e5a6132970399f28ffa804f7b0186d4c8d38b7d3b9810610e33575b5050811b019055610dc5565b86015160001960f88460031b161c191690558680610e27565b86830151885560019097019660209283019201610df1565b506010546001600160a01b03163314610d10565b90915060005260206000206000905b828210610e9a5750508101602082610cf7565b600181602092548487015201910190610e87565b60ff1916855250508015150282019050602082610cf7565b34610273576040366003190112610273576004356001600160401b03811161027357610ef6903690600401611f5a565b6024356001600160401b038111610273576020610f1a610f2e923690600401611f5a565b928160405193828580945193849201611d95565b8101600a81520301902081516001600160401b0381116104ad57610f56816103cd8454611e09565b602092601f8211600114610f8b57610f8792938291600092610b115750508160011b916000199060031b1c19161790565b9055005b601f1982169383600052806000209160005b868110610fd35750836001959610610fba575b505050811b019055005b015160001960f88460031b161c19169055838080610fb0565b91926020600181928685015181550194019201610f9d565b3461027357604036600319011261027357611004611ddd565b60243590811515809203610273576001600160a01b03169033821461107857336000526005602052604060002082600052602052604060002060ff1981541660ff83161790556040519081527f17307eab39ab6107e8899845ad3d59bd9653f200f220920489ca2b5937696c3160203392a3005b60405162461bcd60e51b815260206004820152601960248201527f4552433732313a20617070726f766520746f2063616c6c6572000000000000006044820152606490fd5b346102735760003660031901126102735760405160006001546110df81611e09565b80845290600181169081156111665750600114611107575b6105e9836105d581850382611e43565b600160009081527fb10e2d527612073b26eecdfd717e6a320cf44b4afac2b0732d9fcbe2b7fa0cf6939250905b80821061114c575090915081016020016105d56110f7565b919260018160209254838588010152019101909291611134565b60ff191660208086019190915291151560051b840190910191506105d590506110f7565b34610273576020366003190112610273576111a3611ddd565b33600052600b6020526040600020604051906000908054906111c482611e09565b9160018116908115611551575060011461151b575b50508160206111f49383600d60ff955203019020541661202f565b6001600160a01b03166000818152600b60205260408082209051815490929161121c82611e09565b916001811690811561150357506001146114cd575b5050600d815281900360200190205460ff16156114885733600052600e60205260406000205461129860409182516112698482611e43565b601f81527f6c617374446f776e677261646554696d655b6d73672e73656e6465725d3a2000602082015261262e565b6112cc81516112a78382611e43565b60118152700313637b1b5973a34b6b2b9ba30b6b81d1607d1b6020820152429061262e565b33600052600e602052806000205462093a808101809111611472574210611419576112f56121a8565b9180600052600b6020528160002083516001600160401b0381116104ad57611321816103cd8454611e09565b6020601f8211600114611392579080611372927fc9a463e6615743f33cbda242555a66473d4623f9672666284aadbe5cbc5c8bd8976000926108775750508160011b916000199060031b1c19161790565b90555b33600052600e6020524282600020558151908152336020820152a1005b601f1982169583600052816000209660005b8181106114015750917fc9a463e6615743f33cbda242555a66473d4623f9672666284aadbe5cbc5c8bd897918460019594106113e8575b505050811b019055611375565b015160001960f88460031b161c191690558680806113db565b838301518955600190980197602093840193016113a4565b5162461bcd60e51b815260206004820152602d60248201527f446f776e6772616465206c696d697420726561636865642e205472792061676160448201526c34b71034b71030903bb2b2b59760991b6064820152608490fd5b634e487b7160e01b600052601160045260246000fd5b60405162461bcd60e51b815260206004820152601960248201527f55736572206973206e6f7420616e206578656375746976652e000000000000006044820152606490fd5b90915060005260206000206000905b8282106114ef5750508101602082611231565b6001816020925484870152019101906114dc565b60ff1916855250508015150282019050602082611231565b90915060005260206000206000905b82821061153d57505081018160206111d9565b60018160209254848701520191019061152a565b60ff19168552505080151502820190508160206111d9565b34610273576000366003190112610273576007546040516001600160a01b039091168152602090f35b34610273576020366003190112610273576004356001600160401b0381116102735760ff6115dd60206115ca81943690600401611f5a565b8160405193828580945193849201611d95565b8101600d81520301902054166040519015158152f35b346102735760203660031901126102735760043560005260096020526105e96105d56040600020611e64565b34610273576020366003190112610273576001600160a01b03611640611ddd565b1680600052600b60205261166261165b604060002054611e09565b1515612073565b600052600b6020526105e96105d56040600020611e64565b34610273576000366003190112610273576116936125d6565b600780546001600160a01b031981169091556000906001600160a01b03167f8be0079c531659141344cd1fd0a4f28419497f9722a3daafe3b4186f6b6457e08280a3005b34610273576020366003190112610273576001600160a01b036116f8611ddd565b1680156117175760005260036020526020604060002054604051908152f35b60405162461bcd60e51b815260206004820152602960248201527f4552433732313a2061646472657373207a65726f206973206e6f7420612076616044820152683634b21037bbb732b960b91b6064820152608490fd5b3461027357602036600319011261027357602061178c600435612185565b6040516001600160a01b039091168152f35b3461027357600036600319011261027357602060ff601254166040519015158152f35b34610273576020366003190112610273576001600160a01b036117e2611ddd565b16600052600b6020526020604060002060405160009180549061180482611e09565b91600181169081156118685750600114611834575b5050828183600d60ff95520301902054166040519015158152f35b909250600052826000206000905b838210611856575050908101908281611819565b80548383015290840190600101611842565b60ff19168452505080151502810191508281611819565b3461027357610c2c61189036611f78565b90604051926118a0602085611e43565b600084526122df565b3461027357600036600319011261027357600f546040516001600160a01b039091168152602090f35b3461027357610c2c6118e336611f78565b916118f66118f184336123b8565b6120d6565b612431565b34610273576020366003190112610273576004356001600160401b038111610273576105d561036560206115ca6105e9943690600401611f5a565b346102735760203660031901126102735761194f611ddd565b33600052600b60205260406000206040519060009080549061197082611e09565b9160018116908115611a8a5750600114611a52575b5050916119c360ff836020809587600d7f6e76fb4c77256006d9c38ec7d82b45a8c8f3c27b1d6766fffc42dfb8de684492995203019020541661202f565b6001600160a01b03166000818152600b835260409020546119e79061165b90611e09565b80600052600b825260406000206119fe8154611e09565b9081611a10575b5050604051908152a1005b81601f60009311600114611a285750555b8380611a05565b818352848320611a4391601f0160051c8101906001016120bf565b80825281848120915555611a21565b90915060005260206000206000905b828210611a7657505081016119c360ff611985565b600181602092548487015201910190611a61565b60ff19168552505080151502820190506119c360ff611985565b34610273576020366003190112610273576001600160a01b03611ac5611ddd565b16600052600b6020526105e96105d56040600020611e64565b3461027357604036600319011261027357611af7611ddd565b602435906001600160a01b03611b0c83612185565b6001600160a01b039092169116818114611c1857803314908115611bf3575b5015611b8857600082815260046020526040902080546001600160a01b031916821790556001600160a01b03611b6083612185565b167f8c5be1e5ebec7d5bd14f71427d1e84f3dd0314c0f7b2291e5b200ac8c7c3b925600080a4005b60405162461bcd60e51b815260206004820152603e60248201527f4552433732313a20617070726f76652063616c6c6572206973206e6f7420746f60448201527f6b656e206f776e6572206e6f7220617070726f76656420666f7220616c6c00006064820152608490fd5b600090815260056020908152604080832033845290915290205460ff16905083611b2b565b60405162461bcd60e51b815260206004820152602160248201527f4552433732313a20617070726f76616c20746f2063757272656e74206f776e656044820152603960f91b6064820152608490fd5b3461027357602036600319011261027357602061178c600435611ff1565b346102735760003660031901126102735760405160008054611ca681611e09565b80845290600181169081156111665750600114611ccd576105e9836105d581850382611e43565b60008080527f290decd9548b62a8d60345a988386fc84ba6bc95484008f6362f93160ef3e563939250905b808210611d10575090915081016020016105d56110f7565b919260018160209254838588010152019101909291611cf8565b34610273576020366003190112610273576004359063ffffffff60e01b8216809203610273576020916380ac58cd60e01b8114908115611d84575b8115611d73575b5015158152f35b6301ffc9a760e01b14905083611d6c565b635b5e139f60e01b81149150611d65565b60005b838110611da85750506000910152565b8181015183820152602001611d98565b90602091611dd181518092818552858086019101611d95565b601f01601f1916010190565b600435906001600160a01b038216820361027357565b602435906001600160a01b038216820361027357565b90600182811c92168015611e39575b6020831014611e2357565b634e487b7160e01b600052602260045260246000fd5b91607f1691611e18565b90601f801991011681019081106001600160401b038211176104ad57604052565b9060405191826000825492611e7884611e09565b8084529360018116908115611ee65750600114611e9f575b50611e9d92500383611e43565b565b90506000929192526020600020906000915b818310611eca575050906020611e9d9282010138611e90565b6020919350806001915483858901015201910190918492611eb1565b905060209250611e9d94915060ff191682840152151560051b82010138611e90565b6001600160401b0381116104ad57601f01601f191660200190565b929192611f2f82611f08565b91611f3d6040519384611e43565b829481845281830111610273578281602093846000960137010152565b9080601f8301121561027357816020611f7593359101611f23565b90565b6060906003190112610273576004356001600160a01b038116810361027357906024356001600160a01b0381168103610273579060443590565b906040600319830112610273576004356001600160a01b03811681036102735791602435906001600160401b03821161027357611f7591600401611f5a565b600081815260026020526040902054612014906001600160a01b03161515612139565b6000908152600460205260409020546001600160a01b031690565b1561203657565b60405162461bcd60e51b81526020600482015260156024820152744e6f7420616e2065786563757469766520726f6c6560581b6044820152606490fd5b1561207a57565b60405162461bcd60e51b815260206004820152601e60248201527f4e6f206d656d626572207479706520666f756e6420666f7220757365722e00006044820152606490fd5b8181106120ca575050565b600081556001016120bf565b156120dd57565b60405162461bcd60e51b815260206004820152602e60248201527f4552433732313a2063616c6c6572206973206e6f7420746f6b656e206f776e6560448201526d1c881b9bdc88185c1c1c9bdd995960921b6064820152608490fd5b1561214057565b60405162461bcd60e51b815260206004820152601860248201527f4552433732313a20696e76616c696420746f6b656e20494400000000000000006044820152606490fd5b6000908152600260205260409020546001600160a01b0316611f75811515612139565b604051906121b7604083611e43565b6007825266111959985d5b1d60ca1b6020830152565b9190601f81116121dc57505050565b611e9d926000526020600020906020601f840160051c83019310612208575b601f0160051c01906120bf565b90915081906121fb565b1561221957565b60405162461bcd60e51b815260206004820152602a60248201527f4e6f7420616e2065786563757469766520726f6c65206f7220656c656374696f6044820152691b8818dbdb9d1c9858dd60b21b6064820152608490fd5b1561227857565b60405162461bcd60e51b815260206004820152601d60248201527f496d61676520666f72206d656d6265722074797065206e6f74207365740000006044820152606490fd5b6001600160a01b039091168152604060208201819052611f7592910190611db8565b906123039392916122f36118f184336123b8565b6122fe838383612431565b612937565b1561230a57565b60405162461bcd60e51b81528061232360048201612686565b0390fd5b60001981146114725760010190565b6001600160a01b039091168152606060208201819052611f7593919261235e91840190611db8565b916040818403910152611db8565b60008181526002602052604090205461238f906001600160a01b03161515612139565b60005260066020526123a46040600020611e64565b60006040516123b4602082611e43565b5290565b906001600160a01b036123ca82612185565b6001600160a01b039093169216828114929190831561240a575b5082156123f057505090565b9091506001600160a01b039061240590611ff1565b161490565b909250600052600560205260406000208160005260205260ff6040600020541691386123e4565b9061243b83612185565b6001600160a01b039283169216829003612583576001600160a01b031690811561253257600083815260046020526040812080546001600160a01b031916905583906001600160a01b0361248e83612185565b167f8c5be1e5ebec7d5bd14f71427d1e84f3dd0314c0f7b2291e5b200ac8c7c3b9258280a48060005260036020526040600020805490600019820191821161147257558160005260036020526040600020805490600182018092116114725755600083815260026020526040812080546001600160a01b031916841790557fddf252ad1be2c89b69c2b068fc378daa952ba7f163c4a11628f55a4df523b3ef9080a4565b60405162461bcd60e51b8152602060048201526024808201527f4552433732313a207472616e7366657220746f20746865207a65726f206164646044820152637265737360e01b6064820152608490fd5b60405162461bcd60e51b815260206004820152602560248201527f4552433732313a207472616e736665722066726f6d20696e636f72726563742060448201526437bbb732b960d91b6064820152608490fd5b6007546001600160a01b031633036125ea57565b606460405162461bcd60e51b815260206004820152602060248201527f4f776e61626c653a2063616c6c6572206973206e6f7420746865206f776e65726044820152fd5b600091908291612673604051809261265f60208301956309710a9d60e41b8752604060248501526064840190611db8565b90604483015203601f198101835282611e43565b51906a636f6e736f6c652e6c6f675afa50565b60809060208152603260208201527f4552433732313a207472616e7366657220746f206e6f6e20455243373231526560408201527131b2b4bb32b91034b6b83632b6b2b73a32b960711b60608201520190565b6001600160a01b031680156127aa576000828152600260205260409020546001600160a01b0316612765578060005260036020526040600020805490600182018092116114725755600082815260026020526040812080546001600160a01b031916831790557fddf252ad1be2c89b69c2b068fc378daa952ba7f163c4a11628f55a4df523b3ef8180a4565b60405162461bcd60e51b815260206004820152601c60248201527f4552433732313a20746f6b656e20616c7265616479206d696e746564000000006044820152606490fd5b606460405162461bcd60e51b815260206004820152602060248201527f4552433732313a206d696e7420746f20746865207a65726f20616464726573736044820152fd5b6000818152600260205260409020549192916001600160a01b0316156128db576000526006602052604060002082516001600160401b0381116104ad57612839816103cd8454611e09565b6020601f821160011461287957819061286a93949560009261286e5750508160011b916000199060031b1c19161790565b9055565b015190503880610847565b601f1982169083600052806000209160005b8181106128c3575095836001959697106128aa575b505050811b019055565b015160001960f88460031b161c191690553880806128a0565b9192602060018192868b01518155019401920161288b565b60405162461bcd60e51b815260206004820152602e60248201527f45524337323155524953746f726167653a2055524920736574206f66206e6f6e60448201526d32bc34b9ba32b73a103a37b5b2b760911b6064820152608490fd5b919290803b15612a5a5761298793600060209460405196879586948593630a85bd0160e11b855233600486015260018060a01b031660248501526044840152608060648401526084830190611db8565b03926001600160a01b03165af18091600091612a10575b50906129fa573d156129f3573d6129b481611f08565b906129c26040519283611e43565b81523d6000602083013e5b805190816129ee5760405162461bcd60e51b81528061232360048201612686565b602001fd5b60606129cd565b6001600160e01b031916630a85bd0160e11b1490565b6020813d602011612a52575b81612a2960209383611e43565b81010312612a4e5751906001600160e01b031982168203612a4b57503861299e565b80fd5b5080fd5b3d9150612a1c565b5050505060019056fe975a81b8ac0dbf1299701d398adc5c3bfa50b7efdb26ae977afbf7ad9d2d6485a2646970667358221220990dd7f82eb8af76c57c63b160ef9352d6318936380b3d84c617c13ba8906e7164736f6c634300081a0033a26469706673582212208a1696f7de1dbae40f390ac2bc789acf1220db06fe7ad698b9c6add5148a11d364736f6c634300081a0033","linkReferences":{}},"methodIdentifiers":{"createNFTMembership(string[],string[],string,string)":"ccf4579b"},"id":53}