{
  "_format": "hh-sol-artifact-1",
  "contractName": "NFTMembershipFactory",
  "sourceName": "contracts/MembershipNFTFactory.sol",
  "abi": [
    {
      "anonymous": false,
      "inputs": [
        {
          "indexed": false,
          "internalType": "address",
          "name": "contractAddress",
          "type": "address"
        },
        {
          "indexed": false,
          "internalType": "string[]",
          "name": "memberTypeNames",
          "type": "string[]"
        },
        {
          "indexed": false,
          "internalType": "string[]",
          "name": "executiveRoleNames",
          "type": "string[]"
        },
        {
          "indexed": false,
          "internalType": "string",
          "name": "defaultImageURL",
          "type": "string"
        },
        {
          "indexed": false,
          "internalType": "string",
          "name": "POname",
          "type": "string"
        }
      ],
      "name": "ContractCreated",
      "type": "event"
    },
    {
      "inputs": [
        {
          "internalType": "string[]",
          "name": "memberTypeNames",
          "type": "string[]"
        },
        {
          "internalType": "string[]",
          "name": "_executiveRoleNames",
          "type": "string[]"
        },
        {
          "internalType": "string",
          "name": "_defaultImageURL",
          "type": "string"
        },
        {
          "internalType": "string",
          "name": "POname",
          "type": "string"
        }
      ],
      "name": "createNFTMembership",
      "outputs": [
        {
          "internalType": "address",
          "name": "",
          "type": "address"
        }
      ],
      "stateMutability": "nonpayable",
      "type": "function"
    }
  ],
  "bytecode": "0x608060405234801561001057600080fd5b506152f6806100206000396000f3fe60806040523480156200001157600080fd5b50600436106200002e5760003560e01c8063ccf4579b1462000033575b600080fd5b6200005160048036038101906200004b919062000378565b62000069565b604051620000609190620004ab565b60405180910390f35b6000808585856040516200007d90620000f8565b6200008b9392919062000673565b604051809103906000f080158015620000a8573d6000803e3d6000fd5b5090507fefa54c7f8503d9e1973bd6b06335f3029806d6a942402f66aa5a12ae758c722a8187878787604051620000e4959493929190620006c5565b60405180910390a180915050949350505050565b614b82806200073f83390190565b6000604051905090565b600080fd5b600080fd5b600080fd5b6000601f19601f8301169050919050565b7f4e487b7100000000000000000000000000000000000000000000000000000000600052604160045260246000fd5b6200016a826200011f565b810181811067ffffffffffffffff821117156200018c576200018b62000130565b5b80604052505050565b6000620001a162000106565b9050620001af82826200015f565b919050565b600067ffffffffffffffff821115620001d257620001d162000130565b5b602082029050602081019050919050565b600080fd5b600080fd5b600067ffffffffffffffff8211156200020b576200020a62000130565b5b62000216826200011f565b9050602081019050919050565b82818337600083830152505050565b6000620002496200024384620001ed565b62000195565b905082815260208101848484011115620002685762000267620001e8565b5b6200027584828562000223565b509392505050565b600082601f8301126200029557620002946200011a565b5b8135620002a784826020860162000232565b91505092915050565b6000620002c7620002c184620001b4565b62000195565b90508083825260208201905060208402830185811115620002ed57620002ec620001e3565b5b835b818110156200033b57803567ffffffffffffffff8111156200031657620003156200011a565b5b8086016200032589826200027d565b85526020850194505050602081019050620002ef565b5050509392505050565b600082601f8301126200035d576200035c6200011a565b5b81356200036f848260208601620002b0565b91505092915050565b6000806000806080858703121562000395576200039462000110565b5b600085013567ffffffffffffffff811115620003b657620003b562000115565b5b620003c48782880162000345565b945050602085013567ffffffffffffffff811115620003e857620003e762000115565b5b620003f68782880162000345565b935050604085013567ffffffffffffffff8111156200041a576200041962000115565b5b62000428878288016200027d565b925050606085013567ffffffffffffffff8111156200044c576200044b62000115565b5b6200045a878288016200027d565b91505092959194509250565b600073ffffffffffffffffffffffffffffffffffffffff82169050919050565b6000620004938262000466565b9050919050565b620004a58162000486565b82525050565b6000602082019050620004c260008301846200049a565b92915050565b600081519050919050565b600082825260208201905092915050565b6000819050602082019050919050565b600081519050919050565b600082825260208201905092915050565b60005b838110156200053057808201518184015260208101905062000513565b60008484015250505050565b60006200054982620004f4565b620005558185620004ff565b93506200056781856020860162000510565b62000572816200011f565b840191505092915050565b60006200058b83836200053c565b905092915050565b6000602082019050919050565b6000620005ad82620004c8565b620005b98185620004d3565b935083602082028501620005cd85620004e4565b8060005b858110156200060f5784840389528151620005ed85826200057d565b9450620005fa8362000593565b925060208a01995050600181019050620005d1565b50829750879550505050505092915050565b600082825260208201905092915050565b60006200063f82620004f4565b6200064b818562000621565b93506200065d81856020860162000510565b62000668816200011f565b840191505092915050565b600060608201905081810360008301526200068f8186620005a0565b90508181036020830152620006a58185620005a0565b90508181036040830152620006bb818462000632565b9050949350505050565b600060a082019050620006dc60008301886200049a565b8181036020830152620006f08187620005a0565b90508181036040830152620007068186620005a0565b905081810360608301526200071c818562000632565b9050818103608083015262000732818462000632565b9050969550505050505056fe60806040526000600e60146101000a81548160ff0219169083151502179055506001601060006101000a81548160ff0219169083151502179055503480156200004757600080fd5b5060405162004b8238038062004b8283398181016040528101906200006d9190620005c2565b6040518060400160405280600d81526020017f4d656d626572736869704e4654000000000000000000000000000000000000008152506040518060400160405280600381526020017f4d4e4600000000000000000000000000000000000000000000000000000000008152508160009081620000ea9190620008c6565b508060019081620000fc9190620008c6565b5050506200011f620001136200026560201b60201c565b6200026d60201b60201c565b80600f9081620001309190620008c6565b5060005b8351811015620001e157838181518110620001545762000153620009ad565b5b60200260200101516009600083815260200190815260200160002090816200017d9190620008c6565b5081600a858381518110620001975762000196620009ad565b5b6020026020010151604051620001ae919062000a1e565b90815260200160405180910390209081620001ca9190620008c6565b508080620001d89062000a66565b91505062000134565b5060005b82518110156200025b576001600d848381518110620002095762000208620009ad565b5b602002602001015160405162000220919062000a1e565b908152602001604051809103902060006101000a81548160ff0219169083151502179055508080620002529062000a66565b915050620001e5565b5050505062000ab3565b600033905090565b6000600760009054906101000a900473ffffffffffffffffffffffffffffffffffffffff16905081600760006101000a81548173ffffffffffffffffffffffffffffffffffffffff021916908373ffffffffffffffffffffffffffffffffffffffff1602179055508173ffffffffffffffffffffffffffffffffffffffff168173ffffffffffffffffffffffffffffffffffffffff167f8be0079c531659141344cd1fd0a4f28419497f9722a3daafe3b4186f6b6457e060405160405180910390a35050565b6000604051905090565b600080fd5b600080fd5b600080fd5b6000601f19601f8301169050919050565b7f4e487b7100000000000000000000000000000000000000000000000000000000600052604160045260246000fd5b62000397826200034c565b810181811067ffffffffffffffff82111715620003b957620003b86200035d565b5b80604052505050565b6000620003ce62000333565b9050620003dc82826200038c565b919050565b600067ffffffffffffffff821115620003ff57620003fe6200035d565b5b602082029050602081019050919050565b600080fd5b600080fd5b600067ffffffffffffffff8211156200043857620004376200035d565b5b62000443826200034c565b9050602081019050919050565b60005b838110156200047057808201518184015260208101905062000453565b60008484015250505050565b6000620004936200048d846200041a565b620003c2565b905082815260208101848484011115620004b257620004b162000415565b5b620004bf84828562000450565b509392505050565b600082601f830112620004df57620004de62000347565b5b8151620004f18482602086016200047c565b91505092915050565b6000620005116200050b84620003e1565b620003c2565b9050808382526020820190506020840283018581111562000537576200053662000410565b5b835b818110156200058557805167ffffffffffffffff81111562000560576200055f62000347565b5b8086016200056f8982620004c7565b8552602085019450505060208101905062000539565b5050509392505050565b600082601f830112620005a757620005a662000347565b5b8151620005b9848260208601620004fa565b91505092915050565b600080600060608486031215620005de57620005dd6200033d565b5b600084015167ffffffffffffffff811115620005ff57620005fe62000342565b5b6200060d868287016200058f565b935050602084015167ffffffffffffffff81111562000631576200063062000342565b5b6200063f868287016200058f565b925050604084015167ffffffffffffffff81111562000663576200066262000342565b5b6200067186828701620004c7565b9150509250925092565b600081519050919050565b7f4e487b7100000000000000000000000000000000000000000000000000000000600052602260045260246000fd5b60006002820490506001821680620006ce57607f821691505b602082108103620006e457620006e362000686565b5b50919050565b60008190508160005260206000209050919050565b60006020601f8301049050919050565b600082821b905092915050565b6000600883026200074e7fffffffffffffffffffffffffffffffffffffffffffffffffffffffffffffffff826200070f565b6200075a86836200070f565b95508019841693508086168417925050509392505050565b6000819050919050565b6000819050919050565b6000620007a7620007a16200079b8462000772565b6200077c565b62000772565b9050919050565b6000819050919050565b620007c38362000786565b620007db620007d282620007ae565b8484546200071c565b825550505050565b600090565b620007f2620007e3565b620007ff818484620007b8565b505050565b5b8181101562000827576200081b600082620007e8565b60018101905062000805565b5050565b601f82111562000876576200084081620006ea565b6200084b84620006ff565b810160208510156200085b578190505b620008736200086a85620006ff565b83018262000804565b50505b505050565b600082821c905092915050565b60006200089b600019846008026200087b565b1980831691505092915050565b6000620008b6838362000888565b9150826002028217905092915050565b620008d1826200067b565b67ffffffffffffffff811115620008ed57620008ec6200035d565b5b620008f98254620006b5565b620009068282856200082b565b600060209050601f8311600181146200093e576000841562000929578287015190505b620009358582620008a8565b865550620009a5565b601f1984166200094e86620006ea565b60005b82811015620009785784890151825560018201915060208501945060208101905062000951565b8683101562000998578489015162000994601f89168262000888565b8355505b6001600288020188555050505b505050505050565b7f4e487b7100000000000000000000000000000000000000000000000000000000600052603260045260246000fd5b600081905092915050565b6000620009f4826200067b565b62000a008185620009dc565b935062000a1281856020860162000450565b80840191505092915050565b600062000a2c8284620009e7565b915081905092915050565b7f4e487b7100000000000000000000000000000000000000000000000000000000600052601160045260246000fd5b600062000a738262000772565b91507fffffffffffffffffffffffffffffffffffffffffffffffffffffffffffffffff820362000aa85762000aa762000a37565b5b600182019050919050565b6140bf8062000ac36000396000f3fe608060405234801561001057600080fd5b50600436106101c45760003560e01c80638cacb2f3116100f9578063b88d4fde11610097578063dc8b92e711610071578063dc8b92e714610527578063e985e9c514610557578063eacabe1414610587578063f2fde38b146105a3576101c4565b8063b88d4fde146104bf578063c86e4104146104db578063c87b56dd146104f7576101c4565b8063a22cb465116100d3578063a22cb4651461044f578063aa0d4f6c1461046b578063ad14f0f014610487578063ada52e25146104a3576101c4565b80638cacb2f3146103e35780638da5cb5b1461041357806395d89b4114610431576101c4565b806342842e0e1161016657806370a082311161014057806370a0823114610349578063715018a614610379578063777821881461038357806377bfe5fb146103b3576101c4565b806342842e0e146102df57806360724708146102fb5780636352211e14610319576101c4565b8063095ea7b3116101a2578063095ea7b314610247578063099c64331461026357806314388b401461029357806323b872dd146102c3576101c4565b806301ffc9a7146101c957806306fdde03146101f9578063081812fc14610217575b600080fd5b6101e360048036038101906101de9190612888565b6105bf565b6040516101f091906128d0565b60405180910390f35b6102016106a1565b60405161020e919061297b565b60405180910390f35b610231600480360381019061022c91906129d3565b610733565b60405161023e9190612a41565b60405180910390f35b610261600480360381019061025c9190612a88565b610779565b005b61027d60048036038101906102789190612ac8565b610890565b60405161028a919061297b565b60405180910390f35b6102ad60048036038101906102a89190612c2a565b610930565b6040516102ba919061297b565b60405180910390f35b6102dd60048036038101906102d89190612c73565b6109e6565b005b6102f960048036038101906102f49190612c73565b610a46565b005b610303610a66565b60405161031091906128d0565b60405180910390f35b610333600480360381019061032e91906129d3565b610a79565b6040516103409190612a41565b60405180910390f35b610363600480360381019061035e9190612ac8565b610b2a565b6040516103709190612cd5565b60405180910390f35b610381610be1565b005b61039d60048036038101906103989190612ac8565b610bf5565b6040516103aa919061297b565b60405180910390f35b6103cd60048036038101906103c891906129d3565b610d54565b6040516103da919061297b565b60405180910390f35b6103fd60048036038101906103f89190612c2a565b610df4565b60405161040a91906128d0565b60405180910390f35b61041b610e2a565b6040516104289190612a41565b60405180910390f35b610439610e54565b604051610446919061297b565b60405180910390f35b61046960048036038101906104649190612d1c565b610ee6565b005b61048560048036038101906104809190612d5c565b610efc565b005b6104a1600480360381019061049c9190612dd4565b610f2c565b005b6104bd60048036038101906104b89190612ac8565b6110cc565b005b6104d960048036038101906104d49190612ed1565b61117b565b005b6104f560048036038101906104f09190612ac8565b6111dd565b005b610511600480360381019061050c91906129d3565b611513565b60405161051e919061297b565b60405180910390f35b610541600480360381019061053c91906129d3565b611625565b60405161054e919061297b565b60405180910390f35b610571600480360381019061056c9190612f54565b6116c5565b60405161057e91906128d0565b60405180910390f35b6105a1600480360381019061059c9190612dd4565b611759565b005b6105bd60048036038101906105b89190612ac8565b6119d7565b005b60007f80ac58cd000000000000000000000000000000000000000000000000000000007bffffffffffffffffffffffffffffffffffffffffffffffffffffffff1916827bffffffffffffffffffffffffffffffffffffffffffffffffffffffff1916148061068a57507f5b5e139f000000000000000000000000000000000000000000000000000000007bffffffffffffffffffffffffffffffffffffffffffffffffffffffff1916827bffffffffffffffffffffffffffffffffffffffffffffffffffffffff1916145b8061069a575061069982611a5a565b5b9050919050565b6060600080546106b090612fc3565b80601f01602080910402602001604051908101604052809291908181526020018280546106dc90612fc3565b80156107295780601f106106fe57610100808354040283529160200191610729565b820191906000526020600020905b81548152906001019060200180831161070c57829003601f168201915b5050505050905090565b600061073e82611ac4565b6004600083815260200190815260200160002060009054906101000a900473ffffffffffffffffffffffffffffffffffffffff169050919050565b600061078482610a79565b90508073ffffffffffffffffffffffffffffffffffffffff168373ffffffffffffffffffffffffffffffffffffffff16036107f4576040517f08c379a00000000000000000000000000000000000000000000000000000000081526004016107eb90613066565b60405180910390fd5b8073ffffffffffffffffffffffffffffffffffffffff16610813611b0f565b73ffffffffffffffffffffffffffffffffffffffff16148061084257506108418161083c611b0f565b6116c5565b5b610881576040517f08c379a0000000000000000000000000000000000000000000000000000000008152600401610878906130f8565b60405180910390fd5b61088b8383611b17565b505050565b600b60205280600052604060002060009150905080546108af90612fc3565b80601f01602080910402602001604051908101604052809291908181526020018280546108db90612fc3565b80156109285780601f106108fd57610100808354040283529160200191610928565b820191906000526020600020905b81548152906001019060200180831161090b57829003601f168201915b505050505081565b600a81805160208101820180518482526020830160208501208183528095505050505050600091509050805461096590612fc3565b80601f016020809104026020016040519081016040528092919081815260200182805461099190612fc3565b80156109de5780601f106109b3576101008083540402835291602001916109de565b820191906000526020600020905b8154815290600101906020018083116109c157829003601f168201915b505050505081565b6109f76109f1611b0f565b82611bd0565b610a36576040517f08c379a0000000000000000000000000000000000000000000000000000000008152600401610a2d9061318a565b60405180910390fd5b610a41838383611c65565b505050565b610a618383836040518060200160405280600081525061117b565b505050565b601060009054906101000a900460ff1681565b6000806002600084815260200190815260200160002060009054906101000a900473ffffffffffffffffffffffffffffffffffffffff169050600073ffffffffffffffffffffffffffffffffffffffff168173ffffffffffffffffffffffffffffffffffffffff1603610b21576040517f08c379a0000000000000000000000000000000000000000000000000000000008152600401610b18906131f6565b60405180910390fd5b80915050919050565b60008073ffffffffffffffffffffffffffffffffffffffff168273ffffffffffffffffffffffffffffffffffffffff1603610b9a576040517f08c379a0000000000000000000000000000000000000000000000000000000008152600401610b9190613288565b60405180910390fd5b600360008373ffffffffffffffffffffffffffffffffffffffff1673ffffffffffffffffffffffffffffffffffffffff168152602001908152602001600020549050919050565b610be9611ecb565b610bf36000611f49565b565b60606000600b60008473ffffffffffffffffffffffffffffffffffffffff1673ffffffffffffffffffffffffffffffffffffffff1681526020019081526020016000208054610c4390612fc3565b905011610c85576040517f08c379a0000000000000000000000000000000000000000000000000000000008152600401610c7c906132f4565b60405180910390fd5b600b60008373ffffffffffffffffffffffffffffffffffffffff1673ffffffffffffffffffffffffffffffffffffffff1681526020019081526020016000208054610ccf90612fc3565b80601f0160208091040260200160405190810160405280929190818152602001828054610cfb90612fc3565b8015610d485780601f10610d1d57610100808354040283529160200191610d48565b820191906000526020600020905b815481529060010190602001808311610d2b57829003601f168201915b50505050509050919050565b60096020528060005260406000206000915090508054610d7390612fc3565b80601f0160208091040260200160405190810160405280929190818152602001828054610d9f90612fc3565b8015610dec5780601f10610dc157610100808354040283529160200191610dec565b820191906000526020600020905b815481529060010190602001808311610dcf57829003601f168201915b505050505081565b600d818051602081018201805184825260208301602085012081835280955050505050506000915054906101000a900460ff1681565b6000600760009054906101000a900473ffffffffffffffffffffffffffffffffffffffff16905090565b606060018054610e6390612fc3565b80601f0160208091040260200160405190810160405280929190818152602001828054610e8f90612fc3565b8015610edc5780601f10610eb157610100808354040283529160200191610edc565b820191906000526020600020905b815481529060010190602001808311610ebf57829003601f168201915b5050505050905090565b610ef8610ef1611b0f565b838361200f565b5050565b80600a83604051610f0d9190613350565b90815260200160405180910390209081610f279190613513565b505050565b600d600b60003373ffffffffffffffffffffffffffffffffffffffff1673ffffffffffffffffffffffffffffffffffffffff168152602001908152602001600020604051610f7a9190613668565b908152602001604051809103902060009054906101000a900460ff16610fd5576040517f08c379a0000000000000000000000000000000000000000000000000000000008152600401610fcc906136cb565b60405180910390fd5b6000600a82604051610fe79190613350565b9081526020016040518091039020805461100090612fc3565b905011611042576040517f08c379a000000000000000000000000000000000000000000000000000000000815260040161103990613737565b60405180910390fd5b80600b60008473ffffffffffffffffffffffffffffffffffffffff1673ffffffffffffffffffffffffffffffffffffffff168152602001908152602001600020908161108e9190613513565b507f09a1095331c1561d1cb7707e5a6132970399f28ffa804f7b0186d4c8d38b7d3b82826040516110c0929190613757565b60405180910390a15050565b600e60149054906101000a900460ff161561111c576040517f08c379a0000000000000000000000000000000000000000000000000000000008152600401611113906137d3565b60405180910390fd5b80600e60006101000a81548173ffffffffffffffffffffffffffffffffffffffff021916908373ffffffffffffffffffffffffffffffffffffffff1602179055506001600e60146101000a81548160ff02191690831515021790555050565b61118c611186611b0f565b83611bd0565b6111cb576040517f08c379a00000000000000000000000000000000000000000000000000000000081526004016111c29061318a565b60405180910390fd5b6111d78484848461217b565b50505050565b600e60009054906101000a900473ffffffffffffffffffffffffffffffffffffffff1673ffffffffffffffffffffffffffffffffffffffff163373ffffffffffffffffffffffffffffffffffffffff161461126d576040517f08c379a000000000000000000000000000000000000000000000000000000000815260040161126490613865565b60405180910390fd5b6000600f805461127c90612fc3565b80601f01602080910402602001604051908101604052809291908181526020018280546112a890612fc3565b80156112f55780601f106112ca576101008083540402835291602001916112f5565b820191906000526020600020905b8154815290600101906020018083116112d857829003601f168201915b50505050509050600060086000815480929190611311906138b4565b91905055905061132133826121d7565b61132b81836123b0565b601060009054906101000a900460ff161561141b576040518060400160405280600981526020017f4578656375746976650000000000000000000000000000000000000000000000815250600b60008573ffffffffffffffffffffffffffffffffffffffff1673ffffffffffffffffffffffffffffffffffffffff16815260200190815260200160002090816113c19190613513565b506000601060006101000a81548160ff0219169083151502179055507f975a81b8ac0dbf1299701d398adc5c3bfa50b7efdb26ae977afbf7ad9d2d6485838360405161140e929190613948565b60405180910390a161150e565b6040518060400160405280600781526020017f44656661756c7400000000000000000000000000000000000000000000000000815250600b60008573ffffffffffffffffffffffffffffffffffffffff1673ffffffffffffffffffffffffffffffffffffffff168152602001908152602001600020908161149c9190613513565b507f975a81b8ac0dbf1299701d398adc5c3bfa50b7efdb26ae977afbf7ad9d2d6485836040518060400160405280600781526020017f44656661756c7400000000000000000000000000000000000000000000000000815250846040516115059392919061398b565b60405180910390a15b505050565b606061151e82611ac4565b600060066000848152602001908152602001600020805461153e90612fc3565b80601f016020809104026020016040519081016040528092919081815260200182805461156a90612fc3565b80156115b75780601f1061158c576101008083540402835291602001916115b7565b820191906000526020600020905b81548152906001019060200180831161159a57829003601f168201915b5050505050905060006115c861241d565b905060008151036115dd578192505050611620565b6000825111156116125780826040516020016115fa9291906139d0565b60405160208183030381529060405292505050611620565b61161b84612434565b925050505b919050565b600c602052806000526040600020600091509050805461164490612fc3565b80601f016020809104026020016040519081016040528092919081815260200182805461167090612fc3565b80156116bd5780601f10611692576101008083540402835291602001916116bd565b820191906000526020600020905b8154815290600101906020018083116116a057829003601f168201915b505050505081565b6000600560008473ffffffffffffffffffffffffffffffffffffffff1673ffffffffffffffffffffffffffffffffffffffff16815260200190815260200160002060008373ffffffffffffffffffffffffffffffffffffffff1673ffffffffffffffffffffffffffffffffffffffff16815260200190815260200160002060009054906101000a900460ff16905092915050565b600d600b60003373ffffffffffffffffffffffffffffffffffffffff1673ffffffffffffffffffffffffffffffffffffffff1681526020019081526020016000206040516117a79190613668565b908152602001604051809103902060009054906101000a900460ff16611802576040517f08c379a00000000000000000000000000000000000000000000000000000000081526004016117f9906136cb565b60405180910390fd5b6000600a826040516118149190613350565b9081526020016040518091039020805461182d90612fc3565b90501161186f576040517f08c379a000000000000000000000000000000000000000000000000000000000815260040161186690613737565b60405180910390fd5b6000600a826040516118819190613350565b9081526020016040518091039020805461189a90612fc3565b80601f01602080910402602001604051908101604052809291908181526020018280546118c690612fc3565b80156119135780601f106118e857610100808354040283529160200191611913565b820191906000526020600020905b8154815290600101906020018083116118f657829003601f168201915b5050505050905060006008600081548092919061192f906138b4565b91905055905061193f84826121d7565b61194981836123b0565b82600b60008673ffffffffffffffffffffffffffffffffffffffff1673ffffffffffffffffffffffffffffffffffffffff16815260200190815260200160002090816119959190613513565b507f975a81b8ac0dbf1299701d398adc5c3bfa50b7efdb26ae977afbf7ad9d2d64858484846040516119c99392919061398b565b60405180910390a150505050565b6119df611ecb565b600073ffffffffffffffffffffffffffffffffffffffff168173ffffffffffffffffffffffffffffffffffffffff1603611a4e576040517f08c379a0000000000000000000000000000000000000000000000000000000008152600401611a4590613a66565b60405180910390fd5b611a5781611f49565b50565b60007f01ffc9a7000000000000000000000000000000000000000000000000000000007bffffffffffffffffffffffffffffffffffffffffffffffffffffffff1916827bffffffffffffffffffffffffffffffffffffffffffffffffffffffff1916149050919050565b611acd8161249c565b611b0c576040517f08c379a0000000000000000000000000000000000000000000000000000000008152600401611b03906131f6565b60405180910390fd5b50565b600033905090565b816004600083815260200190815260200160002060006101000a81548173ffffffffffffffffffffffffffffffffffffffff021916908373ffffffffffffffffffffffffffffffffffffffff160217905550808273ffffffffffffffffffffffffffffffffffffffff16611b8a83610a79565b73ffffffffffffffffffffffffffffffffffffffff167f8c5be1e5ebec7d5bd14f71427d1e84f3dd0314c0f7b2291e5b200ac8c7c3b92560405160405180910390a45050565b600080611bdc83610a79565b90508073ffffffffffffffffffffffffffffffffffffffff168473ffffffffffffffffffffffffffffffffffffffff161480611c1e5750611c1d81856116c5565b5b80611c5c57508373ffffffffffffffffffffffffffffffffffffffff16611c4484610733565b73ffffffffffffffffffffffffffffffffffffffff16145b91505092915050565b8273ffffffffffffffffffffffffffffffffffffffff16611c8582610a79565b73ffffffffffffffffffffffffffffffffffffffff1614611cdb576040517f08c379a0000000000000000000000000000000000000000000000000000000008152600401611cd290613af8565b60405180910390fd5b600073ffffffffffffffffffffffffffffffffffffffff168273ffffffffffffffffffffffffffffffffffffffff1603611d4a576040517f08c379a0000000000000000000000000000000000000000000000000000000008152600401611d4190613b8a565b60405180910390fd5b611d55838383612508565b611d60600082611b17565b6001600360008573ffffffffffffffffffffffffffffffffffffffff1673ffffffffffffffffffffffffffffffffffffffff1681526020019081526020016000206000828254611db09190613baa565b925050819055506001600360008473ffffffffffffffffffffffffffffffffffffffff1673ffffffffffffffffffffffffffffffffffffffff1681526020019081526020016000206000828254611e079190613bde565b92505081905550816002600083815260200190815260200160002060006101000a81548173ffffffffffffffffffffffffffffffffffffffff021916908373ffffffffffffffffffffffffffffffffffffffff160217905550808273ffffffffffffffffffffffffffffffffffffffff168473ffffffffffffffffffffffffffffffffffffffff167fddf252ad1be2c89b69c2b068fc378daa952ba7f163c4a11628f55a4df523b3ef60405160405180910390a4611ec683838361250d565b505050565b611ed3611b0f565b73ffffffffffffffffffffffffffffffffffffffff16611ef1610e2a565b73ffffffffffffffffffffffffffffffffffffffff1614611f47576040517f08c379a0000000000000000000000000000000000000000000000000000000008152600401611f3e90613c5e565b60405180910390fd5b565b6000600760009054906101000a900473ffffffffffffffffffffffffffffffffffffffff16905081600760006101000a81548173ffffffffffffffffffffffffffffffffffffffff021916908373ffffffffffffffffffffffffffffffffffffffff1602179055508173ffffffffffffffffffffffffffffffffffffffff168173ffffffffffffffffffffffffffffffffffffffff167f8be0079c531659141344cd1fd0a4f28419497f9722a3daafe3b4186f6b6457e060405160405180910390a35050565b8173ffffffffffffffffffffffffffffffffffffffff168373ffffffffffffffffffffffffffffffffffffffff160361207d576040517f08c379a000000000000000000000000000000000000000000000000000000000815260040161207490613cca565b60405180910390fd5b80600560008573ffffffffffffffffffffffffffffffffffffffff1673ffffffffffffffffffffffffffffffffffffffff16815260200190815260200160002060008473ffffffffffffffffffffffffffffffffffffffff1673ffffffffffffffffffffffffffffffffffffffff16815260200190815260200160002060006101000a81548160ff0219169083151502179055508173ffffffffffffffffffffffffffffffffffffffff168373ffffffffffffffffffffffffffffffffffffffff167f17307eab39ab6107e8899845ad3d59bd9653f200f220920489ca2b5937696c318360405161216e91906128d0565b60405180910390a3505050565b612186848484611c65565b61219284848484612512565b6121d1576040517f08c379a00000000000000000000000000000000000000000000000000000000081526004016121c890613d5c565b60405180910390fd5b50505050565b600073ffffffffffffffffffffffffffffffffffffffff168273ffffffffffffffffffffffffffffffffffffffff1603612246576040517f08c379a000000000000000000000000000000000000000000000000000000000815260040161223d90613dc8565b60405180910390fd5b61224f8161249c565b1561228f576040517f08c379a000000000000000000000000000000000000000000000000000000000815260040161228690613e34565b60405180910390fd5b61229b60008383612508565b6001600360008473ffffffffffffffffffffffffffffffffffffffff1673ffffffffffffffffffffffffffffffffffffffff16815260200190815260200160002060008282546122eb9190613bde565b92505081905550816002600083815260200190815260200160002060006101000a81548173ffffffffffffffffffffffffffffffffffffffff021916908373ffffffffffffffffffffffffffffffffffffffff160217905550808273ffffffffffffffffffffffffffffffffffffffff16600073ffffffffffffffffffffffffffffffffffffffff167fddf252ad1be2c89b69c2b068fc378daa952ba7f163c4a11628f55a4df523b3ef60405160405180910390a46123ac6000838361250d565b5050565b6123b98261249c565b6123f8576040517f08c379a00000000000000000000000000000000000000000000000000000000081526004016123ef90613ec6565b60405180910390fd5b806006600084815260200190815260200160002090816124189190613513565b505050565b606060405180602001604052806000815250905090565b606061243f82611ac4565b600061244961241d565b905060008151116124695760405180602001604052806000815250612494565b8061247384612699565b6040516020016124849291906139d0565b6040516020818303038152906040525b915050919050565b60008073ffffffffffffffffffffffffffffffffffffffff166002600084815260200190815260200160002060009054906101000a900473ffffffffffffffffffffffffffffffffffffffff1673ffffffffffffffffffffffffffffffffffffffff1614159050919050565b505050565b505050565b60006125338473ffffffffffffffffffffffffffffffffffffffff166127f9565b1561268c578373ffffffffffffffffffffffffffffffffffffffff1663150b7a0261255c611b0f565b8786866040518563ffffffff1660e01b815260040161257e9493929190613f3b565b6020604051808303816000875af19250505080156125ba57506040513d601f19601f820116820180604052508101906125b79190613f9c565b60015b61263c573d80600081146125ea576040519150601f19603f3d011682016040523d82523d6000602084013e6125ef565b606091505b506000815103612634576040517f08c379a000000000000000000000000000000000000000000000000000000000815260040161262b90613d5c565b60405180910390fd5b805181602001fd5b63150b7a0260e01b7bffffffffffffffffffffffffffffffffffffffffffffffffffffffff1916817bffffffffffffffffffffffffffffffffffffffffffffffffffffffff191614915050612691565b600190505b949350505050565b6060600082036126e0576040518060400160405280600181526020017f300000000000000000000000000000000000000000000000000000000000000081525090506127f4565b600082905060005b600082146127125780806126fb906138b4565b915050600a8261270b9190613ff8565b91506126e8565b60008167ffffffffffffffff81111561272e5761272d612aff565b5b6040519080825280601f01601f1916602001820160405280156127605781602001600182028036833780820191505090505b5090505b600085146127ed576001826127799190613baa565b9150600a856127889190614029565b60306127949190613bde565b60f81b8183815181106127aa576127a961405a565b5b60200101907effffffffffffffffffffffffffffffffffffffffffffffffffffffffffffff1916908160001a905350600a856127e69190613ff8565b9450612764565b8093505050505b919050565b6000808273ffffffffffffffffffffffffffffffffffffffff163b119050919050565b6000604051905090565b600080fd5b600080fd5b60007fffffffff0000000000000000000000000000000000000000000000000000000082169050919050565b61286581612830565b811461287057600080fd5b50565b6000813590506128828161285c565b92915050565b60006020828403121561289e5761289d612826565b5b60006128ac84828501612873565b91505092915050565b60008115159050919050565b6128ca816128b5565b82525050565b60006020820190506128e560008301846128c1565b92915050565b600081519050919050565b600082825260208201905092915050565b60005b8381101561292557808201518184015260208101905061290a565b60008484015250505050565b6000601f19601f8301169050919050565b600061294d826128eb565b61295781856128f6565b9350612967818560208601612907565b61297081612931565b840191505092915050565b600060208201905081810360008301526129958184612942565b905092915050565b6000819050919050565b6129b08161299d565b81146129bb57600080fd5b50565b6000813590506129cd816129a7565b92915050565b6000602082840312156129e9576129e8612826565b5b60006129f7848285016129be565b91505092915050565b600073ffffffffffffffffffffffffffffffffffffffff82169050919050565b6000612a2b82612a00565b9050919050565b612a3b81612a20565b82525050565b6000602082019050612a566000830184612a32565b92915050565b612a6581612a20565b8114612a7057600080fd5b50565b600081359050612a8281612a5c565b92915050565b60008060408385031215612a9f57612a9e612826565b5b6000612aad85828601612a73565b9250506020612abe858286016129be565b9150509250929050565b600060208284031215612ade57612add612826565b5b6000612aec84828501612a73565b91505092915050565b600080fd5b600080fd5b7f4e487b7100000000000000000000000000000000000000000000000000000000600052604160045260246000fd5b612b3782612931565b810181811067ffffffffffffffff82111715612b5657612b55612aff565b5b80604052505050565b6000612b6961281c565b9050612b758282612b2e565b919050565b600067ffffffffffffffff821115612b9557612b94612aff565b5b612b9e82612931565b9050602081019050919050565b82818337600083830152505050565b6000612bcd612bc884612b7a565b612b5f565b905082815260208101848484011115612be957612be8612afa565b5b612bf4848285612bab565b509392505050565b600082601f830112612c1157612c10612af5565b5b8135612c21848260208601612bba565b91505092915050565b600060208284031215612c4057612c3f612826565b5b600082013567ffffffffffffffff811115612c5e57612c5d61282b565b5b612c6a84828501612bfc565b91505092915050565b600080600060608486031215612c8c57612c8b612826565b5b6000612c9a86828701612a73565b9350506020612cab86828701612a73565b9250506040612cbc868287016129be565b9150509250925092565b612ccf8161299d565b82525050565b6000602082019050612cea6000830184612cc6565b92915050565b612cf9816128b5565b8114612d0457600080fd5b50565b600081359050612d1681612cf0565b92915050565b60008060408385031215612d3357612d32612826565b5b6000612d4185828601612a73565b9250506020612d5285828601612d07565b9150509250929050565b60008060408385031215612d7357612d72612826565b5b600083013567ffffffffffffffff811115612d9157612d9061282b565b5b612d9d85828601612bfc565b925050602083013567ffffffffffffffff811115612dbe57612dbd61282b565b5b612dca85828601612bfc565b9150509250929050565b60008060408385031215612deb57612dea612826565b5b6000612df985828601612a73565b925050602083013567ffffffffffffffff811115612e1a57612e1961282b565b5b612e2685828601612bfc565b9150509250929050565b600067ffffffffffffffff821115612e4b57612e4a612aff565b5b612e5482612931565b9050602081019050919050565b6000612e74612e6f84612e30565b612b5f565b905082815260208101848484011115612e9057612e8f612afa565b5b612e9b848285612bab565b509392505050565b600082601f830112612eb857612eb7612af5565b5b8135612ec8848260208601612e61565b91505092915050565b60008060008060808587031215612eeb57612eea612826565b5b6000612ef987828801612a73565b9450506020612f0a87828801612a73565b9350506040612f1b878288016129be565b925050606085013567ffffffffffffffff811115612f3c57612f3b61282b565b5b612f4887828801612ea3565b91505092959194509250565b60008060408385031215612f6b57612f6a612826565b5b6000612f7985828601612a73565b9250506020612f8a85828601612a73565b9150509250929050565b7f4e487b7100000000000000000000000000000000000000000000000000000000600052602260045260246000fd5b60006002820490506001821680612fdb57607f821691505b602082108103612fee57612fed612f94565b5b50919050565b7f4552433732313a20617070726f76616c20746f2063757272656e74206f776e6560008201527f7200000000000000000000000000000000000000000000000000000000000000602082015250565b60006130506021836128f6565b915061305b82612ff4565b604082019050919050565b6000602082019050818103600083015261307f81613043565b9050919050565b7f4552433732313a20617070726f76652063616c6c6572206973206e6f7420746f60008201527f6b656e206f776e6572206e6f7220617070726f76656420666f7220616c6c0000602082015250565b60006130e2603e836128f6565b91506130ed82613086565b604082019050919050565b60006020820190508181036000830152613111816130d5565b9050919050565b7f4552433732313a2063616c6c6572206973206e6f7420746f6b656e206f776e6560008201527f72206e6f7220617070726f766564000000000000000000000000000000000000602082015250565b6000613174602e836128f6565b915061317f82613118565b604082019050919050565b600060208201905081810360008301526131a381613167565b9050919050565b7f4552433732313a20696e76616c696420746f6b656e2049440000000000000000600082015250565b60006131e06018836128f6565b91506131eb826131aa565b602082019050919050565b6000602082019050818103600083015261320f816131d3565b9050919050565b7f4552433732313a2061646472657373207a65726f206973206e6f74206120766160008201527f6c6964206f776e65720000000000000000000000000000000000000000000000602082015250565b60006132726029836128f6565b915061327d82613216565b604082019050919050565b600060208201905081810360008301526132a181613265565b9050919050565b7f4e6f206d656d626572207479706520666f756e6420666f7220757365722e0000600082015250565b60006132de601e836128f6565b91506132e9826132a8565b602082019050919050565b6000602082019050818103600083015261330d816132d1565b9050919050565b600081905092915050565b600061332a826128eb565b6133348185613314565b9350613344818560208601612907565b80840191505092915050565b600061335c828461331f565b915081905092915050565b60008190508160005260206000209050919050565b60006020601f8301049050919050565b600082821b905092915050565b6000600883026133c97fffffffffffffffffffffffffffffffffffffffffffffffffffffffffffffffff8261338c565b6133d3868361338c565b95508019841693508086168417925050509392505050565b6000819050919050565b600061341061340b6134068461299d565b6133eb565b61299d565b9050919050565b6000819050919050565b61342a836133f5565b61343e61343682613417565b848454613399565b825550505050565b600090565b613453613446565b61345e818484613421565b505050565b5b818110156134825761347760008261344b565b600181019050613464565b5050565b601f8211156134c75761349881613367565b6134a18461337c565b810160208510156134b0578190505b6134c46134bc8561337c565b830182613463565b50505b505050565b600082821c905092915050565b60006134ea600019846008026134cc565b1980831691505092915050565b600061350383836134d9565b9150826002028217905092915050565b61351c826128eb565b67ffffffffffffffff81111561353557613534612aff565b5b61353f8254612fc3565b61354a828285613486565b600060209050601f83116001811461357d576000841561356b578287015190505b61357585826134f7565b8655506135dd565b601f19841661358b86613367565b60005b828110156135b35784890151825560018201915060208501945060208101905061358e565b868310156135d057848901516135cc601f8916826134d9565b8355505b6001600288020188555050505b505050505050565b600081546135f281612fc3565b6135fc8186613314565b94506001821660008114613617576001811461362c5761365f565b60ff198316865281151582028601935061365f565b61363585613367565b60005b8381101561365757815481890152600182019150602081019050613638565b838801955050505b50505092915050565b600061367482846135e5565b915081905092915050565b7f4e6f7420616e2065786563757469766520726f6c650000000000000000000000600082015250565b60006136b56015836128f6565b91506136c08261367f565b602082019050919050565b600060208201905081810360008301526136e4816136a8565b9050919050565b7f496d61676520666f72206d656d6265722074797065206e6f7420736574000000600082015250565b6000613721601d836128f6565b915061372c826136eb565b602082019050919050565b6000602082019050818103600083015261375081613714565b9050919050565b600060408201905061376c6000830185612a32565b818103602083015261377e8184612942565b90509392505050565b7f517569636b4a6f696e20616c7265616479207365740000000000000000000000600082015250565b60006137bd6015836128f6565b91506137c882613787565b602082019050919050565b600060208201905081810360008301526137ec816137b0565b9050919050565b7f4f6e6c7920517569636b4a6f696e2063616e2063616c6c20746869732066756e60008201527f6374696f6e000000000000000000000000000000000000000000000000000000602082015250565b600061384f6025836128f6565b915061385a826137f3565b604082019050919050565b6000602082019050818103600083015261387e81613842565b9050919050565b7f4e487b7100000000000000000000000000000000000000000000000000000000600052601160045260246000fd5b60006138bf8261299d565b91507fffffffffffffffffffffffffffffffffffffffffffffffffffffffffffffffff82036138f1576138f0613885565b5b600182019050919050565b7f4578656375746976650000000000000000000000000000000000000000000000600082015250565b60006139326009836128f6565b915061393d826138fc565b602082019050919050565b600060608201905061395d6000830185612a32565b818103602083015261396e81613925565b905081810360408301526139828184612942565b90509392505050565b60006060820190506139a06000830186612a32565b81810360208301526139b28185612942565b905081810360408301526139c68184612942565b9050949350505050565b60006139dc828561331f565b91506139e8828461331f565b91508190509392505050565b7f4f776e61626c653a206e6577206f776e657220697320746865207a65726f206160008201527f6464726573730000000000000000000000000000000000000000000000000000602082015250565b6000613a506026836128f6565b9150613a5b826139f4565b604082019050919050565b60006020820190508181036000830152613a7f81613a43565b9050919050565b7f4552433732313a207472616e736665722066726f6d20696e636f72726563742060008201527f6f776e6572000000000000000000000000000000000000000000000000000000602082015250565b6000613ae26025836128f6565b9150613aed82613a86565b604082019050919050565b60006020820190508181036000830152613b1181613ad5565b9050919050565b7f4552433732313a207472616e7366657220746f20746865207a65726f2061646460008201527f7265737300000000000000000000000000000000000000000000000000000000602082015250565b6000613b746024836128f6565b9150613b7f82613b18565b604082019050919050565b60006020820190508181036000830152613ba381613b67565b9050919050565b6000613bb58261299d565b9150613bc08361299d565b9250828203905081811115613bd857613bd7613885565b5b92915050565b6000613be98261299d565b9150613bf48361299d565b9250828201905080821115613c0c57613c0b613885565b5b92915050565b7f4f776e61626c653a2063616c6c6572206973206e6f7420746865206f776e6572600082015250565b6000613c486020836128f6565b9150613c5382613c12565b602082019050919050565b60006020820190508181036000830152613c7781613c3b565b9050919050565b7f4552433732313a20617070726f766520746f2063616c6c657200000000000000600082015250565b6000613cb46019836128f6565b9150613cbf82613c7e565b602082019050919050565b60006020820190508181036000830152613ce381613ca7565b9050919050565b7f4552433732313a207472616e7366657220746f206e6f6e20455243373231526560008201527f63656976657220696d706c656d656e7465720000000000000000000000000000602082015250565b6000613d466032836128f6565b9150613d5182613cea565b604082019050919050565b60006020820190508181036000830152613d7581613d39565b9050919050565b7f4552433732313a206d696e7420746f20746865207a65726f2061646472657373600082015250565b6000613db26020836128f6565b9150613dbd82613d7c565b602082019050919050565b60006020820190508181036000830152613de181613da5565b9050919050565b7f4552433732313a20746f6b656e20616c7265616479206d696e74656400000000600082015250565b6000613e1e601c836128f6565b9150613e2982613de8565b602082019050919050565b60006020820190508181036000830152613e4d81613e11565b9050919050565b7f45524337323155524953746f726167653a2055524920736574206f66206e6f6e60008201527f6578697374656e7420746f6b656e000000000000000000000000000000000000602082015250565b6000613eb0602e836128f6565b9150613ebb82613e54565b604082019050919050565b60006020820190508181036000830152613edf81613ea3565b9050919050565b600081519050919050565b600082825260208201905092915050565b6000613f0d82613ee6565b613f178185613ef1565b9350613f27818560208601612907565b613f3081612931565b840191505092915050565b6000608082019050613f506000830187612a32565b613f5d6020830186612a32565b613f6a6040830185612cc6565b8181036060830152613f7c8184613f02565b905095945050505050565b600081519050613f968161285c565b92915050565b600060208284031215613fb257613fb1612826565b5b6000613fc084828501613f87565b91505092915050565b7f4e487b7100000000000000000000000000000000000000000000000000000000600052601260045260246000fd5b60006140038261299d565b915061400e8361299d565b92508261401e5761401d613fc9565b5b828204905092915050565b60006140348261299d565b915061403f8361299d565b92508261404f5761404e613fc9565b5b828206905092915050565b7f4e487b7100000000000000000000000000000000000000000000000000000000600052603260045260246000fdfea2646970667358221220c55b742fe52f995f93990fe397698b9c8473d495b2c7e3af315701ee450eec6d64736f6c63430008140033a264697066735822122095c48b9cf57bf8098d07ad0c7ce88e44a0f5f283d6b47a5460b3f31dab9ff08464736f6c63430008140033",
  "linkReferences": {},
  "deployedLinkReferences": {}
}