{
  "_format": "hh-sol-artifact-1",
  "contractName": "NFTMembership",
  "sourceName": "contracts/MembershipNFT.sol",
  "abi": [
    {
      "inputs": [
        {
          "internalType": "string[]",
          "name": "_memberTypeNames",
          "type": "string[]"
        },
        {
          "internalType": "string[]",
          "name": "_executiveRoleNames",
          "type": "string[]"
        },
        {
          "internalType": "string",
          "name": "_defaultImageURL",
          "type": "string"
        }
      ],
      "stateMutability": "nonpayable",
      "type": "constructor"
    },
    {
      "anonymous": false,
      "inputs": [
        {
          "indexed": true,
          "internalType": "address",
          "name": "owner",
          "type": "address"
        },
        {
          "indexed": true,
          "internalType": "address",
          "name": "approved",
          "type": "address"
        },
        {
          "indexed": true,
          "internalType": "uint256",
          "name": "tokenId",
          "type": "uint256"
        }
      ],
      "name": "Approval",
      "type": "event"
    },
    {
      "anonymous": false,
      "inputs": [
        {
          "indexed": true,
          "internalType": "address",
          "name": "owner",
          "type": "address"
        },
        {
          "indexed": true,
          "internalType": "address",
          "name": "operator",
          "type": "address"
        },
        {
          "indexed": false,
          "internalType": "bool",
          "name": "approved",
          "type": "bool"
        }
      ],
      "name": "ApprovalForAll",
      "type": "event"
    },
    {
      "anonymous": false,
      "inputs": [
        {
          "indexed": true,
          "internalType": "address",
          "name": "previousOwner",
          "type": "address"
        },
        {
          "indexed": true,
          "internalType": "address",
          "name": "newOwner",
          "type": "address"
        }
      ],
      "name": "OwnershipTransferred",
      "type": "event"
    },
    {
      "anonymous": false,
      "inputs": [
        {
          "indexed": true,
          "internalType": "address",
          "name": "from",
          "type": "address"
        },
        {
          "indexed": true,
          "internalType": "address",
          "name": "to",
          "type": "address"
        },
        {
          "indexed": true,
          "internalType": "uint256",
          "name": "tokenId",
          "type": "uint256"
        }
      ],
      "name": "Transfer",
      "type": "event"
    },
    {
      "anonymous": false,
      "inputs": [
        {
          "indexed": false,
          "internalType": "address",
          "name": "user",
          "type": "address"
        },
        {
          "indexed": false,
          "internalType": "string",
          "name": "newMemberType",
          "type": "string"
        }
      ],
      "name": "membershipTypeChanged",
      "type": "event"
    },
    {
      "anonymous": false,
      "inputs": [
        {
          "indexed": false,
          "internalType": "address",
          "name": "recipient",
          "type": "address"
        },
        {
          "indexed": false,
          "internalType": "string",
          "name": "memberTypeName",
          "type": "string"
        },
        {
          "indexed": false,
          "internalType": "string",
          "name": "tokenURI",
          "type": "string"
        }
      ],
      "name": "mintedNFT",
      "type": "event"
    },
    {
      "inputs": [
        {
          "internalType": "address",
          "name": "to",
          "type": "address"
        },
        {
          "internalType": "uint256",
          "name": "tokenId",
          "type": "uint256"
        }
      ],
      "name": "approve",
      "outputs": [],
      "stateMutability": "nonpayable",
      "type": "function"
    },
    {
      "inputs": [
        {
          "internalType": "address",
          "name": "owner",
          "type": "address"
        }
      ],
      "name": "balanceOf",
      "outputs": [
        {
          "internalType": "uint256",
          "name": "",
          "type": "uint256"
        }
      ],
      "stateMutability": "view",
      "type": "function"
    },
    {
      "inputs": [
        {
          "internalType": "address",
          "name": "user",
          "type": "address"
        },
        {
          "internalType": "string",
          "name": "newMemberType",
          "type": "string"
        }
      ],
      "name": "changeMembershipType",
      "outputs": [],
      "stateMutability": "nonpayable",
      "type": "function"
    },
    {
      "inputs": [
        {
          "internalType": "address",
          "name": "user",
          "type": "address"
        }
      ],
      "name": "checkMemberTypeByAddress",
      "outputs": [
        {
          "internalType": "string",
          "name": "",
          "type": "string"
        }
      ],
      "stateMutability": "view",
      "type": "function"
    },
    {
      "inputs": [
        {
          "internalType": "uint256",
          "name": "",
          "type": "uint256"
        }
      ],
      "name": "executiveRoleNames",
      "outputs": [
        {
          "internalType": "string",
          "name": "",
          "type": "string"
        }
      ],
      "stateMutability": "view",
      "type": "function"
    },
    {
      "inputs": [],
      "name": "firstMint",
      "outputs": [
        {
          "internalType": "bool",
          "name": "",
          "type": "bool"
        }
      ],
      "stateMutability": "view",
      "type": "function"
    },
    {
      "inputs": [
        {
          "internalType": "uint256",
          "name": "tokenId",
          "type": "uint256"
        }
      ],
      "name": "getApproved",
      "outputs": [
        {
          "internalType": "address",
          "name": "",
          "type": "address"
        }
      ],
      "stateMutability": "view",
      "type": "function"
    },
    {
      "inputs": [
        {
          "internalType": "address",
          "name": "owner",
          "type": "address"
        },
        {
          "internalType": "address",
          "name": "operator",
          "type": "address"
        }
      ],
      "name": "isApprovedForAll",
      "outputs": [
        {
          "internalType": "bool",
          "name": "",
          "type": "bool"
        }
      ],
      "stateMutability": "view",
      "type": "function"
    },
    {
      "inputs": [
        {
          "internalType": "string",
          "name": "",
          "type": "string"
        }
      ],
      "name": "isExecutiveRole",
      "outputs": [
        {
          "internalType": "bool",
          "name": "",
          "type": "bool"
        }
      ],
      "stateMutability": "view",
      "type": "function"
    },
    {
      "inputs": [
        {
          "internalType": "string",
          "name": "",
          "type": "string"
        }
      ],
      "name": "memberTypeImages",
      "outputs": [
        {
          "internalType": "string",
          "name": "",
          "type": "string"
        }
      ],
      "stateMutability": "view",
      "type": "function"
    },
    {
      "inputs": [
        {
          "internalType": "uint256",
          "name": "",
          "type": "uint256"
        }
      ],
      "name": "memberTypeNames",
      "outputs": [
        {
          "internalType": "string",
          "name": "",
          "type": "string"
        }
      ],
      "stateMutability": "view",
      "type": "function"
    },
    {
      "inputs": [
        {
          "internalType": "address",
          "name": "",
          "type": "address"
        }
      ],
      "name": "memberTypeOf",
      "outputs": [
        {
          "internalType": "string",
          "name": "",
          "type": "string"
        }
      ],
      "stateMutability": "view",
      "type": "function"
    },
    {
      "inputs": [],
      "name": "mintDefaultNFT",
      "outputs": [],
      "stateMutability": "nonpayable",
      "type": "function"
    },
    {
      "inputs": [
        {
          "internalType": "address",
          "name": "recipient",
          "type": "address"
        },
        {
          "internalType": "string",
          "name": "memberTypeName",
          "type": "string"
        }
      ],
      "name": "mintNFT",
      "outputs": [],
      "stateMutability": "nonpayable",
      "type": "function"
    },
    {
      "inputs": [],
      "name": "name",
      "outputs": [
        {
          "internalType": "string",
          "name": "",
          "type": "string"
        }
      ],
      "stateMutability": "view",
      "type": "function"
    },
    {
      "inputs": [],
      "name": "owner",
      "outputs": [
        {
          "internalType": "address",
          "name": "",
          "type": "address"
        }
      ],
      "stateMutability": "view",
      "type": "function"
    },
    {
      "inputs": [
        {
          "internalType": "uint256",
          "name": "tokenId",
          "type": "uint256"
        }
      ],
      "name": "ownerOf",
      "outputs": [
        {
          "internalType": "address",
          "name": "",
          "type": "address"
        }
      ],
      "stateMutability": "view",
      "type": "function"
    },
    {
      "inputs": [],
      "name": "renounceOwnership",
      "outputs": [],
      "stateMutability": "nonpayable",
      "type": "function"
    },
    {
      "inputs": [
        {
          "internalType": "address",
          "name": "from",
          "type": "address"
        },
        {
          "internalType": "address",
          "name": "to",
          "type": "address"
        },
        {
          "internalType": "uint256",
          "name": "tokenId",
          "type": "uint256"
        }
      ],
      "name": "safeTransferFrom",
      "outputs": [],
      "stateMutability": "nonpayable",
      "type": "function"
    },
    {
      "inputs": [
        {
          "internalType": "address",
          "name": "from",
          "type": "address"
        },
        {
          "internalType": "address",
          "name": "to",
          "type": "address"
        },
        {
          "internalType": "uint256",
          "name": "tokenId",
          "type": "uint256"
        },
        {
          "internalType": "bytes",
          "name": "data",
          "type": "bytes"
        }
      ],
      "name": "safeTransferFrom",
      "outputs": [],
      "stateMutability": "nonpayable",
      "type": "function"
    },
    {
      "inputs": [
        {
          "internalType": "address",
          "name": "operator",
          "type": "address"
        },
        {
          "internalType": "bool",
          "name": "approved",
          "type": "bool"
        }
      ],
      "name": "setApprovalForAll",
      "outputs": [],
      "stateMutability": "nonpayable",
      "type": "function"
    },
    {
      "inputs": [
        {
          "internalType": "string",
          "name": "memberTypeName",
          "type": "string"
        },
        {
          "internalType": "string",
          "name": "imageURL",
          "type": "string"
        }
      ],
      "name": "setMemberTypeImage",
      "outputs": [],
      "stateMutability": "nonpayable",
      "type": "function"
    },
    {
      "inputs": [
        {
          "internalType": "bytes4",
          "name": "interfaceId",
          "type": "bytes4"
        }
      ],
      "name": "supportsInterface",
      "outputs": [
        {
          "internalType": "bool",
          "name": "",
          "type": "bool"
        }
      ],
      "stateMutability": "view",
      "type": "function"
    },
    {
      "inputs": [],
      "name": "symbol",
      "outputs": [
        {
          "internalType": "string",
          "name": "",
          "type": "string"
        }
      ],
      "stateMutability": "view",
      "type": "function"
    },
    {
      "inputs": [
        {
          "internalType": "uint256",
          "name": "tokenId",
          "type": "uint256"
        }
      ],
      "name": "tokenURI",
      "outputs": [
        {
          "internalType": "string",
          "name": "",
          "type": "string"
        }
      ],
      "stateMutability": "view",
      "type": "function"
    },
    {
      "inputs": [
        {
          "internalType": "address",
          "name": "from",
          "type": "address"
        },
        {
          "internalType": "address",
          "name": "to",
          "type": "address"
        },
        {
          "internalType": "uint256",
          "name": "tokenId",
          "type": "uint256"
        }
      ],
      "name": "transferFrom",
      "outputs": [],
      "stateMutability": "nonpayable",
      "type": "function"
    },
    {
      "inputs": [
        {
          "internalType": "address",
          "name": "newOwner",
          "type": "address"
        }
      ],
      "name": "transferOwnership",
      "outputs": [],
      "stateMutability": "nonpayable",
      "type": "function"
    }
  ],
  "bytecode": "0x60806040526001600f60006101000a81548160ff0219169083151502179055503480156200002c57600080fd5b50604051620048e0380380620048e08339818101604052810190620000529190620005a7565b6040518060400160405280600d81526020017f4d656d626572736869704e4654000000000000000000000000000000000000008152506040518060400160405280600381526020017f4d4e4600000000000000000000000000000000000000000000000000000000008152508160009081620000cf9190620008ab565b508060019081620000e19190620008ab565b50505062000104620000f86200024a60201b60201c565b6200025260201b60201c565b80600e9081620001159190620008ab565b5060005b8351811015620001c65783818151811062000139576200013862000992565b5b6020026020010151600960008381526020019081526020016000209081620001629190620008ab565b5081600a8583815181106200017c576200017b62000992565b5b602002602001015160405162000193919062000a03565b90815260200160405180910390209081620001af9190620008ab565b508080620001bd9062000a4b565b91505062000119565b5060005b825181101562000240576001600d848381518110620001ee57620001ed62000992565b5b602002602001015160405162000205919062000a03565b908152602001604051809103902060006101000a81548160ff0219169083151502179055508080620002379062000a4b565b915050620001ca565b5050505062000a98565b600033905090565b6000600760009054906101000a900473ffffffffffffffffffffffffffffffffffffffff16905081600760006101000a81548173ffffffffffffffffffffffffffffffffffffffff021916908373ffffffffffffffffffffffffffffffffffffffff1602179055508173ffffffffffffffffffffffffffffffffffffffff168173ffffffffffffffffffffffffffffffffffffffff167f8be0079c531659141344cd1fd0a4f28419497f9722a3daafe3b4186f6b6457e060405160405180910390a35050565b6000604051905090565b600080fd5b600080fd5b600080fd5b6000601f19601f8301169050919050565b7f4e487b7100000000000000000000000000000000000000000000000000000000600052604160045260246000fd5b6200037c8262000331565b810181811067ffffffffffffffff821117156200039e576200039d62000342565b5b80604052505050565b6000620003b362000318565b9050620003c1828262000371565b919050565b600067ffffffffffffffff821115620003e457620003e362000342565b5b602082029050602081019050919050565b600080fd5b600080fd5b600067ffffffffffffffff8211156200041d576200041c62000342565b5b620004288262000331565b9050602081019050919050565b60005b838110156200045557808201518184015260208101905062000438565b60008484015250505050565b6000620004786200047284620003ff565b620003a7565b905082815260208101848484011115620004975762000496620003fa565b5b620004a484828562000435565b509392505050565b600082601f830112620004c457620004c36200032c565b5b8151620004d684826020860162000461565b91505092915050565b6000620004f6620004f084620003c6565b620003a7565b905080838252602082019050602084028301858111156200051c576200051b620003f5565b5b835b818110156200056a57805167ffffffffffffffff8111156200054557620005446200032c565b5b808601620005548982620004ac565b855260208501945050506020810190506200051e565b5050509392505050565b600082601f8301126200058c576200058b6200032c565b5b81516200059e848260208601620004df565b91505092915050565b600080600060608486031215620005c357620005c262000322565b5b600084015167ffffffffffffffff811115620005e457620005e362000327565b5b620005f28682870162000574565b935050602084015167ffffffffffffffff81111562000616576200061562000327565b5b620006248682870162000574565b925050604084015167ffffffffffffffff81111562000648576200064762000327565b5b6200065686828701620004ac565b9150509250925092565b600081519050919050565b7f4e487b7100000000000000000000000000000000000000000000000000000000600052602260045260246000fd5b60006002820490506001821680620006b357607f821691505b602082108103620006c957620006c86200066b565b5b50919050565b60008190508160005260206000209050919050565b60006020601f8301049050919050565b600082821b905092915050565b600060088302620007337fffffffffffffffffffffffffffffffffffffffffffffffffffffffffffffffff82620006f4565b6200073f8683620006f4565b95508019841693508086168417925050509392505050565b6000819050919050565b6000819050919050565b60006200078c62000786620007808462000757565b62000761565b62000757565b9050919050565b6000819050919050565b620007a8836200076b565b620007c0620007b78262000793565b84845462000701565b825550505050565b600090565b620007d7620007c8565b620007e48184846200079d565b505050565b5b818110156200080c5762000800600082620007cd565b600181019050620007ea565b5050565b601f8211156200085b576200082581620006cf565b6200083084620006e4565b8101602085101562000840578190505b620008586200084f85620006e4565b830182620007e9565b50505b505050565b600082821c905092915050565b6000620008806000198460080262000860565b1980831691505092915050565b60006200089b83836200086d565b9150826002028217905092915050565b620008b68262000660565b67ffffffffffffffff811115620008d257620008d162000342565b5b620008de82546200069a565b620008eb82828562000810565b600060209050601f8311600181146200092357600084156200090e578287015190505b6200091a85826200088d565b8655506200098a565b601f1984166200093386620006cf565b60005b828110156200095d5784890151825560018201915060208501945060208101905062000936565b868310156200097d578489015162000979601f8916826200086d565b8355505b6001600288020188555050505b505050505050565b7f4e487b7100000000000000000000000000000000000000000000000000000000600052603260045260246000fd5b600081905092915050565b6000620009d98262000660565b620009e58185620009c1565b9350620009f781856020860162000435565b80840191505092915050565b600062000a118284620009cc565b915081905092915050565b7f4e487b7100000000000000000000000000000000000000000000000000000000600052601160045260246000fd5b600062000a588262000757565b91507fffffffffffffffffffffffffffffffffffffffffffffffffffffffffffffffff820362000a8d5762000a8c62000a1c565b5b600182019050919050565b613e388062000aa86000396000f3fe608060405234801561001057600080fd5b50600436106101a95760003560e01c806377782188116100f9578063ad14f0f011610097578063dc8b92e711610071578063dc8b92e7146104de578063e985e9c51461050e578063eacabe141461053e578063f2fde38b1461055a576101a9565b8063ad14f0f014610476578063b88d4fde14610492578063c87b56dd146104ae576101a9565b80638da5cb5b116100d35780638da5cb5b1461040257806395d89b4114610420578063a22cb4651461043e578063aa0d4f6c1461045a576101a9565b8063777821881461037257806377bfe5fb146103a25780638cacb2f3146103d2576101a9565b80631574a67511610166578063607247081161014057806360724708146102ea5780636352211e1461030857806370a0823114610338578063715018a614610368576101a9565b80631574a675146102a857806323b872dd146102b257806342842e0e146102ce576101a9565b806301ffc9a7146101ae57806306fdde03146101de578063081812fc146101fc578063095ea7b31461022c578063099c64331461024857806314388b4014610278575b600080fd5b6101c860048036038101906101c391906126ff565b610576565b6040516101d59190612747565b60405180910390f35b6101e6610658565b6040516101f391906127f2565b60405180910390f35b6102166004803603810190610211919061284a565b6106ea565b60405161022391906128b8565b60405180910390f35b610246600480360381019061024191906128ff565b610730565b005b610262600480360381019061025d919061293f565b610847565b60405161026f91906127f2565b60405180910390f35b610292600480360381019061028d9190612aa1565b6108e7565b60405161029f91906127f2565b60405180910390f35b6102b061099d565b005b6102cc60048036038101906102c79190612aea565b610c42565b005b6102e860048036038101906102e39190612aea565b610ca2565b005b6102f2610cc2565b6040516102ff9190612747565b60405180910390f35b610322600480360381019061031d919061284a565b610cd5565b60405161032f91906128b8565b60405180910390f35b610352600480360381019061034d919061293f565b610d86565b60405161035f9190612b4c565b60405180910390f35b610370610e3d565b005b61038c6004803603810190610387919061293f565b610e51565b60405161039991906127f2565b60405180910390f35b6103bc60048036038101906103b7919061284a565b610fb0565b6040516103c991906127f2565b60405180910390f35b6103ec60048036038101906103e79190612aa1565b611050565b6040516103f99190612747565b60405180910390f35b61040a611086565b60405161041791906128b8565b60405180910390f35b6104286110b0565b60405161043591906127f2565b60405180910390f35b61045860048036038101906104539190612b93565b611142565b005b610474600480360381019061046f9190612bd3565b611158565b005b610490600480360381019061048b9190612c4b565b611188565b005b6104ac60048036038101906104a79190612d48565b611328565b005b6104c860048036038101906104c3919061284a565b61138a565b6040516104d591906127f2565b60405180910390f35b6104f860048036038101906104f3919061284a565b61149c565b60405161050591906127f2565b60405180910390f35b61052860048036038101906105239190612dcb565b61153c565b6040516105359190612747565b60405180910390f35b61055860048036038101906105539190612c4b565b6115d0565b005b610574600480360381019061056f919061293f565b61184e565b005b60007f80ac58cd000000000000000000000000000000000000000000000000000000007bffffffffffffffffffffffffffffffffffffffffffffffffffffffff1916827bffffffffffffffffffffffffffffffffffffffffffffffffffffffff1916148061064157507f5b5e139f000000000000000000000000000000000000000000000000000000007bffffffffffffffffffffffffffffffffffffffffffffffffffffffff1916827bffffffffffffffffffffffffffffffffffffffffffffffffffffffff1916145b806106515750610650826118d1565b5b9050919050565b60606000805461066790612e3a565b80601f016020809104026020016040519081016040528092919081815260200182805461069390612e3a565b80156106e05780601f106106b5576101008083540402835291602001916106e0565b820191906000526020600020905b8154815290600101906020018083116106c357829003601f168201915b5050505050905090565b60006106f58261193b565b6004600083815260200190815260200160002060009054906101000a900473ffffffffffffffffffffffffffffffffffffffff169050919050565b600061073b82610cd5565b90508073ffffffffffffffffffffffffffffffffffffffff168373ffffffffffffffffffffffffffffffffffffffff16036107ab576040517f08c379a00000000000000000000000000000000000000000000000000000000081526004016107a290612edd565b60405180910390fd5b8073ffffffffffffffffffffffffffffffffffffffff166107ca611986565b73ffffffffffffffffffffffffffffffffffffffff1614806107f957506107f8816107f3611986565b61153c565b5b610838576040517f08c379a000000000000000000000000000000000000000000000000000000000815260040161082f90612f6f565b60405180910390fd5b610842838361198e565b505050565b600b602052806000526040600020600091509050805461086690612e3a565b80601f016020809104026020016040519081016040528092919081815260200182805461089290612e3a565b80156108df5780601f106108b4576101008083540402835291602001916108df565b820191906000526020600020905b8154815290600101906020018083116108c257829003601f168201915b505050505081565b600a81805160208101820180518482526020830160208501208183528095505050505050600091509050805461091c90612e3a565b80601f016020809104026020016040519081016040528092919081815260200182805461094890612e3a565b80156109955780601f1061096a57610100808354040283529160200191610995565b820191906000526020600020905b81548152906001019060200180831161097857829003601f168201915b505050505081565b6000600e80546109ac90612e3a565b80601f01602080910402602001604051908101604052809291908181526020018280546109d890612e3a565b8015610a255780601f106109fa57610100808354040283529160200191610a25565b820191906000526020600020905b815481529060010190602001808311610a0857829003601f168201915b50505050509050600060086000815480929190610a4190612fbe565b919050559050610a513382611a47565b610a5b8183611c20565b600f60009054906101000a900460ff1615610b4b576040518060400160405280600981526020017f4578656375746976650000000000000000000000000000000000000000000000815250600b60003373ffffffffffffffffffffffffffffffffffffffff1673ffffffffffffffffffffffffffffffffffffffff1681526020019081526020016000209081610af191906131b2565b506000600f60006101000a81548160ff0219169083151502179055507f975a81b8ac0dbf1299701d398adc5c3bfa50b7efdb26ae977afbf7ad9d2d64853383604051610b3e9291906132d0565b60405180910390a1610c3e565b6040518060400160405280600781526020017f44656661756c7400000000000000000000000000000000000000000000000000815250600b60003373ffffffffffffffffffffffffffffffffffffffff1673ffffffffffffffffffffffffffffffffffffffff1681526020019081526020016000209081610bcc91906131b2565b507f975a81b8ac0dbf1299701d398adc5c3bfa50b7efdb26ae977afbf7ad9d2d6485336040518060400160405280600781526020017f44656661756c740000000000000000000000000000000000000000000000000081525084604051610c3593929190613313565b60405180910390a15b5050565b610c53610c4d611986565b82611c8d565b610c92576040517f08c379a0000000000000000000000000000000000000000000000000000000008152600401610c89906133ca565b60405180910390fd5b610c9d838383611d22565b505050565b610cbd83838360405180602001604052806000815250611328565b505050565b600f60009054906101000a900460ff1681565b6000806002600084815260200190815260200160002060009054906101000a900473ffffffffffffffffffffffffffffffffffffffff169050600073ffffffffffffffffffffffffffffffffffffffff168173ffffffffffffffffffffffffffffffffffffffff1603610d7d576040517f08c379a0000000000000000000000000000000000000000000000000000000008152600401610d7490613436565b60405180910390fd5b80915050919050565b60008073ffffffffffffffffffffffffffffffffffffffff168273ffffffffffffffffffffffffffffffffffffffff1603610df6576040517f08c379a0000000000000000000000000000000000000000000000000000000008152600401610ded906134c8565b60405180910390fd5b600360008373ffffffffffffffffffffffffffffffffffffffff1673ffffffffffffffffffffffffffffffffffffffff168152602001908152602001600020549050919050565b610e45611f88565b610e4f6000612006565b565b60606000600b60008473ffffffffffffffffffffffffffffffffffffffff1673ffffffffffffffffffffffffffffffffffffffff1681526020019081526020016000208054610e9f90612e3a565b905011610ee1576040517f08c379a0000000000000000000000000000000000000000000000000000000008152600401610ed890613534565b60405180910390fd5b600b60008373ffffffffffffffffffffffffffffffffffffffff1673ffffffffffffffffffffffffffffffffffffffff1681526020019081526020016000208054610f2b90612e3a565b80601f0160208091040260200160405190810160405280929190818152602001828054610f5790612e3a565b8015610fa45780601f10610f7957610100808354040283529160200191610fa4565b820191906000526020600020905b815481529060010190602001808311610f8757829003601f168201915b50505050509050919050565b60096020528060005260406000206000915090508054610fcf90612e3a565b80601f0160208091040260200160405190810160405280929190818152602001828054610ffb90612e3a565b80156110485780601f1061101d57610100808354040283529160200191611048565b820191906000526020600020905b81548152906001019060200180831161102b57829003601f168201915b505050505081565b600d818051602081018201805184825260208301602085012081835280955050505050506000915054906101000a900460ff1681565b6000600760009054906101000a900473ffffffffffffffffffffffffffffffffffffffff16905090565b6060600180546110bf90612e3a565b80601f01602080910402602001604051908101604052809291908181526020018280546110eb90612e3a565b80156111385780601f1061110d57610100808354040283529160200191611138565b820191906000526020600020905b81548152906001019060200180831161111b57829003601f168201915b5050505050905090565b61115461114d611986565b83836120cc565b5050565b80600a836040516111699190613590565b9081526020016040518091039020908161118391906131b2565b505050565b600d600b60003373ffffffffffffffffffffffffffffffffffffffff1673ffffffffffffffffffffffffffffffffffffffff1681526020019081526020016000206040516111d6919061362a565b908152602001604051809103902060009054906101000a900460ff16611231576040517f08c379a00000000000000000000000000000000000000000000000000000000081526004016112289061368d565b60405180910390fd5b6000600a826040516112439190613590565b9081526020016040518091039020805461125c90612e3a565b90501161129e576040517f08c379a0000000000000000000000000000000000000000000000000000000008152600401611295906136f9565b60405180910390fd5b80600b60008473ffffffffffffffffffffffffffffffffffffffff1673ffffffffffffffffffffffffffffffffffffffff16815260200190815260200160002090816112ea91906131b2565b507f09a1095331c1561d1cb7707e5a6132970399f28ffa804f7b0186d4c8d38b7d3b828260405161131c929190613719565b60405180910390a15050565b611339611333611986565b83611c8d565b611378576040517f08c379a000000000000000000000000000000000000000000000000000000000815260040161136f906133ca565b60405180910390fd5b61138484848484612238565b50505050565b60606113958261193b565b60006006600084815260200190815260200160002080546113b590612e3a565b80601f01602080910402602001604051908101604052809291908181526020018280546113e190612e3a565b801561142e5780601f106114035761010080835404028352916020019161142e565b820191906000526020600020905b81548152906001019060200180831161141157829003601f168201915b50505050509050600061143f612294565b90506000815103611454578192505050611497565b600082511115611489578082604051602001611471929190613749565b60405160208183030381529060405292505050611497565b611492846122ab565b925050505b919050565b600c60205280600052604060002060009150905080546114bb90612e3a565b80601f01602080910402602001604051908101604052809291908181526020018280546114e790612e3a565b80156115345780601f1061150957610100808354040283529160200191611534565b820191906000526020600020905b81548152906001019060200180831161151757829003601f168201915b505050505081565b6000600560008473ffffffffffffffffffffffffffffffffffffffff1673ffffffffffffffffffffffffffffffffffffffff16815260200190815260200160002060008373ffffffffffffffffffffffffffffffffffffffff1673ffffffffffffffffffffffffffffffffffffffff16815260200190815260200160002060009054906101000a900460ff16905092915050565b600d600b60003373ffffffffffffffffffffffffffffffffffffffff1673ffffffffffffffffffffffffffffffffffffffff16815260200190815260200160002060405161161e919061362a565b908152602001604051809103902060009054906101000a900460ff16611679576040517f08c379a00000000000000000000000000000000000000000000000000000000081526004016116709061368d565b60405180910390fd5b6000600a8260405161168b9190613590565b908152602001604051809103902080546116a490612e3a565b9050116116e6576040517f08c379a00000000000000000000000000000000000000000000000000000000081526004016116dd906136f9565b60405180910390fd5b6000600a826040516116f89190613590565b9081526020016040518091039020805461171190612e3a565b80601f016020809104026020016040519081016040528092919081815260200182805461173d90612e3a565b801561178a5780601f1061175f5761010080835404028352916020019161178a565b820191906000526020600020905b81548152906001019060200180831161176d57829003601f168201915b505050505090506000600860008154809291906117a690612fbe565b9190505590506117b68482611a47565b6117c08183611c20565b82600b60008673ffffffffffffffffffffffffffffffffffffffff1673ffffffffffffffffffffffffffffffffffffffff168152602001908152602001600020908161180c91906131b2565b507f975a81b8ac0dbf1299701d398adc5c3bfa50b7efdb26ae977afbf7ad9d2d648584848460405161184093929190613313565b60405180910390a150505050565b611856611f88565b600073ffffffffffffffffffffffffffffffffffffffff168173ffffffffffffffffffffffffffffffffffffffff16036118c5576040517f08c379a00000000000000000000000000000000000000000000000000000000081526004016118bc906137df565b60405180910390fd5b6118ce81612006565b50565b60007f01ffc9a7000000000000000000000000000000000000000000000000000000007bffffffffffffffffffffffffffffffffffffffffffffffffffffffff1916827bffffffffffffffffffffffffffffffffffffffffffffffffffffffff1916149050919050565b61194481612313565b611983576040517f08c379a000000000000000000000000000000000000000000000000000000000815260040161197a90613436565b60405180910390fd5b50565b600033905090565b816004600083815260200190815260200160002060006101000a81548173ffffffffffffffffffffffffffffffffffffffff021916908373ffffffffffffffffffffffffffffffffffffffff160217905550808273ffffffffffffffffffffffffffffffffffffffff16611a0183610cd5565b73ffffffffffffffffffffffffffffffffffffffff167f8c5be1e5ebec7d5bd14f71427d1e84f3dd0314c0f7b2291e5b200ac8c7c3b92560405160405180910390a45050565b600073ffffffffffffffffffffffffffffffffffffffff168273ffffffffffffffffffffffffffffffffffffffff1603611ab6576040517f08c379a0000000000000000000000000000000000000000000000000000000008152600401611aad9061384b565b60405180910390fd5b611abf81612313565b15611aff576040517f08c379a0000000000000000000000000000000000000000000000000000000008152600401611af6906138b7565b60405180910390fd5b611b0b6000838361237f565b6001600360008473ffffffffffffffffffffffffffffffffffffffff1673ffffffffffffffffffffffffffffffffffffffff1681526020019081526020016000206000828254611b5b91906138d7565b92505081905550816002600083815260200190815260200160002060006101000a81548173ffffffffffffffffffffffffffffffffffffffff021916908373ffffffffffffffffffffffffffffffffffffffff160217905550808273ffffffffffffffffffffffffffffffffffffffff16600073ffffffffffffffffffffffffffffffffffffffff167fddf252ad1be2c89b69c2b068fc378daa952ba7f163c4a11628f55a4df523b3ef60405160405180910390a4611c1c60008383612384565b5050565b611c2982612313565b611c68576040517f08c379a0000000000000000000000000000000000000000000000000000000008152600401611c5f9061397d565b60405180910390fd5b80600660008481526020019081526020016000209081611c8891906131b2565b505050565b600080611c9983610cd5565b90508073ffffffffffffffffffffffffffffffffffffffff168473ffffffffffffffffffffffffffffffffffffffff161480611cdb5750611cda818561153c565b5b80611d1957508373ffffffffffffffffffffffffffffffffffffffff16611d01846106ea565b73ffffffffffffffffffffffffffffffffffffffff16145b91505092915050565b8273ffffffffffffffffffffffffffffffffffffffff16611d4282610cd5565b73ffffffffffffffffffffffffffffffffffffffff1614611d98576040517f08c379a0000000000000000000000000000000000000000000000000000000008152600401611d8f90613a0f565b60405180910390fd5b600073ffffffffffffffffffffffffffffffffffffffff168273ffffffffffffffffffffffffffffffffffffffff1603611e07576040517f08c379a0000000000000000000000000000000000000000000000000000000008152600401611dfe90613aa1565b60405180910390fd5b611e1283838361237f565b611e1d60008261198e565b6001600360008573ffffffffffffffffffffffffffffffffffffffff1673ffffffffffffffffffffffffffffffffffffffff1681526020019081526020016000206000828254611e6d9190613ac1565b925050819055506001600360008473ffffffffffffffffffffffffffffffffffffffff1673ffffffffffffffffffffffffffffffffffffffff1681526020019081526020016000206000828254611ec491906138d7565b92505081905550816002600083815260200190815260200160002060006101000a81548173ffffffffffffffffffffffffffffffffffffffff021916908373ffffffffffffffffffffffffffffffffffffffff160217905550808273ffffffffffffffffffffffffffffffffffffffff168473ffffffffffffffffffffffffffffffffffffffff167fddf252ad1be2c89b69c2b068fc378daa952ba7f163c4a11628f55a4df523b3ef60405160405180910390a4611f83838383612384565b505050565b611f90611986565b73ffffffffffffffffffffffffffffffffffffffff16611fae611086565b73ffffffffffffffffffffffffffffffffffffffff1614612004576040517f08c379a0000000000000000000000000000000000000000000000000000000008152600401611ffb90613b41565b60405180910390fd5b565b6000600760009054906101000a900473ffffffffffffffffffffffffffffffffffffffff16905081600760006101000a81548173ffffffffffffffffffffffffffffffffffffffff021916908373ffffffffffffffffffffffffffffffffffffffff1602179055508173ffffffffffffffffffffffffffffffffffffffff168173ffffffffffffffffffffffffffffffffffffffff167f8be0079c531659141344cd1fd0a4f28419497f9722a3daafe3b4186f6b6457e060405160405180910390a35050565b8173ffffffffffffffffffffffffffffffffffffffff168373ffffffffffffffffffffffffffffffffffffffff160361213a576040517f08c379a000000000000000000000000000000000000000000000000000000000815260040161213190613bad565b60405180910390fd5b80600560008573ffffffffffffffffffffffffffffffffffffffff1673ffffffffffffffffffffffffffffffffffffffff16815260200190815260200160002060008473ffffffffffffffffffffffffffffffffffffffff1673ffffffffffffffffffffffffffffffffffffffff16815260200190815260200160002060006101000a81548160ff0219169083151502179055508173ffffffffffffffffffffffffffffffffffffffff168373ffffffffffffffffffffffffffffffffffffffff167f17307eab39ab6107e8899845ad3d59bd9653f200f220920489ca2b5937696c318360405161222b9190612747565b60405180910390a3505050565b612243848484611d22565b61224f84848484612389565b61228e576040517f08c379a000000000000000000000000000000000000000000000000000000000815260040161228590613c3f565b60405180910390fd5b50505050565b606060405180602001604052806000815250905090565b60606122b68261193b565b60006122c0612294565b905060008151116122e0576040518060200160405280600081525061230b565b806122ea84612510565b6040516020016122fb929190613749565b6040516020818303038152906040525b915050919050565b60008073ffffffffffffffffffffffffffffffffffffffff166002600084815260200190815260200160002060009054906101000a900473ffffffffffffffffffffffffffffffffffffffff1673ffffffffffffffffffffffffffffffffffffffff1614159050919050565b505050565b505050565b60006123aa8473ffffffffffffffffffffffffffffffffffffffff16612670565b15612503578373ffffffffffffffffffffffffffffffffffffffff1663150b7a026123d3611986565b8786866040518563ffffffff1660e01b81526004016123f59493929190613cb4565b6020604051808303816000875af192505050801561243157506040513d601f19601f8201168201806040525081019061242e9190613d15565b60015b6124b3573d8060008114612461576040519150601f19603f3d011682016040523d82523d6000602084013e612466565b606091505b5060008151036124ab576040517f08c379a00000000000000000000000000000000000000000000000000000000081526004016124a290613c3f565b60405180910390fd5b805181602001fd5b63150b7a0260e01b7bffffffffffffffffffffffffffffffffffffffffffffffffffffffff1916817bffffffffffffffffffffffffffffffffffffffffffffffffffffffff191614915050612508565b600190505b949350505050565b606060008203612557576040518060400160405280600181526020017f3000000000000000000000000000000000000000000000000000000000000000815250905061266b565b600082905060005b6000821461258957808061257290612fbe565b915050600a826125829190613d71565b915061255f565b60008167ffffffffffffffff8111156125a5576125a4612976565b5b6040519080825280601f01601f1916602001820160405280156125d75781602001600182028036833780820191505090505b5090505b60008514612664576001826125f09190613ac1565b9150600a856125ff9190613da2565b603061260b91906138d7565b60f81b81838151811061262157612620613dd3565b5b60200101907effffffffffffffffffffffffffffffffffffffffffffffffffffffffffffff1916908160001a905350600a8561265d9190613d71565b94506125db565b8093505050505b919050565b6000808273ffffffffffffffffffffffffffffffffffffffff163b119050919050565b6000604051905090565b600080fd5b600080fd5b60007fffffffff0000000000000000000000000000000000000000000000000000000082169050919050565b6126dc816126a7565b81146126e757600080fd5b50565b6000813590506126f9816126d3565b92915050565b6000602082840312156127155761271461269d565b5b6000612723848285016126ea565b91505092915050565b60008115159050919050565b6127418161272c565b82525050565b600060208201905061275c6000830184612738565b92915050565b600081519050919050565b600082825260208201905092915050565b60005b8381101561279c578082015181840152602081019050612781565b60008484015250505050565b6000601f19601f8301169050919050565b60006127c482612762565b6127ce818561276d565b93506127de81856020860161277e565b6127e7816127a8565b840191505092915050565b6000602082019050818103600083015261280c81846127b9565b905092915050565b6000819050919050565b61282781612814565b811461283257600080fd5b50565b6000813590506128448161281e565b92915050565b6000602082840312156128605761285f61269d565b5b600061286e84828501612835565b91505092915050565b600073ffffffffffffffffffffffffffffffffffffffff82169050919050565b60006128a282612877565b9050919050565b6128b281612897565b82525050565b60006020820190506128cd60008301846128a9565b92915050565b6128dc81612897565b81146128e757600080fd5b50565b6000813590506128f9816128d3565b92915050565b600080604083850312156129165761291561269d565b5b6000612924858286016128ea565b925050602061293585828601612835565b9150509250929050565b6000602082840312156129555761295461269d565b5b6000612963848285016128ea565b91505092915050565b600080fd5b600080fd5b7f4e487b7100000000000000000000000000000000000000000000000000000000600052604160045260246000fd5b6129ae826127a8565b810181811067ffffffffffffffff821117156129cd576129cc612976565b5b80604052505050565b60006129e0612693565b90506129ec82826129a5565b919050565b600067ffffffffffffffff821115612a0c57612a0b612976565b5b612a15826127a8565b9050602081019050919050565b82818337600083830152505050565b6000612a44612a3f846129f1565b6129d6565b905082815260208101848484011115612a6057612a5f612971565b5b612a6b848285612a22565b509392505050565b600082601f830112612a8857612a8761296c565b5b8135612a98848260208601612a31565b91505092915050565b600060208284031215612ab757612ab661269d565b5b600082013567ffffffffffffffff811115612ad557612ad46126a2565b5b612ae184828501612a73565b91505092915050565b600080600060608486031215612b0357612b0261269d565b5b6000612b11868287016128ea565b9350506020612b22868287016128ea565b9250506040612b3386828701612835565b9150509250925092565b612b4681612814565b82525050565b6000602082019050612b616000830184612b3d565b92915050565b612b708161272c565b8114612b7b57600080fd5b50565b600081359050612b8d81612b67565b92915050565b60008060408385031215612baa57612ba961269d565b5b6000612bb8858286016128ea565b9250506020612bc985828601612b7e565b9150509250929050565b60008060408385031215612bea57612be961269d565b5b600083013567ffffffffffffffff811115612c0857612c076126a2565b5b612c1485828601612a73565b925050602083013567ffffffffffffffff811115612c3557612c346126a2565b5b612c4185828601612a73565b9150509250929050565b60008060408385031215612c6257612c6161269d565b5b6000612c70858286016128ea565b925050602083013567ffffffffffffffff811115612c9157612c906126a2565b5b612c9d85828601612a73565b9150509250929050565b600067ffffffffffffffff821115612cc257612cc1612976565b5b612ccb826127a8565b9050602081019050919050565b6000612ceb612ce684612ca7565b6129d6565b905082815260208101848484011115612d0757612d06612971565b5b612d12848285612a22565b509392505050565b600082601f830112612d2f57612d2e61296c565b5b8135612d3f848260208601612cd8565b91505092915050565b60008060008060808587031215612d6257612d6161269d565b5b6000612d70878288016128ea565b9450506020612d81878288016128ea565b9350506040612d9287828801612835565b925050606085013567ffffffffffffffff811115612db357612db26126a2565b5b612dbf87828801612d1a565b91505092959194509250565b60008060408385031215612de257612de161269d565b5b6000612df0858286016128ea565b9250506020612e01858286016128ea565b9150509250929050565b7f4e487b7100000000000000000000000000000000000000000000000000000000600052602260045260246000fd5b60006002820490506001821680612e5257607f821691505b602082108103612e6557612e64612e0b565b5b50919050565b7f4552433732313a20617070726f76616c20746f2063757272656e74206f776e6560008201527f7200000000000000000000000000000000000000000000000000000000000000602082015250565b6000612ec760218361276d565b9150612ed282612e6b565b604082019050919050565b60006020820190508181036000830152612ef681612eba565b9050919050565b7f4552433732313a20617070726f76652063616c6c6572206973206e6f7420746f60008201527f6b656e206f776e6572206e6f7220617070726f76656420666f7220616c6c0000602082015250565b6000612f59603e8361276d565b9150612f6482612efd565b604082019050919050565b60006020820190508181036000830152612f8881612f4c565b9050919050565b7f4e487b7100000000000000000000000000000000000000000000000000000000600052601160045260246000fd5b6000612fc982612814565b91507fffffffffffffffffffffffffffffffffffffffffffffffffffffffffffffffff8203612ffb57612ffa612f8f565b5b600182019050919050565b60008190508160005260206000209050919050565b60006020601f8301049050919050565b600082821b905092915050565b6000600883026130687fffffffffffffffffffffffffffffffffffffffffffffffffffffffffffffffff8261302b565b613072868361302b565b95508019841693508086168417925050509392505050565b6000819050919050565b60006130af6130aa6130a584612814565b61308a565b612814565b9050919050565b6000819050919050565b6130c983613094565b6130dd6130d5826130b6565b848454613038565b825550505050565b600090565b6130f26130e5565b6130fd8184846130c0565b505050565b5b81811015613121576131166000826130ea565b600181019050613103565b5050565b601f8211156131665761313781613006565b6131408461301b565b8101602085101561314f578190505b61316361315b8561301b565b830182613102565b50505b505050565b600082821c905092915050565b60006131896000198460080261316b565b1980831691505092915050565b60006131a28383613178565b9150826002028217905092915050565b6131bb82612762565b67ffffffffffffffff8111156131d4576131d3612976565b5b6131de8254612e3a565b6131e9828285613125565b600060209050601f83116001811461321c576000841561320a578287015190505b6132148582613196565b86555061327c565b601f19841661322a86613006565b60005b828110156132525784890151825560018201915060208501945060208101905061322d565b8683101561326f578489015161326b601f891682613178565b8355505b6001600288020188555050505b505050505050565b7f4578656375746976650000000000000000000000000000000000000000000000600082015250565b60006132ba60098361276d565b91506132c582613284565b602082019050919050565b60006060820190506132e560008301856128a9565b81810360208301526132f6816132ad565b9050818103604083015261330a81846127b9565b90509392505050565b600060608201905061332860008301866128a9565b818103602083015261333a81856127b9565b9050818103604083015261334e81846127b9565b9050949350505050565b7f4552433732313a2063616c6c6572206973206e6f7420746f6b656e206f776e6560008201527f72206e6f7220617070726f766564000000000000000000000000000000000000602082015250565b60006133b4602e8361276d565b91506133bf82613358565b604082019050919050565b600060208201905081810360008301526133e3816133a7565b9050919050565b7f4552433732313a20696e76616c696420746f6b656e2049440000000000000000600082015250565b600061342060188361276d565b915061342b826133ea565b602082019050919050565b6000602082019050818103600083015261344f81613413565b9050919050565b7f4552433732313a2061646472657373207a65726f206973206e6f74206120766160008201527f6c6964206f776e65720000000000000000000000000000000000000000000000602082015250565b60006134b260298361276d565b91506134bd82613456565b604082019050919050565b600060208201905081810360008301526134e1816134a5565b9050919050565b7f4e6f206d656d626572207479706520666f756e6420666f7220757365722e0000600082015250565b600061351e601e8361276d565b9150613529826134e8565b602082019050919050565b6000602082019050818103600083015261354d81613511565b9050919050565b600081905092915050565b600061356a82612762565b6135748185613554565b935061358481856020860161277e565b80840191505092915050565b600061359c828461355f565b915081905092915050565b600081546135b481612e3a565b6135be8186613554565b945060018216600081146135d957600181146135ee57613621565b60ff1983168652811515820286019350613621565b6135f785613006565b60005b83811015613619578154818901526001820191506020810190506135fa565b838801955050505b50505092915050565b600061363682846135a7565b915081905092915050565b7f4e6f7420616e2065786563757469766520726f6c650000000000000000000000600082015250565b600061367760158361276d565b915061368282613641565b602082019050919050565b600060208201905081810360008301526136a68161366a565b9050919050565b7f496d61676520666f72206d656d6265722074797065206e6f7420736574000000600082015250565b60006136e3601d8361276d565b91506136ee826136ad565b602082019050919050565b60006020820190508181036000830152613712816136d6565b9050919050565b600060408201905061372e60008301856128a9565b818103602083015261374081846127b9565b90509392505050565b6000613755828561355f565b9150613761828461355f565b91508190509392505050565b7f4f776e61626c653a206e6577206f776e657220697320746865207a65726f206160008201527f6464726573730000000000000000000000000000000000000000000000000000602082015250565b60006137c960268361276d565b91506137d48261376d565b604082019050919050565b600060208201905081810360008301526137f8816137bc565b9050919050565b7f4552433732313a206d696e7420746f20746865207a65726f2061646472657373600082015250565b600061383560208361276d565b9150613840826137ff565b602082019050919050565b6000602082019050818103600083015261386481613828565b9050919050565b7f4552433732313a20746f6b656e20616c7265616479206d696e74656400000000600082015250565b60006138a1601c8361276d565b91506138ac8261386b565b602082019050919050565b600060208201905081810360008301526138d081613894565b9050919050565b60006138e282612814565b91506138ed83612814565b925082820190508082111561390557613904612f8f565b5b92915050565b7f45524337323155524953746f726167653a2055524920736574206f66206e6f6e60008201527f6578697374656e7420746f6b656e000000000000000000000000000000000000602082015250565b6000613967602e8361276d565b91506139728261390b565b604082019050919050565b600060208201905081810360008301526139968161395a565b9050919050565b7f4552433732313a207472616e736665722066726f6d20696e636f72726563742060008201527f6f776e6572000000000000000000000000000000000000000000000000000000602082015250565b60006139f960258361276d565b9150613a048261399d565b604082019050919050565b60006020820190508181036000830152613a28816139ec565b9050919050565b7f4552433732313a207472616e7366657220746f20746865207a65726f2061646460008201527f7265737300000000000000000000000000000000000000000000000000000000602082015250565b6000613a8b60248361276d565b9150613a9682613a2f565b604082019050919050565b60006020820190508181036000830152613aba81613a7e565b9050919050565b6000613acc82612814565b9150613ad783612814565b9250828203905081811115613aef57613aee612f8f565b5b92915050565b7f4f776e61626c653a2063616c6c6572206973206e6f7420746865206f776e6572600082015250565b6000613b2b60208361276d565b9150613b3682613af5565b602082019050919050565b60006020820190508181036000830152613b5a81613b1e565b9050919050565b7f4552433732313a20617070726f766520746f2063616c6c657200000000000000600082015250565b6000613b9760198361276d565b9150613ba282613b61565b602082019050919050565b60006020820190508181036000830152613bc681613b8a565b9050919050565b7f4552433732313a207472616e7366657220746f206e6f6e20455243373231526560008201527f63656976657220696d706c656d656e7465720000000000000000000000000000602082015250565b6000613c2960328361276d565b9150613c3482613bcd565b604082019050919050565b60006020820190508181036000830152613c5881613c1c565b9050919050565b600081519050919050565b600082825260208201905092915050565b6000613c8682613c5f565b613c908185613c6a565b9350613ca081856020860161277e565b613ca9816127a8565b840191505092915050565b6000608082019050613cc960008301876128a9565b613cd660208301866128a9565b613ce36040830185612b3d565b8181036060830152613cf58184613c7b565b905095945050505050565b600081519050613d0f816126d3565b92915050565b600060208284031215613d2b57613d2a61269d565b5b6000613d3984828501613d00565b91505092915050565b7f4e487b7100000000000000000000000000000000000000000000000000000000600052601260045260246000fd5b6000613d7c82612814565b9150613d8783612814565b925082613d9757613d96613d42565b5b828204905092915050565b6000613dad82612814565b9150613db883612814565b925082613dc857613dc7613d42565b5b828206905092915050565b7f4e487b7100000000000000000000000000000000000000000000000000000000600052603260045260246000fdfea264697066735822122097a2538ddfb1f07b4718cbd17baa26b1a05efca58bfe88d352fd753e88196f2564736f6c63430008140033",
  "linkReferences": {},
  "deployedLinkReferences": {}
}