{"abi":[{"type":"constructor","inputs":[{"name":"name","type":"string","internalType":"string"},{"name":"symbol","type":"string","internalType":"string"}],"stateMutability":"nonpayable"},{"type":"function","name":"allowance","inputs":[{"name":"owner","type":"address","internalType":"address"},{"name":"spender","type":"address","internalType":"address"}],"outputs":[{"name":"","type":"uint256","internalType":"uint256"}],"stateMutability":"view"},{"type":"function","name":"approve","inputs":[{"name":"spender","type":"address","internalType":"address"},{"name":"amount","type":"uint256","internalType":"uint256"}],"outputs":[{"name":"","type":"bool","internalType":"bool"}],"stateMutability":"nonpayable"},{"type":"function","name":"balanceOf","inputs":[{"name":"account","type":"address","internalType":"address"}],"outputs":[{"name":"","type":"uint256","internalType":"uint256"}],"stateMutability":"view"},{"type":"function","name":"decimals","inputs":[],"outputs":[{"name":"","type":"uint8","internalType":"uint8"}],"stateMutability":"view"},{"type":"function","name":"decreaseAllowance","inputs":[{"name":"spender","type":"address","internalType":"address"},{"name":"subtractedValue","type":"uint256","internalType":"uint256"}],"outputs":[{"name":"","type":"bool","internalType":"bool"}],"stateMutability":"nonpayable"},{"type":"function","name":"getTaskManagerAddress","inputs":[],"outputs":[{"name":"","type":"address","internalType":"address"}],"stateMutability":"view"},{"type":"function","name":"increaseAllowance","inputs":[{"name":"spender","type":"address","internalType":"address"},{"name":"addedValue","type":"uint256","internalType":"uint256"}],"outputs":[{"name":"","type":"bool","internalType":"bool"}],"stateMutability":"nonpayable"},{"type":"function","name":"mint","inputs":[{"name":"to","type":"address","internalType":"address"},{"name":"amount","type":"uint256","internalType":"uint256"}],"outputs":[],"stateMutability":"nonpayable"},{"type":"function","name":"name","inputs":[],"outputs":[{"name":"","type":"string","internalType":"string"}],"stateMutability":"view"},{"type":"function","name":"owner","inputs":[],"outputs":[{"name":"","type":"address","internalType":"address"}],"stateMutability":"view"},{"type":"function","name":"renounceOwnership","inputs":[],"outputs":[],"stateMutability":"nonpayable"},{"type":"function","name":"setTaskManagerAddress","inputs":[{"name":"_taskManagerAddress","type":"address","internalType":"address"}],"outputs":[],"stateMutability":"nonpayable"},{"type":"function","name":"symbol","inputs":[],"outputs":[{"name":"","type":"string","internalType":"string"}],"stateMutability":"view"},{"type":"function","name":"totalSupply","inputs":[],"outputs":[{"name":"","type":"uint256","internalType":"uint256"}],"stateMutability":"view"},{"type":"function","name":"transfer","inputs":[{"name":"to","type":"address","internalType":"address"},{"name":"amount","type":"uint256","internalType":"uint256"}],"outputs":[{"name":"","type":"bool","internalType":"bool"}],"stateMutability":"nonpayable"},{"type":"function","name":"transferFrom","inputs":[{"name":"from","type":"address","internalType":"address"},{"name":"to","type":"address","internalType":"address"},{"name":"amount","type":"uint256","internalType":"uint256"}],"outputs":[{"name":"","type":"bool","internalType":"bool"}],"stateMutability":"nonpayable"},{"type":"function","name":"transferOwnership","inputs":[{"name":"newOwner","type":"address","internalType":"address"}],"outputs":[],"stateMutability":"nonpayable"},{"type":"event","name":"Approval","inputs":[{"name":"owner","type":"address","indexed":true,"internalType":"address"},{"name":"spender","type":"address","indexed":true,"internalType":"address"},{"name":"value","type":"uint256","indexed":false,"internalType":"uint256"}],"anonymous":false},{"type":"event","name":"Mint","inputs":[{"name":"to","type":"address","indexed":true,"internalType":"address"},{"name":"amount","type":"uint256","indexed":false,"internalType":"uint256"}],"anonymous":false},{"type":"event","name":"OwnershipTransferred","inputs":[{"name":"previousOwner","type":"address","indexed":true,"internalType":"address"},{"name":"newOwner","type":"address","indexed":true,"internalType":"address"}],"anonymous":false},{"type":"event","name":"TaskManagerAddressSet","inputs":[{"name":"taskManagerAddress","type":"address","indexed":false,"internalType":"address"}],"anonymous":false},{"type":"event","name":"Transfer","inputs":[{"name":"from","type":"address","indexed":true,"internalType":"address"},{"name":"to","type":"address","indexed":true,"internalType":"address"},{"name":"value","type":"uint256","indexed":false,"internalType":"uint256"}],"anonymous":false}],"bytecode":{"object":"0x60806040523461037957610fe8803803806100198161037e565b9283398101906040818303126103795780516001600160401b03811161037957826100459183016103a3565b60208201519092906001600160401b0381116103795761006592016103a3565b81516001600160401b03811161028457600354600181811c9116801561036f575b602082101461026457601f811161030a575b50602092601f82116001146102a5579281929360009261029a575b50508160011b916000199060031b1c1916176003555b80516001600160401b03811161028457600454600181811c9116801561027a575b602082101461026457601f81116101ff575b50602091601f821160011461019b57918192600092610190575b50508160011b916000199060031b1c1916176004555b60058054336001600160a01b03198216811790925560405191906001600160a01b03167f8be0079c531659141344cd1fd0a4f28419497f9722a3daafe3b4186f6b6457e0600080a3600680546001600160a01b0319169055610bd9908161040f8239f35b015190503880610116565b601f198216926004600052806000209160005b8581106101e7575083600195106101ce575b505050811b0160045561012c565b015160001960f88460031b161c191690553880806101c0565b919260206001819286850151815501940192016101ae565b60046000527f8a35acfbc15ff81a39ae7d344fd709f28e8600b4aa8c65c6b64bfe7fe36bd19b601f830160051c8101916020841061025a575b601f0160051c01905b81811061024e57506100fc565b60008155600101610241565b9091508190610238565b634e487b7160e01b600052602260045260246000fd5b90607f16906100ea565b634e487b7160e01b600052604160045260246000fd5b0151905038806100b3565b601f198216936003600052806000209160005b8681106102f257508360019596106102d9575b505050811b016003556100c9565b015160001960f88460031b161c191690553880806102cb565b919260206001819286850151815501940192016102b8565b60036000527fc2575a0e9e593c00f959f8c92f12db2869c3395a3b0502d05e2516446f71f85b601f830160051c81019160208410610365575b601f0160051c01905b8181106103595750610098565b6000815560010161034c565b9091508190610343565b90607f1690610086565b600080fd5b6040519190601f01601f191682016001600160401b0381118382101761028457604052565b81601f82011215610379578051906001600160401b038211610284576103d2601f8301601f191660200161037e565b92828452602083830101116103795760005b8281106103f957505060206000918301015290565b806020809284010151828287010152016103e456fe608080604052600436101561001357600080fd5b60003560e01c90816306fdde03146108d857508063095ea7b3146108b257806318160ddd1461089457806323b872dd146107a0578063313ce56714610784578063395093511461073257806340c10f19146105d057806365ce8df7146105a757806370a082311461056d578063715018a61461051057806388bb45bb1461044d5780638da5cb5b1461042457806395d89b4114610303578063a457c2d714610251578063a9059cbb146101f8578063dd62ed3e146101a75763f2fde38b146100da57600080fd5b346101a25760203660031901126101a2576100f36109f4565b6100fb610b4b565b6001600160a01b0316801561014e57600580546001600160a01b0319811683179091556001600160a01b03167f8be0079c531659141344cd1fd0a4f28419497f9722a3daafe3b4186f6b6457e0600080a3005b60405162461bcd60e51b815260206004820152602660248201527f4f776e61626c653a206e6577206f776e657220697320746865207a65726f206160448201526564647265737360d01b6064820152608490fd5b600080fd5b346101a25760403660031901126101a2576101c06109f4565b6101c8610a0a565b6001600160a01b039182166000908152600160209081526040808320949093168252928352819020549051908152f35b346101a25760403660031901126101a2576102116109f4565b5060405162461bcd60e51b81526020600482015260176024820152762a3930b739b332b9399030b932903234b9b0b13632b21760491b6044820152606490fd5b346101a25760403660031901126101a25761026a6109f4565b60243590336000526001602052604060002060018060a01b038216600052602052604060002054918083106102b0576102a592039033610a43565b602060405160018152f35b60405162461bcd60e51b815260206004820152602560248201527f45524332303a2064656372656173656420616c6c6f77616e63652062656c6f77604482015264207a65726f60d81b6064820152608490fd5b346101a25760003660031901126101a25760405160006004548060011c9060018116801561041a575b602083108114610406578285529081156103ea5750600114610393575b50819003601f01601f191681019067ffffffffffffffff82118183101761037d57610379829182604052826109ab565b0390f35b634e487b7160e01b600052604160045260246000fd5b905060046000527f8a35acfbc15ff81a39ae7d344fd709f28e8600b4aa8c65c6b64bfe7fe36bd19b6000905b8282106103d457506020915082010182610349565b60018160209254838588010152019101906103bf565b90506020925060ff191682840152151560051b82010182610349565b634e487b7160e01b84526022600452602484fd5b91607f169161032c565b346101a25760003660031901126101a2576005546040516001600160a01b039091168152602090f35b346101a25760203660031901126101a2576104666109f4565b600654906001600160a01b0382166104c1576001600160a01b03166001600160a01b03199190911681176006556040519081527f81862f97e97b649111ee20215bbdadae4012a1b9bd17da9d9ddf0187872fd37690602090a1005b60405162461bcd60e51b815260206004820152602160248201527f5461736b206d616e61676572206164647265737320616c7265616479207365746044820152601760f91b6064820152608490fd5b346101a25760003660031901126101a257610529610b4b565b600580546001600160a01b031981169091556000906001600160a01b03167f8be0079c531659141344cd1fd0a4f28419497f9722a3daafe3b4186f6b6457e08280a3005b346101a25760203660031901126101a2576001600160a01b0361058e6109f4565b1660005260006020526020604060002054604051908152f35b346101a25760003660031901126101a2576006546040516001600160a01b039091168152602090f35b346101a25760403660031901126101a2576105e96109f4565b60065460243591906001600160a01b031633036106d7576001600160a01b0316908115610692576020816106407f0f6798a560793a54c3bcfe86a93cde1e73087d944c0ea20544137d412139688593600254610a20565b6002558360005260008252604060002061065b828254610a20565b90558360007fddf252ad1be2c89b69c2b068fc378daa952ba7f163c4a11628f55a4df523b3ef84604051858152a3604051908152a2005b60405162461bcd60e51b815260206004820152601f60248201527f45524332303a206d696e7420746f20746865207a65726f2061646472657373006044820152606490fd5b60405162461bcd60e51b815260206004820152602d60248201527f4f6e6c7920746865207461736b206d616e616765722063616e2063616c6c207460448201526c3434b990333ab731ba34b7b71760991b6064820152608490fd5b346101a25760403660031901126101a2576102a561074e6109f4565b336000526001602052604060002060018060a01b03821660005260205261077d60406000206024359054610a20565b9033610a43565b346101a25760003660031901126101a257602060405160128152f35b346101a25760603660031901126101a2576107b96109f4565b6107c1610a0a565b506001600160a01b0381166000908152600160208181526040808420338552909152909120549190604435908301610833575b60405162461bcd60e51b81526020600482015260176024820152762a3930b739b332b9399030b932903234b9b0b13632b21760491b6044820152606490fd5b80831061084f576108479203903390610a43565b8080806107f4565b60405162461bcd60e51b815260206004820152601d60248201527f45524332303a20696e73756666696369656e7420616c6c6f77616e63650000006044820152606490fd5b346101a25760003660031901126101a2576020600254604051908152f35b346101a25760403660031901126101a2576102a56108ce6109f4565b6024359033610a43565b346101a25760003660031901126101a25760006003548060011c906001811680156109a1575b602083108114610406578285529081156103ea575060011461094a5750819003601f01601f191681019067ffffffffffffffff82118183101761037d57610379829182604052826109ab565b905060036000527fc2575a0e9e593c00f959f8c92f12db2869c3395a3b0502d05e2516446f71f85b6000905b82821061098b57506020915082010182610349565b6001816020925483858801015201910190610976565b91607f16916108fe565b91909160208152825180602083015260005b8181106109de575060409293506000838284010152601f8019910116010190565b80602080928701015160408286010152016109bd565b600435906001600160a01b03821682036101a257565b602435906001600160a01b03821682036101a257565b91908201809211610a2d57565b634e487b7160e01b600052601160045260246000fd5b6001600160a01b0316908115610afa576001600160a01b0316918215610aaa5760207f8c5be1e5ebec7d5bd14f71427d1e84f3dd0314c0f7b2291e5b200ac8c7c3b925918360005260018252604060002085600052825280604060002055604051908152a3565b60405162461bcd60e51b815260206004820152602260248201527f45524332303a20617070726f766520746f20746865207a65726f206164647265604482015261737360f01b6064820152608490fd5b60405162461bcd60e51b8152602060048201526024808201527f45524332303a20617070726f76652066726f6d20746865207a65726f206164646044820152637265737360e01b6064820152608490fd5b6005546001600160a01b03163303610b5f57565b606460405162461bcd60e51b815260206004820152602060248201527f4f776e61626c653a2063616c6c6572206973206e6f7420746865206f776e65726044820152fdfea264697066735822122092bb1dcc58ae87785b229c714204e30587c9133e005830d2cb78647d8320134864736f6c634300081a0033","linkReferences":{}},"methodIdentifiers":{"allowance(address,address)":"dd62ed3e","approve(address,uint256)":"095ea7b3","balanceOf(address)":"70a08231","decimals()":"313ce567","decreaseAllowance(address,uint256)":"a457c2d7","getTaskManagerAddress()":"65ce8df7","increaseAllowance(address,uint256)":"39509351","mint(address,uint256)":"40c10f19","name()":"06fdde03","owner()":"8da5cb5b","renounceOwnership()":"715018a6","setTaskManagerAddress(address)":"88bb45bb","symbol()":"95d89b41","totalSupply()":"18160ddd","transfer(address,uint256)":"a9059cbb","transferFrom(address,address,uint256)":"23b872dd","transferOwnership(address)":"f2fde38b"},"id":52}