{
  "_format": "hh-sol-artifact-1",
  "contractName": "ParticipationVotingFactory",
  "sourceName": "contracts/ParticipationVotingFactory.sol",
  "abi": [
    {
      "anonymous": false,
      "inputs": [
        {
          "indexed": true,
          "internalType": "address",
          "name": "votingContractAddress",
          "type": "address"
        },
        {
          "indexed": false,
          "internalType": "string",
          "name": "POname",
          "type": "string"
        },
        {
          "indexed": false,
          "internalType": "uint256",
          "name": "quorumPercentage",
          "type": "uint256"
        }
      ],
      "name": "VotingContractCreated",
      "type": "event"
    },
    {
      "inputs": [
        {
          "internalType": "address",
          "name": "_ParticipationToken",
          "type": "address"
        },
        {
          "internalType": "address",
          "name": "_nftMembership",
          "type": "address"
        },
        {
          "internalType": "string[]",
          "name": "_allowedRoleNames",
          "type": "string[]"
        },
        {
          "internalType": "bool",
          "name": "_quadraticVotingEnabled",
          "type": "bool"
        },
        {
          "internalType": "address",
          "name": "_treasuryAddress",
          "type": "address"
        },
        {
          "internalType": "string",
          "name": "POname",
          "type": "string"
        },
        {
          "internalType": "uint256",
          "name": "_quorumPercentage",
          "type": "uint256"
        }
      ],
      "name": "createParticipationVoting",
      "outputs": [
        {
          "internalType": "address",
          "name": "",
          "type": "address"
        }
      ],
      "stateMutability": "nonpayable",
      "type": "function"
    }
  ],
  "bytecode": "0x608060405234801561001057600080fd5b50612f70806100206000396000f3fe60806040523480156200001157600080fd5b50600436106200002e5760003560e01c8063907134251462000033575b600080fd5b6200005160048036038101906200004b91906200046f565b62000069565b60405162000060919062000571565b60405180910390f35b600080888888888887604051620000809062000112565b620000919695949392919062000709565b604051809103906000f080158015620000ae573d6000803e3d6000fd5b5090508073ffffffffffffffffffffffffffffffffffffffff167f0cc4abe16d987e2f9ccb682e4db4594f197f903bf21662eba90e5a3ff51ba6d68585604051620000fb929190620007cf565b60405180910390a280915050979650505050505050565b612737806200080483390190565b6000604051905090565b600080fd5b600080fd5b600073ffffffffffffffffffffffffffffffffffffffff82169050919050565b6000620001618262000134565b9050919050565b620001738162000154565b81146200017f57600080fd5b50565b600081359050620001938162000168565b92915050565b600080fd5b6000601f19601f8301169050919050565b7f4e487b7100000000000000000000000000000000000000000000000000000000600052604160045260246000fd5b620001e9826200019e565b810181811067ffffffffffffffff821117156200020b576200020a620001af565b5b80604052505050565b60006200022062000120565b90506200022e8282620001de565b919050565b600067ffffffffffffffff821115620002515762000250620001af565b5b602082029050602081019050919050565b600080fd5b600080fd5b600067ffffffffffffffff8211156200028a5762000289620001af565b5b62000295826200019e565b9050602081019050919050565b82818337600083830152505050565b6000620002c8620002c2846200026c565b62000214565b905082815260208101848484011115620002e757620002e662000267565b5b620002f4848285620002a2565b509392505050565b600082601f83011262000314576200031362000199565b5b813562000326848260208601620002b1565b91505092915050565b600062000346620003408462000233565b62000214565b905080838252602082019050602084028301858111156200036c576200036b62000262565b5b835b81811015620003ba57803567ffffffffffffffff81111562000395576200039462000199565b5b808601620003a48982620002fc565b855260208501945050506020810190506200036e565b5050509392505050565b600082601f830112620003dc57620003db62000199565b5b8135620003ee8482602086016200032f565b91505092915050565b60008115159050919050565b6200040e81620003f7565b81146200041a57600080fd5b50565b6000813590506200042e8162000403565b92915050565b6000819050919050565b620004498162000434565b81146200045557600080fd5b50565b60008135905062000469816200043e565b92915050565b600080600080600080600060e0888a0312156200049157620004906200012a565b5b6000620004a18a828b0162000182565b9750506020620004b48a828b0162000182565b965050604088013567ffffffffffffffff811115620004d857620004d76200012f565b5b620004e68a828b01620003c4565b9550506060620004f98a828b016200041d565b94505060806200050c8a828b0162000182565b93505060a088013567ffffffffffffffff81111562000530576200052f6200012f565b5b6200053e8a828b01620002fc565b92505060c0620005518a828b0162000458565b91505092959891949750929550565b6200056b8162000154565b82525050565b600060208201905062000588600083018462000560565b92915050565b600081519050919050565b600082825260208201905092915050565b6000819050602082019050919050565b600081519050919050565b600082825260208201905092915050565b60005b83811015620005f6578082015181840152602081019050620005d9565b60008484015250505050565b60006200060f82620005ba565b6200061b8185620005c5565b93506200062d818560208601620005d6565b62000638816200019e565b840191505092915050565b600062000651838362000602565b905092915050565b6000602082019050919050565b600062000673826200058e565b6200067f818562000599565b9350836020820285016200069385620005aa565b8060005b85811015620006d55784840389528151620006b3858262000643565b9450620006c08362000659565b925060208a0199505060018101905062000697565b50829750879550505050505092915050565b620006f281620003f7565b82525050565b620007038162000434565b82525050565b600060c08201905062000720600083018962000560565b6200072f602083018862000560565b818103604083015262000743818762000666565b9050620007546060830186620006e7565b62000763608083018562000560565b6200077260a0830184620006f8565b979650505050505050565b600082825260208201905092915050565b60006200079b82620005ba565b620007a781856200077d565b9350620007b9818560208601620005d6565b620007c4816200019e565b840191505092915050565b60006040820190508181036000830152620007eb81856200078e565b9050620007fc6020830184620006f8565b939250505056fe608060405260326003553480156200001657600080fd5b50604051620027373803806200273783398181016040528101906200003c919062000511565b80600381905550856000806101000a81548173ffffffffffffffffffffffffffffffffffffffff021916908373ffffffffffffffffffffffffffffffffffffffff16021790555084600160006101000a81548173ffffffffffffffffffffffffffffffffffffffff021916908373ffffffffffffffffffffffffffffffffffffffff16021790555081600260006101000a81548173ffffffffffffffffffffffffffffffffffffffff021916908373ffffffffffffffffffffffffffffffffffffffff16021790555060005b84518110156200017e57600160058683815181106200012c576200012b620005cc565b5b602002602001015160405162000143919062000648565b908152602001604051809103902060006101000a81548160ff0219169083151502179055508080620001759062000690565b91505062000108565b5082600660006101000a81548160ff021916908315150217905550505050505050620006dd565b6000604051905090565b600080fd5b600080fd5b600073ffffffffffffffffffffffffffffffffffffffff82169050919050565b6000620001e682620001b9565b9050919050565b620001f881620001d9565b81146200020457600080fd5b50565b6000815190506200021881620001ed565b92915050565b600080fd5b6000601f19601f8301169050919050565b7f4e487b7100000000000000000000000000000000000000000000000000000000600052604160045260246000fd5b6200026e8262000223565b810181811067ffffffffffffffff8211171562000290576200028f62000234565b5b80604052505050565b6000620002a5620001a5565b9050620002b3828262000263565b919050565b600067ffffffffffffffff821115620002d657620002d562000234565b5b602082029050602081019050919050565b600080fd5b600080fd5b600067ffffffffffffffff8211156200030f576200030e62000234565b5b6200031a8262000223565b9050602081019050919050565b60005b83811015620003475780820151818401526020810190506200032a565b60008484015250505050565b60006200036a6200036484620002f1565b62000299565b905082815260208101848484011115620003895762000388620002ec565b5b6200039684828562000327565b509392505050565b600082601f830112620003b657620003b56200021e565b5b8151620003c884826020860162000353565b91505092915050565b6000620003e8620003e284620002b8565b62000299565b905080838252602082019050602084028301858111156200040e576200040d620002e7565b5b835b818110156200045c57805167ffffffffffffffff8111156200043757620004366200021e565b5b8086016200044689826200039e565b8552602085019450505060208101905062000410565b5050509392505050565b600082601f8301126200047e576200047d6200021e565b5b815162000490848260208601620003d1565b91505092915050565b60008115159050919050565b620004b08162000499565b8114620004bc57600080fd5b50565b600081519050620004d081620004a5565b92915050565b6000819050919050565b620004eb81620004d6565b8114620004f757600080fd5b50565b6000815190506200050b81620004e0565b92915050565b60008060008060008060c08789031215620005315762000530620001af565b5b60006200054189828a0162000207565b96505060206200055489828a0162000207565b955050604087015167ffffffffffffffff811115620005785762000577620001b4565b5b6200058689828a0162000466565b94505060606200059989828a01620004bf565b9350506080620005ac89828a0162000207565b92505060a0620005bf89828a01620004fa565b9150509295509295509295565b7f4e487b7100000000000000000000000000000000000000000000000000000000600052603260045260246000fd5b600081519050919050565b600081905092915050565b60006200061e82620005fb565b6200062a818562000606565b93506200063c81856020860162000327565b80840191505092915050565b600062000656828462000611565b915081905092915050565b7f4e487b7100000000000000000000000000000000000000000000000000000000600052601160045260246000fd5b60006200069d82620004d6565b91507fffffffffffffffffffffffffffffffffffffffffffffffffffffffffffffffff8203620006d257620006d162000661565b5b600182019050919050565b61204a80620006ed6000396000f3fe608060405234801561001057600080fd5b50600436106100a95760003560e01c8063517a625711610071578063517a62571461015157806361d027b3146101815780637221252a1461019f578063a2b2b4d4146101bd578063e7ea088f146101db578063f64fca1e1461020b576100a9565b80633a6e157b146100ae5780634129b2c9146100ca57806343ab44d5146100fb5780634de8737c146101175780634fa76ec914610133575b600080fd5b6100c860048036038101906100c39190611190565b610229565b005b6100e460048036038101906100df9190611190565b6106bb565b6040516100f29291906111e7565b60405180910390f35b61011560048036038101906101109190611504565b6107e2565b005b610131600480360381019061012c9190611622565b610b0a565b005b61013b610eea565b6040516101489190611675565b60405180910390f35b61016b60048036038101906101669190611190565b610ef0565b6040516101789190611675565b60405180910390f35b610189610f6f565b60405161019691906116ef565b60405180910390f35b6101a7610f95565b6040516101b4919061172b565b60405180910390f35b6101c5610fb9565b6040516101d29190611767565b60405180910390f35b6101f560048036038101906101f09190611782565b610fdf565b6040516102029190611675565b60405180910390f35b6102136110c4565b60405161022091906117c2565b60405180910390f35b806004805490508110610271576040517f08c379a00000000000000000000000000000000000000000000000000000000081526004016102689061183a565b60405180910390fd5b6000600482815481106102875761028661185a565b5b90600052602060002090600902019050603c81600201546102a891906118b8565b81600301546102b791906118fa565b42116102f8576040517f08c379a00000000000000000000000000000000000000000000000000000000081526004016102ef9061197a565b60405180910390fd5b600480549050831061033f576040517f08c379a00000000000000000000000000000000000000000000000000000000081526004016103369061183a565b60405180910390fd5b60008061034b856106bb565b9150915080801561038b57506004858154811061036b5761036a61185a565b5b906000526020600020906009020160080160009054906101000a900460ff165b80156103bb5750600485815481106103a6576103a561185a565b5b90600052602060002090600902016005015482145b1561067a5761101073ffffffffffffffffffffffffffffffffffffffff16600486815481106103ed576103ec61185a565b5b906000526020600020906009020160080160019054906101000a900473ffffffffffffffffffffffffffffffffffffffff1673ffffffffffffffffffffffffffffffffffffffff160361053857600260009054906101000a900473ffffffffffffffffffffffffffffffffffffffff1673ffffffffffffffffffffffffffffffffffffffff1663522f68156004878154811061048c5761048b61185a565b5b906000526020600020906009020160060160009054906101000a900473ffffffffffffffffffffffffffffffffffffffff16600488815481106104d2576104d161185a565b5b9060005260206000209060090201600701546040518363ffffffff1660e01b81526004016105019291906119a9565b600060405180830381600087803b15801561051b57600080fd5b505af115801561052f573d6000803e3d6000fd5b50505050610679565b600260009054906101000a900473ffffffffffffffffffffffffffffffffffffffff1673ffffffffffffffffffffffffffffffffffffffff1663e6d66ac86004878154811061058a5761058961185a565b5b906000526020600020906009020160080160019054906101000a900473ffffffffffffffffffffffffffffffffffffffff16600488815481106105d0576105cf61185a565b5b906000526020600020906009020160060160009054906101000a900473ffffffffffffffffffffffffffffffffffffffff16600489815481106106165761061561185a565b5b9060005260206000209060090201600701546040518463ffffffff1660e01b815260040161064693929190611a02565b600060405180830381600087803b15801561066057600080fd5b505af1158015610674573d6000803e3d6000fd5b505050505b5b847f80fa758d7c24e927ad76726080b3e8e8ec336147a2e7f4edde3e19d9c94e7c3683836040516106ac9291906111e7565b60405180910390a25050505050565b6000806004805490508310610705576040517f08c379a00000000000000000000000000000000000000000000000000000000081526004016106fc9061183a565b60405180910390fd5b60006004848154811061071b5761071a61185a565b5b90600052602060002090600902019050600080600080600354856000015461074391906118b8565b905060005b85600401805490508110156107d1578486600401828154811061076e5761076d61185a565b5b906000526020600020016000015411156107be578560040181815481106107985761079761185a565b5b90600052602060002001600001549450809350816064866107b991906118b8565b101592505b80806107c990611a39565b915050610748565b508282965096505050505050915091565b6000600160009054906101000a900473ffffffffffffffffffffffffffffffffffffffff1673ffffffffffffffffffffffffffffffffffffffff166377782188336040518263ffffffff1660e01b815260040161083f9190611a81565b600060405180830381865afa15801561085c573d6000803e3d6000fd5b505050506040513d6000823e3d601f19601f820116820180604052508101906108859190611b36565b90506005816040516108979190611bc6565b908152602001604051809103902060009054906101000a900460ff166108f2576040517f08c379a00000000000000000000000000000000000000000000000000000000081526004016108e990611c4f565b60405180910390fd5b60006004600181600181540180825580915050039060005260206000209060090201905060008160000181905550888160020181905550428160030181905550868160050181905550858160060160006101000a81548173ffffffffffffffffffffffffffffffffffffffff021916908373ffffffffffffffffffffffffffffffffffffffff160217905550848160070181905550838160080160006101000a81548160ff021916908315150217905550828160080160016101000a81548173ffffffffffffffffffffffffffffffffffffffff021916908373ffffffffffffffffffffffffffffffffffffffff160217905550600060016004805490506109fa9190611c6f565b9050807f02cdbdf6d83224bfc61f2b0e33d9159756d8eaf2dfb75d5e66d2a63cef32e8dc8d8d8d428d8d8d8d8d604051610a3c99989796959493929190611cdc565b60405180910390a260005b8951811015610afb5782600401604051806020016040528060008152509080600181540180825580915050600190039060005260206000200160009091909190915060008201518160000155505080827fd3b5cef521b08344b2f3822456355f6c2603e7f00a271d0215ac4760a401fc488c8481518110610acb57610aca61185a565b5b6020026020010151604051610ae09190611d77565b60405180910390a38080610af390611a39565b915050610a47565b50505050505050505050505050565b826004805490508110610b52576040517f08c379a0000000000000000000000000000000000000000000000000000000008152600401610b499061183a565b60405180910390fd5b600060048281548110610b6857610b6761185a565b5b90600052602060002090600902019050603c8160020154610b8991906118b8565b8160030154610b9891906118fa565b421115610bda576040517f08c379a0000000000000000000000000000000000000000000000000000000008152600401610bd190611de5565b60405180910390fd5b60008060009054906101000a900473ffffffffffffffffffffffffffffffffffffffff1673ffffffffffffffffffffffffffffffffffffffff166370a08231866040518263ffffffff1660e01b8152600401610c369190611a81565b602060405180830381865afa158015610c53573d6000803e3d6000fd5b505050506040513d601f19601f82011682018060405250810190610c779190611e1a565b905060008111610cbc576040517f08c379a0000000000000000000000000000000000000000000000000000000008152600401610cb390611e93565b60405180910390fd5b6004805490508610610d03576040517f08c379a0000000000000000000000000000000000000000000000000000000008152600401610cfa9061183a565b60405180910390fd5b600060048781548110610d1957610d1861185a565b5b906000526020600020906009020190508060010160008773ffffffffffffffffffffffffffffffffffffffff1673ffffffffffffffffffffffffffffffffffffffff16815260200190815260200160002060009054906101000a900460ff1615610db8576040517f08c379a0000000000000000000000000000000000000000000000000000000008152600401610daf90611eff565b60405180910390fd5b6000600660009054906101000a900460ff16610dd45782610dde565b610ddd836110d7565b5b905060018260010160008973ffffffffffffffffffffffffffffffffffffffff1673ffffffffffffffffffffffffffffffffffffffff16815260200190815260200160002060006101000a81548160ff02191690831515021790555080826000016000828254610e4e91906118fa565b9250508190555080826004018781548110610e6c57610e6b61185a565b5b906000526020600020016000016000828254610e8891906118fa565b925050819055508673ffffffffffffffffffffffffffffffffffffffff16887fb4c54afd73915f9f756c8dee39fe0b311937871a92261a47747f7a3d32f63a0c8884604051610ed8929190611f1f565b60405180910390a35050505050505050565b60035481565b60006004805490508210610f39576040517f08c379a0000000000000000000000000000000000000000000000000000000008152600401610f309061183a565b60405180910390fd5b600060048381548110610f4f57610f4e61185a565b5b906000526020600020906009020190508060040180549050915050919050565b600260009054906101000a900473ffffffffffffffffffffffffffffffffffffffff1681565b60008054906101000a900473ffffffffffffffffffffffffffffffffffffffff1681565b600160009054906101000a900473ffffffffffffffffffffffffffffffffffffffff1681565b60006004805490508310611028576040517f08c379a000000000000000000000000000000000000000000000000000000000815260040161101f9061183a565b60405180910390fd5b60006004848154811061103e5761103d61185a565b5b9060005260206000209060090201905080600401805490508310611097576040517f08c379a000000000000000000000000000000000000000000000000000000000815260040161108e90611f94565b60405180910390fd5b8060040183815481106110ad576110ac61185a565b5b906000526020600020016000015491505092915050565b600660009054906101000a900460ff1681565b60006110e2826110e9565b9050919050565b60008060026001846110fb91906118fa565b6111059190611fe3565b90508291505b818110156111405780915060028182856111259190611fe3565b61112f91906118fa565b6111399190611fe3565b905061110b565b50919050565b6000604051905090565b600080fd5b600080fd5b6000819050919050565b61116d8161115a565b811461117857600080fd5b50565b60008135905061118a81611164565b92915050565b6000602082840312156111a6576111a5611150565b5b60006111b48482850161117b565b91505092915050565b6111c68161115a565b82525050565b60008115159050919050565b6111e1816111cc565b82525050565b60006040820190506111fc60008301856111bd565b61120960208301846111d8565b9392505050565b600080fd5b600080fd5b6000601f19601f8301169050919050565b7f4e487b7100000000000000000000000000000000000000000000000000000000600052604160045260246000fd5b6112638261121a565b810181811067ffffffffffffffff821117156112825761128161122b565b5b80604052505050565b6000611295611146565b90506112a1828261125a565b919050565b600067ffffffffffffffff8211156112c1576112c061122b565b5b6112ca8261121a565b9050602081019050919050565b82818337600083830152505050565b60006112f96112f4846112a6565b61128b565b90508281526020810184848401111561131557611314611215565b5b6113208482856112d7565b509392505050565b600082601f83011261133d5761133c611210565b5b813561134d8482602086016112e6565b91505092915050565b600067ffffffffffffffff8211156113715761137061122b565b5b602082029050602081019050919050565b600080fd5b600061139a61139584611356565b61128b565b905080838252602082019050602084028301858111156113bd576113bc611382565b5b835b8181101561140457803567ffffffffffffffff8111156113e2576113e1611210565b5b8086016113ef8982611328565b855260208501945050506020810190506113bf565b5050509392505050565b600082601f83011261142357611422611210565b5b8135611433848260208601611387565b91505092915050565b600073ffffffffffffffffffffffffffffffffffffffff82169050919050565b60006114678261143c565b9050919050565b6114778161145c565b811461148257600080fd5b50565b6000813590506114948161146e565b92915050565b6114a3816111cc565b81146114ae57600080fd5b50565b6000813590506114c08161149a565b92915050565b60006114d18261143c565b9050919050565b6114e1816114c6565b81146114ec57600080fd5b50565b6000813590506114fe816114d8565b92915050565b60008060008060008060008060006101208a8c03121561152757611526611150565b5b60008a013567ffffffffffffffff81111561154557611544611155565b5b6115518c828d01611328565b99505060208a013567ffffffffffffffff81111561157257611571611155565b5b61157e8c828d01611328565b985050604061158f8c828d0161117b565b97505060608a013567ffffffffffffffff8111156115b0576115af611155565b5b6115bc8c828d0161140e565b96505060806115cd8c828d0161117b565b95505060a06115de8c828d01611485565b94505060c06115ef8c828d0161117b565b93505060e06116008c828d016114b1565b9250506101006116128c828d016114ef565b9150509295985092959850929598565b60008060006060848603121561163b5761163a611150565b5b60006116498682870161117b565b935050602061165a868287016114ef565b925050604061166b8682870161117b565b9150509250925092565b600060208201905061168a60008301846111bd565b92915050565b6000819050919050565b60006116b56116b06116ab8461143c565b611690565b61143c565b9050919050565b60006116c78261169a565b9050919050565b60006116d9826116bc565b9050919050565b6116e9816116ce565b82525050565b600060208201905061170460008301846116e0565b92915050565b6000611715826116bc565b9050919050565b6117258161170a565b82525050565b6000602082019050611740600083018461171c565b92915050565b6000611751826116bc565b9050919050565b61176181611746565b82525050565b600060208201905061177c6000830184611758565b92915050565b6000806040838503121561179957611798611150565b5b60006117a78582860161117b565b92505060206117b88582860161117b565b9150509250929050565b60006020820190506117d760008301846111d8565b92915050565b600082825260208201905092915050565b7f496e76616c69642070726f706f73616c20494400000000000000000000000000600082015250565b60006118246013836117dd565b915061182f826117ee565b602082019050919050565b6000602082019050818103600083015261185381611817565b9050919050565b7f4e487b7100000000000000000000000000000000000000000000000000000000600052603260045260246000fd5b7f4e487b7100000000000000000000000000000000000000000000000000000000600052601160045260246000fd5b60006118c38261115a565b91506118ce8361115a565b92508282026118dc8161115a565b915082820484148315176118f3576118f2611889565b5b5092915050565b60006119058261115a565b91506119108361115a565b925082820190508082111561192857611927611889565b5b92915050565b7f566f74696e67206973206e6f742079657420636c6f7365640000000000000000600082015250565b60006119646018836117dd565b915061196f8261192e565b602082019050919050565b6000602082019050818103600083015261199381611957565b9050919050565b6119a38161145c565b82525050565b60006040820190506119be600083018561199a565b6119cb60208301846111bd565b9392505050565b6119db816114c6565b82525050565b60006119ec826116bc565b9050919050565b6119fc816119e1565b82525050565b6000606082019050611a1760008301866119d2565b611a2460208301856119f3565b611a3160408301846111bd565b949350505050565b6000611a448261115a565b91507fffffffffffffffffffffffffffffffffffffffffffffffffffffffffffffffff8203611a7657611a75611889565b5b600182019050919050565b6000602082019050611a9660008301846119d2565b92915050565b60005b83811015611aba578082015181840152602081019050611a9f565b60008484015250505050565b6000611ad9611ad4846112a6565b61128b565b905082815260208101848484011115611af557611af4611215565b5b611b00848285611a9c565b509392505050565b600082601f830112611b1d57611b1c611210565b5b8151611b2d848260208601611ac6565b91505092915050565b600060208284031215611b4c57611b4b611150565b5b600082015167ffffffffffffffff811115611b6a57611b69611155565b5b611b7684828501611b08565b91505092915050565b600081519050919050565b600081905092915050565b6000611ba082611b7f565b611baa8185611b8a565b9350611bba818560208601611a9c565b80840191505092915050565b6000611bd28284611b95565b915081905092915050565b7f4e6f7420617574686f72697a656420746f206372656174652070726f706f736160008201527f6c00000000000000000000000000000000000000000000000000000000000000602082015250565b6000611c396021836117dd565b9150611c4482611bdd565b604082019050919050565b60006020820190508181036000830152611c6881611c2c565b9050919050565b6000611c7a8261115a565b9150611c858361115a565b9250828203905081811115611c9d57611c9c611889565b5b92915050565b6000611cae82611b7f565b611cb881856117dd565b9350611cc8818560208601611a9c565b611cd18161121a565b840191505092915050565b6000610120820190508181036000830152611cf7818c611ca3565b90508181036020830152611d0b818b611ca3565b9050611d1a604083018a6111bd565b611d2760608301896111bd565b611d3460808301886111bd565b611d4160a08301876119f3565b611d4e60c08301866111bd565b611d5b60e08301856111d8565b611d696101008301846119d2565b9a9950505050505050505050565b60006020820190508181036000830152611d918184611ca3565b905092915050565b7f566f74696e672074696d65206578706972656400000000000000000000000000600082015250565b6000611dcf6013836117dd565b9150611dda82611d99565b602082019050919050565b60006020820190508181036000830152611dfe81611dc2565b9050919050565b600081519050611e1481611164565b92915050565b600060208284031215611e3057611e2f611150565b5b6000611e3e84828501611e05565b91505092915050565b7f4e6f2070617274696369706174696f6e20746f6b656e73000000000000000000600082015250565b6000611e7d6017836117dd565b9150611e8882611e47565b602082019050919050565b60006020820190508181036000830152611eac81611e70565b9050919050565b7f416c726561647920766f74656400000000000000000000000000000000000000600082015250565b6000611ee9600d836117dd565b9150611ef482611eb3565b602082019050919050565b60006020820190508181036000830152611f1881611edc565b9050919050565b6000604082019050611f3460008301856111bd565b611f4160208301846111bd565b9392505050565b7f496e76616c6964206f7074696f6e20696e646578000000000000000000000000600082015250565b6000611f7e6014836117dd565b9150611f8982611f48565b602082019050919050565b60006020820190508181036000830152611fad81611f71565b9050919050565b7f4e487b7100000000000000000000000000000000000000000000000000000000600052601260045260246000fd5b6000611fee8261115a565b9150611ff98361115a565b92508261200957612008611fb4565b5b82820490509291505056fea2646970667358221220c01d490227f0a1c4145bd10f4e7ba3879716d07149aeee2288b7f92357041bee64736f6c63430008140033a26469706673582212207aeb3321df9f011500c1dee7d73b5b22f0226e143d0a8e1ba8f4b02112d6117264736f6c63430008140033",
  "linkReferences": {},
  "deployedLinkReferences": {}
}