{"abi":[{"type":"constructor","inputs":[{"name":"_ParticipationToken","type":"address","internalType":"address"},{"name":"_nftMembership","type":"address","internalType":"address"},{"name":"_allowedRoleNames","type":"string[]","internalType":"string[]"},{"name":"_quadraticVotingEnabled","type":"bool","internalType":"bool"},{"name":"_treasuryAddress","type":"address","internalType":"address"},{"name":"_quorumPercentage","type":"uint256","internalType":"uint256"}],"stateMutability":"nonpayable"},{"type":"function","name":"ParticipationToken","inputs":[],"outputs":[{"name":"","type":"address","internalType":"contract IERC20"}],"stateMutability":"view"},{"type":"function","name":"announceWinner","inputs":[{"name":"_proposalId","type":"uint256","internalType":"uint256"}],"outputs":[{"name":"","type":"uint256","internalType":"uint256"},{"name":"","type":"bool","internalType":"bool"}],"stateMutability":"nonpayable"},{"type":"function","name":"createProposal","inputs":[{"name":"_name","type":"string","internalType":"string"},{"name":"_description","type":"string","internalType":"string"},{"name":"_timeInMinutes","type":"uint256","internalType":"uint256"},{"name":"_optionNames","type":"string[]","internalType":"string[]"},{"name":"_transferTriggerOptionIndex","type":"uint256","internalType":"uint256"},{"name":"_transferRecipient","type":"address","internalType":"address payable"},{"name":"_transferAmount","type":"uint256","internalType":"uint256"},{"name":"_transferEnabled","type":"bool","internalType":"bool"},{"name":"_transferToken","type":"address","internalType":"address"}],"outputs":[],"stateMutability":"nonpayable"},{"type":"function","name":"getOptionVotes","inputs":[{"name":"_proposalId","type":"uint256","internalType":"uint256"},{"name":"_optionIndex","type":"uint256","internalType":"uint256"}],"outputs":[{"name":"votes","type":"uint256","internalType":"uint256"}],"stateMutability":"view"},{"type":"function","name":"getOptionsCount","inputs":[{"name":"_proposalId","type":"uint256","internalType":"uint256"}],"outputs":[{"name":"","type":"uint256","internalType":"uint256"}],"stateMutability":"view"},{"type":"function","name":"getProposal","inputs":[{"name":"_proposalId","type":"uint256","internalType":"uint256"}],"outputs":[{"name":"totalVotes","type":"uint256","internalType":"uint256"},{"name":"timeInMinutes","type":"uint256","internalType":"uint256"},{"name":"creationTimestamp","type":"uint256","internalType":"uint256"},{"name":"transferTriggerOptionIndex","type":"uint256","internalType":"uint256"},{"name":"transferRecipient","type":"address","internalType":"address payable"},{"name":"transferAmount","type":"uint256","internalType":"uint256"},{"name":"transferEnabled","type":"bool","internalType":"bool"},{"name":"transferToken","type":"address","internalType":"address"}],"stateMutability":"view"},{"type":"function","name":"getProposalsCount","inputs":[],"outputs":[{"name":"","type":"uint256","internalType":"uint256"}],"stateMutability":"view"},{"type":"function","name":"getWinner","inputs":[{"name":"_proposalId","type":"uint256","internalType":"uint256"}],"outputs":[{"name":"","type":"uint256","internalType":"uint256"},{"name":"","type":"bool","internalType":"bool"}],"stateMutability":"view"},{"type":"function","name":"nftMembership","inputs":[],"outputs":[{"name":"","type":"address","internalType":"contract INFTMembership5"}],"stateMutability":"view"},{"type":"function","name":"quadraticVotingEnabled","inputs":[],"outputs":[{"name":"","type":"bool","internalType":"bool"}],"stateMutability":"view"},{"type":"function","name":"quorumPercentage","inputs":[],"outputs":[{"name":"","type":"uint256","internalType":"uint256"}],"stateMutability":"view"},{"type":"function","name":"treasury","inputs":[],"outputs":[{"name":"","type":"address","internalType":"contract ITreasury3"}],"stateMutability":"view"},{"type":"function","name":"vote","inputs":[{"name":"_proposalId","type":"uint256","internalType":"uint256"},{"name":"_voter","type":"address","internalType":"address"},{"name":"_optionIndices","type":"uint256[]","internalType":"uint256[]"},{"name":"_weights","type":"uint256[]","internalType":"uint256[]"}],"outputs":[],"stateMutability":"nonpayable"},{"type":"event","name":"NewProposal","inputs":[{"name":"proposalId","type":"uint256","indexed":true,"internalType":"uint256"},{"name":"name","type":"string","indexed":false,"internalType":"string"},{"name":"description","type":"string","indexed":false,"internalType":"string"},{"name":"timeInMinutes","type":"uint256","indexed":false,"internalType":"uint256"},{"name":"creationTimestamp","type":"uint256","indexed":false,"internalType":"uint256"},{"name":"transferTriggerOptionIndex","type":"uint256","indexed":false,"internalType":"uint256"},{"name":"transferRecipient","type":"address","indexed":false,"internalType":"address"},{"name":"transferAmount","type":"uint256","indexed":false,"internalType":"uint256"},{"name":"transferEnabled","type":"bool","indexed":false,"internalType":"bool"},{"name":"transferToken","type":"address","indexed":false,"internalType":"address"}],"anonymous":false},{"type":"event","name":"PollOptionNames","inputs":[{"name":"proposalId","type":"uint256","indexed":true,"internalType":"uint256"},{"name":"optionIndex","type":"uint256","indexed":true,"internalType":"uint256"},{"name":"name","type":"string","indexed":false,"internalType":"string"}],"anonymous":false},{"type":"event","name":"Voted","inputs":[{"name":"proposalId","type":"uint256","indexed":true,"internalType":"uint256"},{"name":"voter","type":"address","indexed":true,"internalType":"address"},{"name":"optionIndices","type":"uint256[]","indexed":false,"internalType":"uint256[]"},{"name":"weights","type":"uint256[]","indexed":false,"internalType":"uint256[]"},{"name":"totalVoteWeight","type":"uint256","indexed":false,"internalType":"uint256"}],"anonymous":false},{"type":"event","name":"WinnerAnnounced","inputs":[{"name":"proposalId","type":"uint256","indexed":true,"internalType":"uint256"},{"name":"winningOptionIndex","type":"uint256","indexed":false,"internalType":"uint256"},{"name":"hasValidWinner","type":"bool","indexed":false,"internalType":"bool"}],"anonymous":false}],"bytecode":{"object":"0x60806040523461016d576113c780380380610019816101fc565b92833981019060c08183031261016d5761003281610221565b9061003f60208201610221565b60408201516001600160401b03811161016d5782019380601f8601121561016d578451946001600160401b0386116101e6578560051b916020806100848186016101fc565b8099815201938301019181831161016d5760208101935b83851061017257505050505060608201519283151580940361016d5760a06100c560808501610221565b930151600355600080546001600160a01b03199081166001600160a01b039384161782556001805482169484169490941790935560028054909316919093161790555b825181101561014f576001906101356020808360051b870101518160405193828580945193849201610235565b810160058152030190208260ff1982541617905501610108565b5060ff80196006541691161760065560405161116e90816102598239f35b600080fd5b84516001600160401b03811161016d5782019083603f8301121561016d576020820151906001600160401b0382116101e6576101b7601f8301601f19166020016101fc565b828152604084840101861061016d576101db60209493859460408685019101610235565b81520194019361009b565b634e487b7160e01b600052604160045260246000fd5b6040519190601f01601f191682016001600160401b038111838210176101e657604052565b51906001600160a01b038216820361016d57565b60005b8381106102485750506000910152565b818101518382015260200161023856fe6080604052600436101561001257600080fd5b6000803560e01c80633a6e157b14610b615780634129b2c914610b3257806343ab44d5146106a25780634fa76ec914610684578063517a625714610652578063619533001461024b57806361d027b3146102225780637221252a146101fb57806398e527d3146101dd578063a2b2b4d4146101b4578063c7f758a814610122578063e7ea088f146100d15763f64fca1e146100ac57600080fd5b346100ce57806003193601126100ce57602060ff600654166040519015158152f35b80fd5b50346100ce5760403660031901126100ce57602061011860043560046101056024359261010083548210610f06565b610f48565b5001610113815483106110c1565b610fb3565b5054604051908152f35b50346100ce5760203660031901126100ce5761010061014a6004356101006004548210610f06565b508054906002810154906003810154600582015460018060a01b03600684015416916008600785015494015494604051968752602087015260408601526060850152608084015260a083015260ff8116151560c083015260018060a01b039060081c1660e0820152f35b50346100ce57806003193601126100ce576001546040516001600160a01b039091168152602090f35b50346100ce57806003193601126100ce576020600454604051908152f35b50346100ce57806003193601126100ce57546040516001600160a01b039091168152602090f35b50346100ce57806003193601126100ce576002546040516001600160a01b039091168152602090f35b50346100ce5760803660031901126100ce576004356024356001600160a01b038116908190036105e45760443567ffffffffffffffff811161064e57610295903690600401610ea9565b9260643567ffffffffffffffff811161064a576102b6903690600401610ea9565b906004548410936102c685610f06565b6102cf81610f48565b506002600382015491015490603c820291808304603c149015171561063657906102f891610fa6565b42116105fb5781546040516370a0823160e01b8152600481018690529590602090879060249082906001600160a01b03165afa9586156105f05783966105b8575b5085156105735761034990610f06565b61035281610f48565b50916001830195856000528660205260ff6040600020541661053e5760065460ff161561053857600181018082116104ac5760011c815b828210610505575050905b809581965b86518810156103c1576103b96001916103b28a8a6110ad565b5190610fa6565b970196610399565b908860648b98959493036104c057816000526020526040600020600160ff198254161790558554600181018091116104ac578655939460040193815b875181101561045257806104136001928a6110ad565b51610420885482106110c1565b61044a61044161043a610433858b6110ad565b5189610f7d565b928a610fb3565b50918254610fa6565b9055016103fd565b50857f524b03e0d85baf4e29a9bd35b690853f5f9ea260b012b6a7540e36819749778561049289866104a089604051948594606086526060860190611104565b908482036020860152611104565b9060408301520390a380f35b634e487b7160e01b83526011600452602483fd5b60405162461bcd60e51b815260206004820152601860248201527f546f74616c20776569676874206d7573742062652031303000000000000000006044820152606490fd5b909150818015610524578061051b918304610fa6565b60011c90610389565b634e487b7160e01b84526012600452602484fd5b90610394565b60405162461bcd60e51b815260206004820152600d60248201526c105b1c9958591e481d9bdd1959609a1b6044820152606490fd5b60405162461bcd60e51b815260206004820152601760248201527f4e6f2070617274696369706174696f6e20746f6b656e730000000000000000006044820152606490fd5b9095506020813d6020116105e8575b816105d460209383610df1565b810103126105e457519438610339565b8280fd5b3d91506105c7565b6040513d85823e3d90fd5b60405162461bcd60e51b8152602060048201526013602482015272159bdd1a5b99c81d1a5b5948195e1c1a5c9959606a1b6044820152606490fd5b634e487b7160e01b84526011600452602484fd5b5080fd5b8380fd5b50346100ce5760203660031901126100ce5760206004610679813561010083548210610f06565b500154604051908152f35b50346100ce57806003193601126100ce576020600354604051908152f35b50346100ce576101203660031901126100ce5760043567ffffffffffffffff811161064a576106d5903690600401610e45565b9060243567ffffffffffffffff811161064a576106f6903690600401610e45565b91604435916064359167ffffffffffffffff831161064a573660238401121561064a5782600401359261072884610e91565b936107366040519586610df1565b80855260051b810160240160208501368211610b2e5760248301905b828210610afa5750505060a4356001600160a01b0381169591506084359086900361064e5760c43560e43590811515809203610af65761010435976001600160a01b03891693848a03610af257600154604051630eef043160e31b8152336004820152908990829060249082906001600160a01b03165afa908115610ae7578991610a5b575b506107f4602060ff928160405193828580945193849201611065565b81016005815203019020541615610a0c57600454600160401b8110156109f8578060016108249201600455610f48565b5088815560028101879055426003820155600581018290556006810180546001600160a01b0319168417905560078101849055600880820180546001600160a81b03191660ff8816179c90911b610100600160a81b03169b909b17909a5560045460001981019b908c116109e457926108d895928c9895926108e67f02cdbdf6d83224bfc61f2b0e33d9159756d8eaf2dfb75d5e66d2a63cef32e8dc9996604051998a996101208b526101208b0190611088565b9089820360208b0152611088565b956040880152426060880152608087015260a086015260c085015260e08401526101008301520390a26004819301925b82518110156109e0576040516020810181811067ffffffffffffffff8211176109cc576040528281528454600160401b8110156109cc5780600161095d9201875586610fb3565b9190916109b85751905560019080867fd3b5cef521b08344b2f3822456355f6c2603e7f00a271d0215ac4760a401fc486109af61099a84896110ad565b51604051918291602083526020830190611088565b0390a301610916565b634e487b7160e01b84526004849052602484fd5b634e487b7160e01b84526041600452602484fd5b5080f35b634e487b7160e01b89526011600452602489fd5b634e487b7160e01b89526041600452602489fd5b60405162461bcd60e51b815260206004820152602160248201527f4e6f7420617574686f72697a656420746f206372656174652070726f706f73616044820152601b60fa1b6064820152608490fd5b90503d808a833e610a6c8183610df1565b810190602081830312610ae35780519067ffffffffffffffff8211610adf570181601f82011215610ae357805190610aa382610e29565b92610ab16040519485610df1565b82845260208383010111610adf5782610ad76107f493602093848060ff98019101611065565b9250506107d8565b8a80fd5b8980fd5b6040513d8b823e3d90fd5b8780fd5b8580fd5b813567ffffffffffffffff8111610b2a57602091610b1f839260243691890101610e45565b815201910190610752565b8680fd5b8480fd5b50346100ce5760203660031901126100ce57610b4f600435610fcb565b60408051928352901515602083015290f35b50346100ce5760203660031901126100ce57600435906004548210610b8581610f06565b610b8e83610f48565b506002600382015491015490603c820291808304603c14901517156106365790610bb791610fa6565b421115610dac57610bc790610f06565b610bd082610fcb565b9290918380610d95575b80610d7f575b610c2a575b506040805183815284151560208201527f80fa758d7c24e927ad76726080b3e8e8ec336147a2e7f4edde3e19d9c94e7c369190a2604080519182529115156020820152f35b611010610c3683610f48565b50600890810154901c6001600160a01b031603610cde576002546001600160a01b0316610c6283610f48565b50600601546001600160a01b03166007610c7b85610f48565b50015490823b1561064e57906044849283604051958694859363522f681560e01b8552600485015260248401525af18015610cd357610cbe575b50505b38610be5565b610cc9828092610df1565b6100ce5780610cb5565b6040513d84823e3d90fd5b6002546001600160a01b0316610cf383610f48565b50600890810154901c6001600160a01b0316610d0e84610f48565b50600601546001600160a01b0316906007610d2886610f48565b50015492803b15610b2e57849291836064926040519687958694631cdacd5960e31b86526004860152602485015260448401525af18015610cd357610d6f575b5050610cb8565b81610d7991610df1565b38610d68565b506005610d8b83610f48565b5001548314610be0565b5060ff6008610da384610f48565b50015416610bda565b60405162461bcd60e51b815260206004820152601860248201527f566f74696e67206973206e6f742079657420636c6f73656400000000000000006044820152606490fd5b90601f8019910116810190811067ffffffffffffffff821117610e1357604052565b634e487b7160e01b600052604160045260246000fd5b67ffffffffffffffff8111610e1357601f01601f191660200190565b81601f82011215610e8c57803590610e5c82610e29565b92610e6a6040519485610df1565b82845260208383010111610e8c57816000926020809301838601378301015290565b600080fd5b67ffffffffffffffff8111610e135760051b60200190565b9080601f83011215610e8c578135610ec081610e91565b92610ece6040519485610df1565b81845260208085019260051b820101928311610e8c57602001905b828210610ef65750505090565b8135815260209182019101610ee9565b15610f0d57565b60405162461bcd60e51b8152602060048201526013602482015272125b9d985b1a59081c1c9bdc1bdcd85b081251606a1b6044820152606490fd5b600454811015610f675760046000526009602060002091020190600090565b634e487b7160e01b600052603260045260246000fd5b81810292918115918404141715610f9057565b634e487b7160e01b600052601160045260246000fd5b91908201809211610f9057565b8054821015610f675760005260206000200190600090565b610fdc906101006004548210610f06565b50906000808093805491610ff260035484610f7d565b921561105c576004819201908154925b8381106110125750505050509190565b8161101d8285610fb3565b50541161102d575b600101611002565b965050925061103c8584610fb3565b50549285936064810281810460641482151715610f905784111596611025565b94505050508190565b60005b8381106110785750506000910152565b8181015183820152602001611068565b906020916110a181518092818552858086019101611065565b601f01601f1916010190565b8051821015610f675760209160051b010190565b156110c857565b60405162461bcd60e51b8152602060048201526014602482015273092dcecc2d8d2c840dee0e8d2dedc40d2dcc8caf60631b6044820152606490fd5b906020808351928381520192019060005b8181106111225750505090565b825184526020938401939092019160010161111556fea26469706673582212203090d0b05da037731be8fe74a5208fb27bf5d2ff2eae60dd0fefcccb90ed464164736f6c634300081a0033","linkReferences":{}},"methodIdentifiers":{"ParticipationToken()":"7221252a","announceWinner(uint256)":"3a6e157b","createProposal(string,string,uint256,string[],uint256,address,uint256,bool,address)":"43ab44d5","getOptionVotes(uint256,uint256)":"e7ea088f","getOptionsCount(uint256)":"517a6257","getProposal(uint256)":"c7f758a8","getProposalsCount()":"98e527d3","getWinner(uint256)":"4129b2c9","nftMembership()":"a2b2b4d4","quadraticVotingEnabled()":"f64fca1e","quorumPercentage()":"4fa76ec9","treasury()":"61d027b3","vote(uint256,address,uint256[],uint256[])":"61953300"},"id":56}