{"abi":[{"type":"constructor","inputs":[{"name":"_ParticipationToken","type":"address","internalType":"address"},{"name":"_nftMembership","type":"address","internalType":"address"},{"name":"_allowedRoleNames","type":"string[]","internalType":"string[]"},{"name":"_quadraticVotingEnabled","type":"bool","internalType":"bool"},{"name":"_treasuryAddress","type":"address","internalType":"address"},{"name":"_quorumPercentage","type":"uint256","internalType":"uint256"}],"stateMutability":"nonpayable"},{"type":"function","name":"ParticipationToken","inputs":[],"outputs":[{"name":"","type":"address","internalType":"contract IERC20"}],"stateMutability":"view"},{"type":"function","name":"announceWinner","inputs":[{"name":"_proposalId","type":"uint256","internalType":"uint256"}],"outputs":[{"name":"","type":"uint256","internalType":"uint256"},{"name":"","type":"bool","internalType":"bool"}],"stateMutability":"nonpayable"},{"type":"function","name":"createProposal","inputs":[{"name":"_name","type":"string","internalType":"string"},{"name":"_description","type":"string","internalType":"string"},{"name":"_timeInMinutes","type":"uint256","internalType":"uint256"},{"name":"_optionNames","type":"string[]","internalType":"string[]"},{"name":"_transferTriggerOptionIndex","type":"uint256","internalType":"uint256"},{"name":"_transferRecipient","type":"address","internalType":"address payable"},{"name":"_transferAmount","type":"uint256","internalType":"uint256"},{"name":"_transferEnabled","type":"bool","internalType":"bool"},{"name":"_transferToken","type":"address","internalType":"address"}],"outputs":[],"stateMutability":"nonpayable"},{"type":"function","name":"getOptionVotes","inputs":[{"name":"_proposalId","type":"uint256","internalType":"uint256"},{"name":"_optionIndex","type":"uint256","internalType":"uint256"}],"outputs":[{"name":"votes","type":"uint256","internalType":"uint256"}],"stateMutability":"view"},{"type":"function","name":"getOptionsCount","inputs":[{"name":"_proposalId","type":"uint256","internalType":"uint256"}],"outputs":[{"name":"","type":"uint256","internalType":"uint256"}],"stateMutability":"view"},{"type":"function","name":"getProposal","inputs":[{"name":"_proposalId","type":"uint256","internalType":"uint256"}],"outputs":[{"name":"totalVotes","type":"uint256","internalType":"uint256"},{"name":"timeInMinutes","type":"uint256","internalType":"uint256"},{"name":"creationTimestamp","type":"uint256","internalType":"uint256"},{"name":"transferTriggerOptionIndex","type":"uint256","internalType":"uint256"},{"name":"transferRecipient","type":"address","internalType":"address payable"},{"name":"transferAmount","type":"uint256","internalType":"uint256"},{"name":"transferEnabled","type":"bool","internalType":"bool"},{"name":"transferToken","type":"address","internalType":"address"}],"stateMutability":"view"},{"type":"function","name":"getProposalsCount","inputs":[],"outputs":[{"name":"","type":"uint256","internalType":"uint256"}],"stateMutability":"view"},{"type":"function","name":"getWinner","inputs":[{"name":"_proposalId","type":"uint256","internalType":"uint256"}],"outputs":[{"name":"","type":"uint256","internalType":"uint256"},{"name":"","type":"bool","internalType":"bool"}],"stateMutability":"view"},{"type":"function","name":"nftMembership","inputs":[],"outputs":[{"name":"","type":"address","internalType":"contract INFTMembership5"}],"stateMutability":"view"},{"type":"function","name":"quadraticVotingEnabled","inputs":[],"outputs":[{"name":"","type":"bool","internalType":"bool"}],"stateMutability":"view"},{"type":"function","name":"quorumPercentage","inputs":[],"outputs":[{"name":"","type":"uint256","internalType":"uint256"}],"stateMutability":"view"},{"type":"function","name":"treasury","inputs":[],"outputs":[{"name":"","type":"address","internalType":"contract ITreasury3"}],"stateMutability":"view"},{"type":"function","name":"vote","inputs":[{"name":"_proposalId","type":"uint256","internalType":"uint256"},{"name":"_voter","type":"address","internalType":"address"},{"name":"_optionIndices","type":"uint256[]","internalType":"uint256[]"},{"name":"_weights","type":"uint256[]","internalType":"uint256[]"}],"outputs":[],"stateMutability":"nonpayable"},{"type":"event","name":"NewProposal","inputs":[{"name":"proposalId","type":"uint256","indexed":true,"internalType":"uint256"},{"name":"name","type":"string","indexed":false,"internalType":"string"},{"name":"description","type":"string","indexed":false,"internalType":"string"},{"name":"timeInMinutes","type":"uint256","indexed":false,"internalType":"uint256"},{"name":"creationTimestamp","type":"uint256","indexed":false,"internalType":"uint256"},{"name":"transferTriggerOptionIndex","type":"uint256","indexed":false,"internalType":"uint256"},{"name":"transferRecipient","type":"address","indexed":false,"internalType":"address"},{"name":"transferAmount","type":"uint256","indexed":false,"internalType":"uint256"},{"name":"transferEnabled","type":"bool","indexed":false,"internalType":"bool"},{"name":"transferToken","type":"address","indexed":false,"internalType":"address"}],"anonymous":false},{"type":"event","name":"PollOptionNames","inputs":[{"name":"proposalId","type":"uint256","indexed":true,"internalType":"uint256"},{"name":"optionIndex","type":"uint256","indexed":true,"internalType":"uint256"},{"name":"name","type":"string","indexed":false,"internalType":"string"}],"anonymous":false},{"type":"event","name":"Voted","inputs":[{"name":"proposalId","type":"uint256","indexed":true,"internalType":"uint256"},{"name":"voter","type":"address","indexed":true,"internalType":"address"},{"name":"optionIndices","type":"uint256[]","indexed":false,"internalType":"uint256[]"},{"name":"weights","type":"uint256[]","indexed":false,"internalType":"uint256[]"}],"anonymous":false},{"type":"event","name":"WinnerAnnounced","inputs":[{"name":"proposalId","type":"uint256","indexed":true,"internalType":"uint256"},{"name":"winningOptionIndex","type":"uint256","indexed":false,"internalType":"uint256"},{"name":"hasValidWinner","type":"bool","indexed":false,"internalType":"bool"}],"anonymous":false}],"bytecode":{"object":"0x60806040523461016d576113d380380380610019816101fc565b92833981019060c08183031261016d5761003281610221565b9061003f60208201610221565b60408201516001600160401b03811161016d5782019380601f8601121561016d578451946001600160401b0386116101e6578560051b916020806100848186016101fc565b8099815201938301019181831161016d5760208101935b83851061017257505050505060608201519283151580940361016d5760a06100c560808501610221565b930151600355600080546001600160a01b03199081166001600160a01b039384161782556001805482169484169490941790935560028054909316919093161790555b825181101561014f576001906101356020808360051b870101518160405193828580945193849201610235565b810160058152030190208260ff1982541617905501610108565b5060ff80196006541691161760065560405161117a90816102598239f35b600080fd5b84516001600160401b03811161016d5782019083603f8301121561016d576020820151906001600160401b0382116101e6576101b7601f8301601f19166020016101fc565b828152604084840101861061016d576101db60209493859460408685019101610235565b81520194019361009b565b634e487b7160e01b600052604160045260246000fd5b6040519190601f01601f191682016001600160401b038111838210176101e657604052565b51906001600160a01b038216820361016d57565b60005b8381106102485750506000910152565b818101518382015260200161023856fe6080604052600436101561001257600080fd5b6000803560e01c80633a6e157b14610b595780634129b2c914610b2a57806343ab44d5146106b25780634fa76ec914610694578063517a625714610662578063619533001461024b57806361d027b3146102225780637221252a146101fb57806398e527d3146101dd578063a2b2b4d4146101b4578063c7f758a814610122578063e7ea088f146100d15763f64fca1e146100ac57600080fd5b346100ce57806003193601126100ce57602060ff600654166040519015158152f35b80fd5b50346100ce5760403660031901126100ce57602061011860043560046101056024359261010083548210610f12565b610f54565b5001610113815483106110cd565b610fbf565b5054604051908152f35b50346100ce5760203660031901126100ce5761010061014a6004356101006004548210610f12565b508054906002810154906003810154600582015460018060a01b03600684015416916008600785015494015494604051968752602087015260408601526060850152608084015260a083015260ff8116151560c083015260018060a01b039060081c1660e0820152f35b50346100ce57806003193601126100ce576001546040516001600160a01b039091168152602090f35b50346100ce57806003193601126100ce576020600454604051908152f35b50346100ce57806003193601126100ce57546040516001600160a01b039091168152602090f35b50346100ce57806003193601126100ce576002546040516001600160a01b039091168152602090f35b50346100ce5760803660031901126100ce576004356024356001600160a01b0381169081900361065e5760443567ffffffffffffffff811161065a57610295903690600401610eb5565b60643567ffffffffffffffff8111610656576102b5903690600401610eb5565b906004548410936102c585610f12565b6102ce81610f54565b506002600382015491015490603c820291808304603c149015171561064257906102f791610fb2565b42116106075785546040516370a0823160e01b8152600481018690529590602090879060249082906001600160a01b03165afa9586156105fc5787966105c4575b50851561057f5761034890610f12565b61035181610f54565b50916001830195856000528660205260ff6040600020541661054a5760065460ff161561054457600181018082116105305760011c815b8282106104fd575050965b809581965b86518810156103c0576103b86001916103b18a8a6110b9565b5190610fb2565b970196610398565b908860648b98959493036104b857816000526020526040600020600160ff198254161790558554600181018091116104a4578655939460040193815b83518110156104515780610412600192866110b9565b5161041f885482106110cd565b610449610440610439610432858b6110b9565b518d610f89565b928a610fbf565b50918254610fb2565b9055016103fc565b50857f5859660a79acb2b10cfd5bb993bf130241a0e53d4eeed80ef534db04b75ddfcb6104908561049e88604051938493604085526040850190611110565b908382036020850152611110565b0390a380f35b634e487b7160e01b83526011600452602483fd5b60405162461bcd60e51b815260206004820152601860248201527f546f74616c20776569676874206d7573742062652031303000000000000000006044820152606490fd5b90915081801561051c5780610513918304610fb2565b60011c90610388565b634e487b7160e01b8a52601260045260248afd5b634e487b7160e01b89526011600452602489fd5b96610393565b60405162461bcd60e51b815260206004820152600d60248201526c105b1c9958591e481d9bdd1959609a1b6044820152606490fd5b60405162461bcd60e51b815260206004820152601760248201527f4e6f2070617274696369706174696f6e20746f6b656e730000000000000000006044820152606490fd5b9095506020813d6020116105f4575b816105e060209383610dfd565b810103126105f057519438610338565b8680fd5b3d91506105d3565b6040513d89823e3d90fd5b60405162461bcd60e51b8152602060048201526013602482015272159bdd1a5b99c81d1a5b5948195e1c1a5c9959606a1b6044820152606490fd5b634e487b7160e01b88526011600452602488fd5b8480fd5b8380fd5b8280fd5b50346100ce5760203660031901126100ce5760206004610689813561010083548210610f12565b500154604051908152f35b50346100ce57806003193601126100ce576020600354604051908152f35b50346100ce576101203660031901126100ce5760043567ffffffffffffffff8111610b26576106e5903690600401610e51565b9060243567ffffffffffffffff8111610b2657610706903690600401610e51565b91604435916064359167ffffffffffffffff8311610b265736602384011215610b265782600401359261073884610e9d565b936107466040519586610dfd565b80855260051b8101602401602085013682116106565760248301905b828210610af65750505060a4356001600160a01b0381169591506084359086900361065a5760c43560e43590811515809203610af25761010435976001600160a01b03891693848a03610aee57600154604051630eef043160e31b8152336004820152908990829060249082906001600160a01b03165afa908115610ae3578991610a57575b50610804602060ff928160405193828580945193849201611071565b81016005815203019020541615610a0857600454600160401b8110156109f4578060016108349201600455610f54565b5088815560028101879055426003820155600581018290556006810180546001600160a01b0319168417905560078101849055600880820180546001600160a81b03191660ff8816179c90911b610100600160a81b03169b909b17909a5560045460001981019b908c1161053057926108e895928c9895926108f67f02cdbdf6d83224bfc61f2b0e33d9159756d8eaf2dfb75d5e66d2a63cef32e8dc9996604051998a996101208b526101208b0190611094565b9089820360208b0152611094565b956040880152426060880152608087015260a086015260c085015260e08401526101008301520390a26004819301925b82518110156109f0576040516020810181811067ffffffffffffffff8211176109dc576040528281528454600160401b8110156109dc5780600161096d9201875586610fbf565b9190916109c85751905560019080867fd3b5cef521b08344b2f3822456355f6c2603e7f00a271d0215ac4760a401fc486109bf6109aa84896110b9565b51604051918291602083526020830190611094565b0390a301610926565b634e487b7160e01b84526004849052602484fd5b634e487b7160e01b84526041600452602484fd5b5080f35b634e487b7160e01b89526041600452602489fd5b60405162461bcd60e51b815260206004820152602160248201527f4e6f7420617574686f72697a656420746f206372656174652070726f706f73616044820152601b60fa1b6064820152608490fd5b90503d808a833e610a688183610dfd565b810190602081830312610adf5780519067ffffffffffffffff8211610adb570181601f82011215610adf57805190610a9f82610e35565b92610aad6040519485610dfd565b82845260208383010111610adb5782610ad361080493602093848060ff98019101611071565b9250506107e8565b8a80fd5b8980fd5b6040513d8b823e3d90fd5b8780fd5b8580fd5b813567ffffffffffffffff81116105f057602091610b1b839260243691890101610e51565b815201910190610762565b5080fd5b50346100ce5760203660031901126100ce57610b47600435610fd7565b60408051928352901515602083015290f35b50346100ce5760203660031901126100ce57600435906004548210610b7d81610f12565b610b8683610f54565b506002600382015491015490603c820291808304603c1490151715610de95790610baf91610fb2565b421115610da457610bbf90610f12565b610bc882610fd7565b9290918380610d8d575b80610d77575b610c22575b506040805183815284151560208201527f80fa758d7c24e927ad76726080b3e8e8ec336147a2e7f4edde3e19d9c94e7c369190a2604080519182529115156020820152f35b611010610c2e83610f54565b50600890810154901c6001600160a01b031603610cd6576002546001600160a01b0316610c5a83610f54565b50600601546001600160a01b03166007610c7385610f54565b50015490823b1561065a57906044849283604051958694859363522f681560e01b8552600485015260248401525af18015610ccb57610cb6575b50505b38610bdd565b610cc1828092610dfd565b6100ce5780610cad565b6040513d84823e3d90fd5b6002546001600160a01b0316610ceb83610f54565b50600890810154901c6001600160a01b0316610d0684610f54565b50600601546001600160a01b0316906007610d2086610f54565b50015492803b1561065657849291836064926040519687958694631cdacd5960e31b86526004860152602485015260448401525af18015610ccb57610d67575b5050610cb0565b81610d7191610dfd565b38610d60565b506005610d8383610f54565b5001548314610bd8565b5060ff6008610d9b84610f54565b50015416610bd2565b60405162461bcd60e51b815260206004820152601860248201527f566f74696e67206973206e6f742079657420636c6f73656400000000000000006044820152606490fd5b634e487b7160e01b84526011600452602484fd5b90601f8019910116810190811067ffffffffffffffff821117610e1f57604052565b634e487b7160e01b600052604160045260246000fd5b67ffffffffffffffff8111610e1f57601f01601f191660200190565b81601f82011215610e9857803590610e6882610e35565b92610e766040519485610dfd565b82845260208383010111610e9857816000926020809301838601378301015290565b600080fd5b67ffffffffffffffff8111610e1f5760051b60200190565b9080601f83011215610e98578135610ecc81610e9d565b92610eda6040519485610dfd565b81845260208085019260051b820101928311610e9857602001905b828210610f025750505090565b8135815260209182019101610ef5565b15610f1957565b60405162461bcd60e51b8152602060048201526013602482015272125b9d985b1a59081c1c9bdc1bdcd85b081251606a1b6044820152606490fd5b600454811015610f735760046000526009602060002091020190600090565b634e487b7160e01b600052603260045260246000fd5b81810292918115918404141715610f9c57565b634e487b7160e01b600052601160045260246000fd5b91908201809211610f9c57565b8054821015610f735760005260206000200190600090565b610fe8906101006004548210610f12565b50906000808093805491610ffe60035484610f89565b9215611068576004819201908154925b83811061101e5750505050509190565b816110298285610fbf565b505411611039575b60010161100e565b96505092506110488584610fbf565b50549285936064810281810460641482151715610f9c5784111596611031565b94505050508190565b60005b8381106110845750506000910152565b8181015183820152602001611074565b906020916110ad81518092818552858086019101611071565b601f01601f1916010190565b8051821015610f735760209160051b010190565b156110d457565b60405162461bcd60e51b8152602060048201526014602482015273092dcecc2d8d2c840dee0e8d2dedc40d2dcc8caf60631b6044820152606490fd5b906020808351928381520192019060005b81811061112e5750505090565b825184526020938401939092019160010161112156fea2646970667358221220bec4891f59e774589ea7bedefc0ffde90cbfb952a6c702752ec81ef95a74f57764736f6c634300081a0033","linkReferences":{}},"methodIdentifiers":{"ParticipationToken()":"7221252a","announceWinner(uint256)":"3a6e157b","createProposal(string,string,uint256,string[],uint256,address,uint256,bool,address)":"43ab44d5","getOptionVotes(uint256,uint256)":"e7ea088f","getOptionsCount(uint256)":"517a6257","getProposal(uint256)":"c7f758a8","getProposalsCount()":"98e527d3","getWinner(uint256)":"4129b2c9","nftMembership()":"a2b2b4d4","quadraticVotingEnabled()":"f64fca1e","quorumPercentage()":"4fa76ec9","treasury()":"61d027b3","vote(uint256,address,uint256[],uint256[])":"61953300"},"id":56}