{
  "_format": "hh-sol-artifact-1",
  "contractName": "ParticipationVoting",
  "sourceName": "contracts/ParticipationVoting.sol",
  "abi": [
    {
      "inputs": [
        {
          "internalType": "address",
          "name": "_ParticipationToken",
          "type": "address"
        },
        {
          "internalType": "address",
          "name": "_nftMembership",
          "type": "address"
        },
        {
          "internalType": "string[]",
          "name": "_allowedRoleNames",
          "type": "string[]"
        },
        {
          "internalType": "bool",
          "name": "_quadraticVotingEnabled",
          "type": "bool"
        },
        {
          "internalType": "address",
          "name": "_treasuryAddress",
          "type": "address"
        },
        {
          "internalType": "uint256",
          "name": "_quorumPercentage",
          "type": "uint256"
        }
      ],
      "stateMutability": "nonpayable",
      "type": "constructor"
    },
    {
      "anonymous": false,
      "inputs": [
        {
          "indexed": true,
          "internalType": "uint256",
          "name": "proposalId",
          "type": "uint256"
        },
        {
          "indexed": false,
          "internalType": "string",
          "name": "name",
          "type": "string"
        },
        {
          "indexed": false,
          "internalType": "string",
          "name": "description",
          "type": "string"
        },
        {
          "indexed": false,
          "internalType": "uint256",
          "name": "timeInMinutes",
          "type": "uint256"
        },
        {
          "indexed": false,
          "internalType": "uint256",
          "name": "creationTimestamp",
          "type": "uint256"
        },
        {
          "indexed": false,
          "internalType": "uint256",
          "name": "transferTriggerOptionIndex",
          "type": "uint256"
        },
        {
          "indexed": false,
          "internalType": "address",
          "name": "transferRecipient",
          "type": "address"
        },
        {
          "indexed": false,
          "internalType": "uint256",
          "name": "transferAmount",
          "type": "uint256"
        },
        {
          "indexed": false,
          "internalType": "bool",
          "name": "transferEnabled",
          "type": "bool"
        }
      ],
      "name": "NewProposal",
      "type": "event"
    },
    {
      "anonymous": false,
      "inputs": [
        {
          "indexed": true,
          "internalType": "uint256",
          "name": "proposalId",
          "type": "uint256"
        },
        {
          "indexed": true,
          "internalType": "uint256",
          "name": "optionIndex",
          "type": "uint256"
        },
        {
          "indexed": false,
          "internalType": "string",
          "name": "name",
          "type": "string"
        }
      ],
      "name": "PollOptionNames",
      "type": "event"
    },
    {
      "anonymous": false,
      "inputs": [
        {
          "indexed": true,
          "internalType": "uint256",
          "name": "proposalId",
          "type": "uint256"
        },
        {
          "indexed": true,
          "internalType": "address",
          "name": "voter",
          "type": "address"
        },
        {
          "indexed": false,
          "internalType": "uint256",
          "name": "optionIndex",
          "type": "uint256"
        },
        {
          "indexed": false,
          "internalType": "uint256",
          "name": "voteWeight",
          "type": "uint256"
        }
      ],
      "name": "Voted",
      "type": "event"
    },
    {
      "anonymous": false,
      "inputs": [
        {
          "indexed": true,
          "internalType": "uint256",
          "name": "proposalId",
          "type": "uint256"
        },
        {
          "indexed": false,
          "internalType": "uint256",
          "name": "winningOptionIndex",
          "type": "uint256"
        },
        {
          "indexed": false,
          "internalType": "bool",
          "name": "hasValidWinner",
          "type": "bool"
        }
      ],
      "name": "WinnerAnnounced",
      "type": "event"
    },
    {
      "inputs": [],
      "name": "ParticipationToken",
      "outputs": [
        {
          "internalType": "contract IERC20",
          "name": "",
          "type": "address"
        }
      ],
      "stateMutability": "view",
      "type": "function"
    },
    {
      "inputs": [
        {
          "internalType": "uint256",
          "name": "_proposalId",
          "type": "uint256"
        }
      ],
      "name": "announceWinner",
      "outputs": [],
      "stateMutability": "nonpayable",
      "type": "function"
    },
    {
      "inputs": [
        {
          "internalType": "string",
          "name": "_name",
          "type": "string"
        },
        {
          "internalType": "string",
          "name": "_description",
          "type": "string"
        },
        {
          "internalType": "uint256",
          "name": "_timeInMinutes",
          "type": "uint256"
        },
        {
          "internalType": "string[]",
          "name": "_optionNames",
          "type": "string[]"
        },
        {
          "internalType": "uint256",
          "name": "_transferTriggerOptionIndex",
          "type": "uint256"
        },
        {
          "internalType": "address payable",
          "name": "_transferRecipient",
          "type": "address"
        },
        {
          "internalType": "uint256",
          "name": "_transferAmount",
          "type": "uint256"
        },
        {
          "internalType": "bool",
          "name": "_transferEnabled",
          "type": "bool"
        }
      ],
      "name": "createProposal",
      "outputs": [],
      "stateMutability": "nonpayable",
      "type": "function"
    },
    {
      "inputs": [
        {
          "internalType": "uint256",
          "name": "_proposalId",
          "type": "uint256"
        },
        {
          "internalType": "uint256",
          "name": "_optionIndex",
          "type": "uint256"
        }
      ],
      "name": "getOptionVotes",
      "outputs": [
        {
          "internalType": "uint256",
          "name": "votes",
          "type": "uint256"
        }
      ],
      "stateMutability": "view",
      "type": "function"
    },
    {
      "inputs": [
        {
          "internalType": "uint256",
          "name": "_proposalId",
          "type": "uint256"
        }
      ],
      "name": "getOptionsCount",
      "outputs": [
        {
          "internalType": "uint256",
          "name": "",
          "type": "uint256"
        }
      ],
      "stateMutability": "view",
      "type": "function"
    },
    {
      "inputs": [
        {
          "internalType": "uint256",
          "name": "_proposalId",
          "type": "uint256"
        }
      ],
      "name": "getWinner",
      "outputs": [
        {
          "internalType": "uint256",
          "name": "",
          "type": "uint256"
        },
        {
          "internalType": "bool",
          "name": "",
          "type": "bool"
        }
      ],
      "stateMutability": "view",
      "type": "function"
    },
    {
      "inputs": [],
      "name": "nftMembership",
      "outputs": [
        {
          "internalType": "contract INFTMembership5",
          "name": "",
          "type": "address"
        }
      ],
      "stateMutability": "view",
      "type": "function"
    },
    {
      "inputs": [],
      "name": "quadraticVotingEnabled",
      "outputs": [
        {
          "internalType": "bool",
          "name": "",
          "type": "bool"
        }
      ],
      "stateMutability": "view",
      "type": "function"
    },
    {
      "inputs": [],
      "name": "quorumPercentage",
      "outputs": [
        {
          "internalType": "uint256",
          "name": "",
          "type": "uint256"
        }
      ],
      "stateMutability": "view",
      "type": "function"
    },
    {
      "inputs": [],
      "name": "treasury",
      "outputs": [
        {
          "internalType": "contract ITreasury3",
          "name": "",
          "type": "address"
        }
      ],
      "stateMutability": "view",
      "type": "function"
    },
    {
      "inputs": [
        {
          "internalType": "uint256",
          "name": "_proposalId",
          "type": "uint256"
        },
        {
          "internalType": "address",
          "name": "_voter",
          "type": "address"
        },
        {
          "internalType": "uint256",
          "name": "_optionIndex",
          "type": "uint256"
        }
      ],
      "name": "vote",
      "outputs": [],
      "stateMutability": "nonpayable",
      "type": "function"
    }
  ],
  "bytecode": "0x608060405260326003553480156200001657600080fd5b50604051620024f8380380620024f883398181016040528101906200003c919062000511565b80600381905550856000806101000a81548173ffffffffffffffffffffffffffffffffffffffff021916908373ffffffffffffffffffffffffffffffffffffffff16021790555084600160006101000a81548173ffffffffffffffffffffffffffffffffffffffff021916908373ffffffffffffffffffffffffffffffffffffffff16021790555081600260006101000a81548173ffffffffffffffffffffffffffffffffffffffff021916908373ffffffffffffffffffffffffffffffffffffffff16021790555060005b84518110156200017e57600160058683815181106200012c576200012b620005cc565b5b602002602001015160405162000143919062000648565b908152602001604051809103902060006101000a81548160ff0219169083151502179055508080620001759062000690565b91505062000108565b5082600660006101000a81548160ff021916908315150217905550505050505050620006dd565b6000604051905090565b600080fd5b600080fd5b600073ffffffffffffffffffffffffffffffffffffffff82169050919050565b6000620001e682620001b9565b9050919050565b620001f881620001d9565b81146200020457600080fd5b50565b6000815190506200021881620001ed565b92915050565b600080fd5b6000601f19601f8301169050919050565b7f4e487b7100000000000000000000000000000000000000000000000000000000600052604160045260246000fd5b6200026e8262000223565b810181811067ffffffffffffffff8211171562000290576200028f62000234565b5b80604052505050565b6000620002a5620001a5565b9050620002b3828262000263565b919050565b600067ffffffffffffffff821115620002d657620002d562000234565b5b602082029050602081019050919050565b600080fd5b600080fd5b600067ffffffffffffffff8211156200030f576200030e62000234565b5b6200031a8262000223565b9050602081019050919050565b60005b83811015620003475780820151818401526020810190506200032a565b60008484015250505050565b60006200036a6200036484620002f1565b62000299565b905082815260208101848484011115620003895762000388620002ec565b5b6200039684828562000327565b509392505050565b600082601f830112620003b657620003b56200021e565b5b8151620003c884826020860162000353565b91505092915050565b6000620003e8620003e284620002b8565b62000299565b905080838252602082019050602084028301858111156200040e576200040d620002e7565b5b835b818110156200045c57805167ffffffffffffffff8111156200043757620004366200021e565b5b8086016200044689826200039e565b8552602085019450505060208101905062000410565b5050509392505050565b600082601f8301126200047e576200047d6200021e565b5b815162000490848260208601620003d1565b91505092915050565b60008115159050919050565b620004b08162000499565b8114620004bc57600080fd5b50565b600081519050620004d081620004a5565b92915050565b6000819050919050565b620004eb81620004d6565b8114620004f757600080fd5b50565b6000815190506200050b81620004e0565b92915050565b60008060008060008060c08789031215620005315762000530620001af565b5b60006200054189828a0162000207565b96505060206200055489828a0162000207565b955050604087015167ffffffffffffffff811115620005785762000577620001b4565b5b6200058689828a0162000466565b94505060606200059989828a01620004bf565b9350506080620005ac89828a0162000207565b92505060a0620005bf89828a01620004fa565b9150509295509295509295565b7f4e487b7100000000000000000000000000000000000000000000000000000000600052603260045260246000fd5b600081519050919050565b600081905092915050565b60006200061e82620005fb565b6200062a818562000606565b93506200063c81856020860162000327565b80840191505092915050565b600062000656828462000611565b915081905092915050565b7f4e487b7100000000000000000000000000000000000000000000000000000000600052601160045260246000fd5b60006200069d82620004d6565b91507fffffffffffffffffffffffffffffffffffffffffffffffffffffffffffffffff8203620006d257620006d162000661565b5b600182019050919050565b611e0b80620006ed6000396000f3fe608060405234801561001057600080fd5b50600436106100a95760003560e01c806361d027b31161007157806361d027b3146101655780637221252a14610183578063a2b2b4d4146101a1578063e7ea088f146101bf578063f64fca1e146101ef578063fdbbcbc21461020d576100a9565b80633a6e157b146100ae5780634129b2c9146100ca5780634de8737c146100fb5780634fa76ec914610117578063517a625714610135575b600080fd5b6100c860048036038101906100c39190610fac565b610229565b005b6100e460048036038101906100df9190610fac565b61051d565b6040516100f2929190611003565b60405180910390f35b6101156004803603810190610110919061108a565b610644565b005b61011f610a24565b60405161012c91906110dd565b60405180910390f35b61014f600480360381019061014a9190610fac565b610a2a565b60405161015c91906110dd565b60405180910390f35b61016d610aa9565b60405161017a9190611157565b60405180910390f35b61018b610acf565b6040516101989190611193565b60405180910390f35b6101a9610af3565b6040516101b691906111cf565b60405180910390f35b6101d960048036038101906101d491906111ea565b610b19565b6040516101e691906110dd565b60405180910390f35b6101f7610bfe565b604051610204919061122a565b60405180910390f35b610227600480360381019061022291906114db565b610c11565b005b806004805490508110610271576040517f08c379a000000000000000000000000000000000000000000000000000000000815260040161026890611642565b60405180910390fd5b60006004828154811061028757610286611662565b5b90600052602060002090600902019050603c81600201546102a891906116c0565b81600301546102b79190611702565b42116102f8576040517f08c379a00000000000000000000000000000000000000000000000000000000081526004016102ef90611782565b60405180910390fd5b600480549050831061033f576040517f08c379a000000000000000000000000000000000000000000000000000000000815260040161033690611642565b60405180910390fd5b60008061034b8561051d565b9150915080801561038b57506004858154811061036b5761036a611662565b5b906000526020600020906009020160080160009054906101000a900460ff165b80156103bb5750600485815481106103a6576103a5611662565b5b90600052602060002090600902016005015482145b156104dc57600260009054906101000a900473ffffffffffffffffffffffffffffffffffffffff1673ffffffffffffffffffffffffffffffffffffffff1663e6d66ac860008054906101000a900473ffffffffffffffffffffffffffffffffffffffff166004888154811061043357610432611662565b5b906000526020600020906009020160060160009054906101000a900473ffffffffffffffffffffffffffffffffffffffff166004898154811061047957610478611662565b5b9060005260206000209060090201600701546040518463ffffffff1660e01b81526004016104a9939291906117d2565b600060405180830381600087803b1580156104c357600080fd5b505af11580156104d7573d6000803e3d6000fd5b505050505b847f80fa758d7c24e927ad76726080b3e8e8ec336147a2e7f4edde3e19d9c94e7c36838360405161050e929190611003565b60405180910390a25050505050565b6000806004805490508310610567576040517f08c379a000000000000000000000000000000000000000000000000000000000815260040161055e90611642565b60405180910390fd5b60006004848154811061057d5761057c611662565b5b9060005260206000209060090201905060008060008060035485600001546105a591906116c0565b905060005b856004018054905081101561063357848660040182815481106105d0576105cf611662565b5b90600052602060002001600001541115610620578560040181815481106105fa576105f9611662565b5b906000526020600020016000015494508093508160648661061b91906116c0565b101592505b808061062b90611809565b9150506105aa565b508282965096505050505050915091565b82600480549050811061068c576040517f08c379a000000000000000000000000000000000000000000000000000000000815260040161068390611642565b60405180910390fd5b6000600482815481106106a2576106a1611662565b5b90600052602060002090600902019050603c81600201546106c391906116c0565b81600301546106d29190611702565b421115610714576040517f08c379a000000000000000000000000000000000000000000000000000000000815260040161070b9061189d565b60405180910390fd5b60008060009054906101000a900473ffffffffffffffffffffffffffffffffffffffff1673ffffffffffffffffffffffffffffffffffffffff166370a08231866040518263ffffffff1660e01b815260040161077091906118bd565b602060405180830381865afa15801561078d573d6000803e3d6000fd5b505050506040513d601f19601f820116820180604052508101906107b191906118ed565b9050600081116107f6576040517f08c379a00000000000000000000000000000000000000000000000000000000081526004016107ed90611966565b60405180910390fd5b600480549050861061083d576040517f08c379a000000000000000000000000000000000000000000000000000000000815260040161083490611642565b60405180910390fd5b60006004878154811061085357610852611662565b5b906000526020600020906009020190508060010160008773ffffffffffffffffffffffffffffffffffffffff1673ffffffffffffffffffffffffffffffffffffffff16815260200190815260200160002060009054906101000a900460ff16156108f2576040517f08c379a00000000000000000000000000000000000000000000000000000000081526004016108e9906119d2565b60405180910390fd5b6000600660009054906101000a900460ff1661090e5782610918565b61091783610ef3565b5b905060018260010160008973ffffffffffffffffffffffffffffffffffffffff1673ffffffffffffffffffffffffffffffffffffffff16815260200190815260200160002060006101000a81548160ff021916908315150217905550808260000160008282546109889190611702565b92505081905550808260040187815481106109a6576109a5611662565b5b9060005260206000200160000160008282546109c29190611702565b925050819055508673ffffffffffffffffffffffffffffffffffffffff16887fb4c54afd73915f9f756c8dee39fe0b311937871a92261a47747f7a3d32f63a0c8884604051610a129291906119f2565b60405180910390a35050505050505050565b60035481565b60006004805490508210610a73576040517f08c379a0000000000000000000000000000000000000000000000000000000008152600401610a6a90611642565b60405180910390fd5b600060048381548110610a8957610a88611662565b5b906000526020600020906009020190508060040180549050915050919050565b600260009054906101000a900473ffffffffffffffffffffffffffffffffffffffff1681565b60008054906101000a900473ffffffffffffffffffffffffffffffffffffffff1681565b600160009054906101000a900473ffffffffffffffffffffffffffffffffffffffff1681565b60006004805490508310610b62576040517f08c379a0000000000000000000000000000000000000000000000000000000008152600401610b5990611642565b60405180910390fd5b600060048481548110610b7857610b77611662565b5b9060005260206000209060090201905080600401805490508310610bd1576040517f08c379a0000000000000000000000000000000000000000000000000000000008152600401610bc890611a67565b60405180910390fd5b806004018381548110610be757610be6611662565b5b906000526020600020016000015491505092915050565b600660009054906101000a900460ff1681565b6000600160009054906101000a900473ffffffffffffffffffffffffffffffffffffffff1673ffffffffffffffffffffffffffffffffffffffff166377782188336040518263ffffffff1660e01b8152600401610c6e91906118bd565b600060405180830381865afa158015610c8b573d6000803e3d6000fd5b505050506040513d6000823e3d601f19601f82011682018060405250810190610cb49190611b21565b9050600581604051610cc69190611bb1565b908152602001604051809103902060009054906101000a900460ff16610d21576040517f08c379a0000000000000000000000000000000000000000000000000000000008152600401610d1890611c3a565b60405180910390fd5b60006004600181600181540180825580915050039060005260206000209060090201905060008160000181905550878160020181905550428160030181905550858160050181905550848160060160006101000a81548173ffffffffffffffffffffffffffffffffffffffff021916908373ffffffffffffffffffffffffffffffffffffffff160217905550838160070181905550828160080160006101000a81548160ff02191690831515021790555060006001600480549050610de69190611c5a565b9050807ffb1330a17ffe898a019796942f0ab05b8d97f1e01c9d47ac01b2fe7b462c152b8c8c8c428c8c8c8c604051610e26989796959493929190611cc7565b60405180910390a260005b8851811015610ee55782600401604051806020016040528060008152509080600181540180825580915050600190039060005260206000200160009091909190915060008201518160000155505080827fd3b5cef521b08344b2f3822456355f6c2603e7f00a271d0215ac4760a401fc488b8481518110610eb557610eb4611662565b5b6020026020010151604051610eca9190611d53565b60405180910390a38080610edd90611809565b915050610e31565b505050505050505050505050565b6000610efe82610f05565b9050919050565b6000806002600184610f179190611702565b610f219190611da4565b90508291505b81811015610f5c578091506002818285610f419190611da4565b610f4b9190611702565b610f559190611da4565b9050610f27565b50919050565b6000604051905090565b600080fd5b600080fd5b6000819050919050565b610f8981610f76565b8114610f9457600080fd5b50565b600081359050610fa681610f80565b92915050565b600060208284031215610fc257610fc1610f6c565b5b6000610fd084828501610f97565b91505092915050565b610fe281610f76565b82525050565b60008115159050919050565b610ffd81610fe8565b82525050565b60006040820190506110186000830185610fd9565b6110256020830184610ff4565b9392505050565b600073ffffffffffffffffffffffffffffffffffffffff82169050919050565b60006110578261102c565b9050919050565b6110678161104c565b811461107257600080fd5b50565b6000813590506110848161105e565b92915050565b6000806000606084860312156110a3576110a2610f6c565b5b60006110b186828701610f97565b93505060206110c286828701611075565b92505060406110d386828701610f97565b9150509250925092565b60006020820190506110f26000830184610fd9565b92915050565b6000819050919050565b600061111d6111186111138461102c565b6110f8565b61102c565b9050919050565b600061112f82611102565b9050919050565b600061114182611124565b9050919050565b61115181611136565b82525050565b600060208201905061116c6000830184611148565b92915050565b600061117d82611124565b9050919050565b61118d81611172565b82525050565b60006020820190506111a86000830184611184565b92915050565b60006111b982611124565b9050919050565b6111c9816111ae565b82525050565b60006020820190506111e460008301846111c0565b92915050565b6000806040838503121561120157611200610f6c565b5b600061120f85828601610f97565b925050602061122085828601610f97565b9150509250929050565b600060208201905061123f6000830184610ff4565b92915050565b600080fd5b600080fd5b6000601f19601f8301169050919050565b7f4e487b7100000000000000000000000000000000000000000000000000000000600052604160045260246000fd5b6112988261124f565b810181811067ffffffffffffffff821117156112b7576112b6611260565b5b80604052505050565b60006112ca610f62565b90506112d6828261128f565b919050565b600067ffffffffffffffff8211156112f6576112f5611260565b5b6112ff8261124f565b9050602081019050919050565b82818337600083830152505050565b600061132e611329846112db565b6112c0565b90508281526020810184848401111561134a5761134961124a565b5b61135584828561130c565b509392505050565b600082601f83011261137257611371611245565b5b813561138284826020860161131b565b91505092915050565b600067ffffffffffffffff8211156113a6576113a5611260565b5b602082029050602081019050919050565b600080fd5b60006113cf6113ca8461138b565b6112c0565b905080838252602082019050602084028301858111156113f2576113f16113b7565b5b835b8181101561143957803567ffffffffffffffff81111561141757611416611245565b5b808601611424898261135d565b855260208501945050506020810190506113f4565b5050509392505050565b600082601f83011261145857611457611245565b5b81356114688482602086016113bc565b91505092915050565b600061147c8261102c565b9050919050565b61148c81611471565b811461149757600080fd5b50565b6000813590506114a981611483565b92915050565b6114b881610fe8565b81146114c357600080fd5b50565b6000813590506114d5816114af565b92915050565b600080600080600080600080610100898b0312156114fc576114fb610f6c565b5b600089013567ffffffffffffffff81111561151a57611519610f71565b5b6115268b828c0161135d565b985050602089013567ffffffffffffffff81111561154757611546610f71565b5b6115538b828c0161135d565b97505060406115648b828c01610f97565b965050606089013567ffffffffffffffff81111561158557611584610f71565b5b6115918b828c01611443565b95505060806115a28b828c01610f97565b94505060a06115b38b828c0161149a565b93505060c06115c48b828c01610f97565b92505060e06115d58b828c016114c6565b9150509295985092959890939650565b600082825260208201905092915050565b7f496e76616c69642070726f706f73616c20494400000000000000000000000000600082015250565b600061162c6013836115e5565b9150611637826115f6565b602082019050919050565b6000602082019050818103600083015261165b8161161f565b9050919050565b7f4e487b7100000000000000000000000000000000000000000000000000000000600052603260045260246000fd5b7f4e487b7100000000000000000000000000000000000000000000000000000000600052601160045260246000fd5b60006116cb82610f76565b91506116d683610f76565b92508282026116e481610f76565b915082820484148315176116fb576116fa611691565b5b5092915050565b600061170d82610f76565b915061171883610f76565b92508282019050808211156117305761172f611691565b5b92915050565b7f566f74696e67206973206e6f742079657420636c6f7365640000000000000000600082015250565b600061176c6018836115e5565b915061177782611736565b602082019050919050565b6000602082019050818103600083015261179b8161175f565b9050919050565b6117ab8161104c565b82525050565b60006117bc82611124565b9050919050565b6117cc816117b1565b82525050565b60006060820190506117e760008301866117a2565b6117f460208301856117c3565b6118016040830184610fd9565b949350505050565b600061181482610f76565b91507fffffffffffffffffffffffffffffffffffffffffffffffffffffffffffffffff820361184657611845611691565b5b600182019050919050565b7f566f74696e672074696d65206578706972656400000000000000000000000000600082015250565b60006118876013836115e5565b915061189282611851565b602082019050919050565b600060208201905081810360008301526118b68161187a565b9050919050565b60006020820190506118d260008301846117a2565b92915050565b6000815190506118e781610f80565b92915050565b60006020828403121561190357611902610f6c565b5b6000611911848285016118d8565b91505092915050565b7f4e6f2070617274696369706174696f6e20746f6b656e73000000000000000000600082015250565b60006119506017836115e5565b915061195b8261191a565b602082019050919050565b6000602082019050818103600083015261197f81611943565b9050919050565b7f416c726561647920766f74656400000000000000000000000000000000000000600082015250565b60006119bc600d836115e5565b91506119c782611986565b602082019050919050565b600060208201905081810360008301526119eb816119af565b9050919050565b6000604082019050611a076000830185610fd9565b611a146020830184610fd9565b9392505050565b7f496e76616c6964206f7074696f6e20696e646578000000000000000000000000600082015250565b6000611a516014836115e5565b9150611a5c82611a1b565b602082019050919050565b60006020820190508181036000830152611a8081611a44565b9050919050565b60005b83811015611aa5578082015181840152602081019050611a8a565b60008484015250505050565b6000611ac4611abf846112db565b6112c0565b905082815260208101848484011115611ae057611adf61124a565b5b611aeb848285611a87565b509392505050565b600082601f830112611b0857611b07611245565b5b8151611b18848260208601611ab1565b91505092915050565b600060208284031215611b3757611b36610f6c565b5b600082015167ffffffffffffffff811115611b5557611b54610f71565b5b611b6184828501611af3565b91505092915050565b600081519050919050565b600081905092915050565b6000611b8b82611b6a565b611b958185611b75565b9350611ba5818560208601611a87565b80840191505092915050565b6000611bbd8284611b80565b915081905092915050565b7f4e6f7420617574686f72697a656420746f206372656174652070726f706f736160008201527f6c00000000000000000000000000000000000000000000000000000000000000602082015250565b6000611c246021836115e5565b9150611c2f82611bc8565b604082019050919050565b60006020820190508181036000830152611c5381611c17565b9050919050565b6000611c6582610f76565b9150611c7083610f76565b9250828203905081811115611c8857611c87611691565b5b92915050565b6000611c9982611b6a565b611ca381856115e5565b9350611cb3818560208601611a87565b611cbc8161124f565b840191505092915050565b6000610100820190508181036000830152611ce2818b611c8e565b90508181036020830152611cf6818a611c8e565b9050611d056040830189610fd9565b611d126060830188610fd9565b611d1f6080830187610fd9565b611d2c60a08301866117c3565b611d3960c0830185610fd9565b611d4660e0830184610ff4565b9998505050505050505050565b60006020820190508181036000830152611d6d8184611c8e565b905092915050565b7f4e487b7100000000000000000000000000000000000000000000000000000000600052601260045260246000fd5b6000611daf82610f76565b9150611dba83610f76565b925082611dca57611dc9611d75565b5b82820490509291505056fea2646970667358221220c34cc7efe859b1fa61cd1034bcf929cea1af04d3894ce1c713233148832af74b64736f6c63430008140033",
  "linkReferences": {},
  "deployedLinkReferences": {}
}