{
  "_format": "hh-sol-artifact-1",
  "contractName": "ParticipationTokenFactory",
  "sourceName": "contracts/ParticipationTokenFactory.sol",
  "abi": [
    {
      "anonymous": false,
      "inputs": [
        {
          "indexed": false,
          "internalType": "address",
          "name": "tokenAddress",
          "type": "address"
        },
        {
          "indexed": false,
          "internalType": "string",
          "name": "name",
          "type": "string"
        },
        {
          "indexed": false,
          "internalType": "string",
          "name": "symbol",
          "type": "string"
        }
      ],
      "name": "TokenCreated",
      "type": "event"
    },
    {
      "inputs": [
        {
          "internalType": "string",
          "name": "name",
          "type": "string"
        },
        {
          "internalType": "string",
          "name": "symbol",
          "type": "string"
        }
      ],
      "name": "createParticipationToken",
      "outputs": [],
      "stateMutability": "nonpayable",
      "type": "function"
    },
    {
      "inputs": [
        {
          "internalType": "uint256",
          "name": "",
          "type": "uint256"
        }
      ],
      "name": "deployedTokens",
      "outputs": [
        {
          "internalType": "contract ParticipationToken",
          "name": "",
          "type": "address"
        }
      ],
      "stateMutability": "view",
      "type": "function"
    },
    {
      "inputs": [],
      "name": "getDeployedTokens",
      "outputs": [
        {
          "internalType": "contract ParticipationToken[]",
          "name": "",
          "type": "address[]"
        }
      ],
      "stateMutability": "view",
      "type": "function"
    }
  ],
  "bytecode": "0x608060405234801561001057600080fd5b50612499806100206000396000f3fe60806040523480156200001157600080fd5b5060043610620000465760003560e01c806355ea4fcd146200004b578063622ae7aa146200006b578063ec81aadb146200008d575b600080fd5b620000696004803603810190620000639190620003fb565b620000c3565b005b62000075620001a7565b604051620000849190620005c8565b60405180910390f35b620000ab6004803603810190620000a5919062000627565b62000237565b604051620000ba91906200066a565b60405180910390f35b60008282604051620000d59062000277565b620000e292919062000710565b604051809103906000f080158015620000ff573d6000803e3d6000fd5b5090506000819080600181540180825580915050600190039060005260206000200160009091909190916101000a81548173ffffffffffffffffffffffffffffffffffffffff021916908373ffffffffffffffffffffffffffffffffffffffff1602179055507fffc04f682c7b287e4b552dacd4b833d7c33dc0549cd6da84388408e4830c05628184846040516200019a9392919062000770565b60405180910390a1505050565b606060008054806020026020016040519081016040528092919081815260200182805480156200022d57602002820191906000526020600020905b8160009054906101000a900473ffffffffffffffffffffffffffffffffffffffff1673ffffffffffffffffffffffffffffffffffffffff1681526020019060010190808311620001e2575b5050505050905090565b600081815481106200024857600080fd5b906000526020600020016000915054906101000a900473ffffffffffffffffffffffffffffffffffffffff1681565b611ca880620007bc83390190565b6000604051905090565b600080fd5b600080fd5b600080fd5b600080fd5b6000601f19601f8301169050919050565b7f4e487b7100000000000000000000000000000000000000000000000000000000600052604160045260246000fd5b620002ee82620002a3565b810181811067ffffffffffffffff8211171562000310576200030f620002b4565b5b80604052505050565b60006200032562000285565b9050620003338282620002e3565b919050565b600067ffffffffffffffff821115620003565762000355620002b4565b5b6200036182620002a3565b9050602081019050919050565b82818337600083830152505050565b6000620003946200038e8462000338565b62000319565b905082815260208101848484011115620003b357620003b26200029e565b5b620003c08482856200036e565b509392505050565b600082601f830112620003e057620003df62000299565b5b8135620003f28482602086016200037d565b91505092915050565b600080604083850312156200041557620004146200028f565b5b600083013567ffffffffffffffff81111562000436576200043562000294565b5b6200044485828601620003c8565b925050602083013567ffffffffffffffff81111562000468576200046762000294565b5b6200047685828601620003c8565b9150509250929050565b600081519050919050565b600082825260208201905092915050565b6000819050602082019050919050565b600073ffffffffffffffffffffffffffffffffffffffff82169050919050565b6000819050919050565b6000620004f7620004f1620004eb84620004ac565b620004cc565b620004ac565b9050919050565b60006200050b82620004d6565b9050919050565b60006200051f82620004fe565b9050919050565b620005318162000512565b82525050565b600062000545838362000526565b60208301905092915050565b6000602082019050919050565b60006200056b8262000480565b6200057781856200048b565b935062000584836200049c565b8060005b83811015620005bb5781516200059f888262000537565b9750620005ac8362000551565b92505060018101905062000588565b5085935050505092915050565b60006020820190508181036000830152620005e481846200055e565b905092915050565b6000819050919050565b6200060181620005ec565b81146200060d57600080fd5b50565b6000813590506200062181620005f6565b92915050565b60006020828403121562000640576200063f6200028f565b5b6000620006508482850162000610565b91505092915050565b620006648162000512565b82525050565b600060208201905062000681600083018462000659565b92915050565b600081519050919050565b600082825260208201905092915050565b60005b83811015620006c3578082015181840152602081019050620006a6565b60008484015250505050565b6000620006dc8262000687565b620006e8818562000692565b9350620006fa818560208601620006a3565b6200070581620002a3565b840191505092915050565b600060408201905081810360008301526200072c8185620006cf565b90508181036020830152620007428184620006cf565b90509392505050565b60006200075882620004ac565b9050919050565b6200076a816200074b565b82525050565b60006060820190506200078760008301866200075f565b81810360208301526200079b8185620006cf565b90508181036040830152620007b18184620006cf565b905094935050505056fe60806040523480156200001157600080fd5b5060405162001ca838038062001ca88339818101604052810190620000379190620002e8565b818181600390816200004a9190620005b8565b5080600490816200005c9190620005b8565b5050506200007f620000736200008760201b60201c565b6200008f60201b60201c565b50506200069f565b600033905090565b6000600560009054906101000a900473ffffffffffffffffffffffffffffffffffffffff16905081600560006101000a81548173ffffffffffffffffffffffffffffffffffffffff021916908373ffffffffffffffffffffffffffffffffffffffff1602179055508173ffffffffffffffffffffffffffffffffffffffff168173ffffffffffffffffffffffffffffffffffffffff167f8be0079c531659141344cd1fd0a4f28419497f9722a3daafe3b4186f6b6457e060405160405180910390a35050565b6000604051905090565b600080fd5b600080fd5b600080fd5b600080fd5b6000601f19601f8301169050919050565b7f4e487b7100000000000000000000000000000000000000000000000000000000600052604160045260246000fd5b620001be8262000173565b810181811067ffffffffffffffff82111715620001e057620001df62000184565b5b80604052505050565b6000620001f562000155565b9050620002038282620001b3565b919050565b600067ffffffffffffffff82111562000226576200022562000184565b5b620002318262000173565b9050602081019050919050565b60005b838110156200025e57808201518184015260208101905062000241565b60008484015250505050565b6000620002816200027b8462000208565b620001e9565b905082815260208101848484011115620002a0576200029f6200016e565b5b620002ad8482856200023e565b509392505050565b600082601f830112620002cd57620002cc62000169565b5b8151620002df8482602086016200026a565b91505092915050565b600080604083850312156200030257620003016200015f565b5b600083015167ffffffffffffffff81111562000323576200032262000164565b5b6200033185828601620002b5565b925050602083015167ffffffffffffffff81111562000355576200035462000164565b5b6200036385828601620002b5565b9150509250929050565b600081519050919050565b7f4e487b7100000000000000000000000000000000000000000000000000000000600052602260045260246000fd5b60006002820490506001821680620003c057607f821691505b602082108103620003d657620003d562000378565b5b50919050565b60008190508160005260206000209050919050565b60006020601f8301049050919050565b600082821b905092915050565b600060088302620004407fffffffffffffffffffffffffffffffffffffffffffffffffffffffffffffffff8262000401565b6200044c868362000401565b95508019841693508086168417925050509392505050565b6000819050919050565b6000819050919050565b600062000499620004936200048d8462000464565b6200046e565b62000464565b9050919050565b6000819050919050565b620004b58362000478565b620004cd620004c482620004a0565b8484546200040e565b825550505050565b600090565b620004e4620004d5565b620004f1818484620004aa565b505050565b5b8181101562000519576200050d600082620004da565b600181019050620004f7565b5050565b601f82111562000568576200053281620003dc565b6200053d84620003f1565b810160208510156200054d578190505b620005656200055c85620003f1565b830182620004f6565b50505b505050565b600082821c905092915050565b60006200058d600019846008026200056d565b1980831691505092915050565b6000620005a883836200057a565b9150826002028217905092915050565b620005c3826200036d565b67ffffffffffffffff811115620005df57620005de62000184565b5b620005eb8254620003a7565b620005f88282856200051d565b600060209050601f8311600181146200063057600084156200061b578287015190505b6200062785826200059a565b86555062000697565b601f1984166200064086620003dc565b60005b828110156200066a5784890151825560018201915060208501945060208101905062000643565b868310156200068a578489015162000686601f8916826200057a565b8355505b6001600288020188555050505b505050505050565b6115f980620006af6000396000f3fe608060405234801561001057600080fd5b50600436106101005760003560e01c8063715018a611610097578063a457c2d711610066578063a457c2d71461029d578063a9059cbb146102cd578063dd62ed3e146102fd578063f2fde38b1461032d57610100565b8063715018a61461023b57806388bb45bb146102455780638da5cb5b1461026157806395d89b411461027f57610100565b8063313ce567116100d3578063313ce567146101a157806339509351146101bf57806340c10f19146101ef57806370a082311461020b57610100565b806306fdde0314610105578063095ea7b31461012357806318160ddd1461015357806323b872dd14610171575b600080fd5b61010d610349565b60405161011a9190610dfa565b60405180910390f35b61013d60048036038101906101389190610eb5565b6103db565b60405161014a9190610f10565b60405180910390f35b61015b6103fe565b6040516101689190610f3a565b60405180910390f35b61018b60048036038101906101869190610f55565b610408565b6040516101989190610f10565b60405180910390f35b6101a9610437565b6040516101b69190610fc4565b60405180910390f35b6101d960048036038101906101d49190610eb5565b610440565b6040516101e69190610f10565b60405180910390f35b61020960048036038101906102049190610eb5565b610477565b005b61022560048036038101906102209190610fdf565b610515565b6040516102329190610f3a565b60405180910390f35b61024361055d565b005b61025f600480360381019061025a9190610fdf565b610571565b005b6102696105c5565b604051610276919061101b565b60405180910390f35b6102876105ef565b6040516102949190610dfa565b60405180910390f35b6102b760048036038101906102b29190610eb5565b610681565b6040516102c49190610f10565b60405180910390f35b6102e760048036038101906102e29190610eb5565b6106f8565b6040516102f49190610f10565b60405180910390f35b61031760048036038101906103129190611036565b61071b565b6040516103249190610f3a565b60405180910390f35b61034760048036038101906103429190610fdf565b6107a2565b005b606060038054610358906110a5565b80601f0160208091040260200160405190810160405280929190818152602001828054610384906110a5565b80156103d15780601f106103a6576101008083540402835291602001916103d1565b820191906000526020600020905b8154815290600101906020018083116103b457829003601f168201915b5050505050905090565b6000806103e6610825565b90506103f381858561082d565b600191505092915050565b6000600254905090565b600080610413610825565b90506104208582856109f6565b61042b858585610a82565b60019150509392505050565b60006012905090565b60008061044b610825565b905061046c81858561045d858961071b565b6104679190611105565b61082d565b600191505092915050565b600660009054906101000a900473ffffffffffffffffffffffffffffffffffffffff1673ffffffffffffffffffffffffffffffffffffffff163373ffffffffffffffffffffffffffffffffffffffff1614610507576040517f08c379a00000000000000000000000000000000000000000000000000000000081526004016104fe906111ab565b60405180910390fd5b6105118282610abd565b5050565b60008060008373ffffffffffffffffffffffffffffffffffffffff1673ffffffffffffffffffffffffffffffffffffffff168152602001908152602001600020549050919050565b610565610c1c565b61056f6000610c9a565b565b610579610c1c565b80600660006101000a81548173ffffffffffffffffffffffffffffffffffffffff021916908373ffffffffffffffffffffffffffffffffffffffff1602179055506105c261055d565b50565b6000600560009054906101000a900473ffffffffffffffffffffffffffffffffffffffff16905090565b6060600480546105fe906110a5565b80601f016020809104026020016040519081016040528092919081815260200182805461062a906110a5565b80156106775780601f1061064c57610100808354040283529160200191610677565b820191906000526020600020905b81548152906001019060200180831161065a57829003601f168201915b5050505050905090565b60008061068c610825565b9050600061069a828661071b565b9050838110156106df576040517f08c379a00000000000000000000000000000000000000000000000000000000081526004016106d69061123d565b60405180910390fd5b6106ec828686840361082d565b60019250505092915050565b600080610703610825565b9050610710818585610a82565b600191505092915050565b6000600160008473ffffffffffffffffffffffffffffffffffffffff1673ffffffffffffffffffffffffffffffffffffffff16815260200190815260200160002060008373ffffffffffffffffffffffffffffffffffffffff1673ffffffffffffffffffffffffffffffffffffffff16815260200190815260200160002054905092915050565b6107aa610c1c565b600073ffffffffffffffffffffffffffffffffffffffff168173ffffffffffffffffffffffffffffffffffffffff1603610819576040517f08c379a0000000000000000000000000000000000000000000000000000000008152600401610810906112cf565b60405180910390fd5b61082281610c9a565b50565b600033905090565b600073ffffffffffffffffffffffffffffffffffffffff168373ffffffffffffffffffffffffffffffffffffffff160361089c576040517f08c379a000000000000000000000000000000000000000000000000000000000815260040161089390611361565b60405180910390fd5b600073ffffffffffffffffffffffffffffffffffffffff168273ffffffffffffffffffffffffffffffffffffffff160361090b576040517f08c379a0000000000000000000000000000000000000000000000000000000008152600401610902906113f3565b60405180910390fd5b80600160008573ffffffffffffffffffffffffffffffffffffffff1673ffffffffffffffffffffffffffffffffffffffff16815260200190815260200160002060008473ffffffffffffffffffffffffffffffffffffffff1673ffffffffffffffffffffffffffffffffffffffff168152602001908152602001600020819055508173ffffffffffffffffffffffffffffffffffffffff168373ffffffffffffffffffffffffffffffffffffffff167f8c5be1e5ebec7d5bd14f71427d1e84f3dd0314c0f7b2291e5b200ac8c7c3b925836040516109e99190610f3a565b60405180910390a3505050565b6000610a02848461071b565b90507fffffffffffffffffffffffffffffffffffffffffffffffffffffffffffffffff8114610a7c5781811015610a6e576040517f08c379a0000000000000000000000000000000000000000000000000000000008152600401610a659061145f565b60405180910390fd5b610a7b848484840361082d565b5b50505050565b6040517f08c379a0000000000000000000000000000000000000000000000000000000008152600401610ab4906114cb565b60405180910390fd5b600073ffffffffffffffffffffffffffffffffffffffff168273ffffffffffffffffffffffffffffffffffffffff1603610b2c576040517f08c379a0000000000000000000000000000000000000000000000000000000008152600401610b2390611537565b60405180910390fd5b610b3860008383610d60565b8060026000828254610b4a9190611105565b92505081905550806000808473ffffffffffffffffffffffffffffffffffffffff1673ffffffffffffffffffffffffffffffffffffffff1681526020019081526020016000206000828254610b9f9190611105565b925050819055508173ffffffffffffffffffffffffffffffffffffffff16600073ffffffffffffffffffffffffffffffffffffffff167fddf252ad1be2c89b69c2b068fc378daa952ba7f163c4a11628f55a4df523b3ef83604051610c049190610f3a565b60405180910390a3610c1860008383610d65565b5050565b610c24610825565b73ffffffffffffffffffffffffffffffffffffffff16610c426105c5565b73ffffffffffffffffffffffffffffffffffffffff1614610c98576040517f08c379a0000000000000000000000000000000000000000000000000000000008152600401610c8f906115a3565b60405180910390fd5b565b6000600560009054906101000a900473ffffffffffffffffffffffffffffffffffffffff16905081600560006101000a81548173ffffffffffffffffffffffffffffffffffffffff021916908373ffffffffffffffffffffffffffffffffffffffff1602179055508173ffffffffffffffffffffffffffffffffffffffff168173ffffffffffffffffffffffffffffffffffffffff167f8be0079c531659141344cd1fd0a4f28419497f9722a3daafe3b4186f6b6457e060405160405180910390a35050565b505050565b505050565b600081519050919050565b600082825260208201905092915050565b60005b83811015610da4578082015181840152602081019050610d89565b60008484015250505050565b6000601f19601f8301169050919050565b6000610dcc82610d6a565b610dd68185610d75565b9350610de6818560208601610d86565b610def81610db0565b840191505092915050565b60006020820190508181036000830152610e148184610dc1565b905092915050565b600080fd5b600073ffffffffffffffffffffffffffffffffffffffff82169050919050565b6000610e4c82610e21565b9050919050565b610e5c81610e41565b8114610e6757600080fd5b50565b600081359050610e7981610e53565b92915050565b6000819050919050565b610e9281610e7f565b8114610e9d57600080fd5b50565b600081359050610eaf81610e89565b92915050565b60008060408385031215610ecc57610ecb610e1c565b5b6000610eda85828601610e6a565b9250506020610eeb85828601610ea0565b9150509250929050565b60008115159050919050565b610f0a81610ef5565b82525050565b6000602082019050610f256000830184610f01565b92915050565b610f3481610e7f565b82525050565b6000602082019050610f4f6000830184610f2b565b92915050565b600080600060608486031215610f6e57610f6d610e1c565b5b6000610f7c86828701610e6a565b9350506020610f8d86828701610e6a565b9250506040610f9e86828701610ea0565b9150509250925092565b600060ff82169050919050565b610fbe81610fa8565b82525050565b6000602082019050610fd96000830184610fb5565b92915050565b600060208284031215610ff557610ff4610e1c565b5b600061100384828501610e6a565b91505092915050565b61101581610e41565b82525050565b6000602082019050611030600083018461100c565b92915050565b6000806040838503121561104d5761104c610e1c565b5b600061105b85828601610e6a565b925050602061106c85828601610e6a565b9150509250929050565b7f4e487b7100000000000000000000000000000000000000000000000000000000600052602260045260246000fd5b600060028204905060018216806110bd57607f821691505b6020821081036110d0576110cf611076565b5b50919050565b7f4e487b7100000000000000000000000000000000000000000000000000000000600052601160045260246000fd5b600061111082610e7f565b915061111b83610e7f565b9250828201905080821115611133576111326110d6565b5b92915050565b7f4f6e6c7920746865207461736b206d616e616765722063616e2063616c6c207460008201527f6869732066756e6374696f6e2e00000000000000000000000000000000000000602082015250565b6000611195602d83610d75565b91506111a082611139565b604082019050919050565b600060208201905081810360008301526111c481611188565b9050919050565b7f45524332303a2064656372656173656420616c6c6f77616e63652062656c6f7760008201527f207a65726f000000000000000000000000000000000000000000000000000000602082015250565b6000611227602583610d75565b9150611232826111cb565b604082019050919050565b600060208201905081810360008301526112568161121a565b9050919050565b7f4f776e61626c653a206e6577206f776e657220697320746865207a65726f206160008201527f6464726573730000000000000000000000000000000000000000000000000000602082015250565b60006112b9602683610d75565b91506112c48261125d565b604082019050919050565b600060208201905081810360008301526112e8816112ac565b9050919050565b7f45524332303a20617070726f76652066726f6d20746865207a65726f2061646460008201527f7265737300000000000000000000000000000000000000000000000000000000602082015250565b600061134b602483610d75565b9150611356826112ef565b604082019050919050565b6000602082019050818103600083015261137a8161133e565b9050919050565b7f45524332303a20617070726f766520746f20746865207a65726f20616464726560008201527f7373000000000000000000000000000000000000000000000000000000000000602082015250565b60006113dd602283610d75565b91506113e882611381565b604082019050919050565b6000602082019050818103600083015261140c816113d0565b9050919050565b7f45524332303a20696e73756666696369656e7420616c6c6f77616e6365000000600082015250565b6000611449601d83610d75565b915061145482611413565b602082019050919050565b600060208201905081810360008301526114788161143c565b9050919050565b7f5472616e7366657273206172652064697361626c65642e000000000000000000600082015250565b60006114b5601783610d75565b91506114c08261147f565b602082019050919050565b600060208201905081810360008301526114e4816114a8565b9050919050565b7f45524332303a206d696e7420746f20746865207a65726f206164647265737300600082015250565b6000611521601f83610d75565b915061152c826114eb565b602082019050919050565b6000602082019050818103600083015261155081611514565b9050919050565b7f4f776e61626c653a2063616c6c6572206973206e6f7420746865206f776e6572600082015250565b600061158d602083610d75565b915061159882611557565b602082019050919050565b600060208201905081810360008301526115bc81611580565b905091905056fea2646970667358221220522f6e5baac0fa0134a0e8217bc39d0c5df6aeaeb1f74f823645f93dc17f27c864736f6c63430008140033a264697066735822122049d5e02ea14c7c4cd48cdcbdf6357eeb023cecf16c78eea7a047fc7d8c7cd2e964736f6c63430008140033",
  "linkReferences": {},
  "deployedLinkReferences": {}
}