{
  "_format": "hh-sol-artifact-1",
  "contractName": "ParticipationVoting",
  "sourceName": "contracts/ParticipationVoting.sol",
  "abi": [
    {
      "inputs": [
        {
          "internalType": "address",
          "name": "_ParticipationToken",
          "type": "address"
        },
        {
          "internalType": "address",
          "name": "_nftMembership",
          "type": "address"
        },
        {
          "internalType": "string[]",
          "name": "_allowedRoleNames",
          "type": "string[]"
        },
        {
          "internalType": "bool",
          "name": "_quadraticVotingEnabled",
          "type": "bool"
        },
        {
          "internalType": "address",
          "name": "_treasuryAddress",
          "type": "address"
        }
      ],
      "stateMutability": "nonpayable",
      "type": "constructor"
    },
    {
      "anonymous": false,
      "inputs": [
        {
          "indexed": true,
          "internalType": "uint256",
          "name": "proposalId",
          "type": "uint256"
        },
        {
          "indexed": false,
          "internalType": "string",
          "name": "name",
          "type": "string"
        },
        {
          "indexed": false,
          "internalType": "string",
          "name": "description",
          "type": "string"
        },
        {
          "indexed": false,
          "internalType": "uint256",
          "name": "timeInMinutes",
          "type": "uint256"
        },
        {
          "indexed": false,
          "internalType": "uint256",
          "name": "creationTimestamp",
          "type": "uint256"
        },
        {
          "indexed": false,
          "internalType": "uint256",
          "name": "transferTriggerOptionIndex",
          "type": "uint256"
        },
        {
          "indexed": false,
          "internalType": "address",
          "name": "transferRecipient",
          "type": "address"
        },
        {
          "indexed": false,
          "internalType": "uint256",
          "name": "transferAmount",
          "type": "uint256"
        },
        {
          "indexed": false,
          "internalType": "bool",
          "name": "transferEnabled",
          "type": "bool"
        }
      ],
      "name": "NewProposal",
      "type": "event"
    },
    {
      "anonymous": false,
      "inputs": [
        {
          "indexed": true,
          "internalType": "uint256",
          "name": "proposalId",
          "type": "uint256"
        },
        {
          "indexed": true,
          "internalType": "uint256",
          "name": "optionIndex",
          "type": "uint256"
        },
        {
          "indexed": false,
          "internalType": "string",
          "name": "name",
          "type": "string"
        }
      ],
      "name": "PollOptionNames",
      "type": "event"
    },
    {
      "anonymous": false,
      "inputs": [
        {
          "indexed": true,
          "internalType": "uint256",
          "name": "proposalId",
          "type": "uint256"
        },
        {
          "indexed": true,
          "internalType": "address",
          "name": "voter",
          "type": "address"
        },
        {
          "indexed": false,
          "internalType": "uint256",
          "name": "optionIndex",
          "type": "uint256"
        },
        {
          "indexed": false,
          "internalType": "uint256",
          "name": "voteWeight",
          "type": "uint256"
        }
      ],
      "name": "Voted",
      "type": "event"
    },
    {
      "anonymous": false,
      "inputs": [
        {
          "indexed": true,
          "internalType": "uint256",
          "name": "proposalId",
          "type": "uint256"
        },
        {
          "indexed": false,
          "internalType": "uint256",
          "name": "winningOptionIndex",
          "type": "uint256"
        }
      ],
      "name": "WinnerAnnounced",
      "type": "event"
    },
    {
      "inputs": [],
      "name": "ParticipationToken",
      "outputs": [
        {
          "internalType": "contract IERC20",
          "name": "",
          "type": "address"
        }
      ],
      "stateMutability": "view",
      "type": "function"
    },
    {
      "inputs": [
        {
          "internalType": "uint256",
          "name": "_proposalId",
          "type": "uint256"
        }
      ],
      "name": "announceWinner",
      "outputs": [],
      "stateMutability": "nonpayable",
      "type": "function"
    },
    {
      "inputs": [
        {
          "internalType": "string",
          "name": "_name",
          "type": "string"
        },
        {
          "internalType": "string",
          "name": "_description",
          "type": "string"
        },
        {
          "internalType": "uint256",
          "name": "_timeInMinutes",
          "type": "uint256"
        },
        {
          "internalType": "string[]",
          "name": "_optionNames",
          "type": "string[]"
        },
        {
          "internalType": "uint256",
          "name": "_transferTriggerOptionIndex",
          "type": "uint256"
        },
        {
          "internalType": "address payable",
          "name": "_transferRecipient",
          "type": "address"
        },
        {
          "internalType": "uint256",
          "name": "_transferAmount",
          "type": "uint256"
        },
        {
          "internalType": "bool",
          "name": "_transferEnabled",
          "type": "bool"
        }
      ],
      "name": "createProposal",
      "outputs": [],
      "stateMutability": "nonpayable",
      "type": "function"
    },
    {
      "inputs": [
        {
          "internalType": "uint256",
          "name": "_proposalId",
          "type": "uint256"
        },
        {
          "internalType": "uint256",
          "name": "_optionIndex",
          "type": "uint256"
        }
      ],
      "name": "getOptionVotes",
      "outputs": [
        {
          "internalType": "uint256",
          "name": "votes",
          "type": "uint256"
        }
      ],
      "stateMutability": "view",
      "type": "function"
    },
    {
      "inputs": [
        {
          "internalType": "uint256",
          "name": "_proposalId",
          "type": "uint256"
        }
      ],
      "name": "getOptionsCount",
      "outputs": [
        {
          "internalType": "uint256",
          "name": "",
          "type": "uint256"
        }
      ],
      "stateMutability": "view",
      "type": "function"
    },
    {
      "inputs": [],
      "name": "nftMembership",
      "outputs": [
        {
          "internalType": "contract INFTMembership",
          "name": "",
          "type": "address"
        }
      ],
      "stateMutability": "view",
      "type": "function"
    },
    {
      "inputs": [],
      "name": "quadraticVotingEnabled",
      "outputs": [
        {
          "internalType": "bool",
          "name": "",
          "type": "bool"
        }
      ],
      "stateMutability": "view",
      "type": "function"
    },
    {
      "inputs": [],
      "name": "treasury",
      "outputs": [
        {
          "internalType": "contract ITreasury",
          "name": "",
          "type": "address"
        }
      ],
      "stateMutability": "view",
      "type": "function"
    },
    {
      "inputs": [
        {
          "internalType": "uint256",
          "name": "_proposalId",
          "type": "uint256"
        },
        {
          "internalType": "address",
          "name": "_voter",
          "type": "address"
        },
        {
          "internalType": "uint256",
          "name": "_optionIndex",
          "type": "uint256"
        }
      ],
      "name": "vote",
      "outputs": [],
      "stateMutability": "nonpayable",
      "type": "function"
    }
  ],
  "bytecode": "0x60806040523480156200001157600080fd5b50604051620023ce380380620023ce8339818101604052810190620000379190620004c9565b846000806101000a81548173ffffffffffffffffffffffffffffffffffffffff021916908373ffffffffffffffffffffffffffffffffffffffff16021790555083600160006101000a81548173ffffffffffffffffffffffffffffffffffffffff021916908373ffffffffffffffffffffffffffffffffffffffff16021790555080600260006101000a81548173ffffffffffffffffffffffffffffffffffffffff021916908373ffffffffffffffffffffffffffffffffffffffff16021790555060005b835181101562000172576001600485838151811062000120576200011f62000570565b5b6020026020010151604051620001379190620005ec565b908152602001604051809103902060006101000a81548160ff021916908315150217905550808062000169906200063e565b915050620000fc565b5081600560006101000a81548160ff02191690831515021790555050505050506200068b565b6000604051905090565b600080fd5b600080fd5b600073ffffffffffffffffffffffffffffffffffffffff82169050919050565b6000620001d982620001ac565b9050919050565b620001eb81620001cc565b8114620001f757600080fd5b50565b6000815190506200020b81620001e0565b92915050565b600080fd5b6000601f19601f8301169050919050565b7f4e487b7100000000000000000000000000000000000000000000000000000000600052604160045260246000fd5b620002618262000216565b810181811067ffffffffffffffff8211171562000283576200028262000227565b5b80604052505050565b60006200029862000198565b9050620002a6828262000256565b919050565b600067ffffffffffffffff821115620002c957620002c862000227565b5b602082029050602081019050919050565b600080fd5b600080fd5b600067ffffffffffffffff82111562000302576200030162000227565b5b6200030d8262000216565b9050602081019050919050565b60005b838110156200033a5780820151818401526020810190506200031d565b60008484015250505050565b60006200035d6200035784620002e4565b6200028c565b9050828152602081018484840111156200037c576200037b620002df565b5b620003898482856200031a565b509392505050565b600082601f830112620003a957620003a862000211565b5b8151620003bb84826020860162000346565b91505092915050565b6000620003db620003d584620002ab565b6200028c565b90508083825260208201905060208402830185811115620004015762000400620002da565b5b835b818110156200044f57805167ffffffffffffffff8111156200042a576200042962000211565b5b80860162000439898262000391565b8552602085019450505060208101905062000403565b5050509392505050565b600082601f83011262000471576200047062000211565b5b815162000483848260208601620003c4565b91505092915050565b60008115159050919050565b620004a3816200048c565b8114620004af57600080fd5b50565b600081519050620004c38162000498565b92915050565b600080600080600060a08688031215620004e857620004e7620001a2565b5b6000620004f888828901620001fa565b95505060206200050b88828901620001fa565b945050604086015167ffffffffffffffff8111156200052f576200052e620001a7565b5b6200053d8882890162000459565b93505060606200055088828901620004b2565b92505060806200056388828901620001fa565b9150509295509295909350565b7f4e487b7100000000000000000000000000000000000000000000000000000000600052603260045260246000fd5b600081519050919050565b600081905092915050565b6000620005c2826200059f565b620005ce8185620005aa565b9350620005e08185602086016200031a565b80840191505092915050565b6000620005fa8284620005b5565b915081905092915050565b7f4e487b7100000000000000000000000000000000000000000000000000000000600052601160045260246000fd5b6000819050919050565b60006200064b8262000634565b91507fffffffffffffffffffffffffffffffffffffffffffffffffffffffffffffffff820362000680576200067f62000605565b5b600182019050919050565b611d33806200069b6000396000f3fe608060405234801561001057600080fd5b50600436106100935760003560e01c80637221252a116100665780637221252a1461011e578063a2b2b4d41461013c578063e7ea088f1461015a578063f64fca1e1461018a578063fdbbcbc2146101a857610093565b80633a6e157b146100985780634de8737c146100b4578063517a6257146100d057806361d027b314610100575b600080fd5b6100b260048036038101906100ad9190610efd565b6101c4565b005b6100ce60048036038101906100c99190610f88565b6104a9565b005b6100ea60048036038101906100e59190610efd565b610889565b6040516100f79190610fea565b60405180910390f35b610108610908565b6040516101159190611064565b60405180910390f35b61012661092e565b60405161013391906110a0565b60405180910390f35b610144610952565b60405161015191906110dc565b60405180910390f35b610174600480360381019061016f91906110f7565b610978565b6040516101819190610fea565b60405180910390f35b610192610a5d565b60405161019f9190611152565b60405180910390f35b6101c260048036038101906101bd9190611403565b610a70565b005b80600380549050811061020c576040517f08c379a00000000000000000000000000000000000000000000000000000000081526004016102039061156a565b60405180910390fd5b6000600382815481106102225761022161158a565b5b90600052602060002090600902019050603c816002015461024391906115e8565b8160030154610252919061162a565b4211610293576040517f08c379a000000000000000000000000000000000000000000000000000000000815260040161028a906116aa565b60405180910390fd5b60038054905083106102da576040517f08c379a00000000000000000000000000000000000000000000000000000000081526004016102d19061156a565b60405180910390fd5b60006102e584610d52565b9050600384815481106102fb576102fa61158a565b5b906000526020600020906009020160080160009054906101000a900460ff16801561034a5750600384815481106103355761033461158a565b5b90600052602060002090600902016005015481145b1561046b57600260009054906101000a900473ffffffffffffffffffffffffffffffffffffffff1673ffffffffffffffffffffffffffffffffffffffff1663e6d66ac860008054906101000a900473ffffffffffffffffffffffffffffffffffffffff16600387815481106103c2576103c161158a565b5b906000526020600020906009020160060160009054906101000a900473ffffffffffffffffffffffffffffffffffffffff16600388815481106104085761040761158a565b5b9060005260206000209060090201600701546040518463ffffffff1660e01b8152600401610438939291906116fa565b600060405180830381600087803b15801561045257600080fd5b505af1158015610466573d6000803e3d6000fd5b505050505b837f50e0ee70ebbb985b1aeb034bbf712119ad5ed3e707f7b33cd8e00694b0c2550c8260405161049b9190610fea565b60405180910390a250505050565b8260038054905081106104f1576040517f08c379a00000000000000000000000000000000000000000000000000000000081526004016104e89061156a565b60405180910390fd5b6000600382815481106105075761050661158a565b5b90600052602060002090600902019050603c816002015461052891906115e8565b8160030154610537919061162a565b421115610579576040517f08c379a00000000000000000000000000000000000000000000000000000000081526004016105709061177d565b60405180910390fd5b60008060009054906101000a900473ffffffffffffffffffffffffffffffffffffffff1673ffffffffffffffffffffffffffffffffffffffff166370a08231866040518263ffffffff1660e01b81526004016105d5919061179d565b602060405180830381865afa1580156105f2573d6000803e3d6000fd5b505050506040513d601f19601f8201168201806040525081019061061691906117cd565b90506000811161065b576040517f08c379a000000000000000000000000000000000000000000000000000000000815260040161065290611846565b60405180910390fd5b60038054905086106106a2576040517f08c379a00000000000000000000000000000000000000000000000000000000081526004016106999061156a565b60405180910390fd5b6000600387815481106106b8576106b761158a565b5b906000526020600020906009020190508060010160008773ffffffffffffffffffffffffffffffffffffffff1673ffffffffffffffffffffffffffffffffffffffff16815260200190815260200160002060009054906101000a900460ff1615610757576040517f08c379a000000000000000000000000000000000000000000000000000000000815260040161074e906118b2565b60405180910390fd5b6000600560009054906101000a900460ff16610773578261077d565b61077c83610e44565b5b905060018260010160008973ffffffffffffffffffffffffffffffffffffffff1673ffffffffffffffffffffffffffffffffffffffff16815260200190815260200160002060006101000a81548160ff021916908315150217905550808260000160008282546107ed919061162a565b925050819055508082600401878154811061080b5761080a61158a565b5b906000526020600020016000016000828254610827919061162a565b925050819055508673ffffffffffffffffffffffffffffffffffffffff16887fb4c54afd73915f9f756c8dee39fe0b311937871a92261a47747f7a3d32f63a0c88846040516108779291906118d2565b60405180910390a35050505050505050565b600060038054905082106108d2576040517f08c379a00000000000000000000000000000000000000000000000000000000081526004016108c99061156a565b60405180910390fd5b6000600383815481106108e8576108e761158a565b5b906000526020600020906009020190508060040180549050915050919050565b600260009054906101000a900473ffffffffffffffffffffffffffffffffffffffff1681565b60008054906101000a900473ffffffffffffffffffffffffffffffffffffffff1681565b600160009054906101000a900473ffffffffffffffffffffffffffffffffffffffff1681565b600060038054905083106109c1576040517f08c379a00000000000000000000000000000000000000000000000000000000081526004016109b89061156a565b60405180910390fd5b6000600384815481106109d7576109d661158a565b5b9060005260206000209060090201905080600401805490508310610a30576040517f08c379a0000000000000000000000000000000000000000000000000000000008152600401610a2790611947565b60405180910390fd5b806004018381548110610a4657610a4561158a565b5b906000526020600020016000015491505092915050565b600560009054906101000a900460ff1681565b6000600160009054906101000a900473ffffffffffffffffffffffffffffffffffffffff1673ffffffffffffffffffffffffffffffffffffffff166377782188336040518263ffffffff1660e01b8152600401610acd919061179d565b600060405180830381865afa158015610aea573d6000803e3d6000fd5b505050506040513d6000823e3d601f19601f82011682018060405250810190610b139190611a01565b9050600481604051610b259190611a91565b908152602001604051809103902060009054906101000a900460ff16610b80576040517f08c379a0000000000000000000000000000000000000000000000000000000008152600401610b7790611b1a565b60405180910390fd5b60006003600181600181540180825580915050039060005260206000209060090201905060008160000181905550878160020181905550428160030181905550858160050181905550848160060160006101000a81548173ffffffffffffffffffffffffffffffffffffffff021916908373ffffffffffffffffffffffffffffffffffffffff160217905550838160070181905550828160080160006101000a81548160ff02191690831515021790555060006001600380549050610c459190611b3a565b9050807ffb1330a17ffe898a019796942f0ab05b8d97f1e01c9d47ac01b2fe7b462c152b8c8c8c428c8c8c8c604051610c85989796959493929190611ba7565b60405180910390a260005b8851811015610d445782600401604051806020016040528060008152509080600181540180825580915050600190039060005260206000200160009091909190915060008201518160000155505080827fd3b5cef521b08344b2f3822456355f6c2603e7f00a271d0215ac4760a401fc488b8481518110610d1457610d1361158a565b5b6020026020010151604051610d299190611c33565b60405180910390a38080610d3c90611c55565b915050610c90565b505050505050505050505050565b60006003805490508210610d9b576040517f08c379a0000000000000000000000000000000000000000000000000000000008152600401610d929061156a565b60405180910390fd5b600060038381548110610db157610db061158a565b5b906000526020600020906009020190506000805b8260040180549050811015610e3c5781836004018281548110610deb57610dea61158a565b5b90600052602060002001600001541115610e2957826004018181548110610e1557610e1461158a565b5b906000526020600020016000015491508093505b8080610e3490611c55565b915050610dc5565b505050919050565b6000610e4f82610e56565b9050919050565b6000806002600184610e68919061162a565b610e729190611ccc565b90508291505b81811015610ead578091506002818285610e929190611ccc565b610e9c919061162a565b610ea69190611ccc565b9050610e78565b50919050565b6000604051905090565b600080fd5b600080fd5b6000819050919050565b610eda81610ec7565b8114610ee557600080fd5b50565b600081359050610ef781610ed1565b92915050565b600060208284031215610f1357610f12610ebd565b5b6000610f2184828501610ee8565b91505092915050565b600073ffffffffffffffffffffffffffffffffffffffff82169050919050565b6000610f5582610f2a565b9050919050565b610f6581610f4a565b8114610f7057600080fd5b50565b600081359050610f8281610f5c565b92915050565b600080600060608486031215610fa157610fa0610ebd565b5b6000610faf86828701610ee8565b9350506020610fc086828701610f73565b9250506040610fd186828701610ee8565b9150509250925092565b610fe481610ec7565b82525050565b6000602082019050610fff6000830184610fdb565b92915050565b6000819050919050565b600061102a61102561102084610f2a565b611005565b610f2a565b9050919050565b600061103c8261100f565b9050919050565b600061104e82611031565b9050919050565b61105e81611043565b82525050565b60006020820190506110796000830184611055565b92915050565b600061108a82611031565b9050919050565b61109a8161107f565b82525050565b60006020820190506110b56000830184611091565b92915050565b60006110c682611031565b9050919050565b6110d6816110bb565b82525050565b60006020820190506110f160008301846110cd565b92915050565b6000806040838503121561110e5761110d610ebd565b5b600061111c85828601610ee8565b925050602061112d85828601610ee8565b9150509250929050565b60008115159050919050565b61114c81611137565b82525050565b60006020820190506111676000830184611143565b92915050565b600080fd5b600080fd5b6000601f19601f8301169050919050565b7f4e487b7100000000000000000000000000000000000000000000000000000000600052604160045260246000fd5b6111c082611177565b810181811067ffffffffffffffff821117156111df576111de611188565b5b80604052505050565b60006111f2610eb3565b90506111fe82826111b7565b919050565b600067ffffffffffffffff82111561121e5761121d611188565b5b61122782611177565b9050602081019050919050565b82818337600083830152505050565b600061125661125184611203565b6111e8565b90508281526020810184848401111561127257611271611172565b5b61127d848285611234565b509392505050565b600082601f83011261129a5761129961116d565b5b81356112aa848260208601611243565b91505092915050565b600067ffffffffffffffff8211156112ce576112cd611188565b5b602082029050602081019050919050565b600080fd5b60006112f76112f2846112b3565b6111e8565b9050808382526020820190506020840283018581111561131a576113196112df565b5b835b8181101561136157803567ffffffffffffffff81111561133f5761133e61116d565b5b80860161134c8982611285565b8552602085019450505060208101905061131c565b5050509392505050565b600082601f8301126113805761137f61116d565b5b81356113908482602086016112e4565b91505092915050565b60006113a482610f2a565b9050919050565b6113b481611399565b81146113bf57600080fd5b50565b6000813590506113d1816113ab565b92915050565b6113e081611137565b81146113eb57600080fd5b50565b6000813590506113fd816113d7565b92915050565b600080600080600080600080610100898b03121561142457611423610ebd565b5b600089013567ffffffffffffffff81111561144257611441610ec2565b5b61144e8b828c01611285565b985050602089013567ffffffffffffffff81111561146f5761146e610ec2565b5b61147b8b828c01611285565b975050604061148c8b828c01610ee8565b965050606089013567ffffffffffffffff8111156114ad576114ac610ec2565b5b6114b98b828c0161136b565b95505060806114ca8b828c01610ee8565b94505060a06114db8b828c016113c2565b93505060c06114ec8b828c01610ee8565b92505060e06114fd8b828c016113ee565b9150509295985092959890939650565b600082825260208201905092915050565b7f496e76616c69642070726f706f73616c20494400000000000000000000000000600082015250565b600061155460138361150d565b915061155f8261151e565b602082019050919050565b6000602082019050818103600083015261158381611547565b9050919050565b7f4e487b7100000000000000000000000000000000000000000000000000000000600052603260045260246000fd5b7f4e487b7100000000000000000000000000000000000000000000000000000000600052601160045260246000fd5b60006115f382610ec7565b91506115fe83610ec7565b925082820261160c81610ec7565b91508282048414831517611623576116226115b9565b5b5092915050565b600061163582610ec7565b915061164083610ec7565b9250828201905080821115611658576116576115b9565b5b92915050565b7f566f74696e67206973206e6f742079657420636c6f7365640000000000000000600082015250565b600061169460188361150d565b915061169f8261165e565b602082019050919050565b600060208201905081810360008301526116c381611687565b9050919050565b6116d381610f4a565b82525050565b60006116e482611031565b9050919050565b6116f4816116d9565b82525050565b600060608201905061170f60008301866116ca565b61171c60208301856116eb565b6117296040830184610fdb565b949350505050565b7f566f74696e672074696d65206578706972656400000000000000000000000000600082015250565b600061176760138361150d565b915061177282611731565b602082019050919050565b600060208201905081810360008301526117968161175a565b9050919050565b60006020820190506117b260008301846116ca565b92915050565b6000815190506117c781610ed1565b92915050565b6000602082840312156117e3576117e2610ebd565b5b60006117f1848285016117b8565b91505092915050565b7f4e6f2070617274696369706174696f6e20746f6b656e73000000000000000000600082015250565b600061183060178361150d565b915061183b826117fa565b602082019050919050565b6000602082019050818103600083015261185f81611823565b9050919050565b7f416c726561647920766f74656400000000000000000000000000000000000000600082015250565b600061189c600d8361150d565b91506118a782611866565b602082019050919050565b600060208201905081810360008301526118cb8161188f565b9050919050565b60006040820190506118e76000830185610fdb565b6118f46020830184610fdb565b9392505050565b7f496e76616c6964206f7074696f6e20696e646578000000000000000000000000600082015250565b600061193160148361150d565b915061193c826118fb565b602082019050919050565b6000602082019050818103600083015261196081611924565b9050919050565b60005b8381101561198557808201518184015260208101905061196a565b60008484015250505050565b60006119a461199f84611203565b6111e8565b9050828152602081018484840111156119c0576119bf611172565b5b6119cb848285611967565b509392505050565b600082601f8301126119e8576119e761116d565b5b81516119f8848260208601611991565b91505092915050565b600060208284031215611a1757611a16610ebd565b5b600082015167ffffffffffffffff811115611a3557611a34610ec2565b5b611a41848285016119d3565b91505092915050565b600081519050919050565b600081905092915050565b6000611a6b82611a4a565b611a758185611a55565b9350611a85818560208601611967565b80840191505092915050565b6000611a9d8284611a60565b915081905092915050565b7f4e6f7420617574686f72697a656420746f206372656174652070726f706f736160008201527f6c00000000000000000000000000000000000000000000000000000000000000602082015250565b6000611b0460218361150d565b9150611b0f82611aa8565b604082019050919050565b60006020820190508181036000830152611b3381611af7565b9050919050565b6000611b4582610ec7565b9150611b5083610ec7565b9250828203905081811115611b6857611b676115b9565b5b92915050565b6000611b7982611a4a565b611b83818561150d565b9350611b93818560208601611967565b611b9c81611177565b840191505092915050565b6000610100820190508181036000830152611bc2818b611b6e565b90508181036020830152611bd6818a611b6e565b9050611be56040830189610fdb565b611bf26060830188610fdb565b611bff6080830187610fdb565b611c0c60a08301866116eb565b611c1960c0830185610fdb565b611c2660e0830184611143565b9998505050505050505050565b60006020820190508181036000830152611c4d8184611b6e565b905092915050565b6000611c6082610ec7565b91507fffffffffffffffffffffffffffffffffffffffffffffffffffffffffffffffff8203611c9257611c916115b9565b5b600182019050919050565b7f4e487b7100000000000000000000000000000000000000000000000000000000600052601260045260246000fd5b6000611cd782610ec7565b9150611ce283610ec7565b925082611cf257611cf1611c9d565b5b82820490509291505056fea2646970667358221220c8fbfef46eb01ea91109d096cd60354ebc916982d0c565eece0ce33768a469c964736f6c63430008140033",
  "linkReferences": {},
  "deployedLinkReferences": {}
}