{"abi":[{"type":"function","name":"createParticipationVoting","inputs":[{"name":"_ParticipationToken","type":"address","internalType":"address"},{"name":"_nftMembership","type":"address","internalType":"address"},{"name":"_allowedRoleNames","type":"string[]","internalType":"string[]"},{"name":"_quadraticVotingEnabled","type":"bool","internalType":"bool"},{"name":"_treasuryAddress","type":"address","internalType":"address"},{"name":"POname","type":"string","internalType":"string"},{"name":"_quorumPercentage","type":"uint256","internalType":"uint256"}],"outputs":[{"name":"","type":"address","internalType":"address"}],"stateMutability":"nonpayable"},{"type":"event","name":"VotingContractCreated","inputs":[{"name":"votingContractAddress","type":"address","indexed":true,"internalType":"address"},{"name":"POname","type":"string","indexed":false,"internalType":"string"},{"name":"quorumPercentage","type":"uint256","indexed":false,"internalType":"uint256"}],"anonymous":false}],"bytecode":{"object":"0x608080604052346015576115a1908161001b8239f35b600080fdfe6080604052600436101561001257600080fd5b60003560e01c63907134251461002757600080fd5b346102315760e0366003190112610231576004356001600160a01b03811690819003610231576024356001600160a01b03811691908290036102315760443567ffffffffffffffff8111610231573660238201121561023157806004013567ffffffffffffffff811161021b578060051b9160206100a6818501610266565b80938152019060248294820101903682116102315760248101925b828410610236575050505060643591821515809303610231576084356001600160a01b038116908190036102315760a43567ffffffffffffffff81116102315761010f90369060040161028c565b9360c435956040519461124b9889870199878b1067ffffffffffffffff8c111761021b57610321883960c08a01928a5260208a015260c060408a01525180915260e088019060e08160051b8a010194916000905b8282106101ef57505050506060870152608086015260a08501849052819003906000f09182156101e357604080518181526020946001600160a01b03169384937f0cc4abe16d987e2f9ccb682e4db4594f197f903bf21662eba90e5a3ff51ba6d69383926101d3918401906102df565b90878301520390a2604051908152f35b6040513d6000823e3d90fd5b9091929560208061020d6001938e60df199082030186528a516102df565b980192019201909291610163565b634e487b7160e01b600052604160045260246000fd5b600080fd5b833567ffffffffffffffff81116102315760209161025b83926024369187010161028c565b8152019301926100c1565b6040519190601f01601f1916820167ffffffffffffffff81118382101761021b57604052565b81601f820112156102315780359067ffffffffffffffff821161021b576102bc601f8301601f1916602001610266565b928284526020838301011161023157816000926020809301838601378301015290565b919082519283825260005b84811061030b575050826000602080949584010152601f8019910116010190565b806020809284010151828286010152016102ea56fe60806040523461016d5761124b80380380610019816101fc565b92833981019060c08183031261016d5761003281610221565b9061003f60208201610221565b60408201516001600160401b03811161016d5782019380601f8601121561016d578451946001600160401b0386116101e6578560051b916020806100848186016101fc565b8099815201938301019181831161016d5760208101935b83851061017257505050505060608201519283151580940361016d5760a06100c560808501610221565b930151600355600080546001600160a01b03199081166001600160a01b039384161782556001805482169484169490941790935560028054909316919093161790555b825181101561014f576001906101356020808360051b870101518160405193828580945193849201610235565b810160058152030190208260ff1982541617905501610108565b5060ff801960065416911617600655604051610ff290816102598239f35b600080fd5b84516001600160401b03811161016d5782019083603f8301121561016d576020820151906001600160401b0382116101e6576101b7601f8301601f19166020016101fc565b828152604084840101861061016d576101db60209493859460408685019101610235565b81520194019361009b565b634e487b7160e01b600052604160045260246000fd5b6040519190601f01601f191682016001600160401b038111838210176101e657604052565b51906001600160a01b038216820361016d57565b60005b8381106102485750506000910152565b818101518382015260200161023856fe6080604052600436101561001257600080fd5b6000803560e01c80633a6e157b14610ad75780634129b2c914610aa857806343ab44d5146105db5780634de8737c146102d65780634fa76ec9146102b8578063517a62571461028657806361d027b31461025d5780637221252a1461023657806398e527d314610218578063a2b2b4d4146101ef578063c7f758a81461015d578063e7ea088f146100d15763f64fca1e146100ac57600080fd5b346100ce57806003193601126100ce57602060ff600654166040519015158152f35b80fd5b50346100ce5760403660031901126100ce576004356004610100602435926100fb83548210610e1b565b610e5d565b500180548210156101215760209161011791610eb5565b5054604051908152f35b60405162461bcd60e51b8152602060048201526014602482015273092dcecc2d8d2c840dee0e8d2dedc40d2dcc8caf60631b6044820152606490fd5b50346100ce5760203660031901126100ce576101006101856004356100fb6004548210610e1b565b508054906002810154906003810154600582015460018060a01b03600684015416916008600785015494015494604051968752602087015260408601526060850152608084015260a083015260ff8116151560c083015260018060a01b039060081c1660e0820152f35b50346100ce57806003193601126100ce576001546040516001600160a01b039091168152602090f35b50346100ce57806003193601126100ce576020600454604051908152f35b50346100ce57806003193601126100ce57546040516001600160a01b039091168152602090f35b50346100ce57806003193601126100ce576002546040516001600160a01b039091168152602090f35b50346100ce5760203660031901126100ce57602060046102ad81356100fb83548210610e1b565b500154604051908152f35b50346100ce57806003193601126100ce576020600354604051908152f35b50346100ce5760603660031901126100ce576024356001600160a01b03811690600435908290036105d757604435600454821061031281610e1b565b61031b83610e5d565b506002600382015491015490603c820291808304603c14901517156105c3579061034491610e92565b42116105885784546040516370a0823160e01b8152600481018690529190602090839060249082906001600160a01b03165afa91821561057d578692610545575b5081156105005761039590610e1b565b61039e83610e5d565b506001810191856000528260205260ff604060002054166104cb5760065460ff161561049857600181018082116104845760011c815b828210610451575050916104358460047fb4c54afd73915f9f756c8dee39fe0b311937871a92261a47747f7a3d32f63a0c9694604096945b8a60005260205286600020600160ff1982541617905561042d858254610e92565b815501610eb5565b50610441828254610e92565b905582519182526020820152a380f35b9091508180156104705780610467918304610e92565b60011c906103d4565b634e487b7160e01b89526012600452602489fd5b634e487b7160e01b88526011600452602488fd5b916104358460047fb4c54afd73915f9f756c8dee39fe0b311937871a92261a47747f7a3d32f63a0c96946040969461040c565b60405162461bcd60e51b815260206004820152600d60248201526c105b1c9958591e481d9bdd1959609a1b6044820152606490fd5b60405162461bcd60e51b815260206004820152601760248201527f4e6f2070617274696369706174696f6e20746f6b656e730000000000000000006044820152606490fd5b9091506020813d602011610575575b8161056160209383610d7b565b8101031261057157519038610385565b8580fd5b3d9150610554565b6040513d88823e3d90fd5b60405162461bcd60e51b8152602060048201526013602482015272159bdd1a5b99c81d1a5b5948195e1c1a5c9959606a1b6044820152606490fd5b634e487b7160e01b87526011600452602487fd5b8280fd5b50346100ce576101203660031901126100ce5760043567ffffffffffffffff8111610aa45761060e903690600401610dcf565b9060243567ffffffffffffffff8111610aa45761062f903690600401610dcf565b91604435916064359167ffffffffffffffff8311610aa45736602384011215610aa45782600401359267ffffffffffffffff8411610a90578360051b6040519461067c6020830187610d7b565b8552810160240160208501368211610a8c5760248301905b828210610a585750505060a4356001600160a01b03811695915060843590869003610a545760c43560e435908115158092036105715761010435976001600160a01b03891693848a03610a5057600154604051630eef043160e31b8152336004820152908990829060249082906001600160a01b03165afa908115610a455789916109b9575b50610736602060ff928160405193828580945193849201610f74565b8101600581520301902054161561096a57600454600160401b811015610956578060016107669201600455610e5d565b5088815560028101879055426003820155600581018290556006810180546001600160a01b0319168417905560078101849055600880820180546001600160a81b03191660ff8816179c90911b610100600160a81b03169b909b17909a5560045460001981019b908c11610942579261081a95928c9895926108287f02cdbdf6d83224bfc61f2b0e33d9159756d8eaf2dfb75d5e66d2a63cef32e8dc9996604051998a996101208b526101208b0190610f97565b9089820360208b0152610f97565b956040880152426060880152608087015260a086015260c085015260e08401526101008301520390a26004819301925b825181101561093e576040516020810181811067ffffffffffffffff82111761092a576040528281528454600160401b81101561092a5780600161089f9201875586610eb5565b919091610916575190558251811015610902578080867fd3b5cef521b08344b2f3822456355f6c2603e7f00a271d0215ac4760a401fc486108f9602060019660051b89010151604051918291602083526020830190610f97565b0390a301610858565b634e487b7160e01b82526032600452602482fd5b634e487b7160e01b84526004849052602484fd5b634e487b7160e01b84526041600452602484fd5b5080f35b634e487b7160e01b89526011600452602489fd5b634e487b7160e01b89526041600452602489fd5b60405162461bcd60e51b815260206004820152602160248201527f4e6f7420617574686f72697a656420746f206372656174652070726f706f73616044820152601b60fa1b6064820152608490fd5b90503d808a833e6109ca8183610d7b565b810190602081830312610a415780519067ffffffffffffffff8211610a3d570181601f82011215610a4157805190610a0182610db3565b92610a0f6040519485610d7b565b82845260208383010111610a3d5782610a3561073693602093848060ff98019101610f74565b92505061071a565b8a80fd5b8980fd5b6040513d8b823e3d90fd5b8780fd5b8380fd5b813567ffffffffffffffff8111610a8857602091610a7d839260243691890101610dcf565b815201910190610694565b8680fd5b8480fd5b634e487b7160e01b83526041600452602483fd5b5080fd5b50346100ce5760203660031901126100ce57610ac5600435610ecd565b60408051928352901515602083015290f35b50346100ce5760203660031901126100ce57600435906004548210610afb81610e1b565b610b0483610e5d565b506002600382015491015490603c820291808304603c1490151715610d675790610b2d91610e92565b421115610d2257610b3d90610e1b565b610b4682610ecd565b9290918380610d0b575b80610cf5575b610ba0575b506040805183815284151560208201527f80fa758d7c24e927ad76726080b3e8e8ec336147a2e7f4edde3e19d9c94e7c369190a2604080519182529115156020820152f35b611010610bac83610e5d565b50600890810154901c6001600160a01b031603610c54576002546001600160a01b0316610bd883610e5d565b50600601546001600160a01b03166007610bf185610e5d565b50015490823b15610a5457906044849283604051958694859363522f681560e01b8552600485015260248401525af18015610c4957610c34575b50505b38610b5b565b610c3f828092610d7b565b6100ce5780610c2b565b6040513d84823e3d90fd5b6002546001600160a01b0316610c6983610e5d565b50600890810154901c6001600160a01b0316610c8484610e5d565b50600601546001600160a01b0316906007610c9e86610e5d565b50015492803b15610a8c57849291836064926040519687958694631cdacd5960e31b86526004860152602485015260448401525af18015610c4957610ce5575b5050610c2e565b81610cef91610d7b565b38610cde565b506005610d0183610e5d565b5001548314610b56565b5060ff6008610d1984610e5d565b50015416610b50565b60405162461bcd60e51b815260206004820152601860248201527f566f74696e67206973206e6f742079657420636c6f73656400000000000000006044820152606490fd5b634e487b7160e01b84526011600452602484fd5b90601f8019910116810190811067ffffffffffffffff821117610d9d57604052565b634e487b7160e01b600052604160045260246000fd5b67ffffffffffffffff8111610d9d57601f01601f191660200190565b81601f82011215610e1657803590610de682610db3565b92610df46040519485610d7b565b82845260208383010111610e1657816000926020809301838601378301015290565b600080fd5b15610e2257565b60405162461bcd60e51b8152602060048201526013602482015272125b9d985b1a59081c1c9bdc1bdcd85b081251606a1b6044820152606490fd5b600454811015610e7c5760046000526009602060002091020190600090565b634e487b7160e01b600052603260045260246000fd5b91908201809211610e9f57565b634e487b7160e01b600052601160045260246000fd5b8054821015610e7c5760005260206000200190600090565b610ede906100fb6004548210610e1b565b5090600080809380549160035492838102938185041490151715610f60576004819201908154925b838110610f165750505050509190565b81610f218285610eb5565b505411610f31575b600101610f06565b9650509250610f408584610eb5565b50549285936064810281810460641482151715610e9f5784111596610f29565b634e487b7160e01b81526011600452602490fd5b60005b838110610f875750506000910152565b8181015183820152602001610f77565b90602091610fb081518092818552858086019101610f74565b601f01601f191601019056fea26469706673582212201ce3236abac2ad8cccaeea2dfd5ab69f1428ed2abde60438a553432fea269f0864736f6c634300081a0033a2646970667358221220c7947ccf60065df1aea9cf1bc7a97fda0e06ac3b5e84a8e67d6cd62dd9d5683e64736f6c634300081a0033","linkReferences":{}},"methodIdentifiers":{"createParticipationVoting(address,address,string[],bool,address,string,uint256)":"90713425"},"id":55}