{"abi":[{"type":"constructor","inputs":[{"name":"name","type":"string","internalType":"string"},{"name":"symbol","type":"string","internalType":"string"},{"name":"nftMembershipAddress","type":"address","internalType":"address"}],"stateMutability":"nonpayable"},{"type":"function","name":"allowance","inputs":[{"name":"owner","type":"address","internalType":"address"},{"name":"spender","type":"address","internalType":"address"}],"outputs":[{"name":"","type":"uint256","internalType":"uint256"}],"stateMutability":"view"},{"type":"function","name":"approve","inputs":[{"name":"spender","type":"address","internalType":"address"},{"name":"amount","type":"uint256","internalType":"uint256"}],"outputs":[{"name":"","type":"bool","internalType":"bool"}],"stateMutability":"nonpayable"},{"type":"function","name":"approveRequest","inputs":[{"name":"requestId","type":"uint256","internalType":"uint256"}],"outputs":[],"stateMutability":"nonpayable"},{"type":"function","name":"balanceOf","inputs":[{"name":"account","type":"address","internalType":"address"}],"outputs":[{"name":"","type":"uint256","internalType":"uint256"}],"stateMutability":"view"},{"type":"function","name":"decimals","inputs":[],"outputs":[{"name":"","type":"uint8","internalType":"uint8"}],"stateMutability":"view"},{"type":"function","name":"decreaseAllowance","inputs":[{"name":"spender","type":"address","internalType":"address"},{"name":"subtractedValue","type":"uint256","internalType":"uint256"}],"outputs":[{"name":"","type":"bool","internalType":"bool"}],"stateMutability":"nonpayable"},{"type":"function","name":"getTaskManagerAddress","inputs":[],"outputs":[{"name":"","type":"address","internalType":"address"}],"stateMutability":"view"},{"type":"function","name":"increaseAllowance","inputs":[{"name":"spender","type":"address","internalType":"address"},{"name":"addedValue","type":"uint256","internalType":"uint256"}],"outputs":[{"name":"","type":"bool","internalType":"bool"}],"stateMutability":"nonpayable"},{"type":"function","name":"mint","inputs":[{"name":"to","type":"address","internalType":"address"},{"name":"amount","type":"uint256","internalType":"uint256"}],"outputs":[],"stateMutability":"nonpayable"},{"type":"function","name":"name","inputs":[],"outputs":[{"name":"","type":"string","internalType":"string"}],"stateMutability":"view"},{"type":"function","name":"nftMembership","inputs":[],"outputs":[{"name":"","type":"address","internalType":"contract INFTMembership9"}],"stateMutability":"view"},{"type":"function","name":"owner","inputs":[],"outputs":[{"name":"","type":"address","internalType":"address"}],"stateMutability":"view"},{"type":"function","name":"renounceOwnership","inputs":[],"outputs":[],"stateMutability":"nonpayable"},{"type":"function","name":"requestCounter","inputs":[],"outputs":[{"name":"","type":"uint256","internalType":"uint256"}],"stateMutability":"view"},{"type":"function","name":"requestTokens","inputs":[{"name":"amount","type":"uint256","internalType":"uint256"},{"name":"ipfsHash","type":"string","internalType":"string"}],"outputs":[],"stateMutability":"nonpayable"},{"type":"function","name":"setEducationHubAddress","inputs":[{"name":"_educationHubAddress","type":"address","internalType":"address"}],"outputs":[],"stateMutability":"nonpayable"},{"type":"function","name":"setTaskManagerAddress","inputs":[{"name":"_taskManagerAddress","type":"address","internalType":"address"}],"outputs":[],"stateMutability":"nonpayable"},{"type":"function","name":"symbol","inputs":[],"outputs":[{"name":"","type":"string","internalType":"string"}],"stateMutability":"view"},{"type":"function","name":"tokenRequests","inputs":[{"name":"","type":"uint256","internalType":"uint256"}],"outputs":[{"name":"requester","type":"address","internalType":"address"},{"name":"amount","type":"uint256","internalType":"uint256"},{"name":"ipfsHash","type":"string","internalType":"string"},{"name":"approved","type":"bool","internalType":"bool"},{"name":"exists","type":"bool","internalType":"bool"}],"stateMutability":"view"},{"type":"function","name":"totalSupply","inputs":[],"outputs":[{"name":"","type":"uint256","internalType":"uint256"}],"stateMutability":"view"},{"type":"function","name":"transfer","inputs":[{"name":"to","type":"address","internalType":"address"},{"name":"amount","type":"uint256","internalType":"uint256"}],"outputs":[{"name":"","type":"bool","internalType":"bool"}],"stateMutability":"nonpayable"},{"type":"function","name":"transferFrom","inputs":[{"name":"from","type":"address","internalType":"address"},{"name":"to","type":"address","internalType":"address"},{"name":"amount","type":"uint256","internalType":"uint256"}],"outputs":[{"name":"","type":"bool","internalType":"bool"}],"stateMutability":"nonpayable"},{"type":"function","name":"transferOwnership","inputs":[{"name":"newOwner","type":"address","internalType":"address"}],"outputs":[],"stateMutability":"nonpayable"},{"type":"event","name":"Approval","inputs":[{"name":"owner","type":"address","indexed":true,"internalType":"address"},{"name":"spender","type":"address","indexed":true,"internalType":"address"},{"name":"value","type":"uint256","indexed":false,"internalType":"uint256"}],"anonymous":false},{"type":"event","name":"Mint","inputs":[{"name":"to","type":"address","indexed":true,"internalType":"address"},{"name":"amount","type":"uint256","indexed":false,"internalType":"uint256"}],"anonymous":false},{"type":"event","name":"OwnershipTransferred","inputs":[{"name":"previousOwner","type":"address","indexed":true,"internalType":"address"},{"name":"newOwner","type":"address","indexed":true,"internalType":"address"}],"anonymous":false},{"type":"event","name":"TaskManagerAddressSet","inputs":[{"name":"taskManagerAddress","type":"address","indexed":false,"internalType":"address"}],"anonymous":false},{"type":"event","name":"TokenRequestApproved","inputs":[{"name":"requestId","type":"uint256","indexed":false,"internalType":"uint256"},{"name":"approver","type":"address","indexed":true,"internalType":"address"}],"anonymous":false},{"type":"event","name":"TokenRequested","inputs":[{"name":"requestId","type":"uint256","indexed":false,"internalType":"uint256"},{"name":"requester","type":"address","indexed":true,"internalType":"address"},{"name":"amount","type":"uint256","indexed":false,"internalType":"uint256"},{"name":"ipfsHash","type":"string","indexed":false,"internalType":"string"}],"anonymous":false},{"type":"event","name":"Transfer","inputs":[{"name":"from","type":"address","indexed":true,"internalType":"address"},{"name":"to","type":"address","indexed":true,"internalType":"address"},{"name":"value","type":"uint256","indexed":false,"internalType":"uint256"}],"anonymous":false}],"bytecode":{"object":"0x6080604052346103ab5761195380380380610019816103b0565b9283398101906060818303126103ab5780516001600160401b0381116103ab57826100459183016103d5565b60208201519092906001600160401b0381116103ab576040916100699184016103d5565b9101516001600160a01b038116908190036103ab5782516001600160401b0381116102b457600354600181811c911680156103a1575b602082101461029457601f811161033c575b506020601f82116001146102d557819293946000926102ca575b50508160011b916000199060031b1c1916176003555b81516001600160401b0381116102b457600454600181811c911680156102aa575b602082101461029457601f811161022f575b50602092601f82116001146101ca57928192936000926101bf575b50508160011b916000199060031b1c1916176004555b60058054336001600160a01b0319821681179092556040519291906001600160a01b03167f8be0079c531659141344cd1fd0a4f28419497f9722a3daafe3b4186f6b6457e0600080a3600680546001600160a01b0319908116909155600880549091169190911790556000600a5561151290816104418239f35b01519050388061012f565b601f198216936004600052806000209160005b86811061021757508360019596106101fe575b505050811b01600455610145565b015160001960f88460031b161c191690553880806101f0565b919260206001819286850151815501940192016101dd565b60046000527f8a35acfbc15ff81a39ae7d344fd709f28e8600b4aa8c65c6b64bfe7fe36bd19b601f830160051c8101916020841061028a575b601f0160051c01905b81811061027e5750610114565b60008155600101610271565b9091508190610268565b634e487b7160e01b600052602260045260246000fd5b90607f1690610102565b634e487b7160e01b600052604160045260246000fd5b0151905038806100cb565b601f198216906003600052806000209160005b8181106103245750958360019596971061030b575b505050811b016003556100e1565b015160001960f88460031b161c191690553880806102fd565b9192602060018192868b0151815501940192016102e8565b60036000527fc2575a0e9e593c00f959f8c92f12db2869c3395a3b0502d05e2516446f71f85b601f830160051c81019160208410610397575b601f0160051c01905b81811061038b57506100b1565b6000815560010161037e565b9091508190610375565b90607f169061009f565b600080fd5b6040519190601f01601f191682016001600160401b038111838210176102b457604052565b81601f820112156103ab578051906001600160401b0382116102b457610404601f8301601f19166020016103b0565b92828452602083830101116103ab5760005b82811061042b57505060206000918301015290565b8060208092840101518282870101520161041656fe6080604052600436101561001257600080fd5b60003560e01c806306fdde03146110cf578063072ead0914610d21578063095ea7b314610cfb57806318160ddd14610cdd57806323b872dd14610be9578063313ce56714610bcd5780633950935114610b7b57806340c10f1914610a855780635e124dcf1461096b57806365ce8df71461094257806370a0823114610908578063715018a6146108ab57806388bb45bb146107e85780638da5cb5b146107bf57806395d89b41146106da578063973a814e146106bc578063a2b2b4d414610693578063a457c2d7146105e1578063a9059cbb14610588578063b06a567f146104f1578063d7d1bbdb14610237578063dd62ed3e146101e65763f2fde38b1461011957600080fd5b346101e15760203660031901126101e1576101326111fd565b61013a611484565b6001600160a01b0316801561018d57600580546001600160a01b0319811683179091556001600160a01b03167f8be0079c531659141344cd1fd0a4f28419497f9722a3daafe3b4186f6b6457e0600080a3005b60405162461bcd60e51b815260206004820152602660248201527f4f776e61626c653a206e6577206f776e657220697320746865207a65726f206160448201526564647265737360d01b6064820152608490fd5b600080fd5b346101e15760403660031901126101e1576101ff6111fd565b610207611213565b6001600160a01b039182166000908152600160209081526040808320949093168252928352819020549051908152f35b346101e15760203660031901126101e1576004356024600060018060a01b036008541660405192838092630eef043160e31b82523360048301525afa9081156104e5576000916104c2575b506040516102b1602082816102a08183019687815193849201611177565b81010301601f1981018352826111bf565b51902060405160208101906845786563757469766560b81b8252600981526102da6029826111bf565b5190200361047d5780600052600960205260018060a01b036040600020541633146104245780600052600960205260ff60036040600020015460081c16156103df5780600052600960205260ff6003604060002001541661039a57600081815260096020526040902060038101805460ff19166001908117909155815491015461036c916001600160a01b03166113da565b6040519081527f7de0b66780227b726313fa02087746fb9d5337b272a5432af812e7ad27bae79060203392a2005b60405162461bcd60e51b815260206004820152601960248201527f5265717565737420616c726561647920617070726f7665642e000000000000006044820152606490fd5b60405162461bcd60e51b815260206004820152601760248201527f5265717565737420646f6573206e6f742065786973742e0000000000000000006044820152606490fd5b60405162461bcd60e51b815260206004820152602b60248201527f5265717565737465722063616e6e6f7420617070726f7665207468656972206f60448201526a3bb7103932b8bab2b9ba1760a91b6064820152608490fd5b60405162461bcd60e51b815260206004820152601b60248201527f43616c6c6572206973206e6f7420616e206578656375746976652e00000000006044820152606490fd5b6104df91503d806000833e6104d781836111bf565b810190611263565b82610282565b6040513d6000823e3d90fd5b346101e15760203660031901126101e15761050a6111fd565b600754906001600160a01b038216610538576001600160a01b03166001600160a01b03199190911617600755005b60405162461bcd60e51b815260206004820152602260248201527f456475636174696f6e20687562206164647265737320616c72656164792073656044820152613a1760f11b6064820152608490fd5b346101e15760403660031901126101e1576105a16111fd565b5060405162461bcd60e51b81526020600482015260176024820152762a3930b739b332b9399030b932903234b9b0b13632b21760491b6044820152606490fd5b346101e15760403660031901126101e1576105fa6111fd565b60243590336000526001602052604060002060018060a01b0382166000526020526040600020549180831061064057610635920390336112d2565b602060405160018152f35b60405162461bcd60e51b815260206004820152602560248201527f45524332303a2064656372656173656420616c6c6f77616e63652062656c6f77604482015264207a65726f60d81b6064820152608490fd5b346101e15760003660031901126101e1576008546040516001600160a01b039091168152602090f35b346101e15760003660031901126101e1576020600a54604051908152f35b346101e15760003660031901126101e15760405160006004546106fc81611229565b808452906001811690811561079b575060011461073c575b61073883610724818503826111bf565b60405191829160208352602083019061119a565b0390f35b600460009081527f8a35acfbc15ff81a39ae7d344fd709f28e8600b4aa8c65c6b64bfe7fe36bd19b939250905b80821061078157509091508101602001610724610714565b919260018160209254838588010152019101909291610769565b60ff191660208086019190915291151560051b840190910191506107249050610714565b346101e15760003660031901126101e1576005546040516001600160a01b039091168152602090f35b346101e15760203660031901126101e1576108016111fd565b600654906001600160a01b03821661085c576001600160a01b03166001600160a01b03199190911681176006556040519081527f81862f97e97b649111ee20215bbdadae4012a1b9bd17da9d9ddf0187872fd37690602090a1005b60405162461bcd60e51b815260206004820152602160248201527f5461736b206d616e61676572206164647265737320616c7265616479207365746044820152601760f91b6064820152608490fd5b346101e15760003660031901126101e1576108c4611484565b600580546001600160a01b031981169091556000906001600160a01b03167f8be0079c531659141344cd1fd0a4f28419497f9722a3daafe3b4186f6b6457e08280a3005b346101e15760203660031901126101e1576001600160a01b036109296111fd565b1660005260006020526020604060002054604051908152f35b346101e15760003660031901126101e1576006546040516001600160a01b039091168152602090f35b346101e15760203660031901126101e1576004356000526009602052604060002060018060a01b03815416600182015491600281019060405180926000908054906109b582611229565b8085529160018116908115610a5e5750600114610a1e575b505060ff926109e3610a049360039303866111bf565b0154926040519586958652602086015260a0604086015260a085019061119a565b918181161515606085015260081c16151560808301520390f35b6000908152602081209092505b818310610a425750508101602001826109e36109cd565b6020919350806001915483858901015201910190918492610a2b565b60ff191660208087019190915292151560051b850190920192508491506109e390506109cd565b346101e15760403660031901126101e157610a9e6111fd565b6024359060018060a01b036006541633148015610b67575b15610afc57602081610ae9847f0f6798a560793a54c3bcfe86a93cde1e73087d944c0ea20544137d4121396885946113da565b6040519384526001600160a01b031692a2005b60405162461bcd60e51b815260206004820152603e60248201527f4f6e6c7920746865207461736b206d616e61676572206f72206564756361746960448201527f6f6e206875622063616e2063616c6c20746869732066756e6374696f6e2e00006064820152608490fd5b506007546001600160a01b03163314610ab6565b346101e15760403660031901126101e157610635610b976111fd565b336000526001602052604060002060018060a01b038216600052602052610bc6604060002060243590546112c5565b90336112d2565b346101e15760003660031901126101e157602060405160128152f35b346101e15760603660031901126101e157610c026111fd565b610c0a611213565b506001600160a01b0381166000908152600160208181526040808420338552909152909120549190604435908301610c7c575b60405162461bcd60e51b81526020600482015260176024820152762a3930b739b332b9399030b932903234b9b0b13632b21760491b6044820152606490fd5b808310610c9857610c9092039033906112d2565b808080610c3d565b60405162461bcd60e51b815260206004820152601d60248201527f45524332303a20696e73756666696369656e7420616c6c6f77616e63650000006044820152606490fd5b346101e15760003660031901126101e1576020600254604051908152f35b346101e15760403660031901126101e157610635610d176111fd565b60243590336112d2565b346101e15760403660031901126101e15760043560243567ffffffffffffffff81116101e157366023820112156101e1578060040135610d60816111e1565b91610d6e60405193846111bf565b81835236602483830101116101e157816000926024602093018386013783010152600854604051630eef043160e31b815233600482015290600090829060249082906001600160a01b03165afa9081156104e5576000916110b4575b50604051610de8602082816102a08183019687815193849201611177565b51902060405160008152610dfd6020826111bf565b602081519101201461106f57600a546000198114611059576001019182600a556040519260a0840184811067ffffffffffffffff8211176110435760405233845260208401908282526040850194848652606081019260008452608082019260018452600052600960205260406000209160018060a01b039051166bffffffffffffffffffffffff60a01b83541617825551600182015560028101955195865167ffffffffffffffff811161104357610eb68254611229565b601f8111610ffb575b506020601f8211600114610f7057908060039493927fff20302ad330d17bf429941564cb06d6f7b4b594ff47ebffa06e83cd81e89424999a600092610f65575b50508160011b9160001990861b1c19161790555b019151151560ff8019845416911617825551151561ff0082549160081b169061ff001916179055600a549060405191825260208201526060604082015280610f603394606083019061119a565b0390a2005b015190508a80610eff565b601f1982169883600052816000209960005b818110610fe3575099600192849260039796957fff20302ad330d17bf429941564cb06d6f7b4b594ff47ebffa06e83cd81e894249c9d10610fcb575b505050811b019055610f13565b015160001983881b60f8161c191690558a8080610fbe565b838301518c556001909b019a60209384019301610f82565b826000526020600020601f830160051c81019160208410611039575b601f0160051c01905b81811061102d5750610ebf565b60008155600101611020565b9091508190611017565b634e487b7160e01b600052604160045260246000fd5b634e487b7160e01b600052601160045260246000fd5b60405162461bcd60e51b815260206004820152601760248201527f43616c6c6572206973206e6f742061206d656d6265722e0000000000000000006044820152606490fd5b6110c991503d806000833e6104d781836111bf565b83610dca565b346101e15760003660031901126101e15760405160006003546110f181611229565b808452906001811690811561079b57506001146111185761073883610724818503826111bf565b600360009081527fc2575a0e9e593c00f959f8c92f12db2869c3395a3b0502d05e2516446f71f85b939250905b80821061115d57509091508101602001610724610714565b919260018160209254838588010152019101909291611145565b60005b83811061118a5750506000910152565b818101518382015260200161117a565b906020916111b381518092818552858086019101611177565b601f01601f1916010190565b90601f8019910116810190811067ffffffffffffffff82111761104357604052565b67ffffffffffffffff811161104357601f01601f191660200190565b600435906001600160a01b03821682036101e157565b602435906001600160a01b03821682036101e157565b90600182811c92168015611259575b602083101461124357565b634e487b7160e01b600052602260045260246000fd5b91607f1691611238565b6020818303126101e15780519067ffffffffffffffff82116101e1570181601f820112156101e1578051611296816111e1565b926112a460405194856111bf565b818452602082840101116101e1576112c29160208085019101611177565b90565b9190820180921161105957565b6001600160a01b0316908115611389576001600160a01b03169182156113395760207f8c5be1e5ebec7d5bd14f71427d1e84f3dd0314c0f7b2291e5b200ac8c7c3b925918360005260018252604060002085600052825280604060002055604051908152a3565b60405162461bcd60e51b815260206004820152602260248201527f45524332303a20617070726f766520746f20746865207a65726f206164647265604482015261737360f01b6064820152608490fd5b60405162461bcd60e51b8152602060048201526024808201527f45524332303a20617070726f76652066726f6d20746865207a65726f206164646044820152637265737360e01b6064820152608490fd5b6001600160a01b031690811561143f577fddf252ad1be2c89b69c2b068fc378daa952ba7f163c4a11628f55a4df523b3ef60208261141c6000946002546112c5565b600255848452838252604084206114348282546112c5565b9055604051908152a3565b60405162461bcd60e51b815260206004820152601f60248201527f45524332303a206d696e7420746f20746865207a65726f2061646472657373006044820152606490fd5b6005546001600160a01b0316330361149857565b606460405162461bcd60e51b815260206004820152602060248201527f4f776e61626c653a2063616c6c6572206973206e6f7420746865206f776e65726044820152fdfea264697066735822122005997e330c8c8e7c48e7b87bd2e8b7046edd4c581b7f546bc84b49c87178ee8264736f6c634300081a0033","linkReferences":{}},"methodIdentifiers":{"allowance(address,address)":"dd62ed3e","approve(address,uint256)":"095ea7b3","approveRequest(uint256)":"d7d1bbdb","balanceOf(address)":"70a08231","decimals()":"313ce567","decreaseAllowance(address,uint256)":"a457c2d7","getTaskManagerAddress()":"65ce8df7","increaseAllowance(address,uint256)":"39509351","mint(address,uint256)":"40c10f19","name()":"06fdde03","nftMembership()":"a2b2b4d4","owner()":"8da5cb5b","renounceOwnership()":"715018a6","requestCounter()":"973a814e","requestTokens(uint256,string)":"072ead09","setEducationHubAddress(address)":"b06a567f","setTaskManagerAddress(address)":"88bb45bb","symbol()":"95d89b41","tokenRequests(uint256)":"5e124dcf","totalSupply()":"18160ddd","transfer(address,uint256)":"a9059cbb","transferFrom(address,address,uint256)":"23b872dd","transferOwnership(address)":"f2fde38b"},"id":54}