{
  "_format": "hh-sol-artifact-1",
  "contractName": "ParticipationVoting",
  "sourceName": "contracts/ParticipationVoting.sol",
  "abi": [
    {
      "inputs": [
        {
          "internalType": "address",
          "name": "_ParticipationToken",
          "type": "address"
        },
        {
          "internalType": "address",
          "name": "_nftMembership",
          "type": "address"
        },
        {
          "internalType": "string[]",
          "name": "_allowedRoleNames",
          "type": "string[]"
        },
        {
          "internalType": "bool",
          "name": "_quadraticVotingEnabled",
          "type": "bool"
        },
        {
          "internalType": "address",
          "name": "_treasuryAddress",
          "type": "address"
        },
        {
          "internalType": "uint256",
          "name": "_quorumPercentage",
          "type": "uint256"
        }
      ],
      "stateMutability": "nonpayable",
      "type": "constructor"
    },
    {
      "anonymous": false,
      "inputs": [
        {
          "indexed": true,
          "internalType": "uint256",
          "name": "proposalId",
          "type": "uint256"
        },
        {
          "indexed": false,
          "internalType": "string",
          "name": "name",
          "type": "string"
        },
        {
          "indexed": false,
          "internalType": "string",
          "name": "description",
          "type": "string"
        },
        {
          "indexed": false,
          "internalType": "uint256",
          "name": "timeInMinutes",
          "type": "uint256"
        },
        {
          "indexed": false,
          "internalType": "uint256",
          "name": "creationTimestamp",
          "type": "uint256"
        },
        {
          "indexed": false,
          "internalType": "uint256",
          "name": "transferTriggerOptionIndex",
          "type": "uint256"
        },
        {
          "indexed": false,
          "internalType": "address",
          "name": "transferRecipient",
          "type": "address"
        },
        {
          "indexed": false,
          "internalType": "uint256",
          "name": "transferAmount",
          "type": "uint256"
        },
        {
          "indexed": false,
          "internalType": "bool",
          "name": "transferEnabled",
          "type": "bool"
        },
        {
          "indexed": false,
          "internalType": "address",
          "name": "transferToken",
          "type": "address"
        }
      ],
      "name": "NewProposal",
      "type": "event"
    },
    {
      "anonymous": false,
      "inputs": [
        {
          "indexed": true,
          "internalType": "uint256",
          "name": "proposalId",
          "type": "uint256"
        },
        {
          "indexed": true,
          "internalType": "uint256",
          "name": "optionIndex",
          "type": "uint256"
        },
        {
          "indexed": false,
          "internalType": "string",
          "name": "name",
          "type": "string"
        }
      ],
      "name": "PollOptionNames",
      "type": "event"
    },
    {
      "anonymous": false,
      "inputs": [
        {
          "indexed": true,
          "internalType": "uint256",
          "name": "proposalId",
          "type": "uint256"
        },
        {
          "indexed": true,
          "internalType": "address",
          "name": "voter",
          "type": "address"
        },
        {
          "indexed": false,
          "internalType": "uint256",
          "name": "optionIndex",
          "type": "uint256"
        },
        {
          "indexed": false,
          "internalType": "uint256",
          "name": "voteWeight",
          "type": "uint256"
        }
      ],
      "name": "Voted",
      "type": "event"
    },
    {
      "anonymous": false,
      "inputs": [
        {
          "indexed": true,
          "internalType": "uint256",
          "name": "proposalId",
          "type": "uint256"
        },
        {
          "indexed": false,
          "internalType": "uint256",
          "name": "winningOptionIndex",
          "type": "uint256"
        },
        {
          "indexed": false,
          "internalType": "bool",
          "name": "hasValidWinner",
          "type": "bool"
        }
      ],
      "name": "WinnerAnnounced",
      "type": "event"
    },
    {
      "inputs": [],
      "name": "ParticipationToken",
      "outputs": [
        {
          "internalType": "contract IERC20",
          "name": "",
          "type": "address"
        }
      ],
      "stateMutability": "view",
      "type": "function"
    },
    {
      "inputs": [
        {
          "internalType": "uint256",
          "name": "_proposalId",
          "type": "uint256"
        }
      ],
      "name": "announceWinner",
      "outputs": [],
      "stateMutability": "nonpayable",
      "type": "function"
    },
    {
      "inputs": [
        {
          "internalType": "string",
          "name": "_name",
          "type": "string"
        },
        {
          "internalType": "string",
          "name": "_description",
          "type": "string"
        },
        {
          "internalType": "uint256",
          "name": "_timeInMinutes",
          "type": "uint256"
        },
        {
          "internalType": "string[]",
          "name": "_optionNames",
          "type": "string[]"
        },
        {
          "internalType": "uint256",
          "name": "_transferTriggerOptionIndex",
          "type": "uint256"
        },
        {
          "internalType": "address payable",
          "name": "_transferRecipient",
          "type": "address"
        },
        {
          "internalType": "uint256",
          "name": "_transferAmount",
          "type": "uint256"
        },
        {
          "internalType": "bool",
          "name": "_transferEnabled",
          "type": "bool"
        },
        {
          "internalType": "address",
          "name": "_transferToken",
          "type": "address"
        }
      ],
      "name": "createProposal",
      "outputs": [],
      "stateMutability": "nonpayable",
      "type": "function"
    },
    {
      "inputs": [
        {
          "internalType": "uint256",
          "name": "_proposalId",
          "type": "uint256"
        },
        {
          "internalType": "uint256",
          "name": "_optionIndex",
          "type": "uint256"
        }
      ],
      "name": "getOptionVotes",
      "outputs": [
        {
          "internalType": "uint256",
          "name": "votes",
          "type": "uint256"
        }
      ],
      "stateMutability": "view",
      "type": "function"
    },
    {
      "inputs": [
        {
          "internalType": "uint256",
          "name": "_proposalId",
          "type": "uint256"
        }
      ],
      "name": "getOptionsCount",
      "outputs": [
        {
          "internalType": "uint256",
          "name": "",
          "type": "uint256"
        }
      ],
      "stateMutability": "view",
      "type": "function"
    },
    {
      "inputs": [
        {
          "internalType": "uint256",
          "name": "_proposalId",
          "type": "uint256"
        }
      ],
      "name": "getWinner",
      "outputs": [
        {
          "internalType": "uint256",
          "name": "",
          "type": "uint256"
        },
        {
          "internalType": "bool",
          "name": "",
          "type": "bool"
        }
      ],
      "stateMutability": "view",
      "type": "function"
    },
    {
      "inputs": [],
      "name": "nftMembership",
      "outputs": [
        {
          "internalType": "contract INFTMembership5",
          "name": "",
          "type": "address"
        }
      ],
      "stateMutability": "view",
      "type": "function"
    },
    {
      "inputs": [],
      "name": "quadraticVotingEnabled",
      "outputs": [
        {
          "internalType": "bool",
          "name": "",
          "type": "bool"
        }
      ],
      "stateMutability": "view",
      "type": "function"
    },
    {
      "inputs": [],
      "name": "quorumPercentage",
      "outputs": [
        {
          "internalType": "uint256",
          "name": "",
          "type": "uint256"
        }
      ],
      "stateMutability": "view",
      "type": "function"
    },
    {
      "inputs": [],
      "name": "treasury",
      "outputs": [
        {
          "internalType": "contract ITreasury3",
          "name": "",
          "type": "address"
        }
      ],
      "stateMutability": "view",
      "type": "function"
    },
    {
      "inputs": [
        {
          "internalType": "uint256",
          "name": "_proposalId",
          "type": "uint256"
        },
        {
          "internalType": "address",
          "name": "_voter",
          "type": "address"
        },
        {
          "internalType": "uint256",
          "name": "_optionIndex",
          "type": "uint256"
        }
      ],
      "name": "vote",
      "outputs": [],
      "stateMutability": "nonpayable",
      "type": "function"
    }
  ],
  "bytecode": "0x608060405260326003553480156200001657600080fd5b50604051620025863803806200258683398181016040528101906200003c919062000511565b80600381905550856000806101000a81548173ffffffffffffffffffffffffffffffffffffffff021916908373ffffffffffffffffffffffffffffffffffffffff16021790555084600160006101000a81548173ffffffffffffffffffffffffffffffffffffffff021916908373ffffffffffffffffffffffffffffffffffffffff16021790555081600260006101000a81548173ffffffffffffffffffffffffffffffffffffffff021916908373ffffffffffffffffffffffffffffffffffffffff16021790555060005b84518110156200017e57600160058683815181106200012c576200012b620005cc565b5b602002602001015160405162000143919062000648565b908152602001604051809103902060006101000a81548160ff0219169083151502179055508080620001759062000690565b91505062000108565b5082600660006101000a81548160ff021916908315150217905550505050505050620006dd565b6000604051905090565b600080fd5b600080fd5b600073ffffffffffffffffffffffffffffffffffffffff82169050919050565b6000620001e682620001b9565b9050919050565b620001f881620001d9565b81146200020457600080fd5b50565b6000815190506200021881620001ed565b92915050565b600080fd5b6000601f19601f8301169050919050565b7f4e487b7100000000000000000000000000000000000000000000000000000000600052604160045260246000fd5b6200026e8262000223565b810181811067ffffffffffffffff8211171562000290576200028f62000234565b5b80604052505050565b6000620002a5620001a5565b9050620002b3828262000263565b919050565b600067ffffffffffffffff821115620002d657620002d562000234565b5b602082029050602081019050919050565b600080fd5b600080fd5b600067ffffffffffffffff8211156200030f576200030e62000234565b5b6200031a8262000223565b9050602081019050919050565b60005b83811015620003475780820151818401526020810190506200032a565b60008484015250505050565b60006200036a6200036484620002f1565b62000299565b905082815260208101848484011115620003895762000388620002ec565b5b6200039684828562000327565b509392505050565b600082601f830112620003b657620003b56200021e565b5b8151620003c884826020860162000353565b91505092915050565b6000620003e8620003e284620002b8565b62000299565b905080838252602082019050602084028301858111156200040e576200040d620002e7565b5b835b818110156200045c57805167ffffffffffffffff8111156200043757620004366200021e565b5b8086016200044689826200039e565b8552602085019450505060208101905062000410565b5050509392505050565b600082601f8301126200047e576200047d6200021e565b5b815162000490848260208601620003d1565b91505092915050565b60008115159050919050565b620004b08162000499565b8114620004bc57600080fd5b50565b600081519050620004d081620004a5565b92915050565b6000819050919050565b620004eb81620004d6565b8114620004f757600080fd5b50565b6000815190506200050b81620004e0565b92915050565b60008060008060008060c08789031215620005315762000530620001af565b5b60006200054189828a0162000207565b96505060206200055489828a0162000207565b955050604087015167ffffffffffffffff811115620005785762000577620001b4565b5b6200058689828a0162000466565b94505060606200059989828a01620004bf565b9350506080620005ac89828a0162000207565b92505060a0620005bf89828a01620004fa565b9150509295509295509295565b7f4e487b7100000000000000000000000000000000000000000000000000000000600052603260045260246000fd5b600081519050919050565b600081905092915050565b60006200061e82620005fb565b6200062a818562000606565b93506200063c81856020860162000327565b80840191505092915050565b600062000656828462000611565b915081905092915050565b7f4e487b7100000000000000000000000000000000000000000000000000000000600052601160045260246000fd5b60006200069d82620004d6565b91507fffffffffffffffffffffffffffffffffffffffffffffffffffffffffffffffff8203620006d257620006d162000661565b5b600182019050919050565b611e9980620006ed6000396000f3fe608060405234801561001057600080fd5b50600436106100a95760003560e01c8063517a625711610071578063517a62571461015157806361d027b3146101815780637221252a1461019f578063a2b2b4d4146101bd578063e7ea088f146101db578063f64fca1e1461020b576100a9565b80633a6e157b146100ae5780634129b2c9146100ca57806343ab44d5146100fb5780634de8737c146101175780634fa76ec914610133575b600080fd5b6100c860048036038101906100c39190611017565b610229565b005b6100e460048036038101906100df9190611017565b610542565b6040516100f292919061106e565b60405180910390f35b6101156004803603810190610110919061138b565b610669565b005b610131600480360381019061012c91906114a9565b610991565b005b61013b610d71565b60405161014891906114fc565b60405180910390f35b61016b60048036038101906101669190611017565b610d77565b60405161017891906114fc565b60405180910390f35b610189610df6565b6040516101969190611576565b60405180910390f35b6101a7610e1c565b6040516101b491906115b2565b60405180910390f35b6101c5610e40565b6040516101d291906115ee565b60405180910390f35b6101f560048036038101906101f09190611609565b610e66565b60405161020291906114fc565b60405180910390f35b610213610f4b565b6040516102209190611649565b60405180910390f35b806004805490508110610271576040517f08c379a0000000000000000000000000000000000000000000000000000000008152600401610268906116c1565b60405180910390fd5b600060048281548110610287576102866116e1565b5b90600052602060002090600902019050603c81600201546102a8919061173f565b81600301546102b79190611781565b42116102f8576040517f08c379a00000000000000000000000000000000000000000000000000000000081526004016102ef90611801565b60405180910390fd5b600480549050831061033f576040517f08c379a0000000000000000000000000000000000000000000000000000000008152600401610336906116c1565b60405180910390fd5b60008061034b85610542565b9150915080801561038b57506004858154811061036b5761036a6116e1565b5b906000526020600020906009020160080160009054906101000a900460ff165b80156103bb5750600485815481106103a6576103a56116e1565b5b90600052602060002090600902016005015482145b1561050157600260009054906101000a900473ffffffffffffffffffffffffffffffffffffffff1673ffffffffffffffffffffffffffffffffffffffff1663e6d66ac860048781548110610412576104116116e1565b5b906000526020600020906009020160080160019054906101000a900473ffffffffffffffffffffffffffffffffffffffff1660048881548110610458576104576116e1565b5b906000526020600020906009020160060160009054906101000a900473ffffffffffffffffffffffffffffffffffffffff166004898154811061049e5761049d6116e1565b5b9060005260206000209060090201600701546040518463ffffffff1660e01b81526004016104ce93929190611851565b600060405180830381600087803b1580156104e857600080fd5b505af11580156104fc573d6000803e3d6000fd5b505050505b847f80fa758d7c24e927ad76726080b3e8e8ec336147a2e7f4edde3e19d9c94e7c36838360405161053392919061106e565b60405180910390a25050505050565b600080600480549050831061058c576040517f08c379a0000000000000000000000000000000000000000000000000000000008152600401610583906116c1565b60405180910390fd5b6000600484815481106105a2576105a16116e1565b5b9060005260206000209060090201905060008060008060035485600001546105ca919061173f565b905060005b856004018054905081101561065857848660040182815481106105f5576105f46116e1565b5b906000526020600020016000015411156106455785600401818154811061061f5761061e6116e1565b5b9060005260206000200160000154945080935081606486610640919061173f565b101592505b808061065090611888565b9150506105cf565b508282965096505050505050915091565b6000600160009054906101000a900473ffffffffffffffffffffffffffffffffffffffff1673ffffffffffffffffffffffffffffffffffffffff166377782188336040518263ffffffff1660e01b81526004016106c691906118d0565b600060405180830381865afa1580156106e3573d6000803e3d6000fd5b505050506040513d6000823e3d601f19601f8201168201806040525081019061070c9190611985565b905060058160405161071e9190611a15565b908152602001604051809103902060009054906101000a900460ff16610779576040517f08c379a000000000000000000000000000000000000000000000000000000000815260040161077090611a9e565b60405180910390fd5b60006004600181600181540180825580915050039060005260206000209060090201905060008160000181905550888160020181905550428160030181905550868160050181905550858160060160006101000a81548173ffffffffffffffffffffffffffffffffffffffff021916908373ffffffffffffffffffffffffffffffffffffffff160217905550848160070181905550838160080160006101000a81548160ff021916908315150217905550828160080160016101000a81548173ffffffffffffffffffffffffffffffffffffffff021916908373ffffffffffffffffffffffffffffffffffffffff160217905550600060016004805490506108819190611abe565b9050807f02cdbdf6d83224bfc61f2b0e33d9159756d8eaf2dfb75d5e66d2a63cef32e8dc8d8d8d428d8d8d8d8d6040516108c399989796959493929190611b2b565b60405180910390a260005b89518110156109825782600401604051806020016040528060008152509080600181540180825580915050600190039060005260206000200160009091909190915060008201518160000155505080827fd3b5cef521b08344b2f3822456355f6c2603e7f00a271d0215ac4760a401fc488c8481518110610952576109516116e1565b5b60200260200101516040516109679190611bc6565b60405180910390a3808061097a90611888565b9150506108ce565b50505050505050505050505050565b8260048054905081106109d9576040517f08c379a00000000000000000000000000000000000000000000000000000000081526004016109d0906116c1565b60405180910390fd5b6000600482815481106109ef576109ee6116e1565b5b90600052602060002090600902019050603c8160020154610a10919061173f565b8160030154610a1f9190611781565b421115610a61576040517f08c379a0000000000000000000000000000000000000000000000000000000008152600401610a5890611c34565b60405180910390fd5b60008060009054906101000a900473ffffffffffffffffffffffffffffffffffffffff1673ffffffffffffffffffffffffffffffffffffffff166370a08231866040518263ffffffff1660e01b8152600401610abd91906118d0565b602060405180830381865afa158015610ada573d6000803e3d6000fd5b505050506040513d601f19601f82011682018060405250810190610afe9190611c69565b905060008111610b43576040517f08c379a0000000000000000000000000000000000000000000000000000000008152600401610b3a90611ce2565b60405180910390fd5b6004805490508610610b8a576040517f08c379a0000000000000000000000000000000000000000000000000000000008152600401610b81906116c1565b60405180910390fd5b600060048781548110610ba057610b9f6116e1565b5b906000526020600020906009020190508060010160008773ffffffffffffffffffffffffffffffffffffffff1673ffffffffffffffffffffffffffffffffffffffff16815260200190815260200160002060009054906101000a900460ff1615610c3f576040517f08c379a0000000000000000000000000000000000000000000000000000000008152600401610c3690611d4e565b60405180910390fd5b6000600660009054906101000a900460ff16610c5b5782610c65565b610c6483610f5e565b5b905060018260010160008973ffffffffffffffffffffffffffffffffffffffff1673ffffffffffffffffffffffffffffffffffffffff16815260200190815260200160002060006101000a81548160ff02191690831515021790555080826000016000828254610cd59190611781565b9250508190555080826004018781548110610cf357610cf26116e1565b5b906000526020600020016000016000828254610d0f9190611781565b925050819055508673ffffffffffffffffffffffffffffffffffffffff16887fb4c54afd73915f9f756c8dee39fe0b311937871a92261a47747f7a3d32f63a0c8884604051610d5f929190611d6e565b60405180910390a35050505050505050565b60035481565b60006004805490508210610dc0576040517f08c379a0000000000000000000000000000000000000000000000000000000008152600401610db7906116c1565b60405180910390fd5b600060048381548110610dd657610dd56116e1565b5b906000526020600020906009020190508060040180549050915050919050565b600260009054906101000a900473ffffffffffffffffffffffffffffffffffffffff1681565b60008054906101000a900473ffffffffffffffffffffffffffffffffffffffff1681565b600160009054906101000a900473ffffffffffffffffffffffffffffffffffffffff1681565b60006004805490508310610eaf576040517f08c379a0000000000000000000000000000000000000000000000000000000008152600401610ea6906116c1565b60405180910390fd5b600060048481548110610ec557610ec46116e1565b5b9060005260206000209060090201905080600401805490508310610f1e576040517f08c379a0000000000000000000000000000000000000000000000000000000008152600401610f1590611de3565b60405180910390fd5b806004018381548110610f3457610f336116e1565b5b906000526020600020016000015491505092915050565b600660009054906101000a900460ff1681565b6000610f6982610f70565b9050919050565b6000806002600184610f829190611781565b610f8c9190611e32565b90508291505b81811015610fc7578091506002818285610fac9190611e32565b610fb69190611781565b610fc09190611e32565b9050610f92565b50919050565b6000604051905090565b600080fd5b600080fd5b6000819050919050565b610ff481610fe1565b8114610fff57600080fd5b50565b60008135905061101181610feb565b92915050565b60006020828403121561102d5761102c610fd7565b5b600061103b84828501611002565b91505092915050565b61104d81610fe1565b82525050565b60008115159050919050565b61106881611053565b82525050565b60006040820190506110836000830185611044565b611090602083018461105f565b9392505050565b600080fd5b600080fd5b6000601f19601f8301169050919050565b7f4e487b7100000000000000000000000000000000000000000000000000000000600052604160045260246000fd5b6110ea826110a1565b810181811067ffffffffffffffff82111715611109576111086110b2565b5b80604052505050565b600061111c610fcd565b905061112882826110e1565b919050565b600067ffffffffffffffff821115611148576111476110b2565b5b611151826110a1565b9050602081019050919050565b82818337600083830152505050565b600061118061117b8461112d565b611112565b90508281526020810184848401111561119c5761119b61109c565b5b6111a784828561115e565b509392505050565b600082601f8301126111c4576111c3611097565b5b81356111d484826020860161116d565b91505092915050565b600067ffffffffffffffff8211156111f8576111f76110b2565b5b602082029050602081019050919050565b600080fd5b600061122161121c846111dd565b611112565b9050808382526020820190506020840283018581111561124457611243611209565b5b835b8181101561128b57803567ffffffffffffffff81111561126957611268611097565b5b80860161127689826111af565b85526020850194505050602081019050611246565b5050509392505050565b600082601f8301126112aa576112a9611097565b5b81356112ba84826020860161120e565b91505092915050565b600073ffffffffffffffffffffffffffffffffffffffff82169050919050565b60006112ee826112c3565b9050919050565b6112fe816112e3565b811461130957600080fd5b50565b60008135905061131b816112f5565b92915050565b61132a81611053565b811461133557600080fd5b50565b60008135905061134781611321565b92915050565b6000611358826112c3565b9050919050565b6113688161134d565b811461137357600080fd5b50565b6000813590506113858161135f565b92915050565b60008060008060008060008060006101208a8c0312156113ae576113ad610fd7565b5b60008a013567ffffffffffffffff8111156113cc576113cb610fdc565b5b6113d88c828d016111af565b99505060208a013567ffffffffffffffff8111156113f9576113f8610fdc565b5b6114058c828d016111af565b98505060406114168c828d01611002565b97505060608a013567ffffffffffffffff81111561143757611436610fdc565b5b6114438c828d01611295565b96505060806114548c828d01611002565b95505060a06114658c828d0161130c565b94505060c06114768c828d01611002565b93505060e06114878c828d01611338565b9250506101006114998c828d01611376565b9150509295985092959850929598565b6000806000606084860312156114c2576114c1610fd7565b5b60006114d086828701611002565b93505060206114e186828701611376565b92505060406114f286828701611002565b9150509250925092565b60006020820190506115116000830184611044565b92915050565b6000819050919050565b600061153c611537611532846112c3565b611517565b6112c3565b9050919050565b600061154e82611521565b9050919050565b600061156082611543565b9050919050565b61157081611555565b82525050565b600060208201905061158b6000830184611567565b92915050565b600061159c82611543565b9050919050565b6115ac81611591565b82525050565b60006020820190506115c760008301846115a3565b92915050565b60006115d882611543565b9050919050565b6115e8816115cd565b82525050565b600060208201905061160360008301846115df565b92915050565b600080604083850312156116205761161f610fd7565b5b600061162e85828601611002565b925050602061163f85828601611002565b9150509250929050565b600060208201905061165e600083018461105f565b92915050565b600082825260208201905092915050565b7f496e76616c69642070726f706f73616c20494400000000000000000000000000600082015250565b60006116ab601383611664565b91506116b682611675565b602082019050919050565b600060208201905081810360008301526116da8161169e565b9050919050565b7f4e487b7100000000000000000000000000000000000000000000000000000000600052603260045260246000fd5b7f4e487b7100000000000000000000000000000000000000000000000000000000600052601160045260246000fd5b600061174a82610fe1565b915061175583610fe1565b925082820261176381610fe1565b9150828204841483151761177a57611779611710565b5b5092915050565b600061178c82610fe1565b915061179783610fe1565b92508282019050808211156117af576117ae611710565b5b92915050565b7f566f74696e67206973206e6f742079657420636c6f7365640000000000000000600082015250565b60006117eb601883611664565b91506117f6826117b5565b602082019050919050565b6000602082019050818103600083015261181a816117de565b9050919050565b61182a8161134d565b82525050565b600061183b82611543565b9050919050565b61184b81611830565b82525050565b60006060820190506118666000830186611821565b6118736020830185611842565b6118806040830184611044565b949350505050565b600061189382610fe1565b91507fffffffffffffffffffffffffffffffffffffffffffffffffffffffffffffffff82036118c5576118c4611710565b5b600182019050919050565b60006020820190506118e56000830184611821565b92915050565b60005b838110156119095780820151818401526020810190506118ee565b60008484015250505050565b60006119286119238461112d565b611112565b9050828152602081018484840111156119445761194361109c565b5b61194f8482856118eb565b509392505050565b600082601f83011261196c5761196b611097565b5b815161197c848260208601611915565b91505092915050565b60006020828403121561199b5761199a610fd7565b5b600082015167ffffffffffffffff8111156119b9576119b8610fdc565b5b6119c584828501611957565b91505092915050565b600081519050919050565b600081905092915050565b60006119ef826119ce565b6119f981856119d9565b9350611a098185602086016118eb565b80840191505092915050565b6000611a2182846119e4565b915081905092915050565b7f4e6f7420617574686f72697a656420746f206372656174652070726f706f736160008201527f6c00000000000000000000000000000000000000000000000000000000000000602082015250565b6000611a88602183611664565b9150611a9382611a2c565b604082019050919050565b60006020820190508181036000830152611ab781611a7b565b9050919050565b6000611ac982610fe1565b9150611ad483610fe1565b9250828203905081811115611aec57611aeb611710565b5b92915050565b6000611afd826119ce565b611b078185611664565b9350611b178185602086016118eb565b611b20816110a1565b840191505092915050565b6000610120820190508181036000830152611b46818c611af2565b90508181036020830152611b5a818b611af2565b9050611b69604083018a611044565b611b766060830189611044565b611b836080830188611044565b611b9060a0830187611842565b611b9d60c0830186611044565b611baa60e083018561105f565b611bb8610100830184611821565b9a9950505050505050505050565b60006020820190508181036000830152611be08184611af2565b905092915050565b7f566f74696e672074696d65206578706972656400000000000000000000000000600082015250565b6000611c1e601383611664565b9150611c2982611be8565b602082019050919050565b60006020820190508181036000830152611c4d81611c11565b9050919050565b600081519050611c6381610feb565b92915050565b600060208284031215611c7f57611c7e610fd7565b5b6000611c8d84828501611c54565b91505092915050565b7f4e6f2070617274696369706174696f6e20746f6b656e73000000000000000000600082015250565b6000611ccc601783611664565b9150611cd782611c96565b602082019050919050565b60006020820190508181036000830152611cfb81611cbf565b9050919050565b7f416c726561647920766f74656400000000000000000000000000000000000000600082015250565b6000611d38600d83611664565b9150611d4382611d02565b602082019050919050565b60006020820190508181036000830152611d6781611d2b565b9050919050565b6000604082019050611d836000830185611044565b611d906020830184611044565b9392505050565b7f496e76616c6964206f7074696f6e20696e646578000000000000000000000000600082015250565b6000611dcd601483611664565b9150611dd882611d97565b602082019050919050565b60006020820190508181036000830152611dfc81611dc0565b9050919050565b7f4e487b7100000000000000000000000000000000000000000000000000000000600052601260045260246000fd5b6000611e3d82610fe1565b9150611e4883610fe1565b925082611e5857611e57611e03565b5b82820490509291505056fea2646970667358221220ddf99963c2c78c410266c5aaf0773f9033fc8824fe162614f11143b839dc3f9564736f6c63430008140033",
  "linkReferences": {},
  "deployedLinkReferences": {}
}