{
  "_format": "hh-sol-artifact-1",
  "contractName": "QuickJoin",
  "sourceName": "contracts/QuickJoin.sol",
  "abi": [
    {
      "inputs": [
        {
          "internalType": "address",
          "name": "_membershipNFTAddress",
          "type": "address"
        },
        {
          "internalType": "address",
          "name": "_directDemocracyTokenAddress",
          "type": "address"
        },
        {
          "internalType": "address",
          "name": "_accountManagerAddress",
          "type": "address"
        },
        {
          "internalType": "address",
          "name": "_masterDeployAddress",
          "type": "address"
        }
      ],
      "stateMutability": "nonpayable",
      "type": "constructor"
    },
    {
      "inputs": [
        {
          "internalType": "string",
          "name": "userName",
          "type": "string"
        }
      ],
      "name": "quickJoinNoUser",
      "outputs": [],
      "stateMutability": "nonpayable",
      "type": "function"
    },
    {
      "inputs": [
        {
          "internalType": "string",
          "name": "userName",
          "type": "string"
        },
        {
          "internalType": "address",
          "name": "newUser",
          "type": "address"
        }
      ],
      "name": "quickJoinNoUserMasterDeploy",
      "outputs": [],
      "stateMutability": "nonpayable",
      "type": "function"
    },
    {
      "inputs": [],
      "name": "quickJoinWithUser",
      "outputs": [],
      "stateMutability": "nonpayable",
      "type": "function"
    },
    {
      "inputs": [
        {
          "internalType": "address",
          "name": "newUser",
          "type": "address"
        }
      ],
      "name": "quickJoinWithUserMasterDeploy",
      "outputs": [],
      "stateMutability": "nonpayable",
      "type": "function"
    }
  ],
  "bytecode": "0x60806040523480156200001157600080fd5b5060405162000fed38038062000fed8339818101604052810190620000379190620001ae565b836000806101000a81548173ffffffffffffffffffffffffffffffffffffffff021916908373ffffffffffffffffffffffffffffffffffffffff16021790555082600160006101000a81548173ffffffffffffffffffffffffffffffffffffffff021916908373ffffffffffffffffffffffffffffffffffffffff16021790555081600260006101000a81548173ffffffffffffffffffffffffffffffffffffffff021916908373ffffffffffffffffffffffffffffffffffffffff16021790555080600360006101000a81548173ffffffffffffffffffffffffffffffffffffffff021916908373ffffffffffffffffffffffffffffffffffffffff1602179055505050505062000220565b600080fd5b600073ffffffffffffffffffffffffffffffffffffffff82169050919050565b6000620001768262000149565b9050919050565b620001888162000169565b81146200019457600080fd5b50565b600081519050620001a8816200017d565b92915050565b60008060008060808587031215620001cb57620001ca62000144565b5b6000620001db8782880162000197565b9450506020620001ee8782880162000197565b9350506040620002018782880162000197565b9250506060620002148782880162000197565b91505092959194509250565b610dbd80620002306000396000f3fe608060405234801561001057600080fd5b506004361061004c5760003560e01c80634bc30a371461005157806368585b031461006d5780639956a8a714610089578063b425c331146100a5575b600080fd5b61006b60048036038101906100669190610929565b6100af565b005b61008760048036038101906100829190610a9c565b61025a565b005b6100a3600480360381019061009e9190610af8565b610545565b005b6100ad61079d565b005b600360009054906101000a900473ffffffffffffffffffffffffffffffffffffffff1673ffffffffffffffffffffffffffffffffffffffff163373ffffffffffffffffffffffffffffffffffffffff161461013f576040517f08c379a000000000000000000000000000000000000000000000000000000000815260040161013690610bc4565b60405180910390fd5b60008054906101000a900473ffffffffffffffffffffffffffffffffffffffff1673ffffffffffffffffffffffffffffffffffffffff1663c86e4104826040518263ffffffff1660e01b81526004016101989190610bf3565b600060405180830381600087803b1580156101b257600080fd5b505af11580156101c6573d6000803e3d6000fd5b50505050600160009054906101000a900473ffffffffffffffffffffffffffffffffffffffff1673ffffffffffffffffffffffffffffffffffffffff16636a627842826040518263ffffffff1660e01b81526004016102259190610bf3565b600060405180830381600087803b15801561023f57600080fd5b505af1158015610253573d6000803e3d6000fd5b5050505050565b600360009054906101000a900473ffffffffffffffffffffffffffffffffffffffff1673ffffffffffffffffffffffffffffffffffffffff163373ffffffffffffffffffffffffffffffffffffffff16146102ea576040517f08c379a00000000000000000000000000000000000000000000000000000000081526004016102e190610bc4565b60405180910390fd5b6000600260009054906101000a900473ffffffffffffffffffffffffffffffffffffffff1673ffffffffffffffffffffffffffffffffffffffff1663ce43c032836040518263ffffffff1660e01b81526004016103479190610bf3565b600060405180830381865afa158015610364573d6000803e3d6000fd5b505050506040513d6000823e3d601f19601f8201168201806040525081019061038d9190610ca8565b9050600081510361042857600260009054906101000a900473ffffffffffffffffffffffffffffffffffffffff1673ffffffffffffffffffffffffffffffffffffffff166325a98bca84846040518363ffffffff1660e01b81526004016103f5929190610d35565b600060405180830381600087803b15801561040f57600080fd5b505af1158015610423573d6000803e3d6000fd5b505050505b60008054906101000a900473ffffffffffffffffffffffffffffffffffffffff1673ffffffffffffffffffffffffffffffffffffffff1663c86e4104836040518263ffffffff1660e01b81526004016104819190610bf3565b600060405180830381600087803b15801561049b57600080fd5b505af11580156104af573d6000803e3d6000fd5b50505050600160009054906101000a900473ffffffffffffffffffffffffffffffffffffffff1673ffffffffffffffffffffffffffffffffffffffff16636a627842836040518263ffffffff1660e01b815260040161050e9190610bf3565b600060405180830381600087803b15801561052857600080fd5b505af115801561053c573d6000803e3d6000fd5b50505050505050565b6000600260009054906101000a900473ffffffffffffffffffffffffffffffffffffffff1673ffffffffffffffffffffffffffffffffffffffff1663ce43c032336040518263ffffffff1660e01b81526004016105a29190610bf3565b600060405180830381865afa1580156105bf573d6000803e3d6000fd5b505050506040513d6000823e3d601f19601f820116820180604052508101906105e89190610ca8565b9050600081510361068157600260009054906101000a900473ffffffffffffffffffffffffffffffffffffffff1673ffffffffffffffffffffffffffffffffffffffff1663bff6de20836040518263ffffffff1660e01b815260040161064e9190610d65565b600060405180830381600087803b15801561066857600080fd5b505af115801561067c573d6000803e3d6000fd5b505050505b60008054906101000a900473ffffffffffffffffffffffffffffffffffffffff1673ffffffffffffffffffffffffffffffffffffffff1663c86e4104336040518263ffffffff1660e01b81526004016106da9190610bf3565b600060405180830381600087803b1580156106f457600080fd5b505af1158015610708573d6000803e3d6000fd5b50505050600160009054906101000a900473ffffffffffffffffffffffffffffffffffffffff1673ffffffffffffffffffffffffffffffffffffffff16636a627842336040518263ffffffff1660e01b81526004016107679190610bf3565b600060405180830381600087803b15801561078157600080fd5b505af1158015610795573d6000803e3d6000fd5b505050505050565b60008054906101000a900473ffffffffffffffffffffffffffffffffffffffff1673ffffffffffffffffffffffffffffffffffffffff1663c86e4104336040518263ffffffff1660e01b81526004016107f69190610bf3565b600060405180830381600087803b15801561081057600080fd5b505af1158015610824573d6000803e3d6000fd5b50505050600160009054906101000a900473ffffffffffffffffffffffffffffffffffffffff1673ffffffffffffffffffffffffffffffffffffffff16636a627842336040518263ffffffff1660e01b81526004016108839190610bf3565b600060405180830381600087803b15801561089d57600080fd5b505af11580156108b1573d6000803e3d6000fd5b50505050565b6000604051905090565b600080fd5b600080fd5b600073ffffffffffffffffffffffffffffffffffffffff82169050919050565b60006108f6826108cb565b9050919050565b610906816108eb565b811461091157600080fd5b50565b600081359050610923816108fd565b92915050565b60006020828403121561093f5761093e6108c1565b5b600061094d84828501610914565b91505092915050565b600080fd5b600080fd5b6000601f19601f8301169050919050565b7f4e487b7100000000000000000000000000000000000000000000000000000000600052604160045260246000fd5b6109a982610960565b810181811067ffffffffffffffff821117156109c8576109c7610971565b5b80604052505050565b60006109db6108b7565b90506109e782826109a0565b919050565b600067ffffffffffffffff821115610a0757610a06610971565b5b610a1082610960565b9050602081019050919050565b82818337600083830152505050565b6000610a3f610a3a846109ec565b6109d1565b905082815260208101848484011115610a5b57610a5a61095b565b5b610a66848285610a1d565b509392505050565b600082601f830112610a8357610a82610956565b5b8135610a93848260208601610a2c565b91505092915050565b60008060408385031215610ab357610ab26108c1565b5b600083013567ffffffffffffffff811115610ad157610ad06108c6565b5b610add85828601610a6e565b9250506020610aee85828601610914565b9150509250929050565b600060208284031215610b0e57610b0d6108c1565b5b600082013567ffffffffffffffff811115610b2c57610b2b6108c6565b5b610b3884828501610a6e565b91505092915050565b600082825260208201905092915050565b7f4f6e6c79204d61737465724465706c6f792063616e2063616c6c20746869732060008201527f66756e6374696f6e000000000000000000000000000000000000000000000000602082015250565b6000610bae602883610b41565b9150610bb982610b52565b604082019050919050565b60006020820190508181036000830152610bdd81610ba1565b9050919050565b610bed816108eb565b82525050565b6000602082019050610c086000830184610be4565b92915050565b60005b83811015610c2c578082015181840152602081019050610c11565b60008484015250505050565b6000610c4b610c46846109ec565b6109d1565b905082815260208101848484011115610c6757610c6661095b565b5b610c72848285610c0e565b509392505050565b600082601f830112610c8f57610c8e610956565b5b8151610c9f848260208601610c38565b91505092915050565b600060208284031215610cbe57610cbd6108c1565b5b600082015167ffffffffffffffff811115610cdc57610cdb6108c6565b5b610ce884828501610c7a565b91505092915050565b600081519050919050565b6000610d0782610cf1565b610d118185610b41565b9350610d21818560208601610c0e565b610d2a81610960565b840191505092915050565b60006040820190508181036000830152610d4f8185610cfc565b9050610d5e6020830184610be4565b9392505050565b60006020820190508181036000830152610d7f8184610cfc565b90509291505056fea2646970667358221220fbaecf41054930994ef611e7152636fe7f413f785c8e26be5f7510bef447914564736f6c63430008140033",
  "linkReferences": {},
  "deployedLinkReferences": {}
}