{"abi":[{"type":"constructor","inputs":[{"name":"_membershipNFTAddress","type":"address","internalType":"address"},{"name":"_directDemocracyTokenAddress","type":"address","internalType":"address"},{"name":"_accountManagerAddress","type":"address","internalType":"address"},{"name":"_masterDeployAddress","type":"address","internalType":"address"}],"stateMutability":"nonpayable"},{"type":"function","name":"quickJoinNoUser","inputs":[{"name":"userName","type":"string","internalType":"string"}],"outputs":[],"stateMutability":"nonpayable"},{"type":"function","name":"quickJoinNoUserMasterDeploy","inputs":[{"name":"userName","type":"string","internalType":"string"},{"name":"newUser","type":"address","internalType":"address"}],"outputs":[],"stateMutability":"nonpayable"},{"type":"function","name":"quickJoinWithUser","inputs":[],"outputs":[],"stateMutability":"nonpayable"},{"type":"function","name":"quickJoinWithUserMasterDeploy","inputs":[{"name":"newUser","type":"address","internalType":"address"}],"outputs":[],"stateMutability":"nonpayable"}],"bytecode":{"object":"0x60803460bd57601f6107fd38819003918201601f19168301916001600160401b0383118484101760c25780849260809460405283398101031260bd5760428160d8565b90604d6020820160d8565b60616060605b6040850160d8565b930160d8565b600080546001600160a01b03199081166001600160a01b03968716179091556001805482169386169390931790925560028054831693851693909317909255600380549091169190921617905560405161071190816100ec8239f35b600080fd5b634e487b7160e01b600052604160045260246000fd5b51906001600160a01b038216820360bd5756fe6080604052600436101561001257600080fd5b6000803560e01c80634bc30a371461044b57806368585b03146102835780639956a8a71461010c5763b425c3311461004957600080fd5b346100e657806003193601126100e657805481906001600160a01b0316803b156100f45781809160246040518094819363321b904160e21b83523360048401525af180156100e9576100f7575b506001546001600160a01b0316803b156100f4578180916024604051809481936335313c2160e11b83523360048401525af180156100e9576100d55750f35b816100df9161051c565b6100e65780f35b80fd5b6040513d84823e3d90fd5b50fd5b816101019161051c565b6100e6578038610096565b50346100e65760203660031901126100e6578060043567ffffffffffffffff81116100f45761013f903690600401610570565b600254604051636721e01960e11b81523360048201526001600160a01b03909116908381602481855afa908115610278578491610256575b5051156101fa575b505080546001600160a01b0316803b156100f45781809160246040518094819363321b904160e21b83523360048401525af180156100e9576100f757506001546001600160a01b0316803b156100f4578180916024604051809481936335313c2160e11b83523360048401525af180156100e9576100d55750f35b803b15610252576040516312d4c5e560e11b815291839183918290849082906102289033906004840161069e565b03925af180156100e95761023d575b8061017f565b816102479161051c565b6100e6578038610237565b5050fd5b61027291503d8086833e61026a818361051c565b81019061063c565b38610177565b6040513d86823e3d90fd5b50346100e65760403660031901126100e6578060043567ffffffffffffffff81116100f4576102b6903690600401610570565b6024356001600160a01b03811691828203610446576102e060018060a01b036003541633146105bc565b600254604051636721e01960e11b8152600481018590526001600160a01b0390911692908581602481875afa90811561043b578691610421575b5051156103c6575b505082546001600160a01b03169050803b156102525782809160246040518094819363321b904160e21b83528760048401525af19081156103bb5783916103a6575b50506001546001600160a01b031690813b156102525782916024839260405194859384926335313c2160e11b845260048401525af180156100e9576100d55750f35b816103b09161051c565b6100f4578138610364565b6040513d85823e3d90fd5b823b1561041d576103f0928592836040518096819582946312d4c5e560e11b84526004840161069e565b03925af19081156103bb578391610408575b80610322565b816104129161051c565b6100f4578138610402565b8480fd5b61043591503d8088833e61026a818361051c565b3861031a565b6040513d88823e3d90fd5b505050fd5b50346100e65760203660031901126100e6576004356001600160a01b03811691908290036100e65761048860018060a01b036003541633146105bc565b80546001600160a01b0316803b156105185781809160246040518094819363321b904160e21b83528860048401525af180156100e957610508575b50600154909182916001600160a01b031690813b156102525782916024839260405194859384926335313c2160e11b845260048401525af180156100e9576100d55750f35b816105129161051c565b386104c3565b5080fd5b90601f8019910116810190811067ffffffffffffffff82111761053e57604052565b634e487b7160e01b600052604160045260246000fd5b67ffffffffffffffff811161053e57601f01601f191660200190565b81601f820112156105b75780359061058782610554565b92610595604051948561051c565b828452602083830101116105b757816000926020809301838601378301015290565b600080fd5b156105c357565b60405162461bcd60e51b815260206004820152602860248201527f4f6e6c79204d61737465724465706c6f792063616e2063616c6c207468697320604482015267333ab731ba34b7b760c11b6064820152608490fd5b60005b83811061062c5750506000910152565b818101518382015260200161061c565b6020818303126105b75780519067ffffffffffffffff82116105b7570181601f820112156105b757805161066f81610554565b9261067d604051948561051c565b818452602082840101116105b75761069b9160208085019101610619565b90565b906060602091949394604084526106c381518092816040880152858588019101610619565b601f80199101168301019360018060a01b031691015256fea2646970667358221220bcb8253a1cd67cc41f594051e150d691b549d689d98ec0132aefb7c5cde93afd64736f6c634300081a0033","linkReferences":{}},"methodIdentifiers":{"quickJoinNoUser(string)":"9956a8a7","quickJoinNoUserMasterDeploy(string,address)":"68585b03","quickJoinWithUser()":"b425c331","quickJoinWithUserMasterDeploy(address)":"4bc30a37"},"id":56}