{
  "_format": "hh-sol-artifact-1",
  "contractName": "QuickJoin",
  "sourceName": "contracts/QuickJoin.sol",
  "abi": [
    {
      "inputs": [
        {
          "internalType": "address",
          "name": "_membershipNFTAddress",
          "type": "address"
        },
        {
          "internalType": "address",
          "name": "_directDemocracyTokenAddress",
          "type": "address"
        },
        {
          "internalType": "address",
          "name": "_accountManagerAddress",
          "type": "address"
        }
      ],
      "stateMutability": "nonpayable",
      "type": "constructor"
    },
    {
      "inputs": [
        {
          "internalType": "string",
          "name": "userName",
          "type": "string"
        }
      ],
      "name": "quickJoinNoUser",
      "outputs": [],
      "stateMutability": "nonpayable",
      "type": "function"
    },
    {
      "inputs": [],
      "name": "quickJoinWithUser",
      "outputs": [],
      "stateMutability": "nonpayable",
      "type": "function"
    }
  ],
  "bytecode": "0x608060405234801561001057600080fd5b506040516108f73803806108f78339818101604052810190610032919061015f565b826000806101000a81548173ffffffffffffffffffffffffffffffffffffffff021916908373ffffffffffffffffffffffffffffffffffffffff16021790555081600160006101000a81548173ffffffffffffffffffffffffffffffffffffffff021916908373ffffffffffffffffffffffffffffffffffffffff16021790555080600260006101000a81548173ffffffffffffffffffffffffffffffffffffffff021916908373ffffffffffffffffffffffffffffffffffffffff1602179055505050506101b2565b600080fd5b600073ffffffffffffffffffffffffffffffffffffffff82169050919050565b600061012c82610101565b9050919050565b61013c81610121565b811461014757600080fd5b50565b60008151905061015981610133565b92915050565b600080600060608486031215610178576101776100fc565b5b60006101868682870161014a565b93505060206101978682870161014a565b92505060406101a88682870161014a565b9150509250925092565b610736806101c16000396000f3fe608060405234801561001057600080fd5b50600436106100365760003560e01c80639956a8a71461003b578063b425c33114610057575b600080fd5b61005560048036038101906100509190610501565b610061565b005b61005f6102a3565b005b6000600260009054906101000a900473ffffffffffffffffffffffffffffffffffffffff1673ffffffffffffffffffffffffffffffffffffffff1663ce43c032336040518263ffffffff1660e01b81526004016100be919061058b565b600060405180830381865afa1580156100db573d6000803e3d6000fd5b505050506040513d6000823e3d601f19601f820116820180604052508101906101049190610640565b9050600081510361019d57600260009054906101000a900473ffffffffffffffffffffffffffffffffffffffff1673ffffffffffffffffffffffffffffffffffffffff1663bff6de20836040518263ffffffff1660e01b815260040161016a91906106de565b600060405180830381600087803b15801561018457600080fd5b505af1158015610198573d6000803e3d6000fd5b505050505b60008054906101000a900473ffffffffffffffffffffffffffffffffffffffff1673ffffffffffffffffffffffffffffffffffffffff16631574a6756040518163ffffffff1660e01b8152600401600060405180830381600087803b15801561020557600080fd5b505af1158015610219573d6000803e3d6000fd5b50505050600160009054906101000a900473ffffffffffffffffffffffffffffffffffffffff1673ffffffffffffffffffffffffffffffffffffffff16631249c58b6040518163ffffffff1660e01b8152600401600060405180830381600087803b15801561028757600080fd5b505af115801561029b573d6000803e3d6000fd5b505050505050565b60008054906101000a900473ffffffffffffffffffffffffffffffffffffffff1673ffffffffffffffffffffffffffffffffffffffff16631574a6756040518163ffffffff1660e01b8152600401600060405180830381600087803b15801561030b57600080fd5b505af115801561031f573d6000803e3d6000fd5b50505050600160009054906101000a900473ffffffffffffffffffffffffffffffffffffffff1673ffffffffffffffffffffffffffffffffffffffff16631249c58b6040518163ffffffff1660e01b8152600401600060405180830381600087803b15801561038d57600080fd5b505af11580156103a1573d6000803e3d6000fd5b50505050565b6000604051905090565b600080fd5b600080fd5b600080fd5b600080fd5b6000601f19601f8301169050919050565b7f4e487b7100000000000000000000000000000000000000000000000000000000600052604160045260246000fd5b61040e826103c5565b810181811067ffffffffffffffff8211171561042d5761042c6103d6565b5b80604052505050565b60006104406103a7565b905061044c8282610405565b919050565b600067ffffffffffffffff82111561046c5761046b6103d6565b5b610475826103c5565b9050602081019050919050565b82818337600083830152505050565b60006104a461049f84610451565b610436565b9050828152602081018484840111156104c0576104bf6103c0565b5b6104cb848285610482565b509392505050565b600082601f8301126104e8576104e76103bb565b5b81356104f8848260208601610491565b91505092915050565b600060208284031215610517576105166103b1565b5b600082013567ffffffffffffffff811115610535576105346103b6565b5b610541848285016104d3565b91505092915050565b600073ffffffffffffffffffffffffffffffffffffffff82169050919050565b60006105758261054a565b9050919050565b6105858161056a565b82525050565b60006020820190506105a0600083018461057c565b92915050565b60005b838110156105c45780820151818401526020810190506105a9565b60008484015250505050565b60006105e36105de84610451565b610436565b9050828152602081018484840111156105ff576105fe6103c0565b5b61060a8482856105a6565b509392505050565b600082601f830112610627576106266103bb565b5b81516106378482602086016105d0565b91505092915050565b600060208284031215610656576106556103b1565b5b600082015167ffffffffffffffff811115610674576106736103b6565b5b61068084828501610612565b91505092915050565b600081519050919050565b600082825260208201905092915050565b60006106b082610689565b6106ba8185610694565b93506106ca8185602086016105a6565b6106d3816103c5565b840191505092915050565b600060208201905081810360008301526106f881846106a5565b90509291505056fea26469706673582212202b09d53824cd8c5fde32ea02c222aac308e431f36fd5ba8f8a7183e5a055d9e664736f6c63430008140033",
  "linkReferences": {},
  "deployedLinkReferences": {}
}