{
  "_format": "hh-sol-artifact-1",
  "contractName": "RegistryFactory",
  "sourceName": "contracts/RegistryFactory.sol",
  "abi": [
    {
      "anonymous": false,
      "inputs": [
        {
          "indexed": false,
          "internalType": "address",
          "name": "newRegistryAddress",
          "type": "address"
        }
      ],
      "name": "RegistryCreated",
      "type": "event"
    },
    {
      "inputs": [
        {
          "internalType": "address",
          "name": "_VotingControlAddress",
          "type": "address"
        },
        {
          "internalType": "string[]",
          "name": "contractNames",
          "type": "string[]"
        },
        {
          "internalType": "address[]",
          "name": "contractAddresses",
          "type": "address[]"
        }
      ],
      "name": "createRegistry",
      "outputs": [
        {
          "internalType": "address",
          "name": "",
          "type": "address"
        }
      ],
      "stateMutability": "nonpayable",
      "type": "function"
    }
  ],
  "bytecode": "0x608060405234801561001057600080fd5b50611862806100206000396000f3fe60806040523480156200001157600080fd5b50600436106200002e5760003560e01c806344e281571462000033575b600080fd5b6200005160048036038101906200004b9190620004aa565b62000069565b60405162000060919062000555565b60405180910390f35b6000808484846040516200007d90620000ef565b6200008b9392919062000799565b604051809103906000f080158015620000a8573d6000803e3d6000fd5b5090507f3f204800c0e5d4c864ce5af4ec6df4566ef4e5ce94b654d6565870b67fc10d3c81604051620000dc919062000555565b60405180910390a1809150509392505050565b61104880620007e583390190565b6000604051905090565b600080fd5b600080fd5b600073ffffffffffffffffffffffffffffffffffffffff82169050919050565b60006200013e8262000111565b9050919050565b620001508162000131565b81146200015c57600080fd5b50565b600081359050620001708162000145565b92915050565b600080fd5b6000601f19601f8301169050919050565b7f4e487b7100000000000000000000000000000000000000000000000000000000600052604160045260246000fd5b620001c6826200017b565b810181811067ffffffffffffffff82111715620001e857620001e76200018c565b5b80604052505050565b6000620001fd620000fd565b90506200020b8282620001bb565b919050565b600067ffffffffffffffff8211156200022e576200022d6200018c565b5b602082029050602081019050919050565b600080fd5b600080fd5b600067ffffffffffffffff8211156200026757620002666200018c565b5b62000272826200017b565b9050602081019050919050565b82818337600083830152505050565b6000620002a56200029f8462000249565b620001f1565b905082815260208101848484011115620002c457620002c362000244565b5b620002d18482856200027f565b509392505050565b600082601f830112620002f157620002f062000176565b5b8135620003038482602086016200028e565b91505092915050565b6000620003236200031d8462000210565b620001f1565b905080838252602082019050602084028301858111156200034957620003486200023f565b5b835b818110156200039757803567ffffffffffffffff81111562000372576200037162000176565b5b808601620003818982620002d9565b855260208501945050506020810190506200034b565b5050509392505050565b600082601f830112620003b957620003b862000176565b5b8135620003cb8482602086016200030c565b91505092915050565b600067ffffffffffffffff821115620003f257620003f16200018c565b5b602082029050602081019050919050565b60006200041a6200041484620003d4565b620001f1565b9050808382526020820190506020840283018581111562000440576200043f6200023f565b5b835b818110156200046d57806200045888826200015f565b84526020840193505060208101905062000442565b5050509392505050565b600082601f8301126200048f576200048e62000176565b5b8135620004a184826020860162000403565b91505092915050565b600080600060608486031215620004c657620004c562000107565b5b6000620004d6868287016200015f565b935050602084013567ffffffffffffffff811115620004fa57620004f96200010c565b5b6200050886828701620003a1565b925050604084013567ffffffffffffffff8111156200052c576200052b6200010c565b5b6200053a8682870162000477565b9150509250925092565b6200054f8162000131565b82525050565b60006020820190506200056c600083018462000544565b92915050565b600081519050919050565b600082825260208201905092915050565b6000819050602082019050919050565b600081519050919050565b600082825260208201905092915050565b60005b83811015620005da578082015181840152602081019050620005bd565b60008484015250505050565b6000620005f3826200059e565b620005ff8185620005a9565b935062000611818560208601620005ba565b6200061c816200017b565b840191505092915050565b6000620006358383620005e6565b905092915050565b6000602082019050919050565b6000620006578262000572565b6200066381856200057d565b93508360208202850162000677856200058e565b8060005b85811015620006b9578484038952815162000697858262000627565b9450620006a4836200063d565b925060208a019950506001810190506200067b565b50829750879550505050505092915050565b600081519050919050565b600082825260208201905092915050565b6000819050602082019050919050565b620007028162000131565b82525050565b6000620007168383620006f7565b60208301905092915050565b6000602082019050919050565b60006200073c82620006cb565b620007488185620006d6565b93506200075583620006e7565b8060005b838110156200078c57815162000770888262000708565b97506200077d8362000722565b92505060018101905062000759565b5085935050505092915050565b6000606082019050620007b0600083018662000544565b8181036020830152620007c481856200064a565b90508181036040830152620007da81846200072f565b905094935050505056fe60806040523480156200001157600080fd5b50604051620010483803806200104883398181016040528101906200003791906200054e565b80518251146200007e576040517f08c379a000000000000000000000000000000000000000000000000000000000815260040162000075906200066f565b60405180910390fd5b826000806101000a81548173ffffffffffffffffffffffffffffffffffffffff021916908373ffffffffffffffffffffffffffffffffffffffff16021790555060005b82518110156200017a57818181518110620000e157620000e062000691565b5b6020026020010151600184838151811062000101576200010062000691565b5b60200260200101516040516200011891906200070d565b908152602001604051809103902060006101000a81548173ffffffffffffffffffffffffffffffffffffffff021916908373ffffffffffffffffffffffffffffffffffffffff160217905550808062000171906200075f565b915050620000c1565b50505050620007ac565b6000604051905090565b600080fd5b600080fd5b600073ffffffffffffffffffffffffffffffffffffffff82169050919050565b6000620001c58262000198565b9050919050565b620001d781620001b8565b8114620001e357600080fd5b50565b600081519050620001f781620001cc565b92915050565b600080fd5b6000601f19601f8301169050919050565b7f4e487b7100000000000000000000000000000000000000000000000000000000600052604160045260246000fd5b6200024d8262000202565b810181811067ffffffffffffffff821117156200026f576200026e62000213565b5b80604052505050565b60006200028462000184565b905062000292828262000242565b919050565b600067ffffffffffffffff821115620002b557620002b462000213565b5b602082029050602081019050919050565b600080fd5b600080fd5b600067ffffffffffffffff821115620002ee57620002ed62000213565b5b620002f98262000202565b9050602081019050919050565b60005b838110156200032657808201518184015260208101905062000309565b60008484015250505050565b6000620003496200034384620002d0565b62000278565b905082815260208101848484011115620003685762000367620002cb565b5b6200037584828562000306565b509392505050565b600082601f830112620003955762000394620001fd565b5b8151620003a784826020860162000332565b91505092915050565b6000620003c7620003c18462000297565b62000278565b90508083825260208201905060208402830185811115620003ed57620003ec620002c6565b5b835b818110156200043b57805167ffffffffffffffff811115620004165762000415620001fd565b5b8086016200042589826200037d565b85526020850194505050602081019050620003ef565b5050509392505050565b600082601f8301126200045d576200045c620001fd565b5b81516200046f848260208601620003b0565b91505092915050565b600067ffffffffffffffff82111562000496576200049562000213565b5b602082029050602081019050919050565b6000620004be620004b88462000478565b62000278565b90508083825260208201905060208402830185811115620004e457620004e3620002c6565b5b835b81811015620005115780620004fc8882620001e6565b845260208401935050602081019050620004e6565b5050509392505050565b600082601f830112620005335762000532620001fd565b5b815162000545848260208601620004a7565b91505092915050565b6000806000606084860312156200056a57620005696200018e565b5b60006200057a86828701620001e6565b935050602084015167ffffffffffffffff8111156200059e576200059d62000193565b5b620005ac8682870162000445565b925050604084015167ffffffffffffffff811115620005d057620005cf62000193565b5b620005de868287016200051b565b9150509250925092565b600082825260208201905092915050565b7f436f6e7472616374206e616d657320616e6420616464726573736573206d757360008201527f74206265206f66207468652073616d65206c656e677468000000000000000000602082015250565b600062000657603783620005e8565b91506200066482620005f9565b604082019050919050565b600060208201905081810360008301526200068a8162000648565b9050919050565b7f4e487b7100000000000000000000000000000000000000000000000000000000600052603260045260246000fd5b600081519050919050565b600081905092915050565b6000620006e382620006c0565b620006ef8185620006cb565b93506200070181856020860162000306565b80840191505092915050565b60006200071b8284620006d6565b915081905092915050565b7f4e487b7100000000000000000000000000000000000000000000000000000000600052601160045260246000fd5b6000819050919050565b60006200076c8262000755565b91507fffffffffffffffffffffffffffffffffffffffffffffffffffffffffffffffff8203620007a157620007a062000726565b5b600182019050919050565b61088c80620007bc6000396000f3fe608060405234801561001057600080fd5b50600436106100625760003560e01c806304433bbc146100675780631271bd531461009757806333b7c772146100b35780638c5b8385146100cf578063bf5b6016146100ff578063fa9896731461011b575b600080fd5b610081600480360381019061007c91906105f7565b610139565b60405161008e9190610681565b60405180910390f35b6100b160048036038101906100ac91906106c8565b610181565b005b6100cd60048036038101906100c89190610724565b610270565b005b6100e960048036038101906100e491906105f7565b610341565b6040516100f69190610681565b60405180910390f35b610119600480360381019061011491906106c8565b61038a565b005b610123610479565b6040516101309190610681565b60405180910390f35b600060018260405161014b91906107c2565b908152602001604051809103902060009054906101000a900473ffffffffffffffffffffffffffffffffffffffff169050919050565b60008054906101000a900473ffffffffffffffffffffffffffffffffffffffff1673ffffffffffffffffffffffffffffffffffffffff163373ffffffffffffffffffffffffffffffffffffffff161461020f576040517f08c379a000000000000000000000000000000000000000000000000000000000815260040161020690610836565b60405180910390fd5b8060018360405161022091906107c2565b908152602001604051809103902060006101000a81548173ffffffffffffffffffffffffffffffffffffffff021916908373ffffffffffffffffffffffffffffffffffffffff1602179055505050565b60008054906101000a900473ffffffffffffffffffffffffffffffffffffffff1673ffffffffffffffffffffffffffffffffffffffff163373ffffffffffffffffffffffffffffffffffffffff16146102fe576040517f08c379a00000000000000000000000000000000000000000000000000000000081526004016102f590610836565b60405180910390fd5b806000806101000a81548173ffffffffffffffffffffffffffffffffffffffff021916908373ffffffffffffffffffffffffffffffffffffffff16021790555050565b6001818051602081018201805184825260208301602085012081835280955050505050506000915054906101000a900473ffffffffffffffffffffffffffffffffffffffff1681565b60008054906101000a900473ffffffffffffffffffffffffffffffffffffffff1673ffffffffffffffffffffffffffffffffffffffff163373ffffffffffffffffffffffffffffffffffffffff1614610418576040517f08c379a000000000000000000000000000000000000000000000000000000000815260040161040f90610836565b60405180910390fd5b8060018360405161042991906107c2565b908152602001604051809103902060006101000a81548173ffffffffffffffffffffffffffffffffffffffff021916908373ffffffffffffffffffffffffffffffffffffffff1602179055505050565b60008054906101000a900473ffffffffffffffffffffffffffffffffffffffff1681565b6000604051905090565b600080fd5b600080fd5b600080fd5b600080fd5b6000601f19601f8301169050919050565b7f4e487b7100000000000000000000000000000000000000000000000000000000600052604160045260246000fd5b610504826104bb565b810181811067ffffffffffffffff82111715610523576105226104cc565b5b80604052505050565b600061053661049d565b905061054282826104fb565b919050565b600067ffffffffffffffff821115610562576105616104cc565b5b61056b826104bb565b9050602081019050919050565b82818337600083830152505050565b600061059a61059584610547565b61052c565b9050828152602081018484840111156105b6576105b56104b6565b5b6105c1848285610578565b509392505050565b600082601f8301126105de576105dd6104b1565b5b81356105ee848260208601610587565b91505092915050565b60006020828403121561060d5761060c6104a7565b5b600082013567ffffffffffffffff81111561062b5761062a6104ac565b5b610637848285016105c9565b91505092915050565b600073ffffffffffffffffffffffffffffffffffffffff82169050919050565b600061066b82610640565b9050919050565b61067b81610660565b82525050565b60006020820190506106966000830184610672565b92915050565b6106a581610660565b81146106b057600080fd5b50565b6000813590506106c28161069c565b92915050565b600080604083850312156106df576106de6104a7565b5b600083013567ffffffffffffffff8111156106fd576106fc6104ac565b5b610709858286016105c9565b925050602061071a858286016106b3565b9150509250929050565b60006020828403121561073a576107396104a7565b5b6000610748848285016106b3565b91505092915050565b600081519050919050565b600081905092915050565b60005b8381101561078557808201518184015260208101905061076a565b60008484015250505050565b600061079c82610751565b6107a6818561075c565b93506107b6818560208601610767565b80840191505092915050565b60006107ce8284610791565b915081905092915050565b600082825260208201905092915050565b7f4e6f7420617574686f72697a6564000000000000000000000000000000000000600082015250565b6000610820600e836107d9565b915061082b826107ea565b602082019050919050565b6000602082019050818103600083015261084f81610813565b905091905056fea2646970667358221220b0f282e467eaf4884168945001435e000b6f334a953842c9887208afda9e9d0964736f6c63430008140033a2646970667358221220e398f972d09fdc2158cf1fb4b7898ead11159888cecdfa2a22372c106719a81b64736f6c63430008140033",
  "linkReferences": {},
  "deployedLinkReferences": {}
}