{"abi":[{"type":"constructor","inputs":[{"name":"_VotingControlAddress","type":"address","internalType":"address"},{"name":"contractNames","type":"string[]","internalType":"string[]"},{"name":"contractAddresses","type":"address[]","internalType":"address[]"},{"name":"name","type":"string","internalType":"string"},{"name":"logo","type":"string","internalType":"string"},{"name":"hashInfo","type":"string","internalType":"string"}],"stateMutability":"nonpayable"},{"type":"function","name":"POname","inputs":[],"outputs":[{"name":"","type":"string","internalType":"string"}],"stateMutability":"view"},{"type":"function","name":"VotingControlAddress","inputs":[],"outputs":[{"name":"","type":"address","internalType":"address"}],"stateMutability":"view"},{"type":"function","name":"addContract","inputs":[{"name":"name","type":"string","internalType":"string"},{"name":"contractAddress","type":"address","internalType":"address"}],"outputs":[],"stateMutability":"nonpayable"},{"type":"function","name":"contracts","inputs":[{"name":"","type":"string","internalType":"string"}],"outputs":[{"name":"","type":"address","internalType":"address"}],"stateMutability":"view"},{"type":"function","name":"getContractAddress","inputs":[{"name":"name","type":"string","internalType":"string"}],"outputs":[{"name":"","type":"address","internalType":"address"}],"stateMutability":"view"},{"type":"function","name":"infoHash","inputs":[],"outputs":[{"name":"","type":"string","internalType":"string"}],"stateMutability":"view"},{"type":"function","name":"logoURL","inputs":[],"outputs":[{"name":"","type":"string","internalType":"string"}],"stateMutability":"view"},{"type":"function","name":"setVotingControlAddress","inputs":[{"name":"_address","type":"address","internalType":"address"}],"outputs":[],"stateMutability":"nonpayable"},{"type":"function","name":"upgradeContract","inputs":[{"name":"name","type":"string","internalType":"string"},{"name":"newAddress","type":"address","internalType":"address"}],"outputs":[],"stateMutability":"nonpayable"},{"type":"event","name":"ContractAdded","inputs":[{"name":"name","type":"string","indexed":false,"internalType":"string"},{"name":"contractAddress","type":"address","indexed":false,"internalType":"address"}],"anonymous":false},{"type":"event","name":"ContractUpgraded","inputs":[{"name":"name","type":"string","indexed":false,"internalType":"string"},{"name":"newAddress","type":"address","indexed":false,"internalType":"address"}],"anonymous":false},{"type":"event","name":"Initialized","inputs":[{"name":"VotingControlAddress","type":"address","indexed":false,"internalType":"address"},{"name":"contractNames","type":"string[]","indexed":false,"internalType":"string[]"},{"name":"contractAddresses","type":"address[]","indexed":false,"internalType":"address[]"}],"anonymous":false},{"type":"event","name":"VotingControlAddressSet","inputs":[{"name":"newAddress","type":"address","indexed":false,"internalType":"address"}],"anonymous":false}],"bytecode":{"object":"0x60806040523461066157610e3380380380610019816106ab565b92833981019060c08183031261066157610032816106d0565b60208201516001600160401b0381116106615782019083601f83011215610661578151610066610061826106e4565b6106ab565b9260208085848152019260051b820101918683116106615760208201905b83821061067e575050505060408301516001600160401b0381116106615783019284601f85011215610661578351936100bf610061866106e4565b9460208087838152019160051b8301019187831161066157602001905b8282106106665750505060608101516001600160401b038111610661578561010591830161071e565b60808201519091906001600160401b038111610661578661012791830161071e565b60a08201519096906001600160401b03811161066157610147920161071e565b815190916001600160401b0382116104715760025490600182811c92168015610657575b60208310146104515781601f8493116105e7575b50602090601f831160011461057f57600092610574575b50508160011b916000199060031b1c1916176002555b8051906001600160401b0382116104715760035490600182811c9216801561056a575b60208310146104515781601f8493116104fa575b50602090601f831160011461049257600092610487575b50508160011b916000199060031b1c1916176003555b83516001600160401b03811161047157600454600181811c91168015610467575b602082101461045157601f81116103ec575b50602094601f82116001146103855794819293949560009261037a575b50508160011b916000199060031b1c1916176004555b815183510361030f57600080546001600160a01b0319166001600160a01b03929092169190911781555b8151811015610300576001906001600160a01b036102be828661076e565b51166102e360206102cf848761076e565b5181604051938285809451938492016106fb565b81018681520301902090838060a01b0319825416179055016102a0565b60405161069a90816107998239f35b60405162461bcd60e51b815260206004820152603760248201527f436f6e7472616374206e616d657320616e6420616464726573736573206d757360448201527f74206265206f66207468652073616d65206c656e6774680000000000000000006064820152608490fd5b015190503880610260565b601f198216956004600052806000209160005b8881106103d4575083600195969798106103bb575b505050811b01600455610276565b015160001960f88460031b161c191690553880806103ad565b91926020600181928685015181550194019201610398565b60046000527f8a35acfbc15ff81a39ae7d344fd709f28e8600b4aa8c65c6b64bfe7fe36bd19b601f830160051c81019160208410610447575b601f0160051c01905b81811061043b5750610243565b6000815560010161042e565b9091508190610425565b634e487b7160e01b600052602260045260246000fd5b90607f1690610231565b634e487b7160e01b600052604160045260246000fd5b0151905038806101fa565b600360009081528281209350601f198516905b8181106104e257509084600195949392106104c9575b505050811b01600355610210565b015160001960f88460031b161c191690553880806104bb565b929360206001819287860151815501950193016104a5565b60036000529091507fc2575a0e9e593c00f959f8c92f12db2869c3395a3b0502d05e2516446f71f85b601f840160051c81019160208510610560575b90601f859493920160051c01905b81811061055157506101e3565b60008155849350600101610544565b9091508190610536565b91607f16916101cf565b015190503880610196565b600260009081528281209350601f198516905b8181106105cf57509084600195949392106105b6575b505050811b016002556101ac565b015160001960f88460031b161c191690553880806105a8565b92936020600181928786015181550195019301610592565b60026000529091507f405787fa12a823e0f2b7631cc41b3ba8828b3321ca811111fa75cd3aa3bb5ace601f840160051c8101916020851061064d575b90601f859493920160051c01905b81811061063e575061017f565b60008155849350600101610631565b9091508190610623565b91607f169161016b565b600080fd5b60208091610673846106d0565b8152019101906100dc565b81516001600160401b038111610661576020916106a08a84809488010161071e565b815201910190610084565b6040519190601f01601f191682016001600160401b0381118382101761047157604052565b51906001600160a01b038216820361066157565b6001600160401b0381116104715760051b60200190565b60005b83811061070e5750506000910152565b81810151838201526020016106fe565b81601f820112156106615780516001600160401b0381116104715761074c601f8201601f19166020016106ab565b92818452602082840101116106615761076b91602080850191016106fb565b90565b80518210156107825760209160051b010190565b634e487b7160e01b600052603260045260246000fdfe6080604052600436101561001257600080fd5b60003560e01c806304433bbc146103145780631271bd53146104b757806333b7c7721461043c57806365a6f49e1461037d5780638c5b838514610314578063bf5b60161461027f578063d2ce89e5146101c0578063ed0b8f61146100ad5763fa9896731461007f57600080fd5b346100a85760003660031901126100a8576000546040516001600160a01b039091168152602090f35b600080fd5b346100a85760003660031901126100a85760006040519080600354908160011c916001811680156101b6575b6020841081146101a25783865290811561017b575060011461011e575b61011a84610106818603826104e6565b6040519182916020835260208301906105da565b0390f35b600381527fc2575a0e9e593c00f959f8c92f12db2869c3395a3b0502d05e2516446f71f85b939250905b80821061016157509091508101602001610106826100f6565b919260018160209254838588010152019101909291610148565b60ff191660208087019190915292151560051b8501909201925061010691508390506100f6565b634e487b7160e01b83526022600452602483fd5b92607f16926100d9565b346100a85760003660031901126100a85760006040519080600454908160011c91600181168015610275575b6020841081146101a25783865290811561017b57506001146102185761011a84610106818603826104e6565b600481527f8a35acfbc15ff81a39ae7d344fd709f28e8600b4aa8c65c6b64bfe7fe36bd19b939250905b80821061025b57509091508101602001610106826100f6565b919260018160209254838588010152019101909291610242565b92607f16926101ec565b346100a8577f8b4ef7d4e5bc8f098e6f637ac0acf4aee47b3f027efea6307264b06b4bc9d2986102ae36610575565b906102c460018060a01b036000541633146105ff565b60405160208183516102d981838588016105b7565b60019082019081520301902080546001600160a01b0319166001600160a01b03841617905560405191829161030f91908361063c565b0390a1005b346100a85760203660031901126100a85760043567ffffffffffffffff81116100a857610347602091369060040161051e565b8161035b60405192838151938492016105b7565b600190820190815281900382019020546040516001600160a01b039091168152f35b346100a85760003660031901126100a85760006040519080600254908160011c91600181168015610432575b6020841081146101a25783865290811561017b57506001146103d55761011a84610106818603826104e6565b600281527f405787fa12a823e0f2b7631cc41b3ba8828b3321ca811111fa75cd3aa3bb5ace939250905b80821061041857509091508101602001610106826100f6565b9192600181602092548385880101520191019092916103ff565b92607f16926103a9565b346100a85760203660031901126100a8576004356001600160a01b038116908190036100a8576000547f986b38cbf58019252e004ee67a71af38521b9e0ef2baea619d4236e707eecfbb9160209181906104a0336001600160a01b038316146105ff565b6001600160a01b03191617600055604051908152a1005b346100a8577f2b51ff7c4cc8e6fe1c72e9d9685b7d2a88a5d82ad3a644afbdceb0272c89c1c36102ae36610575565b90601f8019910116810190811067ffffffffffffffff82111761050857604052565b634e487b7160e01b600052604160045260246000fd5b81601f820112156100a85780359067ffffffffffffffff82116105085760405192610553601f8401601f1916602001856104e6565b828452602083830101116100a857816000926020809301838601378301015290565b60406003198201126100a8576004359067ffffffffffffffff82116100a8576105a09160040161051e565b906024356001600160a01b03811681036100a85790565b60005b8381106105ca5750506000910152565b81810151838201526020016105ba565b906020916105f3815180928185528580860191016105b7565b601f01601f1916010190565b1561060657565b60405162461bcd60e51b815260206004820152600e60248201526d139bdd08185d5d1a1bdc9a5e995960921b6044820152606490fd5b906106546020919493946040845260408401906105da565b6001600160a01b0390941691015256fea264697066735822122003448b13281a53c472edbce85657227996683ddcaeebbdc0384eb45752dcbd5f64736f6c634300081a0033","linkReferences":{}},"methodIdentifiers":{"POname()":"65a6f49e","VotingControlAddress()":"fa989673","addContract(string,address)":"bf5b6016","contracts(string)":"8c5b8385","getContractAddress(string)":"04433bbc","infoHash()":"ed0b8f61","logoURL()":"d2ce89e5","setVotingControlAddress(address)":"33b7c772","upgradeContract(string,address)":"1271bd53"},"id":58}