{
  "_format": "hh-sol-artifact-1",
  "contractName": "RegistryFactory",
  "sourceName": "contracts/RegistryFactory.sol",
  "abi": [
    {
      "anonymous": false,
      "inputs": [
        {
          "indexed": false,
          "internalType": "address",
          "name": "newRegistryAddress",
          "type": "address"
        },
        {
          "indexed": false,
          "internalType": "string",
          "name": "POname",
          "type": "string"
        },
        {
          "indexed": false,
          "internalType": "string",
          "name": "logoURL",
          "type": "string"
        },
        {
          "indexed": false,
          "internalType": "address",
          "name": "VotingControlAddress",
          "type": "address"
        },
        {
          "indexed": false,
          "internalType": "string[]",
          "name": "contractNames",
          "type": "string[]"
        },
        {
          "indexed": false,
          "internalType": "address[]",
          "name": "contractAddresses",
          "type": "address[]"
        }
      ],
      "name": "RegistryCreated",
      "type": "event"
    },
    {
      "inputs": [
        {
          "internalType": "address",
          "name": "_VotingControlAddress",
          "type": "address"
        },
        {
          "internalType": "string[]",
          "name": "contractNames",
          "type": "string[]"
        },
        {
          "internalType": "address[]",
          "name": "contractAddresses",
          "type": "address[]"
        },
        {
          "internalType": "string",
          "name": "POname",
          "type": "string"
        },
        {
          "internalType": "string",
          "name": "logoURL",
          "type": "string"
        }
      ],
      "name": "createRegistry",
      "outputs": [
        {
          "internalType": "address",
          "name": "",
          "type": "address"
        }
      ],
      "stateMutability": "nonpayable",
      "type": "function"
    }
  ],
  "bytecode": "0x608060405234801561001057600080fd5b50611ac5806100206000396000f3fe60806040523480156200001157600080fd5b50600436106200002e5760003560e01c8063a1453ba81462000033575b600080fd5b6200005160048036038101906200004b9190620004b6565b62000069565b604051620000609190620005cb565b60405180910390f35b6000808686866040516200007d90620000fb565b6200008b939291906200080f565b604051809103906000f080158015620000a8573d6000803e3d6000fd5b5090507f9287ba345b2211c6cb61887dc076d4d15fc3d80b5ee32bb654f050fda1d064518185858a8a8a604051620000e696959493929190620008ac565b60405180910390a18091505095945050505050565b61115a806200093683390190565b6000604051905090565b600080fd5b600080fd5b600073ffffffffffffffffffffffffffffffffffffffff82169050919050565b60006200014a826200011d565b9050919050565b6200015c816200013d565b81146200016857600080fd5b50565b6000813590506200017c8162000151565b92915050565b600080fd5b6000601f19601f8301169050919050565b7f4e487b7100000000000000000000000000000000000000000000000000000000600052604160045260246000fd5b620001d28262000187565b810181811067ffffffffffffffff82111715620001f457620001f362000198565b5b80604052505050565b60006200020962000109565b9050620002178282620001c7565b919050565b600067ffffffffffffffff8211156200023a576200023962000198565b5b602082029050602081019050919050565b600080fd5b600080fd5b600067ffffffffffffffff82111562000273576200027262000198565b5b6200027e8262000187565b9050602081019050919050565b82818337600083830152505050565b6000620002b1620002ab8462000255565b620001fd565b905082815260208101848484011115620002d057620002cf62000250565b5b620002dd8482856200028b565b509392505050565b600082601f830112620002fd57620002fc62000182565b5b81356200030f8482602086016200029a565b91505092915050565b60006200032f62000329846200021c565b620001fd565b905080838252602082019050602084028301858111156200035557620003546200024b565b5b835b81811015620003a357803567ffffffffffffffff8111156200037e576200037d62000182565b5b8086016200038d8982620002e5565b8552602085019450505060208101905062000357565b5050509392505050565b600082601f830112620003c557620003c462000182565b5b8135620003d784826020860162000318565b91505092915050565b600067ffffffffffffffff821115620003fe57620003fd62000198565b5b602082029050602081019050919050565b6000620004266200042084620003e0565b620001fd565b905080838252602082019050602084028301858111156200044c576200044b6200024b565b5b835b818110156200047957806200046488826200016b565b8452602084019350506020810190506200044e565b5050509392505050565b600082601f8301126200049b576200049a62000182565b5b8135620004ad8482602086016200040f565b91505092915050565b600080600080600060a08688031215620004d557620004d462000113565b5b6000620004e5888289016200016b565b955050602086013567ffffffffffffffff81111562000509576200050862000118565b5b6200051788828901620003ad565b945050604086013567ffffffffffffffff8111156200053b576200053a62000118565b5b620005498882890162000483565b935050606086013567ffffffffffffffff8111156200056d576200056c62000118565b5b6200057b88828901620002e5565b925050608086013567ffffffffffffffff8111156200059f576200059e62000118565b5b620005ad88828901620002e5565b9150509295509295909350565b620005c5816200013d565b82525050565b6000602082019050620005e26000830184620005ba565b92915050565b600081519050919050565b600082825260208201905092915050565b6000819050602082019050919050565b600081519050919050565b600082825260208201905092915050565b60005b838110156200065057808201518184015260208101905062000633565b60008484015250505050565b6000620006698262000614565b6200067581856200061f565b93506200068781856020860162000630565b620006928162000187565b840191505092915050565b6000620006ab83836200065c565b905092915050565b6000602082019050919050565b6000620006cd82620005e8565b620006d98185620005f3565b935083602082028501620006ed8562000604565b8060005b858110156200072f57848403895281516200070d85826200069d565b94506200071a83620006b3565b925060208a01995050600181019050620006f1565b50829750879550505050505092915050565b600081519050919050565b600082825260208201905092915050565b6000819050602082019050919050565b62000778816200013d565b82525050565b60006200078c83836200076d565b60208301905092915050565b6000602082019050919050565b6000620007b28262000741565b620007be81856200074c565b9350620007cb836200075d565b8060005b8381101562000802578151620007e688826200077e565b9750620007f38362000798565b925050600181019050620007cf565b5085935050505092915050565b6000606082019050620008266000830186620005ba565b81810360208301526200083a8185620006c0565b90508181036040830152620008508184620007a5565b9050949350505050565b600082825260208201905092915050565b6000620008788262000614565b6200088481856200085a565b93506200089681856020860162000630565b620008a18162000187565b840191505092915050565b600060c082019050620008c36000830189620005ba565b8181036020830152620008d781886200086b565b90508181036040830152620008ed81876200086b565b9050620008fe6060830186620005ba565b8181036080830152620009128185620006c0565b905081810360a0830152620009288184620007a5565b905097965050505050505056fe60806040523480156200001157600080fd5b506040516200115a3803806200115a83398181016040528101906200003791906200054e565b80518251146200007e576040517f08c379a000000000000000000000000000000000000000000000000000000000815260040162000075906200066f565b60405180910390fd5b826000806101000a81548173ffffffffffffffffffffffffffffffffffffffff021916908373ffffffffffffffffffffffffffffffffffffffff16021790555060005b82518110156200017a57818181518110620000e157620000e062000691565b5b6020026020010151600184838151811062000101576200010062000691565b5b60200260200101516040516200011891906200070d565b908152602001604051809103902060006101000a81548173ffffffffffffffffffffffffffffffffffffffff021916908373ffffffffffffffffffffffffffffffffffffffff160217905550808062000171906200075f565b915050620000c1565b50505050620007ac565b6000604051905090565b600080fd5b600080fd5b600073ffffffffffffffffffffffffffffffffffffffff82169050919050565b6000620001c58262000198565b9050919050565b620001d781620001b8565b8114620001e357600080fd5b50565b600081519050620001f781620001cc565b92915050565b600080fd5b6000601f19601f8301169050919050565b7f4e487b7100000000000000000000000000000000000000000000000000000000600052604160045260246000fd5b6200024d8262000202565b810181811067ffffffffffffffff821117156200026f576200026e62000213565b5b80604052505050565b60006200028462000184565b905062000292828262000242565b919050565b600067ffffffffffffffff821115620002b557620002b462000213565b5b602082029050602081019050919050565b600080fd5b600080fd5b600067ffffffffffffffff821115620002ee57620002ed62000213565b5b620002f98262000202565b9050602081019050919050565b60005b838110156200032657808201518184015260208101905062000309565b60008484015250505050565b6000620003496200034384620002d0565b62000278565b905082815260208101848484011115620003685762000367620002cb565b5b6200037584828562000306565b509392505050565b600082601f830112620003955762000394620001fd565b5b8151620003a784826020860162000332565b91505092915050565b6000620003c7620003c18462000297565b62000278565b90508083825260208201905060208402830185811115620003ed57620003ec620002c6565b5b835b818110156200043b57805167ffffffffffffffff811115620004165762000415620001fd565b5b8086016200042589826200037d565b85526020850194505050602081019050620003ef565b5050509392505050565b600082601f8301126200045d576200045c620001fd565b5b81516200046f848260208601620003b0565b91505092915050565b600067ffffffffffffffff82111562000496576200049562000213565b5b602082029050602081019050919050565b6000620004be620004b88462000478565b62000278565b90508083825260208201905060208402830185811115620004e457620004e3620002c6565b5b835b81811015620005115780620004fc8882620001e6565b845260208401935050602081019050620004e6565b5050509392505050565b600082601f830112620005335762000532620001fd565b5b815162000545848260208601620004a7565b91505092915050565b6000806000606084860312156200056a57620005696200018e565b5b60006200057a86828701620001e6565b935050602084015167ffffffffffffffff8111156200059e576200059d62000193565b5b620005ac8682870162000445565b925050604084015167ffffffffffffffff811115620005d057620005cf62000193565b5b620005de868287016200051b565b9150509250925092565b600082825260208201905092915050565b7f436f6e7472616374206e616d657320616e6420616464726573736573206d757360008201527f74206265206f66207468652073616d65206c656e677468000000000000000000602082015250565b600062000657603783620005e8565b91506200066482620005f9565b604082019050919050565b600060208201905081810360008301526200068a8162000648565b9050919050565b7f4e487b7100000000000000000000000000000000000000000000000000000000600052603260045260246000fd5b600081519050919050565b600081905092915050565b6000620006e382620006c0565b620006ef8185620006cb565b93506200070181856020860162000306565b80840191505092915050565b60006200071b8284620006d6565b915081905092915050565b7f4e487b7100000000000000000000000000000000000000000000000000000000600052601160045260246000fd5b6000819050919050565b60006200076c8262000755565b91507fffffffffffffffffffffffffffffffffffffffffffffffffffffffffffffffff8203620007a157620007a062000726565b5b600182019050919050565b61099e80620007bc6000396000f3fe608060405234801561001057600080fd5b50600436106100625760003560e01c806304433bbc146100675780631271bd531461009757806333b7c772146100b35780638c5b8385146100cf578063bf5b6016146100ff578063fa9896731461011b575b600080fd5b610081600480360381019061007c91906106a0565b610139565b60405161008e919061072a565b60405180910390f35b6100b160048036038101906100ac9190610771565b610181565b005b6100cd60048036038101906100c891906107cd565b6102a9565b005b6100e960048036038101906100e491906106a0565b6103b1565b6040516100f6919061072a565b60405180910390f35b61011960048036038101906101149190610771565b6103fa565b005b610123610522565b604051610130919061072a565b60405180910390f35b600060018260405161014b919061086b565b908152602001604051809103902060009054906101000a900473ffffffffffffffffffffffffffffffffffffffff169050919050565b60008054906101000a900473ffffffffffffffffffffffffffffffffffffffff1673ffffffffffffffffffffffffffffffffffffffff163373ffffffffffffffffffffffffffffffffffffffff161461020f576040517f08c379a0000000000000000000000000000000000000000000000000000000008152600401610206906108df565b60405180910390fd5b80600183604051610220919061086b565b908152602001604051809103902060006101000a81548173ffffffffffffffffffffffffffffffffffffffff021916908373ffffffffffffffffffffffffffffffffffffffff1602179055507f2b51ff7c4cc8e6fe1c72e9d9685b7d2a88a5d82ad3a644afbdceb0272c89c1c3828260405161029d929190610938565b60405180910390a15050565b60008054906101000a900473ffffffffffffffffffffffffffffffffffffffff1673ffffffffffffffffffffffffffffffffffffffff163373ffffffffffffffffffffffffffffffffffffffff1614610337576040517f08c379a000000000000000000000000000000000000000000000000000000000815260040161032e906108df565b60405180910390fd5b806000806101000a81548173ffffffffffffffffffffffffffffffffffffffff021916908373ffffffffffffffffffffffffffffffffffffffff1602179055507f986b38cbf58019252e004ee67a71af38521b9e0ef2baea619d4236e707eecfbb816040516103a6919061072a565b60405180910390a150565b6001818051602081018201805184825260208301602085012081835280955050505050506000915054906101000a900473ffffffffffffffffffffffffffffffffffffffff1681565b60008054906101000a900473ffffffffffffffffffffffffffffffffffffffff1673ffffffffffffffffffffffffffffffffffffffff163373ffffffffffffffffffffffffffffffffffffffff1614610488576040517f08c379a000000000000000000000000000000000000000000000000000000000815260040161047f906108df565b60405180910390fd5b80600183604051610499919061086b565b908152602001604051809103902060006101000a81548173ffffffffffffffffffffffffffffffffffffffff021916908373ffffffffffffffffffffffffffffffffffffffff1602179055507f8b4ef7d4e5bc8f098e6f637ac0acf4aee47b3f027efea6307264b06b4bc9d2988282604051610516929190610938565b60405180910390a15050565b60008054906101000a900473ffffffffffffffffffffffffffffffffffffffff1681565b6000604051905090565b600080fd5b600080fd5b600080fd5b600080fd5b6000601f19601f8301169050919050565b7f4e487b7100000000000000000000000000000000000000000000000000000000600052604160045260246000fd5b6105ad82610564565b810181811067ffffffffffffffff821117156105cc576105cb610575565b5b80604052505050565b60006105df610546565b90506105eb82826105a4565b919050565b600067ffffffffffffffff82111561060b5761060a610575565b5b61061482610564565b9050602081019050919050565b82818337600083830152505050565b600061064361063e846105f0565b6105d5565b90508281526020810184848401111561065f5761065e61055f565b5b61066a848285610621565b509392505050565b600082601f8301126106875761068661055a565b5b8135610697848260208601610630565b91505092915050565b6000602082840312156106b6576106b5610550565b5b600082013567ffffffffffffffff8111156106d4576106d3610555565b5b6106e084828501610672565b91505092915050565b600073ffffffffffffffffffffffffffffffffffffffff82169050919050565b6000610714826106e9565b9050919050565b61072481610709565b82525050565b600060208201905061073f600083018461071b565b92915050565b61074e81610709565b811461075957600080fd5b50565b60008135905061076b81610745565b92915050565b6000806040838503121561078857610787610550565b5b600083013567ffffffffffffffff8111156107a6576107a5610555565b5b6107b285828601610672565b92505060206107c38582860161075c565b9150509250929050565b6000602082840312156107e3576107e2610550565b5b60006107f18482850161075c565b91505092915050565b600081519050919050565b600081905092915050565b60005b8381101561082e578082015181840152602081019050610813565b60008484015250505050565b6000610845826107fa565b61084f8185610805565b935061085f818560208601610810565b80840191505092915050565b6000610877828461083a565b915081905092915050565b600082825260208201905092915050565b7f4e6f7420617574686f72697a6564000000000000000000000000000000000000600082015250565b60006108c9600e83610882565b91506108d482610893565b602082019050919050565b600060208201905081810360008301526108f8816108bc565b9050919050565b600061090a826107fa565b6109148185610882565b9350610924818560208601610810565b61092d81610564565b840191505092915050565b6000604082019050818103600083015261095281856108ff565b9050610961602083018461071b565b939250505056fea2646970667358221220d169c9336c1752366f59646738951ea3187eb820ab7965afc05bd1b946a749c764736f6c63430008140033a26469706673582212205d00a1b2063b48e00b6988df37bab2b10ebc7c5aa3171f862fe726f971549f9264736f6c63430008140033",
  "linkReferences": {},
  "deployedLinkReferences": {}
}