{
  "_format": "hh-sol-artifact-1",
  "contractName": "RegistryFactory",
  "sourceName": "contracts/RegistryFactory.sol",
  "abi": [
    {
      "anonymous": false,
      "inputs": [
        {
          "indexed": false,
          "internalType": "address",
          "name": "newRegistryAddress",
          "type": "address"
        },
        {
          "indexed": false,
          "internalType": "string",
          "name": "POname",
          "type": "string"
        },
        {
          "indexed": false,
          "internalType": "string",
          "name": "logoURL",
          "type": "string"
        },
        {
          "indexed": false,
          "internalType": "address",
          "name": "VotingControlAddress",
          "type": "address"
        },
        {
          "indexed": false,
          "internalType": "string[]",
          "name": "contractNames",
          "type": "string[]"
        },
        {
          "indexed": false,
          "internalType": "address[]",
          "name": "contractAddresses",
          "type": "address[]"
        },
        {
          "indexed": false,
          "internalType": "string",
          "name": "POinfoHash",
          "type": "string"
        }
      ],
      "name": "RegistryCreated",
      "type": "event"
    },
    {
      "inputs": [
        {
          "internalType": "address",
          "name": "_VotingControlAddress",
          "type": "address"
        },
        {
          "internalType": "string[]",
          "name": "contractNames",
          "type": "string[]"
        },
        {
          "internalType": "address[]",
          "name": "contractAddresses",
          "type": "address[]"
        },
        {
          "internalType": "string",
          "name": "POname",
          "type": "string"
        },
        {
          "internalType": "string",
          "name": "logoURL",
          "type": "string"
        },
        {
          "internalType": "string",
          "name": "POinfoHash",
          "type": "string"
        }
      ],
      "name": "createRegistry",
      "outputs": [
        {
          "internalType": "address",
          "name": "",
          "type": "address"
        }
      ],
      "stateMutability": "nonpayable",
      "type": "function"
    }
  ],
  "bytecode": "0x608060405234801561001057600080fd5b506120f1806100206000396000f3fe60806040523480156200001157600080fd5b50600436106200002e5760003560e01c8063108bb1fa1462000033575b600080fd5b6200005160048036038101906200004b9190620004bd565b62000069565b60405162000060919062000605565b60405180910390f35b60008087878785886040516200007f9062000102565b6200008f9594939291906200089b565b604051809103906000f080158015620000ac573d6000803e3d6000fd5b5090507ff791498fc4232ffc3b84c0eb7b81c0e1e0a2bf85b8ec9a796b062402de8fedc18186868b8b8b89604051620000ec979695949392919062000914565b60405180910390a1809150509695505050505050565b61170780620009b583390190565b6000604051905090565b600080fd5b600080fd5b600073ffffffffffffffffffffffffffffffffffffffff82169050919050565b6000620001518262000124565b9050919050565b620001638162000144565b81146200016f57600080fd5b50565b600081359050620001838162000158565b92915050565b600080fd5b6000601f19601f8301169050919050565b7f4e487b7100000000000000000000000000000000000000000000000000000000600052604160045260246000fd5b620001d9826200018e565b810181811067ffffffffffffffff82111715620001fb57620001fa6200019f565b5b80604052505050565b60006200021062000110565b90506200021e8282620001ce565b919050565b600067ffffffffffffffff8211156200024157620002406200019f565b5b602082029050602081019050919050565b600080fd5b600080fd5b600067ffffffffffffffff8211156200027a57620002796200019f565b5b62000285826200018e565b9050602081019050919050565b82818337600083830152505050565b6000620002b8620002b2846200025c565b62000204565b905082815260208101848484011115620002d757620002d662000257565b5b620002e484828562000292565b509392505050565b600082601f83011262000304576200030362000189565b5b813562000316848260208601620002a1565b91505092915050565b600062000336620003308462000223565b62000204565b905080838252602082019050602084028301858111156200035c576200035b62000252565b5b835b81811015620003aa57803567ffffffffffffffff81111562000385576200038462000189565b5b808601620003948982620002ec565b855260208501945050506020810190506200035e565b5050509392505050565b600082601f830112620003cc57620003cb62000189565b5b8135620003de8482602086016200031f565b91505092915050565b600067ffffffffffffffff8211156200040557620004046200019f565b5b602082029050602081019050919050565b60006200042d6200042784620003e7565b62000204565b9050808382526020820190506020840283018581111562000453576200045262000252565b5b835b818110156200048057806200046b888262000172565b84526020840193505060208101905062000455565b5050509392505050565b600082601f830112620004a257620004a162000189565b5b8135620004b484826020860162000416565b91505092915050565b60008060008060008060c08789031215620004dd57620004dc6200011a565b5b6000620004ed89828a0162000172565b965050602087013567ffffffffffffffff8111156200051157620005106200011f565b5b6200051f89828a01620003b4565b955050604087013567ffffffffffffffff8111156200054357620005426200011f565b5b6200055189828a016200048a565b945050606087013567ffffffffffffffff8111156200057557620005746200011f565b5b6200058389828a01620002ec565b935050608087013567ffffffffffffffff811115620005a757620005a66200011f565b5b620005b589828a01620002ec565b92505060a087013567ffffffffffffffff811115620005d957620005d86200011f565b5b620005e789828a01620002ec565b9150509295509295509295565b620005ff8162000144565b82525050565b60006020820190506200061c6000830184620005f4565b92915050565b600081519050919050565b600082825260208201905092915050565b6000819050602082019050919050565b600081519050919050565b600082825260208201905092915050565b60005b838110156200068a5780820151818401526020810190506200066d565b60008484015250505050565b6000620006a3826200064e565b620006af818562000659565b9350620006c18185602086016200066a565b620006cc816200018e565b840191505092915050565b6000620006e5838362000696565b905092915050565b6000602082019050919050565b6000620007078262000622565b6200071381856200062d565b93508360208202850162000727856200063e565b8060005b85811015620007695784840389528151620007478582620006d7565b94506200075483620006ed565b925060208a019950506001810190506200072b565b50829750879550505050505092915050565b600081519050919050565b600082825260208201905092915050565b6000819050602082019050919050565b620007b28162000144565b82525050565b6000620007c68383620007a7565b60208301905092915050565b6000602082019050919050565b6000620007ec826200077b565b620007f8818562000786565b9350620008058362000797565b8060005b838110156200083c578151620008208882620007b8565b97506200082d83620007d2565b92505060018101905062000809565b5085935050505092915050565b600082825260208201905092915050565b600062000867826200064e565b62000873818562000849565b9350620008858185602086016200066a565b62000890816200018e565b840191505092915050565b600060a082019050620008b26000830188620005f4565b8181036020830152620008c68187620006fa565b90508181036040830152620008dc8186620007df565b90508181036060830152620008f281856200085a565b905081810360808301526200090881846200085a565b90509695505050505050565b600060e0820190506200092b600083018a620005f4565b81810360208301526200093f81896200085a565b905081810360408301526200095581886200085a565b9050620009666060830187620005f4565b81810360808301526200097a8186620006fa565b905081810360a0830152620009908185620007df565b905081810360c0830152620009a681846200085a565b90509897505050505050505056fe60806040523480156200001157600080fd5b506040516200170738038062001707833981810160405281019062000037919062000574565b8060029081620000489190620008c3565b5081600390816200005a9190620008c3565b508251845114620000a2576040517f08c379a0000000000000000000000000000000000000000000000000000000008152600401620000999062000a31565b60405180910390fd5b846000806101000a81548173ffffffffffffffffffffffffffffffffffffffff021916908373ffffffffffffffffffffffffffffffffffffffff16021790555060005b84518110156200019e5783818151811062000105576200010462000a53565b5b6020026020010151600186838151811062000125576200012462000a53565b5b60200260200101516040516200013c919062000ac4565b908152602001604051809103902060006101000a81548173ffffffffffffffffffffffffffffffffffffffff021916908373ffffffffffffffffffffffffffffffffffffffff1602179055508080620001959062000b0c565b915050620000e5565b50505050505062000b59565b6000604051905090565b600080fd5b600080fd5b600073ffffffffffffffffffffffffffffffffffffffff82169050919050565b6000620001eb82620001be565b9050919050565b620001fd81620001de565b81146200020957600080fd5b50565b6000815190506200021d81620001f2565b92915050565b600080fd5b6000601f19601f8301169050919050565b7f4e487b7100000000000000000000000000000000000000000000000000000000600052604160045260246000fd5b620002738262000228565b810181811067ffffffffffffffff8211171562000295576200029462000239565b5b80604052505050565b6000620002aa620001aa565b9050620002b8828262000268565b919050565b600067ffffffffffffffff821115620002db57620002da62000239565b5b602082029050602081019050919050565b600080fd5b600080fd5b600067ffffffffffffffff82111562000314576200031362000239565b5b6200031f8262000228565b9050602081019050919050565b60005b838110156200034c5780820151818401526020810190506200032f565b60008484015250505050565b60006200036f6200036984620002f6565b6200029e565b9050828152602081018484840111156200038e576200038d620002f1565b5b6200039b8482856200032c565b509392505050565b600082601f830112620003bb57620003ba62000223565b5b8151620003cd84826020860162000358565b91505092915050565b6000620003ed620003e784620002bd565b6200029e565b90508083825260208201905060208402830185811115620004135762000412620002ec565b5b835b818110156200046157805167ffffffffffffffff8111156200043c576200043b62000223565b5b8086016200044b8982620003a3565b8552602085019450505060208101905062000415565b5050509392505050565b600082601f83011262000483576200048262000223565b5b815162000495848260208601620003d6565b91505092915050565b600067ffffffffffffffff821115620004bc57620004bb62000239565b5b602082029050602081019050919050565b6000620004e4620004de846200049e565b6200029e565b905080838252602082019050602084028301858111156200050a5762000509620002ec565b5b835b818110156200053757806200052288826200020c565b8452602084019350506020810190506200050c565b5050509392505050565b600082601f83011262000559576200055862000223565b5b81516200056b848260208601620004cd565b91505092915050565b600080600080600060a08688031215620005935762000592620001b4565b5b6000620005a3888289016200020c565b955050602086015167ffffffffffffffff811115620005c757620005c6620001b9565b5b620005d5888289016200046b565b945050604086015167ffffffffffffffff811115620005f957620005f8620001b9565b5b620006078882890162000541565b935050606086015167ffffffffffffffff8111156200062b576200062a620001b9565b5b6200063988828901620003a3565b925050608086015167ffffffffffffffff8111156200065d576200065c620001b9565b5b6200066b88828901620003a3565b9150509295509295909350565b600081519050919050565b7f4e487b7100000000000000000000000000000000000000000000000000000000600052602260045260246000fd5b60006002820490506001821680620006cb57607f821691505b602082108103620006e157620006e062000683565b5b50919050565b60008190508160005260206000209050919050565b60006020601f8301049050919050565b600082821b905092915050565b6000600883026200074b7fffffffffffffffffffffffffffffffffffffffffffffffffffffffffffffffff826200070c565b6200075786836200070c565b95508019841693508086168417925050509392505050565b6000819050919050565b6000819050919050565b6000620007a46200079e62000798846200076f565b62000779565b6200076f565b9050919050565b6000819050919050565b620007c08362000783565b620007d8620007cf82620007ab565b84845462000719565b825550505050565b600090565b620007ef620007e0565b620007fc818484620007b5565b505050565b5b81811015620008245762000818600082620007e5565b60018101905062000802565b5050565b601f82111562000873576200083d81620006e7565b6200084884620006fc565b8101602085101562000858578190505b620008706200086785620006fc565b83018262000801565b50505b505050565b600082821c905092915050565b6000620008986000198460080262000878565b1980831691505092915050565b6000620008b3838362000885565b9150826002028217905092915050565b620008ce8262000678565b67ffffffffffffffff811115620008ea57620008e962000239565b5b620008f68254620006b2565b6200090382828562000828565b600060209050601f8311600181146200093b576000841562000926578287015190505b620009328582620008a5565b865550620009a2565b601f1984166200094b86620006e7565b60005b8281101562000975578489015182556001820191506020850194506020810190506200094e565b8683101562000995578489015162000991601f89168262000885565b8355505b6001600288020188555050505b505050505050565b600082825260208201905092915050565b7f436f6e7472616374206e616d657320616e6420616464726573736573206d757360008201527f74206265206f66207468652073616d65206c656e677468000000000000000000602082015250565b600062000a19603783620009aa565b915062000a2682620009bb565b604082019050919050565b6000602082019050818103600083015262000a4c8162000a0a565b9050919050565b7f4e487b7100000000000000000000000000000000000000000000000000000000600052603260045260246000fd5b600081905092915050565b600062000a9a8262000678565b62000aa6818562000a82565b935062000ab88185602086016200032c565b80840191505092915050565b600062000ad2828462000a8d565b915081905092915050565b7f4e487b7100000000000000000000000000000000000000000000000000000000600052601160045260246000fd5b600062000b19826200076f565b91507fffffffffffffffffffffffffffffffffffffffffffffffffffffffffffffffff820362000b4e5762000b4d62000add565b5b600182019050919050565b610b9e8062000b696000396000f3fe608060405234801561001057600080fd5b50600436106100885760003560e01c806365a6f49e1161005b57806365a6f49e146101135780638c5b838514610131578063bf5b601614610161578063fa9896731461017d57610088565b806304433bbc1461008d5780631271bd53146100bd5780631544aaee146100d957806333b7c772146100f7575b600080fd5b6100a760048036038101906100a2919061081e565b61019b565b6040516100b491906108a8565b60405180910390f35b6100d760048036038101906100d291906108ef565b6101e3565b005b6100e161030b565b6040516100ee91906109ca565b60405180910390f35b610111600480360381019061010c91906109ec565b610399565b005b61011b6104a1565b60405161012891906109ca565b60405180910390f35b61014b6004803603810190610146919061081e565b61052f565b60405161015891906108a8565b60405180910390f35b61017b600480360381019061017691906108ef565b610578565b005b6101856106a0565b60405161019291906108a8565b60405180910390f35b60006001826040516101ad9190610a55565b908152602001604051809103902060009054906101000a900473ffffffffffffffffffffffffffffffffffffffff169050919050565b60008054906101000a900473ffffffffffffffffffffffffffffffffffffffff1673ffffffffffffffffffffffffffffffffffffffff163373ffffffffffffffffffffffffffffffffffffffff1614610271576040517f08c379a000000000000000000000000000000000000000000000000000000000815260040161026890610ab8565b60405180910390fd5b806001836040516102829190610a55565b908152602001604051809103902060006101000a81548173ffffffffffffffffffffffffffffffffffffffff021916908373ffffffffffffffffffffffffffffffffffffffff1602179055507f2b51ff7c4cc8e6fe1c72e9d9685b7d2a88a5d82ad3a644afbdceb0272c89c1c382826040516102ff929190610ad8565b60405180910390a15050565b6003805461031890610b37565b80601f016020809104026020016040519081016040528092919081815260200182805461034490610b37565b80156103915780601f1061036657610100808354040283529160200191610391565b820191906000526020600020905b81548152906001019060200180831161037457829003601f168201915b505050505081565b60008054906101000a900473ffffffffffffffffffffffffffffffffffffffff1673ffffffffffffffffffffffffffffffffffffffff163373ffffffffffffffffffffffffffffffffffffffff1614610427576040517f08c379a000000000000000000000000000000000000000000000000000000000815260040161041e90610ab8565b60405180910390fd5b806000806101000a81548173ffffffffffffffffffffffffffffffffffffffff021916908373ffffffffffffffffffffffffffffffffffffffff1602179055507f986b38cbf58019252e004ee67a71af38521b9e0ef2baea619d4236e707eecfbb8160405161049691906108a8565b60405180910390a150565b600280546104ae90610b37565b80601f01602080910402602001604051908101604052809291908181526020018280546104da90610b37565b80156105275780601f106104fc57610100808354040283529160200191610527565b820191906000526020600020905b81548152906001019060200180831161050a57829003601f168201915b505050505081565b6001818051602081018201805184825260208301602085012081835280955050505050506000915054906101000a900473ffffffffffffffffffffffffffffffffffffffff1681565b60008054906101000a900473ffffffffffffffffffffffffffffffffffffffff1673ffffffffffffffffffffffffffffffffffffffff163373ffffffffffffffffffffffffffffffffffffffff1614610606576040517f08c379a00000000000000000000000000000000000000000000000000000000081526004016105fd90610ab8565b60405180910390fd5b806001836040516106179190610a55565b908152602001604051809103902060006101000a81548173ffffffffffffffffffffffffffffffffffffffff021916908373ffffffffffffffffffffffffffffffffffffffff1602179055507f8b4ef7d4e5bc8f098e6f637ac0acf4aee47b3f027efea6307264b06b4bc9d2988282604051610694929190610ad8565b60405180910390a15050565b60008054906101000a900473ffffffffffffffffffffffffffffffffffffffff1681565b6000604051905090565b600080fd5b600080fd5b600080fd5b600080fd5b6000601f19601f8301169050919050565b7f4e487b7100000000000000000000000000000000000000000000000000000000600052604160045260246000fd5b61072b826106e2565b810181811067ffffffffffffffff8211171561074a576107496106f3565b5b80604052505050565b600061075d6106c4565b90506107698282610722565b919050565b600067ffffffffffffffff821115610789576107886106f3565b5b610792826106e2565b9050602081019050919050565b82818337600083830152505050565b60006107c16107bc8461076e565b610753565b9050828152602081018484840111156107dd576107dc6106dd565b5b6107e884828561079f565b509392505050565b600082601f830112610805576108046106d8565b5b81356108158482602086016107ae565b91505092915050565b600060208284031215610834576108336106ce565b5b600082013567ffffffffffffffff811115610852576108516106d3565b5b61085e848285016107f0565b91505092915050565b600073ffffffffffffffffffffffffffffffffffffffff82169050919050565b600061089282610867565b9050919050565b6108a281610887565b82525050565b60006020820190506108bd6000830184610899565b92915050565b6108cc81610887565b81146108d757600080fd5b50565b6000813590506108e9816108c3565b92915050565b60008060408385031215610906576109056106ce565b5b600083013567ffffffffffffffff811115610924576109236106d3565b5b610930858286016107f0565b9250506020610941858286016108da565b9150509250929050565b600081519050919050565b600082825260208201905092915050565b60005b8381101561098557808201518184015260208101905061096a565b60008484015250505050565b600061099c8261094b565b6109a68185610956565b93506109b6818560208601610967565b6109bf816106e2565b840191505092915050565b600060208201905081810360008301526109e48184610991565b905092915050565b600060208284031215610a0257610a016106ce565b5b6000610a10848285016108da565b91505092915050565b600081905092915050565b6000610a2f8261094b565b610a398185610a19565b9350610a49818560208601610967565b80840191505092915050565b6000610a618284610a24565b915081905092915050565b7f4e6f7420617574686f72697a6564000000000000000000000000000000000000600082015250565b6000610aa2600e83610956565b9150610aad82610a6c565b602082019050919050565b60006020820190508181036000830152610ad181610a95565b9050919050565b60006040820190508181036000830152610af28185610991565b9050610b016020830184610899565b9392505050565b7f4e487b7100000000000000000000000000000000000000000000000000000000600052602260045260246000fd5b60006002820490506001821680610b4f57607f821691505b602082108103610b6257610b61610b08565b5b5091905056fea26469706673582212202d2e2ea3b9a5070844c07da7795958cf0c706b984ce33c1d3cea939004ced8d964736f6c63430008140033a26469706673582212208f8dd67b63ec993cf0877dac147bc4e1aa5a027a1d1b9f4f1e6f5c3f8906d70164736f6c63430008140033",
  "linkReferences": {},
  "deployedLinkReferences": {}
}