{
  "_format": "hh-sol-artifact-1",
  "contractName": "Registry",
  "sourceName": "contracts/Registry.sol",
  "abi": [
    {
      "inputs": [
        {
          "internalType": "address",
          "name": "_VotingControlAddress",
          "type": "address"
        },
        {
          "internalType": "string[]",
          "name": "contractNames",
          "type": "string[]"
        },
        {
          "internalType": "address[]",
          "name": "contractAddresses",
          "type": "address[]"
        },
        {
          "internalType": "string",
          "name": "name",
          "type": "string"
        },
        {
          "internalType": "string",
          "name": "logo",
          "type": "string"
        },
        {
          "internalType": "string",
          "name": "hashInfo",
          "type": "string"
        }
      ],
      "stateMutability": "nonpayable",
      "type": "constructor"
    },
    {
      "anonymous": false,
      "inputs": [
        {
          "indexed": false,
          "internalType": "string",
          "name": "name",
          "type": "string"
        },
        {
          "indexed": false,
          "internalType": "address",
          "name": "contractAddress",
          "type": "address"
        }
      ],
      "name": "ContractAdded",
      "type": "event"
    },
    {
      "anonymous": false,
      "inputs": [
        {
          "indexed": false,
          "internalType": "string",
          "name": "name",
          "type": "string"
        },
        {
          "indexed": false,
          "internalType": "address",
          "name": "newAddress",
          "type": "address"
        }
      ],
      "name": "ContractUpgraded",
      "type": "event"
    },
    {
      "anonymous": false,
      "inputs": [
        {
          "indexed": false,
          "internalType": "address",
          "name": "VotingControlAddress",
          "type": "address"
        },
        {
          "indexed": false,
          "internalType": "string[]",
          "name": "contractNames",
          "type": "string[]"
        },
        {
          "indexed": false,
          "internalType": "address[]",
          "name": "contractAddresses",
          "type": "address[]"
        }
      ],
      "name": "Initialized",
      "type": "event"
    },
    {
      "anonymous": false,
      "inputs": [
        {
          "indexed": false,
          "internalType": "address",
          "name": "newAddress",
          "type": "address"
        }
      ],
      "name": "VotingControlAddressSet",
      "type": "event"
    },
    {
      "inputs": [],
      "name": "POname",
      "outputs": [
        {
          "internalType": "string",
          "name": "",
          "type": "string"
        }
      ],
      "stateMutability": "view",
      "type": "function"
    },
    {
      "inputs": [],
      "name": "VotingControlAddress",
      "outputs": [
        {
          "internalType": "address",
          "name": "",
          "type": "address"
        }
      ],
      "stateMutability": "view",
      "type": "function"
    },
    {
      "inputs": [
        {
          "internalType": "string",
          "name": "name",
          "type": "string"
        },
        {
          "internalType": "address",
          "name": "contractAddress",
          "type": "address"
        }
      ],
      "name": "addContract",
      "outputs": [],
      "stateMutability": "nonpayable",
      "type": "function"
    },
    {
      "inputs": [
        {
          "internalType": "string",
          "name": "",
          "type": "string"
        }
      ],
      "name": "contracts",
      "outputs": [
        {
          "internalType": "address",
          "name": "",
          "type": "address"
        }
      ],
      "stateMutability": "view",
      "type": "function"
    },
    {
      "inputs": [
        {
          "internalType": "string",
          "name": "name",
          "type": "string"
        }
      ],
      "name": "getContractAddress",
      "outputs": [
        {
          "internalType": "address",
          "name": "",
          "type": "address"
        }
      ],
      "stateMutability": "view",
      "type": "function"
    },
    {
      "inputs": [],
      "name": "infoHash",
      "outputs": [
        {
          "internalType": "string",
          "name": "",
          "type": "string"
        }
      ],
      "stateMutability": "view",
      "type": "function"
    },
    {
      "inputs": [],
      "name": "logoURL",
      "outputs": [
        {
          "internalType": "string",
          "name": "",
          "type": "string"
        }
      ],
      "stateMutability": "view",
      "type": "function"
    },
    {
      "inputs": [
        {
          "internalType": "address",
          "name": "_address",
          "type": "address"
        }
      ],
      "name": "setVotingControlAddress",
      "outputs": [],
      "stateMutability": "nonpayable",
      "type": "function"
    },
    {
      "inputs": [
        {
          "internalType": "string",
          "name": "name",
          "type": "string"
        },
        {
          "internalType": "address",
          "name": "newAddress",
          "type": "address"
        }
      ],
      "name": "upgradeContract",
      "outputs": [],
      "stateMutability": "nonpayable",
      "type": "function"
    }
  ],
  "bytecode": "0x60806040523480156200001157600080fd5b506040516200180438038062001804833981810160405281019062000037919062000587565b826002908162000048919062000909565b5080600390816200005a919062000909565b5081600490816200006c919062000909565b508351855114620000b4576040517f08c379a0000000000000000000000000000000000000000000000000000000008152600401620000ab9062000a77565b60405180910390fd5b856000806101000a81548173ffffffffffffffffffffffffffffffffffffffff021916908373ffffffffffffffffffffffffffffffffffffffff16021790555060005b8551811015620001b05784818151811062000117576200011662000a99565b5b6020026020010151600187838151811062000137576200013662000a99565b5b60200260200101516040516200014e919062000b0a565b908152602001604051809103902060006101000a81548173ffffffffffffffffffffffffffffffffffffffff021916908373ffffffffffffffffffffffffffffffffffffffff1602179055508080620001a79062000b52565b915050620000f7565b5050505050505062000b9f565b6000604051905090565b600080fd5b600080fd5b600073ffffffffffffffffffffffffffffffffffffffff82169050919050565b6000620001fe82620001d1565b9050919050565b6200021081620001f1565b81146200021c57600080fd5b50565b600081519050620002308162000205565b92915050565b600080fd5b6000601f19601f8301169050919050565b7f4e487b7100000000000000000000000000000000000000000000000000000000600052604160045260246000fd5b62000286826200023b565b810181811067ffffffffffffffff82111715620002a857620002a76200024c565b5b80604052505050565b6000620002bd620001bd565b9050620002cb82826200027b565b919050565b600067ffffffffffffffff821115620002ee57620002ed6200024c565b5b602082029050602081019050919050565b600080fd5b600080fd5b600067ffffffffffffffff8211156200032757620003266200024c565b5b62000332826200023b565b9050602081019050919050565b60005b838110156200035f57808201518184015260208101905062000342565b60008484015250505050565b6000620003826200037c8462000309565b620002b1565b905082815260208101848484011115620003a157620003a062000304565b5b620003ae8482856200033f565b509392505050565b600082601f830112620003ce57620003cd62000236565b5b8151620003e08482602086016200036b565b91505092915050565b600062000400620003fa84620002d0565b620002b1565b90508083825260208201905060208402830185811115620004265762000425620002ff565b5b835b818110156200047457805167ffffffffffffffff8111156200044f576200044e62000236565b5b8086016200045e8982620003b6565b8552602085019450505060208101905062000428565b5050509392505050565b600082601f83011262000496576200049562000236565b5b8151620004a8848260208601620003e9565b91505092915050565b600067ffffffffffffffff821115620004cf57620004ce6200024c565b5b602082029050602081019050919050565b6000620004f7620004f184620004b1565b620002b1565b905080838252602082019050602084028301858111156200051d576200051c620002ff565b5b835b818110156200054a57806200053588826200021f565b8452602084019350506020810190506200051f565b5050509392505050565b600082601f8301126200056c576200056b62000236565b5b81516200057e848260208601620004e0565b91505092915050565b60008060008060008060c08789031215620005a757620005a6620001c7565b5b6000620005b789828a016200021f565b965050602087015167ffffffffffffffff811115620005db57620005da620001cc565b5b620005e989828a016200047e565b955050604087015167ffffffffffffffff8111156200060d576200060c620001cc565b5b6200061b89828a0162000554565b945050606087015167ffffffffffffffff8111156200063f576200063e620001cc565b5b6200064d89828a01620003b6565b935050608087015167ffffffffffffffff811115620006715762000670620001cc565b5b6200067f89828a01620003b6565b92505060a087015167ffffffffffffffff811115620006a357620006a2620001cc565b5b620006b189828a01620003b6565b9150509295509295509295565b600081519050919050565b7f4e487b7100000000000000000000000000000000000000000000000000000000600052602260045260246000fd5b600060028204905060018216806200071157607f821691505b602082108103620007275762000726620006c9565b5b50919050565b60008190508160005260206000209050919050565b60006020601f8301049050919050565b600082821b905092915050565b600060088302620007917fffffffffffffffffffffffffffffffffffffffffffffffffffffffffffffffff8262000752565b6200079d868362000752565b95508019841693508086168417925050509392505050565b6000819050919050565b6000819050919050565b6000620007ea620007e4620007de84620007b5565b620007bf565b620007b5565b9050919050565b6000819050919050565b6200080683620007c9565b6200081e6200081582620007f1565b8484546200075f565b825550505050565b600090565b6200083562000826565b62000842818484620007fb565b505050565b5b818110156200086a576200085e6000826200082b565b60018101905062000848565b5050565b601f821115620008b95762000883816200072d565b6200088e8462000742565b810160208510156200089e578190505b620008b6620008ad8562000742565b83018262000847565b50505b505050565b600082821c905092915050565b6000620008de60001984600802620008be565b1980831691505092915050565b6000620008f98383620008cb565b9150826002028217905092915050565b6200091482620006be565b67ffffffffffffffff81111562000930576200092f6200024c565b5b6200093c8254620006f8565b620009498282856200086e565b600060209050601f8311600181146200098157600084156200096c578287015190505b620009788582620008eb565b865550620009e8565b601f19841662000991866200072d565b60005b82811015620009bb5784890151825560018201915060208501945060208101905062000994565b86831015620009db5784890151620009d7601f891682620008cb565b8355505b6001600288020188555050505b505050505050565b600082825260208201905092915050565b7f436f6e7472616374206e616d657320616e6420616464726573736573206d757360008201527f74206265206f66207468652073616d65206c656e677468000000000000000000602082015250565b600062000a5f603783620009f0565b915062000a6c8262000a01565b604082019050919050565b6000602082019050818103600083015262000a928162000a50565b9050919050565b7f4e487b7100000000000000000000000000000000000000000000000000000000600052603260045260246000fd5b600081905092915050565b600062000ae082620006be565b62000aec818562000ac8565b935062000afe8185602086016200033f565b80840191505092915050565b600062000b18828462000ad3565b915081905092915050565b7f4e487b7100000000000000000000000000000000000000000000000000000000600052601160045260246000fd5b600062000b5f82620007b5565b91507fffffffffffffffffffffffffffffffffffffffffffffffffffffffffffffffff820362000b945762000b9362000b23565b5b600182019050919050565b610c558062000baf6000396000f3fe608060405234801561001057600080fd5b50600436106100935760003560e01c80638c5b8385116100665780638c5b83851461011e578063bf5b60161461014e578063d2ce89e51461016a578063ed0b8f6114610188578063fa989673146101a657610093565b806304433bbc146100985780631271bd53146100c857806333b7c772146100e457806365a6f49e14610100575b600080fd5b6100b260048036038101906100ad91906108d5565b6101c4565b6040516100bf919061095f565b60405180910390f35b6100e260048036038101906100dd91906109a6565b61020c565b005b6100fe60048036038101906100f99190610a02565b610334565b005b61010861043c565b6040516101159190610aae565b60405180910390f35b610138600480360381019061013391906108d5565b6104ca565b604051610145919061095f565b60405180910390f35b610168600480360381019061016391906109a6565b610513565b005b61017261063b565b60405161017f9190610aae565b60405180910390f35b6101906106c9565b60405161019d9190610aae565b60405180910390f35b6101ae610757565b6040516101bb919061095f565b60405180910390f35b60006001826040516101d69190610b0c565b908152602001604051809103902060009054906101000a900473ffffffffffffffffffffffffffffffffffffffff169050919050565b60008054906101000a900473ffffffffffffffffffffffffffffffffffffffff1673ffffffffffffffffffffffffffffffffffffffff163373ffffffffffffffffffffffffffffffffffffffff161461029a576040517f08c379a000000000000000000000000000000000000000000000000000000000815260040161029190610b6f565b60405180910390fd5b806001836040516102ab9190610b0c565b908152602001604051809103902060006101000a81548173ffffffffffffffffffffffffffffffffffffffff021916908373ffffffffffffffffffffffffffffffffffffffff1602179055507f2b51ff7c4cc8e6fe1c72e9d9685b7d2a88a5d82ad3a644afbdceb0272c89c1c38282604051610328929190610b8f565b60405180910390a15050565b60008054906101000a900473ffffffffffffffffffffffffffffffffffffffff1673ffffffffffffffffffffffffffffffffffffffff163373ffffffffffffffffffffffffffffffffffffffff16146103c2576040517f08c379a00000000000000000000000000000000000000000000000000000000081526004016103b990610b6f565b60405180910390fd5b806000806101000a81548173ffffffffffffffffffffffffffffffffffffffff021916908373ffffffffffffffffffffffffffffffffffffffff1602179055507f986b38cbf58019252e004ee67a71af38521b9e0ef2baea619d4236e707eecfbb81604051610431919061095f565b60405180910390a150565b6002805461044990610bee565b80601f016020809104026020016040519081016040528092919081815260200182805461047590610bee565b80156104c25780601f10610497576101008083540402835291602001916104c2565b820191906000526020600020905b8154815290600101906020018083116104a557829003601f168201915b505050505081565b6001818051602081018201805184825260208301602085012081835280955050505050506000915054906101000a900473ffffffffffffffffffffffffffffffffffffffff1681565b60008054906101000a900473ffffffffffffffffffffffffffffffffffffffff1673ffffffffffffffffffffffffffffffffffffffff163373ffffffffffffffffffffffffffffffffffffffff16146105a1576040517f08c379a000000000000000000000000000000000000000000000000000000000815260040161059890610b6f565b60405180910390fd5b806001836040516105b29190610b0c565b908152602001604051809103902060006101000a81548173ffffffffffffffffffffffffffffffffffffffff021916908373ffffffffffffffffffffffffffffffffffffffff1602179055507f8b4ef7d4e5bc8f098e6f637ac0acf4aee47b3f027efea6307264b06b4bc9d298828260405161062f929190610b8f565b60405180910390a15050565b6004805461064890610bee565b80601f016020809104026020016040519081016040528092919081815260200182805461067490610bee565b80156106c15780601f10610696576101008083540402835291602001916106c1565b820191906000526020600020905b8154815290600101906020018083116106a457829003601f168201915b505050505081565b600380546106d690610bee565b80601f016020809104026020016040519081016040528092919081815260200182805461070290610bee565b801561074f5780601f106107245761010080835404028352916020019161074f565b820191906000526020600020905b81548152906001019060200180831161073257829003601f168201915b505050505081565b60008054906101000a900473ffffffffffffffffffffffffffffffffffffffff1681565b6000604051905090565b600080fd5b600080fd5b600080fd5b600080fd5b6000601f19601f8301169050919050565b7f4e487b7100000000000000000000000000000000000000000000000000000000600052604160045260246000fd5b6107e282610799565b810181811067ffffffffffffffff82111715610801576108006107aa565b5b80604052505050565b600061081461077b565b905061082082826107d9565b919050565b600067ffffffffffffffff8211156108405761083f6107aa565b5b61084982610799565b9050602081019050919050565b82818337600083830152505050565b600061087861087384610825565b61080a565b90508281526020810184848401111561089457610893610794565b5b61089f848285610856565b509392505050565b600082601f8301126108bc576108bb61078f565b5b81356108cc848260208601610865565b91505092915050565b6000602082840312156108eb576108ea610785565b5b600082013567ffffffffffffffff8111156109095761090861078a565b5b610915848285016108a7565b91505092915050565b600073ffffffffffffffffffffffffffffffffffffffff82169050919050565b60006109498261091e565b9050919050565b6109598161093e565b82525050565b60006020820190506109746000830184610950565b92915050565b6109838161093e565b811461098e57600080fd5b50565b6000813590506109a08161097a565b92915050565b600080604083850312156109bd576109bc610785565b5b600083013567ffffffffffffffff8111156109db576109da61078a565b5b6109e7858286016108a7565b92505060206109f885828601610991565b9150509250929050565b600060208284031215610a1857610a17610785565b5b6000610a2684828501610991565b91505092915050565b600081519050919050565b600082825260208201905092915050565b60005b83811015610a69578082015181840152602081019050610a4e565b60008484015250505050565b6000610a8082610a2f565b610a8a8185610a3a565b9350610a9a818560208601610a4b565b610aa381610799565b840191505092915050565b60006020820190508181036000830152610ac88184610a75565b905092915050565b600081905092915050565b6000610ae682610a2f565b610af08185610ad0565b9350610b00818560208601610a4b565b80840191505092915050565b6000610b188284610adb565b915081905092915050565b7f4e6f7420617574686f72697a6564000000000000000000000000000000000000600082015250565b6000610b59600e83610a3a565b9150610b6482610b23565b602082019050919050565b60006020820190508181036000830152610b8881610b4c565b9050919050565b60006040820190508181036000830152610ba98185610a75565b9050610bb86020830184610950565b9392505050565b7f4e487b7100000000000000000000000000000000000000000000000000000000600052602260045260246000fd5b60006002820490506001821680610c0657607f821691505b602082108103610c1957610c18610bbf565b5b5091905056fea26469706673582212204d91fbf77a68e4df87d023bea05e76d2376316513e29dc0467444a3dd0bd49a564736f6c63430008140033",
  "linkReferences": {},
  "deployedLinkReferences": {}
}