{"abi":[{"type":"constructor","inputs":[{"name":"_VotingControlAddress","type":"address","internalType":"address"},{"name":"contractNames","type":"string[]","internalType":"string[]"},{"name":"contractAddresses","type":"address[]","internalType":"address[]"},{"name":"name","type":"string","internalType":"string"},{"name":"logo","type":"string","internalType":"string"},{"name":"hashInfo","type":"string","internalType":"string"}],"stateMutability":"nonpayable"},{"type":"function","name":"POname","inputs":[],"outputs":[{"name":"","type":"string","internalType":"string"}],"stateMutability":"view"},{"type":"function","name":"VotingControlAddress","inputs":[],"outputs":[{"name":"","type":"address","internalType":"address"}],"stateMutability":"view"},{"type":"function","name":"addContract","inputs":[{"name":"name","type":"string","internalType":"string"},{"name":"contractAddress","type":"address","internalType":"address"}],"outputs":[],"stateMutability":"nonpayable"},{"type":"function","name":"changeLogo","inputs":[{"name":"newLogo","type":"string","internalType":"string"}],"outputs":[],"stateMutability":"nonpayable"},{"type":"function","name":"changeOrgInfo","inputs":[{"name":"ipfsHash","type":"string","internalType":"string"}],"outputs":[],"stateMutability":"nonpayable"},{"type":"function","name":"contracts","inputs":[{"name":"","type":"string","internalType":"string"}],"outputs":[{"name":"","type":"address","internalType":"address"}],"stateMutability":"view"},{"type":"function","name":"getContractAddress","inputs":[{"name":"name","type":"string","internalType":"string"}],"outputs":[{"name":"","type":"address","internalType":"address"}],"stateMutability":"view"},{"type":"function","name":"infoHash","inputs":[],"outputs":[{"name":"","type":"string","internalType":"string"}],"stateMutability":"view"},{"type":"function","name":"logoURL","inputs":[],"outputs":[{"name":"","type":"string","internalType":"string"}],"stateMutability":"view"},{"type":"function","name":"nftMembership","inputs":[],"outputs":[{"name":"","type":"address","internalType":"contract INFTMembership12"}],"stateMutability":"view"},{"type":"function","name":"setVotingControlAddress","inputs":[{"name":"_address","type":"address","internalType":"address"}],"outputs":[],"stateMutability":"nonpayable"},{"type":"function","name":"upgradeContract","inputs":[{"name":"name","type":"string","internalType":"string"},{"name":"newAddress","type":"address","internalType":"address"}],"outputs":[],"stateMutability":"nonpayable"},{"type":"event","name":"ContractAdded","inputs":[{"name":"name","type":"string","indexed":false,"internalType":"string"},{"name":"contractAddress","type":"address","indexed":false,"internalType":"address"}],"anonymous":false},{"type":"event","name":"ContractUpgraded","inputs":[{"name":"name","type":"string","indexed":false,"internalType":"string"},{"name":"newAddress","type":"address","indexed":false,"internalType":"address"}],"anonymous":false},{"type":"event","name":"Initialized","inputs":[{"name":"VotingControlAddress","type":"address","indexed":false,"internalType":"address"},{"name":"contractNames","type":"string[]","indexed":false,"internalType":"string[]"},{"name":"contractAddresses","type":"address[]","indexed":false,"internalType":"address[]"}],"anonymous":false},{"type":"event","name":"VotingControlAddressSet","inputs":[{"name":"newAddress","type":"address","indexed":false,"internalType":"address"}],"anonymous":false},{"type":"event","name":"infoChange","inputs":[{"name":"ipfsHash","type":"string","indexed":false,"internalType":"string"},{"name":"POname","type":"string","indexed":false,"internalType":"string"}],"anonymous":false},{"type":"event","name":"logoChange","inputs":[{"name":"newLogo","type":"string","indexed":false,"internalType":"string"},{"name":"POname","type":"string","indexed":false,"internalType":"string"}],"anonymous":false}],"bytecode":{"object":"0x60806040523461069a576113f580380380610019816106e4565b92833981019060c08183031261069a5761003281610709565b60208201516001600160401b03811161069a5782019183601f8401121561069a5782516100666100618261071d565b6106e4565b9360208086848152019260051b8201019186831161069a5760208201905b8382106106b7575050505060408101516001600160401b03811161069a5781019380601f8601121561069a578451916100bf6100618461071d565b95602087858152016020819560051b8301019184831161069a57602001905b82821061069f5750505060608101516001600160401b03811161069a5782610107918301610757565b60808201519091906001600160401b03811161069a5783610129918301610757565b60a08201519093906001600160401b03811161069a576101499201610757565b815190916001600160401b0382116104aa5760025490600182811c92168015610690575b602083101461048a5781601f849311610620575b50602090601f83116001146105b8576000926105ad575b50508160011b916000199060031b1c1916176002555b8051906001600160401b0382116104aa5760035490600182811c921680156105a3575b602083101461048a5781601f849311610533575b50602090601f83116001146104cb576000926104c0575b50508160011b916000199060031b1c1916176003555b8051906001600160401b0382116104aa5760045490600182811c921680156104a0575b602083101461048a5781601f84931161041a575b50602090601f83116001146103b2576000926103a7575b50508160011b916000199060031b1c1916176004555b825184510361033c578351156103265751600580546001600160a01b039283166001600160a01b031991821617909155600080549390921692169190911781555b8151811015610317576001906001600160a01b036102d582866107a7565b51166102fa60206102e684876107a7565b518160405193828580945193849201610734565b81018681520301902090838060a01b0319825416179055016102b7565b604051610c3990816107bc8239f35b634e487b7160e01b600052603260045260246000fd5b60405162461bcd60e51b815260206004820152603760248201527f436f6e7472616374206e616d657320616e6420616464726573736573206d757360448201527f74206265206f66207468652073616d65206c656e6774680000000000000000006064820152608490fd5b015190503880610260565b600460009081528281209350601f198516905b81811061040257509084600195949392106103e9575b505050811b01600455610276565b015160001960f88460031b161c191690553880806103db565b929360206001819287860151815501950193016103c5565b60046000529091507f8a35acfbc15ff81a39ae7d344fd709f28e8600b4aa8c65c6b64bfe7fe36bd19b601f840160051c81019160208510610480575b90601f859493920160051c01905b8181106104715750610249565b60008155849350600101610464565b9091508190610456565b634e487b7160e01b600052602260045260246000fd5b91607f1691610235565b634e487b7160e01b600052604160045260246000fd5b0151905038806101fc565b600360009081528281209350601f198516905b81811061051b5750908460019594939210610502575b505050811b01600355610212565b015160001960f88460031b161c191690553880806104f4565b929360206001819287860151815501950193016104de565b60036000529091507fc2575a0e9e593c00f959f8c92f12db2869c3395a3b0502d05e2516446f71f85b601f840160051c81019160208510610599575b90601f859493920160051c01905b81811061058a57506101e5565b6000815584935060010161057d565b909150819061056f565b91607f16916101d1565b015190503880610198565b600260009081528281209350601f198516905b81811061060857509084600195949392106105ef575b505050811b016002556101ae565b015160001960f88460031b161c191690553880806105e1565b929360206001819287860151815501950193016105cb565b60026000529091507f405787fa12a823e0f2b7631cc41b3ba8828b3321ca811111fa75cd3aa3bb5ace601f840160051c81019160208510610686575b90601f859493920160051c01905b8181106106775750610181565b6000815584935060010161066a565b909150819061065c565b91607f169161016d565b600080fd5b602080916106ac84610709565b8152019101906100de565b81516001600160401b03811161069a576020916106d98a848094880101610757565b815201910190610084565b6040519190601f01601f191682016001600160401b038111838210176104aa57604052565b51906001600160a01b038216820361069a57565b6001600160401b0381116104aa5760051b60200190565b60005b8381106107475750506000910152565b8181015183820152602001610737565b81601f8201121561069a5780516001600160401b0381116104aa57610785601f8201601f19166020016106e4565b928184526020828401011161069a576107a49160208085019101610734565b90565b80518210156103265760209160051b01019056fe6080604052600436101561001257600080fd5b60003560e01c806304433bbc146102f857806311bc2ca21461070b5780631271bd53146106dc57806333b7c7721461066157806352a5ab241461040957806365a6f49e146103615780638c5b8385146102f8578063a2b2b4d4146102cf578063bf5b60161461023a578063d2ce89e5146101a4578063ed0b8f61146100ce5763fa989673146100a057600080fd5b346100c95760003660031901126100c9576000546040516001600160a01b039091168152602090f35b600080fd5b346100c95760003660031901126100c957604051600354600090816100f2826109cb565b808552916001811690811561017d5750600114610132575b61012e8461011a81860382610910565b604051918291602083526020830190610a28565b0390f35b60038152600080516020610bc4833981519152939250905b8082106101635750909150810160200161011a8261010a565b91926001816020925483858801015201910190929161014a565b60ff191660208087019190915292151560051b8501909201925061011a915083905061010a565b346100c95760003660031901126100c957604051600454600090816101c8826109cb565b808552916001811690811561017d57506001146101ef5761012e8461011a81860382610910565b60048152600080516020610be4833981519152939250905b8082106102205750909150810160200161011a8261010a565b919260018160209254838588010152019101909291610207565b346100c9577f8b4ef7d4e5bc8f098e6f637ac0acf4aee47b3f027efea6307264b06b4bc9d29861026936610989565b9061027f60018060a01b03600054163314610b5e565b60405160208183516102948183858801610a05565b60019082019081520301902080546001600160a01b0319166001600160a01b0384161790556040519182916102ca919083610b9b565b0390a1005b346100c95760003660031901126100c9576005546040516001600160a01b039091168152602090f35b346100c95760203660031901126100c95760043567ffffffffffffffff81116100c95761032b6020913690600401610932565b8161033f6040519283815193849201610a05565b600190820190815281900382019020546040516001600160a01b039091168152f35b346100c95760003660031901126100c95760405160025460009081610385826109cb565b808552916001811690811561017d57506001146103ac5761012e8461011a81860382610910565b600281527f405787fa12a823e0f2b7631cc41b3ba8828b3321ca811111fa75cd3aa3bb5ace939250905b8082106103ef5750909150810160200161011a8261010a565b9192600181602092548385880101520191019092916103d6565b346100c95760203660031901126100c95760043567ffffffffffffffff81116100c95761043a903690600401610932565b6005546040516347a5b3df60e01b815233600482015290602090829060249082906001600160a01b03165afa80156106555761047e91600091610626575b50610a65565b805167ffffffffffffffff81116106105761049a6003546109cb565b601f81116105a3575b506020601f821160011461050d5791816102ca927f6faad514176c64ce3ef3d4e03e2f68c59bd9f9e1863b8a513770c50e67b34e9f94600091610502575b508160011b916000199060031b1c1916176003555b60405191829182610aa4565b9050820151856104e1565b601f198216906003600052600080516020610bc48339815191529160005b81811061058b5750927f6faad514176c64ce3ef3d4e03e2f68c59bd9f9e1863b8a513770c50e67b34e9f9492600192826102ca9610610572575b5050811b016003556104f6565b84015160001960f88460031b161c191690558580610565565b9192602060018192868901518155019401920161052b565b6003600052601f820160051c600080516020610bc48339815191520190602083106105fa575b601f0160051c600080516020610bc483398151915201905b8181106105ee57506104a3565b600081556001016105e1565b600080516020610bc483398151915291506105c9565b634e487b7160e01b600052604160045260246000fd5b610648915060203d60201161064e575b6106408183610910565b810190610a4d565b83610478565b503d610636565b6040513d6000823e3d90fd5b346100c95760203660031901126100c9576004356001600160a01b038116908190036100c9576000547f986b38cbf58019252e004ee67a71af38521b9e0ef2baea619d4236e707eecfbb9160209181906106c5336001600160a01b03831614610b5e565b6001600160a01b03191617600055604051908152a1005b346100c9577f2b51ff7c4cc8e6fe1c72e9d9685b7d2a88a5d82ad3a644afbdceb0272c89c1c361026936610989565b346100c95760203660031901126100c95760043567ffffffffffffffff81116100c95761073c903690600401610932565b6005546040516347a5b3df60e01b815233600482015290602090829060249082906001600160a01b03165afa80156106555761077f916000916106265750610a65565b805167ffffffffffffffff81116106105761079b6004546109cb565b601f81116108a3575b506020601f821160011461080d5791816102ca927fb43cbe583123dfb23b93ec17e57ec7d7b7df6a254cd25bd853997a0a16d8117f94600091610802575b508160011b916000199060031b1c19161760045560405191829182610aa4565b9050820151856107e2565b601f198216906004600052600080516020610be48339815191529160005b81811061088b5750927fb43cbe583123dfb23b93ec17e57ec7d7b7df6a254cd25bd853997a0a16d8117f9492600192826102ca9610610872575b5050811b016004556104f6565b84015160001960f88460031b161c191690558580610865565b9192602060018192868901518155019401920161082b565b6004600052601f820160051c600080516020610be48339815191520190602083106108fa575b601f0160051c600080516020610be483398151915201905b8181106108ee57506107a4565b600081556001016108e1565b600080516020610be483398151915291506108c9565b90601f8019910116810190811067ffffffffffffffff82111761061057604052565b81601f820112156100c95780359067ffffffffffffffff82116106105760405192610967601f8401601f191660200185610910565b828452602083830101116100c957816000926020809301838601378301015290565b60406003198201126100c9576004359067ffffffffffffffff82116100c9576109b491600401610932565b906024356001600160a01b03811681036100c95790565b90600182811c921680156109fb575b60208310146109e557565b634e487b7160e01b600052602260045260246000fd5b91607f16916109da565b60005b838110610a185750506000910152565b8181015183820152602001610a08565b90602091610a4181518092818552858086019101610a05565b601f01601f1916010190565b908160209103126100c9575180151581036100c95790565b15610a6c57565b60405162461bcd60e51b815260206004820152601060248201526f4e6f7420616e2065786563757469766560801b6044820152606490fd5b90610ab790604083526040830190610a28565b90602081830391015260009060025490610ad0826109cb565b8082529160018116908115610b435750600114610aec57505090565b600260009081529192507f405787fa12a823e0f2b7631cc41b3ba8828b3321ca811111fa75cd3aa3bb5ace5b838310610b29575060209250010190565b600181602092949394548385870101520191019190610b18565b90506020935060ff929192191683830152151560051b010190565b15610b6557565b60405162461bcd60e51b815260206004820152600e60248201526d139bdd08185d5d1a1bdc9a5e995960921b6044820152606490fd5b90610bb3602091949394604084526040840190610a28565b6001600160a01b0390941691015256fec2575a0e9e593c00f959f8c92f12db2869c3395a3b0502d05e2516446f71f85b8a35acfbc15ff81a39ae7d344fd709f28e8600b4aa8c65c6b64bfe7fe36bd19ba264697066735822122013a4700ed72f1e4940907dcba8a5c375de54502ca20fbccb0d10725af092962a64736f6c634300081a0033","linkReferences":{}},"methodIdentifiers":{"POname()":"65a6f49e","VotingControlAddress()":"fa989673","addContract(string,address)":"bf5b6016","changeLogo(string)":"11bc2ca2","changeOrgInfo(string)":"52a5ab24","contracts(string)":"8c5b8385","getContractAddress(string)":"04433bbc","infoHash()":"ed0b8f61","logoURL()":"d2ce89e5","nftMembership()":"a2b2b4d4","setVotingControlAddress(address)":"33b7c772","upgradeContract(string,address)":"1271bd53"},"id":60}