{"abi":[{"type":"constructor","inputs":[{"name":"_token","type":"address","internalType":"address"},{"name":"_nftMembership","type":"address","internalType":"address"},{"name":"_allowedRoleNames","type":"string[]","internalType":"string[]"}],"stateMutability":"nonpayable"},{"type":"function","name":"claimTask","inputs":[{"name":"_taskId","type":"uint256","internalType":"uint256"}],"outputs":[],"stateMutability":"nonpayable"},{"type":"function","name":"completeTask","inputs":[{"name":"_taskId","type":"uint256","internalType":"uint256"}],"outputs":[],"stateMutability":"nonpayable"},{"type":"function","name":"createProject","inputs":[{"name":"projectName","type":"string","internalType":"string"}],"outputs":[],"stateMutability":"nonpayable"},{"type":"function","name":"createTask","inputs":[{"name":"_payout","type":"uint256","internalType":"uint256"},{"name":"ipfsHash","type":"string","internalType":"string"},{"name":"projectName","type":"string","internalType":"string"}],"outputs":[],"stateMutability":"nonpayable"},{"type":"function","name":"deleteProject","inputs":[{"name":"projectName","type":"string","internalType":"string"}],"outputs":[],"stateMutability":"nonpayable"},{"type":"function","name":"nextTaskId","inputs":[],"outputs":[{"name":"","type":"uint256","internalType":"uint256"}],"stateMutability":"view"},{"type":"function","name":"nftMembership","inputs":[],"outputs":[{"name":"","type":"address","internalType":"contract INFTMembership4"}],"stateMutability":"view"},{"type":"function","name":"submitTask","inputs":[{"name":"_taskId","type":"uint256","internalType":"uint256"},{"name":"ipfsHash","type":"string","internalType":"string"}],"outputs":[],"stateMutability":"nonpayable"},{"type":"function","name":"tasks","inputs":[{"name":"","type":"uint256","internalType":"uint256"}],"outputs":[{"name":"id","type":"uint256","internalType":"uint256"},{"name":"payout","type":"uint256","internalType":"uint256"},{"name":"isCompleted","type":"bool","internalType":"bool"},{"name":"claimer","type":"address","internalType":"address"}],"stateMutability":"view"},{"type":"function","name":"token","inputs":[],"outputs":[{"name":"","type":"address","internalType":"contract IParticipationToken"}],"stateMutability":"view"},{"type":"function","name":"updateTask","inputs":[{"name":"_taskId","type":"uint256","internalType":"uint256"},{"name":"_payout","type":"uint256","internalType":"uint256"},{"name":"ipfsHash","type":"string","internalType":"string"}],"outputs":[],"stateMutability":"nonpayable"},{"type":"event","name":"ProjectCreated","inputs":[{"name":"projectName","type":"string","indexed":false,"internalType":"string"}],"anonymous":false},{"type":"event","name":"ProjectDeleted","inputs":[{"name":"projectName","type":"string","indexed":false,"internalType":"string"}],"anonymous":false},{"type":"event","name":"TaskClaimed","inputs":[{"name":"id","type":"uint256","indexed":true,"internalType":"uint256"},{"name":"claimer","type":"address","indexed":true,"internalType":"address"}],"anonymous":false},{"type":"event","name":"TaskCompleted","inputs":[{"name":"id","type":"uint256","indexed":true,"internalType":"uint256"},{"name":"completer","type":"address","indexed":true,"internalType":"address"}],"anonymous":false},{"type":"event","name":"TaskCreated","inputs":[{"name":"id","type":"uint256","indexed":true,"internalType":"uint256"},{"name":"payout","type":"uint256","indexed":false,"internalType":"uint256"},{"name":"ipfsHash","type":"string","indexed":false,"internalType":"string"},{"name":"projectName","type":"string","indexed":false,"internalType":"string"}],"anonymous":false},{"type":"event","name":"TaskSubmitted","inputs":[{"name":"id","type":"uint256","indexed":true,"internalType":"uint256"},{"name":"ipfsHash","type":"string","indexed":false,"internalType":"string"}],"anonymous":false},{"type":"event","name":"TaskUpdated","inputs":[{"name":"id","type":"uint256","indexed":true,"internalType":"uint256"},{"name":"payout","type":"uint256","indexed":false,"internalType":"uint256"},{"name":"ipfsHash","type":"string","indexed":false,"internalType":"string"}],"anonymous":false}],"bytecode":{"object":"0x60806040523461019b57610eb580380380610019816101b6565b92833981019060608183031261019b57610032816101db565b61003e602083016101db565b604083015190926001600160401b03821161019b57019280601f8501121561019b578351936001600160401b0385116101a0578460051b916020806100848186016101b6565b8098815201938301019181831161019b5760208101935b83851061012757600080546001600160a01b038881166001600160a01b031992831617835560018054918b169190921617905588905b8151811015610118576001906100fe6020808360051b8601015181604051938285809451938492016101ef565b810160048152030190208260ff19825416179055016100d1565b604051610ca290816102138239f35b84516001600160401b03811161019b5782019083603f8301121561019b576020820151906001600160401b0382116101a05761016c601f8301601f19166020016101b6565b828152604084840101861061019b57610190602094938594604086850191016101ef565b81520194019361009b565b600080fd5b634e487b7160e01b600052604160045260246000fd5b6040519190601f01601f191682016001600160401b038111838210176101a057604052565b51906001600160a01b038216820361019b57565b60005b8381106102025750506000910152565b81810151838201526020016101f256fe608080604052600436101561001357600080fd5b600090813560e01c90816315ee4df11461098d575080633fb783571461087b578063776bae681461072f5780638524ac98146104f05780638b5f3936146104065780638d977672146103ad5780638dd3349514610281578063a2b2b4d414610258578063e1e29558146100e1578063fc0c546a146100ba5763fdc3d8d71461009a57600080fd5b346100b757806003193601126100b7576020600354604051908152f35b80fd5b50346100b757806003193601126100b757546040516001600160a01b039091168152602090f35b50346100b75760203660031901126100b7576004359060248160018060a01b036001541660405192838092630eef043160e31b82523360048301525afa9081156102275761014c602061015d9360ff938691610236575b508160405193828580945193849201610abb565b810160048152030190205416610b40565b818152600260205260408120600281016001815461017e60ff821615610bad565b610193828060a01b038260081c161515610c2d565b60ff1916178091556001808060a01b0384541692015490823b156102325790604484928360405195869485936340c10f1960e01b855260018060a01b039060081c16600485015260248401525af1801561022757610217575b509033907fbb5889c77948badf90e8a5c73d55265e5f5d6e4837a79a78c5669691b897faed8380a380f35b8161022191610a67565b386101ec565b6040513d84823e3d90fd5b8380fd5b61025291503d8088833e61024a8183610a67565b810190610ade565b38610138565b50346100b757806003193601126100b7576001546040516001600160a01b039091168152602090f35b50346100b75760203660031901126100b75760043560248260018060a01b036001541660405192838092630eef043160e31b82523360048301525afa80156103a2576102d7918491610388575b50511515610bf2565b80825260026020526002604083200180546102f560ff821615610bad565b60081c6001600160a01b031661034c578054610100600160a81b0319163360081b610100600160a81b031617905533907f1d8996e29d44a50435d568c283ce2580e5706f87b19ff3d34f455c9d2a9946208380a380f35b60405162461bcd60e51b815260206004820152601460248201527315185cdac8185b1c9958591e4818db185a5b595960621b6044820152606490fd5b61039c91503d8086833e61024a8183610a67565b386102ce565b6040513d85823e3d90fd5b50346100b75760203660031901126100b757604060809160043581526002602052208054906002600182015491015490604051928352602083015260ff81161515604083015260018060a01b039060081c166060820152f35b50346100b75760203660031901126100b75760043567ffffffffffffffff81116104ec5761043a6024913690600401610a34565b600154604051630eef043160e31b815233600482015293859185919082906001600160a01b03165afa80156104e15760ff61014c60206104b0937fff0a52f1426ab03161133396bf3b3a194ea51f4603fb09e8af8abf1817e6eec99789916104cd57508160405193828580945193849201610abb565b6104c7604051928392602084526020840191610b8c565b0390a180f35b61025291503d808b833e61024a8183610a67565b6040513d86823e3d90fd5b5080fd5b50346100b75760603660031901126100b75760043560243567ffffffffffffffff811161072757610525903690600401610a34565b909160443567ffffffffffffffff811161072b573660238201121561072b5780600401358561055382610a9f565b926105616040519485610a67565b828452602084019236602482840101116107275780602460209301853784010152600154604051630eef043160e31b8152336004820152908790829060249082906001600160a01b03165afa90811561071c5761014c60206105da9360ff938b9161070857508160405193828580945193849201610abb565b6003549460001986146106f457600186016003556040516080810181811067ffffffffffffffff8211176106e057604090815287825260208083018781528383018b8152606085018c81528b8d526002808552948d209551865591516001860155519390920180549251610100600160a81b0360089190911b1693151560ff166001600160a81b0319909316929092179290921790557f211bf15b7962b0fd1e5b3308db0d9c6e0b9bb758c934b8c9345201b1892481b895949093909290916106d1906106b99060405197889687526060888801526060870191610b8c565b92848403604086015251809281855286850190610abb565b601f01601f191601030190a280f35b634e487b7160e01b89526041600452602489fd5b634e487b7160e01b87526011600452602487fd5b61025291503d808d833e61024a8183610a67565b6040513d89823e3d90fd5b8280fd5b8480fd5b50346100b75760403660031901126100b75760043560243567ffffffffffffffff811161072757610764903690600401610a34565b600154604051630eef043160e31b8152336004820152919291908590829060249082906001600160a01b03165afa8015610870576107ab91869161085c5750511515610bf2565b828452600260205260026040852001546107c860ff821615610bad565b60081c6001600160a01b031691338303610825576108087f6446ced08d52e8f0331d94dbe32ad91d577ec02d6d8ec44376b1517fcca598a7931515610c2d565b61081f604051928392602084526020840191610b8c565b0390a280f35b60405162461bcd60e51b815260206004820152600f60248201526e2737ba103a34329031b630b4b6b2b960891b6044820152606490fd5b61039c91503d8088833e61024a8183610a67565b6040513d87823e3d90fd5b50346100b75760603660031901126100b75760043560243560443567ffffffffffffffff8111610232576108b3903690600401610a34565b600154604051630eef043160e31b815233600482015292939192908690829060249082906001600160a01b03165afa9384156109825761093360ff61014c60207f76adc3d0855e90a9359376f47f1b7fa4d7624d22098b8927f2fd345690c4b9969861081f968c9161096e57508160405193828580945193849201610abb565b85875260026020528260016040892061095360ff60028301541615610bad565b01556040519384938452604060208501526040840191610b8c565b61025291503d808e833e61024a8183610a67565b6040513d88823e3d90fd5b9050346104ec5760203660031901126104ec5760043567ffffffffffffffff8111610727576109c0903690600401610a34565b600154630eef043160e31b84523360048501528490849060249082906001600160a01b03165afa80156104e15760ff61014c60206104b0937f1d9633bff7d0a58c4a25dc562a94b73474abdf064235c050de1a830462ee23fa9789916104cd57508160405193828580945193849201610abb565b9181601f84011215610a625782359167ffffffffffffffff8311610a625760208381860195010111610a6257565b600080fd5b90601f8019910116810190811067ffffffffffffffff821117610a8957604052565b634e487b7160e01b600052604160045260246000fd5b67ffffffffffffffff8111610a8957601f01601f191660200190565b60005b838110610ace5750506000910152565b8181015183820152602001610abe565b602081830312610a625780519067ffffffffffffffff8211610a62570181601f82011215610a62578051610b1181610a9f565b92610b1f6040519485610a67565b81845260208284010111610a6257610b3d9160208085019101610abb565b90565b15610b4757565b60405162461bcd60e51b815260206004820152601d60248201527f4e6f7420617574686f72697a656420746f20637265617465207461736b0000006044820152606490fd5b908060209392818452848401376000828201840152601f01601f1916010190565b15610bb457565b60405162461bcd60e51b815260206004820152601660248201527515185cdac8185b1c9958591e4818dbdb5c1b195d195960521b6044820152606490fd5b15610bf957565b60405162461bcd60e51b815260206004820152600c60248201526b2737ba10309036b2b6b132b960a11b6044820152606490fd5b15610c3457565b60405162461bcd60e51b815260206004820152601060248201526f15185cdac81b9bdd0818db185a5b595960821b6044820152606490fdfea264697066735822122067676bd729fbfab52bb8611ccfaa93da5597e22cf2d6f928f0d0fca1de6c7d4564736f6c634300081a0033","linkReferences":{}},"methodIdentifiers":{"claimTask(uint256)":"8dd33495","completeTask(uint256)":"e1e29558","createProject(string)":"15ee4df1","createTask(uint256,string,string)":"8524ac98","deleteProject(string)":"8b5f3936","nextTaskId()":"fdc3d8d7","nftMembership()":"a2b2b4d4","submitTask(uint256,string)":"776bae68","tasks(uint256)":"8d977672","token()":"fc0c546a","updateTask(uint256,uint256,string)":"3fb78357"},"id":62}