{
  "_format": "hh-sol-artifact-1",
  "contractName": "TaskManager",
  "sourceName": "contracts/TaskManager.sol",
  "abi": [
    {
      "inputs": [
        {
          "internalType": "address",
          "name": "_token",
          "type": "address"
        },
        {
          "internalType": "address",
          "name": "_nftMembership",
          "type": "address"
        },
        {
          "internalType": "string[]",
          "name": "_allowedRoleNames",
          "type": "string[]"
        }
      ],
      "stateMutability": "nonpayable",
      "type": "constructor"
    },
    {
      "anonymous": false,
      "inputs": [
        {
          "indexed": false,
          "internalType": "string",
          "name": "projectName",
          "type": "string"
        }
      ],
      "name": "ProjectCreated",
      "type": "event"
    },
    {
      "anonymous": false,
      "inputs": [
        {
          "indexed": false,
          "internalType": "string",
          "name": "projectName",
          "type": "string"
        }
      ],
      "name": "ProjectDeleted",
      "type": "event"
    },
    {
      "anonymous": false,
      "inputs": [
        {
          "indexed": true,
          "internalType": "uint256",
          "name": "id",
          "type": "uint256"
        },
        {
          "indexed": true,
          "internalType": "address",
          "name": "claimer",
          "type": "address"
        }
      ],
      "name": "TaskClaimed",
      "type": "event"
    },
    {
      "anonymous": false,
      "inputs": [
        {
          "indexed": true,
          "internalType": "uint256",
          "name": "id",
          "type": "uint256"
        },
        {
          "indexed": true,
          "internalType": "address",
          "name": "completer",
          "type": "address"
        }
      ],
      "name": "TaskCompleted",
      "type": "event"
    },
    {
      "anonymous": false,
      "inputs": [
        {
          "indexed": true,
          "internalType": "uint256",
          "name": "id",
          "type": "uint256"
        },
        {
          "indexed": false,
          "internalType": "uint256",
          "name": "payout",
          "type": "uint256"
        },
        {
          "indexed": false,
          "internalType": "string",
          "name": "ipfsHash",
          "type": "string"
        },
        {
          "indexed": false,
          "internalType": "string",
          "name": "projectName",
          "type": "string"
        }
      ],
      "name": "TaskCreated",
      "type": "event"
    },
    {
      "anonymous": false,
      "inputs": [
        {
          "indexed": true,
          "internalType": "uint256",
          "name": "id",
          "type": "uint256"
        },
        {
          "indexed": false,
          "internalType": "uint256",
          "name": "payout",
          "type": "uint256"
        },
        {
          "indexed": false,
          "internalType": "string",
          "name": "ipfsHash",
          "type": "string"
        }
      ],
      "name": "TaskUpdated",
      "type": "event"
    },
    {
      "inputs": [
        {
          "internalType": "uint256",
          "name": "_taskId",
          "type": "uint256"
        }
      ],
      "name": "claimTask",
      "outputs": [],
      "stateMutability": "nonpayable",
      "type": "function"
    },
    {
      "inputs": [
        {
          "internalType": "uint256",
          "name": "_taskId",
          "type": "uint256"
        }
      ],
      "name": "completeTask",
      "outputs": [],
      "stateMutability": "nonpayable",
      "type": "function"
    },
    {
      "inputs": [
        {
          "internalType": "string",
          "name": "projectName",
          "type": "string"
        }
      ],
      "name": "createProject",
      "outputs": [],
      "stateMutability": "nonpayable",
      "type": "function"
    },
    {
      "inputs": [
        {
          "internalType": "uint256",
          "name": "_payout",
          "type": "uint256"
        },
        {
          "internalType": "string",
          "name": "ipfsHash",
          "type": "string"
        },
        {
          "internalType": "string",
          "name": "projectName",
          "type": "string"
        }
      ],
      "name": "createTask",
      "outputs": [],
      "stateMutability": "nonpayable",
      "type": "function"
    },
    {
      "inputs": [
        {
          "internalType": "string",
          "name": "projectName",
          "type": "string"
        }
      ],
      "name": "deleteProject",
      "outputs": [],
      "stateMutability": "nonpayable",
      "type": "function"
    },
    {
      "inputs": [],
      "name": "nextTaskId",
      "outputs": [
        {
          "internalType": "uint256",
          "name": "",
          "type": "uint256"
        }
      ],
      "stateMutability": "view",
      "type": "function"
    },
    {
      "inputs": [],
      "name": "nftMembership",
      "outputs": [
        {
          "internalType": "contract INFTMembership",
          "name": "",
          "type": "address"
        }
      ],
      "stateMutability": "view",
      "type": "function"
    },
    {
      "inputs": [
        {
          "internalType": "uint256",
          "name": "",
          "type": "uint256"
        }
      ],
      "name": "tasks",
      "outputs": [
        {
          "internalType": "uint256",
          "name": "id",
          "type": "uint256"
        },
        {
          "internalType": "uint256",
          "name": "payout",
          "type": "uint256"
        },
        {
          "internalType": "bool",
          "name": "isCompleted",
          "type": "bool"
        },
        {
          "internalType": "address",
          "name": "claimer",
          "type": "address"
        }
      ],
      "stateMutability": "view",
      "type": "function"
    },
    {
      "inputs": [],
      "name": "token",
      "outputs": [
        {
          "internalType": "contract IParticipationToken",
          "name": "",
          "type": "address"
        }
      ],
      "stateMutability": "view",
      "type": "function"
    },
    {
      "inputs": [
        {
          "internalType": "uint256",
          "name": "_taskId",
          "type": "uint256"
        },
        {
          "internalType": "uint256",
          "name": "_payout",
          "type": "uint256"
        },
        {
          "internalType": "string",
          "name": "ipfsHash",
          "type": "string"
        }
      ],
      "name": "updateTask",
      "outputs": [],
      "stateMutability": "nonpayable",
      "type": "function"
    }
  ],
  "bytecode": "0x60806040523480156200001157600080fd5b5060405162001e7638038062001e7683398181016040528101906200003791906200042f565b826000806101000a81548173ffffffffffffffffffffffffffffffffffffffff021916908373ffffffffffffffffffffffffffffffffffffffff16021790555081600160006101000a81548173ffffffffffffffffffffffffffffffffffffffff021916908373ffffffffffffffffffffffffffffffffffffffff16021790555060005b8151811015620001315760016004838381518110620000df57620000de620004aa565b5b6020026020010151604051620000f6919062000526565b908152602001604051809103902060006101000a81548160ff0219169083151502179055508080620001289062000578565b915050620000bb565b50505050620005c5565b6000604051905090565b600080fd5b600080fd5b600073ffffffffffffffffffffffffffffffffffffffff82169050919050565b60006200017c826200014f565b9050919050565b6200018e816200016f565b81146200019a57600080fd5b50565b600081519050620001ae8162000183565b92915050565b600080fd5b6000601f19601f8301169050919050565b7f4e487b7100000000000000000000000000000000000000000000000000000000600052604160045260246000fd5b6200020482620001b9565b810181811067ffffffffffffffff82111715620002265762000225620001ca565b5b80604052505050565b60006200023b6200013b565b9050620002498282620001f9565b919050565b600067ffffffffffffffff8211156200026c576200026b620001ca565b5b602082029050602081019050919050565b600080fd5b600080fd5b600067ffffffffffffffff821115620002a557620002a4620001ca565b5b620002b082620001b9565b9050602081019050919050565b60005b83811015620002dd578082015181840152602081019050620002c0565b60008484015250505050565b600062000300620002fa8462000287565b6200022f565b9050828152602081018484840111156200031f576200031e62000282565b5b6200032c848285620002bd565b509392505050565b600082601f8301126200034c576200034b620001b4565b5b81516200035e848260208601620002e9565b91505092915050565b60006200037e62000378846200024e565b6200022f565b90508083825260208201905060208402830185811115620003a457620003a36200027d565b5b835b81811015620003f257805167ffffffffffffffff811115620003cd57620003cc620001b4565b5b808601620003dc898262000334565b85526020850194505050602081019050620003a6565b5050509392505050565b600082601f830112620004145762000413620001b4565b5b81516200042684826020860162000367565b91505092915050565b6000806000606084860312156200044b576200044a62000145565b5b60006200045b868287016200019d565b93505060206200046e868287016200019d565b925050604084015167ffffffffffffffff8111156200049257620004916200014a565b5b620004a086828701620003fc565b9150509250925092565b7f4e487b7100000000000000000000000000000000000000000000000000000000600052603260045260246000fd5b600081519050919050565b600081905092915050565b6000620004fc82620004d9565b620005088185620004e4565b93506200051a818560208601620002bd565b80840191505092915050565b6000620005348284620004ef565b915081905092915050565b7f4e487b7100000000000000000000000000000000000000000000000000000000600052601160045260246000fd5b6000819050919050565b600062000585826200056e565b91507fffffffffffffffffffffffffffffffffffffffffffffffffffffffffffffffff8203620005ba57620005b96200053f565b5b600182019050919050565b6118a180620005d56000396000f3fe608060405234801561001057600080fd5b506004361061009e5760003560e01c80638dd33495116100665780638dd3349514610146578063a2b2b4d414610162578063e1e2955814610180578063fc0c546a1461019c578063fdc3d8d7146101ba5761009e565b806315ee4df1146100a35780633fb78357146100bf5780638524ac98146100db5780638b5f3936146100f75780638d97767214610113575b600080fd5b6100bd60048036038101906100b89190610f35565b6101d8565b005b6100d960048036038101906100d49190610fb8565b610326565b005b6100f560048036038101906100f0919061116d565b61057f565b005b610111600480360381019061010c9190610f35565b6107bc565b005b61012d600480360381019061012891906111fd565b61090a565b60405161013d9493929190611295565b60405180910390f35b610160600480360381019061015b91906111fd565b610967565b005b61016a610bd8565b6040516101779190611339565b60405180910390f35b61019a600480360381019061019591906111fd565b610bfe565b005b6101a4610e92565b6040516101b19190611375565b60405180910390f35b6101c2610eb6565b6040516101cf9190611390565b60405180910390f35b6000600160009054906101000a900473ffffffffffffffffffffffffffffffffffffffff1673ffffffffffffffffffffffffffffffffffffffff166377782188336040518263ffffffff1660e01b815260040161023591906113ab565b600060405180830381865afa158015610252573d6000803e3d6000fd5b505050506040513d6000823e3d601f19601f8201168201806040525081019061027b9190611460565b905060048160405161028d91906114f0565b908152602001604051809103902060009054906101000a900460ff166102e8576040517f08c379a00000000000000000000000000000000000000000000000000000000081526004016102df90611564565b60405180910390fd5b7f1d9633bff7d0a58c4a25dc562a94b73474abdf064235c050de1a830462ee23fa83836040516103199291906115b1565b60405180910390a1505050565b6000600160009054906101000a900473ffffffffffffffffffffffffffffffffffffffff1673ffffffffffffffffffffffffffffffffffffffff166377782188336040518263ffffffff1660e01b815260040161038391906113ab565b600060405180830381865afa1580156103a0573d6000803e3d6000fd5b505050506040513d6000823e3d601f19601f820116820180604052508101906103c99190611460565b90506004816040516103db91906114f0565b908152602001604051809103902060009054906101000a900460ff16610436576040517f08c379a000000000000000000000000000000000000000000000000000000000815260040161042d90611564565b60405180910390fd5b60006002600087815260200190815260200160002090508060020160009054906101000a900460ff161561049f576040517f08c379a000000000000000000000000000000000000000000000000000000000815260040161049690611621565b60405180910390fd5b600073ffffffffffffffffffffffffffffffffffffffff168160020160019054906101000a900473ffffffffffffffffffffffffffffffffffffffff1673ffffffffffffffffffffffffffffffffffffffff1614610532576040517f08c379a00000000000000000000000000000000000000000000000000000000081526004016105299061168d565b60405180910390fd5b848160010181905550857f76adc3d0855e90a9359376f47f1b7fa4d7624d22098b8927f2fd345690c4b99686868660405161056f939291906116ad565b60405180910390a2505050505050565b6000600160009054906101000a900473ffffffffffffffffffffffffffffffffffffffff1673ffffffffffffffffffffffffffffffffffffffff166377782188336040518263ffffffff1660e01b81526004016105dc91906113ab565b600060405180830381865afa1580156105f9573d6000803e3d6000fd5b505050506040513d6000823e3d601f19601f820116820180604052508101906106229190611460565b905060048160405161063491906114f0565b908152602001604051809103902060009054906101000a900460ff1661068f576040517f08c379a000000000000000000000000000000000000000000000000000000000815260040161068690611564565b60405180910390fd5b6000600360008154809291906106a49061170e565b9190505590506040518060800160405280828152602001878152602001600015158152602001600073ffffffffffffffffffffffffffffffffffffffff1681525060026000838152602001908152602001600020600082015181600001556020820151816001015560408201518160020160006101000a81548160ff02191690831515021790555060608201518160020160016101000a81548173ffffffffffffffffffffffffffffffffffffffff021916908373ffffffffffffffffffffffffffffffffffffffff160217905550905050807f211bf15b7962b0fd1e5b3308db0d9c6e0b9bb758c934b8c9345201b1892481b8878787876040516107ac949392919061178f565b60405180910390a2505050505050565b6000600160009054906101000a900473ffffffffffffffffffffffffffffffffffffffff1673ffffffffffffffffffffffffffffffffffffffff166377782188336040518263ffffffff1660e01b815260040161081991906113ab565b600060405180830381865afa158015610836573d6000803e3d6000fd5b505050506040513d6000823e3d601f19601f8201168201806040525081019061085f9190611460565b905060048160405161087191906114f0565b908152602001604051809103902060009054906101000a900460ff166108cc576040517f08c379a00000000000000000000000000000000000000000000000000000000081526004016108c390611564565b60405180910390fd5b7fff0a52f1426ab03161133396bf3b3a194ea51f4603fb09e8af8abf1817e6eec983836040516108fd9291906115b1565b60405180910390a1505050565b60026020528060005260406000206000915090508060000154908060010154908060020160009054906101000a900460ff16908060020160019054906101000a900473ffffffffffffffffffffffffffffffffffffffff16905084565b6000600160009054906101000a900473ffffffffffffffffffffffffffffffffffffffff1673ffffffffffffffffffffffffffffffffffffffff166377782188336040518263ffffffff1660e01b81526004016109c491906113ab565b600060405180830381865afa1580156109e1573d6000803e3d6000fd5b505050506040513d6000823e3d601f19601f82011682018060405250810190610a0a9190611460565b90506000815103610a50576040517f08c379a0000000000000000000000000000000000000000000000000000000008152600401610a4790611822565b60405180910390fd5b60006002600084815260200190815260200160002090508060020160009054906101000a900460ff1615610ab9576040517f08c379a0000000000000000000000000000000000000000000000000000000008152600401610ab090611621565b60405180910390fd5b600073ffffffffffffffffffffffffffffffffffffffff168160020160019054906101000a900473ffffffffffffffffffffffffffffffffffffffff1673ffffffffffffffffffffffffffffffffffffffff1614610b4c576040517f08c379a0000000000000000000000000000000000000000000000000000000008152600401610b439061168d565b60405180910390fd5b338160020160016101000a81548173ffffffffffffffffffffffffffffffffffffffff021916908373ffffffffffffffffffffffffffffffffffffffff1602179055503373ffffffffffffffffffffffffffffffffffffffff16837f1d8996e29d44a50435d568c283ce2580e5706f87b19ff3d34f455c9d2a99462060405160405180910390a3505050565b600160009054906101000a900473ffffffffffffffffffffffffffffffffffffffff1681565b6000600160009054906101000a900473ffffffffffffffffffffffffffffffffffffffff1673ffffffffffffffffffffffffffffffffffffffff166377782188336040518263ffffffff1660e01b8152600401610c5b91906113ab565b600060405180830381865afa158015610c78573d6000803e3d6000fd5b505050506040513d6000823e3d601f19601f82011682018060405250810190610ca19190611460565b9050600481604051610cb391906114f0565b908152602001604051809103902060009054906101000a900460ff16610d0e576040517f08c379a0000000000000000000000000000000000000000000000000000000008152600401610d0590611564565b60405180910390fd5b60006002600084815260200190815260200160002090508060020160009054906101000a900460ff1615610d77576040517f08c379a0000000000000000000000000000000000000000000000000000000008152600401610d6e90611621565b60405180910390fd5b60018160020160006101000a81548160ff02191690831515021790555060008054906101000a900473ffffffffffffffffffffffffffffffffffffffff1673ffffffffffffffffffffffffffffffffffffffff166340c10f198260020160019054906101000a900473ffffffffffffffffffffffffffffffffffffffff1683600101546040518363ffffffff1660e01b8152600401610e17929190611842565b600060405180830381600087803b158015610e3157600080fd5b505af1158015610e45573d6000803e3d6000fd5b505050503373ffffffffffffffffffffffffffffffffffffffff16837fbb5889c77948badf90e8a5c73d55265e5f5d6e4837a79a78c5669691b897faed60405160405180910390a3505050565b60008054906101000a900473ffffffffffffffffffffffffffffffffffffffff1681565b60035481565b6000604051905090565b600080fd5b600080fd5b600080fd5b600080fd5b600080fd5b60008083601f840112610ef557610ef4610ed0565b5b8235905067ffffffffffffffff811115610f1257610f11610ed5565b5b602083019150836001820283011115610f2e57610f2d610eda565b5b9250929050565b60008060208385031215610f4c57610f4b610ec6565b5b600083013567ffffffffffffffff811115610f6a57610f69610ecb565b5b610f7685828601610edf565b92509250509250929050565b6000819050919050565b610f9581610f82565b8114610fa057600080fd5b50565b600081359050610fb281610f8c565b92915050565b60008060008060608587031215610fd257610fd1610ec6565b5b6000610fe087828801610fa3565b9450506020610ff187828801610fa3565b935050604085013567ffffffffffffffff81111561101257611011610ecb565b5b61101e87828801610edf565b925092505092959194509250565b600080fd5b6000601f19601f8301169050919050565b7f4e487b7100000000000000000000000000000000000000000000000000000000600052604160045260246000fd5b61107a82611031565b810181811067ffffffffffffffff8211171561109957611098611042565b5b80604052505050565b60006110ac610ebc565b90506110b88282611071565b919050565b600067ffffffffffffffff8211156110d8576110d7611042565b5b6110e182611031565b9050602081019050919050565b82818337600083830152505050565b600061111061110b846110bd565b6110a2565b90508281526020810184848401111561112c5761112b61102c565b5b6111378482856110ee565b509392505050565b600082601f83011261115457611153610ed0565b5b81356111648482602086016110fd565b91505092915050565b6000806000806060858703121561118757611186610ec6565b5b600061119587828801610fa3565b945050602085013567ffffffffffffffff8111156111b6576111b5610ecb565b5b6111c287828801610edf565b9350935050604085013567ffffffffffffffff8111156111e5576111e4610ecb565b5b6111f18782880161113f565b91505092959194509250565b60006020828403121561121357611212610ec6565b5b600061122184828501610fa3565b91505092915050565b61123381610f82565b82525050565b60008115159050919050565b61124e81611239565b82525050565b600073ffffffffffffffffffffffffffffffffffffffff82169050919050565b600061127f82611254565b9050919050565b61128f81611274565b82525050565b60006080820190506112aa600083018761122a565b6112b7602083018661122a565b6112c46040830185611245565b6112d16060830184611286565b95945050505050565b6000819050919050565b60006112ff6112fa6112f584611254565b6112da565b611254565b9050919050565b6000611311826112e4565b9050919050565b600061132382611306565b9050919050565b61133381611318565b82525050565b600060208201905061134e600083018461132a565b92915050565b600061135f82611306565b9050919050565b61136f81611354565b82525050565b600060208201905061138a6000830184611366565b92915050565b60006020820190506113a5600083018461122a565b92915050565b60006020820190506113c06000830184611286565b92915050565b60005b838110156113e45780820151818401526020810190506113c9565b60008484015250505050565b60006114036113fe846110bd565b6110a2565b90508281526020810184848401111561141f5761141e61102c565b5b61142a8482856113c6565b509392505050565b600082601f83011261144757611446610ed0565b5b81516114578482602086016113f0565b91505092915050565b60006020828403121561147657611475610ec6565b5b600082015167ffffffffffffffff81111561149457611493610ecb565b5b6114a084828501611432565b91505092915050565b600081519050919050565b600081905092915050565b60006114ca826114a9565b6114d481856114b4565b93506114e48185602086016113c6565b80840191505092915050565b60006114fc82846114bf565b915081905092915050565b600082825260208201905092915050565b7f4e6f7420617574686f72697a656420746f20637265617465207461736b000000600082015250565b600061154e601d83611507565b915061155982611518565b602082019050919050565b6000602082019050818103600083015261157d81611541565b9050919050565b60006115908385611507565b935061159d8385846110ee565b6115a683611031565b840190509392505050565b600060208201905081810360008301526115cc818486611584565b90509392505050565b7f5461736b20616c726561647920636f6d706c6574656400000000000000000000600082015250565b600061160b601683611507565b9150611616826115d5565b602082019050919050565b6000602082019050818103600083015261163a816115fe565b9050919050565b7f5461736b20616c726561647920636c61696d6564000000000000000000000000600082015250565b6000611677601483611507565b915061168282611641565b602082019050919050565b600060208201905081810360008301526116a68161166a565b9050919050565b60006040820190506116c2600083018661122a565b81810360208301526116d5818486611584565b9050949350505050565b7f4e487b7100000000000000000000000000000000000000000000000000000000600052601160045260246000fd5b600061171982610f82565b91507fffffffffffffffffffffffffffffffffffffffffffffffffffffffffffffffff820361174b5761174a6116df565b5b600182019050919050565b6000611761826114a9565b61176b8185611507565b935061177b8185602086016113c6565b61178481611031565b840191505092915050565b60006060820190506117a4600083018761122a565b81810360208301526117b7818587611584565b905081810360408301526117cb8184611756565b905095945050505050565b7f4e6f742061206d656d6265720000000000000000000000000000000000000000600082015250565b600061180c600c83611507565b9150611817826117d6565b602082019050919050565b6000602082019050818103600083015261183b816117ff565b9050919050565b60006040820190506118576000830185611286565b611864602083018461122a565b939250505056fea264697066735822122028d8cf4616f0b32ad98e03566d50c18d9bf44fcf402e9843975e51d209ad3ade64736f6c63430008140033",
  "linkReferences": {},
  "deployedLinkReferences": {}
}