{
  "_format": "hh-sol-artifact-1",
  "contractName": "TaskManagerFactory",
  "sourceName": "contracts/TaskManagerFactory.sol",
  "abi": [
    {
      "anonymous": false,
      "inputs": [
        {
          "indexed": false,
          "internalType": "address",
          "name": "TaskManager",
          "type": "address"
        },
        {
          "indexed": false,
          "internalType": "string",
          "name": "POname",
          "type": "string"
        }
      ],
      "name": "TaskManagerCreated",
      "type": "event"
    },
    {
      "inputs": [
        {
          "internalType": "address",
          "name": "_token",
          "type": "address"
        },
        {
          "internalType": "address",
          "name": "_nftMembership",
          "type": "address"
        },
        {
          "internalType": "string[]",
          "name": "_allowedRoleNames",
          "type": "string[]"
        },
        {
          "internalType": "string",
          "name": "POname",
          "type": "string"
        }
      ],
      "name": "createTaskManager",
      "outputs": [
        {
          "internalType": "address",
          "name": "",
          "type": "address"
        }
      ],
      "stateMutability": "nonpayable",
      "type": "function"
    },
    {
      "inputs": [],
      "name": "getAllTaskManagers",
      "outputs": [
        {
          "internalType": "address[]",
          "name": "",
          "type": "address[]"
        }
      ],
      "stateMutability": "view",
      "type": "function"
    },
    {
      "inputs": [
        {
          "internalType": "uint256",
          "name": "",
          "type": "uint256"
        }
      ],
      "name": "taskManagers",
      "outputs": [
        {
          "internalType": "address",
          "name": "",
          "type": "address"
        }
      ],
      "stateMutability": "view",
      "type": "function"
    }
  ],
  "bytecode": "0x608060405234801561001057600080fd5b50612842806100206000396000f3fe60806040523480156200001157600080fd5b5060043610620000465760003560e01c806366c68583146200004b578063ae7baf6b1462000081578063fd69a60f14620000a3575b600080fd5b6200006960048036038101906200006391906200057a565b620000d9565b6040516200007891906200063b565b60405180910390f35b6200008b620001c5565b6040516200009a919062000726565b60405180910390f35b620000c16004803603810190620000bb919062000785565b62000255565b604051620000d091906200063b565b60405180910390f35b600080858585604051620000ed9062000295565b620000fb9392919062000910565b604051809103906000f08015801562000118573d6000803e3d6000fd5b5090506000819080600181540180825580915050600190039060005260206000200160009091909190916101000a81548173ffffffffffffffffffffffffffffffffffffffff021916908373ffffffffffffffffffffffffffffffffffffffff1602179055507f58a72043e245922bc4d3f3b9c9ff178e3ba542788b71b225ae9720c2cf1392318184604051620001b1929190620009a6565b60405180910390a180915050949350505050565b606060008054806020026020016040519081016040528092919081815260200182805480156200024b57602002820191906000526020600020905b8160009054906101000a900473ffffffffffffffffffffffffffffffffffffffff1673ffffffffffffffffffffffffffffffffffffffff168152602001906001019080831162000200575b5050505050905090565b600081815481106200026657600080fd5b906000526020600020016000915054906101000a900473ffffffffffffffffffffffffffffffffffffffff1681565b611e3280620009db83390190565b6000604051905090565b600080fd5b600080fd5b600073ffffffffffffffffffffffffffffffffffffffff82169050919050565b6000620002e482620002b7565b9050919050565b620002f681620002d7565b81146200030257600080fd5b50565b6000813590506200031681620002eb565b92915050565b600080fd5b6000601f19601f8301169050919050565b7f4e487b7100000000000000000000000000000000000000000000000000000000600052604160045260246000fd5b6200036c8262000321565b810181811067ffffffffffffffff821117156200038e576200038d62000332565b5b80604052505050565b6000620003a3620002a3565b9050620003b1828262000361565b919050565b600067ffffffffffffffff821115620003d457620003d362000332565b5b602082029050602081019050919050565b600080fd5b600080fd5b600067ffffffffffffffff8211156200040d576200040c62000332565b5b620004188262000321565b9050602081019050919050565b82818337600083830152505050565b60006200044b6200044584620003ef565b62000397565b9050828152602081018484840111156200046a5762000469620003ea565b5b6200047784828562000425565b509392505050565b600082601f8301126200049757620004966200031c565b5b8135620004a984826020860162000434565b91505092915050565b6000620004c9620004c384620003b6565b62000397565b90508083825260208201905060208402830185811115620004ef57620004ee620003e5565b5b835b818110156200053d57803567ffffffffffffffff8111156200051857620005176200031c565b5b8086016200052789826200047f565b85526020850194505050602081019050620004f1565b5050509392505050565b600082601f8301126200055f576200055e6200031c565b5b813562000571848260208601620004b2565b91505092915050565b60008060008060808587031215620005975762000596620002ad565b5b6000620005a78782880162000305565b9450506020620005ba8782880162000305565b935050604085013567ffffffffffffffff811115620005de57620005dd620002b2565b5b620005ec8782880162000547565b925050606085013567ffffffffffffffff81111562000610576200060f620002b2565b5b6200061e878288016200047f565b91505092959194509250565b6200063581620002d7565b82525050565b60006020820190506200065260008301846200062a565b92915050565b600081519050919050565b600082825260208201905092915050565b6000819050602082019050919050565b6200068f81620002d7565b82525050565b6000620006a3838362000684565b60208301905092915050565b6000602082019050919050565b6000620006c98262000658565b620006d5818562000663565b9350620006e28362000674565b8060005b8381101562000719578151620006fd888262000695565b97506200070a83620006af565b925050600181019050620006e6565b5085935050505092915050565b60006020820190508181036000830152620007428184620006bc565b905092915050565b6000819050919050565b6200075f816200074a565b81146200076b57600080fd5b50565b6000813590506200077f8162000754565b92915050565b6000602082840312156200079e576200079d620002ad565b5b6000620007ae848285016200076e565b91505092915050565b600081519050919050565b600082825260208201905092915050565b6000819050602082019050919050565b600081519050919050565b600082825260208201905092915050565b60005b838110156200081f57808201518184015260208101905062000802565b60008484015250505050565b60006200083882620007e3565b620008448185620007ee565b935062000856818560208601620007ff565b620008618162000321565b840191505092915050565b60006200087a83836200082b565b905092915050565b6000602082019050919050565b60006200089c82620007b7565b620008a88185620007c2565b935083602082028501620008bc85620007d3565b8060005b85811015620008fe5784840389528151620008dc85826200086c565b9450620008e98362000882565b925060208a01995050600181019050620008c0565b50829750879550505050505092915050565b60006060820190506200092760008301866200062a565b6200093660208301856200062a565b81810360408301526200094a81846200088f565b9050949350505050565b600082825260208201905092915050565b60006200097282620007e3565b6200097e818562000954565b935062000990818560208601620007ff565b6200099b8162000321565b840191505092915050565b6000604082019050620009bd60008301856200062a565b8181036020830152620009d1818462000965565b9050939250505056fe60806040523480156200001157600080fd5b5060405162001e3238038062001e3283398181016040528101906200003791906200042f565b826000806101000a81548173ffffffffffffffffffffffffffffffffffffffff021916908373ffffffffffffffffffffffffffffffffffffffff16021790555081600160006101000a81548173ffffffffffffffffffffffffffffffffffffffff021916908373ffffffffffffffffffffffffffffffffffffffff16021790555060005b8151811015620001315760016004838381518110620000df57620000de620004aa565b5b6020026020010151604051620000f6919062000526565b908152602001604051809103902060006101000a81548160ff0219169083151502179055508080620001289062000578565b915050620000bb565b50505050620005c5565b6000604051905090565b600080fd5b600080fd5b600073ffffffffffffffffffffffffffffffffffffffff82169050919050565b60006200017c826200014f565b9050919050565b6200018e816200016f565b81146200019a57600080fd5b50565b600081519050620001ae8162000183565b92915050565b600080fd5b6000601f19601f8301169050919050565b7f4e487b7100000000000000000000000000000000000000000000000000000000600052604160045260246000fd5b6200020482620001b9565b810181811067ffffffffffffffff82111715620002265762000225620001ca565b5b80604052505050565b60006200023b6200013b565b9050620002498282620001f9565b919050565b600067ffffffffffffffff8211156200026c576200026b620001ca565b5b602082029050602081019050919050565b600080fd5b600080fd5b600067ffffffffffffffff821115620002a557620002a4620001ca565b5b620002b082620001b9565b9050602081019050919050565b60005b83811015620002dd578082015181840152602081019050620002c0565b60008484015250505050565b600062000300620002fa8462000287565b6200022f565b9050828152602081018484840111156200031f576200031e62000282565b5b6200032c848285620002bd565b509392505050565b600082601f8301126200034c576200034b620001b4565b5b81516200035e848260208601620002e9565b91505092915050565b60006200037e62000378846200024e565b6200022f565b90508083825260208201905060208402830185811115620003a457620003a36200027d565b5b835b81811015620003f257805167ffffffffffffffff811115620003cd57620003cc620001b4565b5b808601620003dc898262000334565b85526020850194505050602081019050620003a6565b5050509392505050565b600082601f830112620004145762000413620001b4565b5b81516200042684826020860162000367565b91505092915050565b6000806000606084860312156200044b576200044a62000145565b5b60006200045b868287016200019d565b93505060206200046e868287016200019d565b925050604084015167ffffffffffffffff8111156200049257620004916200014a565b5b620004a086828701620003fc565b9150509250925092565b7f4e487b7100000000000000000000000000000000000000000000000000000000600052603260045260246000fd5b600081519050919050565b600081905092915050565b6000620004fc82620004d9565b620005088185620004e4565b93506200051a818560208601620002bd565b80840191505092915050565b6000620005348284620004ef565b915081905092915050565b7f4e487b7100000000000000000000000000000000000000000000000000000000600052601160045260246000fd5b6000819050919050565b600062000585826200056e565b91507fffffffffffffffffffffffffffffffffffffffffffffffffffffffffffffffff8203620005ba57620005b96200053f565b5b600182019050919050565b61185d80620005d56000396000f3fe608060405234801561001057600080fd5b506004361061009e5760003560e01c80638dd33495116100665780638dd3349514610146578063a2b2b4d414610162578063e1e2955814610180578063fc0c546a1461019c578063fdc3d8d7146101ba5761009e565b806315ee4df1146100a35780633fb78357146100bf5780638524ac98146100db5780638b5f3936146100f75780638d97767214610113575b600080fd5b6100bd60048036038101906100b89190610ef1565b6101d8565b005b6100d960048036038101906100d49190610f74565b610326565b005b6100f560048036038101906100f09190611129565b61057f565b005b610111600480360381019061010c9190610ef1565b6107bc565b005b61012d600480360381019061012891906111b9565b61090a565b60405161013d9493929190611251565b60405180910390f35b610160600480360381019061015b91906111b9565b610967565b005b61016a610b94565b60405161017791906112f5565b60405180910390f35b61019a600480360381019061019591906111b9565b610bba565b005b6101a4610e4e565b6040516101b19190611331565b60405180910390f35b6101c2610e72565b6040516101cf919061134c565b60405180910390f35b6000600160009054906101000a900473ffffffffffffffffffffffffffffffffffffffff1673ffffffffffffffffffffffffffffffffffffffff166377782188336040518263ffffffff1660e01b81526004016102359190611367565b600060405180830381865afa158015610252573d6000803e3d6000fd5b505050506040513d6000823e3d601f19601f8201168201806040525081019061027b919061141c565b905060048160405161028d91906114ac565b908152602001604051809103902060009054906101000a900460ff166102e8576040517f08c379a00000000000000000000000000000000000000000000000000000000081526004016102df90611520565b60405180910390fd5b7f1d9633bff7d0a58c4a25dc562a94b73474abdf064235c050de1a830462ee23fa838360405161031992919061156d565b60405180910390a1505050565b6000600160009054906101000a900473ffffffffffffffffffffffffffffffffffffffff1673ffffffffffffffffffffffffffffffffffffffff166377782188336040518263ffffffff1660e01b81526004016103839190611367565b600060405180830381865afa1580156103a0573d6000803e3d6000fd5b505050506040513d6000823e3d601f19601f820116820180604052508101906103c9919061141c565b90506004816040516103db91906114ac565b908152602001604051809103902060009054906101000a900460ff16610436576040517f08c379a000000000000000000000000000000000000000000000000000000000815260040161042d90611520565b60405180910390fd5b60006002600087815260200190815260200160002090508060020160009054906101000a900460ff161561049f576040517f08c379a0000000000000000000000000000000000000000000000000000000008152600401610496906115dd565b60405180910390fd5b600073ffffffffffffffffffffffffffffffffffffffff168160020160019054906101000a900473ffffffffffffffffffffffffffffffffffffffff1673ffffffffffffffffffffffffffffffffffffffff1614610532576040517f08c379a000000000000000000000000000000000000000000000000000000000815260040161052990611649565b60405180910390fd5b848160010181905550857f76adc3d0855e90a9359376f47f1b7fa4d7624d22098b8927f2fd345690c4b99686868660405161056f93929190611669565b60405180910390a2505050505050565b6000600160009054906101000a900473ffffffffffffffffffffffffffffffffffffffff1673ffffffffffffffffffffffffffffffffffffffff166377782188336040518263ffffffff1660e01b81526004016105dc9190611367565b600060405180830381865afa1580156105f9573d6000803e3d6000fd5b505050506040513d6000823e3d601f19601f82011682018060405250810190610622919061141c565b905060048160405161063491906114ac565b908152602001604051809103902060009054906101000a900460ff1661068f576040517f08c379a000000000000000000000000000000000000000000000000000000000815260040161068690611520565b60405180910390fd5b6000600360008154809291906106a4906116ca565b9190505590506040518060800160405280828152602001878152602001600015158152602001600073ffffffffffffffffffffffffffffffffffffffff1681525060026000838152602001908152602001600020600082015181600001556020820151816001015560408201518160020160006101000a81548160ff02191690831515021790555060608201518160020160016101000a81548173ffffffffffffffffffffffffffffffffffffffff021916908373ffffffffffffffffffffffffffffffffffffffff160217905550905050807f211bf15b7962b0fd1e5b3308db0d9c6e0b9bb758c934b8c9345201b1892481b8878787876040516107ac949392919061174b565b60405180910390a2505050505050565b6000600160009054906101000a900473ffffffffffffffffffffffffffffffffffffffff1673ffffffffffffffffffffffffffffffffffffffff166377782188336040518263ffffffff1660e01b81526004016108199190611367565b600060405180830381865afa158015610836573d6000803e3d6000fd5b505050506040513d6000823e3d601f19601f8201168201806040525081019061085f919061141c565b905060048160405161087191906114ac565b908152602001604051809103902060009054906101000a900460ff166108cc576040517f08c379a00000000000000000000000000000000000000000000000000000000081526004016108c390611520565b60405180910390fd5b7fff0a52f1426ab03161133396bf3b3a194ea51f4603fb09e8af8abf1817e6eec983836040516108fd92919061156d565b60405180910390a1505050565b60026020528060005260406000206000915090508060000154908060010154908060020160009054906101000a900460ff16908060020160019054906101000a900473ffffffffffffffffffffffffffffffffffffffff16905084565b6000600160009054906101000a900473ffffffffffffffffffffffffffffffffffffffff1673ffffffffffffffffffffffffffffffffffffffff166377782188336040518263ffffffff1660e01b81526004016109c49190611367565b600060405180830381865afa1580156109e1573d6000803e3d6000fd5b505050506040513d6000823e3d601f19601f82011682018060405250810190610a0a919061141c565b90506000815103610a50576040517f08c379a0000000000000000000000000000000000000000000000000000000008152600401610a47906117de565b60405180910390fd5b60006002600084815260200190815260200160002090508060020160009054906101000a900460ff1615610ab9576040517f08c379a0000000000000000000000000000000000000000000000000000000008152600401610ab0906115dd565b60405180910390fd5b600073ffffffffffffffffffffffffffffffffffffffff168160020160019054906101000a900473ffffffffffffffffffffffffffffffffffffffff1673ffffffffffffffffffffffffffffffffffffffff1614610b4c576040517f08c379a0000000000000000000000000000000000000000000000000000000008152600401610b4390611649565b60405180910390fd5b338160020160016101000a81548173ffffffffffffffffffffffffffffffffffffffff021916908373ffffffffffffffffffffffffffffffffffffffff160217905550505050565b600160009054906101000a900473ffffffffffffffffffffffffffffffffffffffff1681565b6000600160009054906101000a900473ffffffffffffffffffffffffffffffffffffffff1673ffffffffffffffffffffffffffffffffffffffff166377782188336040518263ffffffff1660e01b8152600401610c179190611367565b600060405180830381865afa158015610c34573d6000803e3d6000fd5b505050506040513d6000823e3d601f19601f82011682018060405250810190610c5d919061141c565b9050600481604051610c6f91906114ac565b908152602001604051809103902060009054906101000a900460ff16610cca576040517f08c379a0000000000000000000000000000000000000000000000000000000008152600401610cc190611520565b60405180910390fd5b60006002600084815260200190815260200160002090508060020160009054906101000a900460ff1615610d33576040517f08c379a0000000000000000000000000000000000000000000000000000000008152600401610d2a906115dd565b60405180910390fd5b60018160020160006101000a81548160ff02191690831515021790555060008054906101000a900473ffffffffffffffffffffffffffffffffffffffff1673ffffffffffffffffffffffffffffffffffffffff166340c10f198260020160019054906101000a900473ffffffffffffffffffffffffffffffffffffffff1683600101546040518363ffffffff1660e01b8152600401610dd39291906117fe565b600060405180830381600087803b158015610ded57600080fd5b505af1158015610e01573d6000803e3d6000fd5b505050503373ffffffffffffffffffffffffffffffffffffffff16837fbb5889c77948badf90e8a5c73d55265e5f5d6e4837a79a78c5669691b897faed60405160405180910390a3505050565b60008054906101000a900473ffffffffffffffffffffffffffffffffffffffff1681565b60035481565b6000604051905090565b600080fd5b600080fd5b600080fd5b600080fd5b600080fd5b60008083601f840112610eb157610eb0610e8c565b5b8235905067ffffffffffffffff811115610ece57610ecd610e91565b5b602083019150836001820283011115610eea57610ee9610e96565b5b9250929050565b60008060208385031215610f0857610f07610e82565b5b600083013567ffffffffffffffff811115610f2657610f25610e87565b5b610f3285828601610e9b565b92509250509250929050565b6000819050919050565b610f5181610f3e565b8114610f5c57600080fd5b50565b600081359050610f6e81610f48565b92915050565b60008060008060608587031215610f8e57610f8d610e82565b5b6000610f9c87828801610f5f565b9450506020610fad87828801610f5f565b935050604085013567ffffffffffffffff811115610fce57610fcd610e87565b5b610fda87828801610e9b565b925092505092959194509250565b600080fd5b6000601f19601f8301169050919050565b7f4e487b7100000000000000000000000000000000000000000000000000000000600052604160045260246000fd5b61103682610fed565b810181811067ffffffffffffffff8211171561105557611054610ffe565b5b80604052505050565b6000611068610e78565b9050611074828261102d565b919050565b600067ffffffffffffffff82111561109457611093610ffe565b5b61109d82610fed565b9050602081019050919050565b82818337600083830152505050565b60006110cc6110c784611079565b61105e565b9050828152602081018484840111156110e8576110e7610fe8565b5b6110f38482856110aa565b509392505050565b600082601f8301126111105761110f610e8c565b5b81356111208482602086016110b9565b91505092915050565b6000806000806060858703121561114357611142610e82565b5b600061115187828801610f5f565b945050602085013567ffffffffffffffff81111561117257611171610e87565b5b61117e87828801610e9b565b9350935050604085013567ffffffffffffffff8111156111a1576111a0610e87565b5b6111ad878288016110fb565b91505092959194509250565b6000602082840312156111cf576111ce610e82565b5b60006111dd84828501610f5f565b91505092915050565b6111ef81610f3e565b82525050565b60008115159050919050565b61120a816111f5565b82525050565b600073ffffffffffffffffffffffffffffffffffffffff82169050919050565b600061123b82611210565b9050919050565b61124b81611230565b82525050565b600060808201905061126660008301876111e6565b61127360208301866111e6565b6112806040830185611201565b61128d6060830184611242565b95945050505050565b6000819050919050565b60006112bb6112b66112b184611210565b611296565b611210565b9050919050565b60006112cd826112a0565b9050919050565b60006112df826112c2565b9050919050565b6112ef816112d4565b82525050565b600060208201905061130a60008301846112e6565b92915050565b600061131b826112c2565b9050919050565b61132b81611310565b82525050565b60006020820190506113466000830184611322565b92915050565b600060208201905061136160008301846111e6565b92915050565b600060208201905061137c6000830184611242565b92915050565b60005b838110156113a0578082015181840152602081019050611385565b60008484015250505050565b60006113bf6113ba84611079565b61105e565b9050828152602081018484840111156113db576113da610fe8565b5b6113e6848285611382565b509392505050565b600082601f83011261140357611402610e8c565b5b81516114138482602086016113ac565b91505092915050565b60006020828403121561143257611431610e82565b5b600082015167ffffffffffffffff8111156114505761144f610e87565b5b61145c848285016113ee565b91505092915050565b600081519050919050565b600081905092915050565b600061148682611465565b6114908185611470565b93506114a0818560208601611382565b80840191505092915050565b60006114b8828461147b565b915081905092915050565b600082825260208201905092915050565b7f4e6f7420617574686f72697a656420746f20637265617465207461736b000000600082015250565b600061150a601d836114c3565b9150611515826114d4565b602082019050919050565b60006020820190508181036000830152611539816114fd565b9050919050565b600061154c83856114c3565b93506115598385846110aa565b61156283610fed565b840190509392505050565b60006020820190508181036000830152611588818486611540565b90509392505050565b7f5461736b20616c726561647920636f6d706c6574656400000000000000000000600082015250565b60006115c76016836114c3565b91506115d282611591565b602082019050919050565b600060208201905081810360008301526115f6816115ba565b9050919050565b7f5461736b20616c726561647920636c61696d6564000000000000000000000000600082015250565b60006116336014836114c3565b915061163e826115fd565b602082019050919050565b6000602082019050818103600083015261166281611626565b9050919050565b600060408201905061167e60008301866111e6565b8181036020830152611691818486611540565b9050949350505050565b7f4e487b7100000000000000000000000000000000000000000000000000000000600052601160045260246000fd5b60006116d582610f3e565b91507fffffffffffffffffffffffffffffffffffffffffffffffffffffffffffffffff82036117075761170661169b565b5b600182019050919050565b600061171d82611465565b61172781856114c3565b9350611737818560208601611382565b61174081610fed565b840191505092915050565b600060608201905061176060008301876111e6565b8181036020830152611773818587611540565b905081810360408301526117878184611712565b905095945050505050565b7f4e6f742061206d656d6265720000000000000000000000000000000000000000600082015250565b60006117c8600c836114c3565b91506117d382611792565b602082019050919050565b600060208201905081810360008301526117f7816117bb565b9050919050565b60006040820190506118136000830185611242565b61182060208301846111e6565b939250505056fea2646970667358221220adb3ef27c5481bdd7fb3c2be486d3aa38ea52651896d052a3278e0399ef0701064736f6c63430008140033a2646970667358221220eda528517d8e621a317317cb39c854ade858285acb18fd0fa726eb8714920f5664736f6c63430008140033",
  "linkReferences": {},
  "deployedLinkReferences": {}
}