{
  "_format": "hh-sol-artifact-1",
  "contractName": "TaskManagerFactory",
  "sourceName": "contracts/TaskManagerFactory.sol",
  "abi": [
    {
      "anonymous": false,
      "inputs": [
        {
          "indexed": true,
          "internalType": "address",
          "name": "admin",
          "type": "address"
        },
        {
          "indexed": false,
          "internalType": "address",
          "name": "TaskManager",
          "type": "address"
        }
      ],
      "name": "TaskManagerCreated",
      "type": "event"
    },
    {
      "inputs": [
        {
          "internalType": "address",
          "name": "_token",
          "type": "address"
        },
        {
          "internalType": "address",
          "name": "_nftMembership",
          "type": "address"
        },
        {
          "internalType": "string[]",
          "name": "_allowedRoleNames",
          "type": "string[]"
        }
      ],
      "name": "createTaskManager",
      "outputs": [
        {
          "internalType": "address",
          "name": "",
          "type": "address"
        }
      ],
      "stateMutability": "nonpayable",
      "type": "function"
    },
    {
      "inputs": [],
      "name": "getAllTaskManagers",
      "outputs": [
        {
          "internalType": "address[]",
          "name": "",
          "type": "address[]"
        }
      ],
      "stateMutability": "view",
      "type": "function"
    },
    {
      "inputs": [
        {
          "internalType": "uint256",
          "name": "",
          "type": "uint256"
        }
      ],
      "name": "taskManagers",
      "outputs": [
        {
          "internalType": "address",
          "name": "",
          "type": "address"
        }
      ],
      "stateMutability": "view",
      "type": "function"
    }
  ],
  "bytecode": "0x608060405234801561001057600080fd5b50612678806100206000396000f3fe60806040523480156200001157600080fd5b5060043610620000465760003560e01c8063ae7baf6b146200004b578063b7e8419b146200006d578063fd69a60f14620000a3575b600080fd5b62000055620000d9565b604051620000649190620003b9565b60405180910390f35b6200008b600480360381019062000085919062000680565b62000169565b6040516200009a91906200070c565b60405180910390f35b620000c16004803603810190620000bb919062000764565b62000269565b604051620000d091906200070c565b60405180910390f35b606060008054806020026020016040519081016040528092919081815260200182805480156200015f57602002820191906000526020600020905b8160009054906101000a900473ffffffffffffffffffffffffffffffffffffffff1673ffffffffffffffffffffffffffffffffffffffff168152602001906001019080831162000114575b5050505050905090565b6000808484846040516200017d90620002a9565b6200018b93929190620008ef565b604051809103906000f080158015620001a8573d6000803e3d6000fd5b5090506000819080600181540180825580915050600190039060005260206000200160009091909190916101000a81548173ffffffffffffffffffffffffffffffffffffffff021916908373ffffffffffffffffffffffffffffffffffffffff1602179055503373ffffffffffffffffffffffffffffffffffffffff167fe6eec5740a0f91d2fcbb763280d3ae1152b9e14417ed380a14aefe51c213e6a3826040516200025691906200070c565b60405180910390a2809150509392505050565b600081815481106200027a57600080fd5b906000526020600020016000915054906101000a900473ffffffffffffffffffffffffffffffffffffffff1681565b611d0f806200093483390190565b600081519050919050565b600082825260208201905092915050565b6000819050602082019050919050565b600073ffffffffffffffffffffffffffffffffffffffff82169050919050565b60006200031082620002e3565b9050919050565b620003228162000303565b82525050565b600062000336838362000317565b60208301905092915050565b6000602082019050919050565b60006200035c82620002b7565b620003688185620002c2565b93506200037583620002d3565b8060005b83811015620003ac57815162000390888262000328565b97506200039d8362000342565b92505060018101905062000379565b5085935050505092915050565b60006020820190508181036000830152620003d581846200034f565b905092915050565b6000604051905090565b600080fd5b600080fd5b620003fc8162000303565b81146200040857600080fd5b50565b6000813590506200041c81620003f1565b92915050565b600080fd5b6000601f19601f8301169050919050565b7f4e487b7100000000000000000000000000000000000000000000000000000000600052604160045260246000fd5b620004728262000427565b810181811067ffffffffffffffff8211171562000494576200049362000438565b5b80604052505050565b6000620004a9620003dd565b9050620004b7828262000467565b919050565b600067ffffffffffffffff821115620004da57620004d962000438565b5b602082029050602081019050919050565b600080fd5b600080fd5b600067ffffffffffffffff82111562000513576200051262000438565b5b6200051e8262000427565b9050602081019050919050565b82818337600083830152505050565b6000620005516200054b84620004f5565b6200049d565b90508281526020810184848401111562000570576200056f620004f0565b5b6200057d8482856200052b565b509392505050565b600082601f8301126200059d576200059c62000422565b5b8135620005af8482602086016200053a565b91505092915050565b6000620005cf620005c984620004bc565b6200049d565b90508083825260208201905060208402830185811115620005f557620005f4620004eb565b5b835b818110156200064357803567ffffffffffffffff8111156200061e576200061d62000422565b5b8086016200062d898262000585565b85526020850194505050602081019050620005f7565b5050509392505050565b600082601f83011262000665576200066462000422565b5b813562000677848260208601620005b8565b91505092915050565b6000806000606084860312156200069c576200069b620003e7565b5b6000620006ac868287016200040b565b9350506020620006bf868287016200040b565b925050604084013567ffffffffffffffff811115620006e357620006e2620003ec565b5b620006f1868287016200064d565b9150509250925092565b620007068162000303565b82525050565b6000602082019050620007236000830184620006fb565b92915050565b6000819050919050565b6200073e8162000729565b81146200074a57600080fd5b50565b6000813590506200075e8162000733565b92915050565b6000602082840312156200077d576200077c620003e7565b5b60006200078d848285016200074d565b91505092915050565b600081519050919050565b600082825260208201905092915050565b6000819050602082019050919050565b600081519050919050565b600082825260208201905092915050565b60005b83811015620007fe578082015181840152602081019050620007e1565b60008484015250505050565b60006200081782620007c2565b620008238185620007cd565b935062000835818560208601620007de565b620008408162000427565b840191505092915050565b60006200085983836200080a565b905092915050565b6000602082019050919050565b60006200087b8262000796565b620008878185620007a1565b9350836020820285016200089b85620007b2565b8060005b85811015620008dd5784840389528151620008bb85826200084b565b9450620008c88362000861565b925060208a019950506001810190506200089f565b50829750879550505050505092915050565b6000606082019050620009066000830186620006fb565b620009156020830185620006fb565b81810360408301526200092981846200086e565b905094935050505056fe60806040523480156200001157600080fd5b5060405162001d0f38038062001d0f83398181016040528101906200003791906200042f565b826000806101000a81548173ffffffffffffffffffffffffffffffffffffffff021916908373ffffffffffffffffffffffffffffffffffffffff16021790555081600160006101000a81548173ffffffffffffffffffffffffffffffffffffffff021916908373ffffffffffffffffffffffffffffffffffffffff16021790555060005b8151811015620001315760016004838381518110620000df57620000de620004aa565b5b6020026020010151604051620000f6919062000526565b908152602001604051809103902060006101000a81548160ff0219169083151502179055508080620001289062000578565b915050620000bb565b50505050620005c5565b6000604051905090565b600080fd5b600080fd5b600073ffffffffffffffffffffffffffffffffffffffff82169050919050565b60006200017c826200014f565b9050919050565b6200018e816200016f565b81146200019a57600080fd5b50565b600081519050620001ae8162000183565b92915050565b600080fd5b6000601f19601f8301169050919050565b7f4e487b7100000000000000000000000000000000000000000000000000000000600052604160045260246000fd5b6200020482620001b9565b810181811067ffffffffffffffff82111715620002265762000225620001ca565b5b80604052505050565b60006200023b6200013b565b9050620002498282620001f9565b919050565b600067ffffffffffffffff8211156200026c576200026b620001ca565b5b602082029050602081019050919050565b600080fd5b600080fd5b600067ffffffffffffffff821115620002a557620002a4620001ca565b5b620002b082620001b9565b9050602081019050919050565b60005b83811015620002dd578082015181840152602081019050620002c0565b60008484015250505050565b600062000300620002fa8462000287565b6200022f565b9050828152602081018484840111156200031f576200031e62000282565b5b6200032c848285620002bd565b509392505050565b600082601f8301126200034c576200034b620001b4565b5b81516200035e848260208601620002e9565b91505092915050565b60006200037e62000378846200024e565b6200022f565b90508083825260208201905060208402830185811115620003a457620003a36200027d565b5b835b81811015620003f257805167ffffffffffffffff811115620003cd57620003cc620001b4565b5b808601620003dc898262000334565b85526020850194505050602081019050620003a6565b5050509392505050565b600082601f830112620004145762000413620001b4565b5b81516200042684826020860162000367565b91505092915050565b6000806000606084860312156200044b576200044a62000145565b5b60006200045b868287016200019d565b93505060206200046e868287016200019d565b925050604084015167ffffffffffffffff8111156200049257620004916200014a565b5b620004a086828701620003fc565b9150509250925092565b7f4e487b7100000000000000000000000000000000000000000000000000000000600052603260045260246000fd5b600081519050919050565b600081905092915050565b6000620004fc82620004d9565b620005088185620004e4565b93506200051a818560208601620002bd565b80840191505092915050565b6000620005348284620004ef565b915081905092915050565b7f4e487b7100000000000000000000000000000000000000000000000000000000600052601160045260246000fd5b6000819050919050565b600062000585826200056e565b91507fffffffffffffffffffffffffffffffffffffffffffffffffffffffffffffffff8203620005ba57620005b96200053f565b5b600182019050919050565b61173a80620005d56000396000f3fe608060405234801561001057600080fd5b506004361061009e5760003560e01c80638dd33495116100665780638dd3349514610146578063a2b2b4d414610162578063e1e2955814610180578063fc0c546a1461019c578063fdc3d8d7146101ba5761009e565b806315ee4df1146100a357806316d41b94146100bf5780633fb78357146100db5780638b5f3936146100f75780638d97767214610113575b600080fd5b6100bd60048036038101906100b89190610eee565b6101d8565b005b6100d960048036038101906100d49190610f71565b610326565b005b6100f560048036038101906100f09190610fd1565b610560565b005b610111600480360381019061010c9190610eee565b6107b9565b005b61012d60048036038101906101289190611045565b610907565b60405161013d94939291906110dd565b60405180910390f35b610160600480360381019061015b9190611045565b610964565b005b61016a610b91565b6040516101779190611181565b60405180910390f35b61019a60048036038101906101959190611045565b610bb7565b005b6101a4610e4b565b6040516101b191906111bd565b60405180910390f35b6101c2610e6f565b6040516101cf91906111d8565b60405180910390f35b6000600160009054906101000a900473ffffffffffffffffffffffffffffffffffffffff1673ffffffffffffffffffffffffffffffffffffffff166377782188336040518263ffffffff1660e01b815260040161023591906111f3565b600060405180830381865afa158015610252573d6000803e3d6000fd5b505050506040513d6000823e3d601f19601f8201168201806040525081019061027b919061136a565b905060048160405161028d91906113fa565b908152602001604051809103902060009054906101000a900460ff166102e8576040517f08c379a00000000000000000000000000000000000000000000000000000000081526004016102df9061146e565b60405180910390fd5b7f1d9633bff7d0a58c4a25dc562a94b73474abdf064235c050de1a830462ee23fa83836040516103199291906114ca565b60405180910390a1505050565b6000600160009054906101000a900473ffffffffffffffffffffffffffffffffffffffff1673ffffffffffffffffffffffffffffffffffffffff166377782188336040518263ffffffff1660e01b815260040161038391906111f3565b600060405180830381865afa1580156103a0573d6000803e3d6000fd5b505050506040513d6000823e3d601f19601f820116820180604052508101906103c9919061136a565b90506004816040516103db91906113fa565b908152602001604051809103902060009054906101000a900460ff16610436576040517f08c379a000000000000000000000000000000000000000000000000000000000815260040161042d9061146e565b60405180910390fd5b60006003600081548092919061044b9061151d565b9190505590506040518060800160405280828152602001868152602001600015158152602001600073ffffffffffffffffffffffffffffffffffffffff1681525060026000838152602001908152602001600020600082015181600001556020820151816001015560408201518160020160006101000a81548160ff02191690831515021790555060608201518160020160016101000a81548173ffffffffffffffffffffffffffffffffffffffff021916908373ffffffffffffffffffffffffffffffffffffffff160217905550905050807faaea5a85c9c3b7b12c48d96193f953955bc3d1b2b0790405eb9b4aa2973a113186868660405161055193929190611565565b60405180910390a25050505050565b6000600160009054906101000a900473ffffffffffffffffffffffffffffffffffffffff1673ffffffffffffffffffffffffffffffffffffffff166377782188336040518263ffffffff1660e01b81526004016105bd91906111f3565b600060405180830381865afa1580156105da573d6000803e3d6000fd5b505050506040513d6000823e3d601f19601f82011682018060405250810190610603919061136a565b905060048160405161061591906113fa565b908152602001604051809103902060009054906101000a900460ff16610670576040517f08c379a00000000000000000000000000000000000000000000000000000000081526004016106679061146e565b60405180910390fd5b60006002600087815260200190815260200160002090508060020160009054906101000a900460ff16156106d9576040517f08c379a00000000000000000000000000000000000000000000000000000000081526004016106d0906115e3565b60405180910390fd5b600073ffffffffffffffffffffffffffffffffffffffff168160020160019054906101000a900473ffffffffffffffffffffffffffffffffffffffff1673ffffffffffffffffffffffffffffffffffffffff161461076c576040517f08c379a00000000000000000000000000000000000000000000000000000000081526004016107639061164f565b60405180910390fd5b848160010181905550857f76adc3d0855e90a9359376f47f1b7fa4d7624d22098b8927f2fd345690c4b9968686866040516107a993929190611565565b60405180910390a2505050505050565b6000600160009054906101000a900473ffffffffffffffffffffffffffffffffffffffff1673ffffffffffffffffffffffffffffffffffffffff166377782188336040518263ffffffff1660e01b815260040161081691906111f3565b600060405180830381865afa158015610833573d6000803e3d6000fd5b505050506040513d6000823e3d601f19601f8201168201806040525081019061085c919061136a565b905060048160405161086e91906113fa565b908152602001604051809103902060009054906101000a900460ff166108c9576040517f08c379a00000000000000000000000000000000000000000000000000000000081526004016108c09061146e565b60405180910390fd5b7fff0a52f1426ab03161133396bf3b3a194ea51f4603fb09e8af8abf1817e6eec983836040516108fa9291906114ca565b60405180910390a1505050565b60026020528060005260406000206000915090508060000154908060010154908060020160009054906101000a900460ff16908060020160019054906101000a900473ffffffffffffffffffffffffffffffffffffffff16905084565b6000600160009054906101000a900473ffffffffffffffffffffffffffffffffffffffff1673ffffffffffffffffffffffffffffffffffffffff166377782188336040518263ffffffff1660e01b81526004016109c191906111f3565b600060405180830381865afa1580156109de573d6000803e3d6000fd5b505050506040513d6000823e3d601f19601f82011682018060405250810190610a07919061136a565b90506000815103610a4d576040517f08c379a0000000000000000000000000000000000000000000000000000000008152600401610a44906116bb565b60405180910390fd5b60006002600084815260200190815260200160002090508060020160009054906101000a900460ff1615610ab6576040517f08c379a0000000000000000000000000000000000000000000000000000000008152600401610aad906115e3565b60405180910390fd5b600073ffffffffffffffffffffffffffffffffffffffff168160020160019054906101000a900473ffffffffffffffffffffffffffffffffffffffff1673ffffffffffffffffffffffffffffffffffffffff1614610b49576040517f08c379a0000000000000000000000000000000000000000000000000000000008152600401610b409061164f565b60405180910390fd5b338160020160016101000a81548173ffffffffffffffffffffffffffffffffffffffff021916908373ffffffffffffffffffffffffffffffffffffffff160217905550505050565b600160009054906101000a900473ffffffffffffffffffffffffffffffffffffffff1681565b6000600160009054906101000a900473ffffffffffffffffffffffffffffffffffffffff1673ffffffffffffffffffffffffffffffffffffffff166377782188336040518263ffffffff1660e01b8152600401610c1491906111f3565b600060405180830381865afa158015610c31573d6000803e3d6000fd5b505050506040513d6000823e3d601f19601f82011682018060405250810190610c5a919061136a565b9050600481604051610c6c91906113fa565b908152602001604051809103902060009054906101000a900460ff16610cc7576040517f08c379a0000000000000000000000000000000000000000000000000000000008152600401610cbe9061146e565b60405180910390fd5b60006002600084815260200190815260200160002090508060020160009054906101000a900460ff1615610d30576040517f08c379a0000000000000000000000000000000000000000000000000000000008152600401610d27906115e3565b60405180910390fd5b60018160020160006101000a81548160ff02191690831515021790555060008054906101000a900473ffffffffffffffffffffffffffffffffffffffff1673ffffffffffffffffffffffffffffffffffffffff166340c10f198260020160019054906101000a900473ffffffffffffffffffffffffffffffffffffffff1683600101546040518363ffffffff1660e01b8152600401610dd09291906116db565b600060405180830381600087803b158015610dea57600080fd5b505af1158015610dfe573d6000803e3d6000fd5b505050503373ffffffffffffffffffffffffffffffffffffffff16837fbb5889c77948badf90e8a5c73d55265e5f5d6e4837a79a78c5669691b897faed60405160405180910390a3505050565b60008054906101000a900473ffffffffffffffffffffffffffffffffffffffff1681565b60035481565b6000604051905090565b600080fd5b600080fd5b600080fd5b600080fd5b600080fd5b60008083601f840112610eae57610ead610e89565b5b8235905067ffffffffffffffff811115610ecb57610eca610e8e565b5b602083019150836001820283011115610ee757610ee6610e93565b5b9250929050565b60008060208385031215610f0557610f04610e7f565b5b600083013567ffffffffffffffff811115610f2357610f22610e84565b5b610f2f85828601610e98565b92509250509250929050565b6000819050919050565b610f4e81610f3b565b8114610f5957600080fd5b50565b600081359050610f6b81610f45565b92915050565b600080600060408486031215610f8a57610f89610e7f565b5b6000610f9886828701610f5c565b935050602084013567ffffffffffffffff811115610fb957610fb8610e84565b5b610fc586828701610e98565b92509250509250925092565b60008060008060608587031215610feb57610fea610e7f565b5b6000610ff987828801610f5c565b945050602061100a87828801610f5c565b935050604085013567ffffffffffffffff81111561102b5761102a610e84565b5b61103787828801610e98565b925092505092959194509250565b60006020828403121561105b5761105a610e7f565b5b600061106984828501610f5c565b91505092915050565b61107b81610f3b565b82525050565b60008115159050919050565b61109681611081565b82525050565b600073ffffffffffffffffffffffffffffffffffffffff82169050919050565b60006110c78261109c565b9050919050565b6110d7816110bc565b82525050565b60006080820190506110f26000830187611072565b6110ff6020830186611072565b61110c604083018561108d565b61111960608301846110ce565b95945050505050565b6000819050919050565b600061114761114261113d8461109c565b611122565b61109c565b9050919050565b60006111598261112c565b9050919050565b600061116b8261114e565b9050919050565b61117b81611160565b82525050565b60006020820190506111966000830184611172565b92915050565b60006111a78261114e565b9050919050565b6111b78161119c565b82525050565b60006020820190506111d260008301846111ae565b92915050565b60006020820190506111ed6000830184611072565b92915050565b600060208201905061120860008301846110ce565b92915050565b600080fd5b6000601f19601f8301169050919050565b7f4e487b7100000000000000000000000000000000000000000000000000000000600052604160045260246000fd5b61125c82611213565b810181811067ffffffffffffffff8211171561127b5761127a611224565b5b80604052505050565b600061128e610e75565b905061129a8282611253565b919050565b600067ffffffffffffffff8211156112ba576112b9611224565b5b6112c382611213565b9050602081019050919050565b60005b838110156112ee5780820151818401526020810190506112d3565b60008484015250505050565b600061130d6113088461129f565b611284565b9050828152602081018484840111156113295761132861120e565b5b6113348482856112d0565b509392505050565b600082601f83011261135157611350610e89565b5b81516113618482602086016112fa565b91505092915050565b6000602082840312156113805761137f610e7f565b5b600082015167ffffffffffffffff81111561139e5761139d610e84565b5b6113aa8482850161133c565b91505092915050565b600081519050919050565b600081905092915050565b60006113d4826113b3565b6113de81856113be565b93506113ee8185602086016112d0565b80840191505092915050565b600061140682846113c9565b915081905092915050565b600082825260208201905092915050565b7f4e6f7420617574686f72697a656420746f20637265617465207461736b000000600082015250565b6000611458601d83611411565b915061146382611422565b602082019050919050565b600060208201905081810360008301526114878161144b565b9050919050565b82818337600083830152505050565b60006114a98385611411565b93506114b683858461148e565b6114bf83611213565b840190509392505050565b600060208201905081810360008301526114e581848661149d565b90509392505050565b7f4e487b7100000000000000000000000000000000000000000000000000000000600052601160045260246000fd5b600061152882610f3b565b91507fffffffffffffffffffffffffffffffffffffffffffffffffffffffffffffffff820361155a576115596114ee565b5b600182019050919050565b600060408201905061157a6000830186611072565b818103602083015261158d81848661149d565b9050949350505050565b7f5461736b20616c726561647920636f6d706c6574656400000000000000000000600082015250565b60006115cd601683611411565b91506115d882611597565b602082019050919050565b600060208201905081810360008301526115fc816115c0565b9050919050565b7f5461736b20616c726561647920636c61696d6564000000000000000000000000600082015250565b6000611639601483611411565b915061164482611603565b602082019050919050565b600060208201905081810360008301526116688161162c565b9050919050565b7f4e6f742061206d656d6265720000000000000000000000000000000000000000600082015250565b60006116a5600c83611411565b91506116b08261166f565b602082019050919050565b600060208201905081810360008301526116d481611698565b9050919050565b60006040820190506116f060008301856110ce565b6116fd6020830184611072565b939250505056fea2646970667358221220251fe074961406d68783acce492bb5f69ff4b46012f8d1e8e5c1ef06969f026c64736f6c63430008140033a2646970667358221220cd31d57f132a5861d63140e3ee95f777fd49fa4e7f7199c219e2012f9917c54164736f6c63430008140033",
  "linkReferences": {},
  "deployedLinkReferences": {}
}