{
  "_format": "hh-sol-artifact-1",
  "contractName": "TaskManager",
  "sourceName": "contracts/TaskManager.sol",
  "abi": [
    {
      "inputs": [
        {
          "internalType": "address",
          "name": "_token",
          "type": "address"
        },
        {
          "internalType": "address",
          "name": "_nftMembership",
          "type": "address"
        },
        {
          "internalType": "string[]",
          "name": "_allowedRoleNames",
          "type": "string[]"
        }
      ],
      "stateMutability": "nonpayable",
      "type": "constructor"
    },
    {
      "anonymous": false,
      "inputs": [
        {
          "indexed": false,
          "internalType": "string",
          "name": "projectName",
          "type": "string"
        }
      ],
      "name": "ProjectCreated",
      "type": "event"
    },
    {
      "anonymous": false,
      "inputs": [
        {
          "indexed": false,
          "internalType": "string",
          "name": "projectName",
          "type": "string"
        }
      ],
      "name": "ProjectDeleted",
      "type": "event"
    },
    {
      "anonymous": false,
      "inputs": [
        {
          "indexed": true,
          "internalType": "uint256",
          "name": "id",
          "type": "uint256"
        },
        {
          "indexed": true,
          "internalType": "address",
          "name": "claimer",
          "type": "address"
        }
      ],
      "name": "TaskClaimed",
      "type": "event"
    },
    {
      "anonymous": false,
      "inputs": [
        {
          "indexed": true,
          "internalType": "uint256",
          "name": "id",
          "type": "uint256"
        },
        {
          "indexed": true,
          "internalType": "address",
          "name": "completer",
          "type": "address"
        }
      ],
      "name": "TaskCompleted",
      "type": "event"
    },
    {
      "anonymous": false,
      "inputs": [
        {
          "indexed": true,
          "internalType": "uint256",
          "name": "id",
          "type": "uint256"
        },
        {
          "indexed": false,
          "internalType": "uint256",
          "name": "payout",
          "type": "uint256"
        },
        {
          "indexed": false,
          "internalType": "string",
          "name": "ipfsHash",
          "type": "string"
        },
        {
          "indexed": false,
          "internalType": "string",
          "name": "projectName",
          "type": "string"
        }
      ],
      "name": "TaskCreated",
      "type": "event"
    },
    {
      "anonymous": false,
      "inputs": [
        {
          "indexed": true,
          "internalType": "uint256",
          "name": "id",
          "type": "uint256"
        },
        {
          "indexed": false,
          "internalType": "uint256",
          "name": "payout",
          "type": "uint256"
        },
        {
          "indexed": false,
          "internalType": "string",
          "name": "ipfsHash",
          "type": "string"
        }
      ],
      "name": "TaskUpdated",
      "type": "event"
    },
    {
      "inputs": [
        {
          "internalType": "uint256",
          "name": "_taskId",
          "type": "uint256"
        }
      ],
      "name": "claimTask",
      "outputs": [],
      "stateMutability": "nonpayable",
      "type": "function"
    },
    {
      "inputs": [
        {
          "internalType": "uint256",
          "name": "_taskId",
          "type": "uint256"
        }
      ],
      "name": "completeTask",
      "outputs": [],
      "stateMutability": "nonpayable",
      "type": "function"
    },
    {
      "inputs": [
        {
          "internalType": "string",
          "name": "projectName",
          "type": "string"
        }
      ],
      "name": "createProject",
      "outputs": [],
      "stateMutability": "nonpayable",
      "type": "function"
    },
    {
      "inputs": [
        {
          "internalType": "uint256",
          "name": "_payout",
          "type": "uint256"
        },
        {
          "internalType": "string",
          "name": "ipfsHash",
          "type": "string"
        },
        {
          "internalType": "string",
          "name": "projectName",
          "type": "string"
        }
      ],
      "name": "createTask",
      "outputs": [],
      "stateMutability": "nonpayable",
      "type": "function"
    },
    {
      "inputs": [
        {
          "internalType": "string",
          "name": "projectName",
          "type": "string"
        }
      ],
      "name": "deleteProject",
      "outputs": [],
      "stateMutability": "nonpayable",
      "type": "function"
    },
    {
      "inputs": [],
      "name": "nextTaskId",
      "outputs": [
        {
          "internalType": "uint256",
          "name": "",
          "type": "uint256"
        }
      ],
      "stateMutability": "view",
      "type": "function"
    },
    {
      "inputs": [],
      "name": "nftMembership",
      "outputs": [
        {
          "internalType": "contract INFTMembership",
          "name": "",
          "type": "address"
        }
      ],
      "stateMutability": "view",
      "type": "function"
    },
    {
      "inputs": [
        {
          "internalType": "uint256",
          "name": "",
          "type": "uint256"
        }
      ],
      "name": "tasks",
      "outputs": [
        {
          "internalType": "uint256",
          "name": "id",
          "type": "uint256"
        },
        {
          "internalType": "uint256",
          "name": "payout",
          "type": "uint256"
        },
        {
          "internalType": "bool",
          "name": "isCompleted",
          "type": "bool"
        },
        {
          "internalType": "address",
          "name": "claimer",
          "type": "address"
        }
      ],
      "stateMutability": "view",
      "type": "function"
    },
    {
      "inputs": [],
      "name": "token",
      "outputs": [
        {
          "internalType": "contract IParticipationToken",
          "name": "",
          "type": "address"
        }
      ],
      "stateMutability": "view",
      "type": "function"
    },
    {
      "inputs": [
        {
          "internalType": "uint256",
          "name": "_taskId",
          "type": "uint256"
        },
        {
          "internalType": "uint256",
          "name": "_payout",
          "type": "uint256"
        },
        {
          "internalType": "string",
          "name": "ipfsHash",
          "type": "string"
        }
      ],
      "name": "updateTask",
      "outputs": [],
      "stateMutability": "nonpayable",
      "type": "function"
    }
  ],
  "bytecode": "0x60806040523480156200001157600080fd5b5060405162001de338038062001de383398181016040528101906200003791906200042f565b826000806101000a81548173ffffffffffffffffffffffffffffffffffffffff021916908373ffffffffffffffffffffffffffffffffffffffff16021790555081600160006101000a81548173ffffffffffffffffffffffffffffffffffffffff021916908373ffffffffffffffffffffffffffffffffffffffff16021790555060005b8151811015620001315760016004838381518110620000df57620000de620004aa565b5b6020026020010151604051620000f6919062000526565b908152602001604051809103902060006101000a81548160ff0219169083151502179055508080620001289062000578565b915050620000bb565b50505050620005c5565b6000604051905090565b600080fd5b600080fd5b600073ffffffffffffffffffffffffffffffffffffffff82169050919050565b60006200017c826200014f565b9050919050565b6200018e816200016f565b81146200019a57600080fd5b50565b600081519050620001ae8162000183565b92915050565b600080fd5b6000601f19601f8301169050919050565b7f4e487b7100000000000000000000000000000000000000000000000000000000600052604160045260246000fd5b6200020482620001b9565b810181811067ffffffffffffffff82111715620002265762000225620001ca565b5b80604052505050565b60006200023b6200013b565b9050620002498282620001f9565b919050565b600067ffffffffffffffff8211156200026c576200026b620001ca565b5b602082029050602081019050919050565b600080fd5b600080fd5b600067ffffffffffffffff821115620002a557620002a4620001ca565b5b620002b082620001b9565b9050602081019050919050565b60005b83811015620002dd578082015181840152602081019050620002c0565b60008484015250505050565b600062000300620002fa8462000287565b6200022f565b9050828152602081018484840111156200031f576200031e62000282565b5b6200032c848285620002bd565b509392505050565b600082601f8301126200034c576200034b620001b4565b5b81516200035e848260208601620002e9565b91505092915050565b60006200037e62000378846200024e565b6200022f565b90508083825260208201905060208402830185811115620003a457620003a36200027d565b5b835b81811015620003f257805167ffffffffffffffff811115620003cd57620003cc620001b4565b5b808601620003dc898262000334565b85526020850194505050602081019050620003a6565b5050509392505050565b600082601f830112620004145762000413620001b4565b5b81516200042684826020860162000367565b91505092915050565b6000806000606084860312156200044b576200044a62000145565b5b60006200045b868287016200019d565b93505060206200046e868287016200019d565b925050604084015167ffffffffffffffff8111156200049257620004916200014a565b5b620004a086828701620003fc565b9150509250925092565b7f4e487b7100000000000000000000000000000000000000000000000000000000600052603260045260246000fd5b600081519050919050565b600081905092915050565b6000620004fc82620004d9565b620005088185620004e4565b93506200051a818560208601620002bd565b80840191505092915050565b6000620005348284620004ef565b915081905092915050565b7f4e487b7100000000000000000000000000000000000000000000000000000000600052601160045260246000fd5b6000819050919050565b600062000585826200056e565b91507fffffffffffffffffffffffffffffffffffffffffffffffffffffffffffffffff8203620005ba57620005b96200053f565b5b600182019050919050565b61180e80620005d56000396000f3fe608060405234801561001057600080fd5b506004361061009e5760003560e01c80638dd33495116100665780638dd3349514610146578063a2b2b4d414610162578063e1e2955814610180578063fc0c546a1461019c578063fdc3d8d7146101ba5761009e565b806315ee4df1146100a35780633fb78357146100bf5780638524ac98146100db5780638b5f3936146100f75780638d97767214610113575b600080fd5b6100bd60048036038101906100b89190610ea2565b6101d8565b005b6100d960048036038101906100d49190610f25565b610326565b005b6100f560048036038101906100f091906110da565b6104ec565b005b610111600480360381019061010c9190610ea2565b610729565b005b61012d6004803603810190610128919061116a565b610877565b60405161013d9493929190611202565b60405180910390f35b610160600480360381019061015b919061116a565b6108d4565b005b61016a610b45565b60405161017791906112a6565b60405180910390f35b61019a6004803603810190610195919061116a565b610b6b565b005b6101a4610dff565b6040516101b191906112e2565b60405180910390f35b6101c2610e23565b6040516101cf91906112fd565b60405180910390f35b6000600160009054906101000a900473ffffffffffffffffffffffffffffffffffffffff1673ffffffffffffffffffffffffffffffffffffffff166377782188336040518263ffffffff1660e01b81526004016102359190611318565b600060405180830381865afa158015610252573d6000803e3d6000fd5b505050506040513d6000823e3d601f19601f8201168201806040525081019061027b91906113cd565b905060048160405161028d919061145d565b908152602001604051809103902060009054906101000a900460ff166102e8576040517f08c379a00000000000000000000000000000000000000000000000000000000081526004016102df906114d1565b60405180910390fd5b7f1d9633bff7d0a58c4a25dc562a94b73474abdf064235c050de1a830462ee23fa838360405161031992919061151e565b60405180910390a1505050565b6000600160009054906101000a900473ffffffffffffffffffffffffffffffffffffffff1673ffffffffffffffffffffffffffffffffffffffff166377782188336040518263ffffffff1660e01b81526004016103839190611318565b600060405180830381865afa1580156103a0573d6000803e3d6000fd5b505050506040513d6000823e3d601f19601f820116820180604052508101906103c991906113cd565b90506004816040516103db919061145d565b908152602001604051809103902060009054906101000a900460ff16610436576040517f08c379a000000000000000000000000000000000000000000000000000000000815260040161042d906114d1565b60405180910390fd5b60006002600087815260200190815260200160002090508060020160009054906101000a900460ff161561049f576040517f08c379a00000000000000000000000000000000000000000000000000000000081526004016104969061158e565b60405180910390fd5b848160010181905550857f76adc3d0855e90a9359376f47f1b7fa4d7624d22098b8927f2fd345690c4b9968686866040516104dc939291906115ae565b60405180910390a2505050505050565b6000600160009054906101000a900473ffffffffffffffffffffffffffffffffffffffff1673ffffffffffffffffffffffffffffffffffffffff166377782188336040518263ffffffff1660e01b81526004016105499190611318565b600060405180830381865afa158015610566573d6000803e3d6000fd5b505050506040513d6000823e3d601f19601f8201168201806040525081019061058f91906113cd565b90506004816040516105a1919061145d565b908152602001604051809103902060009054906101000a900460ff166105fc576040517f08c379a00000000000000000000000000000000000000000000000000000000081526004016105f3906114d1565b60405180910390fd5b6000600360008154809291906106119061160f565b9190505590506040518060800160405280828152602001878152602001600015158152602001600073ffffffffffffffffffffffffffffffffffffffff1681525060026000838152602001908152602001600020600082015181600001556020820151816001015560408201518160020160006101000a81548160ff02191690831515021790555060608201518160020160016101000a81548173ffffffffffffffffffffffffffffffffffffffff021916908373ffffffffffffffffffffffffffffffffffffffff160217905550905050807f211bf15b7962b0fd1e5b3308db0d9c6e0b9bb758c934b8c9345201b1892481b8878787876040516107199493929190611690565b60405180910390a2505050505050565b6000600160009054906101000a900473ffffffffffffffffffffffffffffffffffffffff1673ffffffffffffffffffffffffffffffffffffffff166377782188336040518263ffffffff1660e01b81526004016107869190611318565b600060405180830381865afa1580156107a3573d6000803e3d6000fd5b505050506040513d6000823e3d601f19601f820116820180604052508101906107cc91906113cd565b90506004816040516107de919061145d565b908152602001604051809103902060009054906101000a900460ff16610839576040517f08c379a0000000000000000000000000000000000000000000000000000000008152600401610830906114d1565b60405180910390fd5b7fff0a52f1426ab03161133396bf3b3a194ea51f4603fb09e8af8abf1817e6eec9838360405161086a92919061151e565b60405180910390a1505050565b60026020528060005260406000206000915090508060000154908060010154908060020160009054906101000a900460ff16908060020160019054906101000a900473ffffffffffffffffffffffffffffffffffffffff16905084565b6000600160009054906101000a900473ffffffffffffffffffffffffffffffffffffffff1673ffffffffffffffffffffffffffffffffffffffff166377782188336040518263ffffffff1660e01b81526004016109319190611318565b600060405180830381865afa15801561094e573d6000803e3d6000fd5b505050506040513d6000823e3d601f19601f8201168201806040525081019061097791906113cd565b905060008151036109bd576040517f08c379a00000000000000000000000000000000000000000000000000000000081526004016109b490611723565b60405180910390fd5b60006002600084815260200190815260200160002090508060020160009054906101000a900460ff1615610a26576040517f08c379a0000000000000000000000000000000000000000000000000000000008152600401610a1d9061158e565b60405180910390fd5b600073ffffffffffffffffffffffffffffffffffffffff168160020160019054906101000a900473ffffffffffffffffffffffffffffffffffffffff1673ffffffffffffffffffffffffffffffffffffffff1614610ab9576040517f08c379a0000000000000000000000000000000000000000000000000000000008152600401610ab09061178f565b60405180910390fd5b338160020160016101000a81548173ffffffffffffffffffffffffffffffffffffffff021916908373ffffffffffffffffffffffffffffffffffffffff1602179055503373ffffffffffffffffffffffffffffffffffffffff16837f1d8996e29d44a50435d568c283ce2580e5706f87b19ff3d34f455c9d2a99462060405160405180910390a3505050565b600160009054906101000a900473ffffffffffffffffffffffffffffffffffffffff1681565b6000600160009054906101000a900473ffffffffffffffffffffffffffffffffffffffff1673ffffffffffffffffffffffffffffffffffffffff166377782188336040518263ffffffff1660e01b8152600401610bc89190611318565b600060405180830381865afa158015610be5573d6000803e3d6000fd5b505050506040513d6000823e3d601f19601f82011682018060405250810190610c0e91906113cd565b9050600481604051610c20919061145d565b908152602001604051809103902060009054906101000a900460ff16610c7b576040517f08c379a0000000000000000000000000000000000000000000000000000000008152600401610c72906114d1565b60405180910390fd5b60006002600084815260200190815260200160002090508060020160009054906101000a900460ff1615610ce4576040517f08c379a0000000000000000000000000000000000000000000000000000000008152600401610cdb9061158e565b60405180910390fd5b60018160020160006101000a81548160ff02191690831515021790555060008054906101000a900473ffffffffffffffffffffffffffffffffffffffff1673ffffffffffffffffffffffffffffffffffffffff166340c10f198260020160019054906101000a900473ffffffffffffffffffffffffffffffffffffffff1683600101546040518363ffffffff1660e01b8152600401610d849291906117af565b600060405180830381600087803b158015610d9e57600080fd5b505af1158015610db2573d6000803e3d6000fd5b505050503373ffffffffffffffffffffffffffffffffffffffff16837fbb5889c77948badf90e8a5c73d55265e5f5d6e4837a79a78c5669691b897faed60405160405180910390a3505050565b60008054906101000a900473ffffffffffffffffffffffffffffffffffffffff1681565b60035481565b6000604051905090565b600080fd5b600080fd5b600080fd5b600080fd5b600080fd5b60008083601f840112610e6257610e61610e3d565b5b8235905067ffffffffffffffff811115610e7f57610e7e610e42565b5b602083019150836001820283011115610e9b57610e9a610e47565b5b9250929050565b60008060208385031215610eb957610eb8610e33565b5b600083013567ffffffffffffffff811115610ed757610ed6610e38565b5b610ee385828601610e4c565b92509250509250929050565b6000819050919050565b610f0281610eef565b8114610f0d57600080fd5b50565b600081359050610f1f81610ef9565b92915050565b60008060008060608587031215610f3f57610f3e610e33565b5b6000610f4d87828801610f10565b9450506020610f5e87828801610f10565b935050604085013567ffffffffffffffff811115610f7f57610f7e610e38565b5b610f8b87828801610e4c565b925092505092959194509250565b600080fd5b6000601f19601f8301169050919050565b7f4e487b7100000000000000000000000000000000000000000000000000000000600052604160045260246000fd5b610fe782610f9e565b810181811067ffffffffffffffff8211171561100657611005610faf565b5b80604052505050565b6000611019610e29565b90506110258282610fde565b919050565b600067ffffffffffffffff82111561104557611044610faf565b5b61104e82610f9e565b9050602081019050919050565b82818337600083830152505050565b600061107d6110788461102a565b61100f565b90508281526020810184848401111561109957611098610f99565b5b6110a484828561105b565b509392505050565b600082601f8301126110c1576110c0610e3d565b5b81356110d184826020860161106a565b91505092915050565b600080600080606085870312156110f4576110f3610e33565b5b600061110287828801610f10565b945050602085013567ffffffffffffffff81111561112357611122610e38565b5b61112f87828801610e4c565b9350935050604085013567ffffffffffffffff81111561115257611151610e38565b5b61115e878288016110ac565b91505092959194509250565b6000602082840312156111805761117f610e33565b5b600061118e84828501610f10565b91505092915050565b6111a081610eef565b82525050565b60008115159050919050565b6111bb816111a6565b82525050565b600073ffffffffffffffffffffffffffffffffffffffff82169050919050565b60006111ec826111c1565b9050919050565b6111fc816111e1565b82525050565b60006080820190506112176000830187611197565b6112246020830186611197565b61123160408301856111b2565b61123e60608301846111f3565b95945050505050565b6000819050919050565b600061126c611267611262846111c1565b611247565b6111c1565b9050919050565b600061127e82611251565b9050919050565b600061129082611273565b9050919050565b6112a081611285565b82525050565b60006020820190506112bb6000830184611297565b92915050565b60006112cc82611273565b9050919050565b6112dc816112c1565b82525050565b60006020820190506112f760008301846112d3565b92915050565b60006020820190506113126000830184611197565b92915050565b600060208201905061132d60008301846111f3565b92915050565b60005b83811015611351578082015181840152602081019050611336565b60008484015250505050565b600061137061136b8461102a565b61100f565b90508281526020810184848401111561138c5761138b610f99565b5b611397848285611333565b509392505050565b600082601f8301126113b4576113b3610e3d565b5b81516113c484826020860161135d565b91505092915050565b6000602082840312156113e3576113e2610e33565b5b600082015167ffffffffffffffff81111561140157611400610e38565b5b61140d8482850161139f565b91505092915050565b600081519050919050565b600081905092915050565b600061143782611416565b6114418185611421565b9350611451818560208601611333565b80840191505092915050565b6000611469828461142c565b915081905092915050565b600082825260208201905092915050565b7f4e6f7420617574686f72697a656420746f20637265617465207461736b000000600082015250565b60006114bb601d83611474565b91506114c682611485565b602082019050919050565b600060208201905081810360008301526114ea816114ae565b9050919050565b60006114fd8385611474565b935061150a83858461105b565b61151383610f9e565b840190509392505050565b600060208201905081810360008301526115398184866114f1565b90509392505050565b7f5461736b20616c726561647920636f6d706c6574656400000000000000000000600082015250565b6000611578601683611474565b915061158382611542565b602082019050919050565b600060208201905081810360008301526115a78161156b565b9050919050565b60006040820190506115c36000830186611197565b81810360208301526115d68184866114f1565b9050949350505050565b7f4e487b7100000000000000000000000000000000000000000000000000000000600052601160045260246000fd5b600061161a82610eef565b91507fffffffffffffffffffffffffffffffffffffffffffffffffffffffffffffffff820361164c5761164b6115e0565b5b600182019050919050565b600061166282611416565b61166c8185611474565b935061167c818560208601611333565b61168581610f9e565b840191505092915050565b60006060820190506116a56000830187611197565b81810360208301526116b88185876114f1565b905081810360408301526116cc8184611657565b905095945050505050565b7f4e6f742061206d656d6265720000000000000000000000000000000000000000600082015250565b600061170d600c83611474565b9150611718826116d7565b602082019050919050565b6000602082019050818103600083015261173c81611700565b9050919050565b7f5461736b20616c726561647920636c61696d6564000000000000000000000000600082015250565b6000611779601483611474565b915061178482611743565b602082019050919050565b600060208201905081810360008301526117a88161176c565b9050919050565b60006040820190506117c460008301856111f3565b6117d16020830184611197565b939250505056fea264697066735822122020e7728d1e8e9fe602054fbe2f89f9ae31e6f960364736f8e8afd9da0dfe2c7e64736f6c63430008140033",
  "linkReferences": {},
  "deployedLinkReferences": {}
}