{
  "_format": "hh-sol-artifact-1",
  "contractName": "TaskManagerFactory",
  "sourceName": "contracts/TaskManagerFactory.sol",
  "abi": [
    {
      "anonymous": false,
      "inputs": [
        {
          "indexed": false,
          "internalType": "address",
          "name": "TaskManager",
          "type": "address"
        },
        {
          "indexed": false,
          "internalType": "string",
          "name": "POname",
          "type": "string"
        }
      ],
      "name": "TaskManagerCreated",
      "type": "event"
    },
    {
      "inputs": [
        {
          "internalType": "address",
          "name": "_token",
          "type": "address"
        },
        {
          "internalType": "address",
          "name": "_nftMembership",
          "type": "address"
        },
        {
          "internalType": "string[]",
          "name": "_allowedRoleNames",
          "type": "string[]"
        },
        {
          "internalType": "string",
          "name": "POname",
          "type": "string"
        }
      ],
      "name": "createTaskManager",
      "outputs": [
        {
          "internalType": "address",
          "name": "",
          "type": "address"
        }
      ],
      "stateMutability": "nonpayable",
      "type": "function"
    }
  ],
  "bytecode": "0x608060405234801561001057600080fd5b50612a2d806100206000396000f3fe60806040523480156200001157600080fd5b50600436106200002e5760003560e01c806366c685831462000033575b600080fd5b6200005160048036038101906200004b9190620003d7565b62000069565b60405162000060919062000498565b60405180910390f35b6000808585856040516200007d90620000f2565b6200008b939291906200060e565b604051809103906000f080158015620000a8573d6000803e3d6000fd5b5090507f58a72043e245922bc4d3f3b9c9ff178e3ba542788b71b225ae9720c2cf1392318184604051620000de929190620006a4565b60405180910390a180915050949350505050565b61231f80620006d983390190565b6000604051905090565b600080fd5b600080fd5b600073ffffffffffffffffffffffffffffffffffffffff82169050919050565b6000620001418262000114565b9050919050565b620001538162000134565b81146200015f57600080fd5b50565b600081359050620001738162000148565b92915050565b600080fd5b6000601f19601f8301169050919050565b7f4e487b7100000000000000000000000000000000000000000000000000000000600052604160045260246000fd5b620001c9826200017e565b810181811067ffffffffffffffff82111715620001eb57620001ea6200018f565b5b80604052505050565b60006200020062000100565b90506200020e8282620001be565b919050565b600067ffffffffffffffff8211156200023157620002306200018f565b5b602082029050602081019050919050565b600080fd5b600080fd5b600067ffffffffffffffff8211156200026a57620002696200018f565b5b62000275826200017e565b9050602081019050919050565b82818337600083830152505050565b6000620002a8620002a2846200024c565b620001f4565b905082815260208101848484011115620002c757620002c662000247565b5b620002d484828562000282565b509392505050565b600082601f830112620002f457620002f362000179565b5b81356200030684826020860162000291565b91505092915050565b600062000326620003208462000213565b620001f4565b905080838252602082019050602084028301858111156200034c576200034b62000242565b5b835b818110156200039a57803567ffffffffffffffff81111562000375576200037462000179565b5b808601620003848982620002dc565b855260208501945050506020810190506200034e565b5050509392505050565b600082601f830112620003bc57620003bb62000179565b5b8135620003ce8482602086016200030f565b91505092915050565b60008060008060808587031215620003f457620003f36200010a565b5b6000620004048782880162000162565b9450506020620004178782880162000162565b935050604085013567ffffffffffffffff8111156200043b576200043a6200010f565b5b6200044987828801620003a4565b925050606085013567ffffffffffffffff8111156200046d576200046c6200010f565b5b6200047b87828801620002dc565b91505092959194509250565b620004928162000134565b82525050565b6000602082019050620004af600083018462000487565b92915050565b600081519050919050565b600082825260208201905092915050565b6000819050602082019050919050565b600081519050919050565b600082825260208201905092915050565b60005b838110156200051d57808201518184015260208101905062000500565b60008484015250505050565b60006200053682620004e1565b620005428185620004ec565b935062000554818560208601620004fd565b6200055f816200017e565b840191505092915050565b600062000578838362000529565b905092915050565b6000602082019050919050565b60006200059a82620004b5565b620005a68185620004c0565b935083602082028501620005ba85620004d1565b8060005b85811015620005fc5784840389528151620005da85826200056a565b9450620005e78362000580565b925060208a01995050600181019050620005be565b50829750879550505050505092915050565b600060608201905062000625600083018662000487565b62000634602083018562000487565b81810360408301526200064881846200058d565b9050949350505050565b600082825260208201905092915050565b60006200067082620004e1565b6200067c818562000652565b93506200068e818560208601620004fd565b62000699816200017e565b840191505092915050565b6000604082019050620006bb600083018562000487565b8181036020830152620006cf818462000663565b9050939250505056fe60806040523480156200001157600080fd5b506040516200231f3803806200231f83398181016040528101906200003791906200042f565b826000806101000a81548173ffffffffffffffffffffffffffffffffffffffff021916908373ffffffffffffffffffffffffffffffffffffffff16021790555081600160006101000a81548173ffffffffffffffffffffffffffffffffffffffff021916908373ffffffffffffffffffffffffffffffffffffffff16021790555060005b8151811015620001315760016004838381518110620000df57620000de620004aa565b5b6020026020010151604051620000f6919062000526565b908152602001604051809103902060006101000a81548160ff0219169083151502179055508080620001289062000578565b915050620000bb565b50505050620005c5565b6000604051905090565b600080fd5b600080fd5b600073ffffffffffffffffffffffffffffffffffffffff82169050919050565b60006200017c826200014f565b9050919050565b6200018e816200016f565b81146200019a57600080fd5b50565b600081519050620001ae8162000183565b92915050565b600080fd5b6000601f19601f8301169050919050565b7f4e487b7100000000000000000000000000000000000000000000000000000000600052604160045260246000fd5b6200020482620001b9565b810181811067ffffffffffffffff82111715620002265762000225620001ca565b5b80604052505050565b60006200023b6200013b565b9050620002498282620001f9565b919050565b600067ffffffffffffffff8211156200026c576200026b620001ca565b5b602082029050602081019050919050565b600080fd5b600080fd5b600067ffffffffffffffff821115620002a557620002a4620001ca565b5b620002b082620001b9565b9050602081019050919050565b60005b83811015620002dd578082015181840152602081019050620002c0565b60008484015250505050565b600062000300620002fa8462000287565b6200022f565b9050828152602081018484840111156200031f576200031e62000282565b5b6200032c848285620002bd565b509392505050565b600082601f8301126200034c576200034b620001b4565b5b81516200035e848260208601620002e9565b91505092915050565b60006200037e62000378846200024e565b6200022f565b90508083825260208201905060208402830185811115620003a457620003a36200027d565b5b835b81811015620003f257805167ffffffffffffffff811115620003cd57620003cc620001b4565b5b808601620003dc898262000334565b85526020850194505050602081019050620003a6565b5050509392505050565b600082601f830112620004145762000413620001b4565b5b81516200042684826020860162000367565b91505092915050565b6000806000606084860312156200044b576200044a62000145565b5b60006200045b868287016200019d565b93505060206200046e868287016200019d565b925050604084015167ffffffffffffffff8111156200049257620004916200014a565b5b620004a086828701620003fc565b9150509250925092565b7f4e487b7100000000000000000000000000000000000000000000000000000000600052603260045260246000fd5b600081519050919050565b600081905092915050565b6000620004fc82620004d9565b620005088185620004e4565b93506200051a818560208601620002bd565b80840191505092915050565b6000620005348284620004ef565b915081905092915050565b7f4e487b7100000000000000000000000000000000000000000000000000000000600052601160045260246000fd5b6000819050919050565b600062000585826200056e565b91507fffffffffffffffffffffffffffffffffffffffffffffffffffffffffffffffff8203620005ba57620005b96200053f565b5b600182019050919050565b611d4a80620005d56000396000f3fe608060405234801561001057600080fd5b50600436106100a95760003560e01c80638d977672116100715780638d9776721461013a5780638dd334951461016d578063a2b2b4d414610189578063e1e29558146101a7578063fc0c546a146101c3578063fdc3d8d7146101e1576100a9565b806315ee4df1146100ae5780633fb78357146100ca578063776bae68146100e65780638524ac98146101025780638b5f39361461011e575b600080fd5b6100c860048036038101906100c391906112a6565b6101ff565b005b6100e460048036038101906100df9190611329565b61034d565b005b61010060048036038101906100fb919061139d565b610513565b005b61011c6004803603810190610117919061153e565b6107cb565b005b610138600480360381019061013391906112a6565b610a08565b005b610154600480360381019061014f91906115ce565b610b56565b6040516101649493929190611666565b60405180910390f35b610187600480360381019061018291906115ce565b610bb3565b005b610191610e24565b60405161019e919061170a565b60405180910390f35b6101c160048036038101906101bc91906115ce565b610e4a565b005b6101cb611203565b6040516101d89190611746565b60405180910390f35b6101e9611227565b6040516101f69190611761565b60405180910390f35b6000600160009054906101000a900473ffffffffffffffffffffffffffffffffffffffff1673ffffffffffffffffffffffffffffffffffffffff166377782188336040518263ffffffff1660e01b815260040161025c919061177c565b600060405180830381865afa158015610279573d6000803e3d6000fd5b505050506040513d6000823e3d601f19601f820116820180604052508101906102a29190611831565b90506004816040516102b491906118c1565b908152602001604051809103902060009054906101000a900460ff1661030f576040517f08c379a000000000000000000000000000000000000000000000000000000000815260040161030690611935565b60405180910390fd5b7f1d9633bff7d0a58c4a25dc562a94b73474abdf064235c050de1a830462ee23fa8383604051610340929190611982565b60405180910390a1505050565b6000600160009054906101000a900473ffffffffffffffffffffffffffffffffffffffff1673ffffffffffffffffffffffffffffffffffffffff166377782188336040518263ffffffff1660e01b81526004016103aa919061177c565b600060405180830381865afa1580156103c7573d6000803e3d6000fd5b505050506040513d6000823e3d601f19601f820116820180604052508101906103f09190611831565b905060048160405161040291906118c1565b908152602001604051809103902060009054906101000a900460ff1661045d576040517f08c379a000000000000000000000000000000000000000000000000000000000815260040161045490611935565b60405180910390fd5b60006002600087815260200190815260200160002090508060020160009054906101000a900460ff16156104c6576040517f08c379a00000000000000000000000000000000000000000000000000000000081526004016104bd906119f2565b60405180910390fd5b848160010181905550857f76adc3d0855e90a9359376f47f1b7fa4d7624d22098b8927f2fd345690c4b99686868660405161050393929190611a12565b60405180910390a2505050505050565b6000600160009054906101000a900473ffffffffffffffffffffffffffffffffffffffff1673ffffffffffffffffffffffffffffffffffffffff166377782188336040518263ffffffff1660e01b8152600401610570919061177c565b600060405180830381865afa15801561058d573d6000803e3d6000fd5b505050506040513d6000823e3d601f19601f820116820180604052508101906105b69190611831565b905060008151036105fc576040517f08c379a00000000000000000000000000000000000000000000000000000000081526004016105f390611a90565b60405180910390fd5b60006002600086815260200190815260200160002090508060020160009054906101000a900460ff1615610665576040517f08c379a000000000000000000000000000000000000000000000000000000000815260040161065c906119f2565b60405180910390fd5b3373ffffffffffffffffffffffffffffffffffffffff168160020160019054906101000a900473ffffffffffffffffffffffffffffffffffffffff1673ffffffffffffffffffffffffffffffffffffffff16146106f7576040517f08c379a00000000000000000000000000000000000000000000000000000000081526004016106ee90611afc565b60405180910390fd5b600073ffffffffffffffffffffffffffffffffffffffff168160020160019054906101000a900473ffffffffffffffffffffffffffffffffffffffff1673ffffffffffffffffffffffffffffffffffffffff160361078a576040517f08c379a000000000000000000000000000000000000000000000000000000000815260040161078190611b68565b60405180910390fd5b847f6446ced08d52e8f0331d94dbe32ad91d577ec02d6d8ec44376b1517fcca598a785856040516107bc929190611982565b60405180910390a25050505050565b6000600160009054906101000a900473ffffffffffffffffffffffffffffffffffffffff1673ffffffffffffffffffffffffffffffffffffffff166377782188336040518263ffffffff1660e01b8152600401610828919061177c565b600060405180830381865afa158015610845573d6000803e3d6000fd5b505050506040513d6000823e3d601f19601f8201168201806040525081019061086e9190611831565b905060048160405161088091906118c1565b908152602001604051809103902060009054906101000a900460ff166108db576040517f08c379a00000000000000000000000000000000000000000000000000000000081526004016108d290611935565b60405180910390fd5b6000600360008154809291906108f090611bb7565b9190505590506040518060800160405280828152602001878152602001600015158152602001600073ffffffffffffffffffffffffffffffffffffffff1681525060026000838152602001908152602001600020600082015181600001556020820151816001015560408201518160020160006101000a81548160ff02191690831515021790555060608201518160020160016101000a81548173ffffffffffffffffffffffffffffffffffffffff021916908373ffffffffffffffffffffffffffffffffffffffff160217905550905050807f211bf15b7962b0fd1e5b3308db0d9c6e0b9bb758c934b8c9345201b1892481b8878787876040516109f89493929190611c38565b60405180910390a2505050505050565b6000600160009054906101000a900473ffffffffffffffffffffffffffffffffffffffff1673ffffffffffffffffffffffffffffffffffffffff166377782188336040518263ffffffff1660e01b8152600401610a65919061177c565b600060405180830381865afa158015610a82573d6000803e3d6000fd5b505050506040513d6000823e3d601f19601f82011682018060405250810190610aab9190611831565b9050600481604051610abd91906118c1565b908152602001604051809103902060009054906101000a900460ff16610b18576040517f08c379a0000000000000000000000000000000000000000000000000000000008152600401610b0f90611935565b60405180910390fd5b7fff0a52f1426ab03161133396bf3b3a194ea51f4603fb09e8af8abf1817e6eec98383604051610b49929190611982565b60405180910390a1505050565b60026020528060005260406000206000915090508060000154908060010154908060020160009054906101000a900460ff16908060020160019054906101000a900473ffffffffffffffffffffffffffffffffffffffff16905084565b6000600160009054906101000a900473ffffffffffffffffffffffffffffffffffffffff1673ffffffffffffffffffffffffffffffffffffffff166377782188336040518263ffffffff1660e01b8152600401610c10919061177c565b600060405180830381865afa158015610c2d573d6000803e3d6000fd5b505050506040513d6000823e3d601f19601f82011682018060405250810190610c569190611831565b90506000815103610c9c576040517f08c379a0000000000000000000000000000000000000000000000000000000008152600401610c9390611a90565b60405180910390fd5b60006002600084815260200190815260200160002090508060020160009054906101000a900460ff1615610d05576040517f08c379a0000000000000000000000000000000000000000000000000000000008152600401610cfc906119f2565b60405180910390fd5b600073ffffffffffffffffffffffffffffffffffffffff168160020160019054906101000a900473ffffffffffffffffffffffffffffffffffffffff1673ffffffffffffffffffffffffffffffffffffffff1614610d98576040517f08c379a0000000000000000000000000000000000000000000000000000000008152600401610d8f90611ccb565b60405180910390fd5b338160020160016101000a81548173ffffffffffffffffffffffffffffffffffffffff021916908373ffffffffffffffffffffffffffffffffffffffff1602179055503373ffffffffffffffffffffffffffffffffffffffff16837f1d8996e29d44a50435d568c283ce2580e5706f87b19ff3d34f455c9d2a99462060405160405180910390a3505050565b600160009054906101000a900473ffffffffffffffffffffffffffffffffffffffff1681565b6000600160009054906101000a900473ffffffffffffffffffffffffffffffffffffffff1673ffffffffffffffffffffffffffffffffffffffff166377782188336040518263ffffffff1660e01b8152600401610ea7919061177c565b600060405180830381865afa158015610ec4573d6000803e3d6000fd5b505050506040513d6000823e3d601f19601f82011682018060405250810190610eed9190611831565b9050600481604051610eff91906118c1565b908152602001604051809103902060009054906101000a900460ff16610f5a576040517f08c379a0000000000000000000000000000000000000000000000000000000008152600401610f5190611935565b60405180910390fd5b60006002600084815260200190815260200160002090508060020160009054906101000a900460ff1615610fc3576040517f08c379a0000000000000000000000000000000000000000000000000000000008152600401610fba906119f2565b60405180910390fd5b3373ffffffffffffffffffffffffffffffffffffffff168160020160019054906101000a900473ffffffffffffffffffffffffffffffffffffffff1673ffffffffffffffffffffffffffffffffffffffff1614611055576040517f08c379a000000000000000000000000000000000000000000000000000000000815260040161104c90611afc565b60405180910390fd5b600073ffffffffffffffffffffffffffffffffffffffff168160020160019054906101000a900473ffffffffffffffffffffffffffffffffffffffff1673ffffffffffffffffffffffffffffffffffffffff16036110e8576040517f08c379a00000000000000000000000000000000000000000000000000000000081526004016110df90611b68565b60405180910390fd5b60018160020160006101000a81548160ff02191690831515021790555060008054906101000a900473ffffffffffffffffffffffffffffffffffffffff1673ffffffffffffffffffffffffffffffffffffffff166340c10f198260020160019054906101000a900473ffffffffffffffffffffffffffffffffffffffff1683600101546040518363ffffffff1660e01b8152600401611188929190611ceb565b600060405180830381600087803b1580156111a257600080fd5b505af11580156111b6573d6000803e3d6000fd5b505050503373ffffffffffffffffffffffffffffffffffffffff16837fbb5889c77948badf90e8a5c73d55265e5f5d6e4837a79a78c5669691b897faed60405160405180910390a3505050565b60008054906101000a900473ffffffffffffffffffffffffffffffffffffffff1681565b60035481565b6000604051905090565b600080fd5b600080fd5b600080fd5b600080fd5b600080fd5b60008083601f84011261126657611265611241565b5b8235905067ffffffffffffffff81111561128357611282611246565b5b60208301915083600182028301111561129f5761129e61124b565b5b9250929050565b600080602083850312156112bd576112bc611237565b5b600083013567ffffffffffffffff8111156112db576112da61123c565b5b6112e785828601611250565b92509250509250929050565b6000819050919050565b611306816112f3565b811461131157600080fd5b50565b600081359050611323816112fd565b92915050565b6000806000806060858703121561134357611342611237565b5b600061135187828801611314565b945050602061136287828801611314565b935050604085013567ffffffffffffffff8111156113835761138261123c565b5b61138f87828801611250565b925092505092959194509250565b6000806000604084860312156113b6576113b5611237565b5b60006113c486828701611314565b935050602084013567ffffffffffffffff8111156113e5576113e461123c565b5b6113f186828701611250565b92509250509250925092565b600080fd5b6000601f19601f8301169050919050565b7f4e487b7100000000000000000000000000000000000000000000000000000000600052604160045260246000fd5b61144b82611402565b810181811067ffffffffffffffff8211171561146a57611469611413565b5b80604052505050565b600061147d61122d565b90506114898282611442565b919050565b600067ffffffffffffffff8211156114a9576114a8611413565b5b6114b282611402565b9050602081019050919050565b82818337600083830152505050565b60006114e16114dc8461148e565b611473565b9050828152602081018484840111156114fd576114fc6113fd565b5b6115088482856114bf565b509392505050565b600082601f83011261152557611524611241565b5b81356115358482602086016114ce565b91505092915050565b6000806000806060858703121561155857611557611237565b5b600061156687828801611314565b945050602085013567ffffffffffffffff8111156115875761158661123c565b5b61159387828801611250565b9350935050604085013567ffffffffffffffff8111156115b6576115b561123c565b5b6115c287828801611510565b91505092959194509250565b6000602082840312156115e4576115e3611237565b5b60006115f284828501611314565b91505092915050565b611604816112f3565b82525050565b60008115159050919050565b61161f8161160a565b82525050565b600073ffffffffffffffffffffffffffffffffffffffff82169050919050565b600061165082611625565b9050919050565b61166081611645565b82525050565b600060808201905061167b60008301876115fb565b61168860208301866115fb565b6116956040830185611616565b6116a26060830184611657565b95945050505050565b6000819050919050565b60006116d06116cb6116c684611625565b6116ab565b611625565b9050919050565b60006116e2826116b5565b9050919050565b60006116f4826116d7565b9050919050565b611704816116e9565b82525050565b600060208201905061171f60008301846116fb565b92915050565b6000611730826116d7565b9050919050565b61174081611725565b82525050565b600060208201905061175b6000830184611737565b92915050565b600060208201905061177660008301846115fb565b92915050565b60006020820190506117916000830184611657565b92915050565b60005b838110156117b557808201518184015260208101905061179a565b60008484015250505050565b60006117d46117cf8461148e565b611473565b9050828152602081018484840111156117f0576117ef6113fd565b5b6117fb848285611797565b509392505050565b600082601f83011261181857611817611241565b5b81516118288482602086016117c1565b91505092915050565b60006020828403121561184757611846611237565b5b600082015167ffffffffffffffff8111156118655761186461123c565b5b61187184828501611803565b91505092915050565b600081519050919050565b600081905092915050565b600061189b8261187a565b6118a58185611885565b93506118b5818560208601611797565b80840191505092915050565b60006118cd8284611890565b915081905092915050565b600082825260208201905092915050565b7f4e6f7420617574686f72697a656420746f20637265617465207461736b000000600082015250565b600061191f601d836118d8565b915061192a826118e9565b602082019050919050565b6000602082019050818103600083015261194e81611912565b9050919050565b600061196183856118d8565b935061196e8385846114bf565b61197783611402565b840190509392505050565b6000602082019050818103600083015261199d818486611955565b90509392505050565b7f5461736b20616c726561647920636f6d706c6574656400000000000000000000600082015250565b60006119dc6016836118d8565b91506119e7826119a6565b602082019050919050565b60006020820190508181036000830152611a0b816119cf565b9050919050565b6000604082019050611a2760008301866115fb565b8181036020830152611a3a818486611955565b9050949350505050565b7f4e6f742061206d656d6265720000000000000000000000000000000000000000600082015250565b6000611a7a600c836118d8565b9150611a8582611a44565b602082019050919050565b60006020820190508181036000830152611aa981611a6d565b9050919050565b7f4e6f742074686520636c61696d65720000000000000000000000000000000000600082015250565b6000611ae6600f836118d8565b9150611af182611ab0565b602082019050919050565b60006020820190508181036000830152611b1581611ad9565b9050919050565b7f5461736b206e6f7420636c61696d656400000000000000000000000000000000600082015250565b6000611b526010836118d8565b9150611b5d82611b1c565b602082019050919050565b60006020820190508181036000830152611b8181611b45565b9050919050565b7f4e487b7100000000000000000000000000000000000000000000000000000000600052601160045260246000fd5b6000611bc2826112f3565b91507fffffffffffffffffffffffffffffffffffffffffffffffffffffffffffffffff8203611bf457611bf3611b88565b5b600182019050919050565b6000611c0a8261187a565b611c1481856118d8565b9350611c24818560208601611797565b611c2d81611402565b840191505092915050565b6000606082019050611c4d60008301876115fb565b8181036020830152611c60818587611955565b90508181036040830152611c748184611bff565b905095945050505050565b7f5461736b20616c726561647920636c61696d6564000000000000000000000000600082015250565b6000611cb56014836118d8565b9150611cc082611c7f565b602082019050919050565b60006020820190508181036000830152611ce481611ca8565b9050919050565b6000604082019050611d006000830185611657565b611d0d60208301846115fb565b939250505056fea2646970667358221220760549a7f68c6695ec75b6ab7bfa7590cc3ef86fabcae832e762d68240c0f04064736f6c63430008140033a264697066735822122023a10062e8105d0d967fdc6f60897c7e37083b07d62e989f04a43d964bf7676064736f6c63430008140033",
  "linkReferences": {},
  "deployedLinkReferences": {}
}