{
  "_format": "hh-sol-artifact-1",
  "contractName": "TaskManagerFactory",
  "sourceName": "contracts/TaskManagerFactory.sol",
  "abi": [
    {
      "anonymous": false,
      "inputs": [
        {
          "indexed": false,
          "internalType": "address",
          "name": "TaskManager",
          "type": "address"
        },
        {
          "indexed": false,
          "internalType": "string",
          "name": "POname",
          "type": "string"
        }
      ],
      "name": "TaskManagerCreated",
      "type": "event"
    },
    {
      "inputs": [
        {
          "internalType": "address",
          "name": "_token",
          "type": "address"
        },
        {
          "internalType": "address",
          "name": "_nftMembership",
          "type": "address"
        },
        {
          "internalType": "string[]",
          "name": "_allowedRoleNames",
          "type": "string[]"
        },
        {
          "internalType": "string",
          "name": "POname",
          "type": "string"
        }
      ],
      "name": "createTaskManager",
      "outputs": [
        {
          "internalType": "address",
          "name": "",
          "type": "address"
        }
      ],
      "stateMutability": "nonpayable",
      "type": "function"
    }
  ],
  "bytecode": "0x608060405234801561001057600080fd5b5061299b806100206000396000f3fe60806040523480156200001157600080fd5b50600436106200002e5760003560e01c806366c685831462000033575b600080fd5b6200005160048036038101906200004b9190620003d7565b62000069565b60405162000060919062000498565b60405180910390f35b6000808585856040516200007d90620000f2565b6200008b939291906200060e565b604051809103906000f080158015620000a8573d6000803e3d6000fd5b5090507f58a72043e245922bc4d3f3b9c9ff178e3ba542788b71b225ae9720c2cf1392318184604051620000de929190620006a4565b60405180910390a180915050949350505050565b61228d80620006d983390190565b6000604051905090565b600080fd5b600080fd5b600073ffffffffffffffffffffffffffffffffffffffff82169050919050565b6000620001418262000114565b9050919050565b620001538162000134565b81146200015f57600080fd5b50565b600081359050620001738162000148565b92915050565b600080fd5b6000601f19601f8301169050919050565b7f4e487b7100000000000000000000000000000000000000000000000000000000600052604160045260246000fd5b620001c9826200017e565b810181811067ffffffffffffffff82111715620001eb57620001ea6200018f565b5b80604052505050565b60006200020062000100565b90506200020e8282620001be565b919050565b600067ffffffffffffffff8211156200023157620002306200018f565b5b602082029050602081019050919050565b600080fd5b600080fd5b600067ffffffffffffffff8211156200026a57620002696200018f565b5b62000275826200017e565b9050602081019050919050565b82818337600083830152505050565b6000620002a8620002a2846200024c565b620001f4565b905082815260208101848484011115620002c757620002c662000247565b5b620002d484828562000282565b509392505050565b600082601f830112620002f457620002f362000179565b5b81356200030684826020860162000291565b91505092915050565b600062000326620003208462000213565b620001f4565b905080838252602082019050602084028301858111156200034c576200034b62000242565b5b835b818110156200039a57803567ffffffffffffffff81111562000375576200037462000179565b5b808601620003848982620002dc565b855260208501945050506020810190506200034e565b5050509392505050565b600082601f830112620003bc57620003bb62000179565b5b8135620003ce8482602086016200030f565b91505092915050565b60008060008060808587031215620003f457620003f36200010a565b5b6000620004048782880162000162565b9450506020620004178782880162000162565b935050604085013567ffffffffffffffff8111156200043b576200043a6200010f565b5b6200044987828801620003a4565b925050606085013567ffffffffffffffff8111156200046d576200046c6200010f565b5b6200047b87828801620002dc565b91505092959194509250565b620004928162000134565b82525050565b6000602082019050620004af600083018462000487565b92915050565b600081519050919050565b600082825260208201905092915050565b6000819050602082019050919050565b600081519050919050565b600082825260208201905092915050565b60005b838110156200051d57808201518184015260208101905062000500565b60008484015250505050565b60006200053682620004e1565b620005428185620004ec565b935062000554818560208601620004fd565b6200055f816200017e565b840191505092915050565b600062000578838362000529565b905092915050565b6000602082019050919050565b60006200059a82620004b5565b620005a68185620004c0565b935083602082028501620005ba85620004d1565b8060005b85811015620005fc5784840389528151620005da85826200056a565b9450620005e78362000580565b925060208a01995050600181019050620005be565b50829750879550505050505092915050565b600060608201905062000625600083018662000487565b62000634602083018562000487565b81810360408301526200064881846200058d565b9050949350505050565b600082825260208201905092915050565b60006200067082620004e1565b6200067c818562000652565b93506200068e818560208601620004fd565b62000699816200017e565b840191505092915050565b6000604082019050620006bb600083018562000487565b8181036020830152620006cf818462000663565b9050939250505056fe60806040523480156200001157600080fd5b506040516200228d3803806200228d83398181016040528101906200003791906200042f565b826000806101000a81548173ffffffffffffffffffffffffffffffffffffffff021916908373ffffffffffffffffffffffffffffffffffffffff16021790555081600160006101000a81548173ffffffffffffffffffffffffffffffffffffffff021916908373ffffffffffffffffffffffffffffffffffffffff16021790555060005b8151811015620001315760016004838381518110620000df57620000de620004aa565b5b6020026020010151604051620000f6919062000526565b908152602001604051809103902060006101000a81548160ff0219169083151502179055508080620001289062000578565b915050620000bb565b50505050620005c5565b6000604051905090565b600080fd5b600080fd5b600073ffffffffffffffffffffffffffffffffffffffff82169050919050565b60006200017c826200014f565b9050919050565b6200018e816200016f565b81146200019a57600080fd5b50565b600081519050620001ae8162000183565b92915050565b600080fd5b6000601f19601f8301169050919050565b7f4e487b7100000000000000000000000000000000000000000000000000000000600052604160045260246000fd5b6200020482620001b9565b810181811067ffffffffffffffff82111715620002265762000225620001ca565b5b80604052505050565b60006200023b6200013b565b9050620002498282620001f9565b919050565b600067ffffffffffffffff8211156200026c576200026b620001ca565b5b602082029050602081019050919050565b600080fd5b600080fd5b600067ffffffffffffffff821115620002a557620002a4620001ca565b5b620002b082620001b9565b9050602081019050919050565b60005b83811015620002dd578082015181840152602081019050620002c0565b60008484015250505050565b600062000300620002fa8462000287565b6200022f565b9050828152602081018484840111156200031f576200031e62000282565b5b6200032c848285620002bd565b509392505050565b600082601f8301126200034c576200034b620001b4565b5b81516200035e848260208601620002e9565b91505092915050565b60006200037e62000378846200024e565b6200022f565b90508083825260208201905060208402830185811115620003a457620003a36200027d565b5b835b81811015620003f257805167ffffffffffffffff811115620003cd57620003cc620001b4565b5b808601620003dc898262000334565b85526020850194505050602081019050620003a6565b5050509392505050565b600082601f830112620004145762000413620001b4565b5b81516200042684826020860162000367565b91505092915050565b6000806000606084860312156200044b576200044a62000145565b5b60006200045b868287016200019d565b93505060206200046e868287016200019d565b925050604084015167ffffffffffffffff8111156200049257620004916200014a565b5b620004a086828701620003fc565b9150509250925092565b7f4e487b7100000000000000000000000000000000000000000000000000000000600052603260045260246000fd5b600081519050919050565b600081905092915050565b6000620004fc82620004d9565b620005088185620004e4565b93506200051a818560208601620002bd565b80840191505092915050565b6000620005348284620004ef565b915081905092915050565b7f4e487b7100000000000000000000000000000000000000000000000000000000600052601160045260246000fd5b6000819050919050565b600062000585826200056e565b91507fffffffffffffffffffffffffffffffffffffffffffffffffffffffffffffffff8203620005ba57620005b96200053f565b5b600182019050919050565b611cb880620005d56000396000f3fe608060405234801561001057600080fd5b50600436106100a95760003560e01c80638d977672116100715780638d9776721461013a5780638dd334951461016d578063a2b2b4d414610189578063e1e29558146101a7578063fc0c546a146101c3578063fdc3d8d7146101e1576100a9565b806315ee4df1146100ae5780633fb78357146100ca578063776bae68146100e65780638524ac98146101025780638b5f39361461011e575b600080fd5b6100c860048036038101906100c39190611214565b6101ff565b005b6100e460048036038101906100df9190611297565b61034d565b005b61010060048036038101906100fb919061130b565b610513565b005b61011c600480360381019061011791906114ac565b6107cb565b005b61013860048036038101906101339190611214565b610a08565b005b610154600480360381019061014f919061153c565b610b56565b60405161016494939291906115d4565b60405180910390f35b6101876004803603810190610182919061153c565b610bb3565b005b610191610e24565b60405161019e9190611678565b60405180910390f35b6101c160048036038101906101bc919061153c565b610e4a565b005b6101cb611171565b6040516101d891906116b4565b60405180910390f35b6101e9611195565b6040516101f691906116cf565b60405180910390f35b6000600160009054906101000a900473ffffffffffffffffffffffffffffffffffffffff1673ffffffffffffffffffffffffffffffffffffffff166377782188336040518263ffffffff1660e01b815260040161025c91906116ea565b600060405180830381865afa158015610279573d6000803e3d6000fd5b505050506040513d6000823e3d601f19601f820116820180604052508101906102a2919061179f565b90506004816040516102b4919061182f565b908152602001604051809103902060009054906101000a900460ff1661030f576040517f08c379a0000000000000000000000000000000000000000000000000000000008152600401610306906118a3565b60405180910390fd5b7f1d9633bff7d0a58c4a25dc562a94b73474abdf064235c050de1a830462ee23fa83836040516103409291906118f0565b60405180910390a1505050565b6000600160009054906101000a900473ffffffffffffffffffffffffffffffffffffffff1673ffffffffffffffffffffffffffffffffffffffff166377782188336040518263ffffffff1660e01b81526004016103aa91906116ea565b600060405180830381865afa1580156103c7573d6000803e3d6000fd5b505050506040513d6000823e3d601f19601f820116820180604052508101906103f0919061179f565b9050600481604051610402919061182f565b908152602001604051809103902060009054906101000a900460ff1661045d576040517f08c379a0000000000000000000000000000000000000000000000000000000008152600401610454906118a3565b60405180910390fd5b60006002600087815260200190815260200160002090508060020160009054906101000a900460ff16156104c6576040517f08c379a00000000000000000000000000000000000000000000000000000000081526004016104bd90611960565b60405180910390fd5b848160010181905550857f76adc3d0855e90a9359376f47f1b7fa4d7624d22098b8927f2fd345690c4b99686868660405161050393929190611980565b60405180910390a2505050505050565b6000600160009054906101000a900473ffffffffffffffffffffffffffffffffffffffff1673ffffffffffffffffffffffffffffffffffffffff166377782188336040518263ffffffff1660e01b815260040161057091906116ea565b600060405180830381865afa15801561058d573d6000803e3d6000fd5b505050506040513d6000823e3d601f19601f820116820180604052508101906105b6919061179f565b905060008151036105fc576040517f08c379a00000000000000000000000000000000000000000000000000000000081526004016105f3906119fe565b60405180910390fd5b60006002600086815260200190815260200160002090508060020160009054906101000a900460ff1615610665576040517f08c379a000000000000000000000000000000000000000000000000000000000815260040161065c90611960565b60405180910390fd5b3373ffffffffffffffffffffffffffffffffffffffff168160020160019054906101000a900473ffffffffffffffffffffffffffffffffffffffff1673ffffffffffffffffffffffffffffffffffffffff16146106f7576040517f08c379a00000000000000000000000000000000000000000000000000000000081526004016106ee90611a6a565b60405180910390fd5b600073ffffffffffffffffffffffffffffffffffffffff168160020160019054906101000a900473ffffffffffffffffffffffffffffffffffffffff1673ffffffffffffffffffffffffffffffffffffffff160361078a576040517f08c379a000000000000000000000000000000000000000000000000000000000815260040161078190611ad6565b60405180910390fd5b847f6446ced08d52e8f0331d94dbe32ad91d577ec02d6d8ec44376b1517fcca598a785856040516107bc9291906118f0565b60405180910390a25050505050565b6000600160009054906101000a900473ffffffffffffffffffffffffffffffffffffffff1673ffffffffffffffffffffffffffffffffffffffff166377782188336040518263ffffffff1660e01b815260040161082891906116ea565b600060405180830381865afa158015610845573d6000803e3d6000fd5b505050506040513d6000823e3d601f19601f8201168201806040525081019061086e919061179f565b9050600481604051610880919061182f565b908152602001604051809103902060009054906101000a900460ff166108db576040517f08c379a00000000000000000000000000000000000000000000000000000000081526004016108d2906118a3565b60405180910390fd5b6000600360008154809291906108f090611b25565b9190505590506040518060800160405280828152602001878152602001600015158152602001600073ffffffffffffffffffffffffffffffffffffffff1681525060026000838152602001908152602001600020600082015181600001556020820151816001015560408201518160020160006101000a81548160ff02191690831515021790555060608201518160020160016101000a81548173ffffffffffffffffffffffffffffffffffffffff021916908373ffffffffffffffffffffffffffffffffffffffff160217905550905050807f211bf15b7962b0fd1e5b3308db0d9c6e0b9bb758c934b8c9345201b1892481b8878787876040516109f89493929190611ba6565b60405180910390a2505050505050565b6000600160009054906101000a900473ffffffffffffffffffffffffffffffffffffffff1673ffffffffffffffffffffffffffffffffffffffff166377782188336040518263ffffffff1660e01b8152600401610a6591906116ea565b600060405180830381865afa158015610a82573d6000803e3d6000fd5b505050506040513d6000823e3d601f19601f82011682018060405250810190610aab919061179f565b9050600481604051610abd919061182f565b908152602001604051809103902060009054906101000a900460ff16610b18576040517f08c379a0000000000000000000000000000000000000000000000000000000008152600401610b0f906118a3565b60405180910390fd5b7fff0a52f1426ab03161133396bf3b3a194ea51f4603fb09e8af8abf1817e6eec98383604051610b499291906118f0565b60405180910390a1505050565b60026020528060005260406000206000915090508060000154908060010154908060020160009054906101000a900460ff16908060020160019054906101000a900473ffffffffffffffffffffffffffffffffffffffff16905084565b6000600160009054906101000a900473ffffffffffffffffffffffffffffffffffffffff1673ffffffffffffffffffffffffffffffffffffffff166377782188336040518263ffffffff1660e01b8152600401610c1091906116ea565b600060405180830381865afa158015610c2d573d6000803e3d6000fd5b505050506040513d6000823e3d601f19601f82011682018060405250810190610c56919061179f565b90506000815103610c9c576040517f08c379a0000000000000000000000000000000000000000000000000000000008152600401610c93906119fe565b60405180910390fd5b60006002600084815260200190815260200160002090508060020160009054906101000a900460ff1615610d05576040517f08c379a0000000000000000000000000000000000000000000000000000000008152600401610cfc90611960565b60405180910390fd5b600073ffffffffffffffffffffffffffffffffffffffff168160020160019054906101000a900473ffffffffffffffffffffffffffffffffffffffff1673ffffffffffffffffffffffffffffffffffffffff1614610d98576040517f08c379a0000000000000000000000000000000000000000000000000000000008152600401610d8f90611c39565b60405180910390fd5b338160020160016101000a81548173ffffffffffffffffffffffffffffffffffffffff021916908373ffffffffffffffffffffffffffffffffffffffff1602179055503373ffffffffffffffffffffffffffffffffffffffff16837f1d8996e29d44a50435d568c283ce2580e5706f87b19ff3d34f455c9d2a99462060405160405180910390a3505050565b600160009054906101000a900473ffffffffffffffffffffffffffffffffffffffff1681565b6000600160009054906101000a900473ffffffffffffffffffffffffffffffffffffffff1673ffffffffffffffffffffffffffffffffffffffff166377782188336040518263ffffffff1660e01b8152600401610ea791906116ea565b600060405180830381865afa158015610ec4573d6000803e3d6000fd5b505050506040513d6000823e3d601f19601f82011682018060405250810190610eed919061179f565b9050600481604051610eff919061182f565b908152602001604051809103902060009054906101000a900460ff16610f5a576040517f08c379a0000000000000000000000000000000000000000000000000000000008152600401610f51906118a3565b60405180910390fd5b60006002600084815260200190815260200160002090508060020160009054906101000a900460ff1615610fc3576040517f08c379a0000000000000000000000000000000000000000000000000000000008152600401610fba90611960565b60405180910390fd5b600073ffffffffffffffffffffffffffffffffffffffff168160020160019054906101000a900473ffffffffffffffffffffffffffffffffffffffff1673ffffffffffffffffffffffffffffffffffffffff1603611056576040517f08c379a000000000000000000000000000000000000000000000000000000000815260040161104d90611ad6565b60405180910390fd5b60018160020160006101000a81548160ff02191690831515021790555060008054906101000a900473ffffffffffffffffffffffffffffffffffffffff1673ffffffffffffffffffffffffffffffffffffffff166340c10f198260020160019054906101000a900473ffffffffffffffffffffffffffffffffffffffff1683600101546040518363ffffffff1660e01b81526004016110f6929190611c59565b600060405180830381600087803b15801561111057600080fd5b505af1158015611124573d6000803e3d6000fd5b505050503373ffffffffffffffffffffffffffffffffffffffff16837fbb5889c77948badf90e8a5c73d55265e5f5d6e4837a79a78c5669691b897faed60405160405180910390a3505050565b60008054906101000a900473ffffffffffffffffffffffffffffffffffffffff1681565b60035481565b6000604051905090565b600080fd5b600080fd5b600080fd5b600080fd5b600080fd5b60008083601f8401126111d4576111d36111af565b5b8235905067ffffffffffffffff8111156111f1576111f06111b4565b5b60208301915083600182028301111561120d5761120c6111b9565b5b9250929050565b6000806020838503121561122b5761122a6111a5565b5b600083013567ffffffffffffffff811115611249576112486111aa565b5b611255858286016111be565b92509250509250929050565b6000819050919050565b61127481611261565b811461127f57600080fd5b50565b6000813590506112918161126b565b92915050565b600080600080606085870312156112b1576112b06111a5565b5b60006112bf87828801611282565b94505060206112d087828801611282565b935050604085013567ffffffffffffffff8111156112f1576112f06111aa565b5b6112fd878288016111be565b925092505092959194509250565b600080600060408486031215611324576113236111a5565b5b600061133286828701611282565b935050602084013567ffffffffffffffff811115611353576113526111aa565b5b61135f868287016111be565b92509250509250925092565b600080fd5b6000601f19601f8301169050919050565b7f4e487b7100000000000000000000000000000000000000000000000000000000600052604160045260246000fd5b6113b982611370565b810181811067ffffffffffffffff821117156113d8576113d7611381565b5b80604052505050565b60006113eb61119b565b90506113f782826113b0565b919050565b600067ffffffffffffffff82111561141757611416611381565b5b61142082611370565b9050602081019050919050565b82818337600083830152505050565b600061144f61144a846113fc565b6113e1565b90508281526020810184848401111561146b5761146a61136b565b5b61147684828561142d565b509392505050565b600082601f830112611493576114926111af565b5b81356114a384826020860161143c565b91505092915050565b600080600080606085870312156114c6576114c56111a5565b5b60006114d487828801611282565b945050602085013567ffffffffffffffff8111156114f5576114f46111aa565b5b611501878288016111be565b9350935050604085013567ffffffffffffffff811115611524576115236111aa565b5b6115308782880161147e565b91505092959194509250565b600060208284031215611552576115516111a5565b5b600061156084828501611282565b91505092915050565b61157281611261565b82525050565b60008115159050919050565b61158d81611578565b82525050565b600073ffffffffffffffffffffffffffffffffffffffff82169050919050565b60006115be82611593565b9050919050565b6115ce816115b3565b82525050565b60006080820190506115e96000830187611569565b6115f66020830186611569565b6116036040830185611584565b61161060608301846115c5565b95945050505050565b6000819050919050565b600061163e61163961163484611593565b611619565b611593565b9050919050565b600061165082611623565b9050919050565b600061166282611645565b9050919050565b61167281611657565b82525050565b600060208201905061168d6000830184611669565b92915050565b600061169e82611645565b9050919050565b6116ae81611693565b82525050565b60006020820190506116c960008301846116a5565b92915050565b60006020820190506116e46000830184611569565b92915050565b60006020820190506116ff60008301846115c5565b92915050565b60005b83811015611723578082015181840152602081019050611708565b60008484015250505050565b600061174261173d846113fc565b6113e1565b90508281526020810184848401111561175e5761175d61136b565b5b611769848285611705565b509392505050565b600082601f830112611786576117856111af565b5b815161179684826020860161172f565b91505092915050565b6000602082840312156117b5576117b46111a5565b5b600082015167ffffffffffffffff8111156117d3576117d26111aa565b5b6117df84828501611771565b91505092915050565b600081519050919050565b600081905092915050565b6000611809826117e8565b61181381856117f3565b9350611823818560208601611705565b80840191505092915050565b600061183b82846117fe565b915081905092915050565b600082825260208201905092915050565b7f4e6f7420617574686f72697a656420746f20637265617465207461736b000000600082015250565b600061188d601d83611846565b915061189882611857565b602082019050919050565b600060208201905081810360008301526118bc81611880565b9050919050565b60006118cf8385611846565b93506118dc83858461142d565b6118e583611370565b840190509392505050565b6000602082019050818103600083015261190b8184866118c3565b90509392505050565b7f5461736b20616c726561647920636f6d706c6574656400000000000000000000600082015250565b600061194a601683611846565b915061195582611914565b602082019050919050565b600060208201905081810360008301526119798161193d565b9050919050565b60006040820190506119956000830186611569565b81810360208301526119a88184866118c3565b9050949350505050565b7f4e6f742061206d656d6265720000000000000000000000000000000000000000600082015250565b60006119e8600c83611846565b91506119f3826119b2565b602082019050919050565b60006020820190508181036000830152611a17816119db565b9050919050565b7f4e6f742074686520636c61696d65720000000000000000000000000000000000600082015250565b6000611a54600f83611846565b9150611a5f82611a1e565b602082019050919050565b60006020820190508181036000830152611a8381611a47565b9050919050565b7f5461736b206e6f7420636c61696d656400000000000000000000000000000000600082015250565b6000611ac0601083611846565b9150611acb82611a8a565b602082019050919050565b60006020820190508181036000830152611aef81611ab3565b9050919050565b7f4e487b7100000000000000000000000000000000000000000000000000000000600052601160045260246000fd5b6000611b3082611261565b91507fffffffffffffffffffffffffffffffffffffffffffffffffffffffffffffffff8203611b6257611b61611af6565b5b600182019050919050565b6000611b78826117e8565b611b828185611846565b9350611b92818560208601611705565b611b9b81611370565b840191505092915050565b6000606082019050611bbb6000830187611569565b8181036020830152611bce8185876118c3565b90508181036040830152611be28184611b6d565b905095945050505050565b7f5461736b20616c726561647920636c61696d6564000000000000000000000000600082015250565b6000611c23601483611846565b9150611c2e82611bed565b602082019050919050565b60006020820190508181036000830152611c5281611c16565b9050919050565b6000604082019050611c6e60008301856115c5565b611c7b6020830184611569565b939250505056fea264697066735822122066da20dc3efc16b5a0eeef6effe8fca4c84ec09d6e3c9e93c867a90cc0de8d2e64736f6c63430008140033a2646970667358221220d55b96bfd97ccde287f493e6ca24e3fbed2e6bed62bb9678377fec9b976dc48c64736f6c63430008140033",
  "linkReferences": {},
  "deployedLinkReferences": {}
}