{"abi":[{"type":"function","name":"createTreasury","inputs":[{"name":"POname","type":"string","internalType":"string"}],"outputs":[{"name":"","type":"address","internalType":"address"}],"stateMutability":"nonpayable"},{"type":"event","name":"TreasuryCreated","inputs":[{"name":"treasuryAddress","type":"address","indexed":true,"internalType":"address"},{"name":"POname","type":"string","indexed":false,"internalType":"string"}],"anonymous":false}],"bytecode":{"object":"0x60808060405234601557610819908161001b8239f35b600080fdfe6080600436101561000f57600080fd5b60003560e01c638e9230121461002457600080fd5b346101855760203660031901126101855760043567ffffffffffffffff811161018557366023820112156101855780600401359067ffffffffffffffff821161016f57601f8201601f19908116603f0116830167ffffffffffffffff81118482101761016f5760405281835236602483830101116101855781600092602460209301838601378301015260405161065980820182811067ffffffffffffffff82111761016f57829161018b833903906000f0908115610163576040516020808252825182820181905290936001600160a01b0316928392919060005b82811061014c57505090604081836000837f7c83ff2ee9835358ddda3131e1114e1b6b9ba081fae5249b59186659c956fe7c9684010152601f80199101168101030190a2604051908152f35b808201870151818501604001528594508601610100565b6040513d6000823e3d90fd5b634e487b7160e01b600052604160045260246000fd5b600080fdfe60808060405234602557600080546001600160a01b031916905561062e908161002b8239f35b600080fdfe6080806040526004361015610049575b50361561001b57600080fd5b6040513481527f1e57e3bb474320be3d2c77138f75b7c3941292d647f5f9634e33a8e94e0e069b60203392a2005b60003560e01c9081632ccbef8b1461044f57508063522f6815146102fa578063a069c1ac14610241578063c1fc006a146102185763e6d66ac81461008d573861000f565b3461020b5761009b366104f0565b916100b160018060a01b036000541633146105a2565b6040516370a0823160e01b81523060048201526001600160a01b03919091169190602081602481865afa80156101965784916000916101de575b50106101a25760405163a9059cbb60e01b81526001600160a01b039091166004820181905260248201849052926020826044816000875af1908115610196576101606020927fe607861baff3d292b19188affe88c1a72bdcb69d3015f18bb2cd0bf5349cc3e194600091610169575b50610564565b604051908152a3005b6101899150843d861161018f575b610181818361052a565b81019061054c565b3861015a565b503d610177565b6040513d6000823e3d90fd5b60405162461bcd60e51b8152602060048201526014602482015273496e73756666696369656e742062616c616e636560601b6044820152606490fd5b9150506020813d602011610210575b816101fa6020938361052a565b8101031261020b57839051386100eb565b600080fd5b3d91506101ed565b3461020b57600036600319011261020b576000546040516001600160a01b039091168152602090f35b3461020b57602036600319011261020b576004356001600160a01b0381169081900361020b576000546001600160a01b0381166102b5576001600160a01b03191681176000556040519081527f2e2f309b7751af88f32d4abe6b297fef684ebda890363b346bf728a6183c9f0290602090a1005b60405162461bcd60e51b815260206004820152601b60248201527f566f74696e6720636f6e747261637420616c72656164792073657400000000006044820152606490fd5b3461020b57604036600319011261020b576004356001600160a01b0381169081900361020b5760243561033860018060a01b036000541633146105a2565b80471061040a57600080808084865af13d15610405573d67ffffffffffffffff81116103ef5760405190610376601f8201601f19166020018361052a565b8152600060203d92013e5b156103b35760207f06097061aeda806b5e9cb4133d9899f332ff0913956567fc0f7ea15e3d19947c91604051908152a2005b60405162461bcd60e51b81526020600482015260146024820152732330b4b632b2103a379039b2b7321022ba3432b960611b6044820152606490fd5b634e487b7160e01b600052604160045260246000fd5b610381565b60405162461bcd60e51b815260206004820152601a60248201527f496e73756666696369656e742045746865722062616c616e63650000000000006044820152606490fd5b3461020b5761045d366104f0565b6323b872dd60e01b84526001600160a01b0391821660048501819052306024860152604485018290529391909216916020826064816000875af1908115610196576101606020927f0af1239547617509a79d1ff0ee4be9ca943bc8410cb0b282dda97d27995a0acd946000916104d35750610564565b6104ea9150843d861161018f57610181818361052a565b8761015a565b606090600319011261020b576004356001600160a01b038116810361020b57906024356001600160a01b038116810361020b579060443590565b90601f8019910116810190811067ffffffffffffffff8211176103ef57604052565b9081602091031261020b5751801515810361020b5790565b1561056b57565b60405162461bcd60e51b815260206004820152600f60248201526e151c985b9cd9995c8819985a5b1959608a1b6044820152606490fd5b156105a957565b60405162461bcd60e51b815260206004820152602160248201527f43616c6c6572206973206e6f742074686520766f74696e6720636f6e747261636044820152601d60fa1b6064820152608490fdfea26469706673582212203809bcaadb9b59622fbbdb9bffc8b2d1f2b96171678797e680d8b4c53448122564736f6c634300081a0033a26469706673582212205ad370588edd42cd535840e1636114cddd876f3372f3fce37cfa82e44b36793564736f6c634300081a0033","linkReferences":{}},"methodIdentifiers":{"createTreasury(string)":"8e923012"},"id":63}