{"abi":[{"type":"constructor","inputs":[],"stateMutability":"nonpayable"},{"type":"receive","stateMutability":"payable"},{"type":"function","name":"receiveTokens","inputs":[{"name":"_token","type":"address","internalType":"address"},{"name":"_from","type":"address","internalType":"address"},{"name":"_amount","type":"uint256","internalType":"uint256"}],"outputs":[],"stateMutability":"nonpayable"},{"type":"function","name":"sendTokens","inputs":[{"name":"_token","type":"address","internalType":"address"},{"name":"_to","type":"address","internalType":"address"},{"name":"_amount","type":"uint256","internalType":"uint256"}],"outputs":[],"stateMutability":"nonpayable"},{"type":"function","name":"setVotingContract","inputs":[{"name":"_votingContract","type":"address","internalType":"address"}],"outputs":[],"stateMutability":"nonpayable"},{"type":"function","name":"votingContract","inputs":[],"outputs":[{"name":"","type":"address","internalType":"address"}],"stateMutability":"view"},{"type":"function","name":"withdrawEther","inputs":[{"name":"_to","type":"address","internalType":"address payable"},{"name":"_amount","type":"uint256","internalType":"uint256"}],"outputs":[],"stateMutability":"nonpayable"},{"type":"event","name":"EtherReceived","inputs":[{"name":"from","type":"address","indexed":true,"internalType":"address"},{"name":"amount","type":"uint256","indexed":false,"internalType":"uint256"}],"anonymous":false},{"type":"event","name":"EtherWithdrawn","inputs":[{"name":"to","type":"address","indexed":true,"internalType":"address"},{"name":"amount","type":"uint256","indexed":false,"internalType":"uint256"}],"anonymous":false},{"type":"event","name":"TokensReceived","inputs":[{"name":"token","type":"address","indexed":true,"internalType":"address"},{"name":"from","type":"address","indexed":true,"internalType":"address"},{"name":"amount","type":"uint256","indexed":false,"internalType":"uint256"}],"anonymous":false},{"type":"event","name":"TokensSent","inputs":[{"name":"token","type":"address","indexed":true,"internalType":"address"},{"name":"to","type":"address","indexed":true,"internalType":"address"},{"name":"amount","type":"uint256","indexed":false,"internalType":"uint256"}],"anonymous":false},{"type":"event","name":"VotingContractSet","inputs":[{"name":"votingContract","type":"address","indexed":false,"internalType":"address"}],"anonymous":false}],"bytecode":{"object":"0x60808060405234602557600080546001600160a01b031916905561062e908161002b8239f35b600080fdfe6080806040526004361015610049575b50361561001b57600080fd5b6040513481527f1e57e3bb474320be3d2c77138f75b7c3941292d647f5f9634e33a8e94e0e069b60203392a2005b60003560e01c9081632ccbef8b1461044f57508063522f6815146102fa578063a069c1ac14610241578063c1fc006a146102185763e6d66ac81461008d573861000f565b3461020b5761009b366104f0565b916100b160018060a01b036000541633146105a2565b6040516370a0823160e01b81523060048201526001600160a01b03919091169190602081602481865afa80156101965784916000916101de575b50106101a25760405163a9059cbb60e01b81526001600160a01b039091166004820181905260248201849052926020826044816000875af1908115610196576101606020927fe607861baff3d292b19188affe88c1a72bdcb69d3015f18bb2cd0bf5349cc3e194600091610169575b50610564565b604051908152a3005b6101899150843d861161018f575b610181818361052a565b81019061054c565b3861015a565b503d610177565b6040513d6000823e3d90fd5b60405162461bcd60e51b8152602060048201526014602482015273496e73756666696369656e742062616c616e636560601b6044820152606490fd5b9150506020813d602011610210575b816101fa6020938361052a565b8101031261020b57839051386100eb565b600080fd5b3d91506101ed565b3461020b57600036600319011261020b576000546040516001600160a01b039091168152602090f35b3461020b57602036600319011261020b576004356001600160a01b0381169081900361020b576000546001600160a01b0381166102b5576001600160a01b03191681176000556040519081527f2e2f309b7751af88f32d4abe6b297fef684ebda890363b346bf728a6183c9f0290602090a1005b60405162461bcd60e51b815260206004820152601b60248201527f566f74696e6720636f6e747261637420616c72656164792073657400000000006044820152606490fd5b3461020b57604036600319011261020b576004356001600160a01b0381169081900361020b5760243561033860018060a01b036000541633146105a2565b80471061040a57600080808084865af13d15610405573d67ffffffffffffffff81116103ef5760405190610376601f8201601f19166020018361052a565b8152600060203d92013e5b156103b35760207f06097061aeda806b5e9cb4133d9899f332ff0913956567fc0f7ea15e3d19947c91604051908152a2005b60405162461bcd60e51b81526020600482015260146024820152732330b4b632b2103a379039b2b7321022ba3432b960611b6044820152606490fd5b634e487b7160e01b600052604160045260246000fd5b610381565b60405162461bcd60e51b815260206004820152601a60248201527f496e73756666696369656e742045746865722062616c616e63650000000000006044820152606490fd5b3461020b5761045d366104f0565b6323b872dd60e01b84526001600160a01b0391821660048501819052306024860152604485018290529391909216916020826064816000875af1908115610196576101606020927f0af1239547617509a79d1ff0ee4be9ca943bc8410cb0b282dda97d27995a0acd946000916104d35750610564565b6104ea9150843d861161018f57610181818361052a565b8761015a565b606090600319011261020b576004356001600160a01b038116810361020b57906024356001600160a01b038116810361020b579060443590565b90601f8019910116810190811067ffffffffffffffff8211176103ef57604052565b9081602091031261020b5751801515810361020b5790565b1561056b57565b60405162461bcd60e51b815260206004820152600f60248201526e151c985b9cd9995c8819985a5b1959608a1b6044820152606490fd5b156105a957565b60405162461bcd60e51b815260206004820152602160248201527f43616c6c6572206973206e6f742074686520766f74696e6720636f6e747261636044820152601d60fa1b6064820152608490fdfea26469706673582212203809bcaadb9b59622fbbdb9bffc8b2d1f2b96171678797e680d8b4c53448122564736f6c634300081a0033","linkReferences":{}},"methodIdentifiers":{"receiveTokens(address,address,uint256)":"2ccbef8b","sendTokens(address,address,uint256)":"e6d66ac8","setVotingContract(address)":"a069c1ac","votingContract()":"c1fc006a","withdrawEther(address,uint256)":"522f6815"},"id":63}