{
  "_format": "hh-sol-artifact-1",
  "contractName": "TreasuryFactory",
  "sourceName": "contracts/TreasuryFactory.sol",
  "abi": [
    {
      "anonymous": false,
      "inputs": [
        {
          "indexed": true,
          "internalType": "address",
          "name": "treasuryAddress",
          "type": "address"
        }
      ],
      "name": "TreasuryCreated",
      "type": "event"
    },
    {
      "inputs": [],
      "name": "createTreasury",
      "outputs": [
        {
          "internalType": "address",
          "name": "",
          "type": "address"
        }
      ],
      "stateMutability": "nonpayable",
      "type": "function"
    }
  ],
  "bytecode": "0x608060405234801561001057600080fd5b50610f3b806100206000396000f3fe608060405234801561001057600080fd5b506004361061002b5760003560e01c80638fd56c8f14610030575b600080fd5b61003861004e565b6040516100459190610114565b60405180910390f35b60008060405161005d906100c6565b604051809103906000f080158015610079573d6000803e3d6000fd5b5090508073ffffffffffffffffffffffffffffffffffffffff167f53c77165ef55b79608b09299df26589eb0f8a7b4047fd78eb5d398493bb87fd560405160405180910390a28091505090565b610dd68061013083390190565b600073ffffffffffffffffffffffffffffffffffffffff82169050919050565b60006100fe826100d3565b9050919050565b61010e816100f3565b82525050565b60006020820190506101296000830184610105565b9291505056fe608060405234801561001057600080fd5b50610db6806100206000396000f3fe60806040526004361061004e5760003560e01c80632ccbef8b1461005a578063522f681514610083578063a069c1ac146100ac578063c1fc006a146100d5578063e6d66ac81461010057610055565b3661005557005b600080fd5b34801561006657600080fd5b50610081600480360381019061007c9190610822565b610129565b005b34801561008f57600080fd5b506100aa60048036038101906100a591906108b3565b610252565b005b3480156100b857600080fd5b506100d360048036038101906100ce91906108f3565b610422565b005b3480156100e157600080fd5b506100ea6104f4565b6040516100f7919061092f565b60405180910390f35b34801561010c57600080fd5b5061012760048036038101906101229190610822565b610518565b005b8273ffffffffffffffffffffffffffffffffffffffff166323b872dd8330846040518463ffffffff1660e01b815260040161016693929190610959565b6020604051808303816000875af1158015610185573d6000803e3d6000fd5b505050506040513d601f19601f820116820180604052508101906101a991906109c8565b6101e8576040517f08c379a00000000000000000000000000000000000000000000000000000000081526004016101df90610a52565b60405180910390fd5b8173ffffffffffffffffffffffffffffffffffffffff168373ffffffffffffffffffffffffffffffffffffffff167f0af1239547617509a79d1ff0ee4be9ca943bc8410cb0b282dda97d27995a0acd836040516102459190610a72565b60405180910390a3505050565b60008054906101000a900473ffffffffffffffffffffffffffffffffffffffff1673ffffffffffffffffffffffffffffffffffffffff163373ffffffffffffffffffffffffffffffffffffffff16146102e0576040517f08c379a00000000000000000000000000000000000000000000000000000000081526004016102d790610aff565b60405180910390fd5b80471015610323576040517f08c379a000000000000000000000000000000000000000000000000000000000815260040161031a90610b6b565b60405180910390fd5b60008273ffffffffffffffffffffffffffffffffffffffff168260405161034990610bbc565b60006040518083038185875af1925050503d8060008114610386576040519150601f19603f3d011682016040523d82523d6000602084013e61038b565b606091505b50509050806103cf576040517f08c379a00000000000000000000000000000000000000000000000000000000081526004016103c690610c1d565b60405180910390fd5b8273ffffffffffffffffffffffffffffffffffffffff167f06097061aeda806b5e9cb4133d9899f332ff0913956567fc0f7ea15e3d19947c836040516104159190610a72565b60405180910390a2505050565b600073ffffffffffffffffffffffffffffffffffffffff1660008054906101000a900473ffffffffffffffffffffffffffffffffffffffff1673ffffffffffffffffffffffffffffffffffffffff16146104b1576040517f08c379a00000000000000000000000000000000000000000000000000000000081526004016104a890610c89565b60405180910390fd5b806000806101000a81548173ffffffffffffffffffffffffffffffffffffffff021916908373ffffffffffffffffffffffffffffffffffffffff16021790555050565b60008054906101000a900473ffffffffffffffffffffffffffffffffffffffff1681565b60008054906101000a900473ffffffffffffffffffffffffffffffffffffffff1673ffffffffffffffffffffffffffffffffffffffff163373ffffffffffffffffffffffffffffffffffffffff16146105a6576040517f08c379a000000000000000000000000000000000000000000000000000000000815260040161059d90610aff565b60405180910390fd5b808373ffffffffffffffffffffffffffffffffffffffff166370a08231306040518263ffffffff1660e01b81526004016105e0919061092f565b602060405180830381865afa1580156105fd573d6000803e3d6000fd5b505050506040513d601f19601f820116820180604052508101906106219190610cbe565b1015610662576040517f08c379a000000000000000000000000000000000000000000000000000000000815260040161065990610d37565b60405180910390fd5b8273ffffffffffffffffffffffffffffffffffffffff1663a9059cbb83836040518363ffffffff1660e01b815260040161069d929190610d57565b6020604051808303816000875af11580156106bc573d6000803e3d6000fd5b505050506040513d601f19601f820116820180604052508101906106e091906109c8565b61071f576040517f08c379a000000000000000000000000000000000000000000000000000000000815260040161071690610a52565b60405180910390fd5b8173ffffffffffffffffffffffffffffffffffffffff168373ffffffffffffffffffffffffffffffffffffffff167fe607861baff3d292b19188affe88c1a72bdcb69d3015f18bb2cd0bf5349cc3e18360405161077c9190610a72565b60405180910390a3505050565b600080fd5b600073ffffffffffffffffffffffffffffffffffffffff82169050919050565b60006107b98261078e565b9050919050565b6107c9816107ae565b81146107d457600080fd5b50565b6000813590506107e6816107c0565b92915050565b6000819050919050565b6107ff816107ec565b811461080a57600080fd5b50565b60008135905061081c816107f6565b92915050565b60008060006060848603121561083b5761083a610789565b5b6000610849868287016107d7565b935050602061085a868287016107d7565b925050604061086b8682870161080d565b9150509250925092565b60006108808261078e565b9050919050565b61089081610875565b811461089b57600080fd5b50565b6000813590506108ad81610887565b92915050565b600080604083850312156108ca576108c9610789565b5b60006108d88582860161089e565b92505060206108e98582860161080d565b9150509250929050565b60006020828403121561090957610908610789565b5b6000610917848285016107d7565b91505092915050565b610929816107ae565b82525050565b60006020820190506109446000830184610920565b92915050565b610953816107ec565b82525050565b600060608201905061096e6000830186610920565b61097b6020830185610920565b610988604083018461094a565b949350505050565b60008115159050919050565b6109a581610990565b81146109b057600080fd5b50565b6000815190506109c28161099c565b92915050565b6000602082840312156109de576109dd610789565b5b60006109ec848285016109b3565b91505092915050565b600082825260208201905092915050565b7f5472616e73666572206661696c65640000000000000000000000000000000000600082015250565b6000610a3c600f836109f5565b9150610a4782610a06565b602082019050919050565b60006020820190508181036000830152610a6b81610a2f565b9050919050565b6000602082019050610a87600083018461094a565b92915050565b7f43616c6c6572206973206e6f742074686520766f74696e6720636f6e7472616360008201527f7400000000000000000000000000000000000000000000000000000000000000602082015250565b6000610ae96021836109f5565b9150610af482610a8d565b604082019050919050565b60006020820190508181036000830152610b1881610adc565b9050919050565b7f496e73756666696369656e742045746865722062616c616e6365000000000000600082015250565b6000610b55601a836109f5565b9150610b6082610b1f565b602082019050919050565b60006020820190508181036000830152610b8481610b48565b9050919050565b600081905092915050565b50565b6000610ba6600083610b8b565b9150610bb182610b96565b600082019050919050565b6000610bc782610b99565b9150819050919050565b7f4661696c656420746f2073656e64204574686572000000000000000000000000600082015250565b6000610c076014836109f5565b9150610c1282610bd1565b602082019050919050565b60006020820190508181036000830152610c3681610bfa565b9050919050565b7f566f74696e6720636f6e747261637420616c7265616479207365740000000000600082015250565b6000610c73601b836109f5565b9150610c7e82610c3d565b602082019050919050565b60006020820190508181036000830152610ca281610c66565b9050919050565b600081519050610cb8816107f6565b92915050565b600060208284031215610cd457610cd3610789565b5b6000610ce284828501610ca9565b91505092915050565b7f496e73756666696369656e742062616c616e6365000000000000000000000000600082015250565b6000610d216014836109f5565b9150610d2c82610ceb565b602082019050919050565b60006020820190508181036000830152610d5081610d14565b9050919050565b6000604082019050610d6c6000830185610920565b610d79602083018461094a565b939250505056fea26469706673582212204bae5a8421f45e22f89117105155efa88b2ead7474812bee205a1ba77b4be27964736f6c63430008140033a2646970667358221220c6ef4a44598461743c874eaa1858d792057d0f0f1c599a96cfe4bea3bf9a96eb64736f6c63430008140033",
  "linkReferences": {},
  "deployedLinkReferences": {}
}