{
  "_format": "hh-sol-artifact-1",
  "contractName": "Treasury",
  "sourceName": "contracts/Treasury.sol",
  "abi": [
    {
      "inputs": [],
      "stateMutability": "nonpayable",
      "type": "constructor"
    },
    {
      "anonymous": false,
      "inputs": [
        {
          "indexed": true,
          "internalType": "address",
          "name": "to",
          "type": "address"
        },
        {
          "indexed": false,
          "internalType": "uint256",
          "name": "amount",
          "type": "uint256"
        }
      ],
      "name": "EtherWithdrawn",
      "type": "event"
    },
    {
      "anonymous": false,
      "inputs": [
        {
          "indexed": true,
          "internalType": "address",
          "name": "token",
          "type": "address"
        },
        {
          "indexed": true,
          "internalType": "address",
          "name": "from",
          "type": "address"
        },
        {
          "indexed": false,
          "internalType": "uint256",
          "name": "amount",
          "type": "uint256"
        }
      ],
      "name": "TokensReceived",
      "type": "event"
    },
    {
      "anonymous": false,
      "inputs": [
        {
          "indexed": true,
          "internalType": "address",
          "name": "token",
          "type": "address"
        },
        {
          "indexed": true,
          "internalType": "address",
          "name": "to",
          "type": "address"
        },
        {
          "indexed": false,
          "internalType": "uint256",
          "name": "amount",
          "type": "uint256"
        }
      ],
      "name": "TokensSent",
      "type": "event"
    },
    {
      "anonymous": false,
      "inputs": [
        {
          "indexed": false,
          "internalType": "address",
          "name": "votingContract",
          "type": "address"
        }
      ],
      "name": "VotingContractSet",
      "type": "event"
    },
    {
      "inputs": [
        {
          "internalType": "address",
          "name": "_token",
          "type": "address"
        },
        {
          "internalType": "address",
          "name": "_from",
          "type": "address"
        },
        {
          "internalType": "uint256",
          "name": "_amount",
          "type": "uint256"
        }
      ],
      "name": "receiveTokens",
      "outputs": [],
      "stateMutability": "nonpayable",
      "type": "function"
    },
    {
      "inputs": [
        {
          "internalType": "address",
          "name": "_token",
          "type": "address"
        },
        {
          "internalType": "address",
          "name": "_to",
          "type": "address"
        },
        {
          "internalType": "uint256",
          "name": "_amount",
          "type": "uint256"
        }
      ],
      "name": "sendTokens",
      "outputs": [],
      "stateMutability": "nonpayable",
      "type": "function"
    },
    {
      "inputs": [
        {
          "internalType": "address",
          "name": "_votingContract",
          "type": "address"
        }
      ],
      "name": "setVotingContract",
      "outputs": [],
      "stateMutability": "nonpayable",
      "type": "function"
    },
    {
      "inputs": [],
      "name": "votingContract",
      "outputs": [
        {
          "internalType": "address",
          "name": "",
          "type": "address"
        }
      ],
      "stateMutability": "view",
      "type": "function"
    },
    {
      "inputs": [
        {
          "internalType": "address payable",
          "name": "_to",
          "type": "address"
        },
        {
          "internalType": "uint256",
          "name": "_amount",
          "type": "uint256"
        }
      ],
      "name": "withdrawEther",
      "outputs": [],
      "stateMutability": "nonpayable",
      "type": "function"
    },
    {
      "stateMutability": "payable",
      "type": "receive"
    }
  ],
  "bytecode": "0x608060405234801561001057600080fd5b50610ded806100206000396000f3fe60806040526004361061004e5760003560e01c80632ccbef8b1461005a578063522f681514610083578063a069c1ac146100ac578063c1fc006a146100d5578063e6d66ac81461010057610055565b3661005557005b600080fd5b34801561006657600080fd5b50610081600480360381019061007c9190610859565b610129565b005b34801561008f57600080fd5b506100aa60048036038101906100a591906108ea565b610252565b005b3480156100b857600080fd5b506100d360048036038101906100ce919061092a565b610422565b005b3480156100e157600080fd5b506100ea61052b565b6040516100f79190610966565b60405180910390f35b34801561010c57600080fd5b5061012760048036038101906101229190610859565b61054f565b005b8273ffffffffffffffffffffffffffffffffffffffff166323b872dd8330846040518463ffffffff1660e01b815260040161016693929190610990565b6020604051808303816000875af1158015610185573d6000803e3d6000fd5b505050506040513d601f19601f820116820180604052508101906101a991906109ff565b6101e8576040517f08c379a00000000000000000000000000000000000000000000000000000000081526004016101df90610a89565b60405180910390fd5b8173ffffffffffffffffffffffffffffffffffffffff168373ffffffffffffffffffffffffffffffffffffffff167f0af1239547617509a79d1ff0ee4be9ca943bc8410cb0b282dda97d27995a0acd836040516102459190610aa9565b60405180910390a3505050565b60008054906101000a900473ffffffffffffffffffffffffffffffffffffffff1673ffffffffffffffffffffffffffffffffffffffff163373ffffffffffffffffffffffffffffffffffffffff16146102e0576040517f08c379a00000000000000000000000000000000000000000000000000000000081526004016102d790610b36565b60405180910390fd5b80471015610323576040517f08c379a000000000000000000000000000000000000000000000000000000000815260040161031a90610ba2565b60405180910390fd5b60008273ffffffffffffffffffffffffffffffffffffffff168260405161034990610bf3565b60006040518083038185875af1925050503d8060008114610386576040519150601f19603f3d011682016040523d82523d6000602084013e61038b565b606091505b50509050806103cf576040517f08c379a00000000000000000000000000000000000000000000000000000000081526004016103c690610c54565b60405180910390fd5b8273ffffffffffffffffffffffffffffffffffffffff167f06097061aeda806b5e9cb4133d9899f332ff0913956567fc0f7ea15e3d19947c836040516104159190610aa9565b60405180910390a2505050565b600073ffffffffffffffffffffffffffffffffffffffff1660008054906101000a900473ffffffffffffffffffffffffffffffffffffffff1673ffffffffffffffffffffffffffffffffffffffff16146104b1576040517f08c379a00000000000000000000000000000000000000000000000000000000081526004016104a890610cc0565b60405180910390fd5b806000806101000a81548173ffffffffffffffffffffffffffffffffffffffff021916908373ffffffffffffffffffffffffffffffffffffffff1602179055507f2e2f309b7751af88f32d4abe6b297fef684ebda890363b346bf728a6183c9f02816040516105209190610966565b60405180910390a150565b60008054906101000a900473ffffffffffffffffffffffffffffffffffffffff1681565b60008054906101000a900473ffffffffffffffffffffffffffffffffffffffff1673ffffffffffffffffffffffffffffffffffffffff163373ffffffffffffffffffffffffffffffffffffffff16146105dd576040517f08c379a00000000000000000000000000000000000000000000000000000000081526004016105d490610b36565b60405180910390fd5b808373ffffffffffffffffffffffffffffffffffffffff166370a08231306040518263ffffffff1660e01b81526004016106179190610966565b602060405180830381865afa158015610634573d6000803e3d6000fd5b505050506040513d601f19601f820116820180604052508101906106589190610cf5565b1015610699576040517f08c379a000000000000000000000000000000000000000000000000000000000815260040161069090610d6e565b60405180910390fd5b8273ffffffffffffffffffffffffffffffffffffffff1663a9059cbb83836040518363ffffffff1660e01b81526004016106d4929190610d8e565b6020604051808303816000875af11580156106f3573d6000803e3d6000fd5b505050506040513d601f19601f8201168201806040525081019061071791906109ff565b610756576040517f08c379a000000000000000000000000000000000000000000000000000000000815260040161074d90610a89565b60405180910390fd5b8173ffffffffffffffffffffffffffffffffffffffff168373ffffffffffffffffffffffffffffffffffffffff167fe607861baff3d292b19188affe88c1a72bdcb69d3015f18bb2cd0bf5349cc3e1836040516107b39190610aa9565b60405180910390a3505050565b600080fd5b600073ffffffffffffffffffffffffffffffffffffffff82169050919050565b60006107f0826107c5565b9050919050565b610800816107e5565b811461080b57600080fd5b50565b60008135905061081d816107f7565b92915050565b6000819050919050565b61083681610823565b811461084157600080fd5b50565b6000813590506108538161082d565b92915050565b600080600060608486031215610872576108716107c0565b5b60006108808682870161080e565b93505060206108918682870161080e565b92505060406108a286828701610844565b9150509250925092565b60006108b7826107c5565b9050919050565b6108c7816108ac565b81146108d257600080fd5b50565b6000813590506108e4816108be565b92915050565b60008060408385031215610901576109006107c0565b5b600061090f858286016108d5565b925050602061092085828601610844565b9150509250929050565b6000602082840312156109405761093f6107c0565b5b600061094e8482850161080e565b91505092915050565b610960816107e5565b82525050565b600060208201905061097b6000830184610957565b92915050565b61098a81610823565b82525050565b60006060820190506109a56000830186610957565b6109b26020830185610957565b6109bf6040830184610981565b949350505050565b60008115159050919050565b6109dc816109c7565b81146109e757600080fd5b50565b6000815190506109f9816109d3565b92915050565b600060208284031215610a1557610a146107c0565b5b6000610a23848285016109ea565b91505092915050565b600082825260208201905092915050565b7f5472616e73666572206661696c65640000000000000000000000000000000000600082015250565b6000610a73600f83610a2c565b9150610a7e82610a3d565b602082019050919050565b60006020820190508181036000830152610aa281610a66565b9050919050565b6000602082019050610abe6000830184610981565b92915050565b7f43616c6c6572206973206e6f742074686520766f74696e6720636f6e7472616360008201527f7400000000000000000000000000000000000000000000000000000000000000602082015250565b6000610b20602183610a2c565b9150610b2b82610ac4565b604082019050919050565b60006020820190508181036000830152610b4f81610b13565b9050919050565b7f496e73756666696369656e742045746865722062616c616e6365000000000000600082015250565b6000610b8c601a83610a2c565b9150610b9782610b56565b602082019050919050565b60006020820190508181036000830152610bbb81610b7f565b9050919050565b600081905092915050565b50565b6000610bdd600083610bc2565b9150610be882610bcd565b600082019050919050565b6000610bfe82610bd0565b9150819050919050565b7f4661696c656420746f2073656e64204574686572000000000000000000000000600082015250565b6000610c3e601483610a2c565b9150610c4982610c08565b602082019050919050565b60006020820190508181036000830152610c6d81610c31565b9050919050565b7f566f74696e6720636f6e747261637420616c7265616479207365740000000000600082015250565b6000610caa601b83610a2c565b9150610cb582610c74565b602082019050919050565b60006020820190508181036000830152610cd981610c9d565b9050919050565b600081519050610cef8161082d565b92915050565b600060208284031215610d0b57610d0a6107c0565b5b6000610d1984828501610ce0565b91505092915050565b7f496e73756666696369656e742062616c616e6365000000000000000000000000600082015250565b6000610d58601483610a2c565b9150610d6382610d22565b602082019050919050565b60006020820190508181036000830152610d8781610d4b565b9050919050565b6000604082019050610da36000830185610957565b610db06020830184610981565b939250505056fea2646970667358221220135bd2a37d918224b5e18619f97bbd3e48211c0c61b777eaa0bcedad93c9411a64736f6c63430008140033",
  "linkReferences": {},
  "deployedLinkReferences": {}
}