{
  "_format": "hh-sol-artifact-1",
  "contractName": "TreasuryFactory",
  "sourceName": "contracts/TreasuryFactory.sol",
  "abi": [
    {
      "anonymous": false,
      "inputs": [
        {
          "indexed": true,
          "internalType": "address",
          "name": "treasuryAddress",
          "type": "address"
        },
        {
          "indexed": false,
          "internalType": "string",
          "name": "POname",
          "type": "string"
        }
      ],
      "name": "TreasuryCreated",
      "type": "event"
    },
    {
      "inputs": [
        {
          "internalType": "string",
          "name": "POname",
          "type": "string"
        }
      ],
      "name": "createTreasury",
      "outputs": [
        {
          "internalType": "address",
          "name": "",
          "type": "address"
        }
      ],
      "stateMutability": "nonpayable",
      "type": "function"
    }
  ],
  "bytecode": "0x608060405234801561001057600080fd5b50611264806100206000396000f3fe608060405234801561001057600080fd5b506004361061002b5760003560e01c80638e92301214610030575b600080fd5b61004a6004803603810190610045919061024c565b610060565b60405161005791906102d6565b60405180910390f35b60008060405161006f906100e5565b604051809103906000f08015801561008b573d6000803e3d6000fd5b5090508073ffffffffffffffffffffffffffffffffffffffff167f7c83ff2ee9835358ddda3131e1114e1b6b9ba081fae5249b59186659c956fe7c846040516100d49190610370565b60405180910390a280915050919050565b610e9c8061039383390190565b6000604051905090565b600080fd5b600080fd5b600080fd5b600080fd5b6000601f19601f8301169050919050565b7f4e487b7100000000000000000000000000000000000000000000000000000000600052604160045260246000fd5b61015982610110565b810181811067ffffffffffffffff8211171561017857610177610121565b5b80604052505050565b600061018b6100f2565b90506101978282610150565b919050565b600067ffffffffffffffff8211156101b7576101b6610121565b5b6101c082610110565b9050602081019050919050565b82818337600083830152505050565b60006101ef6101ea8461019c565b610181565b90508281526020810184848401111561020b5761020a61010b565b5b6102168482856101cd565b509392505050565b600082601f83011261023357610232610106565b5b81356102438482602086016101dc565b91505092915050565b600060208284031215610262576102616100fc565b5b600082013567ffffffffffffffff8111156102805761027f610101565b5b61028c8482850161021e565b91505092915050565b600073ffffffffffffffffffffffffffffffffffffffff82169050919050565b60006102c082610295565b9050919050565b6102d0816102b5565b82525050565b60006020820190506102eb60008301846102c7565b92915050565b600081519050919050565b600082825260208201905092915050565b60005b8381101561032b578082015181840152602081019050610310565b60008484015250505050565b6000610342826102f1565b61034c81856102fc565b935061035c81856020860161030d565b61036581610110565b840191505092915050565b6000602082019050818103600083015261038a8184610337565b90509291505056fe608060405234801561001057600080fd5b5060008060006101000a81548173ffffffffffffffffffffffffffffffffffffffff021916908373ffffffffffffffffffffffffffffffffffffffff160217905550610e3b806100616000396000f3fe60806040526004361061004e5760003560e01c80632ccbef8b146100a8578063522f6815146100d1578063a069c1ac146100fa578063c1fc006a14610123578063e6d66ac81461014e576100a3565b366100a3573373ffffffffffffffffffffffffffffffffffffffff167f1e57e3bb474320be3d2c77138f75b7c3941292d647f5f9634e33a8e94e0e069b346040516100999190610827565b60405180910390a2005b600080fd5b3480156100b457600080fd5b506100cf60048036038101906100ca91906108d1565b610177565b005b3480156100dd57600080fd5b506100f860048036038101906100f39190610962565b6102a0565b005b34801561010657600080fd5b50610121600480360381019061011c91906109a2565b610470565b005b34801561012f57600080fd5b50610138610579565b60405161014591906109de565b60405180910390f35b34801561015a57600080fd5b50610175600480360381019061017091906108d1565b61059d565b005b8273ffffffffffffffffffffffffffffffffffffffff166323b872dd8330846040518463ffffffff1660e01b81526004016101b4939291906109f9565b6020604051808303816000875af11580156101d3573d6000803e3d6000fd5b505050506040513d601f19601f820116820180604052508101906101f79190610a68565b610236576040517f08c379a000000000000000000000000000000000000000000000000000000000815260040161022d90610af2565b60405180910390fd5b8173ffffffffffffffffffffffffffffffffffffffff168373ffffffffffffffffffffffffffffffffffffffff167f0af1239547617509a79d1ff0ee4be9ca943bc8410cb0b282dda97d27995a0acd836040516102939190610827565b60405180910390a3505050565b60008054906101000a900473ffffffffffffffffffffffffffffffffffffffff1673ffffffffffffffffffffffffffffffffffffffff163373ffffffffffffffffffffffffffffffffffffffff161461032e576040517f08c379a000000000000000000000000000000000000000000000000000000000815260040161032590610b84565b60405180910390fd5b80471015610371576040517f08c379a000000000000000000000000000000000000000000000000000000000815260040161036890610bf0565b60405180910390fd5b60008273ffffffffffffffffffffffffffffffffffffffff168260405161039790610c41565b60006040518083038185875af1925050503d80600081146103d4576040519150601f19603f3d011682016040523d82523d6000602084013e6103d9565b606091505b505090508061041d576040517f08c379a000000000000000000000000000000000000000000000000000000000815260040161041490610ca2565b60405180910390fd5b8273ffffffffffffffffffffffffffffffffffffffff167f06097061aeda806b5e9cb4133d9899f332ff0913956567fc0f7ea15e3d19947c836040516104639190610827565b60405180910390a2505050565b600073ffffffffffffffffffffffffffffffffffffffff1660008054906101000a900473ffffffffffffffffffffffffffffffffffffffff1673ffffffffffffffffffffffffffffffffffffffff16146104ff576040517f08c379a00000000000000000000000000000000000000000000000000000000081526004016104f690610d0e565b60405180910390fd5b806000806101000a81548173ffffffffffffffffffffffffffffffffffffffff021916908373ffffffffffffffffffffffffffffffffffffffff1602179055507f2e2f309b7751af88f32d4abe6b297fef684ebda890363b346bf728a6183c9f028160405161056e91906109de565b60405180910390a150565b60008054906101000a900473ffffffffffffffffffffffffffffffffffffffff1681565b60008054906101000a900473ffffffffffffffffffffffffffffffffffffffff1673ffffffffffffffffffffffffffffffffffffffff163373ffffffffffffffffffffffffffffffffffffffff161461062b576040517f08c379a000000000000000000000000000000000000000000000000000000000815260040161062290610b84565b60405180910390fd5b808373ffffffffffffffffffffffffffffffffffffffff166370a08231306040518263ffffffff1660e01b815260040161066591906109de565b602060405180830381865afa158015610682573d6000803e3d6000fd5b505050506040513d601f19601f820116820180604052508101906106a69190610d43565b10156106e7576040517f08c379a00000000000000000000000000000000000000000000000000000000081526004016106de90610dbc565b60405180910390fd5b8273ffffffffffffffffffffffffffffffffffffffff1663a9059cbb83836040518363ffffffff1660e01b8152600401610722929190610ddc565b6020604051808303816000875af1158015610741573d6000803e3d6000fd5b505050506040513d601f19601f820116820180604052508101906107659190610a68565b6107a4576040517f08c379a000000000000000000000000000000000000000000000000000000000815260040161079b90610af2565b60405180910390fd5b8173ffffffffffffffffffffffffffffffffffffffff168373ffffffffffffffffffffffffffffffffffffffff167fe607861baff3d292b19188affe88c1a72bdcb69d3015f18bb2cd0bf5349cc3e1836040516108019190610827565b60405180910390a3505050565b6000819050919050565b6108218161080e565b82525050565b600060208201905061083c6000830184610818565b92915050565b600080fd5b600073ffffffffffffffffffffffffffffffffffffffff82169050919050565b600061087282610847565b9050919050565b61088281610867565b811461088d57600080fd5b50565b60008135905061089f81610879565b92915050565b6108ae8161080e565b81146108b957600080fd5b50565b6000813590506108cb816108a5565b92915050565b6000806000606084860312156108ea576108e9610842565b5b60006108f886828701610890565b935050602061090986828701610890565b925050604061091a868287016108bc565b9150509250925092565b600061092f82610847565b9050919050565b61093f81610924565b811461094a57600080fd5b50565b60008135905061095c81610936565b92915050565b6000806040838503121561097957610978610842565b5b60006109878582860161094d565b9250506020610998858286016108bc565b9150509250929050565b6000602082840312156109b8576109b7610842565b5b60006109c684828501610890565b91505092915050565b6109d881610867565b82525050565b60006020820190506109f360008301846109cf565b92915050565b6000606082019050610a0e60008301866109cf565b610a1b60208301856109cf565b610a286040830184610818565b949350505050565b60008115159050919050565b610a4581610a30565b8114610a5057600080fd5b50565b600081519050610a6281610a3c565b92915050565b600060208284031215610a7e57610a7d610842565b5b6000610a8c84828501610a53565b91505092915050565b600082825260208201905092915050565b7f5472616e73666572206661696c65640000000000000000000000000000000000600082015250565b6000610adc600f83610a95565b9150610ae782610aa6565b602082019050919050565b60006020820190508181036000830152610b0b81610acf565b9050919050565b7f43616c6c6572206973206e6f742074686520766f74696e6720636f6e7472616360008201527f7400000000000000000000000000000000000000000000000000000000000000602082015250565b6000610b6e602183610a95565b9150610b7982610b12565b604082019050919050565b60006020820190508181036000830152610b9d81610b61565b9050919050565b7f496e73756666696369656e742045746865722062616c616e6365000000000000600082015250565b6000610bda601a83610a95565b9150610be582610ba4565b602082019050919050565b60006020820190508181036000830152610c0981610bcd565b9050919050565b600081905092915050565b50565b6000610c2b600083610c10565b9150610c3682610c1b565b600082019050919050565b6000610c4c82610c1e565b9150819050919050565b7f4661696c656420746f2073656e64204574686572000000000000000000000000600082015250565b6000610c8c601483610a95565b9150610c9782610c56565b602082019050919050565b60006020820190508181036000830152610cbb81610c7f565b9050919050565b7f566f74696e6720636f6e747261637420616c7265616479207365740000000000600082015250565b6000610cf8601b83610a95565b9150610d0382610cc2565b602082019050919050565b60006020820190508181036000830152610d2781610ceb565b9050919050565b600081519050610d3d816108a5565b92915050565b600060208284031215610d5957610d58610842565b5b6000610d6784828501610d2e565b91505092915050565b7f496e73756666696369656e742062616c616e6365000000000000000000000000600082015250565b6000610da6601483610a95565b9150610db182610d70565b602082019050919050565b60006020820190508181036000830152610dd581610d99565b9050919050565b6000604082019050610df160008301856109cf565b610dfe6020830184610818565b939250505056fea26469706673582212205939d809e782bfd4e292e39bbd05e506d76be09ebd35d0fd280bc430a2f7c81764736f6c63430008140033a2646970667358221220cd7a7627f8872955ace2499a37b6576e59bd88136529fe0c521a5180361d115964736f6c63430008140033",
  "linkReferences": {},
  "deployedLinkReferences": {}
}